S01400006275696C642F7275736566692E7372656343
S3150800800010100020B98300082DE40208F98300083F
S315080080101D840008F88300080B84000884A99021B1
S3150800802080DB0900B3830008B3830008E13E01083A
S31508008030B3830008B3830008B3830008A54E01087C
S31508008040B3830008B3830008894D0108014E01086F
S31508008050B3830008B3830008859D04088D9D040832
S31508008060959D04089D9D0408A59D0408D542010810
S315080080700D4301084943010885430108C143010826
S31508008080F9430108354401085D3F0108B541010877
S31508008090D9410108FD41010821420108AD9D0408A6
S315080080A0B3830008C1500108B3830008E5500108EE
S315080080B0914F0108E95001080D510108E99C04088F
S315080080C0B383000885460108BD470108B383000845
S315080080D0B3830008B38300081D5301084153010800
S315080080E0D19D0408494E0108B3830008B3830008EC
S315080080F055510108B38300087951010871440108F4
S31508008100B3830008B383000831510108B38300081C
S31508008110B3830008B3830008314F0108B38300080E
S31508008120AD440108E5440108214501085D450108FB
S3150800813099450108B3830008B3830008454201083E
S31508008140694201088D420108B1420108D94801086F
S31508008150D14501080D460108494601087D51010827
S31508008160B3830008B3830008B3830008B383000809
S31508008170B3830008B3830008B3830008B3830008F9
S31508008180B3830008B3830008B3830008B3830008E9
S31508008190B3830008B3830008B3830008B3830008D9
S315080081A0B3830008B3830008B3830008B3830008C9
S315080081B0B3830008B3830008B3830008B3830008B9
S315080081C0B3830008B3830008B3830008B3830008A9
S315080081D0B3830008B3830008B3830008B383000899
S315080081E081CA000855B60708000000000000000014
S315080081F001F0FF01102A2BDB10F0070F08D010F84A
S31508008200013B013A8B422DD010F0070F42B3F6D14D
S31508008210F0B441EA012141EA014122F007047FF066
S3150800822000070023F0E80256083C85EA010586EABD
S31508008230010685FA47F5A3FA87F586FA47F6A5FAF9
S3150800824087F68EB9EED1F0BC01F0FF0102F0070205
S3150800825032B110F8013B013A83EA010313B1F8D1B0
S315080082600020704701387047002D06BF3546033891
S31508008270073815F0010F07D1013015F4807F02BFCA
S31508008280013015F4C03F0130F0BC0138704700BF1B
S3150800829072B6394880F30888384880F30988384820
S315080082A04EF60851CEF20001086040F20000CCF20A
S315080082B000004EF63471CEF200010860BFF34F8F0E
S315080082C0BFF36F8F40F20000C0F2F0004EF68851FF
S315080082D0CEF200010860BFF34F8FBFF36F8F4FF0E8
S315080082E00000E1EE100A4EF63C71CEF2000108607D
S315080082F0062080F31488BFF36F8F07F01FFF24F062
S315080083002FF94FF055301F491B4A91423CBF41F89F
S31508008310040BFAE71C49194A91423CBF41F8040B81
S31508008320FAE71A491A4A1B4B9A423EBF51F8040B00
S3150800833042F8040BF8E700201749184A91423CBF57
S3150800834041F8040BFAE707F0FDFE47F059FC144C18
S31508008350144DAC4203DA54F8041B8847F9E76DF06C
S31508008360C5FD114C114DAC4203DA54F8041B88477D
S31508008370F9E707F0E5BE00001010002010160020EF
S3150800838000800008100000201010002038570A0846
S3150800839010160020581A0020581A00202419022006
S315080083A0E0810008E4810008E4810008E88100080B
S315080083B06EE700F000F8FEE70A480B49026800601D
S315080083C08A4201D0FFF764FF08484FF480410160F4
S315080083D007484FF0010101600648D0F800D0406810
S315080083E000470000F0FF0120EFBEADDE4438024032
S315080083F0003801400000FF1F1EF0040F0CBFEFF30A
S315080084000880EFF3098026F015B81EF0040F0CBF9C
S31508008410EFF30880EFF3098026F054B81EF0040F36
S315080084200CBFEFF30880EFF3098026F097B800BF7A
S31508008430EC46A0E8F05F80EC108B4FF00000704728
S31508008440B0E8F05FE54690EC108B080008BF012005
S31508008450704700BF00F1340191E838009C46A646F3
S315080084604CF8045D90E8FF0FE54600BD90EC210B43
S31508008470704700BF80EC210B704700BF90EC200BC3
S31508008480704700BF80EC200B704700BFD0EC200B74
S31508008490704700BFC0EC200B704700BFF0EC02012C
S315080084A0F0EC0211F0EC0221F0EC0231F0EC0241A2
S315080084B0F0EC0251F0EC0261F0EC0271F0EC028192
S315080084C0F0EC0291F0EC02A1F0EC02B1F0EC02C182
S315080084D0F0EC02D1F0EC02E1F0EC02F1704700BFDB
S315080084E0E0EC0201E0EC0211E0EC0221E0EC0231E2
S315080084F0E0EC0241E0EC0251E0EC0261E0EC0271D2
S31508008500E0EC0281E0EC0291E0EC02A1E0EC02B1C1
S31508008510E0EC02C1E0EC02D1E0EC02E1E0EC02F1B1
S31508008520704700BFB0FC0181B0FC0191B0FC01A10D
S31508008530B0FC01B1704700BFA0FC0181A0FC01910D
S31508008540A0FC01A1A0FC01B1704700BFEC4600B534
S315080085502DE900502DE9FF1F4FF000032DE90C000F
S3150800856001A977F0AFFCDDF840E012B0704700BF14
S31508008570EC4600B52DE900502DE9FF1F4FF000032A
S315080085802DE90C0001A977F0D9FCDDF840E012B01E
S31508008590704700BFEC4600B52DE900502DE9FF1FD6
S315080085A04FF000032DE90C0001A977F0E7FCDDF890
S315080085B040E012B0704700BFEC4600B52DE9005008
S315080085C02DE9FF1F4FF000032DE90C0001AB77F0F2
S315080085D0ADFCDDF840E012B0704700BFEC4600B5D0
S315080085E02DE900502DE9FF1F4FF000032DE90C007F
S315080085F001AA77F017FDDDF840E012B0704700BF1A
S3150800860081F0004102E000BF83F0004330B54FEA35
S3150800861041044FEA430594EA050F08BF90EA020FA2
S315080086201FBF54EA000C55EA020C7FEA645C7FEA35
S31508008630655C00F0E2804FEA5454D4EB5555B8BF58
S315080086406D420CDD2C4480EA020281EA030382EAC9
S31508008650000083EA010180EA020281EA0303362D5B
S3150800866088BF30BD11F0004F4FEA01314FF4801C2E
S315080086704CEA113102D0404261EB410113F0004F40
S315080086804FEA03334CEA133302D0524263EB4303F7
S3150800869094EA050F00F0A780A4F10104D5F1200E95
S315080086A00DDB02FA0EFC22FA05F2801841F10001F0
S315080086B003FA0EF2801843FA05F359410EE0A5F1C4
S315080086C020050EF1200E012A03FA0EFC28BF4CF0F5
S315080086D0020C43FA05F3C01851EBE37101F00045AB
S315080086E007D54FF0000EDCF1000C7EEB00006EEBB8
S315080086F00101B1F5801F1BD3B1F5001F0CD3490842
S315080087005FEA30004FEA3C0C04F101044FEA445298
S3150800871012F5800F80F09A80BCF1004F08BF5FEA1F
S31508008720500C50F1000041EB045141EA050130BDFF
S315080087305FEA4C0C404141EB0101013C28BFB1F511
S31508008740801FE9D291F0000F04BF01460020B1FA5C
S3150800875081F308BF2033A3F10B03B3F120020CDA2F
S315080087600C3208DD02F1140CC2F10C0201FA0CF00D
S3150800877021FA02F10CE002F11402D8BFC2F1200C72
S3150800878001FA02F120FA0CFCDCBF41EA0C01904028
S31508008790E41AA2BF01EB0451294330BD6FEA040471
S315080087A01F3C1CDA0C340EDC04F11404C4F120025C
S315080087B020FA04F001FA02F340EA030021FA04F36E
S315080087C045EA030130BDC4F10C04C4F1200220FAC5
S315080087D002F001FA04F340EA0300294630BD21FA03
S315080087E004F0294630BD94F0000F83F4801306BFC9
S315080087F081F480110134013D4EE77FEA645C18BFBD
S315080088007FEA655C29D094EA050F08BF90EA020F53
S3150800881005D054EA000C04BF1946104630BD91EA4B
S31508008820030F1EBF0021002030BD5FEA545C05D14E
S315080088304000494128BF41F0004130BD14F580048D
S315080088403CBF01F5801130BD01F0004545F0FE4101
S3150800885041F470014FF0000030BD7FEA645C1ABF36
S31508008860194610467FEA655C1CBF0B46024650EA6D
S31508008870013406BF52EA033591EA030F41F4002199
S3150800888030BD00BF90F0000F04BF0021704730B51F
S315080088904FF4806404F132044FF000054FF00001F4
S315080088A050E700BF90F0000F04BF0021704730B5B5
S315080088B04FF4806404F1320410F0004548BF40428A
S315080088C04FF000013EE700BF42004FEAE2014FEADF
S315080088D031014FEA02701FBF12F07F4393F07F4FBA
S315080088E081F06051704732F07F4208BF704793F0BD
S315080088F07F4F04BF41F40021704730B54FF46074D0
S3150800890001F0004521F000411CE700BF50EA0102D2
S3150800891008BF704730B54FF000050AE050EA01027B
S3150800892008BF704730B511F0004502D5404261EBEB
S3150800893041014FF4806404F132045FEA915C3FF42C
S31508008940D8AE4FF003025FEADC0C18BF03325FEAC9
S31508008950DC0C18BF033202EBDC02C2F1200300FA7A
S3150800896003FC20FA02F001FA03FE40EA0E0021FA9F
S3150800897002F11444BDE600BF70B54FF0FF0C4CF48D
S31508008980E06C1CEA11541DBF1CEA135594EA0C0F3F
S3150800899095EA0C0F00F0DEF82C4481EA030621EA7A
S315080089A04C5123EA4C5350EA013518BF52EA0335B5
S315080089B041F4801143F4801338D0A0FB02CE4FF067
S315080089C00005E1FB02E506F00042E0FB03E54FF097
S315080089D00006E1FB03569CF0000F18BF4EF0010E8F
S315080089E0A4F1FF04B6F5007F64F5407404D25FEA8B
S315080089F04E0E6D4146EB060642EAC62141EA55513E
S31508008A004FEAC52040EA5E504FEACE2EB4F1FD0C7F
S31508008A1088BFBCF5E06F1ED8BEF1004F08BF5FEAFD
S31508008A20500E50F1000041EB045170BD06F00046AF
S31508008A3046EA010140EA020081EA0301B4EB5C045C
S31508008A40C2BFD4EB0C0541EA045170BD41F4801154
S31508008A504FF0000E013C00F3AB8014F1360FDEBF79
S31508008A60002001F0004170BDC4F10004203C35DA55
S31508008A700C341BDC04F11404C4F1200500FA05F3D8
S31508008A8020FA04F001FA05F240EA020001F0004279
S31508008A9021F0004110EBD37021FA04F642EB0601EF
S31508008AA05EEA430E08BF20EAD37070BDC4F10C0419
S31508008AB0C4F1200500FA04F320FA05F001FA04F2DD
S31508008AC040EA020001F0004110EBD37041F10001C9
S31508008AD05EEA430E08BF20EAD37070BDC4F12005D4
S31508008AE000FA05F24EEA020E20FA04F301FA05F23C
S31508008AF043EA020321FA04F001F0004121FA04F2E4
S31508008B0020EA020000EBD3705EEA430E08BF20EAB3
S31508008B10D37070BD94F0000F0FD101F000464000ED
S31508008B2041EB010111F4801F08BF013CF7D041EA6F
S31508008B30060195F0000F18BF704703F00046520073
S31508008B4043EB030313F4801F08BF013DF7D043EA44
S31508008B500603704794EA0C0F0CEA135518BF95EAFA
S31508008B600C0F0CD050EA410618BF52EA4306D1D181
S31508008B7081EA030101F000414FF0000070BD50EAA0
S31508008B80410606BF1046194652EA430619D094EA2A
S31508008B900C0F02D150EA013613D195EA0C0F05D114
S31508008BA052EA03361CBF104619460AD181EA030168
S31508008BB001F0004141F0FE4141F470014FF0000020
S31508008BC070BD41F0FE4141F4780170BD70B54FF0BB
S31508008BD0FF0C4CF4E06C1CEA11541DBF1CEA13553B
S31508008BE094EA0C0F95EA0C0F00F0A7F8A4EB05041D
S31508008BF081EA030E52EA03354FEA013100F0888014
S31508008C004FEA03334FF0805545EA131343EA1263DC
S31508008C104FEA022245EA111545EA10654FEA002691
S31508008C200EF000419D4208BF964244F1FD0404F54A
S31508008C30407402D25B084FEA3202B61A65EB0305A6
S31508008C405B084FEA32024FF480104FF4002CB6EB63
S31508008C50020E75EB030E22BFB61A754640EA0C00E3
S31508008C605B084FEA3202B6EB020E75EB030E22BF23
S31508008C70B61A754640EA5C005B084FEA3202B6EB64
S31508008C80020E75EB030E22BFB61A754640EA9C0023
S31508008C905B084FEA3202B6EB020E75EB030E22BFF3
S31508008CA0B61A754640EADC0055EA060E18D04FEAB1
S31508008CB0051545EA16754FEA06164FEAC30343EA51
S31508008CC052734FEAC2025FEA1C1CC0D111F4801F1E
S31508008CD00BD141EA00014FF000004FF0004CB6E717
S31508008CE011F4801F04BF01430020B4F1FD0C88BFB6
S31508008CF0BCF5E06F3FF6AFAEB5EB030C04BFB6EBC1
S31508008D00020C5FEA500C50F1000041EB045170BDB3
S31508008D100EF0004E4EEA113114EB5C04C2BFD4EBE0
S31508008D200C0541EA045170BD41F480114FF0000E64
S31508008D30013C90E645EA060E8DE60CEA135594EAE0
S31508008D400C0F08BF95EA0C0F3FF43BAF94EA0C0FE3
S31508008D500AD150EA01347FF434AF95EA0C0F7FF458
S31508008D6025AF104619462CE795EA0C0F06D152EAAC
S31508008D7003353FF4FDAE1046194622E750EA410690
S31508008D8018BF52EA43067FF4C5AE50EA41047FF4A1
S31508008D900DAF52EA43057FF4EBAE12E74FF0FF3C06
S31508008DA006E000BF4FF0010C02E000BF4FF0010CD7
S31508008DB04DF804CD4FEA410C7FEA6C5C4FEA430C50
S31508008DC018BF7FEA6C5C1BD001B050EA410C0CBF9F
S31508008DD052EA430C91EA030F02BF90EA020F002001
S31508008DE0704710F1000F91EA030F58BF994208BF68
S31508008DF090422CBFD8176FEAE37040F00100704725
S31508008E004FEA410C7FEA6C5C02D150EA013C07D17B
S31508008E104FEA430C7FEA6C5CD6D152EA033CD3D0C6
S31508008E205DF8040B704700BF8446104662468C46C0
S31508008E301946634600E000BF01B5FFF7B7FF0028F3
S31508008E4048BF10F1000F01BD4DF808EDFFF7F4FF1C
S31508008E500CBF012000205DF808FB00BF4DF808EDA7
S31508008E60FFF7EAFF34BF012000205DF808FB00BFCA
S31508008E704DF808EDFFF7E0FF94BF012000205DF8EC
S31508008E8008FB00BF4DF808EDFFF7CEFF94BF0120A1
S31508008E9000205DF808FB00BF4DF808EDFFF7C4FF9A
S31508008EA034BF012000205DF808FB00BF4FEA410CE3
S31508008EB07FEA6C5C02D150EA013C0AD14FEA430CC6
S31508008EC07FEA6C5C02D152EA033C02D14FF0000003
S31508008ED070474FF0010070474FEA410212F5001241
S31508008EE015D211D56FF47873B3EB625212D94FEAE3
S31508008EF0C12343F0004343EA505311F0004F23FACD
S31508008F0002F018BF404270474FF00000704750EA21
S31508008F10013005D111F0004008BF6FF000407047DE
S31508008F204FF00000704700BF4FEA4102B2F1E0433C
S31508008F3024BFB3F5001CDCF1FE5C0DD901F0004C32
S31508008F404FEAC0024CEA5070B2F1004F40EB830082
S31508008F5008BF20F00100704711F0804F21D113F1AE
S31508008F603872BCBF01F00040704741F480114FEAE7
S31508008F705252C2F11802C2F1200C10FA0CF320FA70
S31508008F8002F018BF40F001004FEAC1234FEAD3238D
S31508008F9003FA0CFC40EA0C0023FA02F34FEA4303F7
S31508008FA0CCE77FEA625307D150EA01331EBF4FF080
S31508008FB0FE4040F44000704701F0004040F0FE409B
S31508008FC040F40000704700BF80F0004002E000BF98
S31508008FD081F0004142001FBF5FEA410392EA030F96
S31508008FE07FEA226C7FEA236C6AD04FEA1262D2EBE0
S31508008FF01363C1BFD218414048404140B8BF5B42E5
S31508009000192B88BF704710F0004F40F4000020F07D
S315080090107F4018BF404211F0004F41F4000121F093
S315080090207F4118BF494292EA030F3FD0A2F10102DD
S3150800903041FA03FC10EB0C00C3F1200301FA03F11B
S3150800904000F0004302D5494260EB4000B0F5000F3E
S3150800905013D3B0F1807F06D340084FEA310102F1FD
S315080090600102FE2A51D2B1F1004F40EBC25008BFAF
S3150800907020F0010040EA03007047490040EB000079
S31508009080013A28BFB0F5000FEDD2B0FA80FCACF17A
S31508009090080CB2EB0C0200FA0CF0AABF00EBC250A7
S315080090A052421843BCBFD0401843704792F0000F95
S315080090B081F4000106BF80F400000132013BB5E7E8
S315080090C04FEA41037FEA226C18BF7FEA236C21D05E
S315080090D092EA030F04D092F0000F08BF08467047C3
S315080090E090EA010F1CBF0020704712F07F4F04D191
S315080090F0400028BF40F00040704712F100723CBFA4
S3150800910000F50000704700F0004343F0FE4040F4CD
S31508009110000070477FEA226216BF08467FEA23638B
S315080091200146420206BF5FEA412390EA010F40F476
S31508009130800070474FF0000304E000BF10F00043C2
S3150800914048BF40425FEA000C08BF704743F09643A9
S3150800915001464FF000001CE050EA010208BF7047C4
S315080091604FF000030AE000BF50EA010208BF70474B
S3150800917011F0004302D5404261EB41015FEA010C60
S3150800918002BF84460146002043F0B64308BFA3F158
S315080091908053A3F50003BCFA8CF2083AA3EBC2533A
S315080091A010DB01FA02FC634400FA02FCC2F1200259
S315080091B0BCF1004F20FA02F243EB020008BF20F090
S315080091C00100704702F1200201FA02FCC2F12002F6
S315080091D050EA4C0021FA02F243EB020008BF20EAEB
S315080091E0DC7070477BB972B90029BEBF00204FF00A
S315080091F0004106E008BF00281CBF6FF000414FF091
S31508009200FF3000F057B8ADF1080C6DE904CE00291F
S3150800921009DB002B1ADB77F0DFFCDDF804E0DDE97B
S31508009220022304B07047404261EB4101002B1BDB6F
S3150800923077F0D2FCDDF804E0DDE9022304B0404211
S3150800924061EB4101524263EB43037047524263EBC1
S31508009250430377F0C1FCDDF804E0DDE9022304B03E
S31508009260404261EB41017047524263EB430377F09A
S31508009270B3FCDDF804E0DDE9022304B0524263EBF7
S315080092804303704753B94AB9002908BF00281CBFD1
S315080092904FF0FF314FF0FF3000F00CB8ADF1080C7D
S315080092A06DE904CE77F098FCDDF804E0DDE90223E9
S315080092B004B07047704700BF2DE9F04F2DED108AB6
S315080092C0C1F80CD0C3689D46BDEC108ABDE8F08F86
S315080092D007F0B8F8002383F311882846A047002032
S315080092E008F09EFBFEE707F041FA08F011FB07F0CD
S315080092F0A9F800DFFEE710F8012B11F8013B012A57
S3150800930028BF9A42F7D0D01A7047034613F8012BA4
S31508009310002AFBD1181A0138704700000000000027
S3150800932070B586B00C4611461A46114B0093054691
S3150800933074B1631ECDE9010300266846CDE90366CC
S315080093400CF010F8039BA34200D2EE5406B070BD91
S315080093509FED057B019068468DED027B04940CF029
S3150800936001F806B070BD00BF000000000000000054
S315080093707C180808000000002DE9F04759EC108B0E
S315080093803D4B002240464946FFF77CFD002867D042
S3150800939035A5D5E90045384F4FF0000A00260CE000
S315080093A0FFF714FC8046894632463B464046494606
S315080093B00AF1050AFFF766FDE8B1494622462B463B
S315080093C04046FFF75FFD844622462B4640464946FF
S315080093D0BCF1000FE4D132463B46FFF7F7FB804667
S315080093E0894632463B46404649460AF1010AFFF796
S315080093F049FD0028E1D1214B002240464946FFF7A6
S315080094002DFD50B31AA5D5E9004517A7D7E900677A
S315080094100CE0FFF7B1FAAAF1050A80468946174B10
S31508009420002240464946FFF719FDB0B14946224693
S315080094302B464046FFF712FD844632463B464046D9
S315080094404946BCF1000FE4D10B4B0022FFF794FA12
S315080094500AF1FF3A80468946E1E75046BDE8F087BB
S315080094608246C8E7AFF3008000000000006AF840B3
S3150800947000000080B5F8E43E000024400000F03FFC
S315080094802DE9F047B0F1000A2D4D4FF0000426DD16
S3150800949029A7D7E90067DFF8AC904FF00008BAF1C2
S315080094A0040F2046294632463B460CDDFFF764FA90
S315080094B0AAF1050A04460D46BAF1000FEFD145ECAC
S315080094C0104BBDE8F08742464B46FFF755FA0AF1BE
S315080094D0FF3A04460D46BAF1000FE0D1EFE7EED0A9
S315080094E015A7D7E900671AF1040FDFF858904FF06F
S315080094F000082046294632463B460FDAFFF766FB48
S315080095000AF1050A04460D46BAF1000FD7D01AF13A
S31508009510040F2046294632463B46EFDB42464B4679
S31508009520FFF754FB0AF1010A04460D46BAF1000F8B
S31508009530EDD1C4E7AFF3008000000000006AF840F0
S315080095400000F03F0000244070B5C66984B00446A8
S3150800955030460D4613F0E8FE204613F0D7FB2046AA
S3150800956013F022FC9FED087B034629463046072464
S315080095706A468DED027B8DF80040019313F060FF7B
S3150800958004B070BDAFF30080FFFFFFFFFFFFFFFFD2
S315080095902DE9F04FC768C669D0F804802DED028B17
S315080095A0282F87B004460D4672D040F223139F42F7
S315080095B040F0858014F0CCF99FED438B4FF0070AF5
S315080095C04FF00809E3683A2B14D008DD5B2B51D01D
S315080095D05A2B40DC07B0BDEC028BBDE8F08F282B78
S315080095E03ED02E2BF6D129462046FFF7ADFFE3687D
S315080095F03A2BEAD1204613F089FB204613F0D4FB18
S315080096002946039030468DED048B8DF808A013F09B
S3150800961069FE2B78D5F804B0082B4BD096F8347031
S315080096206F600221304685F8009012F005FCBA1CDE
S3150800963002A986F834205B4600913A461421304642
S3150800964013F08CFE9DF80830082B0DD1039930468F
S3150800965070F0BCFF08E07B2B02D0B3F5927FB9D13E
S315080096602946304613F020FE42462946204614F085
S31508009670C7FFA7E72946304613F056FE02A920463B
S3150800968014F046F802AA2946304613F0D9FE99E79F
S3150800969013F03CFB29460022204615F0C5FB204660
S315080096A043463A46292113F055FBE069294613F04B
S315080096B00BFC81E75946304670F088FFAEE704494F
S315080096C012F052FBAFF30080FFFFFFFFFFFFFFFF23
S315080096D064260808000000000D4B9FED0B7B03F580
S315080096E0336C03F63C3100220020CCF800200A60D7
S315080096F003F5346282ED007BC3F82C0BC3F8380BF4
S31508009700C3F8480B704700BF0000000000000000C7
S31508009710000000100000000030B5012285B00C21C1
S31508009720044611F0E1FCE0B19FED117B0246124BB5
S31508009730043280ED017B02600FCB6D4685E80F0091
S315080097400E4B0F491A6820460EF02AFF00222946BA
S31508009750204621F06BFA20466FF0BEFF012005B0C7
S3150800976030BD20460EF0CAFE012005B030BD00BF50
S3150800977000000000000000F03414080844A7002088
S31508009780D8B9F0FF000000002DE9F04F2DED048B4D
S3150800979003689DB0DB689847002800F09185036848
S315080097A0A94ADB689342834640F086850BF10D0390
S315080097B00693A64BDFF8C8A298699FEDA58ADFED48
S315080097C0A58A41F075FD7F289FED9D9B0BF10C0541
S315080097D040F3F280DBF8003058461B699847044688
S315080097E0002800F0B185DAF820300133CAF82030B5
S315080097F0DBF8003001225E680DF123014FF47A731D
S315080098005846B047012840F01E859DF82330542B52
S3150800981015D8452B16D9463B0E2B13D8DFE813F07F
S31508009820DB001200120012001200120012001200D1
S31508009830120012001200D3001200D300EF00742B9E
S3150800984000F0DD80DBF8003001225E6809A90A23F2
S315080098505846B047012840F064859DF823309DF8A6
S31508009860246046EA032637469BF8303436B207F1B9
S315080098700409002F00F0F38440F21E41894500F3E5
S31508009880EE84DBF80010D1F80480002B00F0AA83E0
S315080098904FF47A734A4629465846C04781459BF88D
S315080098A00C8040F0338740463DF01EFF8146002875
S315080098B000F05187AB593246002128461EBA64F09B
S315080098C0C1FC864240F0D58301238BF8303424202E
S315080098D062F0F8FB022F9BF80C3040F3A083042FAC
S315080098E0BBF80D6040F39E83BBF80F90A3F13802D6
S315080098F03C2A3ED8DFE812F05A0307033D003D0034
S315080099003D003D003D003D003D00FC02CD02C80281
S315080099103D009C023D0011023D003D003D003D001A
S3150800992003023D003D0055013D003D002D011F018C
S3150800993087003D00F001E2013D003D0086013D0043
S315080099403D003D003D0063013D003D0007013D002F
S315080099503D00F2003D003D003D003D003D00C600D3
S315080099608E003D003D003D003D003D003D003D00B0
S31508009970870083215846059367F036FC059B364ACF
S315080099803648009350210BF057FFDBF82C04334977
S3150800999070F072FA242062F099FB3148424641463B
S315080099A046F0ECFF00242F4B1C70284B986941F0B9
S315080099B07FFC7F283FF70EAF2B4A2C4941F6F4204F
S315080099C054F058FFEEE72A4846F0D8FF00215846DB
S315080099D067F0ECFBE7E7DBF82C14264A264846F046
S315080099E0CDFFDBF8003025491E68584600230322C0
S315080099F0B047DBF8003058469B689847D3E7584687
S31508009A003FF03AF8CFE758463FF036F8242062F0A0
S31508009A105DFBC8E79BF80D30022B00F07884032B1A
S31508009A2000F05584012BB5D162F096FC584640F0FB
S31508009A3003F8242062F04AFBB5E700BFAFF30080C5
S31508009A401F73B8DA0000000019450208F4970020D1
S31508009A500024744900007A4478C508086058012033
S31508009A60A4C50808E3180220B0BE0808BC96080872
S31508009A703CC208085CC2080878B008086CC2080826
S31508009A8028590120DAF818305A4601334946304633
S31508009A90CAF818303FF0DCFF0746002840F0F1838B
S31508009AA001464022C64877F012FAC6484A46394661
S31508009AB0304464F0C7FB00BA0C900CAA58460097CD
S31508009AC0042301213FF06AFF0C9BBF484A463146F2
S31508009AD046F054FF242062F0F9FA64E7BB4BBC4E0B
S31508009AE01A78BC4B002A18BF1E463046FFF70DFCF5
S31508009AF0012103463246584600913FF04FFF242085
S31508009B0062F0E4FA4FE70121B348B44FB44E00912E
S31508009B10002302683B70C0E90033336058464FF4AF
S31508009B2000530C923FF03AFF0CA870F05FFA24201D
S31508009B3062F0CCFA37E7AB4ADBF82C14AA4846F0B1
S31508009B401DFF5846012167F031FB242062F0BEFA5A
S31508009B5029E7DAF80830A5480133CAF8083032464A
S31508009B604B46002146F00AFF5A46494630463FF022
S31508009B706FFF0746002840F06F829D4BB3F8EE2C26
S31508009B80002A40F0D48308331E444B46324600214F
S31508009B900091584601213FF001FF242062F096FA11
S31508009BA001E7012F934814BF4B464FF4E56332464D
S31508009BB059463FF06BF9242062F088FAF3E68E4B9B
S31508009BC01B78002B40F06A838C490B68002B40F009
S31508009BD0438302228A4E0A607F4B186808B1002028
S31508009BE00860C3E900620CA800230C9370F0FEF924
S31508009BF07A4B584601221A703FF01EFF242062F065
S31508009C0065FAD0E6BBF80D80BBF80F707D487FBAC1
S31508009C1098FA98F6B6B2BFB23A46314646F0AEFE64
S31508009C2079484FF005FF202E00F2FF81202E00F222
S31508009C30988301A353F826F075A3000863A30008C8
S31508009C4063A3000863A3000863A3000863A30008CE
S31508009C5063A3000863A3000863A3000863A30008BE
S31508009C6063A3000863A3000863A3000863A30008AE
S31508009C7063A3000863A3000863A300087FA3000882
S31508009C8089A30008C7A3000885A40008F5A400084E
S31508009C90FFA4000863A3000863A3000809A5000839
S31508009CA063A3000863A3000863A300082D9A0008AD
S31508009CB027A5000837A5000847A5000831460BF177
S31508009CC00F030122584667F0BFFA504846F0FEF9DE
S31508009CD0242062F0FBF966E65AF0B2FD0DF1300970
S31508009CE04B4B4C4A009020218DED029B48460BF0C9
S31508009CF0A3FD4846FFF709FB4A46431C47E70123ED
S31508009D0000220092584619460CAA8DF830303FF0CA
S31508009D1045FE242062F0DAF945E6DAF824303E4EAC
S31508009D20334FB26A0133CAF82430D7F880359A42DD
S31508009D3080F0E98146F08AF9D6E90C3253EA020640
S31508009D4040F0C681354E3368032B00F0ED81344868
S31508009D50B0EE480A47F082FF002840F0F681314EFF
S31508009D60314809F0AFF93368304A03F580510020CD
S31508009D70C1F864391168136018702B48316009F00E
S31508009D8033FA326802F58053D3F864691378B61A41
S31508009D902BB1134613F8011F0029FBD19B1A9E42CB
S31508009DA040F0D782DBF80010012000903346584671
S31508009DB08E690021B047242062F088F9F3E500BFD8
S31508009DC09A680010A05B001030C40808C518022065
S31508009DD08C370120B05801200C580120DE180220CB
S31508009DE004380120A8C3080878B008088CC40808F5
S31508009DF0985B001060170020DF1802200858012021
S31508009E000838012018C50808D8260010C01F0020E9
S31508009E10BCC30808C4C30808483C00204C580120A5
S31508009E20403C002058170020505801205C1700209D
S31508009E3006980744002307F8013C9BF80D30202BB1
S31508009E4040F0788410F8013F202BFBD07BB1034605
S31508009E5013F8012F002AFBD1191A002903DC06E0A2
S31508009E6083421A7003D013F8011D2029F8D08D4BB0
S31508009E701B689847002358461A4619463FF020FDA6
S31508009E80242062F023F98EE54A4631460BF1110388
S31508009E9018E70DF13009484646F018F9DAF80C309B
S31508009EA081480133CAF80C3046F068FD59F024FDA4
S31508009EB07E48B0EE480A47F0D1FE002840F0F4810B
S31508009EC000231A46042158463FF0FAFC484646F055
S31508009ED00BF960EE287A17EE900AFEF7F5FC0246B3
S31508009EE00B46734846F04AFD242062F0EFF85AE51F
S31508009EF070484FF4E563002259463EF0C7FF242018
S31508009F0062F0E4F84FE56C4E002206F1400831464F
S31508009F10012031F8023F5B0B1CBF03F1FF3300FA47
S31508009F2003F341451A44F4D1002158463EF05AFC41
S31508009F300DF1300907460594079536F8023F5C0B84
S31508009F401DD00122013C02FA04F45C4A0A92262238
S31508009F500B9200940AAA06CAC3F30C03484664F097
S31508009F6007FCDBF8003022461D68494600235846A0
S31508009F70A84739462246484664F064F907464645E6
S31508009F80DBD1DBF80030059C1E68079D3FBA4946C1
S31508009F90042258460C970123B047DBF80030584690
S31508009FA09B689847242062F091F8FCE4444B1B78A0
S31508009FB0002B00F07681002062F078FA0646002829
S31508009FC04FD0D0F8E4340121024603EB8303009115
S31508009FD058463FF0E3FC304662F098FA242062F0D7
S31508009FE075F8E0E402460A2329465846C0479BF816
S31508009FF00C8040463DF078FB00283FF4D3ACDBF8F4
S3150800A00000300699D3F80490F21C05924FF47A733F
S3150800A0105846C847059A82423FF44CACC2E400262B
S3150800A020B14663E44FF0000960E4B8F53A4F00F032
S3150800A0309083BA2E09D9B8F53B4F00F03C85B8F5A0
S3150800A0403C4F40F08E8141F013F9B8F5F24F40F0DD
S3150800A05088815AF0A1FCE9E4DBF82C0419496FF071
S3150800A0600BFF5846842167F0BFF8242062F02EF8CB
S3150800A07099E49BF83034002B3FF494AC33460246FF
S3150800A0809BF80C10104846F079FC1049DBF82C04B4
S3150800A0906FF0F2FE8221584667F0A6F800238BF887
S3150800A0A030347FE43858012064C408083827001083
S3150800A0B074C40808601700209868001020F0002073
S3150800A0C0DF180220C0C408085CC3080894C308083F
S3150800A0D0C01A61EB02010A1E03DAC31C184642F1D4
S3150800A0E000028308D7F88015C64800FB01F1C64868
S3150800A0F0A0FB010143EA82730909921000209942E4
S3150800A1009041BFF61FAEC149C14846F003FCC14B9A
S3150800A11093F84838002B40F0F680BF4E00F020FE3A
S3150800A1203368032B7FF413AEB849BC4846F0F2FBFC
S3150800A130BA4847F007FD0123B9483360B0EE480A2C
S3150800A14047F08CFD00283FF40AAEB54845F0BEFF3F
S3150800A1503B89692B96BFB34A4FF0000852F8238013
S3150800A1605AF06EFB064645F0DFFFA64A0023FFF7C6
S3150800A17039F83146CDE90080AB4BAC4AAC4846F0DD
S3150800A180FDFBB7F8EC12012902D9AA4864F03EF89B
S3150800A190B7F8EE12012902D9A74864F037F8A74E96
S3150800A1A0DFF8D88206F1080936F8021F012903D913
S3150800A1B0D8F8000064F02AF8B14508F10408F3D18C
S3150800A1C0D7F8CC210C2A1346A8BF0C23002A7FF700
S3150800A1D0C6AD9B4F0594B9463C469A4E4FF00008CB
S3150800A1E01F4629E0718B012901D964F00FF8D4F8CC
S3150800A1F05C0700284CD0B6F84A14012901D964F046
S3150800A20005F8D9F83C03002845D036F8021F01297D
S3150800A21001D963F0FBFFD9F88C04B0B3B6F8001C7B
S3150800A220012901D963F0F2FF08F10108B84504F1E4
S3150800A230200409F11C0948DAD4F8DC050028D1D134
S3150800A240D4F8E005CEE7804CA34500F093810023BF
S3150800A2508BF83034FFF7A6BB00221646BCE4002B69
S3150800A260F5D0DBF82C1479483A4646F087FBDBF83C
S3150800A2702C0477496FF000FE8421584666F0B4FF37
S3150800A280E5E7DBF82C047349E9E6D9F89004C5E755
S3150800A290D4F86007AFE7D9F84003B6E762F0D8F814
S3150800A2A092E462F059F886E636F0ACFB6A483CF070
S3150800A2B09FF958F0EBFF03E6984700287FF476AA43
S3150800A2C01DB0BDEC048BBDE8F08F059C47E500206A
S3150800A2D062F0ECF80646002800F02F82D0F8E43445
S3150800A2E00121024603EB8303009158463FF056FBD3
S3150800A2F0304662F00BF958463FF09EFB242061F089
S3150800A300E5FEFFF750BB424847F01CFC05E762F044
S3150800A3109FF858463FF090FB242061F0D7FEFFF7E0
S3150800A32042BB4E49DBF82C046FF0A6FD8FE74C497B
S3150800A33040F25E200BF10F0654F09CFA39464A4665
S3150800A340304676F0C4FD20E40A2007F091FBFFF7BB
S3150800A35029BB3246434941F6861054F08BFA00224F
S3150800A36020E541493B46324640F25E2054F082FAE7
S3150800A370FFF75CBB3D4B83F84276FFF757BB3C4B78
S3150800A38000221A60FFF752BB00283FF44FAB374B49
S3150800A390DFED380AB3F88A2D9FED370AD3F8981DF2
S3150800A3A007EE902AB3F86A26F8EEE77A384667EE9B
S3150800A3B0A00A07EE902AF8EEE77A27EE800A58F008
S3150800A3C0C3FFFFF733BB00283FF430AB274BDFED65
S3150800A3D0290AB3F88A2D9FED280AD3F8981D07EEA7
S3150800A3E0902AB3F86A26F8EEE77A384667EEA00AA6
S3150800A3F007EE902AF8EEE77A27EE800A58F052FF21
S3150800A400FFF714BB40420F00CDCCCCCCC091090855
S3150800A410503C0020005000104C5801203C580120A8
S3150800A420403C0020D0670908D0C308081F73B8DA73
S3150800A430D8C308088C200A0894200A08DA5D001098
S3150800A4400C9C0020225E00106C5E01208CC208085D
S3150800A450BCC2080818C4080860B0080870C2080812
S3150800A460D8C40808F8C3080854C50808985B00103B
S3150800A47014580120CDCCCC3D0AD7233CC067090827
S3150800A48000007A44BB1F172B00F2AB8101A252F8D9
S3150800A49023F000BFF3A80008B1A800082D9A000809
S3150800A4A0E3A7000825A80008E3A7000819A80008DC
S3150800A4B063A9000857A900084FA900083BA9000886
S3150800A4C02FA900081FA9000817A900080BA900084A
S3150800A4D0CDA700082D9A0008C3A70008B9A7000849
S3150800A4E0AFA70008A5A700089DA70008D7A70008DA
S3150800A4F091A70008F8B25BF00FF9FFF797BA38464C
S3150800A50059F008F8FFF792BA00283FF48FAA5FEDD2
S3150800A510240AC64B3846D3F8981DB0EE600A58F0A0
S3150800A5206DFFFFF783BAC24845F0D0FD38466BF099
S3150800A530F7F9FFF77BBABE4845F0C8FD63206BF014
S3150800A540EFF9FFF773BA00283FF470AAB74BDFEDAF
S3150800A550B90AB3F88A2DD3F8981D07EE902AF8EEB3
S3150800A560E77AB1EE000A67EEA00A384658F08CFF83
S3150800A570FFF75CBAB04B1B78002B3FF468AEDFF8E8
S3150800A5802C83AE4846F0FAF998F80030033B012BC5
S3150800A59000F2ED802368AA485E68012240F6B833C7
S3150800A5A009A9B0470646002840F0EB80A44F06E00C
S3150800A5B0042B00F0DA810136072E00F0FE812368AD
S3150800A5C038465B6998470A2007F052FA9D4B9E4821
S3150800A5D053F83610894646F0D1F923684946DB69AF
S3150800A5E0384698470A2007F043FA3846974966F0EE
S3150800A5F087FD38463EF0A2FC90B198F80030032B50
S3150800A600D6D13846924966F07BFD38463EF096FC30
S3150800A6100028D0D18F4846F0B1F90A2007F028FA69
S3150800A6200DF1300998F800308B4F033B012B3E7033
S3150800A63040F2C7812368894A5B698148934240F0A2
S3150800A640078241F02DFB0A2007F012FA3A782368B0
S3150800A6507C49DB6951F83210814A7948934240F0C7
S3150800A660038265F0ABFA98F80030002B40F097812A
S3150800A6707C4B7D4A402148460BF0DEF87048494637
S3150800A68066F03EFD6E483EF059FC002840F0828197
S3150800A69098F80030032B00F0AC80002B40F0868140
S3150800A6A0724B734A402148460BF0C6F8644849463F
S3150800A6B066F026FD62483EF041FC002840F06A81BB
S3150800A6C06C4B98F800201B68002A40F0C3815D4A4D
S3150800A6D0402152F83330684A48460BF0ADF85848DE
S3150800A6E0494666F00DFD56483EF028FC002840F025
S3150800A6F0518198F80030033B012B40F2CB815F482B
S3150800A70046F03CF94C4A00231370A0E543464A46F6
S3150800A71001465B4846F032F95A49DBF82C046FF0DB
S3150800A720ABFB8021584666F05FFD00238BF830347A
S3150800A730FFF738B90698FFF789BB8421584666F0B3
S3150800A74053FD58463FF078F9242061F0BFFCFFF727
S3150800A7502AB940F081FD4C48414646F00FF983215D
S3150800A760584666F041FD8BF83094FFF71BB9474809
S3150800A77046F004F9464846F001F9464846F0FEF820
S3150800A78008E7454846F0FAF82B4A002313705EE5B9
S3150800A7900021012052F0FAFBFFF748B93DF036F9DF
S3150800A7A0FFF744B904203DF041F9FFF73FB903200C
S3150800A7B03DF03CF9FFF73AB901203DF037F9FFF7CC
S3150800A7C035B902203DF032F9FFF730B9334B012293
S3150800A7D01A70FFF72BB90021084652F0D7FBFFF78E
S3150800A7E025B92F493A4640F25E2054F043F8FFF760
S3150800A7F01DB91C4B2B4A402148460BF01DF8104842
S3150800A800494666F07DFC0E483EF098FB002840F06D
S3150800A810C18098F8003040E7234B012283F8D02600
S3150800A820FFF704B957F066FDFFF700B9985B00100B
S3150800A83038270010CDCCCC3DDD180220C0BE080854
S3150800A8406C5E01208867090880C0080898C0080857
S3150800A850A0C00808ACC00808DB180220A1BC040880
S3150800A860BDFB06087437012050C108086C37012063
S3150800A8707CC108085417002098C10808E0C10808D8
S3150800A880DCC208081CC3080840C30808F0BE08084C
S3150800A8905CBF0808B0BF08082CC00808E1180220E9
S3150800A8A03CC508086CC1080800200010DC18022006
S3150800A8B0824F834ED7F8F8000D2386F8C83008B3C0
S3150800A8C00368DB689847F0EE407AD7F80401C6EDCE
S3150800A8D0317A002800F0EC800368DB689847F0EED0
S3150800A8E0407A784AC6ED667A137801331370FFF713
S3150800A8F09DB8724F724ED7F8F8000C2386F8C83008
S3150800A9000028DDD1DFED707ADFE7704B012283F88E
S3150800A910D126FFF78BB84BF03BFEFFF787B86C4B99
S3150800A9206C4801221A7008F077FBFFF77FB80121FF
S3150800A930084652F02BFBFFF779B8614B002283F8E3
S3150800A940C82003F5005383F8D026FFF76FB84BF0FD
S3150800A95063FDFFF76BB80121002052F017FBFFF7E4
S3150800A96065B867F021FBFFF761B85B495B480DF1F5
S3150800A970300966F0C5FB59481022494666F0D6FBF1
S3150800A98009287FF418AE564845F0F8FF0A2007F064
S3150800A9906FF847E65348494645F0F0FFB2E6524B92
S3150800A9A0524A402148460AF047FF67E6504B514A4B
S3150800A9B0402148460AF040FF78E64F4BFF221A70BE
S3150800A9C0A0E64E49454866F09BFB40224946434867
S3150800A9D066F0ACFB4049414866F092FB3F4840228E
S3150800A9E0494666F0A3FB98F80030032B48D0444943
S3150800A9F03A4866F085FB40224946384866F096FB99
S3150800AA004049364866F07CFB34484022494666F0A1
S3150800AA108DFB98F80030032B28D03B492F4866F069
S3150800AA206FFB2E483EF08AFA38492C4866F068FBD8
S3150800AA302A483EF083FA98F80030032B7FF4FAADE3
S3150800AA402648334966F05CFB24483EF077FAF1E580
S3150800AA509847F8E52F4A02EBC30340211B792E4A93
S3150800AA6048460AF0E9FE3AE69847FCE52B491B48B2
S3150800AA7066F046FB40224946184866F057FBCCE785
S3150800AA802749164866F03CFB40224946134866F0BB
S3150800AA904DFBACE71148234966F032FB0F483EF000
S3150800AAA04DFA00283FF42BAE1F4845F067FF26E60F
S3150800AAB0DFED057A15E740F0BDFB00BF14A80020BE
S3150800AAC000000010E018022000000000002000101E
S3150800AAD0E21802202C580120C4C008086C5E012028
S3150800AAE0D0C008081CC208087437012060C10808CD
S3150800AAF06C3701208CC10808DB180220E8C008085A
S3150800AB0004C1080810C1080828C1080838C108087F
S3150800AB1044C1080888670908ACC108081CC10808A8
S3150800AB20F8C00808B8C10808C4C108080000000031
S3150800AB3010B590F8E03090F8DCC0174C83F00103AC
S3150800AB4063F3000C80F8DCC04FF48C6200212046C9
S3150800AB5076F0BDF94FF4F072002104F2644076F005
S3150800AB60B6F90E4B9FED0A7B03F51C5203F5005010
S3150800AB7003F540530021C3F81C12C3F82012002322
S3150800AB8082ED027BC0F8D83B10BD00BFAFF3008052
S3150800AB9000000000000000F07827001000000010F8
S3150800ABA09FED116BD0ED0F7A80ED030AB5EEC00A62
S3150800ABB00123F1EE10FA80ED066BC0ED097A80EDFF
S3150800ABC00F0A03720BD9DFED0A6A86EE807AF5EE74
S3150800ABD0407AF1EE10FA80ED0A7A03D07047054BF9
S3150800ABE08362704767F03ABC00000000000000006E
S3150800ABF0ABC222480000C07FD0B5554C554E002741
S3150800AC00204632463B463F216FF0A2F904F1280060
S3150800AC1032463B4640216FF09BF904F1500032461C
S3150800AC203B4641216FF094F904F1780032463B46E1
S3150800AC3042216FF08DF904F1A00032463B464321CC
S3150800AC406FF086F904F1C80032463B4644216FF09E
S3150800AC507FF904F1F00032463B4645216FF078F95A
S3150800AC6004F58C7032463B4646216FF071F93A4B33
S3150800AC703A49196047201871482083F8240049206A
S3150800AC8083F844004A209FED2E6B9FED2F7B83F8B7
S3150800AC9064004B2083F884004C20002283F8A4002B
S3150800ACA04D244E2083ED046B83ED0C6B83ED146B02
S3150800ACB083ED1C6B83ED246B83ED067B83ED0E7BA6
S3150800ACC083ED167B83ED1E7B83ED267B1A721A7342
S3150800ACD0196283F8282083F82C20196483F8482001
S3150800ACE083F84C20196683F8682083F86C20C3F82B
S3150800ACF0801083F8882083F88C20C3F8A01083F886
S3150800AD00A82083F8C44083F8E40083ED2C6B83ED18
S3150800AD102E7B83ED346B83ED3C6B83ED367B83EDC5
S3150800AD203E7B83F8AC20C3F8C010C3F8E01083F864
S3150800AD30C82083F8CC2083F8E82083F8EC20D0BD1F
S3150800AD40002D310100000000000000000000000096
S3150800AD5090230020400D0300F81A002088350A08C1
S3150800AD600D480E4AC3680E499FED097B10B40024AE
S3150800AD7043611C700830046280F82440094B5DF872
S3150800AD80044B80ED0A7B45F0C5BD00BFAFF30080DC
S3150800AD900000000000000000483C002028280A089F
S3150800ADA094B60808C09109082DE9F04F2DED048BDB
S3150800ADB0544891B0FDF73CFB20B111B0BDEC048BB3
S3150800ADC0BDE8F08F01255049009503464622044602
S3150800ADD04E4846F0D5F84E48046144F0B7F94D4B55
S3150800ADE04D4A1B6813801B0C93704C4B9D63FFF7F1
S3150800ADF0B7FF61F02BF84A494A4846F0BFFE4A4970
S3150800AE004A4846F0B7FE4A494A4846F0B3FE4A4918
S3150800AE104A4846F0AFFE4A494A4846F0ABFE4A4B16
S3150800AE201D78002D40F06581484E494845F0A6FD3D
S3150800AE3031222946474876F04AF896F8790165F0AE
S3150800AE4069F996F8740565F065F996F8DF0265F014
S3150800AE5061F94149414846F091FE414870F048FC85
S3150800AE60404870F045FC404A4048536843F40003A4
S3150800AE70536070F03DFC3E4890F83C33002B00F0E0
S3150800AE8045833C4B9A689B6C5380202383F3118837
S3150800AE9005F06CFC384B1A78511E012900F21E8306
S3150800AEA036495960012A1DD1354A3648116C41F098
S3150800AEB010011164116E41F010011166116E116ACC
S3150800AEC041F010011162116A21F0100111622E4938
S3150800AED0126A98604FF48002702381F83633C1F8FD
S3150800AEE084214A60244E2548B1680268B1FBF2F312
S3150800AEF0013B9BB203FB0222914200F00F832348D9
S3150800AF0005F0B2FA581A002068290A08FC9D0020A4
S3150800AF1040B001207C290A08C4930120483C00203F
S3150800AF2091BE060880290A0885AD06088C290A08F4
S3150800AF3019180508A0290A088D170508AC290A0852
S3150800AF40351B0508C0290A08C5180220985B001099
S3150800AF50D8290A089C2B01204D7A0408F0290A08EA
S3150800AF60349600201096002000230140EC9500201E
S3150800AF70B862002074350120B49400206C190020B2
S3150800AF800038024000BD010500E100E0A0360A08CD
S3150800AF90B3F5AA7FC1F04B807BB9AF4BAF49B04A36
S3150800AFA0B048C3E902214FF4A271102219805A60F1
S3150800AFB0AD4900221A6146F0DDFDA74F264646B97F
S3150800AFC03B8833B1B86803681B689847031EC1F20B
S3150800AFD0CB820026A54FDFF8C0830096B7F842203B
S3150800AFE0A3493346404645F0CBFF0096B7F8D8222A
S3150800AFF0A0493346A8F5867045F0C2FF0096334649
S3150800B000B7F82E239C49A8F5D47045F0B9FF9B499B
S3150800B0109B4846F0AFFD9B4B1E7097F87135D907D4
S3150800B02003D497F87035DB0948D0DFF84082B8F8C2
S3150800B0304410B8F8460040F0BDFCB8F8701607464C
S3150800B040B8F8720640F0B6FC0646002F01F0948068
S3150800B050874201F0F98298F85C36062B96BF8A4A31
S3150800B0608A4B52F82330814A186892F86426596840
S3150800B070520608AB03C302D501F10043099308A998
S3150800B080384606F0D5FB002E41F07980804BC3E99F
S3150800B0900076764B93F87135DB0706D5DFF8FC8228
S3150800B0A098F8AC33002B01F0D982704B93F87035C1
S3150800B0B0DB0941F0B781734B01221A70754B1B7877
S3150800B0C053B96A4BB3F8EC023EF0E2FC002801F0F3
S3150800B0D07F8171483BF04EF8644B93F8E463F609B8
S3150800B0E041F0B9803EF0ACFE3FF018FD6B4845F0E4
S3150800B0F045FC6B496B4846F045FD6B496B4846F085
S3150800B1003DFD5A4B93F83423120700F1D181614B68
S3150800B110197879B9554B66481B89692B9CBF654ACE
S3150800B12052F8231045F02AFC4BF092F9624963481D
S3150800B13046F024FD624DDFF8688205F580674FF01A
S3150800B140FF36294632464046203508F077FDAF429D
S3150800B150F7D15C485C4946F015FD5C4800F580551A
S3150800B16095F8AC31002B00F0C781594959485A4D1A
S3150800B17046F00CFD59495A4846F0FCFC59495A48CC
S3150800B18046F0F8FC95F85C36002B00F0AA81574B80
S3150800B1905A68002A00F0BD8158F0AEFB00283FF43B
S3150800B1A00CAE5349534846F0E5FC5349534846F01C
S3150800B1B0E1FC5349534846F0EDFC5349534846F0E1
S3150800B1C0E1FC5349534846F0DDFC5349534846F0E1
S3150800B1D0D9FC5349534846F0E1FC5349534846F0D5
S3150800B1E0CDFC5349534846F0C9FC5349534846F0E9
S3150800B1F0C5FC5349534846F0C1FC5349534846F0E9
S3150800B200C1FC30F035FD524858F022F8514B5249EE
S3150800B210524801221A6046F0ADFC5149514846F0A1
S3150800B220A9FC514A514805216DF056FA5049514832
S3150800B23046F0A0FC5049514846F0A0FC50495148F8
S3150800B24046F09CFC5049514846F0A0FC50495148EC
S3150800B25046F09CFCA6E000BFD8360120382A0A082A
S3150800B26028480020402A0A0809A60608985B001004
S3150800B270682A0A08702A0A087C2A0A08D1AE06082B
S3150800B280882A0A08E418022068360A0884360A0852
S3150800B290BC930120C5180220D82600101C2B0A08CA
S3150800B2A0F1380608D0290A0861560608A4A909082B
S3150800B2B0342B0A08D0670908FD150508A0260A08D0
S3150800B2C0586C0020482B0A08DD44020858700020F4
S3150800B2D0A56202086436080810820020F5440208B0
S3150800B2E0582B0A0879540208642B0A08883C00205F
S3150800B2F0F92E0608702B0A08AD2E06087C2B0A08BC
S3150800B300D5300608882B0A08F12F0608942B0A0858
S3150800B310A12F06089C2B0A08C92F0608A82B0A087D
S3150800B32019300608B42B0A08B9200608BC2B0A08E7
S3150800B33095200608C82B0A0815200608D02B0A08E7
S3150800B34039200608DC2B0A085D200608E82B0A08BF
S3150800B350C81D0010DC9301203DC20508F02B0A0821
S3150800B360F9DC0508102C0A085DC205081C2C0A0819
S3150800B370BDC80508342C0A08D9DE0508402C0A0879
S3150800B380E1DE05084C2C0A08ADC80508582C0A0841
S3150800B390B5C80508C49009082C9F0020C8BF00102E
S3150800B3A0F4A500207749784846F0F4FB77497848B1
S3150800B3B046F0ECFB7749784846F0ECFB7749784845
S3150800B3C046F0E8FB7749784846F0E4FB7749784841
S3150800B3D046F0D4FB7749784846F0D8FB7749784851
S3150800B3E046F0D4FB7749784846F0D0FB7749784849
S3150800B3F046F0CCFB7749784846F0C8FB7749784849
S3150800B40046F0B8FB7749784846F0C0FB7749784854
S3150800B41046F0B0FB7749784846F0BCFB7749784850
S3150800B42046F0B8FB774B1B78002B00F00582764C6C
S3150800B43076490125002348222046009545F0A0FDBF
S3150800B440002347227249009504F10C0045F098FD47
S3150800B450704B6C4A93F87D351278DB0700F1EF855F
S3150800B460684B1B780BBB6C48036143F06FFE694B56
S3150800B470B3F8184520463EF00BFB38B19FED670A36
S3150800B480674B6849684822466AF030FB614BB3F857
S3150800B490284520463EF0FCFA38B19FED600A634B1A
S3150800B4A06049634822466AF021FB35F099FA84E43C
S3150800B4B093F84F27002A3FF42AAEB3F842003EF02D
S3150800B4C0E7FA00283FF423AE00220092594B5A4867
S3150800B4D07F224FF4CA6107F0C3FC18E6574804F008
S3150800B4E0C3FF0123D5F8581685F85C3628463DF083
S3150800B4F069F9C5F860064AE60123D5F8A81185F862
S3150800B500AC3119F081FFC5F8B0012EE63EF050F9CE
S3150800B510B7E44B4A1168596013603DE6D0E9020169
S3150800B520F26821F0FF0100271760506093621761E7
S3150800B5300223D160337005F02FF8202383F3118896
S3150800B54005F014F905F0DEFB3378022B40F06C8524
S3150800B550032372683370F36852680921D96201219E
S3150800B56059615F621F6112B1DA680A43DA6085229F
S3150800B5701A6005F011F833493348344E46F0FEFA9E
S3150800B580012768E0E9C90508A4FA0808C1C805083A
S3150800B590603908084DC30508602C0A0899C30508D0
S3150800B5A0742C0A08E5C305088C2C0A0811EC030854
S3150800B5B0A82C0A083DC30508B02C0A082DC305089F
S3150800B5C0C42C0A0829C50508D42C0A0831C505085B
S3150800B5D0E42C0A087DC40508F42C0A084D990508C8
S3150800B5E0FC2C0A0839C50508082D0A0839B90408C3
S3150800B5F0202D0A08B90306082C2D0A0831C40508A7
S3150800B600442D0A08C5180220089E002028300A087A
S3150800B6103C300A08985B00101CB1012000401C460B
S3150800B620AC1900205C300A08F0460020B819002042
S3150800B6306847002069C4040808660020B0360A086E
S3150800B640041800205D8C0408FC290A08782B0120C0
S3150800B650384606F00DFA3368012BF9D9694B93F889
S3150800B660E523170778D5D3ED757ADFED676A9FED81
S3150800B670676A93F870359FED660A67EEA67AB6EEA6
S3150800B680007A67EE877A180786EE277A614BDFED30
S3150800B690626AD3ED007A9FED616A27EE267AF4EEA8
S3150800B6A0C67A48BF37EE077AF1EE10FAD8BFF0EE41
S3150800B6B0477AF0EE046A27EEA67AB4EEC07AF1EE7F
S3150800B6C010FA00F33B879FED507A67EE877A87EE8C
S3150800B6D0800A63F0A9F8524B00225A60B0EE087A45
S3150800B6E0C0EE076AF7EE004A36EEA45ABFEE007AB5
S3150800B6F0A0EE005A74EEE65A84EE856AA0EE007A49
S3150800B700E0EE005A37EE077A66EE866A67EE067A44
S3150800B71026EE256AB1EE667AC3ED006A83ED027AF3
S3150800B720C3ED037A83ED046A364B93F82F3659072F
S3150800B730C3F3800600F18E863A48032256213FF06D
S3150800B740F3F83948032257213FF0EEF8374890F8C6
S3150800B7503C33002B00F004872A4B93F83433DE077A
S3150800B76000F1DF85274B93F834339A0700F1D48527
S3150800B770244B93F834335B0700F1C985214B93F8C2
S3150800B7803733DF0700F1BE851E4B93F82D361E07AB
S3150800B79000F1B3851B4B93F82D36D80600F1A88522
S3150800B7A0184B93F8343F002B3FF407AC204E0F3369
S3150800B7B05B010022C6E9232306F1A800012314220F
S3150800B7C086F8A330C6F8942044F080FCB369002BB1
S3150800B7D000F0AC85174A13885168194489B2224685
S3150800B7E00120002A7FF4D8AB002B3FF4D6ABB3F583
S3150800B7F0A27FBFF4CDABB1F5A27F0246F1D9FFF720
S3150800B800DCBB00BF985B0010DB0F494000006144B9
S3150800B810809F5548206B001000007A440AD7233CC5
S3150800B82048750120202A0A082C2A0A08705F002079
S3150800B83028480020D8360120BC49BD4846F09AF968
S3150800B840BC4ABD4805216CF047FFBC4ABC481021DC
S3150800B8506CF042FFBB4ABC4811216CF03DFFBB4A65
S3150800B860BB4810216CF038FFBA4ABB4811216CF06E
S3150800B87033FFBA4ABA4811216CF02EFFB949BA48C3
S3150800B88046F078F9B949BA4846F074F9B949BA4858
S3150800B89046F070F9B94ABA4805216CF01DFFB94956
S3150800B8A0B94846F067F9B949B94846F063F9B9495C
S3150800B8B0B94846F063F9B949B94846F05BF9B94958
S3150800B8C0B94846F057F9B949B94846F053F9B9495C
S3150800B8D0B94846F053F9B948B94A11216CF0FCFE4B
S3150800B8E0B84890F83C33002B00F02C84B64EA6F2EC
S3150800B8F0AC5557F0CBFEB548314644F065FCB5F873
S3150800B900CA023EF0C5F868B105F2C46393ED000AB1
S3150800B910DFEDAF0AAF4AB049B048B8EEC00A002317
S3150800B9206AF01EF8AE4BB3F9E420B3F9521091420F
S3150800B93001DAA3F85220AB4BAB4FAC4DAC4EDFF857
S3150800B940A0927B6003F14001B96003F15001F960F0
S3150800B95095F8291DDFF800B34FF07E524FF0140812
S3150800B96040F2947ABA613A617A61B261326172617F
S3150800B97018FB01A103F160024944726005F62C50D8
S3150800B98003F1A002B033B260F36044F01DFC95F8F1
S3150800B990791DC5F85C7D18FB01A1494405F67C5064
S3150800B9A0C5F860BD44F010FC95F8C91DC5F8AC6D26
S3150800B9B018FB01A10BF17803494405F6CC50C5F8EC
S3150800B9C0B03D44F001FC95F8193EC5F8FC7D18FB1E
S3150800B9D003A149440BF1F00305F61C60C5F8003EC7
S3150800B9E044F0F2FB0BF5B473C5F8503EC5F84C6E3F
S3150800B9F051F012FC99F8E433590600F196837D4814
S3150800BA003AF0B8FB7C483AF0B5FB7C483AF0B2FB12
S3150800BA107B483AF0AFFB01205FF03CFC704B93F893
S3150800BA203723920640F1218393F87125D70704D569
S3150800BA3093F87035DB0940F0A085724940F25E2024
S3150800BA4052F018FF664D95F82D369E0640F1208374
S3150800BA5095F87035DB0940F079836B4940F25E2032
S3150800BA6052F008FF212038F07FFC48B95C4B674D3F
S3150800BA70B3F86283B3F86473AB68002B00F085856E
S3150800BA80574B93F81E124B1E2F2B0AD8604CDFED2E
S3150800BA90500A9FED600A20463EF0AEFF20463AF077
S3150800BAA069FB4F4D5C4995F836025C4F60F0B2F879
S3150800BAB095F82C035A4960F0ADF859F093FB05F652
S3150800BAC04256002405F6735515F8012F36F8021F5D
S3150800BAD0013438463EF028FF082CF5D15149524822
S3150800BAE046F058F85149524846F044F851495248E8
S3150800BAF046F040F85149524846F040F8384B93F81A
S3150800BB007D355C0600F168834E494F4846F032F8A9
S3150800BB104E4B93F827201AB94D4A1168D96213601B
S3150800BB204A4E4C4CB4614EF6602297E0B1260608A0
S3150800BB30582D0A0859260608682D0A0839330608B2
S3150800BB40782D0A0819330608842D0A08ED330608E5
S3150800BB50902D0A08CD3306089C2D0A086934060874
S3150800BB60A82D0A08BD260608B42D0A084525060884
S3150800BB70C42D0A0851250608D02D0A08ED24060802
S3150800BB80DC2D0A0819270608E82D0A08A115060853
S3150800BB90F82D0A08A9570608082E0A08FD250608DA
S3150800BBA01C2E0A08AD2506082C2E0A086D2706083D
S3150800BBB0382E0A08AD150608442E0A08502E0A081B
S3150800BBC0F5340608D08D002044610010C006001028
S3150800BBD000000000A09E00205C2E0A08D04000202D
S3150800BBE0985B0010308F0010FCB001200000001098
S3150800BBF0DCB00120B4B00120A4B0012094B001202B
S3150800BC0084B00120702E0A08A82E0A08E48D0120A7
S3150800BC10488D0020CDCC4C3DA88D0020E42E0A0886
S3150800BC20808D002029E70608F02E0A08BDE10308E2
S3150800BC30002F0A0819640408142F0A081DA5060807
S3150800BC40242F0A08995F040864940808E04700202E
S3150800BC50E4AC00200E610010883D00200023C6E9F0
S3150800BC600223304604F22A630025336286F82650FA
S3150800BC703EF038FFB44BB54A5A60012102F580728E
S3150800BC8086F827109A604FF07E562032B0489E619B
S3150800BC9029461E615E61DA6034F0CEFDAD4BAE4AD0
S3150800BCA0AE48AF495A6002F580729A604160103218
S3150800BCB001F58071DA608160AA4A9E611031C1601F
S3150800BCC01031516040311E615E619160A64B9661EC
S3150800BCD0103116615661D16001F160021031C3E975
S3150800BCE001128661066146619E611E615E6101F10F
S3150800BCF060029E4EDFF81CB3DFF81C93DA60A4F2EC
S3150800BD007654B4F8DC7938463DF0C2FE002838D0BF
S3150800BD10B4F8E039964902933A460C2707EE903A6A
S3150800BD2007FB05B73846B8EE678A45F0D1F9029B96
S3150800BD304FF0780AB3F100080AFB059A18BF4FF0CE
S3150800BD400108002B40F084818A4B53F8253004F60D
S3150800BD5006225A604FF07C529A6104F6E6129A60FF
S3150800BD604FF080421A6104F6F612DA604FF07E52FE
S3150800BD705A61C6E903A7736104F6DC1386F80880DE
S3150800BD8073600135042D04F16C0406F11806B8D168
S3150800BD90794C7A4D94F8643404F29C50002223F0CE
S3150800BDA0070305F51861A5F8002684F8643444F0FD
S3150800BDB00BFA95F8CD30724DD8064CBF04F598604D
S3150800BDC004F591606F4C294644F0FEF9204630F0A0
S3150800BDD045FF53F0DFFDA4F5BA62002182F8581436
S3150800BDE0A4F5BA72684B1360A5F2F455A4F5A872C7
S3150800BDF066486749136045F0BDFE95F8CD30D9060B
S3150800BE004CBFA4F58870A4F5A4705C4C04F2F451F8
S3150800BE1004F2FC5304F5BF620D681968C36A126818
S3150800BE205A6002681D6052689960904759495A4895
S3150800BE3045F0A0FE594B1B78002B37D14E4B584A7C
S3150800BE4058485949594D5A4EC3E9EF02594845F0E1
S3150800BE5091FE5949594845F08DFE594B59495A4A58
S3150800BE605D614FF07E5088610861906110611861CC
S3150800BE7004F6C410C8605548486155489861554845
S3150800BE8098600630D86004F6646004F51D64C1E95C
S3150800BE90010404F66C3400F5DD6004F53E51C2E990
S3150800BEA0024056605561596052F0C2FD334B93F813
S3150800BEB07C359A0600F15D8151F0A8F84649474855
S3150800BEC020F072FC464B4749A3F6A4624FF07E5415
S3150800BED0B2F84C00444A4B60A3F59C65A3F2D446DD
S3150800BEE08C6124330C6194611461404CCD60C2E9C5
S3150800BEF00136D560354B8E6000254B615361257040
S3150800BF003DF0C6FD58B12B46DFED390A9FED390ADB
S3150800BF10394A3A493A4869F023FD01232370174BF9
S3150800BF20384CB3F83A0E002525703DF0B1FD0028CF
S3150800BF303FF47DAA2B469FED2F0A334A33493448EE
S3150800BF40F6EE000A6AE000BF14BD0020C099001092
S3150800BF50C80E0010EC9B0020009B0010BC98002027
S3150800BF60209C00109C9800207C980020FC8D0120C5
S3150800BF70DC2F0A08BC360A0800000010985B00107F
S3150800BF808C610010D00500100000C8C2E42F0A0812
S3150800BF900DB7050841B10408F02F0A08C518022094
S3150800BFA0C81F002090200020A5CF05080AD7233CEB
S3150800BFB094700010FC2F0A0899A8050808300A088A
S3150800BFC064B00120D8750120548D01200000C842B4
S3150800BFD0CDCCCC3D78A000106F861400F8BC0020AC
S3150800BFE03C6A0010E8A70020C8A70020061902200E
S3150800BFF0CDCCCC3D0000C07FE09E002010300A0862
S3150800C000F088002005190220209F00201C300A080D
S3150800C010788800207C1900206889002069F0A0FC37
S3150800C02001232370FFF703BAC44804F01DFAB1F5DB
S3150800C030AA7F4FF001027FF6D4ABFEF7BEBF002AF7
S3150800C0407FF433AABE49BF4845F094FDFFF708BA06
S3150800C050BD4BDFEDBE0A53F82510B0EE480A0023A3
S3150800C0603A46504669F07CFC6EE693F84C32013B42
S3150800C0702F2B02D8B6483AF07DF8B64B93F84D32D6
S3150800C080013B2F2B3FF6DEACB3483AF073F8D9E400
S3150800C090B249B34895F8D76245F06CFDB149B24844
S3150800C0A045F068FD30463DF0A9FEB04BC3F858038D
S3150800C0B0002800F0E28203F2463603F26F379B4609
S3150800C0C005F55B7503F5807A039405E00BF1200B03
S3150800C0D0D34505F102056DD000234FF0010826F877
S3150800C0E0028F07F8013F9BF87C0338F03DF90446B8
S3150800C0F00028EBD1B5F8009048463DF0C9FC002869
S3150800C100E4D09A4B494603F55770C3F8604343F0A9
S3150800C11065FD9748424649463EF006FC2B88338023
S3150800C1200BF55E703AF026F8D0E7924857F042FBD6
S3150800C130914857F03FFB914857F03CFB904857F021
S3150800C14039FB5CE43DF034FBFFF7D0BB8D4857F074
S3150800C15031FB8D4857F02EFB8C4857F02BFB8C484B
S3150800C16057F028FB8B4857F025FB8B4857F022FBE6
S3150800C17078E454F039FE9FE600283EF49FAF754BED
S3150800C18093F85E36062B00F24B81844A52F8233028
S3150800C190704A186892F864265968D20906AB03C330
S3150800C1A002D001F10043079306A9304605F040FB8B
S3150800C1B0FEF76CBF6D4D039C95F83C33002B7FF45E
S3150800C1C051AC0123D5F8381385F83C3328463CF0A2
S3150800C1D0D1FAC5F8400345E4714B93F8D421002AF7
S3150800C1E000F0098193F8D521002A00F01681D3F8CA
S3150800C1F0D8310B939DED0B8A18EE100AFCF764FBF9
S3150800C2000446224667480B460D4644F0B7FBB4EE93
S3150800C210488AF1EE10FA80F1E280DFED637AB4EE37
S3150800C220E78AF1EE10FA00F3DA80DFED607AB4EE11
S3150800C230E78AF1EE10FA00F1D2805D4844F09EFBE1
S3150800C240574B40F20111002283ED648AA3F88C1142
S3150800C25083F88E2158E493F8D829052A00F2128229
S3150800C260DFE802F03639332C034340F2F113514923
S3150800C27000220B80504B51481A8039F07BFF5048FA
S3150800C28039F078FF334B4F4993F8E4230E70900644
S3150800C2907EF528AF93F8D829052A00F2FA8101A37A
S3150800C2A053F822F0DDC20008DDC20008DDC200082E
S3150800C2B0E5B00008DDC20008E5B000083D4B4FF4C4
S3150800C2C021721A8040F28522D4E74FF4D073CEE764
S3150800C2D04FF4F873CBE74FF40073C8E73A4940F6D2
S3150800C2E06E0052F0C7FAFEF7FDBE40F20933BEE70C
S3150800C2F006203FF0E1FBFFF753BA05203FF0DCFBD1
S3150800C300FFF748BA04203FF0D7FBFFF73DBA0320F2
S3150800C3103FF0D2FBFFF732BA02203FF0CDFBFFF722
S3150800C32027BA01203FF0C8FBFFF71CBA274B1A684B
S3150800C330B26114361E60FFF74DBA00BF8C360A0884
S3150800C340F5A5060850300A08EC360A080000000071
S3150800C350D0B00120985B0010C4B00120110A05086E
S3150800C360D02E0A08650A0508D82E0A0830280020A3
S3150800C37020970808F08B0020B88B0020808B0020BF
S3150800C380488B0020188D0020E88C0020B88C0020EF
S3150800C390888C0020588C0020288C002068360A08D3
S3150800C3A014A80020302F0A080000DC420000704262
S3150800C3B06C300A08C2180220C0180220F84800206B
S3150800C3C0D848002004190220DC2A0A08041800208C
S3150800C3D0B54B93F8DC066DF0B1FDFEF77DBEB349AB
S3150800C3E022462B4640F6B20051F082FEB04844F091
S3150800C3F0C5FAFFF789BBD3F8DC4174B12368204638
S3150800C4009B68984748B1236821465B680AA89847FD
S3150800C4109DF82830002B7FF4EDAE9FEDA68AEBE65B
S3150800C420A54BB5E6A548C0F8687327B190F83C3324
S3150800C430002B00F01081A248C0F86863002E3EF475
S3150800C4403AAE90F83C33002B7EF435AE3DF0B0F9A9
S3150800C450FEF731BE9B4BDFED9C9A9FED9C9ADFF869
S3150800C460B0A20FCB10AF07E90F004FF00009002765
S3150800C4709FED978A0DF1300BB84607EE907AF8EEE5
S3150800C480E77AFBEC018A77EEA77A08F1010827EE2E
S3150800C490A90A4F4480EE090A6FF0C0FFB8F1040FED
S3150800C4A0A8EE808AE9D109F10109B9F5806FAAECED
S3150800C4B0018ADCD1874BDFED866A1868DFED865A7C
S3150800C4C09FED866ADFF84CC205EE104AAE464FF479
S3150800C4D07A6700220CFB02F307EE903AF8EEE77A49
S3150800C4E0411C67EEA57A914237EEC67AB0EEC77A56
S3150800C4F0BDEEC77A17EE103A05D1B8EEC57A37EE13
S3150800C500C77AF0EEC76ABB4204DABDEEE75A1F46A1
S3150800C510B64610460132B2F5007FDBD1BEF1000FF8
S3150800C52001D06C4B18606E4B15EE101A03F53C6281
S3150800C530A3F8BE1BC2ED006AFFF7FEB817EE900A15
S3150800C540FCF7C2F902460B46CDE90023654954A318
S3150800C550D3E9002340F25E2052F08CF9FFF7E4B8E5
S3150800C5603DF026F9FFF7F8B832465F4940F25E20FB
S3150800C57052F080F90126FEF722BD5C4857F01AF9F9
S3150800C5805B4857F017F9FFF75DBA40463DF080FA69
S3150800C59000283FF475AA38463DF07AFA00283FF499
S3150800C5A06FAA544E0522304641463EF0BDF9052293
S3150800C5B0394630463EF0B8F940466CF0E7F8414651
S3150800C5C0286030463DF04EFF686038466CF0DEF86D
S3150800C5D0394603463046AB603DF044FF6A68296831
S3150800C5E0E860012606FA02F292B20A8306FA00F316
S3150800C5F0AA689BB213830DF113010F23284632460E
S3150800C6008DF8133065F00EF832460DF11201284602
S3150800C61065F022F89DF81230B12B2BD0BD2B7FF494
S3150800C6202FAA4CF220433446334DADF81430284631
S3150800C630022205A92C6164F0F5FF01232F482B750A
S3150800C64039F098FDFFF71CBA2D4940F25E2052F0EA
S3150800C65011F9FEF733BD3DF0ABF8ECE60123D8F847
S3150800C660A81388F8AC3340464EF006F9C8F8B0036C
S3150800C670FEF71BBD44F21043D6E7224844F07EF984
S3150800C680FFF7F0B9204940F66E0052F0F3F82E464F
S3150800C690F8E51E4940F66E0052F0ECF8FEF722BDAA
S3150800C6A000000000F0B30A4100200010602F0A08BD
S3150800C6B08C2F0A0867A6CA4284360A0858BC001096
S3150800C6C0E8B80010BC150808DB0F494000C07F44D5
S3150800C6D000000000346701200000803A00007A4517
S3150800C6E000000010002A0A084C2A0A08704900208F
S3150800C6F030490020E02E0A08E48D0120C8460020B3
S3150800C700902A0A082C970808BC2A0A08042B0A0843
S3150800C710E81101207E56030038B59FED216BDFED49
S3150800C720227A224B0360044600250123036480ED28
S3150800C7300E6BC0E90755C0E90955C0ED017AC0ED91
S3150800C740027AC0ED037AC0ED047AC0ED057AC0ED31
S3150800C750067AC562C0ED0C7A80F8345080F84450E9
S3150800C76085644C306BF028F8114BA4F8B0504FF0A4
S3150800C770824284ED206B84ED266B84ED2E6B84F863
S3150800C7807C50C4F88850C4ED237AA4F89050C4EDC0
S3150800C790287AC4ED297AC4F8A820C4F8AC3038BD84
S3150800C7A000000000000000F000000000904A0A089F
S3150800C7B0CDCCCC3D000000009FED0F7B002200B5DC
S3150800C7C0C0F8A4104FF0000E0D49C0F80CE0C0F8F0
S3150800C7D020E0C0E90422C0E9062280ED0E7B80ED48
S3150800C7E0347B5DF804EB426082600160426243F08C
S3150800C7F0CDB800BFAFF3008000000000000000F0D5
S3150800C800784A0A080000000010B59FED136BDFEDAB
S3150800C810147A144CC0ED147A00234FF0010C83628D
S3150800C82080ED126BC362C0E90833C0E90A33C0E978
S3150800C8300C33C0E90E33C0E91033C0E9033300F105
S3150800C8400C0E036043714361C36180F854C0836171
S3150800C85080F804C0846010BD0000000000000000DD
S3150800C8600000C07FFC360A0870B5214ED6F820397C
S3150800C870D6F8B04AA6F82409013382B00546C6F8A8
S3150800C8802039ACB1002306F6381001E0A3420FD0D8
S3150800C8901A010133815AA942F8D1164C144420468C
S3150800C8A043F014FC144802B0BDE8704043F00EBCD7
S3150800C8B004F0D0F9D6F8B03A104C0190172B0FD8DF
S3150800C8C003F293519FED087B04EB011484ED007B82
S3150800C8D0258101330198C6F8B03A05F053F8DEE72A
S3150800C8E0019805F04FF8DDE700000000000000F0B1
S3150800C8F00050001030590010285900100000001090
S3150800C9002DE9F04F2DED068B0123DFED5BAA85B0EF
S3150800C9100A24BFEE009AB8EE008AF6EE008A0646AA
S3150800C9201D4629EE08AADFED559A2AEE09AA4FEA0E
S3150800C930450B32464FEA051AE800B7EE009A002181
S3150800C940871802F1040990460B46D7ED010A97EDC0
S3150800C950000A69EE207A20EEE97AE9EE807A5B44ED
S3150800C960A9EE007AF4EE477AF1EE10FA58D698ED69
S3150800C970016A59ED016A36EE676A76EEC76A87ED8F
S3150800C980016AC7ED006A98ED016A59ED016A77EE0A
S3150800C990867A36EE877AB3F5806F09ED017A5744C1
S3150800C9A0C8ED017AD144D044CFD369EE8A7A2AEE0B
S3150800C9B0E97AE9EE2A7AAAEE097AB4EE677AF1EE0E
S3150800C9C010FA40D60131A94239EE079A79EEA79AAC
S3150800C9D002F10802B4D1013C1DD05846FBF752FFBC
S3150800C9E002460B4622A1D1E90001FCF7EFF8FCF755
S3150800C9F09BFA09EE100A29EE280A6FF051F8B0EEF4
S3150800CA0040AAB0EE490A6FF04BF85D46B0EE4A9A76
S3150800CA10F0EE40AA85E705B0BDEC068BBDE8F08FC1
S3150800CA20F0EE691AB0EE491ACDE90202CDE90031F5
S3150800CA3073F06CFFDDE90202DDE90031B0EE407A01
S3150800CA40F0EE607A93E7F0EE6A1AB0EE4A1AF0EE64
S3150800CA50690AB0EE490ACDE90102009173F056FF62
S3150800CA60DDE901020099B0EE407AF0EE607AA9E7B6
S3150800CA7000000060FB2109C02EBDBB33000000008A
S3150800CA802DE9F04FCC4BCD48CD4ACE492DED068B3E
S3150800CA90C3F82C04CC4818600024CC48C3F83404E6
S3150800CAA0C3E9014483F830448125C94B1360C2F8B1
S3150800CAB05856C84BC84DC948C2F864061C7082F857
S3150800CAC05C466B60C64AEB600026C64BC6482860C3
S3150800CAD04FF07047C1E900676421C2E90641116257
S3150800CAE003F140015960C148106003F1180103F1D0
S3150800CAF02802C3E90611BE491A60C3E9022203F1F6
S3150800CB002002C3E908221C611C7506224FF47A73B9
S3150800CB10A1F1280083B0AB6007F078F8B54AB649AA
S3150800CB2014711346C2E9024443F8241BA432FF21B8
S3150800CB3043F8104C03F80C4C23F80A4C03F8084C3D
S3150800CB4003F8071C03F8064C10339A42F0D1AB4A97
S3150800CB50AB4BAC481A6002F13401596144F62061C6
S3150800CB60A94AC3F89C001425C3F8981000204FF072
S3150800CB707041C3E92A01C3E90244A448A4491C71C7
S3150800CB80C3E90644C3E92344C3F89450A14B116092
S3150800CB90862582F83C43C2F84843C2F83853C2F89F
S3150800CBA044039D4AC3F83853012583F83C4382F869
S3150800CBB0AC43C3F8440319608720984CC3F848531C
S3150800CBC09FED779B964BC2F8A803964911600520FE
S3150800CBD0C2E9ED404FF0000803F5C072C3F80880BB
S3150800CBE083ED069BC3F80C8083ED089B83ED0A9BB7
S3150800CBF0C3F8008083ED0C9BC3F8108083ED0E9B71
S3150800CC0083ED109B83ED129B83ED149B83ED169B9E
S3150800CC1060339342E2D1844B844A1A60844A5A604C
S3150800CC20DA6082F8008083489FED838ADFF888A25D
S3150800CC30824F4FF47A6228219A606DF09DF98048F8
S3150800CC4025216DF099F97F4859216DF095F97E48AF
S3150800CC505A216DF091F97D4B7D4824221A712321C2
S3150800CC607C4A1A606DF088F9FDF7C6FF7A4BDFF843
S3150800CC704CC27A4983F8088022221A71784ACCF87D
S3150800CC802020C2E90088C2E9028882F814800022BE
S3150800CC90C3E9041203F128021A62724A1A609FED68
S3150800CCA042AB714ACCF800209FED417B6F4A83F86E
S3150800CCB00C8002F5805B83F82C804FF0210983ED08
S3150800CCC0069B83ED0CAB6A486A4A83ED098A2021E4
S3150800CCD000238CED047B8CF808808CF80C808CF88B
S3150800CCE004908CED069B6DF033F96348614A9FED1D
S3150800CCF0630A4F2100236DF02BF9584A6048002338
S3150800CD001F216DF025F95F4B54495F4883F8088069
S3150800CD100022C3E904124FF00C0119715B4919602E
S3150800CD20F7EE008A83F80C8083ED069B584B40F893
S3150800CD30043BF0EE680A6CF005FF65F087F9554884
S3150800CD406CF000FF544B55481860C3ED018A83ED1B
S3150800CD50028A83ED038A83ED048AC3ED058A504B64
S3150800CD605048514A83ED00AB504B494683ED00AB22
S3150800CD7000236DF0EDF84E4B484818604A4A4D4876
S3150800CD80C3ED018A83ED028A83ED038A83ED048A63
S3150800CD90C3ED058A272100236DF0DAF890E000BF7D
S3150800CDA0000000000000000000000000000000F085
S3150800CDB000093D00000000006C8F0120DC390A08DC
S3150800CDC0A0520020403C0020DC3C0A08002201203A
S3150800CDD0C43C0A0834B1012030B00120E0390A0801
S3150800CDE040B00120D0CA0010EC390A08003D0A08F4
S3150800CDF038CB0010DC2A0120143D0A083C3D0A08FD
S3150800CE00284800208F1E170058BC001014BC0808BC
S3150800CE10A03D0A08E8B80010C8BF00100CBC0808F6
S3150800CE20A82C0020843D0A083C580120FC390A0831
S3150800CE3050CB0010D026002000000000986B001090
S3150800CE4028250020D825002080250020D0AC0020E9
S3150800CE50D0240020B43D0A08488D002080841E0096
S3150800CE60E48D0120D03D0A08F43D0A0800000010B0
S3150800CE7078210020801A0600502100200000C842B0
S3150800CE806823002048230020E896012088350A08F0
S3150800CE90143E0A08089701203494012084210A08C0
S3150800CEA02049002080260020400D03001849002054
S3150800CEB05C940120A8260020CC890010C8460020D2
S3150800CEC0D948DA4A332100236DF042F8D848D74AC0
S3150800CED0352100236DF03CF8D648D44A3721002383
S3150800CEE06DF036F8D44AD54BDFF8CCE3D449DFF8F1
S3150800CEF0CCC311604FF0260982F804904FF034092C
S3150800CF009FEDC57B83F8049042F204691960AEF878
S3150800CF100490CC49CEF800104FF027098EF80690F9
S3150800CF2043F2324ECCF80010ACF804E0C2E90A88A5
S3150800CF304FF0330EC3E90A8882ED047B83ED047B48
S3150800CF4082F8088082F80C80C2F8208082F8248053
S3150800CF5083F8088083F80C80C3F8208083F824803F
S3150800CF6082ED069B83ED069BB74882ED0C8A83ED1E
S3150800CF700C8AAE4A8CF806E0052100236CF0E8FF1F
S3150800CF80B248AA4ADFF83893312100236CF0E0FF53
S3150800CF90DFF830E3DFF830C3AD49CEF80010C9F842
S3150800CFA00010CCF80010AB49AB4BC1F804A0AAF1AD
S3150800CFB080008860A949CEF82010C9F82010CCF85E
S3150800CFC02010A449A6480860A648C9F828000130D8
S3150800CFD0CEF828000130CCF828004FF0290089F84F
S3150800CFE004004FF02A008EF804004FF02B009FED46
S3150800CFF08C7B8CF804004FF02C0018719A489B49DA
S3150800D0008EF8088089ED047B8EED047B8CED047B1D
S3150800D0108EF80C80CEF824808EED069B89F8088061
S3150800D02089F80C80C9F824808CF808808CF80C8064
S3150800D030CCF8248083F8088089ED069B8CED069B46
S3150800D04083F80C804FF02D0C9862013081F804C0EB
S3150800D05088628749C3F824804FF02E0C013081F886
S3150800D06004C0886283498448886084498448886003
S3150800D0707F497E48834A81ED047B81ED069B74498E
S3150800D080196080ED047B80ED069B0846243183ED0C
S3150800D090047B196283ED069B744B19627449186008
S3150800D0A008602430086281F8088081F80C80C1F88D
S3150800D0B024807049744808604FF0190C81F804C040
S3150800D0C06E4983F8088083F80C80C3F824804FF0F3
S3150800D0D01A0C6E4B81F804C008601921C3E90118BF
S3150800D0E01A21C3F80C80516069491960116028310A
S3150800D0F0196211624FF001016648C3F82C8082F864
S3150800D100381099854FF00101C2F82C8091850021CD
S3150800D110C3E90401C2E90401C3E90988C3E90C8823
S3150800D120C2E90288C2E90988C2E90C8883F838800E
S3150800D13083ED069B82ED069B63F098FADFF88CE197
S3150800D140554ACEF800202832CEF82020534ADFF878
S3150800D15080C1534B8EF808800C214FF00F09B1EEB1
S3150800D160007ACEF82C10C2F82C904FF003014FF439
S3150800D170FD698EED0C7A8EF804108EF80C80CEF8C8
S3150800D1802480CCF800301360CEF8289028338EED32
S3150800D190049B8EED069B4FF001014FF0050ECCF86F
S3150800D1A02CE08CF804108CF808808CF80C80CCF8ED
S3150800D1B02480CCF82030CCF828908CED049B8CED9C
S3150800D1C0069BCCED0C8A4FF0020C82F804C082F85C
S3150800D1D0088082F80C80C2F824801362C2F828906E
S3150800D1E0304BDFED317A9FED310A314882ED049BF1
S3150800D1F082ED069BC2ED0C8A2E4A1A602832C3F8C5
S3150800D20028901A624FF00D090F220E21C3ED0C7AF1
S3150800D21060E000BFAFF3008000350C00000000009E
S3150800D220804F120000000000B0490020400D0300A6
S3150800D2303026002058260020602E0020282E0020A8
S3150800D240403E0A08243E0A08A88D0020808D00204A
S3150800D250703E0A08F0930120888C0020943E0A0844
S3150800D260603E0A0805030A0008030A00588C0020D5
S3150800D270288C0020D0B0012079A90608C4B0012066
S3150800D28091A9060830490020E43E0A0870490020A2
S3150800D290A83E0A08C0D40100783F0A08808B0020FF
S3150800D2A03C3F0A08488B002033332340000048439C
S3150800D2B080920020003F0A08549401204C940120D3
S3150800D2C0188D0020E88C0020B88C0020F08B0020F8
S3150800D2D0B88B002083F8049083F8088083F80C80C4
S3150800D2E0C3F82480DA6283ED049B83ED069B6CF019
S3150800D2F061FED0480F216CF05DFECF4811216CF01D
S3150800D30059FE1221CD486CF055FECD4BCD4A1A6018
S3150800D31092F824205A73C74A5A6092F824209A73BE
S3150800D320C94A83F80C909A6083F81480104683EDF6
S3150800D330048AC14AC54BDFF8A0E31A6092F8242094
S3150800D3405A73BE4A5A604FF00F0C8EF806C092F810
S3150800D3502420DFF888C39A734FF01009BC4A9860F6
S3150800D36083F8148083ED048A83F80C9040F60D63E5
S3150800D370AEF804308CF8061041F21013B549CEF811
S3150800D38000101160B0EE680ACCF80010ACF8043052
S3150800D390B1488CED028A41F213438CED038A1421BD
S3150800D3A04FF0150C8EED028A8EED038A938082F873
S3150800D3B006C082ED028A82ED038A6CF0FBFDA7485F
S3150800D3C015216CF0F7FDA64B9F499960A249196093
S3150800D3D091F82420A1495A7391F824209A73A14AF6
S3150800D3E059604FF0130CA0499FEDA00A83F80CC0B2
S3150800D3F0116083F814809E4883ED048A1D21162344
S3150800D40093806CF0D7FD9B481E216CF0D3FD9A4B98
S3150800D4109A4818609A4A9B48C3ED018A83ED028AA6
S3150800D42083ED038A83ED048AC3ED058A0721002369
S3150800D4306CF08EFD944B91481860914A9348C3ED61
S3150800D440018A83ED028A83ED038A83ED048AC3ED9C
S3150800D450058A092100236CF07BFD8D4B87481860EF
S3150800D460874A8C48C3ED018A83ED028A83ED038AD5
S3150800D47083ED048AC3ED058A0A2100236CF068FD52
S3150800D480854B7E481860C3ED018A83ED028A83EDD9
S3150800D490038A83ED048AC3ED058A804B72491960B5
S3150800D4A00B229A807E48764A542100236CF050FD60
S3150800D4B07C4B72481860724A7B48C3ED018A83ED3B
S3150800D4C0028A83ED038A83ED048AC3ED058A552112
S3150800D4D000236CF03DFD754B68481860684A74482F
S3150800D4E0C3ED018A83ED028A83ED038A83ED048AFC
S3150800D4F0C3ED058A562100236CF02AFD6D4B5F4863
