S01400006275696C642F7275736566692E7372656343
S3150800800010100020B9830008FDCE0208F983000885
S315080080101D840008F88300080B840008D86AAF3C62
S3150800802074E30900B3830008B383000861290108D3
S31508008030B3830008B3830008B38300082539010811
S31508008040B3830008B383000809380108813801089A
S31508008050B3830008B3830008C5860408CD860408E0
S31508008060D5860408DD860408E5860408552D01082A
S315080080708D2D0108C92D0108052E0108412E01087C
S31508008080792E0108B52E0108DD290108352C0108CD
S31508008090592C01087D2C0108A12C0108ED8604083D
S315080080A0B3830008413B0108B3830008653B010818
S315080080B0113A0108693B01088D3B01082986040825
S315080080C0B3830008053101083D320108B38300086F
S315080080D0B3830008B38300089D3D0108C13D01082C
S315080080E011870408C9380108B3830008B383000858
S315080080F0D53B0108B3830008F93B0108F12E0108B6
S31508008100B3830008B3830008B13B0108B3830008B2
S31508008110B3830008B3830008B1390108B3830008A4
S315080081202D2F0108652F0108A12F0108DD2F010851
S3150800813019300108B3830008B3830008C52C010869
S31508008140E92C01080D2D0108312D010859330108C4
S31508008150513001088D300108C9300108FD3B01087E
S31508008160B3830008B3830008B3830008B383000809
S31508008170B3830008B3830008B3830008B3830008F9
S31508008180B3830008B3830008B3830008B3830008E9
S31508008190B3830008B3830008B3830008B3830008D9
S315080081A0B3830008B3830008B3830008B3830008C9
S315080081B0B3830008B3830008B3830008B3830008B9
S315080081C0B3830008B3830008B3830008B3830008A9
S315080081D0B3830008B3830008B3830008B383000899
S315080081E0E1B60008E5C1070800000000000000002D
S315080081F001F0FF01102A2BDB10F0070F08D010F84A
S31508008200013B013A8B422DD010F0070F42B3F6D14D
S31508008210F0B441EA012141EA014122F007047FF066
S3150800822000070023F0E80256083C85EA010586EABD
S31508008230010685FA47F5A3FA87F586FA47F6A5FAF9
S3150800824087F68EB9EED1F0BC01F0FF0102F0070205
S3150800825032B110F8013B013A83EA010313B1F8D1B0
S315080082600020704701387047002D06BF3546033891
S31508008270073815F0010F07D1013015F4807F02BFCA
S31508008280013015F4C03F0130F0BC0138704700BF1B
S3150800829072B6394880F30888384880F30988384820
S315080082A04EF60851CEF20001086040F20000CCF20A
S315080082B000004EF63471CEF200010860BFF34F8F0E
S315080082C0BFF36F8F40F20000C0F2F0004EF68851FF
S315080082D0CEF200010860BFF34F8FBFF36F8F4FF0E8
S315080082E00000E1EE100A4EF63C71CEF2000108607D
S315080082F0062080F31488BFF36F8F06F077FC22F010
S3150800830099FE4FF055301F491B4A91423CBF41F830
S31508008310040BFAE71C49194A91423CBF41F8040B81
S31508008320FAE71A491A4A1B4B9A423EBF51F8040B00
S3150800833042F8040BF8E700201749184A91423CBF57
S3150800834041F8040BFAE706F055FC43F0A7FE144C77
S31508008350144DAC4203DA54F8041B8847F9E768F071
S3150800836077FA114C114DAC4203DA54F8041B8847CE
S31508008370F9E706F03DBC000010100020101600209A
S315080083800080000810000020101000202C5F0A084A
S3150800839010160020581A0020581A00205C1C0220CB
S315080083A0E0810008E4810008E4810008E88100080B
S315080083B06EE700F000F8FEE70A480B49026800601D
S315080083C08A4201D0FFF764FF08484FF480410160F4
S315080083D007484FF0010101600648D0F800D0406810
S315080083E000470000F0FF0120EFBEADDE4438024032
S315080083F0003801400000FF1F1EF0040F0CBFEFF30A
S315080084000880EFF3098024F07DBD1EF0040F0CBF31
S31508008410EFF30880EFF3098024F0BCBD1EF0040FCB
S315080084200CBFEFF30880EFF3098024F0FFBD00BF0F
S31508008430EC46A0E8F05F80EC108B4FF00000704728
S31508008440B0E8F05FE54690EC108B080008BF012005
S31508008450704700BF00F1340191E838009C46A646F3
S315080084604CF8045D90E8FF0FE54600BD90EC210B43
S31508008470704700BF80EC210B704700BF90EC200BC3
S31508008480704700BF80EC200B704700BFD0EC200B74
S31508008490704700BFC0EC200B704700BFF0EC02012C
S315080084A0F0EC0211F0EC0221F0EC0231F0EC0241A2
S315080084B0F0EC0251F0EC0261F0EC0271F0EC028192
S315080084C0F0EC0291F0EC02A1F0EC02B1F0EC02C182
S315080084D0F0EC02D1F0EC02E1F0EC02F1704700BFDB
S315080084E0E0EC0201E0EC0211E0EC0221E0EC0231E2
S315080084F0E0EC0241E0EC0251E0EC0261E0EC0271D2
S31508008500E0EC0281E0EC0291E0EC02A1E0EC02B1C1
S31508008510E0EC02C1E0EC02D1E0EC02E1E0EC02F1B1
S31508008520704700BFB0FC0181B0FC0191B0FC01A10D
S31508008530B0FC01B1704700BFA0FC0181A0FC01910D
S31508008540A0FC01A1A0FC01B1704700BFEC4600B534
S315080085502DE900502DE9FF1F4FF000032DE90C000F
S3150800856001A978F0EDF8DDF840E012B0704700BFD9
S31508008570EC4600B52DE900502DE9FF1F4FF000032A
S315080085802DE90C0001A978F017F9DDF840E012B0E2
S31508008590704700BFEC4600B52DE900502DE9FF1FD6
S315080085A04FF000032DE90C0001A978F025F9DDF854
S315080085B040E012B0704700BFEC4600B52DE9005008
S315080085C02DE9FF1F4FF000032DE90C0001AB78F0F1
S315080085D0EBF8DDF840E012B0704700BFEC4600B596
S315080085E02DE900502DE9FF1F4FF000032DE90C007F
S315080085F001AA78F055F9DDF840E012B0704700BFDF
S3150800860081F0004102E000BF83F0004330B54FEA35
S3150800861041044FEA430594EA050F08BF90EA020FA2
S315080086201FBF54EA000C55EA020C7FEA645C7FEA35
S31508008630655C00F0E2804FEA5454D4EB5555B8BF58
S315080086406D420CDD2C4480EA020281EA030382EAC9
S31508008650000083EA010180EA020281EA0303362D5B
S3150800866088BF30BD11F0004F4FEA01314FF4801C2E
S315080086704CEA113102D0404261EB410113F0004F40
S315080086804FEA03334CEA133302D0524263EB4303F7
S3150800869094EA050F00F0A780A4F10104D5F1200E95
S315080086A00DDB02FA0EFC22FA05F2801841F10001F0
S315080086B003FA0EF2801843FA05F359410EE0A5F1C4
S315080086C020050EF1200E012A03FA0EFC28BF4CF0F5
S315080086D0020C43FA05F3C01851EBE37101F00045AB
S315080086E007D54FF0000EDCF1000C7EEB00006EEBB8
S315080086F00101B1F5801F1BD3B1F5001F0CD3490842
S315080087005FEA30004FEA3C0C04F101044FEA445298
S3150800871012F5800F80F09A80BCF1004F08BF5FEA1F
S31508008720500C50F1000041EB045141EA050130BDFF
S315080087305FEA4C0C404141EB0101013C28BFB1F511
S31508008740801FE9D291F0000F04BF01460020B1FA5C
S3150800875081F308BF2033A3F10B03B3F120020CDA2F
S315080087600C3208DD02F1140CC2F10C0201FA0CF00D
S3150800877021FA02F10CE002F11402D8BFC2F1200C72
S3150800878001FA02F120FA0CFCDCBF41EA0C01904028
S31508008790E41AA2BF01EB0451294330BD6FEA040471
S315080087A01F3C1CDA0C340EDC04F11404C4F120025C
S315080087B020FA04F001FA02F340EA030021FA04F36E
S315080087C045EA030130BDC4F10C04C4F1200220FAC5
S315080087D002F001FA04F340EA0300294630BD21FA03
S315080087E004F0294630BD94F0000F83F4801306BFC9
S315080087F081F480110134013D4EE77FEA645C18BFBD
S315080088007FEA655C29D094EA050F08BF90EA020F53
S3150800881005D054EA000C04BF1946104630BD91EA4B
S31508008820030F1EBF0021002030BD5FEA545C05D14E
S315080088304000494128BF41F0004130BD14F580048D
S315080088403CBF01F5801130BD01F0004545F0FE4101
S3150800885041F470014FF0000030BD7FEA645C1ABF36
S31508008860194610467FEA655C1CBF0B46024650EA6D
S31508008870013406BF52EA033591EA030F41F4002199
S3150800888030BD00BF90F0000F04BF0021704730B51F
S315080088904FF4806404F132044FF000054FF00001F4
S315080088A050E700BF90F0000F04BF0021704730B5B5
S315080088B04FF4806404F1320410F0004548BF40428A
S315080088C04FF000013EE700BF42004FEAE2014FEADF
S315080088D031014FEA02701FBF12F07F4393F07F4FBA
S315080088E081F06051704732F07F4208BF704793F0BD
S315080088F07F4F04BF41F40021704730B54FF46074D0
S3150800890001F0004521F000411CE700BF50EA0102D2
S3150800891008BF704730B54FF000050AE050EA01027B
S3150800892008BF704730B511F0004502D5404261EBEB
S3150800893041014FF4806404F132045FEA915C3FF42C
S31508008940D8AE4FF003025FEADC0C18BF03325FEAC9
S31508008950DC0C18BF033202EBDC02C2F1200300FA7A
S3150800896003FC20FA02F001FA03FE40EA0E0021FA9F
S3150800897002F11444BDE600BF70B54FF0FF0C4CF48D
S31508008980E06C1CEA11541DBF1CEA135594EA0C0F3F
S3150800899095EA0C0F00F0DEF82C4481EA030621EA7A
S315080089A04C5123EA4C5350EA013518BF52EA0335B5
S315080089B041F4801143F4801338D0A0FB02CE4FF067
S315080089C00005E1FB02E506F00042E0FB03E54FF097
S315080089D00006E1FB03569CF0000F18BF4EF0010E8F
S315080089E0A4F1FF04B6F5007F64F5407404D25FEA8B
S315080089F04E0E6D4146EB060642EAC62141EA55513E
S31508008A004FEAC52040EA5E504FEACE2EB4F1FD0C7F
S31508008A1088BFBCF5E06F1ED8BEF1004F08BF5FEAFD
S31508008A20500E50F1000041EB045170BD06F00046AF
S31508008A3046EA010140EA020081EA0301B4EB5C045C
S31508008A40C2BFD4EB0C0541EA045170BD41F4801154
S31508008A504FF0000E013C00F3AB8014F1360FDEBF79
S31508008A60002001F0004170BDC4F10004203C35DA55
S31508008A700C341BDC04F11404C4F1200500FA05F3D8
S31508008A8020FA04F001FA05F240EA020001F0004279
S31508008A9021F0004110EBD37021FA04F642EB0601EF
S31508008AA05EEA430E08BF20EAD37070BDC4F10C0419
S31508008AB0C4F1200500FA04F320FA05F001FA04F2DD
S31508008AC040EA020001F0004110EBD37041F10001C9
S31508008AD05EEA430E08BF20EAD37070BDC4F12005D4
S31508008AE000FA05F24EEA020E20FA04F301FA05F23C
S31508008AF043EA020321FA04F001F0004121FA04F2E4
S31508008B0020EA020000EBD3705EEA430E08BF20EAB3
S31508008B10D37070BD94F0000F0FD101F000464000ED
S31508008B2041EB010111F4801F08BF013CF7D041EA6F
S31508008B30060195F0000F18BF704703F00046520073
S31508008B4043EB030313F4801F08BF013DF7D043EA44
S31508008B500603704794EA0C0F0CEA135518BF95EAFA
S31508008B600C0F0CD050EA410618BF52EA4306D1D181
S31508008B7081EA030101F000414FF0000070BD50EAA0
S31508008B80410606BF1046194652EA430619D094EA2A
S31508008B900C0F02D150EA013613D195EA0C0F05D114
S31508008BA052EA03361CBF104619460AD181EA030168
S31508008BB001F0004141F0FE4141F470014FF0000020
S31508008BC070BD41F0FE4141F4780170BD70B54FF0BB
S31508008BD0FF0C4CF4E06C1CEA11541DBF1CEA13553B
S31508008BE094EA0C0F95EA0C0F00F0A7F8A4EB05041D
S31508008BF081EA030E52EA03354FEA013100F0888014
S31508008C004FEA03334FF0805545EA131343EA1263DC
S31508008C104FEA022245EA111545EA10654FEA002691
S31508008C200EF000419D4208BF964244F1FD0404F54A
S31508008C30407402D25B084FEA3202B61A65EB0305A6
S31508008C405B084FEA32024FF480104FF4002CB6EB63
S31508008C50020E75EB030E22BFB61A754640EA0C00E3
S31508008C605B084FEA3202B6EB020E75EB030E22BF23
S31508008C70B61A754640EA5C005B084FEA3202B6EB64
S31508008C80020E75EB030E22BFB61A754640EA9C0023
S31508008C905B084FEA3202B6EB020E75EB030E22BFF3
S31508008CA0B61A754640EADC0055EA060E18D04FEAB1
S31508008CB0051545EA16754FEA06164FEAC30343EA51
S31508008CC052734FEAC2025FEA1C1CC0D111F4801F1E
S31508008CD00BD141EA00014FF000004FF0004CB6E717
S31508008CE011F4801F04BF01430020B4F1FD0C88BFB6
S31508008CF0BCF5E06F3FF6AFAEB5EB030C04BFB6EBC1
S31508008D00020C5FEA500C50F1000041EB045170BDB3
S31508008D100EF0004E4EEA113114EB5C04C2BFD4EBE0
S31508008D200C0541EA045170BD41F480114FF0000E64
S31508008D30013C90E645EA060E8DE60CEA135594EAE0
S31508008D400C0F08BF95EA0C0F3FF43BAF94EA0C0FE3
S31508008D500AD150EA01347FF434AF95EA0C0F7FF458
S31508008D6025AF104619462CE795EA0C0F06D152EAAC
S31508008D7003353FF4FDAE1046194622E750EA410690
S31508008D8018BF52EA43067FF4C5AE50EA41047FF4A1
S31508008D900DAF52EA43057FF4EBAE12E74FF0FF3C06
S31508008DA006E000BF4FF0010C02E000BF4FF0010CD7
S31508008DB04DF804CD4FEA410C7FEA6C5C4FEA430C50
S31508008DC018BF7FEA6C5C1BD001B050EA410C0CBF9F
S31508008DD052EA430C91EA030F02BF90EA020F002001
S31508008DE0704710F1000F91EA030F58BF994208BF68
S31508008DF090422CBFD8176FEAE37040F00100704725
S31508008E004FEA410C7FEA6C5C02D150EA013C07D17B
S31508008E104FEA430C7FEA6C5CD6D152EA033CD3D0C6
S31508008E205DF8040B704700BF8446104662468C46C0
S31508008E301946634600E000BF01B5FFF7B7FF0028F3
S31508008E4048BF10F1000F01BD4DF808EDFFF7F4FF1C
S31508008E500CBF012000205DF808FB00BF4DF808EDA7
S31508008E60FFF7EAFF34BF012000205DF808FB00BFCA
S31508008E704DF808EDFFF7E0FF94BF012000205DF8EC
S31508008E8008FB00BF4DF808EDFFF7CEFF94BF0120A1
S31508008E9000205DF808FB00BF4DF808EDFFF7C4FF9A
S31508008EA034BF012000205DF808FB00BF4FEA410CE3
S31508008EB07FEA6C5C02D150EA013C0AD14FEA430CC6
S31508008EC07FEA6C5C02D152EA033C02D14FF0000003
S31508008ED070474FF0010070474FEA410212F5001241
S31508008EE015D211D56FF47873B3EB625212D94FEAE3
S31508008EF0C12343F0004343EA505311F0004F23FACD
S31508008F0002F018BF404270474FF00000704750EA21
S31508008F10013005D111F0004008BF6FF000407047DE
S31508008F204FF00000704700BF4FEA4102B2F1E0433C
S31508008F3024BFB3F5001CDCF1FE5C0DD901F0004C32
S31508008F404FEAC0024CEA5070B2F1004F40EB830082
S31508008F5008BF20F00100704711F0804F21D113F1AE
S31508008F603872BCBF01F00040704741F480114FEAE7
S31508008F705252C2F11802C2F1200C10FA0CF320FA70
S31508008F8002F018BF40F001004FEAC1234FEAD3238D
S31508008F9003FA0CFC40EA0C0023FA02F34FEA4303F7
S31508008FA0CCE77FEA625307D150EA01331EBF4FF080
S31508008FB0FE4040F44000704701F0004040F0FE409B
S31508008FC040F40000704700BF80F0004002E000BF98
S31508008FD081F0004142001FBF5FEA410392EA030F96
S31508008FE07FEA226C7FEA236C6AD04FEA1262D2EBE0
S31508008FF01363C1BFD218414048404140B8BF5B42E5
S31508009000192B88BF704710F0004F40F4000020F07D
S315080090107F4018BF404211F0004F41F4000121F093
S315080090207F4118BF494292EA030F3FD0A2F10102DD
S3150800903041FA03FC10EB0C00C3F1200301FA03F11B
S3150800904000F0004302D5494260EB4000B0F5000F3E
S3150800905013D3B0F1807F06D340084FEA310102F1FD
S315080090600102FE2A51D2B1F1004F40EBC25008BFAF
S3150800907020F0010040EA03007047490040EB000079
S31508009080013A28BFB0F5000FEDD2B0FA80FCACF17A
S31508009090080CB2EB0C0200FA0CF0AABF00EBC250A7
S315080090A052421843BCBFD0401843704792F0000F95
S315080090B081F4000106BF80F400000132013BB5E7E8
S315080090C04FEA41037FEA226C18BF7FEA236C21D05E
S315080090D092EA030F04D092F0000F08BF08467047C3
S315080090E090EA010F1CBF0020704712F07F4F04D191
S315080090F0400028BF40F00040704712F100723CBFA4
S3150800910000F50000704700F0004343F0FE4040F4CD
S31508009110000070477FEA226216BF08467FEA23638B
S315080091200146420206BF5FEA412390EA010F40F476
S31508009130800070474FF0000304E000BF10F00043C2
S3150800914048BF40425FEA000C08BF704743F09643A9
S3150800915001464FF000001CE050EA010208BF7047C4
S315080091604FF000030AE000BF50EA010208BF70474B
S3150800917011F0004302D5404261EB41015FEA010C60
S3150800918002BF84460146002043F0B64308BFA3F158
S315080091908053A3F50003BCFA8CF2083AA3EBC2533A
S315080091A010DB01FA02FC634400FA02FCC2F1200259
S315080091B0BCF1004F20FA02F243EB020008BF20F090
S315080091C00100704702F1200201FA02FCC2F12002F6
S315080091D050EA4C0021FA02F243EB020008BF20EAEB
S315080091E0DC7070477BB972B90029BEBF00204FF00A
S315080091F0004106E008BF00281CBF6FF000414FF091
S31508009200FF3000F057B8ADF1080C6DE904CE00291F
S3150800921009DB002B1ADB78F01DF9DDF804E0DDE93F
S31508009220022304B07047404261EB4101002B1BDB6F
S3150800923078F010F9DDF804E0DDE9022304B04042D5
S3150800924061EB4101524263EB43037047524263EBC1
S31508009250430378F0FFF8DDF804E0DDE9022304B003
S31508009260404261EB41017047524263EB430378F099
S31508009270F1F8DDF804E0DDE9022304B0524263EBBD
S315080092804303704753B94AB9002908BF00281CBFD1
S315080092904FF0FF314FF0FF3000F00CB8ADF1080C7D
S315080092A06DE904CE78F0D6F8DDF804E0DDE90223AE
S315080092B004B07047704700BF2DE9F04F2DED108AB6
S315080092C0C1F80CD0C3689D46BDEC108ABDE8F08F86
S315080092D005F010FE002383F311882846A0470020D6
S315080092E007F0F6F8FEE705F099FF07F069F805F0CC
S315080092F001FE00DFFEE710F8012B11F8013B012AF9
S3150800930028BF9A42F7D0D01A7047034613F8012BA4
S31508009310002AFBD1181A0138704700000000000027
S3150800932070B586B00C4611461A46114B0093054691
S3150800933074B1631ECDE9010300266846CDE90366CC
S315080093400AF050FD039BA34200D2EE5406B070BD4E
S315080093509FED057B019068468DED027B04940AF02B
S3150800936041FD06B070BD00BF00000000000000000F
S31508009370F8200808000000002DE9F04759EC108B8A
S315080093803D4B002240464946FFF77CFD002867D042
S3150800939035A5D5E90045384F4FF0000A00260CE000
S315080093A0FFF714FC8046894632463B464046494606
S315080093B00AF1050AFFF766FDE8B1494622462B463B
S315080093C04046FFF75FFD844622462B4640464946FF
S315080093D0BCF1000FE4D132463B46FFF7F7FB804667
S315080093E0894632463B46404649460AF1010AFFF796
S315080093F049FD0028E1D1214B002240464946FFF7A6
S315080094002DFD50B31AA5D5E9004517A7D7E900677A
S315080094100CE0FFF7B1FAAAF1050A80468946174B10
S31508009420002240464946FFF719FDB0B14946224693
S315080094302B464046FFF712FD844632463B464046D9
S315080094404946BCF1000FE4D10B4B0022FFF794FA12
S315080094500AF1FF3A80468946E1E75046BDE8F087BB
S315080094608246C8E7AFF3008000000000006AF840B3
S3150800947000000080B5F8E43E000024400000F03FFC
S315080094802DE9F047B0F1000A2D4D4FF0000426DD16
S3150800949029A7D7E90067DFF8AC904FF00008BAF1C2
S315080094A0040F2046294632463B460CDDFFF764FA90
S315080094B0AAF1050A04460D46BAF1000FEFD145ECAC
S315080094C0104BBDE8F08742464B46FFF755FA0AF1BE
S315080094D0FF3A04460D46BAF1000FE0D1EFE7EED0A9
S315080094E015A7D7E900671AF1040FDFF858904FF06F
S315080094F000082046294632463B460FDAFFF766FB48
S315080095000AF1050A04460D46BAF1000FD7D01AF13A
S31508009510040F2046294632463B46EFDB42464B4679
S31508009520FFF754FB0AF1010A04460D46BAF1000F8B
S31508009530EDD1C4E7AFF3008000000000006AF840F0
S315080095400000F03F0000244070B5C66984B00446A8
S3150800955030460D4612F028FC204612F017F9204630
S3150800956012F062F99FED087B034629463046072428
S315080095706A468DED027B8DF80040019312F0A0FC3F
S3150800958004B070BDAFF30080FFFFFFFFFFFFFFFFD2
S315080095902DE9F04FC768C669D0F804802DED028B17
S315080095A0282F87B004460D4672D040F223139F42F7
S315080095B040F0858012F00CFF9FED438B4FF0070AB1
S315080095C04FF00809E3683A2B14D008DD5B2B51D01D
S315080095D05A2B40DC07B0BDEC028BBDE8F08F282B78
S315080095E03ED02E2BF6D129462046FFF7ADFFE3687D
S315080095F03A2BEAD1204612F0C9F8204612F014F99F
S315080096002946039030468DED048B8DF808A012F09C
S31508009610A9FB2B78D5F804B0082B4BD096F83470F4
S315080096206F600221304685F8009011F045F9BA1CA2
S3150800963002A986F834205B4600913A461421304642
S3150800964012F0CCFB9DF80830082B0DD10399304653
S3150800965072F058FB08E07B2B02D0B3F5927FB9D1A4
S315080096602946304612F060FB42462946204613F04A
S3150800967007FDA7E72946304612F096FB02A92046C1
S3150800968012F086FD02AA2946304612F019FC99E71F
S3150800969012F07CF829460022204614F005F92046E7
S315080096A043463A46292112F095F8E069294612F010
S315080096B04BF981E75946304672F024FBAEE7044978
S315080096C011F092F8AFF30080FFFFFFFFFFFFFFFFE7
S315080096D0E02E0808000000000F4B03F5BA5C03F5FE
S315080096E0805200219FED0A7B6346CCF8001002F2F7
S315080096F04C7C002083ED047BC2F83C07C2F848077F
S31508009700CCF80010C2F85807704700BFAFF30080C6
S31508009710000000000000000000000010000000002B
S3150800972030B5012285B00C21044610F01DFAE0B1CF
S315080097309FED117B0246124B043280ED017B0260DD
S315080097400FCB6D4685E80F000E4B0F491A68204669
S315080097500DF066FC0022294620461FF0D1FF204660
S3150800976070F014F8012005B030BD20460DF006FC57
S31508009770012005B030BD00BF00000000000000F069
S31508009780B01C080854AC0020D8B9F0FF000000004F
S3150800979010B590F8E03090F8DCC0174C83F0010360
S315080097A063F3000C80F8DCC04FF48C62002120467D
S315080097B077F0CBFF4FF4F072002104F2644077F0A3
S315080097C0C4FF0E4B9FED0A7B03F54E5203F540533B
S315080097D082ED067B03F6AC6003F56B62002100247C
S315080097E0C3F868480160116010BD00BFAFF3008080
S315080097F000000000000000F008340010000000100F
S315080098009FED116BD0ED0F7A80ED030AB5EEC00A15
S315080098100123F1EE10FA80ED066BC0ED097A80EDB2
S315080098200F0A03720BD9DFED0A6A86EE807AF5EE27
S31508009830407AF1EE10FA80ED0A7A03D07047054BAC
S31508009840836270476AF0F0BA00000000000000006A
S31508009850ABC222480000C07FD0B5554C554E0027F4
S31508009860204632463B463F2171F048FF04F1280066
S3150800987032463B46402171F041FF04F15000324622
S315080098803B46412171F03AFF04F1780032463B46E7
S31508009890422171F033FF04F1A00032463B464321D2
S315080098A071F02CFF04F1C80032463B46442171F0A2
S315080098B025FF04F1F00032463B46452171F01EFFB4
S315080098C004F58C7032463B46462171F017FF3A4B39
S315080098D03A49196047201871482083F8240049201E
S315080098E083F844004A209FED2E6B9FED2F7B83F86B
S315080098F064004B2083F884004C20002283F8A400DF
S315080099004D244E2083ED046B83ED0C6B83ED146BB5
S3150800991083ED1C6B83ED246B83ED067B83ED0E7B59
S3150800992083ED167B83ED1E7B83ED267B1A721A73F5
S31508009930196283F8282083F82C20196483F84820B4
S3150800994083F84C20196683F8682083F86C20C3F8DE
S31508009950801083F8882083F88C20C3F8A01083F839
S31508009960A82083F8C44083F8E40083ED2C6B83EDCC
S315080099702E7B83ED346B83ED3C6B83ED367B83ED79
S315080099803E7B83F8AC20C3F8C010C3F8E01083F818
S31508009990C82083F8CC2083F8E82083F8EC20D0BDD3
S315080099A0002D31010000000000000000000000004A
S315080099B090230020400D0300F81A002024330A08DB
S315080099C02DE9F04F2DED048B544891B0FEF730FD8C
S315080099D020B111B0BDEC048BBDE8F08F01255049CC
S315080099E000950346462204464E4843F05FFF4E481C
S315080099F0046141F08FFE4D4B4D4A1B6813801B0CCA
S31508009A0093704C4B9D6301F093FC5EF031F84A4924
S31508009A104A4844F04BFB4A494A4844F043FB4A4902
S31508009A204A4844F03FFB4A494A4844F03BFB4A4906
S31508009A304A4844F037FB4A4B1D78002D40F06481B4
S31508009A40484E494843F012F931222946474877F0EB
S31508009A507CFE96F8750162F0FDFE96F8880562F0C0
S31508009A60F9FE96F8DB0262F0F5FE4149414844F0FA
S31508009A701DFB414870F056FE404870F053FE404AC0
S31508009A804048536843F40003536070F04BFE3E4869
S31508009A9090F83C33002B00F042833C4B9A689B6C51
S31508009AA05380202383F3118805F0B8FB384B1A78C6
S31508009AB0511E012900F21B8336495960012A1DD11E
S31508009AC0354A3648116C41F010011164116E41F0A7
S31508009AD010011166116E116A41F010011162116AC6
S31508009AE021F0100111622E49126A98604FF4800223
S31508009AF0702381F83633C1F884214A60244E2548FC
S31508009B00B1680268B1FBF2F3013B9BB203FB022288
S31508009B10914200F00C83234805F0FEF9581A0020FC
S31508009B20C4250A080CA30020A0AE0120D8250A08DF
S31508009B304091012048380020B57A0608DC250A0835
S31508009B4029550608E8250A08F1510508FC250A08DA
S31508009B50A54B050808260A08055505081C260A08FF
S31508009B60FD1B02202868001034260A0854850120A7
S31508009B70C1CE04084C260A08449B0020209B0020DE
S31508009B8000230140FC9A0020F8650020C02E012021
S31508009B90C4990020CC1800200038024000BD0105F9
S31508009BA000E100E03C340A08B3F5AA7FC1F045801D
S31508009BB07BB9AE4BAE49AF4AAF48C3E902214FF471
S31508009BC0A271102219805A60AC4900221A6144F029
S31508009BD069FAA64F264646B93B8833B1B868036882
S31508009BE01B689847031EC1F2C6820026A44FDFF8F9
S31508009BF0BC830096BA8FA3493346404643F056FEC7
S31508009C000096B7F8D422A0493346A8F5867043F0E3
S31508009C104DFE00963346B7F842239C49A8F5D47002
S31508009C2043F044FE9A499B4844F03CFA9A4B1E700E
S31508009C3097F88535D90703D497F88435DB0948D0D2
S31508009C40DFF83C82B8F83E10B8F8400042F0DEF97A
S31508009C50B8F884160746B8F8860642F0D7F90646D5
S31508009C60002F01F08F80874201F0F58298F8703650
S31508009C70062B96BF894A8A4B52F82330804A1868C1
S31508009C8092F878265968520608AB03C302D501F143
S31508009C900043099308A9384606F022FB002E41F036
S31508009CA07480804BC3E90076754B93F88535DB07DE
S31508009CB006D5DFF8FC8298F8AC33002B01F0D58284
S31508009CC06F4B93F88435DB0941F0B381724B01225F
S31508009CD01A70754B1B7853B9694BB3F8E8023EF016
S31508009CE077F8002801F07B81704838F029FD644B2D
S31508009CF093F8F863F60941F0B4803EF05BFD3EF058
S31508009D006DFD6B4842F0B2FF6A496B4844F0D2F9E0
S31508009D106A496B4844F0CAF9594B93F84823120725
S31508009D2000F1D081604B197879B9554B65481B8984
S31508009D30692B9CBF644A52F8231042F097FF50F0F3
S31508009D40F1FC6249624844F0B1F9624DDFF8648279
S31508009D5005F580674FF0FF362946324640462035DE
S31508009D6008F0ACFCAF42F7D15B485C4944F0A2F975
S31508009D705B4800F5805595F8AC31002B00F0C5819D
S31508009D8058495948594D44F099F95949594844F0A0
S31508009D9089F95949594844F085F995F85C36002BF4
S31508009DA000F0A881564B5A68002A00F0BB815BF088
S31508009DB061FC00283FF40DAE5249534844F072F94D
S31508009DC05249534844F06EF95249534844F07AF9D7
S31508009DD05249534844F06EF95249534844F06AF9D7
S31508009DE05249534844F066F95249534844F06EF9CB
S31508009DF05249534844F05AF95249534844F056F9DF
S31508009E005249534844F052F95249534844F04EF9DE
S31508009E105249534844F04EF930F0C4FD514859F0C0
S31508009E20B1F8514B5149524801221A6044F03AF9A7
S31508009E305049514844F036F9504A514805216DF0C9
S31508009E4071FE5049504844F02DF95049504844F0A5
S31508009E502DF95049504844F029F95049504844F0E2
S31508009E602DF95049504844F029F9A5E0243001203D
S31508009E7094260A08609400209C260A08F1C706085A
S31508009E8028680010C4260A08CC260A08D8260A0814
S31508009E90CDC80608E4260A08141C022004340A0859
S31508009EA020340A0838910120FD1B0220683300106F
S31508009EB078270A08193606082C260A08513A060889
S31508009EC098A7090890270A08E4DA0808E98E050819
S31508009ED01C3C0A08986F0020A4270A085D2F020870
S31508009EE098730020214D0208E03E0808508500209E
S31508009EF0752F0208B4270A08F53E0208C0270A0883
S31508009F008838002065490608CC270A080D4906083E
S31508009F10D8270A08994B0608E4270A08B94A060802
S31508009F20F0270A08714A0608F8270A08954A060813
S31508009F3004280A08DD4A060810280A08E147060820
S31508009F4018280A08BD47060824280A0841470608AB
S31508009F502C280A086547060838280A088947060883
S31508009F6044280A08582A001058910120F5E10508E6
S31508009F704C280A08610206086C280A0815E2050832
S31508009F8078280A0875E8050890280A08410406088A
S31508009F909C280A0849040608A8280A0865E8050846
S31508009FA0B4280A086DE80508E49109083CA40020CD
S31508009FB060CE001004AB00207749784844F082F858
S31508009FC07749784844F07AF87749784844F07AF837
S31508009FD07749784844F076F87749784844F072F833
S31508009FE07749784844F062F87749784844F066F843
S31508009FF07749784844F062F87749784844F05EF83B
S3150800A0007749784844F05AF87749784844F056F83A
S3150800A0107749784844F046F87749784844F04EF846
S3150800A0207749784844F03EF87749784844F04AF842
S3150800A0307749784844F046F8774B1B78002B00F0B0
S3150800A0400582764C7649012500234822204600954C
S3150800A05043F02CFC002347227249009504F10C00BA
S3150800A06043F024FC704B6C4A93F891351278DB0761
S3150800A07000F1EB85684B1B780BBB6C48036141F01C
S3150800A08049FB694BB3F82C4520463DF0A1FE38B193
S3150800A0909FED670A674B6849684822466DF024FBBE
S3150800A0A0614BB3F83C4520463DF092FE38B19FED32
S3150800A0B0600A634B6049634822466DF015FB34F02D
S3150800A0C0B7FE86E493F86327002A3FF42BAE988FF1
S3150800A0D03DF07EFE00283FF425AE002200925A4B42
S3150800A0E05A487F224FF4CA6107F012FC1AE658480C
S3150800A0F004F012FF0123D5F8581685F85C36284671
S3150800A1003CF0B4FEC5F860064CE60123D5F8A81164
S3150800A11085F8AC3119F0B6FEC5F8B00130E63DF069
S3150800A120E7FCBAE44B4A1168596013603FE6D0E988
S3150800A1300201F26821F0FF01002717605060936260
S3150800A14017610223D160337004F07EFF202383F366
S3150800A150118805F063F805F02DFB3378022B40F0E3
S3150800A1606985032372683370F36852680921D962D6
S3150800A170012159615F621F6112B1DA680A43DA6028
S3150800A18085221A6004F060FF33493448344E43F0A0
S3150800A1908DFF012769E000BFE5E90508D026090813
S3150800A1A079E80508DC41080805E30508BC280A081B
S3150800A1B051E30508D0280A089DE30508E8280A0897
S3150800A1C069D1030804290A08F5E205080C290A08D2
S3150800A1D0E5E2050820290A08E1E4050830290A0805
S3150800A1E0E9E4050840290A0835E4050850290A085B
S3150800A1F09DDB050858290A08F1E4050864290A08B8
S3150800A20045CE04087C290A086D13060888290A0819
S3150800A210E9E30508A0290A08FD1B022018A3002067
S3150800A220842C0A08982C0A08286800107CAF01209C
S3150800A23000401C460C190020B82C0A08E84C0020DF
S3150800A24018190020604D0020451C050848690020A3
S3150800A2504C340A08FC17002041CD040858260A0881
S3150800A26030850120384606F05BF93368012BF9D9A9
S3150800A270694B93F8F923170778D5D3ED747ADFED90
S3150800A280676A9FED676A93F884359FED660A67EEFD
S3150800A290A67AB6EE007A67EE877A180786EE277AE8
S3150800A2A0614BDFED626AD3ED007A9FED616A27EEB6
S3150800A2B0267AF4EEC67A48BF37EE077AF1EE10FA38
S3150800A2C0D8BFF0EE477AF0EE046A27EEA67AB4EE27
S3150800A2D0C07AF1EE10FA00F338879FED507A554BA5
S3150800A2E067EE877A002287EE800A65F081F85A6061
S3150800A2F0B0EE087AC0EE076AF7EE004A36EEA45AC0
S3150800A300BFEE007AA0EE005A74EEE65A84EE856A2D
S3150800A310A0EE007AE0EE005A37EE077A66EE866A15
S3150800A32067EE067A26EE256AB1EE667AC3ED006A0E
S3150800A33083ED027AC3ED037A83ED046A364B93F80C
S3150800A34043365907C3F3800600F18B863A48032241
S3150800A350562142F0BFFD39480322572142F0BAFD83
S3150800A360374890F83C33002B00F001872A4B93F8C6
S3150800A3704833DE0700F1DB85274B93F848339A0705
S3150800A38000F1D085244B93F848335B0700F1C58567
S3150800A390214B93F84B33DF0700F1BA851E4B93F830
S3150800A3A041361E0700F1AF851B4B93F84136D80698
S3150800A3B000F1A485184B93F8483F002B3FF409ACED
S3150800A3C0204E0F335B010022C6E9232306F1A800BD
S3150800A3D00123142286F8A330C6F8942042F000F927
S3150800A3E0B369002B00F0F485174A1388516819449D
S3150800A3F089B222460120002A7FF4DAAB002B3FF40B
S3150800A400D8ABB3F5A27FBFF4CFABB1F5A27F0246B6
S3150800A410F1D9FFF7DEBB00BF28680010DB0F494003
S3150800A42000006144809F5548C477001000007A44B4
S3150800A4300AD7233C946E01207C260A0888260A0837
S3150800A440B06200206094002024300120BC49BD4839
S3150800A45043F028FEBC4ABD4805216DF063FBBC4AA3
S3150800A460BC4810216DF05EFBBB4ABC4811216DF05B
S3150800A47059FBBB4ABB4810216DF054FBBA4ABB488E
S3150800A48011216DF04FFBBA4ABA4811216DF04AFB0B
S3150800A490B949BA4843F006FEB949BA4843F002FE3C
S3150800A4A0B949BA4843F0FEFDB94ABA4805216DF0E4
S3150800A4B039FBB949B94843F0F5FDB949B94843F0FC
S3150800A4C0F1FDB949B94843F0F1FDB949B94843F036
S3150800A4D0E9FDB949B94843F0E5FDB949B94843F03A
S3150800A4E0E1FDB949B94843F0E1FDB948B94A112136
S3150800A4F06DF018FBB84890F83C33002B00F0288420
S3150800A500B64EA6F5B86558F05BFFB548314642F039
S3150800A51077FAB5F8C6023DF05BFC68B105F5DB6372
S3150800A52093ED000ADFEDAF0AAF4AB049B048B8EE7E
S3150800A530C00A00236DF012F8AE4BB3F9E020B3F968
S3150800A5404C10914201DAA3F84C20AB4BAB4FAC4D03
S3150800A550AC4EDFF8A0927B6003F14001B96003F1CD
S3150800A5605001F96095F83919DFF800B34FF07E52BB
S3150800A5704FF014084FF4F56ABA613A617A61B2612C
S3150800A5803261726118FB01A103F16002494405F6C4
S3150800A5903C10726003F1A002B033B260F36042F07F
S3150800A5A02FFA95F88919C5F86C7918FB01A1494461
S3150800A5B005F68C10C5F870B942F022FA95F8D91943
S3150800A5C0C5F8BC6918FB01A10BF17803494405F6E7
S3150800A5D0DC10C5F8C03942F013FA95F8293AC5F8DF
S3150800A5E00C7A18FB03A149440BF1F00305F62C205D
S3150800A5F0C5F8103A42F004FA0BF5B473C5F8603A98
S3150800A600C5F85C6A55F0BEF899F8F833590600F1B2
S3150800A61092837D4838F094F87C4838F091F87C4865
S3150800A62038F08EF87B4838F08BF801205CF044FC53
S3150800A630704B93F84B23920640F11D8393F88525BA
S3150800A640D70704D593F88435DB0940F09D85724910
S3150800A65040F25E2056F0FEF9664D95F841369E06A4
S3150800A66040F11C8395F88435DB0940F075836B4906
S3150800A67040F25E2056F0EEF9212038F035F948B957
S3150800A6805C4B674DB3F87683B3F87873AB68002BE9
S3150800A69000F08285574B93F81A124B1E2F2B0AD8B7
S3150800A6A0604CDFED500A9FED600A204642F05CFCE4
S3150800A6B0204638F045F84F4D5C4995F832025C4F14
S3150800A6C05DF0BAF895F840035A495DF0B5F85CF0C4
S3150800A6D0CDFB05F65656002405F6875515F8012FC5
S3150800A6E036F8021F0134384642F0F4FB082CF5D13F
S3150800A6F05149524843F0E6FC5149524843F0D2FCCE
S3150800A7005149524843F0CEFC5149524843F0CEFCD9
S3150800A710384B93F891355C0600F164834E494F48EF
S3150800A72043F0C0FC4E4B93F827201AB94D4A1168DE
S3150800A730D96213604A4E4C4CB4614EF6602297E0DB
S3150800A740DDF50508B4290A0885F50508C4290A08A7
S3150800A7506D300608D4290A084D300608E0290A088B
S3150800A76021310608EC290A0801310608F8290A08E1
S3150800A7709D310608042A0A08E9F50508102A0A0878
S3150800A78071F40508202A0A087DF405082C2A0A0807
S3150800A79019F40508382A0A0845F60508442A0A0855
S3150800A7A03DDD0508542A0A08993B0608642A0A0862
S3150800A7B029F50508782A0A08D9F40508882A0A080E
S3150800A7C099F60508942A0A0849DD0508A02A0A0800
S3150800A7D0AC2A0A082932060810910020E86D0010F4
S3150800A7E0A80A001000000000B0A30020B82A0A0832
S3150800A7F0F843002028680010BC9D00105CAF0120BB
S3150800A800001000103CAF012014AF012004AF012056
S3150800A810F4AE0120E4AE0120CC2A0A08042B0A086B
S3150800A8200495012088900020CDCC4C3DE89000206E
S3150800A830402B0A08C0900020554F06084C2B0A08E2
S3150800A840995704085C2B0A08D5760408702B0A0861
S3150800A8500D4A0608802B0A083166040858AC080811
S3150800A860D84D0020B4B10020B26D0010F849002080
S3150800A8700023C6E90223304604F22A630025336220
S3150800A88086F8265042F0E6FBB14BB24A5A600121DF
S3150800A89002F5807286F827109A604FF07E562032AD
S3150800A8A0AD489E6129461E615E61DA6034F0ECF9B6
S3150800A8B0AA4BAB4AAB48AC495A6002F580729A601B
S3150800A8C04160103201F58071DA608160A74A9E61A5
S3150800A8D01031C1601031516040311E615E61916076
S3150800A8E0A34B9661103116615661D16001F1600281
S3150800A8F01031C3E901128661066146619E611E61D7
S3150800A9005E6101F160029B4EDFF80CB3DFF80C9331
S3150800A910DA60A4F28A54B4F8F07938463DF058FA69
S3150800A920002838D0B4F8F439934902933A460C27EC
S3150800A93007EE903A07FB05B73846B8EE678A43F044
S3150800A9405DF8029B4FF0780AB3F100080AFB059AF6
S3150800A95018BF4FF00108002B40F08081874B53F851
S3150800A960253004F61A225A604FF07C529A6104F692
S3150800A970FA129A604FF080421A6104F60A22DA60E7
S3150800A9804FF07E525A61C6E903A7736104F51F6347
S3150800A99086F8088073600135042D04F16C0406F10D
S3150800A9A01806B8D1764C774D94F86C3404F2A45056
S3150800A9B0002223F0070305F69411A5F8142684F857
S3150800A9C06C3442F01DF895F8C9306F4DD8064CBF67
S3150800A9D004F5996004F592606C4C294642F010F82B
S3150800A9E0204630F0E7FF52F091FEA4F5BB62002145
S3150800A9F082F86014A4F5BA72654B1360A5F5C165B3
S3150800AA00A4F5A87263486449136043F04BFB95F8B4
S3150800AA10C930D9064CBFA4F58870A4F5A470594C62
S3150800AA2004F5C16104F5C26304F20C620D68196885
S3150800AA30C36A12685A6002681D6052689960904736
S3150800AA405649574843F02EFB564B1B78002B36D1F8
S3150800AA504B4B554A55485649564D574EC3E9F2028F
S3150800AA60564843F01FFB5649564843F01BFB5649C8
S3150800AA70564A574B56604FF07E5088610861906180
S3150800AA801061186104F6D810C860524848615248E7
S3150800AA909861524898600630D86004F67860486035
S3150800AAA004F6E410886004F5AB544D49556100F688
S3150800AAB06C305D61D4609060596052F01FFC314B78
S3150800AAC093F890359A0600F15A8152F06BFD454984
S3150800AAD0454820F0D3FB454B4549A3F6B8624FF0ED
S3150800AAE07E54B2F84600434A4B60A3F59C65A3F230
S3150800AAF0D4468C6124330C61946114613E4CCD605C
S3150800AB00C2E90136D560334B8E6000254B6153612F
S3150800AB1025703DF05DF958B12B46DFED380A9FEDFB
S3150800AB20380A384A384939486CF018FD0123237029
S3150800AB30144B374CB3F84E0E002525703DF048F9F6
S3150800AB4000283FF47EAA2B469FED2D0A314A67E07E
S3150800AB501CC5002050A80010D81A0010FCA0002020
S3150800AB6090A90010CC9D0020B0AA0010AC9D002032
S3150800AB708C9D00201C950120382C0A0858340A0898
S3150800AB800000001028680010306E0010D80500106C
S3150800AB900000C8C2402C0A08014E05082DD2040838
S3150800ABA04C2C0A08FD1B0220C81F002090200020FC
S3150800ABB03DD505080AD7233C387D0010582C0A08CD
S3150800ABC015550508642C0A08848B0120648B01201E
S3150800ABD0C4AE01200000C842CDCCCC3D08AF001061
S3150800ABE0E4AE00106F861400DCC10020E076001089
S3150800ABF078C5002058C500203A1C0220CDCCCC3D93
S3150800AC000000C07FF0A300206C2C0A08308C0020BE
S3150800AC10391C022030A40020DC180020A88C002053
S3150800AC20C549C648F6EE000A6CF098FC0123237065
S3150800AC30FFF707BAC24804F06FF9B1F5AA7F4FF0DB
S3150800AC4001027FF6D8ABFEF7C4BF002A7FF437AA05
S3150800AC50BC49BD4843F026FAFFF70CBABB4BDFEDFB
S3150800AC60BC0A53F82510B0EE480A00233A46504667
S3150800AC706CF074FC72E693F84832013B2F2B02D82D
S3150800AC80B44837F05DFDB44B93F84932013B2F2B9E
S3150800AC903FF6E2ACB14837F053FDDDE4B049B148C0
S3150800ACA095F8D36243F0FEF9AF49B04843F0FAF994
S3150800ACB030463DF043FDAE4BC3F85803002800F07C
S3150800ACC0E38203F2463603F26F379B4605F5607555
S3150800ACD003F5807A039405E00BF1200BD34505F1C3
S3150800ACE002056DD000234FF0010826F8028F07F8F9
S3150800ACF0013F9BF87C0337F0F7FD04460028EBD1AB
S3150800AD00B5F8009048463DF063F80028E4D0984B23
S3150800AD10494603F55770C3F8604341F0ADF99548C5
S3150800AD204246494642F0D6F82B8833800BF55E70CA
S3150800AD3037F006FDD0E7904858F0D6FB8F4858F014
S3150800AD40D3FB8F4858F0D0FB8E4858F0CDFB60E413
S3150800AD503CF0CEFEFFF7D4BB8B4858F0C5FB8B48BA
S3150800AD6058F0C2FB8A4858F0BFFB8A4858F0BCFB2B
S3150800AD70894858F0B9FB894858F0B6FB7CE457F087
S3150800AD8061FCA2E600283EF4A4AF734B93F8723632
S3150800AD90062B00F24C81824A52F823306E4A186814
S3150800ADA092F878265968D20906AB03C302D001F196
S3150800ADB00043079306A9304605F092FAFEF771BFDD
S3150800ADC06B4D039C95F83C33002B7FF455AC01235F
S3150800ADD0D5F8381385F83C3328463CF037F8C5F8DB
S3150800ADE0400349E46F4B93F8D421002A00F00A8106
S3150800ADF093F8D521002A00F01781D3F8D8310B93A0
S3150800AE009DED0B8A18EE100AFDF75EFD04462246F4
S3150800AE1065480B460D4641F029FFB4EE488AF1EE27
S3150800AE2010FA80F1E380DFED617AB4EEE78AF1EE9D
S3150800AE3010FA00F3DB80DFED5E7AB4EEE78AF1EE16
S3150800AE4010FA00F1D3805B4841F010FF554B40F2F1
S3150800AE500111002283ED648AA3F88C1183F88E21F0
S3150800AE605CE493F8EC29052A00F21382DFE802F085
S3150800AE703639332C034340F2F1134F4900220B8035
S3150800AE804E4B4F481A8037F05BFC4E4837F058FC5B
S3150800AE90314B4D4993F8F8230E7090067EF52DAF89
S3150800AEA093F8EC29052A00F2FB8101A353F822F056
S3150800AEB0E9AE0008E9AE0008E9AE0008FB9C000808
S3150800AEC0E9AE0008FB9C00083B4B4FF421721A8040
S3150800AED040F28522D4E74FF4D073CEE74FF4F873E7
S3150800AEE0CBE74FF40073C8E7384940F66E0055F0D3
S3150800AEF0B1FDFEF702BF40F20933BEE7062042F075
S3150800AF00F7F8FFF757BA052042F0F2F8FFF74CBA00
S3150800AF10042042F0EDF8FFF741BA032042F0E8F8C2
S3150800AF20FFF736BA022042F0E3F8FFF72BBA012002
S3150800AF3042F0DEF8FFF720BA782C0A08B88B002012
S3150800AF4028340A08AD480608AC2C0A08E0340A0872
S3150800AF500000000030AF01202868001024AF01204F
S3150800AF603DD304082C2B0A0891D30408342B0A086D
S3150800AF7030280020489B0808308F0020F88E0020D3
S3150800AF80C08E0020888E002058900020289000202F
S3150800AF90F88F0020C88F0020988F0020688F002027
S3150800AFA004340A08E4AC00208C2B0A080000DC42B2
S3150800AFB000007042C82C0A08FA1B0220F81B02205F
S3150800AFC030950020109500203F1C022038270A08DB
S3150800AFD0B94B1A68B26114361E60FFF705BAB74B4B
S3150800AFE093F86C0370F080FBFEF781BEB4492246E5
S3150800AFF02B4640F6B20055F02FFBB24841F036FE1C
S3150800B000FFF78CBBD3F8DC4174B1236820469B68F4
S3150800B010984748B1236821465B680AA898479DF86F
S3150800B0202830002B7FF4ECAE9FEDA78AEAE6A74B03
S3150800B030B4E6A748C0F8687327B190F83C33002BEC
S3150800B04000F01081A348C0F86863002E3EF43EAEB7
S3150800B05090F83C33002B7EF439AE3CF049FDFEF700
S3150800B06035BE9D4BDFED9D9A9FED9D9ADFF8B4A204
S3150800B0700FCB10AF07E90F004FF0000900279FED2F
S3150800B080998A0DF1300BB84607EE907AF8EEE77A12
S3150800B090FBEC018A77EEA77A08F1010827EEA90AE0
S3150800B0A04F4480EE090A71F04FFEB8F1040FA8EE7E
S3150800B0B0808AE9D109F10109B9F5806FAAEC018AFC
S3150800B0C0DCD1894BDFED876A1868DFED885A9FED7A
S3150800B0D0886ADFF854C205EE104AAE464FF47A671E
S3150800B0E000220CFB02F307EE903AF8EEE77A411CD1
S3150800B0F067EEA57A914237EEC67AB0EEC77ABDEE0C
S3150800B100C77A17EE103A05D1B8EEC57A37EEC77A80
S3150800B110F0EEC76ABB4204DABDEEE75A1F46B646EA
S3150800B12010460132B2F5007FDBD1BEF1000F01D027
S3150800B1306D4B18606F4B15EE101A03F5FA62A3F8FB
S3150800B140CE17C2ED006AFFF701B917EE900AFDF7B0
S3150800B150BBFB02460B46CDE90023674954A3D3E956
S3150800B160002340F25E2055F075FCFFF7E7B83CF087
S3150800B170BFFCFFF7FBB83246604940F25E2055F047
S3150800B18069FC0126FEF727BD5D4858F0ADF95D4814
S3150800B19058F0AAF9FFF760BA40463CF019FE0028B5
S3150800B1A03FF478AA38463CF013FE00283FF472AA0A
S3150800B1B0554E05223046414641F08CFE0522394659
S3150800B1C0304641F087FE40466CF006FD4146286051
S3150800B1D0304640F0A1FB686038466CF0FDFC394605
S3150800B1E003463046AB6040F097FB6A682968E8601A
S3150800B1F0012606FA02F292B20A8306FA00F3AA6850
S3150800B2009BB213830DF113010F23284632468DF89E
S3150800B210133067F017FF32460DF11201284667F022
S3150800B2202BFF9DF81230B12B2BD0BD2B7FF432AA01
S3150800B2304CF220433446354DADF8143028460222E8
S3150800B24005A92C6167F0FEFE012331482B7537F0FE
S3150800B25077FAFFF71FBA2F4940F25E2055F0FAFB3E
S3150800B260FEF737BD3CF044FCECE60123D8F8A813FA
S3150800B27088F8AC3340464BF041FAC8F8B003FEF7FD
S3150800B2801FBD44F21043D6E7234841F0EFFCFFF711
S3150800B290F3B9224940F66E0055F0DCFB2E46F7E579
S3150800B2A01F4940F66E0055F0D5FBFEF726BD00BFD8
S3150800B2B000000000F0B30A41FC170020003000101F
S3150800B2C0BC2B0A08E82B0A0867A6CA4220340A08D3
S3150800B2D0F0CA001080C70010381E0808DB0F494066
S3150800B2E000C07F4400000000806001200000803A12
S3150800B2F000007A45001000105C260A08A8260A08ED
S3150800B300304C0020F04B00203C2B0A080495012005
S3150800B310C04C0020EC260A08549B080818270A087F
S3150800B32060270A08301A01207E5603000000000034
S3150800B3300D480E4AC3680E499FED097B10B40024D8
S3150800B34043611C700830046280F82440094B5DF89C
S3150800B350044B80ED0A7B41F055BC00BFAFF300807B
S3150800B360000000000000000048380020A43D0A083C
S3150800B37074B40808288B090870B5214ED6F8B0357C
S3150800B380D6F84047A6F8B405013382B00546C6F894
S3150800B390B035ACB1002306F5B96001E0A3420FD081
S3150800B3A01A010133815AA942F8D1164C1444204691
S3150800B3B041F016F9144802B0BDE8704041F010B9E2
S3150800B3C004F0A0F9D6F84037104C0190172B0FD887
S3150800B3D003F25C619FED087B04EB011484ED007BAE
S3150800B3E0258101330198C6F8403705F023F8DEE7D2
S3150800B3F0019805F01FF8DDE700000000000000F0E6
S3150800B40000600010C0650010B8650010000000104C
S3150800B4102DE9F04F2DED068B0123DFED5BAA85B0F4
S3150800B4200A24BFEE009AB8EE008AF6EE008A0646AF
S3150800B4301D4629EE08AADFED559A2AEE09AA4FEA13
S3150800B440450B32464FEA051AE800B7EE009A002186
S3150800B450871802F1040990460B46D7ED010A97EDC5
S3150800B460000A69EE207A20EEE97AE9EE807A5B44F2
S3150800B470A9EE007AF4EE477AF1EE10FA58D698ED6E
S3150800B480016A59ED016A36EE676A76EEC76A87ED94
S3150800B490016AC7ED006A98ED016A59ED016A77EE0F
S3150800B4A0867A36EE877AB3F5806F09ED017A5744C6
S3150800B4B0C8ED017AD144D044CFD369EE8A7A2AEE10
S3150800B4C0E97AE9EE2A7AAAEE097AB4EE677AF1EE13
S3150800B4D010FA40D60131A94239EE079A79EEA79AB1
S3150800B4E002F10802B4D1013C1DD05846FDF7CAF94D
S3150800B4F002460B4622A1D1E90001FDF767FBFDF7DD
S3150800B50013FD09EE100A29EE280A70F05FFFB0EE67
S3150800B51040AAB0EE490A70F059FF5D46B0EE4A9A65
S3150800B520F0EE40AA85E705B0BDEC068BBDE8F08FC6
S3150800B530F0EE691AB0EE491ACDE90202CDE90031FA
S3150800B54075F022FEDDE90202DDE90031B0EE407A4F
S3150800B550F0EE607A93E7F0EE6A1AB0EE4A1AF0EE69
S3150800B560690AB0EE490ACDE90102009175F00CFEB0
S3150800B570DDE901020099B0EE407AF0EE607AA9E7BB
S3150800B58000000060FB2109C02EBDBB33000000008F
S3150800B59010B59FED136BDFED147A144CC0ED147AD9
S3150800B5A000234FF0010C836280ED126BC362C0E981
S3150800B5B00833C0E90A33C0E90C33C0E90E33C0E9E1
S3150800B5C01033C0E9033300F10C0E03604371436185
S3150800B5D0C36180F854C0836180F804C0846010BDDC
S3150800B5E000000000000000000000C07FB4400A0808
S3150800B5F09FED0F7B002200B5C0F8A4104FF0000E97
S3150800B6000D49C0F80CE0C0F820E0C0E90422C0E902
S3150800B610062280ED0E7B80ED347B5DF804EB4260FC
S3150800B62082600160426249F029BA00BFAFF3008028
S3150800B63000000000000000F0B4570A0800000000EF
S3150800B64038B59FED216BDFED227A224B0360044665
S3150800B65000250123036480ED0E6BC0E90755C0E998
S3150800B6600955C0ED017AC0ED027AC0ED037AC0ED46
S3150800B670047AC0ED057AC0ED067AC562C0ED0C7A8B
S3150800B68080F8345080F8445085644C306FF03EFEA4
S3150800B690114BA4F8B0504FF0824284ED206B84ED34
S3150800B6A0266B84ED2E6B84F87C50C4F88850C4ED64
S3150800B6B0237AA4F89050C4ED287AC4ED297AC4F800
S3150800B6C0A820C4F8AC3038BD00000000000000F027
S3150800B6D000000000CC570A08CDCCCC3D0000000085
S3150800B6E02DE9F04FC84BC94CC949CA482DED068B00
S3150800B6F0C3F82C44C84C1C600022C84CC3F8344418
S3150800B700C3E90122C64C83F83024C64B0B60C1F846
S3150800B7106446C54BC54C1A708125C1F858566360F6
S3150800B720E360C34DC34B81F85C260026C2492560F9
S3150800B7304FF07047C0E90067C04D0D606420C1E94D
S3150800B7400620086203F1280103F14000C3E902114B
S3150800B7501960586003F1200103F11800C3E90600D7
S3150800B760C3E90811B648B7491A6100F128051A75E0
S3150800B7704FF47A7C0B460560B34FC560C4F808C021
S3150800B78000F11804C0E9064400F1400600F120045F
S3150800B79043F8247BC0E90844C1E902228560466073
S3150800B7A0026102750A7183B0A431FF2043F8102C98
S3150800B7B003F80C2C23F80A2C03F8082C03F8070CBA
S3150800B7C003F8062C10339942F0D1A049A04BA14C9E
S3150800B7D0C3F89C4001F134001425C3F8945058610D
S3150800B7E0002444F620604FF07045C3E92A451960E5
S3150800B7F0C3E9022298491A71C3E90622C3E923223A
S3150800B800C3F89800954B9648964C0860862581F8AB
S3150800B8103C23C1F84823C1F83853C3F83853C1F854
S3150800B820444301259049C3F8485318608F4D83F85F
S3150800B8303C238720C1F8A8030520C3F84443C1E97F
S3150800B840ED508B4B81F8AC239FED698B894A0A60D2
S3150800B850002703F5C0729F6083ED068BDF6083EDDA
S3150800B860088B83ED0A8B1F6083ED0C8B1F6183EDBC
S3150800B8700E8B83ED108B83ED128B83ED148B83ED8A
S3150800B880168B60339342E6D17B4B7C4A1A607C4A1E
S3150800B8905A60DA6017707B489FED7B9A4FF47A629C
S3150800B8A028219A606EF040FD784825216EF03CFD0F
S3150800B8B0774859216EF038FD76485A216EF034FDE6
S3150800B8C0754B764824221A712321754A1A606EF040
S3150800B8D02BFDFDF7C1FF734BDFF828C272491F72B3
S3150800B8E022221A71714ACCF82020C2E90077C2E9EF
S3150800B8F0027717750022C3E9041203F128021A62B7
S3150800B9004FF021028CF80420694A1A60694ACCF87B
S3150800B9100020694A1F739FED38AB02F5804A02F58D
S3150800B920805902F540589FED367B644A83F82C709F
S3150800B93002F5005B83ED068B83ED0CAB6048614A2C
S3150800B94083ED099A202100238CED047B8CF808707E
S3150800B9508CF80C708CED068B6FF0D0FE5A48594A5D
S3150800B9609FED5A0A4F2100236FF0C8FE4E4A5848E9
S3150800B97000231F216FF0C2FE564B4B4956481F72D3
S3150800B9800022C3E904124FF00C01197153491960DA
S3150800B990F7EE009A1F7383ED068B514B40F8043B74
S3150800B9A0F0EE690A6FF0D0FC68F038F84D486FF091
S3150800B9B0CBFC4D4B4D481860C3ED019A83ED029AB6
S3150800B9C083ED039A83ED049AC3ED059A484B4948DB
S3150800B9D0494A83ED00AB494B212183ED00AB002397
S3150800B9E06FF08CFE464B414818608DE0AFF300803F
S3150800B9F0000000000000000000000000000000F049
S3150800BA0000093D00000000000CB0012034470A0878
S3150800BA10E055002040380020344A0A0880390020C2
S3150800BA2038470A081C4A0A088CB4012090AE01203F
S3150800BA3044470A0820D20010A0AE0120584A0A0836
S3150800BA4060D20010948401206C4A0A08944A0A08B5
S3150800BA50609400208F1E1700F0CA001080C70010DF
S3150800BA60F84A0A08C4B8080860CE0010BCB8080826
S3150800BA70A82C0020DC4A0A088851012054470A08E5
S3150800BA80E8D90010D0260020000000002825002054
S3150800BA90D825002080250020A0B10020D024002031
S3150800BAA00C4B0A088890002080841E00049501200B
S3150800BAB0284B0A084C4B0A0828680010000000109A
S3150800BAC078210020801A0600502100200000C84274
S3150800BAD068230020482300206494012024330A08A0
S3150800BAE06C4B0A0884940120B0910120581D0A085D
S3150800BAF0E04B002080260020400D0300D84B002094
S3150800BB00D8910120C04C0020CB4ACC48C3ED019AFD
S3150800BB1083ED029A83ED039A83ED049AC3ED059AA1
S3150800BB20272100236FF0EAFDC548C34A33210023C5
S3150800BB306FF0E4FDC348C04A352100236FF0DEFDEF
S3150800BB40C148BD4A372100236FF0D8FDBF4BC04A14
S3150800BB50C0491960C3E90A771F721F731F6283F809
S3150800BB60247083ED068B83ED0C9ABB4B1160BB49A1
S3150800BB7019604FF0260CB54BDFF84CE382F804C089
S3150800BB804FF0340C83F804C042F2046CB24BAEF8A2
S3150800BB9004C04FF0270C8EF806C0CEF8001043F20A
S3150800BBA0324E9FEDA17BA3F804E04FF0330E83F8E5
S3150800BBB006E0A64B1772C2E90A7782ED047B83ED8D
S3150800BBC0047B1773176282F8247082ED068BA448EB
S3150800BBD082ED0C9A0521984A00236FF08FFDA14843
S3150800BBE0954A312100236FF089FD9F499F480860D7
S3150800BBF09F48DFF8D8E20F720F734F6281ED068B0C
S3150800BC009A49077201600773476280ED068B994867
S3150800BC10CEF8001008F130014160A8F150018160AA
S3150800BC209149954808629249CEF8200008629148E1
S3150800BC30DFF89CC28EF808700B46904901608A4965
S3150800BC408F4888620130986287498EF80C700130F7
S3150800BC509FED777BCEF828004FF0290008718249BE
S3150800BC60CEF824704FF02A0081ED047B18718549BF
S3150800BC708CF808704FF02B0083ED047B8EF80400D7
S3150800BC80814B824A4FF02C008EED047B8CF8040021
S3150800BC908EED068B7E488CF80C70CCF82810013196
S3150800BCA099624FF02D0E013183F804E081624FF05E
S3150800BCB02E0E784980F804E07748886077487849F6
S3150800BCC0816073491F7281ED047B81ED068B67499C
S3150800BCD01F7301F1240083ED047B5F62196018620B
S3150800BCE083ED068B6A4BCCF8001019606949CCF8CD
S3150800BCF024708CED047BCCF8200018628CED068B42
S3150800BD00684808604FF0190C81F804C063491F722F
S3150800BD1008604FF01A001F735F620871624B634830
S3150800BD201921C2E901171A21D760596060491160C3
S3150800BD3019602831116219624FF00101D76283F840
S3150800BD40381091854FF00101DF6299850021C2E91B
S3150800BD500401C3E90401C2E90977C2E90C77C3E91A
S3150800BD600277C3E90977C3E90C7782F8387082ED60
S3150800BD70068B83ED068B63F075FBDFF858E14D4AB9
S3150800BD80DFF854C1CEF800200C21CEF82C1028324A
S3150800BD904FF00301484B8EF80410CEF820204FF0E0
S3150800BDA00101464A8CF80410F1EE007A4FF4FD6161
S3150800BDB0CEED0C7A8EF808708EF80C70CEF82470DA
S3150800BDC0CCF800301360CEF8281028338EED048B9B
S3150800BDD08EED068B4FF0050E8CF808708CF80C70FB
S3150800BDE0CCF82470CCF820301362CCF82810CCF8A4
S3150800BDF02CE08CED048B8CED068BCCED0C9A0F2386
S3150800BE004FF0020C177217735762D36291622C4B6C
S3150800BE1082F804C082ED048B82ED068BC2ED0C9A83
S3150800BE20284A5FE0AFF3008000350C0000000000F0
S3150800BE30804F120000000000400D0300A8260020D5
S3150800BE40704C00203026002058260020903E002006
S3150800BE50C83E0020984B0A08C89101207C4B0A0866
S3150800BE60E8900020C090002058900020C84B0A088F
S3150800BE70289000206C910120EC4B0A08B84B0A0860
S3150800BE8005030A0008030A00988F0020304C00209A
S3150800BE90688F002030AF0120A952060824AF012080
S3150800BEA0C15206083C4C0A08F04B0020C0D40100D9
S3150800BEB0004C0A08D04C0A08944C0A08C08E002088
S3150800BEC0888E0020584C0A08D0910120F88F00204F
S3150800BED0C88F0020308F0020F88E0020333323408F
S3150800BEE0000048431FED037A1A604FF4FD6EC3F84D
S3150800BEF028E028324FF00D0E4FF00F0C1FED080A00
S3150800BF00DE4883ED0C7A0E211A6283F804E01F726C
S3150800BF101F735F62C3F82CC083ED048B83ED068B19
S3150800BF206EF0A8FA9FEDD60AD6480F216EF0A2FA4F
S3150800BF309FEDD30AD44811216EF09CFA9FEDD00AE2
S3150800BF40D24812216EF096FAD14BCC49196091F875
S3150800BF502420CC495A73596091F82420CD499A7304
S3150800BF604FF00D0E83F80CE099601F75C64883EDF7
S3150800BF70049AC94B90F824201860C4485A7390F85C
S3150800BF8024209A734FF0100EC44ADFF854C3586041
S3150800BF9099601F7583F80CE083ED049A4FF00F0043
S3150800BFA040F60D63BE499380907141F21013BD4867
S3150800BFB0ACF80430116082ED029A82ED039A1223DE
S3150800BFC0B84ACCF800104FF0150E8CF80630016010
S3150800BFD041F21343B4488CED029AB0EE690A142173
S3150800BFE08CED039A938082F806E082ED029A82ED40
S3150800BFF0039A6EF03FFAAD48B0EE690A15216EF065
S3150800C00039FAAB4BA3499960A749196091F82420DE
S3150800C010A6495A7391F824209A73A64A1F75A64F03
S3150800C0201760132759601F739FEDA40AA44883ED70
S3150800C030049A1D21162393806EF01CFA9FED9F0A21
S3150800C040A048A14F1E216EF015FA63F029FB9F4AFE
S3150800C0509F4BA0494FF0030C4FF0010087F80CC026
S3150800C06010734FF0200C9C4883F80CC018604FF0F2
S3150800C070500C386008601060984887F804C0B860AB
S3150800C08051270F71232788600F73522100240AF560
S3150800C0907A75986090601171A9F6F87053221A7132
S3150800C0A06EF0B6FD90222146A5F54F5075F04DFB72
S3150800C0B02022214609F1D00005F61846C9E92F4481
S3150800C0C0C9E93244C9F8B840C9F8C44075F03DFB1F
S3150800C0D02022214609F1F00075F037FBA6F5A047A6
S3150800C0E04022214609F5887075F02FFB07F58D5318
S3150800C0F0C9F8A041C3E90144DC601C8207F58B53EB
S3150800C100C9F86041C3E90144DC60A6F57A534022C8
S3150800C110214609F5DC70C9F88041C9E95D44C3E9DF
S3150800C1200144DC60C9E96544C9F85441C9F85C4171
S3150800C13089F8B44189F8B741C9F85041C9F8584156
S3150800C140C9F87041C9F89041A9F8B241A9F8B541B2
S3150800C150C9F87C41C9F89C4175F0F7FA4022214696
S3150800C16009F5FC7075F0F1FA4022214609F50E70C2
S3150800C17075F0EBFA4022214609F51E7075F0E5FACE
S3150800C1802022214609F52E7075F0DFFA2022214675
S3150800C19009F5367075F0D9FA2022214609F53E7060
S3150800C1A075F0D3FA2022214609F5467075F0CDFAC6
S3150800C1B02022214609F54E7075F0C7FA202221463D
S3150800C1C009F5567075F0C1FA2022214609F55E7008
S3150800C1D075F0BBFA2022214609F5667075F0B5FAA6
S3150800C1E04022214609F57670C9E9EE44C9E9F044CA
S3150800C1F0C9E9F244C9E9F44475F0A7FA20222146B0
S3150800C20009F5836075F0A1FA2022214609F58760B1
S3150800C21075F09BFA07F5A3534022214603F108005F
S3150800C220C9F86044C9F85C445C60C9F8584475F0BC
S3150800C2308CFAA5F53D5340222146A6F56D50C3E973
S3150800C2400044C9F8B044C9F8B444C9F8B844C9F8B0
S3150800C250BC4475F07AFAA6F56C534022214609F5D6
S3150800C260A260C9F80045C3E90144DC6075F06DFABF
S3150800C270A5F53A53C3E9004434E000BF909700207F
S3150800C280000048434897002000970020B8960020F1
S3150800C29088B10020284D0A0860B1002078B1002036
S3150800C2A00C4D0A0828B10020709600202896002018
S3150800C2B038B10020F0910120D8320A0800007A44EB
S3150800C2C0E8210020A021002014AF0120F4AE0120AF
S3150800C2D0E4AE012004AF0120444D0A08000080BFE7
S3150800C2E050B1002007F5AB532022214609F5AF606F
S3150800C2F0C9F86045C9F854455C60C9F85C45C9F891
S3150800C3007445C9F85045C9F85845C9F8704575F0D7
S3150800C3101CFA2022214609F5B36075F016FAA6F52F
S3150800C320695020222146C9F8BC45C9F8B84575F0B8
S3150800C3300CFA20222146A5F53850C9F8E045C9F877
S3150800C340E44575F002FAA6F5405007464022214614
S3150800C35000F5196075F0F9F94022214607F51D60C8
S3150800C36075F0F3F94022214607F5216075F0EDF9DD
S3150800C3704022214607F5256075F0E7F92022214677
S3150800C38007F5296075F0E1F92022214607F52B60AB
S3150800C39075F0DBF92022214607F52D6075F0D5F9F1
S3150800C3A08022214607F6F820C7F8F44AC7F8F04A6B
S3150800C3B075F0CBF92022214607F68830C7F8784B66
S3150800C3C0C7F87C4BC7F8804BC7F8844B75F0BDF9A6
S3150800C3D04FF40072214607F6A83075F0B6F94FF407
S3150800C3E00072214607F6A85075F0AFF9802221465B
S3150800C3F007F57B60C7F8A84FC7F8AC4F75F0A5F9E5
S3150800C4008022214608F1300075F09FF92022214646
S3150800C41008F1B00075F099F94FF40072214608F159
S3150800C420D800C8E9344475F090F92022214608F569
S3150800C430367075F08AF92022214608F53E7075F0A7
S3150800C44084F93C22214608F5467075F07EF94FF4CA
S3150800C4500072214608F5557075F077F920222146B5
S3150800C46008F2545075F071F92022214608F27450EA
S3150800C47075F06BF94022214608F2945075F065F97B
S3150800C4804022214608F2F450C8F8D445C8F8E445D5
S3150800C490C8F8D845C8F8DC45C8F8E045C8F8E845FE
S3150800C4A0C8F8EC45C8F8F04575F04FF94FF4007236
S3150800C4B0214608F25460C8F83446C8F84446C8F815
S3150800C4C03846C8F83C46C8F84046C8F84846C8F84A
S3150800C4D04C46C8F8504675F038F92022214608F629
S3150800C4E0540075F032F92022214608F6740075F0DA
S3150800C4F02CF94FF40072214608F6940075F025F9D8
S3150800C5002022214608F6942075F01FF9202221469C
S3150800C51008F6B42075F019F94FF40072214608F6AA
S3150800C520D42075F012F94FF40072214608F6D4406B
S3150800C53075F00BF9D8F8D43E03F00043C8F8D43E9A
S3150800C540C3F3076364F3C71388F8D73E4FF48072C2
S3150800C550214608F6E66075F0F8F82022214608F626
S3150800C560E67075F0F2F8202221460AF1060075F009
S3150800C570ECF84FF4807221460AF12800AAF8264002
S3150800C58075F0E3F8202221460AF5947075F0DDF877
S3150800C590202221460AF5A47075F0D7F84FF4807268
S3150800C5A021460AF5B47075F0D0F84FF4807221462A
S3150800C5B00AF52270CAE99B44CAE99F44CAF8684248
S3150800C5C0CAF87842CAF87442CAF8844275F0BDF8C7
S3150800C5D0402221460AF56A70CAE9E344CAE9E744F3
S3150800C5E0CAF88843CAF89843CAF89443CAF8A443D1
S3150800C5F075F0ABF85022214605F12000CAF8E84349
S3150800C600CAF8F843C5E90144C5E90544EC60EC619C
S3150800C61075F09BF8C022214605F1A400C5F898409C
S3150800C620C5F8A040CAF85844CAF86844C5E91D4484
S3150800C630C5E92144C5E92344EC67CAF87C44CAF82D
S3150800C640844475F082F8C022214605F5BA70C5F80B
S3150800C6506841C5F87041CAF84C45CAF8544575F0A2
S3150800C66074F82422214605F53570C5E98E44C5F8C7
S3150800C6704842C5F85042C5F85842C5F86042C5F860
S3150800C6806842C5F87042C5F87842C5F88042C5F8D0
S3150800C6908842C5F89042C5F89842C5F8A042C5F840
S3150800C6A0A842C5F8B042C5F84042CAF82C46CAF8AE
S3150800C6B01C46CAF83446CAF83C46CAF84446CAF87C
S3150800C6C04C46CAF85446CAF85C46CAF86446CAF8DC
S3150800C6D06C46CAF87446CAF87C46CAF88446CAF84C
S3150800C6E08C46CAF89446CAF89C46C5F8C042C5F8AE
S3150800C6F0C842C5F8D042C5F8B842CAF8A446CAF82E
S3150800C700AC46CAF8B44675F020F82422214605F549
S3150800C7104170A5F8FC42A5F80243CAF8E046CAF8F3
S3150800C720E64675F012F82022214605F54D70A5F863
S3150800C7302C43A5F83243CAF81047CAF8164775F0CD
S3150800C74004F82022214605F55970C5F85843C5F85E
S3150800C7506043CAF83C47CAF8444774F0F6FF2022FB
S3150800C760214605F56570C5F88843C5F89043CAF8AB
S3150800C7706C47CAF8744774F0E8FF4FF4BC72214658
S3150800C78005F57170C5F8B843C5F8C043CAF89C47A3
S3150800C790CAF8A44774F0D9FF4FF43C72214605F253
S3150800C7A03C5074F0D2FF4FF4BC72214605F65C008B
S3150800C7B0CAF8144CCAF82C4CC5F83048C5F83448A1
S3150800C7C0C5F83848C5F83C48C5F84048C5F848484B
S3150800C7D0C5F84C48C5F85048C5F85448C5F85848EF
S3150800C7E074F0B3FF4FF4BC72214605F6D41074F00A
S3150800C7F0ACFF2422214605F67440CAF8344FCAF81D
S3150800C8004C4FC5F8804BC5F8844BC5F8884BC5F81E
S3150800C8108C4BC5F8904BC5F8984BC5F89C4BC5F89A
S3150800C820A04BC5F8A44BC5F8A84BC5F8B04BC5F83E
S3150800C830B44BC5F8B84BC5F8BC4BC5F8C04BC5F8E2
S3150800C840C84BC5F8504BC5F8544BC5F8584BC5F8F6
S3150800C8505C4BC5F8604BC5F8684BC5F86C4BC5F81A
S3150800C860704BC5F8744BC5F8784BCAF8644FCAF8CC
S3150800C8707C4FCAF8944FCAF8AC4FC5F8CC4BC5F8EC
S3150800C880E04BC5F8E44BC5F8E84BC5F8EC4BC5F8E2
S3150800C890F04BC5F8F84BC5F8FC4BC5F8004CC5F885
S3150800C8A0044CC5F8084CC5F8104CC5F8144CC5F826
S3150800C8B0184CC5F81C4CC5F8204CC5F8284CC5F8CA
S3150800C8C02C4CC5F8304CC5F8344CC5F8384CC5F86E
S3150800C8D0404CC5F8444CC5F8484CC5F84C4CC5F80E
S3150800C8E0D04BC5F8D44BC5F8D84BF4607462CAF877
S3150800C8F0C44FCAF8DC4FCAF8F44FC5F8504CF46375
S3150800C900C5F8684CC5F8704CF4647465C5F8584C9D
S3150800C910C5F85C4CC5F8604C74F017FF0AF58553EA
S3150800C920402221460AF58650C6F88C40C5F8B44C14
S3150800C930C5F8C44CC5F8CC4CC5F8D44CC6F8A040CC
S3150800C940C6F898405C60C6F8A840C6F8B040C6F875
S3150800C950B840C5F8984CC5F89C4CC5F8A04CC5F825
S3150800C960A84CC5F8AC4C74F0F0FE4022214605F6FA
S3150800C970185074F0EAFE0AF58A534022214605F655
S3150800C9806850C5F8644DC6F84041C6F848415C6031
S3150800C99074F0DBFE4022214605F6A85074F0D5FE59
S3150800C9A0C822214605F62860C6E97544C6F8E84156
S3150800C9B0C5F8144EA6F8D241C6F8F841C5F8F44DA4
S3150800C9C0C5F8F84DC5F8FC4DC5F8044EC5F8084E2F
S3150800C9D0C5F80C4EC5F8184EC5F81C4EC5F8204EBD
S3150800C9E0C5F8244E74F0B1FE6422214605F6187087
S3150800C9F0C6F8D842C6F8EC42C5F8F44EC5F8F84E63
S3150800CA00C5F8FC4EC5F8004FC5F8084FC5F80C4FD9
S3150800CA10C5F8104FC5F8144F74F097FE202221462A
S3150800CA2005F6A470C6F86443C6F87843C5F8804F7F
S3150800CA30C5F8844FC5F8884FC5F88C4FC5F8944F8C
S3150800CA40C5F8984FC5F89C4FC5F8A04F74F07DFE01
S3150800CA500AF59F53C6F8E043C3E90844C3E901440D
S3150800CA60DC6005F58153C6F808445C600AF5A153F5
S3150800CA70C6F820445C6005F582532022214606F25A
S3150800CA804440C5F8E04FC5F8E84FC5F8F44FC5F877
S3150800CA90C84FC5F8CC4FC5F8D04FC6E9EF44C6E92C
S3150800CAA0F544C6F8F443C6F8FC43C6F81444C6F879
S3150800CAB01C44C6F8AC43C6F8C443C6F8CC43C6F80B
S3150800CAC0F043C6F8F843C6F81044C6F81844C6F842
S3150800CAD028445C60C6F83444C6F83C44C6F830447A
S3150800CAE0C6F8384474F031FE05F58552C6F8884410
S3150800CAF02146C2E90144C2E9034406F224504FF430
S3150800CB00BC72C6F86844C6F87044C6F87844C6F8D5
S3150800CB107C44C6F88044C6F88444C6F8A044C6F8DF
S3150800CB20A444C6F8A844C6F8AC44C6F8B444C6F843
S3150800CB30B844C6F8BC44C6F8C044C6F8C844C6F8E3
S3150800CB40CC44C6F8D044C6F8D444C6F8DC44C6F883
S3150800CB50E044C6F86444C6F86C44C6F87444C6F89B
S3150800CB609C44C6F8B044C6F8C444C6F8D844C6F8C7
S3150800CB70E444C6F8E844C6F81845C6F82045C6F899
S3150800CB80EC44C6F80045C6F80445C6F80845C6F894
S3150800CB900C45C6F81045C6F81445C6F81C45C6F82F
S3150800CBA0F044C6F8F444C6F8F844C6F8FC4474F0F1
S3150800CBB0CCFDABF500531A464FF0010083F8480048
S3150800CBC083ED06AB83ED0EAB83ED10AB9C8483F847
S3150800CBD02C405C63984B1360984B936006F5D763BB
S3150800CBE0C6F8AC46C6F8B04683ED009A0AF5B653C1
S3150800CBF083ED009A06F2C46383ED009A05F597550E
S3150800CC0006F5DA63C6F8A046C6F89C46C6F8A446F2
S3150800CC10C6F8B446C6F8BC46C6F8CC46C6F8D846E2
S3150800CC20C6F8E846C6F8EC46C6F8A846C6F8DC468E
S3150800CC30C6F8E046C6F8E44685ED009A83ED009A04
S3150800CC4015464FF0807306F2D466C2F82D3086ED8D
S3150800CC50009A6CF0E9FD7A4BC5F8D033A9F57B63E9
S3150800CC60C5F82C34774BC5F8083440F20113A5F8FB
S3150800CC70C43305F20C4383ED009A05F5826383ED10
S3150800CC80009A05F2144383ED009A05F5836383ED54
S3150800CC90009A05F21C4383ED009A05F5846383ED3B
S3150800CCA0009A05F2244383ED009A05F58563C5E9E4
S3150800CCB0FA44C5F8CC4385F8C643C5F8C84385ED9C
S3150800CCC0F59A85EDF69A85EDF79A85EDF89A85ED4C
S3150800CCD0F99AC5F8F04385EDFD9A85EDFE9A85ED3E
S3150800CCE0FF9AC5F80044C5F8044483ED009A6CF031
S3150800CCF0C3FE554BCBF818340133CBF8203405F670
S3150800CD001433CBF82834514BABF81C44ABF8244405
S3150800CD10ABF82C4403F1600225461D701D815B604B
S3150800CD200C339342F9D1BBF8DC34494CCBF8905418
S3150800CD3023F4FF4323F07F03ABF8DC34DBF8A0349D
S3150800CD40CBF8945403F06043CBF8A034DBF8DC341A
S3150800CD50CBF8B0540BF59362C3F30E03CBF8DC346F
S3150800CD60002313603B4ACBF8D82400228BF8A3246F
S3150800CD700BF2B442002613600122CBF8B8240BF25A
S3150800CD80BC424FF0704713600BF2C44244E9026795
S3150800CD9013600BF59E62C4E9086713600BF2F44250
S3150800CDA0C4E90E6713600BF59F62CBF8C054136095
S3150800CDB00BF20C52CBF8C85413600BF5A262CBF8F1
S3150800CDC0E05413600BF21452CBF8FC541360CBF802
S3150800CDD00055CBF80455CBF80855DBF818651E4BFB
S3150800CDE0CBF820354FF4A06206F07F4300210BF202
S3150800CDF04C5020260027CBF81835C4E92467CBF811
S3150800CE001C558BF81B55CBF82455CBF82855CBF871
S3150800CE102C55CBF83455CBF83855CBF8485574F023
S3150800CE2094FC002504F19C0204F29C5104F5B160BF
S3150800CE3013462C4615E000BFA04E0A0864470A08A8
S3150800CE40884E0A08604D0A082A650010302400102A
S3150800CE50B0240010704E0A08B84D0A0814338B42E5
S3150800CE600AD09342FAD38342F8D81C601C4614337E
S3150800CE708B424FF00105F4D10DB1CBF84845E44992
S3150800CE80E44B0022A1F80C238BF8502A03F5D8703E
S3150800CE90002103F8102C23F80F2C43F80C1C43F838
S3150800CEA0081C43F8042C1961C3E90022243398426C
S3150800CEB0EFD1D9498BF8082C002301F8243B01331C
S3150800CEC00C2BFAD1D54BD64E9FEDE78A9FEDCC9B1E
S3150800CED0002403F5E4625C6183ED1E9B9C619C6003
S3150800CEE09C62DC60DC621C61DC64DC611C651C62C3
S3150800CEF01C665C629C639C64DC655C6683F86840BF
S3150800CF0083F86940DE6683ED1C8A83ED208A83F800
S3150800CF108C40C3E90C44C3E91044C3E91544C3E98A
S3150800CF202144C3F89040C3E9004498339A42D2D1C9
S3150800CF30BC4DDFF8309385F830432822002105F5EB
S3150800CF404E7074F002FCB84BC5F868339FEDAE7BA3
S3150800CF5030339FEDC50AC5F888330027032305F546
S3150800CF605A7085EDDE7B85EDE07B85F86C33C5E987
S3150800CF70EA44C5F89063A5F8604385F8624385F8E6
S3150800CF80704385F87443A5F8B04385EDE69B85EDB7
S3150800CF90EE9B85EDE38A85EDE88A85EDE98AFCF75F
S3150800CFA02FFC4FF48C62394605F58160C5F8DC43E1
S3150800CFB0C5F8D043C5F8D843C5F8E043C5F8EC43EF
S3150800CFC0C5F8F843C5F80044C5F8044485EDF09B58
S3150800CFD085EDF29B85EDF98A85EDFA8A85EDFC8A61
S3150800CFE085EDFD8A85EDFF8A74F0AFFB4FF48C6200
S3150800CFF0394605F64C20C5F8684874F0A6FB05F6D0
S3150800D000AC6080ED008A05F56B6080ED008A05F658
S3150800D010B46005F580564FF001084FF400723946A2
S3150800D02080ED008A05F6BC6085F8B88E74F08DFB35
S3150800D0307E4AC6F8E020C6F8FC207D4AC6F8CC2011
S3150800D0407C4AC6F8C8207C4AC6F8E4207B4AC6F85B
S3150800D05000214FF400027A49C6F8BC2005F58E5027
S3150800D0604FF0FF32C6E94944C6E96444C6E9664456
S3150800D070C6E96844C6E96A44C6F8C04086F8C440AA
S3150800D080C6F8F84086F81C4186F82C41C6F81821DF
S3150800D090C6F8148186ED488A86ED6C8A86ED6D8A17
S3150800D0A086ED6E8A86ED6F8AFEF7A2FA654B86F8DC
S3150800D0B0A0423A46C6E9A644C6E9AB84C6F8B442D5
S3150800D0C0C6F86043394606F52A705F4CC6F85C33E5
S3150800D0D0C6F8C04141F09EFA5C4905F5D050FEF706
S3150800D0E087FA5B49C6F8009A06F6D820FEF780FA52
S3150800D0F05849C6F8D89A06F53B60FEF779FA5449B6
S3150800D100C6F8B09B06F68840FEF772FA05F5EB5AA4
S3150800D110C6F8889C4B4BCAF8B4300022CAF804807B
S3150800D120AAF808708AF80A70CAF80C70CAF8B870B3
S3150800D1305046114641F06EFA474B0AF5EB6A9A4596
S3150800D140E8D103F50C664FF000084FF070494348E4
S3150800D1503772C5E9F677C6E90777A6F59A65C6E987
S3150800D1600089C6E90489002447F0B0FC3C484DF024
S3150800D1708FFB4FF0000A06F1940030222146C6F8CC
S3150800D18040A0C6F844A0C6F848A0C6F84CA0C6F801
S3150800D19054A0C6F868A0C6F86CA0C6F870A0C6F871
S3150800D1A07CA0C6F880A0A5F8F874C5F80C75C5F873
S3150800D1B02075C5F82875C5F82C75C5F83075C5F8F5
S3150800D1C03475C5F84475C5F84875C5F85475C5F875
S3150800D1D05875A5F8607574F0B8FAC6F8C870C6E947
S3150800D1E03689C6E93A89C6F8CCA0C6F8D0A006F1B1
S3150800D1F0F003C5F8947506F51C7637E0AFF30080A2
S3150800D20000000000000000F0000000000000000020
S3150800D21000000010682A0010592A0010102C00106F
S3150800D2200000C07F00300010C84D0A08504E0A089A
S3150800D23074470A08604E0A087C470A0884470A08A1
S3150800D2408C470A08284E0A08104E0A0890470A080A
S3150800D2509C470A08A8470A08105C0010C04100103D
S3150800D26030410010384E0A0800000000C3E9008962
S3150800D2701C811033B342F9D11FED058AC5F8404722
S3150800D28005F5E96383ED008A05F24C7383ED008AA0
S3150800D29005F5EA6383ED008A302205F284730021DE
S3150800D2A005F5F160C5F8B045A5F8B44583ED008AE3
S3150800D2B074F04BFA05F5F76282ED008A05F5F96216
S3150800D2C082ED008A05F2CC7282ED008A05F5FA62D3
S3150800D2D082ED008A05F2D47282ED008A05F5FB62BA
S3150800D2E082ED008A05F2DC729FEDB19B82ED008A21
S3150800D2F00122B54F85F8F827B44A85F8F04787ED37
S3150800D300009B87ED029B019202F5F0783FF028F921
S3150800D310A7F53877DFF870C3AD4ADFF870A3DFF8F2
S3150800D3207093AC4E87EDC08AC7E9B001AA49CCF81C
S3150800D330001087EDC49B11603C60A7F5AA41CAF8A6
S3150800D3400060BC60DFF84CA3A44FC9F800A0DFF862
S3150800D3504893C7F8009005F6180787ED008A05F682
S3150800D3601C0787ED008A05F5026787ED008A05F632
S3150800D3702407C5F80448C5F80848F7EE007A87ED8B
S3150800D380008A05F25C5705F20455C5ED007A9FED53
S3150800D390947AA1F8704A0BF5A26501F6742185ED19
S3150800D3A0008A0BF21455C1ED007A87ED007AC5EDB7
S3150800D3B0007A9FED817B8CED047B9FED817B89480C
S3150800D3C08CF8084024258CF8045023258CED069B00
S3150800D3D08CF80C4015711472147381ED028A80ED75
S3150800D3E0008A82ED047B82ED069B7F4ADFF8AC92C9
S3150800D3F0C2F800907D4A7E4EDFF8A4A21660762712
S3150800D400C2F83873C2F844A382F83C43764A794B8B
S3150800D410DFF890E278497948794E9E60C2E901447E
S3150800D420FF25784A1C61CEE900EEC3F81340CEF812
S3150800D43008405D75DC605C601A606DF00FF9724932
S3150800D44072486DF00BF9019E304678366DF01CF97E
S3150800D4504645F9D1DFF850C26D4B6E4FDFF84C8266
S3150800D4606D4ECCF81C8000254FF07E59CCE900356E
S3150800D470CCE90255CCF81090CCF81490CCF818905A
S3150800D480DFF82CC2C7F81CC0644CC7F81090C7E96F
S3150800D4900035C7E90255C7F81490C7F81890604FC9
S3150800D4A0604AF761C6E90035C6E90255C6F8109024
S3150800D4B0C6F81490C6F818905B4EDFF8F8E1E661F6
S3150800D4C0C4E90035C4E90255584BC4F81090C4F8AD
S3150800D4D01490C4F81890564CC2F800E05549D46127
S3150800D4E0C2E901555448D560C2F81090C2F81490A4
S3150800D4F0C2F81890514AC3F800E0DA61C3E9015549
