S01400006275696C642F7275736566692E7372656343
S3150800800010100020B983000879E20208F9830008F5
S315080080101D840008F88300080B840008D2DE9D0A38
S3150800802094DE0900B3830008B3830008113D0108F4
S31508008030B3830008B3830008B3830008D54C01084E
S31508008040B3830008B3830008B94B0108314C010813
S31508008050B3830008B3830008259B04082D9B0408F6
S31508008060359B04083D9B0408459B04080541010807
S315080080703D41010879410108B5410108F14101086E
S3150800808029420108654201088D3D0108E53F0108BE
S31508008090094001082D400108514001084D9B04087C
S315080080A0B3830008F14E0108B3830008154F010891
S315080080B0C14D0108194F01083D4F0108899A040866
S315080080C0B3830008B5440108ED450108B3830008E9
S315080080D0B3830008B38300084D51010871510108A4
S315080080E0719B0408794C0108B3830008B383000820
S315080080F0854F0108B3830008A94F0108A14201086A
S31508008100B3830008B3830008614F0108B3830008EE
S31508008110B3830008B3830008614D0108B3830008E0
S31508008120DD42010815430108514301088D43010842
S31508008130C9430108B3830008B383000875400108E2
S3150800814099400108BD400108E140010809470108B6
S31508008150014401083D44010879440108AD4F01086E
S31508008160B3830008B3830008B3830008B383000809
S31508008170B3830008B3830008B3830008B3830008F9
S31508008180B3830008B3830008B3830008B3830008E9
S31508008190B3830008B3830008B3830008B3830008D9
S315080081A0B3830008B3830008B3830008B3830008C9
S315080081B0B3830008B3830008B3830008B3830008B9
S315080081C0B3830008B3830008B3830008B3830008A9
S315080081D0B3830008B3830008B3830008B383000899
S315080081E089CA0008B5BD07080000000000000000A5
S315080081F001F0FF01102A2BDB10F0070F08D010F84A
S31508008200013B013A8B422DD010F0070F42B3F6D14D
S31508008210F0B441EA012141EA014122F007047FF066
S3150800822000070023F0E80256083C85EA010586EABD
S31508008230010685FA47F5A3FA87F586FA47F6A5FAF9
S3150800824087F68EB9EED1F0BC01F0FF0102F0070205
S3150800825032B110F8013B013A83EA010313B1F8D1B0
S315080082600020704701387047002D06BF3546033891
S31508008270073815F0010F07D1013015F4807F02BFCA
S31508008280013015F4C03F0130F0BC0138704700BF1B
S3150800829072B6394880F30888384880F30988384820
S315080082A04EF60851CEF20001086040F20000CCF20A
S315080082B000004EF63471CEF200010860BFF34F8F0E
S315080082C0BFF36F8F40F20000C0F2F0004EF68851FF
S315080082D0CEF200010860BFF34F8FBFF36F8F4FF0E8
S315080082E00000E1EE100A4EF63C71CEF2000108607D
S315080082F0062080F31488BFF36F8F07F04FFE24F033
S315080083005BF84FF055301F491B4A91423CBF41F874
S31508008310040BFAE71C49194A91423CBF41F8040B81
S31508008320FAE71A491A4A1B4B9A423EBF51F8040B00
S3150800833042F8040BF8E700201749184A91423CBF57
S3150800834041F8040BFAE707F02DFE43F00BFF144C37
S31508008350144DAC4203DA54F8041B8847F9E768F071
S31508008360CDF8114C114DAC4203DA54F8041B88477A
S31508008370F9E707F015BE00001010002010160020BF
S315080083800080000810000020101000204C5A0A082F
S3150800839010160020581A0020581A00202419022006
S315080083A0E0810008E4810008E4810008E88100080B
S315080083B06EE700F000F8FEE70A480B49026800601D
S315080083C08A4201D0FFF764FF08484FF480410160F4
S315080083D007484FF0010101600648D0F800D0406810
S315080083E000470000F0FF0120EFBEADDE4438024032
S315080083F0003801400000FF1F1EF0040F0CBFEFF30A
S315080084000880EFF3098025F03BBF1EF0040F0CBF70
S31508008410EFF30880EFF3098025F07ABF1EF0040F0A
S315080084200CBFEFF30880EFF3098025F0BDBF00BF4E
S31508008430EC46A0E8F05F80EC108B4FF00000704728
S31508008440B0E8F05FE54690EC108B080008BF012005
S31508008450704700BF00F1340191E838009C46A646F3
S315080084604CF8045D90E8FF0FE54600BD90EC210B43
S31508008470704700BF80EC210B704700BF90EC200BC3
S31508008480704700BF80EC200B704700BFD0EC200B74
S31508008490704700BFC0EC200B704700BFF0EC02012C
S315080084A0F0EC0211F0EC0221F0EC0231F0EC0241A2
S315080084B0F0EC0251F0EC0261F0EC0271F0EC028192
S315080084C0F0EC0291F0EC02A1F0EC02B1F0EC02C182
S315080084D0F0EC02D1F0EC02E1F0EC02F1704700BFDB
S315080084E0E0EC0201E0EC0211E0EC0221E0EC0231E2
S315080084F0E0EC0241E0EC0251E0EC0261E0EC0271D2
S31508008500E0EC0281E0EC0291E0EC02A1E0EC02B1C1
S31508008510E0EC02C1E0EC02D1E0EC02E1E0EC02F1B1
S31508008520704700BFB0FC0181B0FC0191B0FC01A10D
S31508008530B0FC01B1704700BFA0FC0181A0FC01910D
S31508008540A0FC01A1A0FC01B1704700BFEC4600B534
S315080085502DE900502DE9FF1F4FF000032DE90C000F
S3150800856001A977F0D5FEDDF840E012B0704700BFEC
S31508008570EC4600B52DE900502DE9FF1F4FF000032A
S315080085802DE90C0001A977F0FFFEDDF840E012B0F6
S31508008590704700BFEC4600B52DE900502DE9FF1FD6
S315080085A04FF000032DE90C0001A977F00DFFDDF867
S315080085B040E012B0704700BFEC4600B52DE9005008
S315080085C02DE9FF1F4FF000032DE90C0001AB77F0F2
S315080085D0D3FEDDF840E012B0704700BFEC4600B5A8
S315080085E02DE900502DE9FF1F4FF000032DE90C007F
S315080085F001AA77F03DFFDDF840E012B0704700BFF2
S3150800860081F0004102E000BF83F0004330B54FEA35
S3150800861041044FEA430594EA050F08BF90EA020FA2
S315080086201FBF54EA000C55EA020C7FEA645C7FEA35
S31508008630655C00F0E2804FEA5454D4EB5555B8BF58
S315080086406D420CDD2C4480EA020281EA030382EAC9
S31508008650000083EA010180EA020281EA0303362D5B
S3150800866088BF30BD11F0004F4FEA01314FF4801C2E
S315080086704CEA113102D0404261EB410113F0004F40
S315080086804FEA03334CEA133302D0524263EB4303F7
S3150800869094EA050F00F0A780A4F10104D5F1200E95
S315080086A00DDB02FA0EFC22FA05F2801841F10001F0
S315080086B003FA0EF2801843FA05F359410EE0A5F1C4
S315080086C020050EF1200E012A03FA0EFC28BF4CF0F5
S315080086D0020C43FA05F3C01851EBE37101F00045AB
S315080086E007D54FF0000EDCF1000C7EEB00006EEBB8
S315080086F00101B1F5801F1BD3B1F5001F0CD3490842
S315080087005FEA30004FEA3C0C04F101044FEA445298
S3150800871012F5800F80F09A80BCF1004F08BF5FEA1F
S31508008720500C50F1000041EB045141EA050130BDFF
S315080087305FEA4C0C404141EB0101013C28BFB1F511
S31508008740801FE9D291F0000F04BF01460020B1FA5C
S3150800875081F308BF2033A3F10B03B3F120020CDA2F
S315080087600C3208DD02F1140CC2F10C0201FA0CF00D
S3150800877021FA02F10CE002F11402D8BFC2F1200C72
S3150800878001FA02F120FA0CFCDCBF41EA0C01904028
S31508008790E41AA2BF01EB0451294330BD6FEA040471
S315080087A01F3C1CDA0C340EDC04F11404C4F120025C
S315080087B020FA04F001FA02F340EA030021FA04F36E
S315080087C045EA030130BDC4F10C04C4F1200220FAC5
S315080087D002F001FA04F340EA0300294630BD21FA03
S315080087E004F0294630BD94F0000F83F4801306BFC9
S315080087F081F480110134013D4EE77FEA645C18BFBD
S315080088007FEA655C29D094EA050F08BF90EA020F53
S3150800881005D054EA000C04BF1946104630BD91EA4B
S31508008820030F1EBF0021002030BD5FEA545C05D14E
S315080088304000494128BF41F0004130BD14F580048D
S315080088403CBF01F5801130BD01F0004545F0FE4101
S3150800885041F470014FF0000030BD7FEA645C1ABF36
S31508008860194610467FEA655C1CBF0B46024650EA6D
S31508008870013406BF52EA033591EA030F41F4002199
S3150800888030BD00BF90F0000F04BF0021704730B51F
S315080088904FF4806404F132044FF000054FF00001F4
S315080088A050E700BF90F0000F04BF0021704730B5B5
S315080088B04FF4806404F1320410F0004548BF40428A
S315080088C04FF000013EE700BF42004FEAE2014FEADF
S315080088D031014FEA02701FBF12F07F4393F07F4FBA
S315080088E081F06051704732F07F4208BF704793F0BD
S315080088F07F4F04BF41F40021704730B54FF46074D0
S3150800890001F0004521F000411CE700BF50EA0102D2
S3150800891008BF704730B54FF000050AE050EA01027B
S3150800892008BF704730B511F0004502D5404261EBEB
S3150800893041014FF4806404F132045FEA915C3FF42C
S31508008940D8AE4FF003025FEADC0C18BF03325FEAC9
S31508008950DC0C18BF033202EBDC02C2F1200300FA7A
S3150800896003FC20FA02F001FA03FE40EA0E0021FA9F
S3150800897002F11444BDE600BF70B54FF0FF0C4CF48D
S31508008980E06C1CEA11541DBF1CEA135594EA0C0F3F
S3150800899095EA0C0F00F0DEF82C4481EA030621EA7A
S315080089A04C5123EA4C5350EA013518BF52EA0335B5
S315080089B041F4801143F4801338D0A0FB02CE4FF067
S315080089C00005E1FB02E506F00042E0FB03E54FF097
S315080089D00006E1FB03569CF0000F18BF4EF0010E8F
S315080089E0A4F1FF04B6F5007F64F5407404D25FEA8B
S315080089F04E0E6D4146EB060642EAC62141EA55513E
S31508008A004FEAC52040EA5E504FEACE2EB4F1FD0C7F
S31508008A1088BFBCF5E06F1ED8BEF1004F08BF5FEAFD
S31508008A20500E50F1000041EB045170BD06F00046AF
S31508008A3046EA010140EA020081EA0301B4EB5C045C
S31508008A40C2BFD4EB0C0541EA045170BD41F4801154
S31508008A504FF0000E013C00F3AB8014F1360FDEBF79
S31508008A60002001F0004170BDC4F10004203C35DA55
S31508008A700C341BDC04F11404C4F1200500FA05F3D8
S31508008A8020FA04F001FA05F240EA020001F0004279
S31508008A9021F0004110EBD37021FA04F642EB0601EF
S31508008AA05EEA430E08BF20EAD37070BDC4F10C0419
S31508008AB0C4F1200500FA04F320FA05F001FA04F2DD
S31508008AC040EA020001F0004110EBD37041F10001C9
S31508008AD05EEA430E08BF20EAD37070BDC4F12005D4
S31508008AE000FA05F24EEA020E20FA04F301FA05F23C
S31508008AF043EA020321FA04F001F0004121FA04F2E4
S31508008B0020EA020000EBD3705EEA430E08BF20EAB3
S31508008B10D37070BD94F0000F0FD101F000464000ED
S31508008B2041EB010111F4801F08BF013CF7D041EA6F
S31508008B30060195F0000F18BF704703F00046520073
S31508008B4043EB030313F4801F08BF013DF7D043EA44
S31508008B500603704794EA0C0F0CEA135518BF95EAFA
S31508008B600C0F0CD050EA410618BF52EA4306D1D181
S31508008B7081EA030101F000414FF0000070BD50EAA0
S31508008B80410606BF1046194652EA430619D094EA2A
S31508008B900C0F02D150EA013613D195EA0C0F05D114
S31508008BA052EA03361CBF104619460AD181EA030168
S31508008BB001F0004141F0FE4141F470014FF0000020
S31508008BC070BD41F0FE4141F4780170BD70B54FF0BB
S31508008BD0FF0C4CF4E06C1CEA11541DBF1CEA13553B
S31508008BE094EA0C0F95EA0C0F00F0A7F8A4EB05041D
S31508008BF081EA030E52EA03354FEA013100F0888014
S31508008C004FEA03334FF0805545EA131343EA1263DC
S31508008C104FEA022245EA111545EA10654FEA002691
S31508008C200EF000419D4208BF964244F1FD0404F54A
S31508008C30407402D25B084FEA3202B61A65EB0305A6
S31508008C405B084FEA32024FF480104FF4002CB6EB63
S31508008C50020E75EB030E22BFB61A754640EA0C00E3
S31508008C605B084FEA3202B6EB020E75EB030E22BF23
S31508008C70B61A754640EA5C005B084FEA3202B6EB64
S31508008C80020E75EB030E22BFB61A754640EA9C0023
S31508008C905B084FEA3202B6EB020E75EB030E22BFF3
S31508008CA0B61A754640EADC0055EA060E18D04FEAB1
S31508008CB0051545EA16754FEA06164FEAC30343EA51
S31508008CC052734FEAC2025FEA1C1CC0D111F4801F1E
S31508008CD00BD141EA00014FF000004FF0004CB6E717
S31508008CE011F4801F04BF01430020B4F1FD0C88BFB6
S31508008CF0BCF5E06F3FF6AFAEB5EB030C04BFB6EBC1
S31508008D00020C5FEA500C50F1000041EB045170BDB3
S31508008D100EF0004E4EEA113114EB5C04C2BFD4EBE0
S31508008D200C0541EA045170BD41F480114FF0000E64
S31508008D30013C90E645EA060E8DE60CEA135594EAE0
S31508008D400C0F08BF95EA0C0F3FF43BAF94EA0C0FE3
S31508008D500AD150EA01347FF434AF95EA0C0F7FF458
S31508008D6025AF104619462CE795EA0C0F06D152EAAC
S31508008D7003353FF4FDAE1046194622E750EA410690
S31508008D8018BF52EA43067FF4C5AE50EA41047FF4A1
S31508008D900DAF52EA43057FF4EBAE12E74FF0FF3C06
S31508008DA006E000BF4FF0010C02E000BF4FF0010CD7
S31508008DB04DF804CD4FEA410C7FEA6C5C4FEA430C50
S31508008DC018BF7FEA6C5C1BD001B050EA410C0CBF9F
S31508008DD052EA430C91EA030F02BF90EA020F002001
S31508008DE0704710F1000F91EA030F58BF994208BF68
S31508008DF090422CBFD8176FEAE37040F00100704725
S31508008E004FEA410C7FEA6C5C02D150EA013C07D17B
S31508008E104FEA430C7FEA6C5CD6D152EA033CD3D0C6
S31508008E205DF8040B704700BF8446104662468C46C0
S31508008E301946634600E000BF01B5FFF7B7FF0028F3
S31508008E4048BF10F1000F01BD4DF808EDFFF7F4FF1C
S31508008E500CBF012000205DF808FB00BF4DF808EDA7
S31508008E60FFF7EAFF34BF012000205DF808FB00BFCA
S31508008E704DF808EDFFF7E0FF94BF012000205DF8EC
S31508008E8008FB00BF4DF808EDFFF7CEFF94BF0120A1
S31508008E9000205DF808FB00BF4DF808EDFFF7C4FF9A
S31508008EA034BF012000205DF808FB00BF4FEA410CE3
S31508008EB07FEA6C5C02D150EA013C0AD14FEA430CC6
S31508008EC07FEA6C5C02D152EA033C02D14FF0000003
S31508008ED070474FF0010070474FEA410212F5001241
S31508008EE015D211D56FF47873B3EB625212D94FEAE3
S31508008EF0C12343F0004343EA505311F0004F23FACD
S31508008F0002F018BF404270474FF00000704750EA21
S31508008F10013005D111F0004008BF6FF000407047DE
S31508008F204FF00000704700BF4FEA4102B2F1E0433C
S31508008F3024BFB3F5001CDCF1FE5C0DD901F0004C32
S31508008F404FEAC0024CEA5070B2F1004F40EB830082
S31508008F5008BF20F00100704711F0804F21D113F1AE
S31508008F603872BCBF01F00040704741F480114FEAE7
S31508008F705252C2F11802C2F1200C10FA0CF320FA70
S31508008F8002F018BF40F001004FEAC1234FEAD3238D
S31508008F9003FA0CFC40EA0C0023FA02F34FEA4303F7
S31508008FA0CCE77FEA625307D150EA01331EBF4FF080
S31508008FB0FE4040F44000704701F0004040F0FE409B
S31508008FC040F40000704700BF80F0004002E000BF98
S31508008FD081F0004142001FBF5FEA410392EA030F96
S31508008FE07FEA226C7FEA236C6AD04FEA1262D2EBE0
S31508008FF01363C1BFD218414048404140B8BF5B42E5
S31508009000192B88BF704710F0004F40F4000020F07D
S315080090107F4018BF404211F0004F41F4000121F093
S315080090207F4118BF494292EA030F3FD0A2F10102DD
S3150800903041FA03FC10EB0C00C3F1200301FA03F11B
S3150800904000F0004302D5494260EB4000B0F5000F3E
S3150800905013D3B0F1807F06D340084FEA310102F1FD
S315080090600102FE2A51D2B1F1004F40EBC25008BFAF
S3150800907020F0010040EA03007047490040EB000079
S31508009080013A28BFB0F5000FEDD2B0FA80FCACF17A
S31508009090080CB2EB0C0200FA0CF0AABF00EBC250A7
S315080090A052421843BCBFD0401843704792F0000F95
S315080090B081F4000106BF80F400000132013BB5E7E8
S315080090C04FEA41037FEA226C18BF7FEA236C21D05E
S315080090D092EA030F04D092F0000F08BF08467047C3
S315080090E090EA010F1CBF0020704712F07F4F04D191
S315080090F0400028BF40F00040704712F100723CBFA4
S3150800910000F50000704700F0004343F0FE4040F4CD
S31508009110000070477FEA226216BF08467FEA23638B
S315080091200146420206BF5FEA412390EA010F40F476
S31508009130800070474FF0000304E000BF10F00043C2
S3150800914048BF40425FEA000C08BF704743F09643A9
S3150800915001464FF000001CE050EA010208BF7047C4
S315080091604FF000030AE000BF50EA010208BF70474B
S3150800917011F0004302D5404261EB41015FEA010C60
S3150800918002BF84460146002043F0B64308BFA3F158
S315080091908053A3F50003BCFA8CF2083AA3EBC2533A
S315080091A010DB01FA02FC634400FA02FCC2F1200259
S315080091B0BCF1004F20FA02F243EB020008BF20F090
S315080091C00100704702F1200201FA02FCC2F12002F6
S315080091D050EA4C0021FA02F243EB020008BF20EAEB
S315080091E0DC7070477BB972B90029BEBF00204FF00A
S315080091F0004106E008BF00281CBF6FF000414FF091
S31508009200FF3000F057B8ADF1080C6DE904CE00291F
S3150800921009DB002B1ADB77F005FFDDF804E0DDE952
S31508009220022304B07047404261EB4101002B1BDB6F
S3150800923077F0F8FEDDF804E0DDE9022304B04042E9
S3150800924061EB4101524263EB43037047524263EBC1
S31508009250430377F0E7FEDDF804E0DDE9022304B016
S31508009260404261EB41017047524263EB430377F09A
S31508009270D9FEDDF804E0DDE9022304B0524263EBCF
S315080092804303704753B94AB9002908BF00281CBFD1
S315080092904FF0FF314FF0FF3000F00CB8ADF1080C7D
S315080092A06DE904CE77F0BEFEDDF804E0DDE90223C1
S315080092B004B07047704700BF2DE9F04F2DED108AB6
S315080092C0C1F80CD0C3689D46BDEC108ABDE8F08F86
S315080092D006F0E8FF002383F311882846A0470020FC
S315080092E008F0CEFAFEE707F071F908F041FA06F041
S315080092F0D9FF00DFFEE710F8012B11F8013B012A20
S3150800930028BF9A42F7D0D01A7047034613F8012BA4
S31508009310002AFBD1181A0138704700000000000027
S3150800932070B586B00C4611461A46114B0093054691
S3150800933074B1631ECDE9010300266846CDE90366CC
S315080093400BF028FF039BA34200D2EE5406B070BD73
S315080093509FED057B019068468DED027B04940BF02A
S3150800936019FF06B070BD00BF000000000000000035
S31508009370C81C0808000000002DE9F04759EC108BBE
S315080093803D4B002240464946FFF77CFD002867D042
S3150800939035A5D5E90045384F4FF0000A00260CE000
S315080093A0FFF714FC8046894632463B464046494606
S315080093B00AF1050AFFF766FDE8B1494622462B463B
S315080093C04046FFF75FFD844622462B4640464946FF
S315080093D0BCF1000FE4D132463B46FFF7F7FB804667
S315080093E0894632463B46404649460AF1010AFFF796
S315080093F049FD0028E1D1214B002240464946FFF7A6
S315080094002DFD50B31AA5D5E9004517A7D7E900677A
S315080094100CE0FFF7B1FAAAF1050A80468946174B10
S31508009420002240464946FFF719FDB0B14946224693
S315080094302B464046FFF712FD844632463B464046D9
S315080094404946BCF1000FE4D10B4B0022FFF794FA12
S315080094500AF1FF3A80468946E1E75046BDE8F087BB
S315080094608246C8E7AFF3008000000000006AF840B3
S3150800947000000080B5F8E43E000024400000F03FFC
S315080094802DE9F047B0F1000A2D4D4FF0000426DD16
S3150800949029A7D7E90067DFF8AC904FF00008BAF1C2
S315080094A0040F2046294632463B460CDDFFF764FA90
S315080094B0AAF1050A04460D46BAF1000FEFD145ECAC
S315080094C0104BBDE8F08742464B46FFF755FA0AF1BE
S315080094D0FF3A04460D46BAF1000FE0D1EFE7EED0A9
S315080094E015A7D7E900671AF1040FDFF858904FF06F
S315080094F000082046294632463B460FDAFFF766FB48
S315080095000AF1050A04460D46BAF1000FD7D01AF13A
S31508009510040F2046294632463B46EFDB42464B4679
S31508009520FFF754FB0AF1010A04460D46BAF1000F8B
S31508009530EDD1C4E7AFF3008000000000006AF840F0
S315080095400000F03F0000244070B5C66984B00446A8
S3150800955030460D4613F000FE204613F0EFFA20467B
S3150800956013F03AFB9FED087B03462946304607244D
S315080095706A468DED027B8DF80040019313F078FE64
S3150800958004B070BDAFF30080FFFFFFFFFFFFFFFFD2
S315080095902DE9F04FC768C669D0F804802DED028B17
S315080095A0282F87B004460D4672D040F223139F42F7
S315080095B040F0858014F0E4F89FED438B4FF0070ADE
S315080095C04FF00809E3683A2B14D008DD5B2B51D01D
S315080095D05A2B40DC07B0BDEC028BBDE8F08F282B78
S315080095E03ED02E2BF6D129462046FFF7ADFFE3687D
S315080095F03A2BEAD1204613F0A1FA204613F0ECFAEA
S315080096002946039030468DED048B8DF808A013F09B
S3150800961081FD2B78D5F804B0082B4BD096F834701A
S315080096206F600221304685F8009012F01DFBBA1CC7
S3150800963002A986F834205B4600913A461421304642
S3150800964013F0A4FD9DF80830082B0DD10399304678
S3150800965072F040F908E07B2B02D0B3F5927FB9D1BE
S315080096602946304613F038FD42462946204614F06E
S31508009670DFFEA7E72946304613F06EFD02A920460D
S3150800968013F05EFF02AA2946304613F0F1FD99E76A
S3150800969013F054FA29460022204615F0DDFA204632
S315080096A043463A46292113F06DFAE069294613F034
S315080096B023FB81E75946304672F00CF9AEE70449B8
S315080096C012F06AFAAFF30080FFFFFFFFFFFFFFFF0C
S315080096D0B02A0808000000000F4B03F5805202F676
S315080096E0F80C00219FED0A7BCCF8001002F6041C4A
S315080096F0002003F5C85383ED027BC2F8F408C2F8CC
S315080097000009CCF80010C2F810097047AFF30080C2
S31508009710000000000000000000000010000000002B
S3150800972030B5012285B00C21044611F0F5FBE0B1F5
S315080097309FED117B0246124B043280ED017B0260DD
S315080097400FCB6D4685E80F000E4B0F491A68204669
S315080097500EF03EFE00222946204621F093F92046C7
S315080097606FF07CFE012005B030BD20460EF0DEFD10
S31508009770012005B030BD00BF00000000000000F069
S315080097808018080854AC0020D8B9F0FF0000000083
S315080097902DE9F04F2DED048B03689DB0DB689847E3
S315080097A0002800F091850368A94ADB68934283463E
S315080097B040F086850BF10D030693A64BDFF8C8A289
S315080097C098699FEDA58ADFEDA58A42F069FA7F2898
S315080097D09FED9D9B0BF10C0540F3F280DBF8003002
S315080097E058461B6998470446002800F0B185DAF800
S315080097F020300133CAF82030DBF8003001225E68D9
S315080098000DF123014FF47A735846B047012840F00A
S315080098101E859DF82330542B15D8452B16D9463B63
S315080098200E2B13D8DFE813F0DB001200120012002B
S315080098301200120012001200120012001200D300C9
S315080098401200D300EF00742B00F0DD80DBF8003047
S3150800985001225E6809A90A235846B047012840F044
S3150800986064859DF823309DF8246046EA032637462A
S315080098709BF8303436B207F10409002F00F0F38460
S3150800988040F21E41894500F3EE84DBF80010D1F85A
S315080098900480002B00F0AA834FF47A734A462946BF
S315080098A05846C04781459BF80C8040F033874046B0
S315080098B03DF08AFC8146002800F05187AB593246B4
S315080098C0002128461EBA65F0E7F8864240F0D5839F
S315080098D001238BF8303424205EF040F8022F9BF8E1
S315080098E00C3040F3A083042FBBF80D6040F39E8331
S315080098F0BBF80F90A3F138023C2A3ED8DFE812F0F5
S315080099005A0307033D003D003D003D003D003D0074
S315080099103D00FC02CD02C8023D009C023D0011023A
S315080099203D003D003D003D0003023D003D00550160
S315080099303D003D002D011F0187003D00F001E201B9
S315080099403D003D0086013D003D003D003D006301B0
S315080099503D003D0007013D003D00F2003D003D0091
S315080099603D003D003D00C6008E003D003D003D0027
S315080099703D003D003D003D00870083215846059384
S3150800998068F0EEFF059B364A3648009350210BF0E7
S315080099906BFEDBF82C04334971F02CFC24205DF0B7
S315080099A0E5FF31484246414643F0C4F900242F4BAF
S315080099B01C70284B986942F073F97F283FF70EAF61
S315080099C02B4A2C4941F6F42056F014FFEEE72A48B4
S315080099D043F0B0F90021584666F054FAE7E7DBF899
S315080099E02C14264A264843F0A5F9DBF80030254909
S315080099F01E68584600230322B047DBF80030584655
S31508009A009B689847D3E758463EF0DAFDCFE75846B5
S31508009A103EF0D6FD24205DF0A9FFC8E79BF80D307F
S31508009A20022B00F07884032B00F05584012BB5D166
S31508009A3063F0BEF858463FF0CFFB24205DF096FF52
S31508009A40B5E700BFAFF300807015F5E5000000002C
S31508009A5049430208049D00200024744900007A4402
S31508009A602CBD0808744E012058BD0808DB180220D2
S31508009A7064B60808B4960808F0B9080810BA0808C1
S31508009A8028AA080820BA08083C4F0120DAF8183036
S31508009A905A46013349463046CAF818303FF0A8FB03
S31508009AA00746002840F0F18301464022C64877F071
S31508009AB034FCC6484A463946304464F0EDFF00BADD
S31508009AC00C900CAA58460097042301213FF036FB58
S31508009AD00C9BBF484A46314643F02CF924205DF0DA
S31508009AE045FF64E7BB4BBC4E1A78BC4B002A18BF2F
S31508009AF01E463046FFF709FC012103463246584602
S31508009B0000913FF01BFB24205DF030FF4FE7012159
S31508009B10B348B44FB44E0091002302683B70C0E9C5
S31508009B200033336058464FF400530C923FF006FB5F
S31508009B300CA871F0DFFB24205DF018FF37E7AB4A6D
S31508009B40DBF82C14AA4843F0F5F85846012166F0CC
S31508009B5099F924205DF00AFF29E7DAF80830A548C4
S31508009B600133CAF8083032464B46002143F0E2F882
S31508009B705A46494630463FF03BFB0746002840F028
S31508009B806F829D4BB3F8EE2C002A40F0D48308333D
S31508009B901E444B46324600210091584601213FF0AB
S31508009BA0CDFA24205DF0E2FE01E7012F934814BFA9
S31508009BB04B464FF4E563324659463EF0B3FD242042
S31508009BC05DF0D4FEF3E68E4B1B78002B40F06A83DB
S31508009BD08C490B68002B40F0438302228A4E0A60A8
S31508009BE07F4B186808B100200860C3E900620CA81A
S31508009BF000230C9371F07EFB7A4B584601221A70AB
S31508009C003FF0EAFA24205DF0B1FED0E6BBF80D80FD
S31508009C10BBF80F707D487FBA98FA98F6B6B2BFB20D
S31508009C203A46314643F086F8794853F0F9FE202E35
S31508009C3000F2FF81202E00F2988301A353F826F044
S31508009C407DA300086BA300086BA300086BA300089C
S31508009C506BA300086BA300086BA300086BA300089E
S31508009C606BA300086BA300086BA300086BA300088E
S31508009C706BA300086BA300086BA300086BA300087E
S31508009C806BA3000887A3000891A30008CFA30008C8
S31508009C908DA40008FDA4000807A500086BA300080A
S31508009CA06BA3000811A500086BA300086BA30008A6
S31508009CB06BA30008359A00082FA500083FA50008E1
S31508009CC04FA5000831460BF10F030122584666F0EE
S31508009CD07FF8504842F0E8FC24205DF047FE66E62F
S31508009CE05CF0A2FA0DF130094B4B4C4A009020214A
S31508009CF08DED029B48460BF0B7FC4846FFF705FB7F
S31508009D004A46431C47E70123002200925846194653
S31508009D100CAA8DF830303FF011FA24205DF026FEAB
S31508009D2045E6DAF824303E4E334FB26A0133CAF8B4
S31508009D302430D7F880359A4280F0E98142F074FCE5
S31508009D40D6E90C3253EA020640F0C681354E33682E
S31508009D50032B00F0ED813448B0EE480A44F01AFCB3
S31508009D60002840F0F681314E314809F0DBF83368B7
S31508009D70304A03F580510020C1F864391168136030
S31508009D8018702B48316009F05FF9326802F5805384
S31508009D90D3F864691378B61A2BB1134613F8011F62
S31508009DA00029FBD19B1A9E4240F0D782DBF80010AF
S31508009DB001200090334658468E690021B04724207A
S31508009DC05DF0D4FDF3E500BF4A7600105069001037
S31508009DD0E4BB0808C5180220A02D0120C44E0120A6
S31508009DE0204E0120D6180220182E01205CBB080838
S31508009DF028AA080840BC0808486900105817002017
S31508009E00D71802201C4E01201C2E0120CCBC0808A5
S31508009E1088340010C01F002070BB080878BB0808EB
S31508009E2048380020604E0120403800205017002096
S31508009E30644E01205417002006980744002307F8AB
S31508009E40013C9BF80D30202B40F0788410F8013F38
S31508009E50202BFBD07BB1034613F8012F002AFBD138
S31508009E60191A002903DC06E083421A7003D013F896
S31508009E70011D2029F8D08D4B1B68984700235846AA
S31508009E801A4619463FF0ECF824205DF06FFD8EE582
S31508009E904A4631460BF1110318E70DF130094846D9
S31508009EA042F002FCDAF80C3081480133CAF80C306B
S31508009EB042F040FF5BF014FA7E48B0EE480A44F0E0
S31508009EC069FB002840F0F48100231A46042158460D
S31508009ED03FF0C6F8484642F029FC60EE287A17EEAD
S31508009EE0900AFEF7F1FC02460B46734842F022FF41
S31508009EF024205DF03BFD5AE570484FF4E5630022E7
S31508009F0059463EF00FFC24205DF030FD4FE56C4EBF
S31508009F10002206F140083146012031F8023F5B0B6A
S31508009F201CBF03F1FF3300FA03F341451A44F4D189
S31508009F30002158463EF0DCF90DF130090746059434
S31508009F40079536F8023F5C0B1DD00122013C02FA48
S31508009F5004F45C4A0A9226220B9200940AAA06CABC
S31508009F60C3F30C03484665F009F8DBF800302246CF
S31508009F701D68494600235846A8473946224648469A
S31508009F8064F08AFD07464645DBD1DBF80030059CC0
S31508009F901E68079D3FBA4946042258460C97012376
S31508009FA0B047DBF8003058469B68984724205DF098
S31508009FB0DDFCFCE4444B1B78002B00F07681002086
S31508009FC062F0A0FE064600284FD0D0F8E4340121FE
S31508009FD0024603EB8303009158463FF0AFF830463C
S31508009FE062F0C0FE24205DF0C1FCE0E402460A23CC
S31508009FF029465846C0479BF80C8040463DF0E4F891
S3150800A00000283FF4D3ACDBF800300699D3F8049067
S3150800A010F21C05924FF47A735846C847059A82424D
S3150800A0203FF44CACC2E40026B14663E44FF00009A5
S3150800A03060E4B8F53A4F00F09083BA2E09D9B8F51E
S3150800A0403B4F00F03C85B8F53C4F40F08E8141F01F
S3150800A05007FEB8F5F24F40F088815CF01BF9E9E499
S3150800A060DBF82C04194971F0C5F85846842168F0C4
S3150800A07077FC24205DF07AFC99E49BF83034002BB9
S3150800A0803FF494AC334602469BF80C10104842F055
S3150800A09051FE1049DBF82C0471F0ACF882215846C1
S3150800A0A068F05EFC00238BF830347FE44C4E0120C8
S3150800A0B018BC0808E834001028BC080858170020FF
S3150800A0C04876001030F50020D718022074BC08081E
S3150800A0D010BB080848BB0808C01A61EB02010A1E33
S3150800A0E003DAC31C184642F100028308D7F8801524
S3150800A0F0C64800FB01F1C648A0FB010143EA82738A
S3150800A10009099210002099429041BFF61FAEC14935
S3150800A110C14842F0DBFDC14B93F8F835002B40F0FF
S3150800A120F680BF4E02F0D8FA3368032B7FF413AEDD
S3150800A130B849BC4842F0CAFDBA4843F0FFFF0123BC
S3150800A140B9483360B0EE480A44F024FA00283FF4D0
S3150800A1500AAEB54842F0A8FA3B89692B96BFB34ABE
S3150800A1604FF0000852F823805CF05EF8064642F08D
S3150800A170FDFAA64A0023FFF735F83146CDE90080F7
S3150800A180AB4BAC4AAC4842F0D5FDB7F8EC12012906
S3150800A19002D9AA4864F064FCB7F8EE12012902D97C
S3150800A1A0A74864F05DFCA74EDFF8D88206F10809D7
S3150800A1B036F8021F012903D9D8F8000064F050FCCC
S3150800A1C0B14508F10408F3D1D7F8CC210C2A134677
S3150800A1D0A8BF0C23002A7FF7C6AD9B4F0594B94646
S3150800A1E03C469A4E4FF000081F4629E0718B01291C
S3150800A1F001D964F035FCD4F85C0700284CD0B6F8D1
S3150800A2004A14012901D964F02BFCD9F83C0300282B
S3150800A21045D036F8021F012901D964F021FCD9F886
S3150800A2208C04B0B3B6F8001C012901D964F018FCF7
S3150800A23008F10108B84504F1200409F11C0948DAB7
S3150800A240D4F8DC050028D1D1D4F8E005CEE7804C57
S3150800A250A34500F0938100238BF83034FFF7A6BBA3
S3150800A26000221646BCE4002BF5D0DBF82C147948FE
S3150800A2703A4642F05FFDDBF82C04774970F0BAFFE6
S3150800A2808421584668F06CFBE5E7DBF82C04734933
S3150800A290E9E6D9F89004C5E7D4F86007AFE7D9F836
S3150800A2A04003B6E762F000FD92E462F081FC86E6C0
S3150800A2B036F074F86A483BF0BFFD58F0ABFC03E68D
S3150800A2C0984700287FF476AA1DB0BDEC048BBDE83C
S3150800A2D0F08F059C47E5002062F014FD064600282D
S3150800A2E000F02F82D0F8E4340121024603EB830301
S3150800A2F0009158463EF022FF304662F033FD58463C
S3150800A3003EF06AFF24205DF031FBFFF750BB424860
S3150800A31043F014FF05E762F0C7FC58463EF05CFFC1
S3150800A32024205DF023FBFFF742BB4E49DBF82C04E3
S3150800A33070F060FF8FE74C4940F25E200BF10F0684
S3150800A34056F058FA39464A46304676F0E6FF20E493
S3150800A3500A2007F0BDFAFFF729BB3246434941F602
S3150800A360861056F047FA002220E541493B46324618
S3150800A37040F25E2056F03EFAFFF75CBB3D4B83F891
S3150800A3804276FFF757BB3C4B00221A60FFF752BBD9
S3150800A39000283FF44FAB374BDFED380AB3F88A2D68
S3150800A3A09FED370AD3F8981D07EE902AB3F86A2668
S3150800A3B0F8EEE77A384667EEA00A07EE902AF8EE36
S3150800A3C0E77A27EE800A58F083FCFFF733BB0028AC
S3150800A3D03FF430AB274BDFED290AB3F88A2D9FED02
S3150800A3E0280AD3F8981D07EE902AB3F86A26F8EEDD
S3150800A3F0E77A384667EEA00A07EE902AF8EEE77A7B
S3150800A40027EE800A58F012FCFFF714BB40420F00F3
S3150800A410CDCCCCCC5C8609085038002000600010F2
S3150800A420604E0120504E012040380020B4D608085E
S3150800A43084BB08087015F5E58CBB08082C180A08B3
S3150800A44034180A088A6B00101CA10020D26B001071
S3150800A4508054012040BA080870BA0808CCBB08081E
S3150800A46010AA080824BA08088CBC0808ACBB080857
S3150800A47008BD080848690010284E0120CDCCCC3DFF
S3150800A4800AD7233CA4D6080800007A44BB1F172B1A
S3150800A49000F2AB8101A252F823F000BFFBA8000826
S3150800A4A0B9A80008359A0008EBA700082DA80008E7
S3150800A4B0EBA7000821A800086BA900085FA90008F7
S3150800A4C057A9000843A9000837A9000827A90008C2
S3150800A4D01FA9000813A90008D5A70008359A00087F
S3150800A4E0CBA70008C1A70008B7A70008ADA70008B2
S3150800A4F0A5A70008DFA7000899A70008F8B259F031
S3150800A50031F9FFF797BA384658F0C8FCFFF792BA00
S3150800A51000283FF48FAA5FED240AC64B3846D3F8C5
S3150800A520981DB0EE600A58F02DFCFFF783BAC248B2
S3150800A53042F0BAF8384665F02BFCFFF77BBABE48FE
S3150800A54042F0B2F8632065F023FCFFF773BA0028DF
S3150800A5503FF470AAB74BDFEDB90AB3F88A2DD3F8E2
S3150800A560981D07EE902AF8EEE77AB1EE000A67EE34
S3150800A570A00A384658F04CFCFFF75CBAB04B1B787B
S3150800A580002B3FF468AEDFF82C83AE4842F0D2FBCE
S3150800A59098F80030033B012B00F2ED802368AA48A7
S3150800A5A05E68012240F6B83309A9B0470646002876
S3150800A5B040F0EB80A44F06E0042B00F0DA81013668
S3150800A5C0072E00F0FE81236838465B6998470A2003
S3150800A5D007F07EF99D4B9E4853F83610894642F09F
S3150800A5E0A9FB23684946DB69384698470A2007F0DD
S3150800A5F06FF93846974965F075FB38463EF0EAF834
S3150800A60090B198F80030032BD6D13846924965F0B8
S3150800A61069FB38463EF0DEF80028D0D18F4842F074
S3150800A62089FB0A2007F054F90DF1300998F8003033
S3150800A6308B4F033B012B3E7040F2C7812368894A42
S3150800A6405B698148934240F007823FF0CBFE0A20BF
S3150800A65007F03EF93A7823687C49DB6951F83210ED
S3150800A660814A7948934240F0038265F0AFFC98F836
S3150800A6700030002B40F097817C4B7D4A40214846AC
S3150800A6800AF0F2FF7048494665F02CFB6E483EF02A
S3150800A690A1F8002840F0828198F80030032B00F0DA
S3150800A6A0AC80002B40F08681724B734A40214846A5
S3150800A6B00AF0DAFF6448494665F014FB62483EF042
S3150800A6C089F8002840F06A816C4B98F800201B68CE
S3150800A6D0002A40F0C3815D4A402152F83330684A67
S3150800A6E048460AF0C1FF5848494665F0FBFA5648FD
S3150800A6F03EF070F8002840F0518198F80030033B8E
S3150800A700012B40F2CB815F4842F014FB4C4A0023F0
S3150800A7101370A0E543464A4601465B4842F00AFBE9
S3150800A7205A49DBF82C0470F065FD8021584668F01C
S3150800A73017F900238BF83034FFF738B90698FFF776
S3150800A74089BB8421584668F00BF958463EF044FD0B
S3150800A75024205DF00BF9FFF72AB941F075FA4C4849
S3150800A760414642F0E7FA8321584668F0F9F88BF833
S3150800A7703094FFF71BB9474842F0DCFA464842F0E6
S3150800A780D9FA464842F0D6FA08E7454842F0D2FADE
S3150800A7902B4A002313705EE50021012052F092FD3A
S3150800A7A0FFF748B942F020FBFFF744B9042042F00E
S3150800A7B00BFBFFF73FB9032042F006FBFFF73AB958
S3150800A7C0012042F001FBFFF735B9022042F0FCFAFE
S3150800A7D0FFF730B9334B01221A70FFF72BB9002166
S3150800A7E0084652F06FFDFFF725B92F493A4640F261
S3150800A7F05E2055F0FFFFFFF71DB91C4B2B4A402181
S3150800A80048460AF031FF1048494665F06BFA0E488B
S3150800A8103DF0E0FF002840F0C18098F8003040E79E
S3150800A820234B012283F88024FFF704B954F0CCFBAC
S3150800A830FFF700B948690010E8340010CDCCCC3DCC
S3150800A840D518022074B60808805401206CD608086A
S3150800A85034B808084CB8080854B8080860B8080896
S3150800A860D3180220E5A30408CDFF0608882D012089
S3150800A87004B90808802D012030B908084C170020B3
S3150800A8804CB9080894B9080890BA0808D0BA080854
S3150800A890F4BA0808A4B6080810B7080864B7080880
S3150800A8A0E0B70808D9180220F0BC080820B908083B
S3150800A8B000300010D4180220824F834ED7F8F800D3
S3150800A8C00D2386F8C83008B30368DB689847F0EEAE
S3150800A8D0407AD7F80401C6ED317A002800F0EC80FA
S3150800A8E00368DB689847F0EE407A784AC6ED667AE0
S3150800A8F0137801331370FFF79DB8724F724ED7F86D
S3150800A900F8000C2386F8C8300028DDD1DFED707A10
S3150800A910DFE7704B012283F88124FFF78BB84FF0ED
S3150800A92057FEFFF787B86C4B6C4801221A7008F07F
S3150800A930A3FAFFF77FB80121084652F0C3FCFFF7D8
S3150800A94079B8614B002283F8C82003F5405383F891
S3150800A9508024FFF76FB84FF07FFDFFF76BB8012132
S3150800A960002052F0AFFCFFF765B868F07FFEFFF7EE
S3150800A97061B85B495B480DF1300965F0B3F9594890
S3150800A9801022494665F0C4F909287FF418AE5648DE
S3150800A99042F0D0F90A2006F09BFF47E6534849469D
S3150800A9A042F0C8F9B2E6524B524A402148460AF0EC
S3150800A9B05BFE67E6504B514A402148460AF054FE72
S3150800A9C078E64F4BFF221A70A0E64E49454865F0D7
S3150800A9D089F940224946434865F09AF94049414871
S3150800A9E065F080F93F484022494665F091F998F8A4
S3150800A9F00030032B48D044493A4865F073F94022A1
S3150800AA004946384865F084F94049364865F06AF998
S3150800AA1034484022494665F07BF998F80030032B04
S3150800AA2028D03B492F4865F05DF92E483DF0D2FE07
S3150800AA3038492C4865F056F92A483DF0CBFE98F877
S3150800AA400030032B7FF4FAAD2648334965F04AF9FE
S3150800AA5024483DF0BFFEF1E59847F8E52F4A02EB9A
S3150800AA60C30340211B792E4A48460AF0FDFD3AE603
S3150800AA709847FCE52B491B4865F034F940224946BE
S3150800AA80184865F045F9CCE72749164865F02AF9CC
S3150800AA9040224946134865F03BF9ACE7114823497B
S3150800AAA065F020F90F483DF095FE00283FF42BAEDF
S3150800AAB01F4842F03FF926E6DFED057A15E741F033
S3150800AAC0B1F800BF24AD002000000010D8180220FD
S3150800AAD00000000000300010DA180220404E012065
S3150800AAE078B808088054012084B80808D0B908083E
S3150800AAF0882D012014B90808802D012040B90808BE
S3150800AB00D31802209CB80808B8B80808C4B80808BA
S3150800AB10DCB80808ECB80808F8B808086CD60808BD
S3150800AB2060B90808D0B80808ACB808086CB90808AD
S3150800AB3078B908080000000010B590F8E03090F8E1
S3150800AB40DCC0174C83F0010363F3000C80F8DCC00B
S3150800AB504FF48C620021204676F0DFFB4FF4F0724A
S3150800AB60002104F2644076F0D8FB0E4B9FED0A7B79
S3150800AB7003F5535103F5405301ED027B03F6CC7000
S3150800AB8003F57D6100220024C3F8884902600A6043
S3150800AB9010BD00BFAFF3008000000000000000F009
S3150800ABA028350010000000109FED116BD0ED0F7ACC
S3150800ABB080ED030AB5EEC00A0123F1EE10FA80ED26
S3150800ABC0066BC0ED097A80ED0F0A03720BD9DFED2B
S3150800ABD00A6A86EE807AF5EE407AF1EE10FA80ED92
S3150800ABE00A7A03D07047054B8362704768F098BFAE
S3150800ABF00000000000000000ABC222480000C07F31
S3150800AC00D0B5554C554E0027204632463B463F2187
S3150800AC1070F05CFB04F1280032463B46402170F098
S3150800AC2055FB04F1500032463B46412170F04EFB7D
S3150800AC3004F1780032463B46422170F047FB04F1A6
S3150800AC40A00032463B46432170F040FB04F1C800A1
S3150800AC5032463B46442170F039FB04F1F000324697
S3150800AC603B46452170F032FB04F58C7032463B4674
S3150800AC70462170F02BFB3A4B3A4919604720187168
S3150800AC80482083F82400492083F844004A209FED91
S3150800AC902E6B9FED2F7B83F864004B2083F884008E
S3150800ACA04C20002283F8A4004D244E2083ED046B2B
S3150800ACB083ED0C6B83ED146B83ED1C6B83ED246BBA
S3150800ACC083ED067B83ED0E7B83ED167B83ED1E7B82
S3150800ACD083ED267B1A721A73196283F8282083F883
S3150800ACE02C20196483F8482083F84C20196683F8C9
S3150800ACF0682083F86C20C3F8801083F8882083F8CE
S3150800AD008C20C3F8A01083F8A82083F8C44083F8E1
S3150800AD10E40083ED2C6B83ED2E7B83ED346B83EDA2
S3150800AD203C6B83ED367B83ED3E7B83F8AC20C3F822
S3150800AD30C010C3F8E01083F8C82083F8CC2083F845
S3150800AD40E82083F8EC20D0BD002D3101000000007A
S3150800AD50000000000000000090230020400D0300C2
S3150800AD60F81A0020582E0A082DE9F04F2DED048B0D
S3150800AD70544891B0FDF75CFB20B111B0BDEC048BD3
S3150800AD80BDE8F08F01255049009503464622044642
S3150800AD904E4842F0EFFD4E48046140F01FFD4D4B12
S3150800ADA04D4A1B6813801B0C93704C4B9D6301F036
S3150800ADB093FC5CF097FC4A494A4843F0DBF94A4958
S3150800ADC04A4843F0D3F94A494A4843F0CFF94A4931
S3150800ADD04A4843F0CBF94A494A4843F0C7F94A4B2F
S3150800ADE01D78002D40F06581484E494841F0A2FF84
S3150800ADF031222946474876F090FA96F8790161F0AB
S3150800AE0065FB96F8740561F061FB96F8DF0261F060
S3150800AE105DFB4149414843F0ADF941486FF0BAFA44
S3150800AE2040486FF0B7FA404A4048536843F4000375
S3150800AE3053606FF0AFFA3E4890F83C33002B00F0B1
S3150800AE4045833C4B9A689B6C5380202383F3118877
S3150800AE5005F0BCFB384B1A78511E012900F21E83F7
S3150800AE6036495960012A1DD1354A3648116C41F0D8
S3150800AE7010011164116E41F010011166116E116A0C
S3150800AE8041F010011162116A21F0100111622E4978
S3150800AE90126A98604FF48002702381F83633C1F83D
S3150800AEA084214A60244E2548B1680268B1FBF2F352
S3150800AEB0013B9BB203FB0222914200F00F83234819
S3150800AEC005F002FA581A0020F8200A080CA30020F8
S3150800AED068AB01200C210A08088E0120483800209A
S3150800AEE02977060810210A08955106081C210A0820
S3150800AEF0C952050830210A087D4C05083C210A0874
S3150800AF00E555050850210A08C518022048690010A9
S3150800AF1068210A081C82012089CF040880210A08B2
S3150800AF20449B0020209B002000230140FC9A00201F
S3150800AF30F8650020882B0120C4990020CC18002031
S3150800AF400038024000BD010500E100E0702F0A0844
S3150800AF50B3F5AA7FC1F04B807BB9AF4BAF49B04A76
S3150800AF60B048C3E902214FF4A271102219805A6031
S3150800AF70AD4900221A6143F0F9F8A74F264646B9AB
S3150800AF803B8833B1B86803681B689847031EC1F24B
S3150800AF90CB820026A54FDFF8C0830096B7F842207B
S3150800AFA0A3493346404642F0E5FC0096B7F8D82256
S3150800AFB0A0493346A8F5867042F0DCFC0096334675
S3150800AFC0B7F82E239C49A8F5D47042F0D3FC9B49C8
S3150800AFD09B4843F0CBF89B4B1E7097F87135D90701
S3150800AFE003D497F87035DB0948D0DFF84082B8F803
S3150800AFF04410B8F8460041F06DF8B8F870160746E0
S3150800B000B8F8720641F066F80646002F01F09480FB
S3150800B010874201F0F98298F85C36062B96BF8A4A71
S3150800B0208A4B52F82330814A186892F86426596880
S3150800B030520608AB03C302D501F10043099308A9D8
S3150800B040384606F025FB002E41F07980804BC3E98F
S3150800B0500076764B93F87135DB0706D5DFF8FC8268
S3150800B06098F8AC33002B01F0D982704B93F8703501
S3150800B070DB0941F0B781734B01221A70754B1B78B7
S3150800B08053B96A4BB3F8EC023EF0D2F8002801F047
S3150800B0907F81714838F00CFE644B93F8E463F60937
S3150800B0A041F0B9803EF0B6FD3EF0C8FD6B4841F070
S3150800B0B041FE6B496B4843F061F86B496B4843F0B6
S3150800B0C059F85A4B93F83423120700F1D181614B92
S3150800B0D0197879B9554B66481B89692B9CBF654A0F
S3150800B0E052F8231041F026FE4FF0D2F96249634820
S3150800B0F043F040F8624DDFF8688205F580674FF047
S3150800B100FF36294632464046203508F0AFFCAF42A6
S3150800B110F7D15C485C4943F031F85C4800F5805546
S3150800B12095F8AC31002B00F0C781594959485A4D5A
S3150800B13043F028F859495A4843F018F859495A48E3
S3150800B14043F014F895F85C36002B00F0AA81574BAB
S3150800B1505A68002A00F0BD815AF0C2F800283FF468
S3150800B1600CAE5349534843F001F85349534842F04B
S3150800B170FDFF5349534843F009F85349534842F0F1
S3150800B180FDFF5349534842F0F9FF5349534842F0EB
S3150800B190F5FF5349534842F0FDFF5349534842F0DF
S3150800B1A0E9FF5349534842F0E5FF5349534842F0F3
S3150800B1B0E1FF5349534842F0DDFF5349534842F0F3
S3150800B1C0DDFF30F0FDFB524857F006FD514B524962
S3150800B1D0524801221A6042F0C9FF5149514842F0CB
S3150800B1E0C5FF514A514805216CF004FB50495148A6
S3150800B1F042F0BCFF5049514842F0BCFF5049514803
S3150800B20042F0B8FF5049514842F0BCFF50495148F6
S3150800B21042F0B8FFA6E000BFEC2C0120C8210A08BE
S3150800B22060940020D0210A0869C4060848690010FD
S3150800B230F8210A0800220A080C220A0845C5060849
S3150800B24018220A08DC180220382F0A08542F0A0880
S3150800B250008E0120C518022088340010AC220A0886
S3150800B2607932060860210A08AD360608CCA2090814
S3150800B270C4220A08B4D60808558C050850370A08A7
S3150800B280986F0020D8220A080D43020898730020F8
S3150800B290D5600208B03A0808508500202543020800
S3150800B2A0E8220A08A9520208F4220A088838002067
S3150800B2B0C545060800230A086D4506080C230A0832
S3150800B2C00548060818230A082147060824230A08F9
S3150800B2D0D14606082C230A08F946060838230A0820
S3150800B2E04947060844230A08414406084C230A0825
S3150800B2F01D44060858230A089D43060860230A08C1
S3150800B300C14306086C230A08E543060878230A0899
S3150800B310782B0010208E012095DF050880230A0867
S3150800B32001000608A0230A08B5DF0508AC230A08A9
S3150800B33015E60508C4230A08E1010608D0230A0809
S3150800B340E9010608DC230A0805E60508E8230A08D1
S3150800B3500DE60508188D09083CA4002080CD0010CC
S3150800B36004AB00207749784842F010FF77497848BF
S3150800B37042F008FF7749784842F008FF774978484D
S3150800B38042F004FF7749784842F000FF7749784849
S3150800B39042F0F0FE7749784842F0F4FE774978485B
S3150800B3A042F0F0FE7749784842F0ECFE7749784853
S3150800B3B042F0E8FE7749784842F0E4FE7749784853
S3150800B3C042F0D4FE7749784842F0DCFE774978485F
S3150800B3D042F0CCFE7749784842F0D8FE774978485B
S3150800B3E042F0D4FE774B1B78002B00F00582764C92
S3150800B3F076490125002348222046009542F0BAFAEC
S3150800B400002347227249009504F10C0042F0B2FA73
S3150800B410704B6C4A93F87D351278DB0700F1EF859F
S3150800B420684B1B780BBB6C48036140F0D7F9694B36
S3150800B430B3F8184520463DF0FBFE38B19FED670A84
S3150800B440674B6849684822466BF0B6FF614BB3F80C
S3150800B450284520463DF0ECFE38B19FED600A634B67
S3150800B4606049634822466BF0A7FF34F085FF84E401
S3150800B47093F84F27002A3FF42AAEB3F842003DF06E
S3150800B480D7FE00283FF423AE00220092594B5A48B3
S3150800B4907F224FF4CA6107F013FC18E6574804F0F8
S3150800B4A013FF0123D5F8581685F85C3628463CF074
S3150800B4B00FFFC5F860064AE60123D5F8A81185F8F6
S3150800B4C0AC3119F0B9FEC5F8B0012EE63DF040FDE5
S3150800B4D0B7E44B4A1168596013603DE6D0E90201AA
S3150800B4E0F26821F0FF010027176050609362176128
S3150800B4F00223D160337004F07FFF202383F3118881
S3150800B50005F064F805F02EFB3378022B40F06C85C5
S3150800B510032372683370F36852680921D9620121DE
S3150800B52059615F621F6112B1DA680A43DA608522DF
S3150800B5301A6004F061FF33493348344E42F01AFE6C
S3150800B540012768E085E705087022090819E6050855
S3150800B550AC3D0808A5E00508F0230A08F1E005084F
S3150800B56004240A083DE105081C240A0851EB0308CF
S3150800B57038240A0895E0050840240A0885E00508E5
S3150800B58054240A0881E2050864240A0889E20508A1
S3150800B59074240A08D5E1050884240A083DD9050853
S3150800B5A08C240A0891E2050898240A080DCF040895
S3150800B5B0B0240A080D110608BC240A0889E1050802
S3150800B5C0D4240A08C518022018A30020B8270A0898
S3150800B5D0CC270A084869001044AC012000401C46E4
S3150800B5E00C190020EC270A08E84C0020181900203E
S3150800B5F0604D00200D1D050848690020802F0A08A7
S3150800B600FC17002009CE04088C210A08F8810120BD
S3150800B610384606F05DF93368012BF9D9694B93F87A
S3150800B620E523170778D5D3ED757ADFED676A9FEDC1
S3150800B630676A93F870359FED660A67EEA67AB6EEE6
S3150800B640007A67EE877A180786EE277A614BDFED70
S3150800B650626AD3ED007A9FED616A27EE267AF4EEE8
S3150800B660C67A48BF37EE077AF1EE10FAD8BFF0EE81
S3150800B670477AF0EE046A27EEA67AB4EEC07AF1EEBF
S3150800B68010FA00F33B879FED507A554B67EE877AA1
S3150800B690002287EE800A63F0FFFC5A60B0EE087A53
S3150800B6A0C0EE076AF7EE004A36EEA45ABFEE007AF5
S3150800B6B0A0EE005A74EEE65A84EE856AA0EE007A89
S3150800B6C0E0EE005A37EE077A66EE866A67EE067A85
S3150800B6D026EE256AB1EE667AC3ED006A83ED027A34
S3150800B6E0C3ED037A83ED046A364B93F82F36590770
S3150800B6F0C3F3800600F18E863A480322562141F0AC
S3150800B7004DFC39480322572141F048FC374890F848
S3150800B7103C33002B00F004872A4B93F83433DE07BA
S3150800B72000F1DF85274B93F834339A0700F1D48567
S3150800B730244B93F834335B0700F1C985214B93F802
S3150800B7403733DF0700F1BE851E4B93F82D361E07EB
S3150800B75000F1B3851B4B93F82D36D80600F1A88562
S3150800B760184B93F8343F002B3FF407AC204E0F33A9
S3150800B7705B010022C6E9232306F1A800012314224F
S3150800B78086F8A330C6F8942040F08EFFB369002BE4
S3150800B79000F0AC85174A13885168194489B22246C5
S3150800B7A00120002A7FF4D8AB002B3FF4D6ABB3F5C3
S3150800B7B0A27FBFF4CDABB1F5A27F0246F1D9FFF760
S3150800B7C0DCBB00BF48690010DB0F4940000061443C
S3150800B7D0809F5548D078001000007A440AD7233C49
S3150800B7E05C6B0120B0210A08BC210A08B06200205F
S3150800B7F060940020EC2C0120BC49BD4842F0B6FC00
S3150800B800BC4ABD4805216BF0F5FFBC4ABC4810216F
S3150800B8106BF0F0FFBB4ABC4811216BF0EBFFBB4A4B
S3150800B820BB4810216BF0E6FFBA4ABB4811216BF002
S3150800B830E1FFBA4ABA4811216BF0DCFFB949BA48A8
S3150800B84042F094FCB949BA4842F090FCB949BA4862
S3150800B85042F08CFCB94ABA4805216BF0CBFFB949CE
S3150800B860B94842F083FCB949B94842F07FFCB94966
S3150800B870B94842F07FFCB949B94842F077FCB94962
S3150800B880B94842F073FCB949B94842F06FFCB94966
S3150800B890B94842F06FFCB948B94A11216BF0AAFFC2
S3150800B8A0B84890F83C33002B00F02C84B64EA6F22C
S3150800B8B0AC5557F0AFFBB548314641F005F9B5F838
S3150800B8C0CA023DF0B5FC68B105F2C46393ED000AFF
S3150800B8D0DFEDAF0AAF4AB049B048B8EEC00A002358
S3150800B8E06BF0A4FCAE4BB3F9E420B3F952109142C5
S3150800B8F001DAA3F85220AB4BAB4FAC4DAC4EDFF898
S3150800B900A0927B6003F14001B96003F15001F96030
S3150800B91095F8F11ADFF800B34FF07E524FF014088D
S3150800B92040F2947ABA613A617A61B26132617261BF
S3150800B93018FB01A103F16002494405F6F420726080
S3150800B94003F1A002B033B260F36041F0BDF895F898
S3150800B950411BC5F8247B18FB01A1494405F6443070
S3150800B960C5F828BB41F0B0F895F8911BC5F8746B7B
S3150800B97018FB01A10BF17803494405F69430C5F884
S3150800B980783B41F0A1F895F8E13BC5F8C47B18FB74
S3150800B99003A149440BF1F00305F6E430C5F8C83BAA
S3150800B9A041F092F80BF5B473C5F8183CC5F8146C59
S3150800B9B053F0B8FD99F8E433590600F196837D48AB
S3150800B9C038F076F97C4838F073F97C4838F070F925
S3150800B9D07B4838F06DF901205BF0A8F8704B93F8B6
S3150800B9E03723920640F1218393F87125D70704D5AA
S3150800B9F093F87035DB0940F0A085724940F25E2065
S3150800BA0054F0F8FE664D95F82D369E0640F12083D3
S3150800BA1095F87035DB0940F079836B4940F25E2072
S3150800BA2054F0E8FE212038F017FA48B95C4B674D08
S3150800BA30B3F86283B3F86473AB68002B00F08585AE
S3150800BA40574B93F81E124B1E2F2B0AD8604CDFED6E
S3150800BA50500A9FED600A204641F0EAFA204638F07F
S3150800BA6027F94F4D5C4995F836025C4F5BF01EFD91
S3150800BA7095F82C035A495BF019FD5BF031F805F689
S3150800BA804256002405F6735515F8012F36F8021F9D
S3150800BA900134384641F082FA082CF5D1514952480A
S3150800BAA042F074FB5149524842F060FB51495248F2
S3150800BAB042F05CFB5149524842F05CFB384B93F824
S3150800BAC07D355C0600F168834E494F4842F04EFBCF
S3150800BAD04E4B93F827201AB94D4A1168D96213605C
S3150800BAE04A4E4C4CB4614EF6602297E07DF3050849
S3150800BAF0E8240A0825F30508F8240A08C12C0608CC
S3150800BB0008250A08A12C060814250A08752D060812
S3150800BB1020250A08552D06082C250A08F12D0608A1
S3150800BB2038250A0889F3050844250A0811F2050884
S3150800BB3054250A081DF2050860250A08B9F1050802
S3150800BB406C250A08E5F3050878250A08DDDA0508EC
S3150800BB5088250A08F537060898250A08C9F2050847
S3150800BB60AC250A0879F20508BC250A0839F405083F
S3150800BB70C8250A08E9DA0508D4250A08E0250A08C6
S3150800BB807D2E060810910020F46E0010C0060010E5
S3150800BB9000000000B0A30020EC250A08F8430020A6
S3150800BBA048690010E09C001024AC01200010001029
S3150800BBB004AC0120DCAB0120CCAB0120BCAB0120DE
S3150800BBC0ACAB012000260A0838260A08CC910120C9
S3150800BBD088900020CDCC4C3DE890002074260A08B9
S3150800BBE0C0900020C14B060880260A08EDDF03082E
S3150800BBF090260A08358B0408A4260A086D46060806
S3150800BC00B4260A08957A040828A80808D84D0020FA
S3150800BC10F4B10020BE6E0010F84900200023C6E9E2
S3150800BC200223304604F22A630025336286F826503A
S3150800BC3041F074FAB34BB44A5A60012102F5807296
S3150800BC4086F827109A604FF07E562032AF489E61DC
S3150800BC5029461E615E61DA6034F0BAFAAC4BAD4A29
S3150800BC60AD48AE495A6002F580729A60416010325A
S3150800BC7001F58071DA608160A94A9E611031C16060
S3150800BC801031516040311E615E619160A54B96612D
S3150800BC90103116615661D16001F160021031C3E9B5
S3150800BCA001128661066146619E611E615E6101F14F
S3150800BCB060029D4EDFF81CB3DFF81C93DA60A4F22D
S3150800BCC07654B4F8DC7938463DF0B2FA002838D014
S3150800BCD0B4F8E039954902933A460C2707EE903AAC
S3150800BCE007FB05B73846B8EE678A41F0EBFE029BBC
S3150800BCF04FF0780AB3F100080AFB059A18BF4FF00F
S3150800BD000108002B40F08481894B53F8253004F64E
S3150800BD1006225A604FF07C529A6104F6E6129A603F
S3150800BD204FF080421A6104F6F612DA604FF07E523E
S3150800BD305A61C6E903A7736104F6DC1386F808801E
S3150800BD4073600135042D04F16C0406F11806B8D1A8
S3150800BD50784C794D94F8643404F29C50002223F010
S3150800BD60070305F51861A5F8002684F8643440F041
S3150800BD70ABFE95F8CD30714DD8064CBF04F59860EA
S3150800BD8004F591606E4C294640F09EFE204630F040
S3150800BD900BFE51F08BFBA4F5BA62002182F8581409
S3150800BDA0A4F5BA72674B1360A5F2F455A4F5A87208
S3150800BDB065486649136042F0D9F995F8CD30D90639
S3150800BDC04CBFA4F58870A4F5A4705B4C04F2F4513A
S3150800BDD004F2FC5304F5BF620D681968C36A126859
S3150800BDE05A6002681D6052689960904758495948D8
S3150800BDF042F0BCF9584B1B78002B36D14D4B574AAD
S3150800BE0057485849584D594EC3E9EF02584842F029
S3150800BE10ADF95849584842F0A9F9584B5849594A72
S3150800BE205D614FF07E50886108619061106118610C
S3150800BE3004F6C410C8605448486154489861544888
S3150800BE4098600630D86004F6646004F51D64C1E99C
S3150800BE5001045049566004F66C3400F5DD60C2E909
S3150800BE6002405561596051F019F9334B93F87C3506
S3150800BE709A0600F15E8151F065FA4749474820F075
S3150800BE80BFFB474B4749A3F6A4624FF07E54B2F86E
S3150800BE904C00454A4B60A3F59C65A3F2D4468C61D9
S3150800BEA024330C6194611461404CCD60C2E90136BB
S3150800BEB0D560354B8E6000254B61536125703DF08A
S3150800BEC0B7F958B12B46DFED3A0A9FED3A0A3A4AD6
S3150800BED03A493B486BF0AAF901232370164B394CB3
S3150800BEE0B3F83A0E002525703DF0A2F900283FF474
S3150800BEF07EAA2B469FED2F0A334A34493448F6EE7C
S3150800BF00000A6BE024C2002074A70010901C0010E1
S3150800BF10FCA00020B4A80010CC9D0020D4A90010D5
S3150800BF20AC9D00208C9D0020E49101206C270A0816
S3150800BF308C2F0A0800000010486900103C6F00109A
S3150800BF40D00500100000C8C274270A08D94E050893
S3150800BF50F5D2040880270A08C5180220C81F002041
S3150800BF6090200020DDD205080AD7233C447E001025
S3150800BF708C270A08F555050898270A088CAB01206E
S3150800BF804C8801202C8801200000C842CDCCCC3D2D
S3150800BF902CAE001008AE00106F86140008C20020F0
S3150800BFA0EC770010F8AC0020D8AC0020021902206B
S3150800BFB0CDCCCC3D0000C07FF0A30020A0270A0806
S3150800BFC0308C00200119022030A40020AC270A0872
S3150800BFD0B88B0020DC180020A88C00206BF026F90E
S3150800BFE001232370FFF703BAC44804F06DF9B1F5CD
S3150800BFF0AA7F4FF001027FF6D4ABFEF7BEBF002A38
S3150800C0007FF433AABE49BF4842F0B0F8FFF708BA32
S3150800C010BD4BDFEDBE0A53F82510B0EE480A0023E3
S3150800C0203A4650466BF002F96EE693F84C32013BFD
S3150800C0302F2B02D8B64837F03BFEB64B93F84D3255
S3150800C040013B2F2B3FF6DEACB34837F031FED9E47F
S3150800C050B249B34895F8D76242F088F8B149B24870
S3150800C06042F084F830463DF099FDB04BC3F85803CA
S3150800C070002800F0E28203F2463603F26F379B4649
S3150800C08005F55B7503F5807A039405E00BF1200B43
S3150800C090D34505F102056DD000234FF0010826F8B7
S3150800C0A0028F07F8013F9BF87C0337F0D5FE04465C
S3150800C0B00028EBD1B5F8009048463DF0B9F80028BD
S3150800C0C0E4D09A4B494603F55770C3F8604340F0ED
S3150800C0D037F897484246494640F060FF2B88338038
S3150800C0E00BF55E7037F0E4FDD0E7924857F026F876
S3150800C0F0914857F023F8914857F020F8904857F0A0
S3150800C1001DF85CE43CF024FFFFF7D0BB8D4857F0E0
S3150800C11015F88D4857F012F88C4857F00FF88C48E8
S3150800C12057F00CF88B4857F009F88B4857F006F883
S3150800C13078E456F0B3F89EE600283EF49FAF754BB8
S3150800C14093F85E36062B00F24B81844A52F8233068
S3150800C150704A186892F864265968D20906AB03C370
S3150800C16002D001F10043079306A9304605F090FA7C
S3150800C170FEF76CBF6D4D039C95F83C33002B7FF49E
S3150800C18051AC0123D5F8381385F83C3328463CF0E2
S3150800C1908FF8C5F8400345E4714B93F8D421002A7B
S3150800C1A000F0098193F8D521002A00F01681D3F80A
S3150800C1B0D8310B939DED0B8A18EE100AFCF784FB19
S3150800C1C00446224667480B460D4640F0B3FDB4EEDA
S3150800C1D0488AF1EE10FA80F1E280DFED637AB4EE78
S3150800C1E0E78AF1EE10FA00F3DA80DFED607AB4EE52
S3150800C1F0E78AF1EE10FA00F1D2805D4840F09AFD28
S3150800C200574B40F20111002283ED648AA3F88C1182
S3150800C21083F88E2158E493F8D829052A00F2128269
S3150800C220DFE802F03639332C034340F2F113514963
S3150800C23000220B80504B51481A8037F039FD504880
S3150800C24037F036FD334B4F4993F8E4230E709006CA
S3150800C2507EF528AF93F8D829052A00F2FA8101A3BA
S3150800C26053F822F09DC200089DC200089DC200082E
S3150800C270A5B000089DC20008A5B000083D4B4FF4C4
S3150800C28021721A8040F28522D4E74FF4D073CEE7A4
S3150800C2904FF4F873CBE74FF40073C8E73A4940F612
S3150800C2A06E0054F0A7FAFEF7FDBE40F20933BEE76A
S3150800C2B0062040F081FFFFF753BA052040F07CFFC7
S3150800C2C0FFF748BA042040F077FFFFF73DBA03208E
S3150800C2D040F072FFFFF732BA022040F06DFFFFF719
S3150800C2E027BA012040F068FFFFF71CBA274B1A68E7
S3150800C2F0B26114361E60FFF74DBA00BF5C2F0A08FC
S3150800C3000D450608E0270A0814300A080000000050
S3150800C310F8AB012048690010ECAB012005D40408ED
S3150800C32060260A0859D4040868260A083028002016
S3150800C33018970808308F0020F88E0020C08E00203D
S3150800C340888E00205890002028900020F88F002022
S3150800C350C88F0020988F0020688F0020382F0A0881
S3150800C36024AD0020C0260A080000DC420000704206
S3150800C370FC270A08C2180220C0180220309500209F
S3150800C38010950020071902206C220A08FC170020C5
S3150800C390B54B93F88C046EF08FFFFEF77DBEB3495C
S3150800C3A022462B4640F6B20054F026F8B04840F034
S3150800C3B0C1FCFFF789BBD3F8DC4174B1236820467A
S3150800C3C09B68984748B1236821465B680AA898473E
S3150800C3D09DF82830002B7FF4EDAE9FEDA68AEBE69C
S3150800C3E0A54BB5E6A548C0F8687327B190F83C3365
S3150800C3F0002B00F01081A248C0F86863002E3EF4B6
S3150800C4003AAE90F83C33002B7EF435AE3CF0A0FDF6
S3150800C410FEF731BE9B4BDFED9C9A9FED9C9ADFF8A9
S3150800C420B0A20FCB10AF07E90F004FF000090027A5
S3150800C4309FED978A0DF1300BB84607EE907AF8EE25
S3150800C440E77AFBEC018A77EEA77A08F1010827EE6E
S3150800C450A90A4F4480EE090A70F05EFAB8F1040F93
S3150800C460A8EE808AE9D109F10109B9F5806FAAEC2D
S3150800C470018ADCD1874BDFED866A1868DFED865ABC
S3150800C4809FED866ADFF84CC205EE104AAE464FF4B9
S3150800C4907A6700220CFB02F307EE903AF8EEE77A89
S3150800C4A0411C67EEA57A914237EEC67AB0EEC77A96
S3150800C4B0BDEEC77A17EE103A05D1B8EEC57A37EE53
S3150800C4C0C77AF0EEC76ABB4204DABDEEE75A1F46E2
S3150800C4D0B64610460132B2F5007FDBD1BEF1000F39
S3150800C4E001D06C4B18606E4B15EE101A03F68812C5
S3150800C4F0A3F88619C2ED006AFFF7FEB817EE900A90
S3150800C500FCF7E2F902460B46CDE90023654954A338
S3150800C510D3E9002340F25E2054F06CF9FFF7E4B843
S3150800C5203CF016FDFFF7F8B832465F4940F25E2048
S3150800C53054F060F90126FEF722BD5C4856F0FEFD70
S3150800C5405B4856F0FBFDFFF75DBA40463CF070FECF
S3150800C55000283FF475AA38463CF06AFE00283FF4E6
S3150800C5606FAA544E05223046414640F017FD052273
S3150800C5703946304640F012FD40466BF095F9414683
S3150800C580286030463FF02CFA686038466BF08CF924
S3150800C590394603463046AB603FF022FA6A68296896
S3150800C5A0E860012606FA02F292B20A8306FA00F356
S3150800C5B0AA689BB213830DF113010F23284632464E
S3150800C5C08DF8133066F090FB32460DF112012846BD
S3150800C5D066F0A4FB9DF81230B12B2BD0BD2B7FF44F
S3150800C5E02FAA4CF220433446334DADF81430284672
S3150800C5F0022205A92C6166F077FB01232F482B75CB
S3150800C60037F056FBFFF71CBA2D4940F25E2054F06E
S3150800C610F1F8FEF733BD3CF09BFCECE60123D8F8B5
S3150800C620A81388F8AC3340464AF0D8F8C8F8B003DF
S3150800C630FEF71BBD44F21043D6E7224840F07AFBCA
S3150800C640FFF7F0B9204940F66E0054F0D3F82E46AD
S3150800C650F8E51E4940F66E0054F0CCF8FEF722BD08
S3150800C66000000000F0B30A4100300010F0260A0866
S3150800C6701C270A0867A6CA42542F0A0810CA0010BF
S3150800C680A0C60010081A0808DB0F494000C07F44FE
S3150800C69000000000485D01200000803A00007A454D
S3150800C6A00010001090210A08DC210A08304C0020EE
S3150800C6B0F04B002070260A08CC910120C04C0020BF
S3150800C6C020220A08249708084C220A0894220A08F5
S3150800C6D0F81601207E5603000D480E4AC3680E4917
S3150800C6E09FED097B10B4002443611C700830046276
S3150800C6F080F82440094B5DF8044B80ED0A7B40F036
S3150800C700E5BA00BFAFF3008000000000000000009B
S3150800C71048380020D8380A0844B008085C86090852
S3150800C72070B5214ED6F8D036D6F86048A6F8D406A5
S3150800C730013382B00546C6F8D036ACB1002306F5FB
S3150800C740DD6001E0A3420FD01A010133815AA942E4
S3150800C750F8D1164C144420463FF0A6FF144802B000
S3150800C760BDE870403FF0A0BF04F0A4F9D6F86038E1
S3150800C770104C0190172B0FD803F26E619FED087BC2
S3150800C78004EB011484ED007B258101330198C6F87A
S3150800C790603805F027F8DEE7019805F023F8DDE7AD
S3150800C7A000000000000000F000600010E0660010C5
S3150800C7B0D8660010000000102DE9F04F2DED068B0D
S3150800C7C00123DFED5BAA85B00A24BFEE009AB8EE16
S3150800C7D0008AF6EE008A06461D4629EE08AADFED0F
S3150800C7E0559A2AEE09AA4FEA450B32464FEA051A28
S3150800C7F0E800B7EE009A0021871802F1040990466E
S3150800C8000B46D7ED010A97ED000A69EE207A20EE6D
S3150800C810E97AE9EE807A5B44A9EE007AF4EE477A83
S3150800C820F1EE10FA58D698ED016A59ED016A36EE1E
S3150800C830676A76EEC76A87ED016AC7ED006A98ED02
S3150800C840016A59ED016A77EE867A36EE877AB3F58C
S3150800C850806F09ED017A5744C8ED017AD144D04476
S3150800C860CFD369EE8A7A2AEEE97AE9EE2A7AAAEE2F
S3150800C870097AB4EE677AF1EE10FA40D60131A94288
S3150800C88039EE079A79EEA79A02F10802B4D1013C6B
S3150800C8901DD05846FBF7F6FF02460B4622A1D1E902
S3150800C8A00001FCF793F9FCF73FFB09EE100A29EEA5
S3150800C8B0280A6FF073FBB0EE40AAB0EE490A6FF093
S3150800C8C06DFB5D46B0EE4A9AF0EE40AA85E705B0E4
S3150800C8D0BDEC068BBDE8F08FF0EE691AB0EE491A8A
S3150800C8E0CDE90202CDE9003174F036FADDE902023B
S3150800C8F0DDE90031B0EE407AF0EE607A93E7F0EECB
S3150800C9006A1AB0EE4A1AF0EE690AB0EE490ACDE99B
S3150800C9100102009174F020FADDE901020099B0EEF7
S3150800C920407AF0EE607AA9E700000060FB2109C0B2
S3150800C9302EBDBB330000000010B59FED136BDFED75
S3150800C940147A144CC0ED147A00234FF0010C83625C
S3150800C95080ED126BC362C0E90833C0E90A33C0E947
S3150800C9600C33C0E90E33C0E91033C0E9033300F1D4
S3150800C9700C0E036043714361C36180F854C0836140
S3150800C98080F804C0846010BD0000000000000000AC
S3150800C9900000C07FE83B0A089FED0F7B002200B528
S3150800C9A0C0F8A4104FF0000E0D49C0F80CE0C0F80E
S3150800C9B020E0C0E90422C0E9062280ED0E7B80ED66
S3150800C9C0347B5DF804EB426082600160426248F0A5
S3150800C9D0BDB800BFAFF3008000000000000000F003
S3150800C9E0D4520A080000000038B59FED216BDFED30
S3150800C9F0227A224B0360044600250123036480ED56
S3150800CA000E6BC0E90755C0E90955C0ED017AC0EDBE
S3150800CA10027AC0ED037AC0ED047AC0ED057AC0ED5E
S3150800CA20067AC562C0ED0C7A80F8345080F8445016
S3150800CA3085644C306EF052FA114BA4F8B0504FF0A2
S3150800CA40824284ED206B84ED266B84ED2E6B84F890
S3150800CA507C50C4F88850C4ED237AA4F89050C4EDED
S3150800CA60287AC4ED297AC4F8A820C4F8AC3038BDB1
S3150800CA7000000000000000F000000000EC520A0868
S3150800CA80CDCCCC3D000000002DE9F04FC84BC94C79
S3150800CA90C949CA482DED068BC3F82C44C84C1C60FE
S3150800CAA00022C84CC3F83444C3E90122C64C83F8B3
S3150800CAB03024C64B0B60C1F86446C54BC54C1A708A
S3150800CAC08125C1F858566360E360C34DC34B81F8AE
S3150800CAD05C260026C24925604FF07047C0E900670A
S3150800CAE0C04D0D606420C1E90620086203F12801E3
S3150800CAF003F14000C3E902111960586003F12001EF
S3150800CB0003F11800C3E90600C3E90811B648B74996
S3150800CB101A6100F128051A754FF47A7C0B460560F0
S3150800CB20B34FC560C4F808C000F11804C0E906444C
S3150800CB3000F1400600F1200443F8247BC0E90844CC
S3150800CB40C1E9022285604660026102750A7183B0F6
S3150800CB50A431FF2043F8102C03F80C2C23F80A2CD8
S3150800CB6003F8082C03F8070C03F8062C103399422F
S3150800CB70F0D1A049A04BA14CC3F89C4001F1340068
S3150800CB801425C3F894505861002444F620604FF0E9
S3150800CB907045C3E92A451960C3E9022298491A7102
S3150800CBA0C3E90622C3E92322C3F89800954B9648A1
S3150800CBB0964C0860862581F83C23C1F84823C1F8BD
S3150800CBC03853C3F83853C1F8444301259049C3F88C
S3150800CBD0485318608F4D83F83C238720C1F8A80373
S3150800CBE00520C3F84443C1E9ED508B4B81F8AC23CB
S3150800CBF09FED698B894A0A60002703F5C0729F601A
S3150800CC0083ED068BDF6083ED088B83ED0A8B1F604F
S3150800CC1083ED0C8B1F6183ED0E8B83ED108B83EDFB
S3150800CC20128B83ED148B83ED168B60339342E6D11A
S3150800CC307B4B7C4A1A607C4A5A60DA6017707B48DC
S3150800CC409FED7B9ADFF868927A4E4FF47A62282134
S3150800CC509A606DF075F9784825216DF071F9774875
S3150800CC6059216DF06DF976485A216DF069F9754BC1
S3150800CC70754824221A712321744A1A606DF060F9E6
S3150800CC80FDF7BEFF724BDFF82CC272491F722222D3
S3150800CC901A71714ACCF82020C2E90077C2E90277F6
S3150800CCA017750022C3E9041203F128021A624FF02D
S3150800CCB021028CF80420694A1A609FED39AB684A4C
S3150800CCC0CCF800209FED387B664A1F7302F5005B9F
S3150800CCD083F82C7083ED068B83ED0CAB6248634AB0
S3150800CCE083ED099A202100238CED047B8CF80870CB
S3150800CCF08CF80C708CED068B6EF0E8FA5C485B4A93
S3150800CD009FED5C0A4F2100236EF0E0FA514A5A481B
S3150800CD1000231F216EF0DAFA584B4E4958481F7205
S3150800CD200022C3E904124FF00C0119715549196024
S3150800CD30F7EE009A1F7383ED068B534B40F8043BBE
S3150800CD40F0EE690A6EF0E8F866F0E2FC4F486EF01D
S3150800CD50E3F84F4B4F481860C3ED019A83ED029AEA
S3150800CD6083ED039A83ED049AC3ED059A4A4B4B4823
S3150800CD704B4A83ED00AB4B4B212183ED00AB0023DF
S3150800CD806EF0A4FA484B43481860454A4748C3ED35
S3150800CD90019A91E0AFF30080000000000000000057
S3150800CDA000000000000000F000093D00000000003F
S3150800CDB0D4AC012054420A08E0550020403800202F
S3150800CDC054450A088039002058420A083C450A0892
S3150800CDD054B1012058AB012064420A0840D1001022
S3150800CDE068AB012078450A0880D100105C810120D3
S3150800CDF08C450A08B4450A08609400208F1E17005F
S3150800CE0010CA0010A0C6001018460A0894B40808EC
S3150800CE1080CD00108CB40808A82C0020FC450A0810
S3150800CE20504E012074420A0808D90010D026002066
S3150800CE30000000004879001028250020D825002089
S3150800CE4080250020E0B10020D02400202C460A08C6
S3150800CE508890002080841E00CC91012048460A084C
S3150800CE606C460A080000001078210020801A060087
S3150800CE70502100200000C8426823002048230020D3
S3150800CE802C910120582E0A088C460A084C9101203C
S3150800CE90788E01208C180A08E04B00208026002096
S3150800CEA0400D0300D84B0020A08E0120A8260020A4
S3150800CEB07C970010C04C002083ED029A83ED039AFC
S3150800CEC083ED049AC3ED059A272100236EF0FEF937
S3150800CED0CB48CC4A332100236EF0F8F9CA48C94A30
S3150800CEE0352100236EF0F2F9C848C64A37210023D7
S3150800CEF06EF0ECF9C64BC74AC7491960C3E90A7709
S3150800CF001F721F731F6283F8247083ED068B83EDEF
S3150800CF100C9AC24B1160C24919604FF0260CBC4BE3
S3150800CF20DFF870E382F804C04FF0340C83F804C0CD
S3150800CF3042F2046CB94BAEF804C04FF0270C8EF8D9
S3150800CF4006C0CEF8001043F2324E9FEDA97BA3F837
S3150800CF5004E04FF0330E83F806E0AD4B1772C2E9D2
S3150800CF600A7782ED047B83ED047B1773176282F8D8
S3150800CF70247082ED068BAB4882ED0C9A0521A14AF6
S3150800CF8000236EF0A3F9A8489E4A312100236EF0CB
S3150800CF909DF9A649A6480860A648DFF8FCE20F7284
S3150800CFA00F734F6281ED068BA14907720160077303
S3150800CFB0476280ED068BA048CEF80010A9F18001E3
S3150800CFC081609A49C0F804909C4808629949CEF84D
S3150800CFD0200008629848DFF8C4C28EF808700B462D
S3150800CFE097490160914997488862013098628F494C
S3150800CFF08EF80C7001309FED807BCEF828004FF03C
S3150800D000290008718949CEF824704FF02A0081ED6D
S3150800D010047B18718C498CF808704FF02B0083ED4F
S3150800D020047B8EF80400894B894A4FF02C008EED5C
S3150800D030047B8CF804008EED068B86488CF80C7001
S3150800D040CCF82810013199624FF02D0E013183F882
S3150800D05004E081624FF02E0E7F4980F804E07F4895
S3150800D06088607F487F4981607A491F7281ED047B19
S3150800D07081ED068B6E491F7301F1240083ED047B55
S3150800D0805F621960186283ED068B724BCCF800104C
S3150800D09019607149CCF824708CED047BCCF820001B
S3150800D0A018628CED068B704808604FF0190C81F8F1
S3150800D0B004C06B491F7208604FF01A001F735F6245
S3150800D0C008716A4B6A481921C2E901171A21D76003
S3150800D0D059606849116019602831116219624FF068
S3150800D0E00101D76283F8381091854FF00101DF629C
S3150800D0F099850021C2E90401C3E90401C2E9097757
S3150800D100C2E90C77C3E90277C3E90977C3E90C7763
S3150800D11082F8387082ED068B83ED068B61F0F6FF98
S3150800D120DFF87CE1544ACEF800200C212832DFF8DB
S3150800D13074C1524BCEF82C10CEF820204FF00301C4
S3150800D1404F4A8EF804104FF00101F1EE007A8CF880
S3150800D1500410CCF800304FF4FD6113602833CEED8F
S3150800D1600C7A8EF808708EF80C70CEF82470CCF80D
S3150800D17020301362CEF828108EED048B8EED068BC8
S3150800D1800F234FF0050E8CF808708CF80C70CCF84D
S3150800D1902470D362CCF828103A4BCCF82CE08CEDEE
S3150800D1A0048B8CED068BCCED0C9A4FF0020C82F8B2
S3150800D1B004C0177217735762916282ED048B82ED71
S3150800D1C0068BC2ED0C9A4FF4FD629A622E4A9FEDC9
S3150800D1D02F7A1A6028321A624FF00D0E0F229FED31
S3150800D1E0320A2B4883ED0C7A0E215FE0AFF30080FC
S3150800D1F000350C0000000000804F120000000000FF
S3150800D200704C0020400D03003026002058260020D0
S3150800D210903E0020C83E0020B8460A08908E01209D
S3150800D2209C460A08E8900020C090002058900020EC
S3150800D230E8460A0828900020348E01200C470A0880
S3150800D240D8460A0805030A0008030A00988F002032
S3150800D250304C0020688F0020F8AB0120154F0608D7
S3150800D260ECAB01202D4F06085C470A08F04B00205E
S3150800D270C0D4010020470A08F0470A08B4470A083C
S3150800D280C08E0020888E002078470A083333234052
S3150800D29090970020988E0120F88F0020C88F0020D4
S3150800D2A0308F0020F88E00200000484383F804E001
S3150800D2B01F721F735F62DA6283ED048B83ED068B40
S3150800D2C06CF0E4FE1FED080AE2480F216CF0DEFE62
S3150800D2D09FEDE10AE14811216CF0D8FE9FEDDE0AC8
S3150800D2E0DF4812216CF0D2FEDE4BDF49196091F857
S3150800D2F02420D8495A73596091F82420DB499A7337
S3150800D3004FF00D0E83F80CE099601F75D34883ED36
S3150800D310049AD74B90F824201860D1485A7358605D
S3150800D32090F82420D3489A734FF00F0282714FF079
S3150800D330100E0246DFF880C399601F75CE4983F840
S3150800D3400CE083ED049A40F60D630160938080ED4E
S3150800D350029A80ED039A41F21013C848ACF80430DB
S3150800D360C64ACCF8001012234FF0150E8CF806307A
S3150800D370016041F21343C2488CED029AB0EE690A85
S3150800D38014218CED039A938082F806E082ED029AC6
S3150800D39082ED039A6CF07AFEBA48B0EE690A152156
S3150800D3A06CF074FEB84BB1499960B549196091F8AB
S3150800D3B02420B4495A7391F824209A73B34A1F75E6
S3150800D3C0B34F1760132759601F739FEDB20AB2480F
S3150800D3D083ED049A1D21162393806CF057FE9FED6A
S3150800D3E0AD0AAE48AE4F1E216CF050FE61F0ACFFA0
S3150800D3F0AC4AAD4BAD494FF0030C4FF0010087F82E
S3150800D4000CC010734FF0200CA94883F80CC01860A4
S3150800D4104FF0500C386008601060A64887F804C0C2
S3150800D420B86051270F71232788600F735221002493
S3150800D430986090601171A6F6F87053221A716DF013
S3150800D4401FFA9022214606F1140073F066FF202287
S3150800D450214606F1BC00C6E92A44C6E92D44C6F8A9
S3150800D460A440C6F8B04073F058FF2022214606F1C2
S3150800D470DC0073F052FF4022214606F1FC0073F0EF
S3150800D4804CFF4022214606F5D270C6E95444C6E947
S3150800D4905844C6E95C44C6E96044C6E96444C6F82B
S3150800D4A04041C6F8484186F8A04186F8A341C6F827
S3150800D4B03C41C6F84441C6F84C41C6F85C41C6F83A
S3150800D4C06C41C6F87C41C6F88C41A6F89E41A6F880
S3150800D4D0A141C6F85841C6F86841C6F87841C6F869
S3150800D4E08841C6F89841A6F89C4173F016FF402279
S3150800D4F0214606F5F27073F010FF4022214606F524
