S01400006275696C642F7275736566692E7372656343
S3150800800010100020B983000895E50208F9830008D6
S315080080101D840008F88300080B840008214BD94901
S3150800802080CB0900B3830008B3830008F93B010835
S31508008030B3830008B3830008B3830008B54B01086F
S31508008040B3830008B3830008994A0108114B010855
S31508008050B3830008B38300084D97040855970408AE
S315080080605D970408659704086D970408ED3F0108B5
S3150800807025400108614001089D400108D9400108D2
S31508008080114101084D410108753C0108CD3E010822
S31508008090F13E0108153F0108393F010875970408A4
S315080080A0B3830008E54D0108B3830008094E0108AB
S315080080B0A14C01080D4E0108314E0108B19604087D
S315080080C0B38300089D430108D5440108B38300081B
S315080080D0B3830008B38300084150010865500108BE
S315080080E099970408594B0108B3830008B38300081D
S315080080F0794E0108B38300089D4E0108894101089D
S31508008100B3830008B3830008554E0108B3830008FB
S31508008110B3830008B3830008414C0108B383000801
S31508008120C5410108FD4101083942010875420108A7
S31508008130B1420108B3830008B38300085D3F010814
S31508008140813F0108A53F0108C93F0108ED4501081F
S31508008150E94201082543010861430108A14E0108C7
S31508008160B3830008B3830008B3830008B383000809
S31508008170B3830008B3830008B3830008B3830008F9
S31508008180B3830008B3830008B3830008B3830008E9
S31508008190B3830008B3830008B3830008B3830008D9
S315080081A0B3830008B3830008B3830008B3830008C9
S315080081B0B3830008B3830008B3830008B3830008B9
S315080081C0B3830008B3830008B3830008B3830008A9
S315080081D0B3830008B3830008B3830008B383000899
S315080081E009C900081DB407080000000000000000C7
S315080081F001F0FF01102A2BDB10F0070F08D010F84A
S31508008200013B013A8B422DD010F0070F42B3F6D14D
S31508008210F0B441EA012141EA014122F007047FF066
S3150800822000070023F0E80256083C85EA010586EABD
S31508008230010685FA47F5A3FA87F586FA47F6A5FAF9
S3150800824087F68EB9EED1F0BC01F0FF0102F0070205
S3150800825032B110F8013B013A83EA010313B1F8D1B0
S315080082600020704701387047002D06BF3546033891
S31508008270073815F0010F07D1013015F4807F02BFCA
S31508008280013015F4C03F0130F0BC0138704700BF1B
S3150800829072B6394880F30888384880F30988384820
S315080082A04EF60851CEF20001086040F20000CCF20A
S315080082B000004EF63471CEF200010860BFF34F8F0E
S315080082C0BFF36F8F40F20000C0F2F0004EF68851FF
S315080082D0CEF200010860BFF34F8FBFF36F8F4FF0E8
S315080082E00000E1EE100A4EF63C71CEF2000108607D
S315080082F0062080F31488BFF36F8F07F0B1FD24F0D2
S31508008300E3F94FF055301F491B4A91423CBF41F8EB
S31508008310040BFAE71C49194A91423CBF41F8040B81
S31508008320FAE71A491A4A1B4B9A423EBF51F8040B00
S3150800833042F8040BF8E700201749184A91423CBF57
S3150800834041F8040BFAE707F08FFD47F019F9144CCA
S31508008350144DAC4203DA54F8041B8847F9E76DF06C
S3150800836025FC114C114DAC4203DA54F8041B88471E
S31508008370F9E707F077BD000010100020101600205E
S3150800838000800008100000201010002038470A0856
S3150800839010160020581A0020581A0020E418022047
S315080083A0E0810008E4810008E4810008E88100080B
S315080083B06EE700F000F8FEE70A480B49026800601D
S315080083C08A4201D0FFF764FF08484FF480410160F4
S315080083D007484FF0010101600648D0F800D0406810
S315080083E000470000F0FF0120EFBEADDE4438024032
S315080083F0003801400000FF1F1EF0040F0CBFEFF30A
S315080084000880EFF3098026F0C9B81EF0040F0CBFE8
S31508008410EFF30880EFF3098026F008B91EF0040F81
S315080084200CBFEFF30880EFF3098026F04BB900BFC5
S31508008430EC46A0E8F05F4FF000007047B0E8F05F48
S31508008440E546080008BF0120704700BF81F00041DB
S3150800845002E000BF83F0004330B54FEA41044FEA1B
S31508008460430594EA050F08BF90EA020F1FBF54EAB6
S31508008470000C55EA020C7FEA645C7FEA655C00F052
S31508008480E2804FEA5454D4EB5555B8BF6D420CDD23
S315080084902C4480EA020281EA030382EA000083EAA6
S315080084A0010180EA020281EA0303362D88BF30BD46
S315080084B011F0004F4FEA01314FF4801C4CEA11319C
S315080084C002D0404261EB410113F0004F4FEA0333FB
S315080084D04CEA133302D0524263EB430394EA050F86
S315080084E000F0A780A4F10104D5F1200E0DDB02FAF5
S315080084F00EFC22FA05F2801841F1000103FA0EF289
S31508008500801843FA05F359410EE0A5F120050EF14E
S31508008510200E012A03FA0EFC28BF4CF0020C43FA7F
S3150800852005F3C01851EBE37101F0004507D54FF08C
S31508008530000EDCF1000C7EEB00006EEB0101B1F5DC
S31508008540801F1BD3B1F5001F0CD349085FEA300022
S315080085504FEA3C0C04F101044FEA445212F5800F2D
S3150800856080F09A80BCF1004F08BF5FEA500C50F1CA
S31508008570000041EB045141EA050130BD5FEA4C0CAD
S31508008580404141EB0101013C28BFB1F5801FE9D20A
S3150800859091F0000F04BF01460020B1FA81F308BF2D
S315080085A02033A3F10B03B3F120020CDA0C3208DDF9
S315080085B002F1140CC2F10C0201FA0CF021FA02F1D4
S315080085C00CE002F11402D8BFC2F1200C01FA02F144
S315080085D020FA0CFCDCBF41EA0C019040E41AA2BF69
S315080085E001EB0451294330BD6FEA04041F3C1CDA31
S315080085F00C340EDC04F11404C4F1200220FA04F051
S3150800860001FA02F340EA030021FA04F345EA0301FA
S3150800861030BDC4F10C04C4F1200220FA02F001FABC
S3150800862004F340EA0300294630BD21FA04F029463E
S3150800863030BD94F0000F83F4801306BF81F48011D7
S315080086400134013D4EE77FEA645C18BF7FEA655C4A
S3150800865029D094EA050F08BF90EA020F05D054EA1C
S31508008660000C04BF1946104630BD91EA030F1EBF21
S315080086700021002030BD5FEA545C05D14000494125
S3150800868028BF41F0004130BD14F580043CBF01F518
S31508008690801130BD01F0004545F0FE4141F47001FE
S315080086A04FF0000030BD7FEA645C1ABF19461046D9
S315080086B07FEA655C1CBF0B46024650EA013406BFDA
S315080086C052EA033591EA030F41F4002130BD00BF99
S315080086D090F0000F04BF0021704730B54FF4806456
S315080086E004F132044FF000054FF0000150E700BFD7
S315080086F090F0000F04BF0021704730B54FF4806436
S3150800870004F1320410F0004548BF40424FF0000122
S315080087103EE700BF42004FEAE2014FEA31014FEA65
S3150800872002701FBF12F07F4393F07F4F81F06051B4
S31508008730704732F07F4208BF704793F07F4F04BFFF
S3150800874041F40021704730B54FF4607401F00045DC
S3150800875021F000411CE700BF50EA010208BF70473C
S3150800876030B54FF000050AE050EA010208BF70472D
S3150800877030B511F0004502D5404261EB41014FF496
S31508008780806404F132045FEA915C3FF4D8AE4FF09E
S3150800879003025FEADC0C18BF03325FEADC0C18BF81
S315080087A0033202EBDC02C2F1200300FA03FC20FAD2
S315080087B002F001FA03FE40EA0E0021FA02F114441F
S315080087C0BDE600BF70B54FF0FF0C4CF4E06C1CEA38
S315080087D011541DBF1CEA135594EA0C0F95EA0C0FA9
S315080087E000F0DEF82C4481EA030621EA4C5123EA1C
S315080087F04C5350EA013518BF52EA033541F480114B
S3150800880043F4801338D0A0FB02CE4FF00005E1FBFD
S3150800881002E506F00042E0FB03E54FF00006E1FB47
S3150800882003569CF0000F18BF4EF0010EA4F1FF048A
S31508008830B6F5007F64F5407404D25FEA4E0E6D41CA
S3150800884046EB060642EAC62141EA55514FEAC520DB
S3150800885040EA5E504FEACE2EB4F1FD0C88BFBCF557
S31508008860E06F1ED8BEF1004F08BF5FEA500E50F108
S31508008870000041EB045170BD06F0004646EA0101CE
S3150800888040EA020081EA0301B4EB5C04C2BFD4EB00
S315080088900C0541EA045170BD41F480114FF0000EF9
S315080088A0013C00F3AB8014F1360FDEBF002001F067
S315080088B0004170BDC4F10004203C35DA0C341BDCE1
S315080088C004F11404C4F1200500FA05F320FA04F0B3
S315080088D001FA05F240EA020001F0004221F00041E7
S315080088E010EBD37021FA04F642EB06015EEA430E5A
S315080088F008BF20EAD37070BDC4F10C04C4F120058A
S3150800890000FA04F320FA05F001FA04F240EA02003C
S3150800891001F0004110EBD37041F100015EEA430E0D
S3150800892008BF20EAD37070BDC4F1200500FA05F22D
S315080089304EEA020E20FA04F301FA05F243EA0203AC
S3150800894021FA04F001F0004121FA04F220EA0200BB
S3150800895000EBD3705EEA430E08BF20EAD37070BD01
S3150800896094F0000F0FD101F00046400041EB0101E1
S3150800897011F4801F08BF013CF7D041EA060195F0C3
S31508008980000F18BF704703F00046520043EB03037D
S3150800899013F4801F08BF013DF7D043EA060370476A
S315080089A094EA0C0F0CEA135518BF95EA0C0F0CD075
S315080089B050EA410618BF52EA4306D1D181EA0301BB
S315080089C001F000414FF0000070BD50EA410606BFB5
S315080089D01046194652EA430619D094EA0C0F02D1FA
S315080089E050EA013613D195EA0C0F05D152EA03363F
S315080089F01CBF104619460AD181EA030101F000415D
S31508008A0041F0FE4141F470014FF0000070BD41F0A5
S31508008A10FE4141F4780170BD70B54FF0FF0C4CF47F
S31508008A20E06C1CEA11541DBF1CEA135594EA0C0F9E
S31508008A3095EA0C0F00F0A7F8A4EB050481EA030EEB
S31508008A4052EA03354FEA013100F088804FEA0333D2
S31508008A504FF0805545EA131343EA12634FEA0222A0
S31508008A6045EA111545EA10654FEA00260EF0004161
S31508008A709D4208BF964244F1FD0404F5407402D2B3
S31508008A805B084FEA3202B61A65EB03055B084FEA44
S31508008A9032024FF480104FF4002CB6EB020E75EB41
S31508008AA0030E22BFB61A754640EA0C005B084FEA69
S31508008AB03202B6EB020E75EB030E22BFB61A7546E6
S31508008AC040EA5C005B084FEA3202B6EB020E75EB31
S31508008AD0030E22BFB61A754640EA9C005B084FEAA9
S31508008AE03202B6EB020E75EB030E22BFB61A7546B6
S31508008AF040EADC0055EA060E18D04FEA051545EAA5
S31508008B0016754FEA06164FEAC30343EA52734FEA4D
S31508008B10C2025FEA1C1CC0D111F4801F0BD141EAC6
S31508008B2000014FF000004FF0004CB6E711F4801F2B
S31508008B3004BF01430020B4F1FD0C88BFBCF5E06F0B
S31508008B403FF6AFAEB5EB030C04BFB6EB020C5FEA1B
S31508008B50500C50F1000041EB045170BD0EF0004E70
S31508008B604EEA113114EB5C04C2BFD4EB0C0541EAA2
S31508008B70045170BD41F480114FF0000E013C90E69F
S31508008B8045EA060E8DE60CEA135594EA0C0F08BF63
S31508008B9095EA0C0F3FF43BAF94EA0C0F0AD150EA62
S31508008BA001347FF434AF95EA0C0F7FF425AF1046F5
S31508008BB019462CE795EA0C0F06D152EA03353FF41D
S31508008BC0FDAE1046194622E750EA410618BF52EA9A
S31508008BD043067FF4C5AE50EA41047FF40DAF52EA6E
S31508008BE043057FF4EBAE12E74FF0FF3C06E000BF0B
S31508008BF04FF0010C02E000BF4FF0010C4DF804CD18
S31508008C004FEA410C7FEA6C5C4FEA430C18BF7FEAD7
S31508008C106C5C1BD001B050EA410C0CBF52EA430C05
S31508008C2091EA030F02BF90EA020F0020704710F185
S31508008C30000F91EA030F58BF994208BF90422CBF14
S31508008C40D8176FEAE37040F0010070474FEA410C0D
S31508008C507FEA6C5C02D150EA013C07D14FEA430C2B
S31508008C607FEA6C5CD6D152EA033CD3D05DF8040B9C
S31508008C70704700BF8446104662468C4619466346CE
S31508008C8000E000BF01B5FFF7B7FF002848BF10F1A5
S31508008C90000F01BD4DF808EDFFF7F4FF0CBF0120EA
S31508008CA000205DF808FB00BF4DF808EDFFF7EAFF66
S31508008CB034BF012000205DF808FB00BF4DF808ED21
S31508008CC0FFF7E0FF94BF012000205DF808FB00BF16
S31508008CD04DF808EDFFF7CEFF94BF012000205DF8A0
S31508008CE008FB00BF4DF808EDFFF7C4FF34BF0120AD
S31508008CF000205DF808FB00BF4FEA410C7FEA6C5C78
S31508008D0002D150EA013C0AD14FEA430C7FEA6C5C77
S31508008D1002D152EA033C02D14FF0000070474FF0EF
S31508008D20010070474FEA410212F5001215D211D51B
S31508008D306FF47873B3EB625212D94FEAC12343F04A
S31508008D40004343EA505311F0004F23FA02F018BFCC
S31508008D50404270474FF00000704750EA013005D195
S31508008D6011F0004008BF6FF0004070474FF0000058
S31508008D70704700BF4FEA4102B2F1E04324BFB3F5A2
S31508008D80001CDCF1FE5C0DD901F0004C4FEAC00274
S31508008D904CEA5070B2F1004F40EB830008BF20F058
S31508008DA00100704711F0804F21D113F13872BCBF12
S31508008DB001F00040704741F480114FEA5252C2F167
S31508008DC01802C2F1200C10FA0CF320FA02F018BFB0
S31508008DD040F001004FEAC1234FEAD32303FA0CFC03
S31508008DE040EA0C0023FA02F34FEA4303CCE77FEA92
S31508008DF0625307D150EA01331EBF4FF0FE4040F4DC
S31508008E004000704701F0004040F0FE4040F400008A
S31508008E10704700BF80F0004002E000BF81F00041CB
S31508008E2042001FBF5FEA410392EA030F7FEA226C02
S31508008E307FEA236C6AD04FEA1262D2EB1363C1BF92
S31508008E40D218414048404140B8BF5B42192B88BF01
S31508008E50704710F0004F40F4000020F07F4018BF24
S31508008E60404211F0004F41F4000121F07F4118BF44
S31508008E70494292EA030F3FD0A2F1010241FA03FCEC
S31508008E8010EB0C00C3F1200301FA03F100F00043D4
S31508008E9002D5494260EB4000B0F5000F13D3B0F19C
S31508008EA0807F06D340084FEA310102F10102FE2A0B
S31508008EB051D2B1F1004F40EBC25008BF20F001007B
S31508008EC040EA03007047490040EB0000013A28BF1A
S31508008ED0B0F5000FEDD2B0FA80FCACF1080CB2EB9D
S31508008EE00C0200FA0CF0AABF00EBC250524218431B
S31508008EF0BCBFD0401843704792F0000F81F40001C0
S31508008F0006BF80F400000132013BB5E74FEA410392
S31508008F107FEA226C18BF7FEA236C21D092EA030FFE
S31508008F2004D092F0000F08BF0846704790EA010F78
S31508008F301CBF0020704712F07F4F04D1400028BFA5
S31508008F4040F00040704712F100723CBF00F5000087
S31508008F50704700F0004343F0FE4040F400007047BD
S31508008F607FEA226216BF08467FEA23630146420269
S31508008F7006BF5FEA412390EA010F40F4800070477C
S31508008F804FF0000304E000BF10F0004348BF404222
S31508008F905FEA000C08BF704743F0964301464FF05E
S31508008FA000001CE050EA010208BF70474FF00003BA
S31508008FB00AE000BF50EA010208BF704711F00043FB
S31508008FC002D5404261EB41015FEA010C02BF8446CB
S31508008FD00146002043F0B64308BFA3F18053A3F52A
S31508008FE00003BCFA8CF2083AA3EBC25310DB01FA71
S31508008FF002FC634400FA02FCC2F12002BCF1004FF5
S3150800900020FA02F243EB020008BF20F00100704785
S3150800901002F1200201FA02FCC2F1200250EA4C00D9
S3150800902021FA02F243EB020008BF20EADC7070471F
S315080090307BB972B90029BEBF00204FF0004106E097
S3150800904008BF00281CBF6FF000414FF0FF3000F04A
S3150800905057B8ADF1080C6DE904CE002909DB002BE1
S315080090601ADB76F0CFFDDDF804E0DDE9022304B073
S315080090707047404261EB4101002B1BDB76F0C2FDD5
S31508009080DDF804E0DDE9022304B0404261EB41016A
S31508009090524263EB43037047524263EB430376F055
S315080090A0B1FDDDF804E0DDE9022304B0404261EBDE
S315080090B041017047524263EB430376F0A3FDDDF8A6
S315080090C004E0DDE9022304B0524263EB4303704730
S315080090D053B94AB9002908BF00281CBF4FF0FF3111
S315080090E04FF0FF3000F00CB8ADF1080C6DE904CE76
S315080090F076F088FDDDF804E0DDE9022304B0704768
S31508009100704700BF2DE9F04F2DED108AC1F80CD03D
S31508009110C3689D46BDEC108ABDE8F08F07F026F8B7
S31508009120002383F311882846A047002008F016FB81
S31508009130FEE707F0B3F908F089FA07F017F800DF39
S31508009140FEE710F8012B11F8013B012A28BF9A42C5
S31508009150F7D0D01A7047034613F8012B002AFBD123
S31508009160181A01387047000070B586B00C461146CB
S315080091701A46114B0093054674B1631ECDE90103E7
S3150800918000266846CDE903660BF07EFF039BA342E3
S3150800919000D2EE5406B070BD9FED057B019068467F
S315080091A08DED027B04940BF06FFF06B070BD00BF17
S315080091B00000000000000000A808080800000000E1
S315080091C02DE9F04759EC108B3D4B002240464946A5
S315080091D0FFF77EFD002867D035A5D5E90045384F4D
S315080091E04FF0000A00260CE0FFF716FC8046894679
S315080091F032463B46404649460AF1050AFFF768FDEE
S31508009200E8B1494622462B464046FFF761FD8446AB
S3150800921022462B4640464946BCF1000FE4D1324669
S315080092203B46FFF7F9FB8046894632463B464046B1
S3150800923049460AF1010AFFF74BFD0028E1D1214B07
S31508009240002240464946FFF72FFD50B31AA5D5E937
S31508009250004517A7D7E900670CE0FFF7B3FAAAF1AC
S31508009260050A80468946174B002240464946FFF7BD
S315080092701BFDB0B1494622462B464046FFF714FD72
S31508009280844632463B4640464946BCF1000FE4D187
S315080092900B4B0022FFF796FA0AF1FF3A80468946F9
S315080092A0E1E75046BDE8F0878246C8E7AFF300809D
S315080092B000000000006AF84000000080B5F8E43EAF
S315080092C0000024400000F03F2DE9F047B0F1000A05
S315080092D02D4D4FF0000426DD29A7D7E90067DFF8F2
S315080092E0AC904FF00008BAF1040F204629463246E2
S315080092F03B460CDDFFF766FAAAF1050A04460D4659
S31508009300BAF1000FEFD145EC104BBDE8F0874246A5
S315080093104B46FFF757FA0AF1FF3A04460D46BAF1EB
S31508009320000FE0D1EFE7EED015A7D7E900671AF1ED
S31508009330040FDFF858904FF00008204629463246B9
S315080093403B460FDAFFF768FB0AF1050A04460D46A5
S31508009350BAF1000FD7D01AF1040F20462946324633
S315080093603B46EFDB42464B46FFF756FB0AF1010A3E
S3150800937004460D46BAF1000FEDD1C4E7AFF30080FD
S3150800938000000000006AF8400000F03F000024409A
S3150800939070B5C66984B0044630460D4613F092FE91
S315080093A0204613F081FB204613F0CCFB9FED087B8B
S315080093B003462946304607246A468DED027B8DF81A
S315080093C00040019313F00AFF04B070BDAFF30080AC
S315080093D0FFFFFFFFFFFFFFFF2DE9F04FC768C669D4
S315080093E0D0F804802DED028B282F87B004460D4651
S315080093F072D040F223139F4240F0858014F076F92C
S315080094009FED438B4FF0070A4FF00809E3683A2BA4
S3150800941014D008DD5B2B51D05A2B40DC07B0BDECCD
S31508009420028BBDE8F08F282B3ED02E2BF6D129468D
S315080094302046FFF7ADFFE3683A2BEAD1204613F042
S3150800944033FB204613F07EFB2946039030468DED0C
S31508009450048B8DF808A013F013FE2B78D5F804B00A
S31508009460082B4BD096F834706F600221304685F889
S31508009470009012F0AFFBBA1C02A986F834205B46AE
S3150800948000913A461421304613F036FE9DF808300E
S31508009490082B0DD10399304670F064FF08E07B2B4A
S315080094A002D0B3F5927FB9D12946304613F0CAFDEA
S315080094B042462946204614F073FFA7E72946304658
S315080094C013F000FE02A9204613F0F0FF02AA29466F
S315080094D0304613F083FE99E713F0E6FA2946002290
S315080094E0204615F073FB204643463A46292113F0D9
S315080094F0FFFAE069294613F0B5FB81E7594630467D
S3150800950070F030FFAEE7044912F0FCFAAFF30080C2
S31508009510FFFFFFFFFFFFFFFF90160808000000008F
S315080095200D4B9FED0B7B03F5016C03F61C01002226
S315080095300020CCF800200A6003F5026282ED007B69
S31508009540C3F80C08C3F81808C3F82808704700BF02
S3150800955000000000000000000000001000000000ED
S3150800956030B5012285B00C21044611F089FCE0B122
S315080095709FED117B0246124B043280ED017B02609F
S315080095800FCB6D4685E80F000E4B0F491A6820462B
S315080095900EF0C8FE00222946204621F0FBFB204695
S315080095A06FF05EFF012005B030BD20460EF064FE68
S315080095B0012005B030BD00BF00000000000000F02B
S315080095C06004080800A70020D8B9F0FF00000000D2
S315080095D02DE9F04F2DED048B03689DB0DB689847A5
S315080095E0002800F098850368A94ADB6893428346F9
S315080095F040F08D850BF10D030693A64BDFF8C8A244
S3150800960098699FEDA58ADFEDA58A41F033FB7F288F
S315080096109FED9D9B0BF10C0540F3F280DBF80030C3
S3150800962058461B6998470446002800F0B885DAF8BA
S3150800963020300133CAF82030DBF8003001225E689A
S315080096400DF123014FF47A735846B047012840F0CC
S3150800965023859DF82330542B15D8452B16D9463B20
S315080096600E2B13D8DFE813F0DB00120012001200ED
S315080096701200120012001200120012001200D3008B
S315080096801200D300EF00742B00F0DD80DBF8003009
S3150800969001225E6809A90A235846B047012840F006
S315080096A06B859DF823309DF8246046EA03263746E5
S315080096B007F1040936B2002F00F0FA8440F21E437F
S315080096C0994500F3F5849BF83034002B00F0AE83FF
S315080096D0DBF800304A46D3F8048029464FF47A73FB
S315080096E05846C04781459BF80C8040F03B8740466A
S315080096F03DF0E0FC8146002800F05987AB59324618
S31508009700002128461EBA64F091FB864240F0D983B0
S3150800971001238BF83034242062F0A2FA022F9BF83A
S315080097200C3040F3A483042FBBF80D6040F3A283EA
S31508009730BBF80F90A3F138023C2A3ED8DFE812F0B6
S315080097405A0307033D003D003D003D003D003D0036
S315080097503D00FC02CD02C8023D009C023D001102FC
S315080097603D003D003D003D0003023D003D00550122
S315080097703D003D002D011F0187003D00F001E2017B
S315080097803D003D0086013D003D003D003D00630172
S315080097903D003D0007013D003D00F2003D003D0053
S315080097A03D003D003D00C6008E003D003D003D00E9
S315080097B03D003D003D003D00870083215846059346
S315080097C067F054FD059B364A3648009350210BF046
S315080097D0B7FEDBF82C04334970F018FA242062F03F
S315080097E043FA31484246414646F088FD00242F4B4D
S315080097F01C70284B986941F03DFA7F283FF70EAF59
S315080098002B4A2C4941F6F42054F060FDEEE72A482D
S3150800981046F074FD0021584667F00AFDE7E7DBF8D5
S315080098202C14264A264846F069FDDBF800302549FF
S315080098301E68584600230322B047DBF80030584616
S315080098409B689847D3E758463EF002FECFE758464E
S315080098503EF0FEFD242062F007FAC8E79BF80D30BB
S31508009860022B00F07F84032B00F05C84012BB5D11A
S3150800987062F046FB58463FF0C5FD242062F0F4F935
S31508009880B5E700BFAFF30080506C5B9000000000A6
S31508009890DD450208B09700200024744900007A4488
S315080098A000B50808185801202CB50808A318022086
S315080098B038AE080804860808C4B10808E4B10808E0
S315080098C000A00808F4B10808E0580120DAF81830B2
S315080098D05A46013349463046CAF818303FF09EFDCD
S315080098E00746002840F0F88301464022C64876F02D
S315080098F004FBC6484A463946304464F097FA00BA2B
S315080099000C900CAA58460097042301213FF02CFD21
S315080099100C9BBF484A46314646F0F0FC242062F0CC
S31508009920A3F964E7BB4BBC4E1A78BC4B002A18BF98
S315080099301E463046FFF70FFC0121034632465846BD
S3150800994000913FF011FD242062F08EF94FE70121C6
S31508009950B348B44FB44E0091002302683B70C0E987
S315080099600033336058464FF400530C923FF0FCFC2A
S315080099700CA870F005FA242062F076F937E7AB4AAE
S31508009980DBF82C14AA4846F0B9FC5846012167F0C2
S315080099904FFC242062F068F929E7DAF80830A54870
S315080099A00133CAF8083032464B46002146F0A6FC79
S315080099B05A46494630463FF031FD0746002840F0F2
S315080099C073829D4BB3F8CA2C002A40F0DB83083318
S315080099D01E444B46324600210091584601213FF06D
S315080099E0C3FC242062F040F901E7012F934814BF15
S315080099F04B464FF4E763324659463EF031FF242082
S31508009A0062F032F9F3E68E4B1B78002B40F0718337
S31508009A108C490B68002B40F0488302228A4E0A6064
S31508009A207F4B186808B100200860C3E900620CA8DB
S31508009A3000230C9370F0A4F97A4B584601221A7049
S31508009A403FF0E0FC242062F00FF9D0E6BBF80D8069
S31508009A50BBF80F707D487FBA98FA98F6B6B2BFB2CF
S31508009A603A46314646F04AFC79484FF0B5FC202E76
S31508009A7000F20382202E00F29F8301A353F826F0FA
S31508009A80CBA10008B9A10008B9A10008B9A100082E
S31508009A90B9A10008B9A10008B9A10008B9A1000830
S31508009AA0B9A10008B9A10008B9A10008B9A1000820
S31508009AB0B9A10008B9A10008B9A10008B9A1000810
S31508009AC0B9A10008D5A10008DFA100081DA2000859
S31508009AD0DDA200084DA3000857A30008B9A1000895
S31508009AE0B9A1000861A30008B9A10008B9A1000836
S31508009AF0B9A10008759800087FA300088FA300087D
S31508009B009FA3000831460BF10F030122584667F060
S31508009B10DDFB504845F09AFF242062F0A5F866E67A
S31508009B205AF0E2FB0DF130094B4B4C4A00902021CC
S31508009B308DED029B48460BF003FD4846FFF70BFBED
S31508009B404A46431C47E70123002200925846194615
S31508009B500CAA8DF830303FF007FC242062F084F818
S31508009B6045E6DAF824303E4E334FB26A0133CAF876
S31508009B702430D7F85C359A4280F0ED8145F026FF0F
S31508009B80D6E90C3253EA020640F0CA81354E3368EC
S31508009B90032B00F0F1813448B0EE480A47F01AFD6D
S31508009BA0002840F0FA81314E314809F02BF9336824
S31508009BB0304A03F580510020C1F8643911681360F2
S31508009BC018702B48316009F0AFF9326802F58053F6
S31508009BD0D3F864691378B61A2BB1134613F8011F24
S31508009BE00029FBD19B1A9E4240F0DE82DBF800106A
S31508009BF001200090334658468E690021B04724203C
S31508009C0062F032F8F3E500BF4E6500107858001090
S31508009C10B8B308088518022044370120685801207F
S31508009C20C45701209E180220BC37012030B308080B
S31508009C3000A0080814B4080870580010601700201F
S31508009C409F180220C0570120C0370120A0B4080879
S31508009C50B0230010201F002044B308084CB308089E
S31508009C60A83B002004580120A03B002058170020DC
S31508009C70085801205C17002006980744002307F8B7
S31508009C80013C9BF80D30202B40F0808410F8013FF2
S31508009C90202BFBD07BB1034613F8012F002AFBD1FA
S31508009CA0191A002903DC06E083421A7003D013F858
S31508009CB0011D2029F8D08F4B1B689847002358466A
S31508009CC01A4619463FF0E2FA242061F0CDFF8EE5E8
S31508009CD04A4631460BF1110318E70DF1300948469B
S31508009CE045F0B4FEDAF80C3083480133CAF80C3074
S31508009CF046F004FB59F054FB8048B0EE480A47F09A
S31508009D0069FC002840F0FB8100231A4604215846C6
S31508009D103FF0BCFA484645F0A7FE60EE287A17EEF3
S31508009D20900AFEF7F7FC02460B46754846F0E6FA37
S31508009D30242061F099FF5AE572484FF4E763002240
S31508009D4059463EF08DFD242061F08EFF4FE56E4E9C
S31508009D50002206F140083146012031F8023F5B0B2C
S31508009D601CBF03F1FF3300FA03F341451A44F4D14B
S31508009D70002158463EF022FA0DF1300907460594AF
S31508009D80079536F8023F5C0B1DD00122013C02FA0A
S31508009D9004F45E4A0A9226220B9200940AAA06CA7C
S31508009DA0C3F30C03484664F0D7FADBF800302246C2
S31508009DB01D68494600235846A8473946224648465C
S31508009DC064F034F807464645DBD1DBF80030059CDD
S31508009DD01E68079D3FBA4946042258460C97012338
S31508009DE0B047DBF8003058469B689847242061F056
S31508009DF03BFFFCE4464B1B78002B00F07D810020DE
S31508009E0062F028F90646002853D0D0F8E434012138
S31508009E10024603EB8303009158463FF0A5FA304605
S31508009E2062F048F9242061F01FFFE0E4DBF8003017
S31508009E300246D3F8048029460A235846C0479BF8A9
S31508009E400C8040463DF036F900283FF4CFACDBF8ED
S31508009E5000300699D3F80490F21C05924FF47A73F1
S31508009E605846C847059A82423FF448ACBEE40026E5
S31508009E70B1465FE44FF000095CE4B8F53A4F00F0EC
S31508009E809483BA2E09D9B8F53B4F00F04285B8F548
S31508009E903C4F40F0918140F0CDFEB8F5F24F40F0CE
S31508009EA08B815AF0CDFAE5E4DBF82C0419496FF0FA
S31508009EB0ADFE5846842167F0D9F9242061F0D4FE16
S31508009EC095E49BF83034002B3FF490AC33460246B9
S31508009ED09BF80C10104846F011FA1049DBF82C04D0
S31508009EE06FF094FE8221584667F0C0F900238BF87C
S31508009EF030347BE4F0570120ECB308081024001036
S31508009F00FCB30808601700204C650010D8EF002045
S31508009F109F18022048B40808E4B208081CB30808C9
S31508009F20C01A61EB02010A1E03DAC31C184642F185
S31508009F3000028308D7F85C15C84800FB01F1C84839
S31508009F40A0FB010143EA8273090992100020994295
S31508009F509041BFF61BAEC349C34846F09BF9C34BB5
S31508009F6093F82035002B40F0F980C14E00F028FE0A
S31508009F703368032B7FF40FAEBA49BE4846F08AF918
S31508009F80BC4847F09BFA0123BB483360B0EE480A49
S31508009F9047F020FB00283FF406AEB74845F056FDCB
S31508009FA03B89692B96BFB54A4FF0000852F82380C3
S31508009FB05AF09AF9064645F077FDA84A0023FFF7B6
S31508009FC037F83146CDE90080AD4BAE4AAE4846F08B
S31508009FD095F9B7F8EC12012902D9AC4863F00AFFE3
S31508009FE0B7F8EE12012902D9A94863F003FFA94E72
S31508009FF0DFF8E08206F1080936F8021F012903D9BD
S3150800A000D8F8000063F0F6FEB14508F10408F3D16C
S3150800A010D7F8CC210C2A1346A8BF0C23002A7FF7B1
S3150800A020C2AD9D4F0594B9463C469C4E4FF000087C
S3150800A0301F462AE0718B012901D963F0DBFED4F8AB
S3150800A0405C0700284FD0B6F82614012901D963F019
S3150800A050D1FED9F83C03002848D036F8021F01295A
S3150800A06001D963F0C7FED9F88C04002838D0B6F8B1
S3150800A070DC1B012901D963F0BDFE08F10108B845CA
S3150800A08004F1200409F11C094ADAD4F8DC05002891
S3150800A090D0D1D4F8E005CDE7814CA34500F09681F0
S3150800A0A000238BF83034FFF7A1BB00221646B7E42D
S3150800A0B09BF83034002BF3D0DBF82C1479483A4659
S3150800A0C046F01CF9DBF82C0477496FF09FFD8421D4
S3150800A0D0584667F0CBF8E3E7DBF82C047349E6E665
S3150800A0E0D9F89004C3E7D4F86007ACE7D9F8400379
S3150800A0F0B3E761F081FF8BE461F002FF7FE636F09B
S3150800A10005FD6B483BF05AFF58F00EFEFCE59847F4
S3150800A11000287FF46FAA1DB0BDEC048BBDE8F08F54
S3150800A120059C40E5002061F095FF0646002800F0F2
S3150800A1303082D0F8E4340121024603EB8303009110
S3150800A14058463FF011F9304661F0B4FF58463FF0E3
S3150800A15059F9242061F088FDFFF749BB424847F0CA
S3150800A160ADF902E761F048FF58463FF04BF9242065
S3150800A17061F07AFDFFF73BBB4E49DBF82C046FF024
S3150800A18045FD8DE74C4940F25E200BF10F0654F071
S3150800A1909DF839464A46304675F0AFFE19E40A205E
S3150800A1A007F004FBFFF722BB3246444941F6861006
S3150800A1B054F08CF8002219E541493B46324640F2F4
S3150800A1C05E2054F083F8FFF755BB3E4B83F81E76A6
S3150800A1D0FFF750BB3C4B00221A60FFF74BBB002829
S3150800A1E03FF448AB374BDFED390AB3F8662D9FEDE0
S3150800A1F0380AD3F8741D07EE902AB3F84626F8EE07
S3150800A200E77A384667EEA00A07EE902AF8EEE77A6C
S3150800A21027EE800A58F0E6FDFFF72CBB00283FF42E
S3150800A22029AB284BDFED290AB3F8662D9FED280ADE
S3150800A230D3F8741D07EE902AB3F84626F8EEE77AA7
S3150800A240384667EEA00A07EE902AF8EEE77A27EE78
S3150800A250800A58F075FDFFF70DBB00BF40420F009E
S3150800A260CDCCCCCC48820908B03B00200050001069
S3150800A27004580120F4570120A03B0020585809082B
S3150800A28058B30808506C5B9060B3080814110A08A4
S3150800A2901C110A08B25A0010C89B0020FA5A00106E
S3150800A2A0245E012014B2080844B20808A0B30808BE
S3150800A2B0E89F0808F8B1080860B4080880B30808D9
S3150800A2C0DCB4080870580010CC570120CDCCCC3D22
S3150800A2D00AD7233C4858090800007A44BB1F172BA5
S3150800A2E000F2AB8101A252F823F000BF4BA7000889
S3150800A2F009A70008759800083BA600087DA600086F
S3150800A3003BA6000871A60008BBA70008AFA700086F
S3150800A310A7A7000893A7000887A7000877A700083B
S3150800A3206FA7000863A7000825A600087598000807
S3150800A3301BA6000811A6000807A60008FDA5000828
S3150800A340F5A500082FA60008E9A50008F8B25AF0F6
S3150800A35037FFFFF78FBA384658F02AFEFFF78ABA52
S3150800A36000283FF487AA5FED240AC64B3846D3F87F
S3150800A370741DB0EE600A58F08FFDFFF77BBAC2482D
S3150800A38045F064FB38466BF0F1FBFFF773BABE483D
S3150800A39045F05CFB63206BF0E9FBFFF76BBA00281E
S3150800A3A03FF468AAB74BDFEDB90AB3F8662DD3F8C0
S3150800A3B0741D07EE902AF8EEE77AB1EE000A67EE0A
S3150800A3C0A00A384658F0AEFDFFF754BAB04B1B78D2
S3150800A3D0002B3FF465AEDFF82C83AE4845F08EFFC0
S3150800A3E098F80030033B012B00F2ED802368AA4859
S3150800A3F05E68012240F6B83309A9B0470646002828
S3150800A40040F0EB80A44F06E0042B00F0DA81013619
S3150800A410072E00F0FE81236838465B6998470A20B4
S3150800A42007F0C4F99D4B9E4853F83610894645F007
S3150800A43065FF23684946DB69384698470A2007F0CE
S3150800A440B5F93846974966F09DFE38463EF060FAFB
S3150800A45090B198F80030032BD6D13846924966F069
S3150800A46091FE38463EF054FA0028D0D18F4845F080
S3150800A47045FF0A2007F09AF90DF1300998F80030DF
S3150800A4808B4F033B012B3E7040F2C7812368894AF4
S3150800A4905B698148934240F0078241F0E3F80A205D
S3150800A4A007F084F93A7823687C49DB6951F8321059
S3150800A4B0814A7948934240F0058265F0A9F998F8EF
S3150800A4C00030002B40F097817C4B7D4A402148465E
S3150800A4D00BF036F87048494666F054FE6E483EF072
S3150800A4E017FA002840F0828198F80030032B00F014
S3150800A4F0AC80002B40F08681724B734A4021484657
S3150800A5000BF01EF86448494666F03CFE62483EF089
S3150800A510FFF9002840F06A8198F80030002B40F0D7
S3150800A520C5816A4B5D4A1B68402152F83330684A38
S3150800A53048460BF005F85848494666F023FE564843
S3150800A5403EF0E6F9002840F0518198F80030033BC8
S3150800A550012B40F2CD815F4845F0D0FE4C4A0023DE
S3150800A56013709DE543464A4601465B4845F0C6FEDC
S3150800A5705A49DBF82C046FF049FB8021584666F0EF
S3150800A58075FE00238BF83034FFF730B90698FFF7CD
S3150800A59081BB8421584666F069FE58463EF032FF74
S3150800A5A0242061F061FBFFF722B940F037FB4C48E5
S3150800A5B0414645F0A3FE8321584666F057FE8BF8C0
S3150800A5C03094FFF713B9474845F098FE464845F0DA
S3150800A5D095FE464845F092FE08E7454845F08EFE4A
S3150800A5E02B4A002313705BE50021012052F0FEF987
S3150800A5F0FFF740B93CF0F2FEFFF73CB904203CF007
S3150800A600FDFEFFF737B903203CF0F8FEFFF732B935
S3150800A61001203CF0F3FEFFF72DB902203CF0EEFED8
S3150800A620FFF728B9334B01221A70FFF723B9002127
S3150800A630084652F0DBF9FFF71DB92F493A4640F2B2
S3150800A6405E2053F043FEFFF715B91C4B2B4A4021F9
S3150800A65048460AF075FF1048494666F093FD0E48CD
S3150800A6603EF056F9002840F0C18098F8003040E7DF
S3150800A670234B012283F8A823FFF7FCB857F0C0FB49
S3150800A680FFF7F8B87058001010240010CDCCCC3D58
S3150800A6909D18022048AE0808245E012010580908B3
S3150800A6A008B0080820B0080828B0080834B0080818
S3150800A6B09B18022065B6040811F806082C370120F5
S3150800A6C0D8B008082437012004B108085417002018
S3150800A6D020B1080868B1080864B20808A4B20808D6
S3150800A6E0C8B2080878AE0808E4AE080838AF080803
S3150800A6F0B4AF0808A1180220C4B40808F4B00808C2
S3150800A700002000109C180220834F844ED7F8F800CA
S3150800A7100D2386F8D43008B30368DB689847F0EE53
S3150800A720407AD7F80401C6ED347A002800F0EE80A6
S3150800A7300368DB689847F0EE407A794AC6ED697A8D
S3150800A740137801331370FFF795B8734F734ED7F824
S3150800A750F8000C2386F8D4300028DDD1DFED717AB5
S3150800A760DFE7714B012283F8A923FFF783B84BF083
S3150800A770E7FBFFF77FB86D4B6D4801221A7008F0AA
S3150800A780EBFAFFF777B80121084652F02FF9FFF7E1
S3150800A79071B8624B002283F8D42003F5005383F87E
S3150800A7A0A823FFF767B84BF00FFBFFF763B8012143
S3150800A7B0002052F01BF9FFF75DB867F029FCFFF798
S3150800A7C059B85C495C480DF1300966F0DBFC5A481B
S3150800A7D01022494666F0ECFC09287FF418AE574863
S3150800A7E045F08CFD0A2006F0E1FF47E65448494645
S3150800A7F045F084FDB2E6534B534A402148460AF0D9
S3150800A8009FFE67E6514B524A402148460AF098FE99
S3150800A81078E6504BFF221A70A0E64F49464866F084
S3150800A820B1FC40224946444866F0C2FC41494248C8
S3150800A83066F0A8FC40484022494666F0B9FC98F8FC
S3150800A8400030032B4AD045493B4866F09BFC402222
S3150800A8504946394866F0ACFC4149374866F092FCEF
S3150800A86035484022494666F0A3FC98F80030032B89
S3150800A8702AD03C49304866F085FC2F483EF048F817
S3150800A88039492D4866F07EFC2B483EF041F898F889
S3150800A8900030032B7FF4FAAD2748344966F072FC82
S3150800A8A025483EF035F8F1E59847F8E5304B314A4A
S3150800A8B01B6802EBC30340211B792F4A48460AF05E
S3150800A8C03FFE38E69847FAE52C491B4866F05AFCDD
S3150800A8D040224946184866F06BFCCAE728491648DC
S3150800A8E066F050FC40224946134866F061FCAAE728
S3150800A8F01148244966F046FC0F483EF009F800283E
S3150800A9003FF429AE204845F0F9FC24E6DFED057A48
S3150800A91013E740F071F900BFD0A70020000000102F
S3150800A920A01802200000000000200010A218022033
S3150800A930E45701204CB00808245E012058B00808E6
S3150800A940A4B108082C370120E8B0080824370120EC
S3150800A95014B108089B18022070B008088CB00808C3
S3150800A96098B00808B0B00808C0B00808CCB0080805
S3150800A970541700201058090834B10808A4B008086C
S3150800A98080B0080840B108084CB10808000000006B
S3150800A99010B590F8E03090F8DCC0174C83F001034E
S3150800A9A063F3000C80F8DCC04FF48C62002120466B
S3150800A9B075F0A3FA4FF4F072002104F2644075F0C2
S3150800A9C09CFA0E4B9FED0A7B03F50F5203F50053D5
S3150800A9D082ED087B03F6F46003F6F8620021002492
S3150800A9E0C3F8B0480160116010BD00BFAFF3008026
S3150800A9F000000000000000F05024001000000010C5
S3150800AA009FED116BD0ED0F7A80ED030AB5EEC00A03
S3150800AA100123F1EE10FA80ED066BC0ED097A80EDA0
S3150800AA200F0A03720BD9DFED0A6A86EE807AF5EE15
S3150800AA30407AF1EE10FA80ED0A7A03D07047054B9A
S3150800AA408362704767F0CABD00000000000000007E
S3150800AA50ABC222480000C07FD0B5554C554E0027E2
S3150800AA60204632463B463F216FF03CF904F1280068
S3150800AA7032463B4640216FF035F904F15000324624
S3150800AA803B4641216FF02EF904F1780032463B46E9
S3150800AA9042216FF027F904F1A00032463B464321D4
S3150800AAA06FF020F904F1C80032463B4644216FF0A6
S3150800AAB019F904F1F00032463B4645216FF012F9C8
S3150800AAC004F58C7032463B4646216FF00BF93A4B3B
S3150800AAD03A49196047201871482083F8240049200C
S3150800AAE083F844004A209FED2E6B9FED2F7B83F859
S3150800AAF064004B2083F884004C20002283F8A400CD
S3150800AB004D244E2083ED046B83ED0C6B83ED146BA3
S3150800AB1083ED1C6B83ED246B83ED067B83ED0E7B47
S3150800AB2083ED167B83ED1E7B83ED267B1A721A73E3
S3150800AB30196283F8282083F82C20196483F84820A2
S3150800AB4083F84C20196683F8682083F86C20C3F8CC
S3150800AB50801083F8882083F88C20C3F8A01083F827
S3150800AB60A82083F8C44083F8E40083ED2C6B83EDBA
S3150800AB702E7B83ED346B83ED3C6B83ED367B83ED67
S3150800AB803E7B83F8AC20C3F8C010C3F8E01083F806
S3150800AB90C82083F8CC2083F8E82083F8EC20D0BDC1
S3150800ABA0002D310100000000000000000000000038
S3150800ABB0F0220020400D0300581A0020CC250A0870
S3150800ABC00D480E4AC3680E499FED097B10B4002450
S3150800ABD043611C700830046280F82440094B5DF814
S3150800ABE0044B80ED0A7B45F055BB00BFAFF30080F0
S3150800ABF00000000000000000A83B002084190A0895
S3150800AC001CA60808488209082DE9F04F2DED048B8B
S3150800AC10544891B0FDF70CFC20B111B0BDEC048B83
S3150800AC20BDE8F08F012550490095034646220446A3
S3150800AC304E4845F073FE4E48046143F04BFF4D4BBA
S3150800AC404D4A1B6813801B0C93704C4B9D63FFF792
S3150800AC50B7FF60F0C9FE4A494A4846F04BFC4A49E4
S3150800AC604A4846F043FC4A494A4846F03FFC4A49A6
S3150800AC704A4846F03BFC4A494A4846F037FC4A4BA4
S3150800AC801D78002D40F06581484E494845F036FB51
S3150800AC9031222946474875F030F996F8790165F06A
S3150800ACA063F896F8500565F05FF896F8DF0265F0E8
S3150800ACB05BF84149414846F01DFC414870F0FCFBF1
S3150800ACC0404870F0F9FB404A4048536843F4000393
S3150800ACD0536070F0F1FB3E4890F83C33002B00F0CF
S3150800ACE043833C4B9A689B6C5380202383F31188DB
S3150800ACF005F0D4FB384B1A78511E012900F21C8343
S3150800AD0036495960012A1DD1354A3648116C41F039
S3150800AD1010011164116E41F010011166116E116A6D
S3150800AD2041F010011162116A21F0100111622E49D9
S3150800AD30126A98604FF48002702381F83633C1F89E
S3150800AD4084214A60244E2548B1680268B1FBF2F3B3
S3150800AD50013B9BB203FB0222914200F00D8323487C
S3150800AD6005F016FA209300209C190A08B89D0020C1
S3150800AD7000B00120B0190A087C930120A83B0020E6
S3150800AD802DBA0608B4190A0821A90608C0190A081E
S3150800AD9099110508D4190A0811110508E0190A08B5
S3150800ADA0AD140508F4190A08851802207058001011
S3150800ADB00C1A0A08542B01201D740408241A0A08C0
S3150800ADC0F0950020CC95002000230140A89500208E
S3150800ADD0186200202C350120709400201C190020D0
S3150800ADE00038024000BD010500E100E0E4260A083B
S3150800ADF0B3F5AA7FC1F04E807BB9AF4BAF49B04AD5
S3150800AE00B048C3E902214FF4A271102219805A6092
S3150800AE10AD4900221A6146F069FBA74F264646B996
S3150800AE203B8833B1B86803681B689847031EC1F2AC
S3150800AE30D7820026A54FDFF8C0830096B7F84220D0
S3150800AE40A3493346404645F069FD0096B7F8D8222F
S3150800AE50A0493346A8F5867045F060FD009633464E
S3150800AE60B7F804239C49A8F5D47045F057FD9B49CB
S3150800AE709B4846F03BFB9B4B1E7097F84D35D90710
S3150800AE8003D497F84C35DB0948D0DFF84082B8F888
S3150800AE904410B8F8460040F06FFAB8F84C16074662
S3150800AEA0B8F84E0640F068FA0646002F01F0998079
S3150800AEB0874201F0058398F83836062B96BF8A4AEA
S3150800AEC08A4B52F82330814A186892F84026596806
S3150800AED0520608AB03C302D501F10043099308A93A
S3150800AEE0384606F043FB002E41F07E80804BC3E9CE
S3150800AEF00076764B93F84D35DB0706D5DFF8FC82EE
S3150800AF0098F8AC33002B01F0E582704B93F84C357A
S3150800AF10DB0941F0C381734B01221A70754B1B780C
S3150800AF2053B96A4BB3F8EC023EF098FA002801F0E0
S3150800AF308B8171483AF002FE644B93F8BC63F609BC
S3150800AF4041F0BE803EF060FC3FF0CCFA6B4845F01D
S3150800AF50D5F96B496B4846F0D1FA6B496B4846F010
S3150800AF60C9FA5A4B93F80C23120700F1CF81614BAB
S3150800AF70197879B9554B66481B89692B9CBF654A70
S3150800AF8052F8231045F0BAF94AF03AFF6249634885
S3150800AF9046F0B0FA624DDFF8688205F580674FF033
S3150800AFA0FF36294632464046203508F0D3FCAF42E4
S3150800AFB0F7D15C485C4946F0A1FA5C4800F5805533
S3150800AFC095F8AC31002B00F0C581594959485A4DBE
S3150800AFD046F098FA59495A4846F088FA59495A485B
S3150800AFE046F084FA95F85C36002B00F0A881574B9A
S3150800AFF05A68002A00F0BB8158F0D2F900283FF4BD
S3150800B0000CAE5349534846F071FA5349534846F033
S3150800B0106DFA5349534846F079FA5349534846F06E
S3150800B0206DFA5349534846F069FA5349534846F06E
S3150800B03065FA5349534846F06DFA5349534846F062
S3150800B04059FA5349534846F055FA5349534846F076
S3150800B05051FA5349534846F04DFA5349534846F076
S3150800B0604DFA30F083FE524857F040FE514B524994
S3150800B070524801221A6046F039FA5149514846F0B9
S3150800B08035FA514A514805216DF0E6F950495148BB
S3150800B09046F02CFA5049514846F02CFA5049514886
S3150800B0A046F028FA5049514846F02CFA504951487A
S3150800B0B046F028FAA6E000BF903601206C1A0A0866
S3150800B0C088470020741A0A089DA1060870580010BF
S3150800B0D09C1A0A08A41A0A08B01A0A086DAA0608C9
S3150800B0E0BC1A0A08A4180220AC260A08C8260A08A8
S3150800B0F07493012085180220B0230010501B0A08FB
S3150800B10099330608041A0A08095106082C9A0908E8
S3150800B110681B0A0858580908810F0508FC170A0809
S3150800B120B86B00207C1B0A08A1450208B86F0020EE
S3150800B130696302089026080870810020B94502084C
S3150800B1408C1B0A0831550208981B0A08E83B0020A0
S3150800B15095290608A41B0A086D100608B01B0A08DC
S3150800B160712B0608BC1B0A088D2A0608C81B0A0884
S3150800B1703D2A0608D01B0A08652A0608DC1B0A08A9
S3150800B180B52A0608E81B0A08BD1B0608F01B0A08AC
S3150800B190991B0608FC1B0A08191B0608041C0A0842
S3150800B1A03D1B0608101C0A08611B06081C1C0A0819
S3150800B1B0A01A0010949301209DBC0508241C0A08B7
S3150800B1C051D70508441C0A08BDBC0508501C0A08C6
S3150800B1D01DC30508681C0A0831D90508741C0A0825
S3150800B1E039D90508801C0A080DC305088C1C0A08ED
S3150800B1F015C305084C810908E89E002068BD0010A3
S3150800B200B0A500207649774846F080F97649774810
S3150800B21046F078F97649774846F078F976497748D6
S3150800B22046F074F97649774846F070F976497748D2
S3150800B23046F060F97649774846F064F976497748E2
S3150800B24046F060F97649774846F05CF976497748DA
S3150800B25046F058F97649774846F054F976497748DA
S3150800B26046F044F97649774846F04CF976497748E6
S3150800B27046F03CF97649774846F048F976497748E2
S3150800B28046F044F9764B1B78002B00F00382754C88
S3150800B29075490125002348222046009545F03EFBC6
S3150800B2A0002372490095472204F10C0045F036FB4D
S3150800B2B06F4B93F859359B0700F1F485684B1B785B
S3150800B2C00BBB6C48036143F005FC694BB3F8F444C7
S3150800B2D020463EF0C3F838B19FED670A674B6849C8
S3150800B2E06848224664F07CFD614BB3F80445204665
S3150800B2F03EF0B4F838B19FED600A634B6049634885
S3150800B300224664F06DFD35F0EFFB86E493F82B27B3
S3150800B310002A3FF42CAEB3F842003EF09FF800280E
S3150800B3203FF425AE00220092594B5A487F224FF42B
S3150800B330CA6107F035FC1AE6574804F029FF0123CD
S3150800B340D5F8581685F85C3628463CF027FFC5F828
S3150800B35060064CE60123D5F8A81185F8AC311AF039
S3150800B360AFF8C5F8B00130E63DF008FFB9E44B4A3E
S3150800B3701168596013603FE6D0E90201F26821F0CE
S3150800B380FF01002717605060936217610223D1609E
S3150800B390337004F099FF202383F3118805F07EF8B3
S3150800B3A005F046FB3378022B40F07185032372685B
S3150800B3B03370F36852680921D962012159615F62C5
S3150800B3C01F6112B1DA680A43DA6085221A6004F04E
S3150800B3D07BFF33493348344E46F08CF8012768E042
S3150800B3E049C405089CEA080821C305088C290808E9
S3150800B3F0ADBD0508941C0A08F9BD0508A81C0A086D
S3150800B40045BE0508C01C0A0829E90308DC1C0A0809
S3150800B4109DBD0508E41C0A088DBD0508F81C0A0828
S3150800B42089BF0508081D0A0891BF0508181D0A08DE
S3150800B430DDBE0508281D0A08F5920508301D0A080C
S3150800B44099BF05083C1D0A08FDB20408541D0A08E0
S3150800B45041FE0508601D0A0891BE0508781D0A0800
S3150800B46085180220C49D00205C200A0870200A085E
S3150800B47070580010DCB0012000401C465C19002002
S3150800B48090200A085046002068190020C846002067
S3150800B49025BE040868650020F4260A08041800205A
S3150800B4A035860408301A0A08302B0120384606F07B
S3150800B4B07DF93368012BF9D9694B93F8BD23170732
S3150800B4C078D5D3ED757ADFED676A9FED676A93F8ED
S3150800B4D04C359FED660A67EEA67AB6EE007A67EEF9
S3150800B4E0877A180786EE277A614BDFED626AD3ED15
S3150800B4F0007A9FED616A27EE267AF4EEC67A48BF8F
S3150800B50037EE077AF1EE10FAD8BFF0EE477AF0EE8A
S3150800B510046A27EEA67AB4EEC07AF1EE10FA00F3C2
S3150800B52049879FED507A67EE877A87EE800A62F040
S3150800B530A1FF524B00225A60B0EE087AC0EE076AA5
S3150800B540F7EE004A36EEA45ABFEE007AA0EE005A8D
S3150800B55074EEE65A84EE856AA0EE007AE0EE005AAA
S3150800B56037EE077A66EE866A67EE067A26EE256A6B
S3150800B570B1EE667AC3ED006A83ED027AC3ED037A0B
S3150800B58083ED046A364B93F80B365907C3F38006E6
S3150800B59000F19C863A48032256213EF0A9FE394816
S3150800B5A0032257213EF0A4FE374890F83C33002B7F
S3150800B5B000F012872A4B93F80C33DE0700F1388621
S3150800B5C0274B93F80C339A0700F1DC85244B93F844
S3150800B5D00C335B0700F1D185214B93F80F33DF0756
S3150800B5E000F1C6851E4B93F809361E0700F1BB8588
S3150800B5F01B4B93F80936D80600F1B085184B93F81B
S3150800B600103F002B3FF409AC204E0F335B0100229C
S3150800B610C6E9232306F1A8000123142286F8A330DD
S3150800B620C6F8942044F012FAB369002B00F0058698
S3150800B630174A13885168194489B222460120002AFC
S3150800B6407FF4DAAB002B3FF4D8ABB3F5A27FBFF497
S3150800B650CFABB1F5A27F0246F1D9FFF7DEBB00BF3B
S3150800B66070580010DB0F494000006144809F554820
S3150800B670D467001000007A440AD7233C00750120DD
S3150800B680541A0A08601A0A08D05E00208847002063
S3150800B69090360120BC49BD4845F028FFBC4ABD4844
S3150800B6A005216CF0D9FEBC4ABC4810216CF0D4FECA
S3150800B6B0BB4ABC4811216CF0CFFEBB4ABB481021DF
S3150800B6C06CF0CAFEBA4ABB4811216CF0C5FEBA4AEC
S3150800B6D0BA4811216CF0C0FEB949BA4845F006FFD0
S3150800B6E0B949BA4845F002FFB949BA4845F0FEFEDD
S3150800B6F0B94ABA4805216CF0AFFEB949B94845F0D0
S3150800B700F5FEB949B94845F0F1FEB949B94845F0D9
S3150800B710F1FEB949B94845F0E9FEB949B94845F0D5
S3150800B720E5FEB949B94845F0E1FEB949B94845F0D9
S3150800B730E1FEB948B94A11216CF08EFEB84890F876
S3150800B7403C33002B00F03384B64EA6F5B16557F0AE
S3150800B750EBFCB548314644F0F7F9B5F8CA023DF0B6
S3150800B7607DFE68B105F5D46393ED000ADFEDAF0AF7
S3150800B770AF4AB049B048B8EEC00A00236CF088FD5D
S3150800B780AE4BB3F9E420B3F95210914201DAA3F8AB
S3150800B7905220AB4BAB4FAC4DAC4EDFF8A0927B6062
S3150800B7A003F14001B96003F15001F96095F8091AEF
S3150800B7B0DFF800B34FF07E524FF014084FF4EE6AEC
S3150800B7C0BA613A617A61B2613261726118FB01A1AC
S3150800B7D003F160024944726005F60C2003F1A002E9
S3150800B7E0B033B260F36044F0AFF995F8591AC5F86A
S3150800B7F03C7A18FB01A1494405F65C20C5F840BA15
S3150800B80044F0A2F995F8A91AC5F88C6A18FB01A1A3
S3150800B8100BF17803494405F6AC20C5F8903A44F094
S3150800B82093F995F8F93AC5F8DC7A18FB03A1494467
S3150800B8300BF1F00305F6FC20C5F8E03A44F084F96C
S3150800B8400BF5B473C5F8303BC5F82C6B51F012FAFA
S3150800B85099F8BC33590600F19D837D483AF06EF994
S3150800B8607C483AF06BF97C483AF068F97B483AF03C
S3150800B87065F901205FF0DCFA704B93F80F23920606
S3150800B88040F1288393F84D25D70704D593F84C350E
S3150800B890DB0940F0AE85724940F25E2052F016FD93
S3150800B8A0664D95F809369E0640F1278395F84C357E
S3150800B8B0DB0940F080836B4940F25E2052F006FDBA
S3150800B8C0212038F0D5FD48B95C4B674DB3F83A836B
S3150800B8D0B3F83C73AB68002B00F09385574B93F88D
S3150800B8E01E124B1E2F2B0AD8604CDFED500A9FED17
S3150800B8F0600A20463EF064FD20463AF01FF94F4D97
S3150800B9005C4995F836025C4F5FF052FF95F80203E2
S3150800B9105A495FF04DFF59F0B9F905F61E5600244D
S3150800B92005F64F5515F8012F36F8021F013438462B
S3150800B9303EF0DEFC082CF5D15149524845F0E6FDAB
S3150800B9405149524845F0D2FD5149524845F0CEFD7D
S3150800B9505149524845F0CEFD384B93F85935DB0925
S3150800B96040F06F834E494F4845F0C0FD4E4B93F863
S3150800B97027201AB94D4A1168D96213604A4E4C4CB1
S3150800B980B4614EF6602297E0A52106088C1D0A08C8
S3150800B9904D2106089C1D0A08D52D0608AC1D0A0867
S3150800B9A0B52D0608B81D0A08892E0608C41D0A08FA
S3150800B9B0692E0608D01D0A08052F0608DC1D0A0888
S3150800B9C0B1210608E81D0A0839200608F81D0A08E4
S3150800B9D045200608041E0A08E11F0608101E0A0864
S3150800B9E00D2206081C1E0A082D1006082C1E0A0819
S3150800B9F0515206083C1E0A08F1200608501E0A087D
S3150800BA00A1200608601E0A08612206086C1E0A089C
S3150800BA1039100608781E0A08841E0A08912F060897
S3150800BA20308D0020F85D0010C806001000000000E8
S3150800BA305C9E0020901E0A083040002070580010B6
S3150800BA40E48B0010BCB00120000000109CB001205F
S3150800BA5074B0012064B0012054B0012044B0012024
S3150800BA60A41E0A08DC1E0A089C8D0120A88C00204A
S3150800BA70CDCC4C3D088D0020181F0A08E08C00200C
S3150800BA8011E30608241F0A0899E00308341F0A0868
S3150800BA90E55D0408481F0A08B1A00608581F0A08E9
S3150800BAA061590408AC83080840470020A0AC002070
S3150800BAB0C25D0010E83C00200023C6E90223304698
S3150800BAC004F22A630025336286F826503EF0EEFC1F
S3150800BAD00121B24A86F82710B149B24B53604FF09C
S3150800BAE07E56B14B91602039966116615661D160D8
S3150800BAF001F140025A6001F5B0729A60AB489E6146
S3150800BB00203A29461E615E61DA6034F003FFA84BCD
S3150800BB10A84AA948A9495A6002F580729A60416004
S3150800BB20103201F58071DA608160A54A9E61103194
S3150800BB30C1601031516040311E615E619160A14B58
S3150800BB409661103116615661D16001F160021031BB
S3150800BB50C3E901128661066146619E611E615E61E6
S3150800BB6001F16002984E994FDFF8F8A2DA60A4F264
S3150800BB705254B4F8B88940463DF070FCA0B3B4F806
S3150800BB80BCB9934B934942464FF00C0807EE90BA5E
S3150800BB9008FB0538BBF10009404618BF4FF00109FC
S3150800BBA0B8EE678A44F062FFBBF1000F40F085816A
S3150800BBB05AF8253004F6E2125A604FF07C529A6120
S3150800BBC004F6C2129A604FF080421A6104F6D21245
S3150800BBD0DA604FF07E525A61C6E9048304F6B81358
S3150800BBE086F80890F76073600135042D04F16C043B
S3150800BBF006F1180607F17807BBD1774C774D94F80C
S3150800BC006C3404F2A450002223F0070305F65C11F5
S3150800BC10A5F8DC2584F86C3443F096FF95F8CD300A
S3150800BC206F4DD8064CBF04F5996004F592606D4CCB
S3150800BC30294643F089FF204631F08EF853F0EEFB93
S3150800BC40A4F5BB62002182F86014A4F5BA72664BAB
S3150800BC501360A5F5BA65A4F5A8726448644913602B
S3150800BC6045F044FC95F8CD30D9064CBFA4F588704C
S3150800BC70A4F5A470594C04F5BA6104F5BB6304F243
S3150800BC80D4520D681968C36A12685A6002681D6042
S3150800BC905268996090475749574845F027FC574BD3
S3150800BCA01B78002B37D14C4B554A56485649574DA9
S3150800BCB0574EC3E9F202574845F018FC564957480B
S3150800BCC045F014FC564B5749574A5D614FF07E5074
S3150800BCD08861086190611061186104F51A60C8608E
S3150800BCE0524848615248986104F58C40986006307D
S3150800BCF0D86004F5646004F6AC14C1E901044D4942
S3150800BD00566004F66C3400F5DD60C2E90240556100
S3150800BD10596052F0B9FB314B93F858355A0600F181
S3150800BD205D8150F0A1FE4449444820F0F1FD444BA2
S3150800BD304449A3F568624FF07E54B2F84C00424A73
S3150800BD404B60A3F59C65A3F2D4468C6124330C6141
S3150800BD50946114613D4CCD60C2E90136D560334B20
S3150800BD608E6000254B61536125703DF077FB58B115
S3150800BD702B46DFED370A9FED3C0A364A36493748E7
S3150800BD806CF086FA01232370144B354CB3F8160E63
S3150800BD90002525703DF062FB68E000BFACBC0020C2
S3150800BDA09897001078960010E8BC0020A80B0010A1
S3150800BDB0A89B0020F898001078980020189A001080
S3150800BDC05898002038980020B48D0120C888002093
S3150800BDD02C19002010200A080000001070580010C6
S3150800BDE0405E0010D80500100000C8C218200A08D6
S3150800BDF049B1050805AB040824200A08851802205D
S3150800BE00281F0020F01F002005CA05080AD7233C72
S3150800BE10486D001030200A0851A205083C200A087F
S3150800BE2024B00120907501200C8D01200000C84225
S3150800BE30CDCCCC3D4C9E00106F86140090BC0020E3
S3150800BE40F0660010A4A7002084A70020C7180220C7
S3150800BE50CDCCCC3D9C9E002044200A08508800206A
S3150800BE60C618022000270A080000C07F00283FF4F1
S3150800BE700EAA2B461FED040AC54AC649C648F6EE61
S3150800BE80000A6CF005FA01232370FFF700BAC348CD
S3150800BE9004F07EF9B1F5AA7F4FF001027FF6CFAB29
S3150800BEA0FEF7BBBFBE4B1B78002B7FF42CAABD49FF
S3150800BEB0BD4845F01BFBFFF701BABC4BDFEDBC0ADA
S3150800BEC053F82510B0EE480A0023424638466CF06F
S3150800BED0DFF96DE693F84C32013B2F2B02D8B548B3
S3150800BEE039F02CFEB44B93F84D32013B2F2B3FF61D
S3150800BEF0D7ACB24839F022FED2E4B149B14895F838
S3150800BF00D76245F0F3FAB049B04845F0EFFA304643
S3150800BF103DF058FCAE4BC3F85803002800F0E98200
S3150800BF2003F2463603F26F379B4605F5517503F55E
S3150800BF30807A039405E00BF1200BD34505F1020541
S3150800BF406DD000234FF0010826F8028F07F8013F4D
S3150800BF509BF87C0338F08CFA04460028EBD1B5F838
S3150800BF60009048463DF07AFA0028E4D0984B4946B6
S3150800BF7003F55770C3F8604343F0F0FA9548424614
S3150800BF8049463EF0B5F92B8833800BF55E7039F0DB
S3150800BF90D5FDD0E7904857F061F9904857F05EF91B
S3150800BFA08F4857F05BF98F4857F058F955E43DF03C
S3150800BFB0E5F8FFF7C9BB8C4857F050F98B4857F09E
S3150800BFC04DF98B4857F04AF98A4857F047F98A4895
S3150800BFD057F044F9894857F041F971E454F04AFC9E
S3150800BFE09FE600283EF49AAF734B93F83A36062B31
S3150800BFF000F25281824A52F823306F4A186892F842
S3150800C00040265968D20906AB03C302D001F10043A2
S3150800C010079306A9304605F0A9FAFEF767BF6C4DE7
S3150800C020039C95F83C33002B7FF44AAC0123D5F8E2
S3150800C030381385F83C3328463CF088F8C5F84003A1
S3150800C0403EE4704B93F8D421002A00F0108193F84F
S3150800C050D521002A00F01D81D3F8D8310B939DED28
S3150800C0600B8A18EE100AFCF755FB0446224666486A
S3150800C0700B460D4644F042F9B4EE488AF1EE10FA42
S3150800C08080F1E980DFED617AB4EEE78AF1EE10FA25
S3150800C09000F3E180DFED5E7AB4EEE78AF1EE10FA9E
S3150800C0A000F1D9805B4844F029F9564B40F201115A
S3150800C0B0002283ED648AA3F88C1183F88E2151E45B
S3150800C0C093F8B429052A00F21982DFE802F0373A14
S3150800C0D0342D034440F2F1134F4900220B804F4B95
S3150800C0E04F481A8039F02AFD4E4839F027FD324B61
S3150800C0F04D4993F8BC230E7090067EF523AF93F84E
S3150800C100B429052A00F2018201A353F822F000BFE0
S3150800C11049C1000849C1000849C1000845AF0008DF
S3150800C12049C1000845AF00083B4B4FF421721A80FD
S3150800C13040F28522D3E74FF4D073CDE74FF4F87376
S3150800C140CAE74FF40073C7E7384940F66E0052F065
S3150800C150BDF8FEF7F7BE40F20933BDE706203FF00B
S3150800C1608DF9FFF74BBA05203FF088F9FFF740BA7B
S3150800C17004203FF083F9FFF735BA03203FF07EF934
S3150800C180FFF72ABA02203FF079F9FFF71FBA00BF76
S3150800C190DC9E002050200A08D8870020D0260A08EE
S3150800C1A08518022089A1060884200A0830270A086B
S3150800C1B00000000090B001207058001084B00120E3
S3150800C1C091030508041F0A08E90305080C1F0A0855
S3150800C1D09027002068860808508B0020188B0020BE
S3150800C1E0E08A0020A88A0020788C0020488C00204D
S3150800C1F0188C0020E88B0020B88B0020888B002044
S3150800C200AC260A08D0A70020641F0A080000DC42F2
S3150800C21000007042A0200A08821802208018022016
S3150800C2205848002038480020C5180220101B0A0864
S3150800C23001203FF023F9FFF7C3B9B94B1A68B26179
S3150800C24014361E60FFF7F4B9B64B93F8B4036DF0D5
S3150800C2503FFDFEF771BEB44922462B4640F6B200B2
S3150800C26051F072FCB14844F049F8FFF77BBBD3F8AC
S3150800C270DC4174B1236820469B68984748B1236817
S3150800C28021465B680AA898479DF82830002B7FF45A
S3150800C290E6AE9FEDA78AE4E6A64BAEE6A648C0F84A
S3150800C2A0687327B190F83C33002B00F01081A3483F
S3150800C2B0C0F86863002E3EF42EAE90F83C33002B8F
S3150800C2C07EF429AE3CF05AFFFEF725BE9C4BDFED07
S3150800C2D09D9A9FED9D9ADFF8B4A20FCB10AF07E9A0
S3150800C2E00F004FF0000900279FED988A0DF1300BDB
S3150800C2F0B84607EE907AF8EEE77AFBEC018A77EE15
S3150800C300A77A08F1010827EEA90A4F4480EE090A20
S3150800C3106FF034FDB8F1040FA8EE808AE9D109F16F
S3150800C3200109B9F5806FAAEC018ADCD1884BDFEDEB
S3150800C330876A1868DFED875A9FED876ADFF850C26B
S3150800C34005EE104AAE464FF47A6700220CFB02F35C
S3150800C35007EE903AF8EEE77A411C67EEA57A914225
S3150800C36037EEC67AB0EEC77ABDEEC77A17EE103A40
S3150800C37005D1B8EEC57A37EEC77AF0EEC76ABB4282
S3150800C38004DABDEEE75A1F46B64610460132B2F544
S3150800C390007FDBD1BEF1000F01D06D4B18606F4BEB
S3150800C3A015EE101A03F50A62A3F89E18C2ED006A84
S3150800C3B0FFF7F0B817EE900AFCF7ACF902460B4601
S3150800C3C0CDE90023664954A3D3E9002340F25E2051
S3150800C3D051F07CFFFFF7D6B83CF0D0FEFFF7EAB87D
S3150800C3E03246604940F25E2051F070FF0126FEF7A2
S3150800C3F016BD5D4856F032FF5C4856F02FFFFFF732
S3150800C4004FBA40463DF02AF800283FF467AA384656
S3150800C4103DF024F800283FF461AA554E052230461F
S3150800C42041463DF065FF0522394630463DF060FF3E
S3150800C43040466CF06BF84146286030463DF0F6FC05
S3150800C440686038466CF062F8394603463046AB6099
S3150800C4503DF0ECFC6A682968E860012606FA02F2F3
S3150800C46092B20A8306FA00F3AA689BB213830DF107
S3150800C47013010F23284632468DF8133065F006F966
S3150800C48032460DF11201284665F01AF99DF8123068
S3150800C490B12B2BD0BD2B7FF421AA4CF22043344676
S3150800C4A0344DADF814302846022205A92C6165F0F2
S3150800C4B0EDF8012330482B7539F040FBFFF70EBA2B
S3150800C4C02E4940F25E2051F001FFFEF727BD3CF0F1
S3150800C4D055FEECE60123D8F8A81388F8AC33404695
S3150800C4E04DF0A6FEC8F8B003FEF70FBD44F21043A0
S3150800C4F0D6E7234843F002FFFFF7E2B9214940F6A1
S3150800C5006E0051F0E3FE2E46F1E51F4940F66E0037
S3150800C51051F0DCFEFEF716BD00000000F0B30A413C
S3150800C5200418002000200010941F0A08C01F0A08DB
S3150800C53067A6CA42C8260A08F8B9001088B60010C5
S3150800C540E8050808DB0F494000C07F4400000000EA
S3150800C550EC6601200000803A00007A4500000010D1
S3150800C560341A0A08801A0A08D04800209048002081
S3150800C570141F0A089C8D012028460020C41A0A08A0
S3150800C58074860808F01A0A08381B0A08A011012040
S3150800C5907E5603000000000038B59FED216BDFEDE5
S3150800C5A0227A224B0360044600250123036480EDAA
S3150800C5B00E6BC0E90755C0E90955C0ED017AC0ED13
S3150800C5C0027AC0ED037AC0ED047AC0ED057AC0EDB3
S3150800C5D0067AC562C0ED0C7A80F8345080F844506B
S3150800C5E085644C306AF034FF114BA4F8B0504FF014
S3150800C5F0824284ED206B84ED266B84ED2E6B84F8E5
S3150800C6007C50C4F88850C4ED237AA4F89050C4ED41
S3150800C610287AC4ED297AC4F8A820C4F8AC3038BD05
S3150800C62000000000000000F000000000203B0A089F
S3150800C630CDCCCC3D000000009FED0F7B002200B55D
S3150800C640C0F8A4104FF0000E0D49C0F80CE0C0F871
S3150800C65020E0C0E90422C0E9062280ED0E7B80EDC9
S3150800C660347B5DF804EB426082600160426242F00E
S3150800C6704DBE00BFAFF3008000000000000000F0D0
S3150800C680083B0A080000000010B59FED136BDFEDAC
S3150800C690147A144CC0ED147A00234FF0010C83620F
S3150800C6A080ED126BC362C0E90833C0E90A33C0E9FA
S3150800C6B00C33C0E90E33C0E91033C0E9033300F187
S3150800C6C00C0E036043714361C36180F854C08361F3
S3150800C6D080F804C0846010BD00000000000000005F
S3150800C6E00000C07F40270A0870B5234ED6F8F835F3
S3150800C6F0D6F88847A6F8FC05013382B00546C6F881
S3150800C700F835ACB1002306F5C26001E0A3420FD0AC
S3150800C7101A010133815AA942F8D1184C144420460B
S3150800C72043F094F9164802B0BDE8704043F08EB95C
S3150800C73004F026F9D6F88837124A0190172B10D834
S3150800C74002EB031202F5AC449FED097B2582013307
S3150800C75084ED027B0198C6F88837083404F0B0FFE8
S3150800C760DDE7019804F0ACFFDCE700BFAFF300801B
S3150800C77000000000000000F00050001008560010ED
S3150800C78000560010000000102DE9F04F2DED068B25
S3150800C7900123DFED5BAA85B00A24BFEE009AB8EE46
S3150800C7A0008AF6EE008A06461D4629EE08AADFED3F
S3150800C7B0559A2AEE09AA4FEA450B32464FEA051A58
S3150800C7C0E800B7EE009A0021871802F1040990469E
S3150800C7D00B46D7ED010A97ED000A69EE207A20EE9E
S3150800C7E0E97AE9EE807A5B44A9EE007AF4EE477AB4
S3150800C7F0F1EE10FA58D698ED016A59ED016A36EE4F
S3150800C800676A76EEC76A87ED016AC7ED006A98ED32
S3150800C810016A59ED016A77EE867A36EE877AB3F5BC
S3150800C820806F09ED017A5744C8ED017AD144D044A6
S3150800C830CFD369EE8A7A2AEEE97AE9EE2A7AAAEE5F
S3150800C840097AB4EE677AF1EE10FA40D60131A942B8
S3150800C85039EE079A79EEA79A02F10802B4D1013C9B
S3150800C8601DD05846FBF734FF02460B4622A1D1E9F4
S3150800C8700001FCF7D1F8FCF77DFA09EE100A29EE5B
S3150800C880280A6FF0EBFAB0EE40AAB0EE490A6FF04C
S3150800C890E5FA5D46B0EE4A9AF0EE40AA85E705B09D
S3150800C8A0BDEC068BBDE8F08FF0EE691AB0EE491ABA
S3150800C8B0CDE90202CDE9003173F044F8DDE9020260
S3150800C8C0DDE90031B0EE407AF0EE607A93E7F0EEFB
S3150800C8D06A1AB0EE4A1AF0EE690AB0EE490ACDE9CC
S3150800C8E00102009173F02EF8DDE901020099B0EE1D
S3150800C8F0407AF0EE607AA9E700000060FB2109C0E3
S3150800C9002EBDBB33000000002DE9F84FC84BC94CBB
S3150800C910C949CA482DED068BC3F82C44C84C1C607F
S3150800C9200022C84CC3F83444C3E90122C64C83F834
S3150800C9303024C64B0B60C1F86446C54BC54C1A700B
S3150800C9408125C1F858566360E360C34DC34B81F82F
S3150800C9505C260026C24925604FF07047C0E900678B
S3150800C960C04D0D606420C1E90620086203F1280164
S3150800C97003F14000C3E902111960586003F1200170
S3150800C98003F11800C3E90600C3E90811B648B74918
S3150800C9901A6100F128051A754FF47A7C0B46056072
S3150800C9A0B34FC560C4F808C000F11804C0E90644CE
S3150800C9B000F1400600F1200443F8247BC0E908444E
S3150800C9C0C1E9022285604660026102750A71FF208C
S3150800C9D0A43143F8102C03F80C2C23F80A2C03F87E
S3150800C9E0082C03F8070C03F8062C10339942F0D1EB
S3150800C9F0A049A14BA14CC3F89C4001F13400142571
S3150800CA00C3F894505861002444F620604FF07045EE
S3150800CA10C3E92A451960C3E9022299491A71C3E98B
S3150800CA200622C3E92322C3F89800964B9648974CEA
S3150800CA300860862581F83C23C1F84823C1F8385395
S3150800CA40C3F83853C1F8444301259149C3F84853FC
S3150800CA501860904D83F83C238720C1F8A803052069
S3150800CA60C3F84443C1E9ED508B4B81F8AC239FEDE5
S3150800CA706A8B8A4A0A60002703F5C0729F6083EDB5
S3150800CA80068BDF6083ED088B83ED0A8B1F6083EDD1
S3150800CA900C8B1F6183ED0E8B83ED108B83ED128B50
S3150800CAA083ED148B83ED168B60339342E6D17C4B72
S3150800CAB07C4A1A607C4A5A60DA6017707B489FED98
S3150800CAC07C9A4FF47A6228219A606DF01FF97948AA
S3150800CAD025216DF01BF9784859216DF017F977482B
S3150800CAE05A216DF013F9764B764824221A712321C0
S3150800CAF0754A1A606DF00AF9FDF7AEFF734BDFF859
S3150800CB002CC273491F7222221A71724ACCF820204D
S3150800CB10C2E90077C2E9027717750022C3E9041251
S3150800CB2003F128021A624FF021028CF804206A4A9F
S3150800CB301A606A4ACCF80020694A1F739FED38AB21
S3150800CB4002F5804502F58C4602F5805A02F54058F2
S3150800CB509FED357B634A83F82C7002F5805B83ED85
S3150800CB60068B83ED0CAB6048604A83ED099A202159
S3150800CB7000238CED047B8CF808708CF80C708CED17
S3150800CB80068B6DF0AFF85A48584A9FED5A0A4F215E
S3150800CB9000236DF0A7F84E4A574800231F216DF071
S3150800CBA0A1F8564B4A4956481F720022C3E9041297
S3150800CBB04FF00C01197153491960F7EE009A1F736B
S3150800CBC083ED068B504B40F8043BF0EE690A6CF097
S3150800CBD083FE65F06FFA4D486CF07EFE4C4B4D486F
S3150800CBE01860C3ED019A83ED029A83ED039A83EDEB
S3150800CBF0049AC3ED059A484B4848494A83ED00AB69
S3150800CC00484B212183ED00AB00236DF06BF8464BB2
S3150800CC10404818608CE000BF0000000000000000DB
S3150800CC2000000000000000F000093D0000000000C0
S3150800CC30248F0120702A0A0800520020A03B0020F9
S3150800CC40882D0A08B8210120742A0A08702D0A08B6
S3150800CC50F4B00120F0AF0120802A0A0870C800103D
S3150800CC6000B00120AC2D0A08B0C80010942A012093
S3150800CC70C02D0A08E82D0A08884700208F1E1700CD
S3150800CC80F8B9001088B600104C2E0A089CAB0808A4
S3150800CC9068BD001094AB0808082C0020302E0A083E
S3150800CCA0F4570120902A0A08F0C800103026002000
S3150800CCB0000000008824002038250020E0240020F9
S3150800CCC08CAC002030240020602E0A08A88C002096
S3150800CCD080841E009C8D01207C2E0A08A02E0A083E
S3150800CCE07058001000000010D8200020801A060096
S3150800CCF0B02000200000C842C8220020A822002038
S3150800CD00A0960120CC250A08C02E0A08C096012044
S3150800CD10EC9301200C120A0880480020E025002028
S3150800CD20400D03007848002014940120284600206E
S3150800CD30CB4ACC48C3ED019A83ED029A83ED039A58
S3150800CD4083ED049AC3ED059A272100236CF0CAFFE8
S3150800CD50C548C34A332100236CF0C4FFC348C04A00
S3150800CD60352100236CF0BEFFC148BD4A3721002398
S3150800CD706CF0B8FFBF4BC04AC0491960C3E90A77CF
S3150800CD801F721F731F6283F8247083ED068B83ED71
S3150800CD900C9ABB4B1160BB4919604FF0260CB54B7A
S3150800CDA0DFF84CE382F804C04FF0340C83F804C073
S3150800CDB042F2046CB24BAEF804C04FF0270C8EF862
S3150800CDC006C0CEF8001043F2324E9FEDA17BA3F8C1
S3150800CDD004E04FF0330E83F806E0A64B1772C2E95B
S3150800CDE00A7782ED047B83ED047B1773176282F85A
S3150800CDF0247082ED068BA44882ED0C9A0521984A88
S3150800CE0000236CF06FFFA148954A312100236CF08E
S3150800CE1069FF9F499F4808609F48DFF8D8E20F726C
S3150800CE200F734F6281ED068B9A490772016007738B
S3150800CE30476280ED068B9948CEF80010A8F5F87180
S3150800CE404160A8F51C71816091499548086292492C
S3150800CE50CEF8200008629148DFF89CC28EF8087068
S3150800CE600B46904901608A498F488862013098626A
S3150800CE7087498EF80C7001309FED777BCEF8280035
S3150800CE804FF0290008718249CEF824704FF02A0025
S3150800CE9081ED047B187185498CF808704FF02B00DA
S3150800CEA083ED047B8EF80400814B824A4FF02C00F8
S3150800CEB08EED047B8CF804008EED068B7E488CF88C
S3150800CEC00C70CCF82810013199624FF02D0E013103
S3150800CED083F804E081624FF02E0E784980F804E06A
S3150800CEE07748886077487849816073491F7281ED71
S3150800CEF0047B81ED068B67491F7301F1240083EDDE
S3150800CF00047B5F621960186283ED068B6A4BCCF866
S3150800CF10001019606949CCF824708CED047BCCF8B4
S3150800CF20200018628CED068B684808604FF0190CD3
S3150800CF3081F804C063491F7208604FF01A001F7316
S3150800CF405F620871624B63481921C2E901171A2109
S3150800CF50D7605960604911601960283111621962F9
S3150800CF604FF00101D76283F8381091854FF001011F
S3150800CF70DF6299850021C2E90401C3E90401C2E917
S3150800CF800977C2E90C77C3E90277C3E90977C3E9E8
S3150800CF900C7782F8387082ED068B83ED068B63F08A
S3150800CFA001FBDFF858E14D4ADFF854C1CEF80020FE
S3150800CFB00C21CEF82C1028324FF00301484B8EF87E
S3150800CFC00410CEF820204FF00101464A8CF80410D0
S3150800CFD0F1EE007A4FF4FD61CEED0C7A8EF808700A
S3150800CFE08EF80C70CEF82470CCF800301360CEF8AA
S3150800CFF0281028338EED048B8EED068B4FF0050E28
S3150800D0008CF808708CF80C70CCF82470CCF82030AA
S3150800D0101362CCF82810CCF82CE08CED048B8CED40
S3150800D020068BCCED0C9A0F234FF0020C1772177370
S3150800D0305762D36291622C4B82F804C082ED048B4E
S3150800D04082ED068BC2ED0C9A284A5FE0AFF30080AA
S3150800D05000350C0000000000804F120000000000A0
S3150800D060400D0300082600201049002090250020C6
S3150800D070B8250020882D0020C02D0020EC2E0A0897
S3150800D08004940120D02E0A08088D0020E08C002088
S3150800D090788C00201C2F0A08488C0020A8930120B1
S3150800D0A0402F0A080C2F0A0805030A0008030A007D
S3150800D0B0B88B0020D0480020888B002090B0012033
S3150800D0C015A5060884B001202DA50608902F0A0884
S3150800D0D090480020C0D40100542F0A0824300A08BA
S3150800D0E0E82F0A08E08A0020A88A0020AC2F0A0840
S3150800D0F00C940120188C0020E88B0020508B00200F
S3150800D100188B002033332340000048431FED037A71
S3150800D1101A604FF4FD6EC3F828E028324FF00D0E62
S3150800D1204FF00F0C1FED080ADE4883ED0C7A0E212E
S3150800D1301A6283F804E01F721F735F62C3F82CC07B
S3150800D14083ED048B83ED068B6CF0FEFDD6480F212C
S3150800D1506CF0FAFDD54811216CF0F6FD1221D44881
S3150800D1606CF0F2FDD34BCF48186090F82420CE48D7
S3150800D1705A73586090F82420CF489A734FF00D0ED2
S3150800D18083F80CE098601F7583ED049AC74ACB4B69
S3150800D1901A60986092F82420C9485A734FF00F0C09
S3150800D1A0C34A80F806C0DFF85CC35A6092F82420A8
S3150800D1B08CF806109A73C349016002464FF0100EA8
S3150800D1C01F7583F80CE083ED049A80ED029A80EDD2
S3150800D1D0039A40F60D63BC489380BB4ACCF800100E
S3150800D1E041F210134FF0150EACF80430B0EE690A90
S3150800D1F041F213430160B5488CED029A14218CED77
S3150800D200039A938082F806E082ED029A82ED039AE9
S3150800D2106CF09AFDAE4815216CF096FDAD4BAB4906
S3150800D220196091F82420AA495A7391F824209A7310
S3150800D230A94A1F75A94F17609F489FEDA90A9860CC
S3150800D240132759601F73A74883ED049A1D211623D7
S3150800D25093806CF079FDA448A44F1E216CF074FDF0
S3150800D26063F0BEFAA24AA34BA3494FF0030C4FF052
S3150800D270010087F80CC010734FF0200C9F4883F804
S3150800D2800CC018604FF0500C3860086010609C485D
S3150800D29087F804C0B86051270F71232788600F7379
S3150800D2A052210024A5F58047986090601171AAF66E
S3150800D2B0F87053221A716AF011F99022214607F57F
S3150800D2C07F6072F01AFE07F58453202221460AF180
S3150800D2D09800CAF88040CAE92344C3E90144CAF859
S3150800D2E0944072F00AFE202221460AF1B80072F034
S3150800D2F004FE402221460AF1D80072F0FEFD07F529
S3150800D30089534022214607F58C50CAF82041CAE9BC
S3150800D3104F445C60CAE95744CAE95A44CAE95C44BE
S3150800D320CAE94A44CAE94C44CAE95244CAE95444D7
S3150800D330CAF81C418AF87C418AF87F41CAF8184124
S3150800D340CAF83841CAF85841AAF87A41AAF87D417C
S3150800D350CAF84441CAF86441AAF8784172F0CDFD8A
S3150800D3604022214607F58E5072F0C7FD402221461D
S3150800D37007F5905072F0C1FD4022214607F59250FC
S3150800D38072F0BBFD2022214607F5945072F0B5FDD8
S3150800D3902022214607F5955072F0AFFD202221463E
S3150800D3A007F5965072F0A9FD2022214607F59750F9
S3150800D3B072F0A3FD2022214607F5985072F09DFDD4
S3150800D3C02022214607F5995072F097FD2022214622
S3150800D3D007F59A5072F091FD2022214607F59B50D9
S3150800D3E072F08BFD07F59C534022214607F59D50A8
S3150800D3F0CAF88043CAE9E444C3E90144DC60CAE9DF
S3150800D400E64472F07AFD2022214607F59F5072F015
S3150800D41074FD2022214607F5A05072F06EFD07F52F
S3150800D420A153402221460AF58660CAF82044CAF864
S3150800D43028445C60CAF82C4472F05FFD40222146FD
S3150800D4400AF59160CAF87444CAF87044CAF8784470
S3150800D450CAF87C44CAF88044CAF8844472F04DFD80
S3150800D460402221460AF59B60CAF8C844CAF8CC444B
S3150800D470CAF8D044CAF8D44472F03FFD07F5A95358
S3150800D4802022214607F5AA50CAF82045CAF81C45A5
S3150800D4905C60CAF83445CAF83C45CAF81845CAF863
S3150800D4A0304531E0E091002098910020509100200D
S3150800D4B00891002074AC00207C300A084CAC00208F
S3150800D4C064AC002060300A0814AC0020C09000202C
S3150800D4D07890002024AC00202C94012080250A088E
S3150800D4E000007A44482100200021002074B0012061
S3150800D4F054B0012044B0012064B0012098300A08D5
