S01400006275696C642F7275736566692E7372656343
S3150800800010100020B983000825E60208F983000845
S315080080101D840008F88300080B840008D814E65568
S315080080207CC80900B3830008B3830008893C0108AB
S31508008030B3830008B3830008B3830008454C0108DE
S31508008040B3830008B3830008294B0108A14B010834
S31508008050B3830008B3830008B5960408BD960408E0
S31508008060C5960408CD960408D59604087D400108EF
S31508008070B5400108F14001082D4101086941010890
S31508008080A1410108DD410108053D01085D3F0108E0
S31508008090813F0108A53F0108C93F0108DD9604088C
S315080080A0B3830008754E0108B3830008994E01088A
S315080080B0314D01089D4E0108C14E01081996040864
S315080080C0B38300082D44010865450108B3830008F9
S315080080D0B3830008B3830008D1500108F55001089E
S315080080E001970408E94B0108B3830008B383000825
S315080080F0094F0108B38300082D4F010819420108EA
S31508008100B3830008B3830008E54E0108B38300086B
S31508008110B3830008B3830008D14C0108B383000871
S31508008120554201088D420108C94201080543010864
S3150800813041430108B3830008B3830008ED3F0108F3
S315080081401140010835400108594001087D460108DB
S3150800815079430108B5430108F1430108314F010885
S31508008160B3830008B3830008B3830008B383000809
S31508008170B3830008B3830008B3830008B3830008F9
S31508008180B3830008B3830008B3830008B3830008E9
S31508008190B3830008B3830008B3830008B3830008D9
S315080081A0B3830008B3830008B3830008B3830008C9
S315080081B0B3830008B3830008B3830008B3830008B9
S315080081C0B3830008B3830008B3830008B3830008A9
S315080081D0B3830008B3830008B3830008B383000899
S315080081E011C900081DB107080000000000000000C2
S315080081F001F0FF01102A2BDB10F0070F08D010F84A
S31508008200013B013A8B422DD010F0070F42B3F6D14D
S31508008210F0B441EA012141EA014122F007047FF066
S3150800822000070023F0E80256083C85EA010586EABD
S31508008230010685FA47F5A3FA87F586FA47F6A5FAF9
S3150800824087F68EB9EED1F0BC01F0FF0102F0070205
S3150800825032B110F8013B013A83EA010313B1F8D1B0
S315080082600020704701387047002D06BF3546033891
S31508008270073815F0010F07D1013015F4807F02BFCA
S31508008280013015F4C03F0130F0BC0138704700BF1B
S3150800829072B6394880F30888384880F30988384820
S315080082A04EF60851CEF20001086040F20000CCF20A
S315080082B000004EF63471CEF200010860BFF34F8F0E
S315080082C0BFF36F8F40F20000C0F2F0004EF68851FF
S315080082D0CEF200010860BFF34F8FBFF36F8F4FF0E8
S315080082E00000E1EE100A4EF63C71CEF2000108607D
S315080082F0062080F31488BFF36F8F07F0F9FD24F08A
S315080083002BFA4FF055301F491B4A91423CBF41F8A2
S31508008310040BFAE71C49194A91423CBF41F8040B81
S31508008320FAE71A491A4A1B4B9A423EBF51F8040B00
S3150800833042F8040BF8E700201749184A91423CBF57
S3150800834041F8040BFAE707F0D7FD47F0CDF8144CCF
S31508008350144DAC4203DA54F8041B8847F9E76DF06C
S31508008360A5FA114C114DAC4203DA54F8041B8847A0
S31508008370F9E707F0BFBD0000101000201016002016
S3150800838000800008100000201010002034440A085D
S3150800839010160020581A0020581A0020DC1802204F
S315080083A0E0810008E4810008E4810008E88100080B
S315080083B06EE700F000F8FEE70A480B49026800601D
S315080083C08A4201D0FFF764FF08484FF480410160F4
S315080083D007484FF0010101600648D0F800D0406810
S315080083E000470000F0FF0120EFBEADDE4438024032
S315080083F0003801400000FF1F1EF0040F0CBFEFF30A
S315080084000880EFF3098026F011B91EF0040F0CBF9F
S31508008410EFF30880EFF3098026F050B91EF0040F39
S315080084200CBFEFF30880EFF3098026F093B900BF7D
S31508008430EC46A0E8F05F4FF000007047B0E8F05F48
S31508008440E546080008BF0120704700BF81F00041DB
S3150800845002E000BF83F0004330B54FEA41044FEA1B
S31508008460430594EA050F08BF90EA020F1FBF54EAB6
S31508008470000C55EA020C7FEA645C7FEA655C00F052
S31508008480E2804FEA5454D4EB5555B8BF6D420CDD23
S315080084902C4480EA020281EA030382EA000083EAA6
S315080084A0010180EA020281EA0303362D88BF30BD46
S315080084B011F0004F4FEA01314FF4801C4CEA11319C
S315080084C002D0404261EB410113F0004F4FEA0333FB
S315080084D04CEA133302D0524263EB430394EA050F86
S315080084E000F0A780A4F10104D5F1200E0DDB02FAF5
S315080084F00EFC22FA05F2801841F1000103FA0EF289
S31508008500801843FA05F359410EE0A5F120050EF14E
S31508008510200E012A03FA0EFC28BF4CF0020C43FA7F
S3150800852005F3C01851EBE37101F0004507D54FF08C
S31508008530000EDCF1000C7EEB00006EEB0101B1F5DC
S31508008540801F1BD3B1F5001F0CD349085FEA300022
S315080085504FEA3C0C04F101044FEA445212F5800F2D
S3150800856080F09A80BCF1004F08BF5FEA500C50F1CA
S31508008570000041EB045141EA050130BD5FEA4C0CAD
S31508008580404141EB0101013C28BFB1F5801FE9D20A
S3150800859091F0000F04BF01460020B1FA81F308BF2D
S315080085A02033A3F10B03B3F120020CDA0C3208DDF9
S315080085B002F1140CC2F10C0201FA0CF021FA02F1D4
S315080085C00CE002F11402D8BFC2F1200C01FA02F144
S315080085D020FA0CFCDCBF41EA0C019040E41AA2BF69
S315080085E001EB0451294330BD6FEA04041F3C1CDA31
S315080085F00C340EDC04F11404C4F1200220FA04F051
S3150800860001FA02F340EA030021FA04F345EA0301FA
S3150800861030BDC4F10C04C4F1200220FA02F001FABC
S3150800862004F340EA0300294630BD21FA04F029463E
S3150800863030BD94F0000F83F4801306BF81F48011D7
S315080086400134013D4EE77FEA645C18BF7FEA655C4A
S3150800865029D094EA050F08BF90EA020F05D054EA1C
S31508008660000C04BF1946104630BD91EA030F1EBF21
S315080086700021002030BD5FEA545C05D14000494125
S3150800868028BF41F0004130BD14F580043CBF01F518
S31508008690801130BD01F0004545F0FE4141F47001FE
S315080086A04FF0000030BD7FEA645C1ABF19461046D9
S315080086B07FEA655C1CBF0B46024650EA013406BFDA
S315080086C052EA033591EA030F41F4002130BD00BF99
S315080086D090F0000F04BF0021704730B54FF4806456
S315080086E004F132044FF000054FF0000150E700BFD7
S315080086F090F0000F04BF0021704730B54FF4806436
S3150800870004F1320410F0004548BF40424FF0000122
S315080087103EE700BF42004FEAE2014FEA31014FEA65
S3150800872002701FBF12F07F4393F07F4F81F06051B4
S31508008730704732F07F4208BF704793F07F4F04BFFF
S3150800874041F40021704730B54FF4607401F00045DC
S3150800875021F000411CE700BF50EA010208BF70473C
S3150800876030B54FF000050AE050EA010208BF70472D
S3150800877030B511F0004502D5404261EB41014FF496
S31508008780806404F132045FEA915C3FF4D8AE4FF09E
S3150800879003025FEADC0C18BF03325FEADC0C18BF81
S315080087A0033202EBDC02C2F1200300FA03FC20FAD2
S315080087B002F001FA03FE40EA0E0021FA02F114441F
S315080087C0BDE600BF70B54FF0FF0C4CF4E06C1CEA38
S315080087D011541DBF1CEA135594EA0C0F95EA0C0FA9
S315080087E000F0DEF82C4481EA030621EA4C5123EA1C
S315080087F04C5350EA013518BF52EA033541F480114B
S3150800880043F4801338D0A0FB02CE4FF00005E1FBFD
S3150800881002E506F00042E0FB03E54FF00006E1FB47
S3150800882003569CF0000F18BF4EF0010EA4F1FF048A
S31508008830B6F5007F64F5407404D25FEA4E0E6D41CA
S3150800884046EB060642EAC62141EA55514FEAC520DB
S3150800885040EA5E504FEACE2EB4F1FD0C88BFBCF557
S31508008860E06F1ED8BEF1004F08BF5FEA500E50F108
S31508008870000041EB045170BD06F0004646EA0101CE
S3150800888040EA020081EA0301B4EB5C04C2BFD4EB00
S315080088900C0541EA045170BD41F480114FF0000EF9
S315080088A0013C00F3AB8014F1360FDEBF002001F067
S315080088B0004170BDC4F10004203C35DA0C341BDCE1
S315080088C004F11404C4F1200500FA05F320FA04F0B3
S315080088D001FA05F240EA020001F0004221F00041E7
S315080088E010EBD37021FA04F642EB06015EEA430E5A
S315080088F008BF20EAD37070BDC4F10C04C4F120058A
S3150800890000FA04F320FA05F001FA04F240EA02003C
S3150800891001F0004110EBD37041F100015EEA430E0D
S3150800892008BF20EAD37070BDC4F1200500FA05F22D
S315080089304EEA020E20FA04F301FA05F243EA0203AC
S3150800894021FA04F001F0004121FA04F220EA0200BB
S3150800895000EBD3705EEA430E08BF20EAD37070BD01
S3150800896094F0000F0FD101F00046400041EB0101E1
S3150800897011F4801F08BF013CF7D041EA060195F0C3
S31508008980000F18BF704703F00046520043EB03037D
S3150800899013F4801F08BF013DF7D043EA060370476A
S315080089A094EA0C0F0CEA135518BF95EA0C0F0CD075
S315080089B050EA410618BF52EA4306D1D181EA0301BB
S315080089C001F000414FF0000070BD50EA410606BFB5
S315080089D01046194652EA430619D094EA0C0F02D1FA
S315080089E050EA013613D195EA0C0F05D152EA03363F
S315080089F01CBF104619460AD181EA030101F000415D
S31508008A0041F0FE4141F470014FF0000070BD41F0A5
S31508008A10FE4141F4780170BD70B54FF0FF0C4CF47F
S31508008A20E06C1CEA11541DBF1CEA135594EA0C0F9E
S31508008A3095EA0C0F00F0A7F8A4EB050481EA030EEB
S31508008A4052EA03354FEA013100F088804FEA0333D2
S31508008A504FF0805545EA131343EA12634FEA0222A0
S31508008A6045EA111545EA10654FEA00260EF0004161
S31508008A709D4208BF964244F1FD0404F5407402D2B3
S31508008A805B084FEA3202B61A65EB03055B084FEA44
S31508008A9032024FF480104FF4002CB6EB020E75EB41
S31508008AA0030E22BFB61A754640EA0C005B084FEA69
S31508008AB03202B6EB020E75EB030E22BFB61A7546E6
S31508008AC040EA5C005B084FEA3202B6EB020E75EB31
S31508008AD0030E22BFB61A754640EA9C005B084FEAA9
S31508008AE03202B6EB020E75EB030E22BFB61A7546B6
S31508008AF040EADC0055EA060E18D04FEA051545EAA5
S31508008B0016754FEA06164FEAC30343EA52734FEA4D
S31508008B10C2025FEA1C1CC0D111F4801F0BD141EAC6
S31508008B2000014FF000004FF0004CB6E711F4801F2B
S31508008B3004BF01430020B4F1FD0C88BFBCF5E06F0B
S31508008B403FF6AFAEB5EB030C04BFB6EB020C5FEA1B
S31508008B50500C50F1000041EB045170BD0EF0004E70
S31508008B604EEA113114EB5C04C2BFD4EB0C0541EAA2
S31508008B70045170BD41F480114FF0000E013C90E69F
S31508008B8045EA060E8DE60CEA135594EA0C0F08BF63
S31508008B9095EA0C0F3FF43BAF94EA0C0F0AD150EA62
S31508008BA001347FF434AF95EA0C0F7FF425AF1046F5
S31508008BB019462CE795EA0C0F06D152EA03353FF41D
S31508008BC0FDAE1046194622E750EA410618BF52EA9A
S31508008BD043067FF4C5AE50EA41047FF40DAF52EA6E
S31508008BE043057FF4EBAE12E74FF0FF3C06E000BF0B
S31508008BF04FF0010C02E000BF4FF0010C4DF804CD18
S31508008C004FEA410C7FEA6C5C4FEA430C18BF7FEAD7
S31508008C106C5C1BD001B050EA410C0CBF52EA430C05
S31508008C2091EA030F02BF90EA020F0020704710F185
S31508008C30000F91EA030F58BF994208BF90422CBF14
S31508008C40D8176FEAE37040F0010070474FEA410C0D
S31508008C507FEA6C5C02D150EA013C07D14FEA430C2B
S31508008C607FEA6C5CD6D152EA033CD3D05DF8040B9C
S31508008C70704700BF8446104662468C4619466346CE
S31508008C8000E000BF01B5FFF7B7FF002848BF10F1A5
S31508008C90000F01BD4DF808EDFFF7F4FF0CBF0120EA
S31508008CA000205DF808FB00BF4DF808EDFFF7EAFF66
S31508008CB034BF012000205DF808FB00BF4DF808ED21
S31508008CC0FFF7E0FF94BF012000205DF808FB00BF16
S31508008CD04DF808EDFFF7CEFF94BF012000205DF8A0
S31508008CE008FB00BF4DF808EDFFF7C4FF34BF0120AD
S31508008CF000205DF808FB00BF4FEA410C7FEA6C5C78
S31508008D0002D150EA013C0AD14FEA430C7FEA6C5C77
S31508008D1002D152EA033C02D14FF0000070474FF0EF
S31508008D20010070474FEA410212F5001215D211D51B
S31508008D306FF47873B3EB625212D94FEAC12343F04A
S31508008D40004343EA505311F0004F23FA02F018BFCC
S31508008D50404270474FF00000704750EA013005D195
S31508008D6011F0004008BF6FF0004070474FF0000058
S31508008D70704700BF4FEA4102B2F1E04324BFB3F5A2
S31508008D80001CDCF1FE5C0DD901F0004C4FEAC00274
S31508008D904CEA5070B2F1004F40EB830008BF20F058
S31508008DA00100704711F0804F21D113F13872BCBF12
S31508008DB001F00040704741F480114FEA5252C2F167
S31508008DC01802C2F1200C10FA0CF320FA02F018BFB0
S31508008DD040F001004FEAC1234FEAD32303FA0CFC03
S31508008DE040EA0C0023FA02F34FEA4303CCE77FEA92
S31508008DF0625307D150EA01331EBF4FF0FE4040F4DC
S31508008E004000704701F0004040F0FE4040F400008A
S31508008E10704700BF80F0004002E000BF81F00041CB
S31508008E2042001FBF5FEA410392EA030F7FEA226C02
S31508008E307FEA236C6AD04FEA1262D2EB1363C1BF92
S31508008E40D218414048404140B8BF5B42192B88BF01
S31508008E50704710F0004F40F4000020F07F4018BF24
S31508008E60404211F0004F41F4000121F07F4118BF44
S31508008E70494292EA030F3FD0A2F1010241FA03FCEC
S31508008E8010EB0C00C3F1200301FA03F100F00043D4
S31508008E9002D5494260EB4000B0F5000F13D3B0F19C
S31508008EA0807F06D340084FEA310102F10102FE2A0B
S31508008EB051D2B1F1004F40EBC25008BF20F001007B
S31508008EC040EA03007047490040EB0000013A28BF1A
S31508008ED0B0F5000FEDD2B0FA80FCACF1080CB2EB9D
S31508008EE00C0200FA0CF0AABF00EBC250524218431B
S31508008EF0BCBFD0401843704792F0000F81F40001C0
S31508008F0006BF80F400000132013BB5E74FEA410392
S31508008F107FEA226C18BF7FEA236C21D092EA030FFE
S31508008F2004D092F0000F08BF0846704790EA010F78
S31508008F301CBF0020704712F07F4F04D1400028BFA5
S31508008F4040F00040704712F100723CBF00F5000087
S31508008F50704700F0004343F0FE4040F400007047BD
S31508008F607FEA226216BF08467FEA23630146420269
S31508008F7006BF5FEA412390EA010F40F4800070477C
S31508008F804FF0000304E000BF10F0004348BF404222
S31508008F905FEA000C08BF704743F0964301464FF05E
S31508008FA000001CE050EA010208BF70474FF00003BA
S31508008FB00AE000BF50EA010208BF704711F00043FB
S31508008FC002D5404261EB41015FEA010C02BF8446CB
S31508008FD00146002043F0B64308BFA3F18053A3F52A
S31508008FE00003BCFA8CF2083AA3EBC25310DB01FA71
S31508008FF002FC634400FA02FCC2F12002BCF1004FF5
S3150800900020FA02F243EB020008BF20F00100704785
S3150800901002F1200201FA02FCC2F1200250EA4C00D9
S3150800902021FA02F243EB020008BF20EADC7070471F
S315080090307BB972B90029BEBF00204FF0004106E097
S3150800904008BF00281CBF6FF000414FF0FF3000F04A
S3150800905057B8ADF1080C6DE904CE002909DB002BE1
S315080090601ADB76F04FFCDDF804E0DDE9022304B0F4
S315080090707047404261EB4101002B1BDB76F042FC56
S31508009080DDF804E0DDE9022304B0404261EB41016A
S31508009090524263EB43037047524263EB430376F055
S315080090A031FCDDF804E0DDE9022304B0404261EB5F
S315080090B041017047524263EB430376F023FCDDF827
S315080090C004E0DDE9022304B0524263EB4303704730
S315080090D053B94AB9002908BF00281CBF4FF0FF3111
S315080090E04FF0FF3000F00CB8ADF1080C6DE904CE76
S315080090F076F008FCDDF804E0DDE9022304B07047E9
S31508009100704700BF2DE9F04F2DED108AC1F80CD03D
S31508009110C3689D46BDEC108ABDE8F08F07F06EF86F
S31508009120002383F311882846A047002008F05EFB39
S31508009130FEE707F0FBF908F0D1FA07F05FF800DF61
S31508009140FEE710F8012B11F8013B012A28BF9A42C5
S31508009150F7D0D01A7047034613F8012B002AFBD123
S31508009160181A01387047000070B586B00C461146CB
S315080091701A46114B0093054674B1631ECDE90103E7
S3150800918000266846CDE903660BF0C6FF039BA3429B
S3150800919000D2EE5406B070BD9FED057B019068467F
S315080091A08DED027B04940BF0B7FF06B070BD00BFCF
S315080091B00000000000000000A805080800000000E4
S315080091C02DE9F04759EC108B3D4B002240464946A5
S315080091D0FFF77EFD002867D035A5D5E90045384F4D
S315080091E04FF0000A00260CE0FFF716FC8046894679
S315080091F032463B46404649460AF1050AFFF768FDEE
S31508009200E8B1494622462B464046FFF761FD8446AB
S3150800921022462B4640464946BCF1000FE4D1324669
S315080092203B46FFF7F9FB8046894632463B464046B1
S3150800923049460AF1010AFFF74BFD0028E1D1214B07
S31508009240002240464946FFF72FFD50B31AA5D5E937
S31508009250004517A7D7E900670CE0FFF7B3FAAAF1AC
S31508009260050A80468946174B002240464946FFF7BD
S315080092701BFDB0B1494622462B464046FFF714FD72
S31508009280844632463B4640464946BCF1000FE4D187
S315080092900B4B0022FFF796FA0AF1FF3A80468946F9
S315080092A0E1E75046BDE8F0878246C8E7AFF300809D
S315080092B000000000006AF84000000080B5F8E43EAF
S315080092C0000024400000F03F2DE9F047B0F1000A05
S315080092D02D4D4FF0000426DD29A7D7E90067DFF8F2
S315080092E0AC904FF00008BAF1040F204629463246E2
S315080092F03B460CDDFFF766FAAAF1050A04460D4659
S31508009300BAF1000FEFD145EC104BBDE8F0874246A5
S315080093104B46FFF757FA0AF1FF3A04460D46BAF1EB
S31508009320000FE0D1EFE7EED015A7D7E900671AF1ED
S31508009330040FDFF858904FF00008204629463246B9
S315080093403B460FDAFFF768FB0AF1050A04460D46A5
S31508009350BAF1000FD7D01AF1040F20462946324633
S315080093603B46EFDB42464B46FFF756FB0AF1010A3E
S3150800937004460D46BAF1000FEDD1C4E7AFF30080FD
S3150800938000000000006AF8400000F03F000024409A
S3150800939070B5C66984B0044630460D4613F0DAFE49
S315080093A0204613F0C9FB204613F014FC9FED087BFA
S315080093B003462946304607246A468DED027B8DF81A
S315080093C00040019313F052FF04B070BDAFF3008064
S315080093D0FFFFFFFFFFFFFFFF2DE9F04FC768C669D4
S315080093E0D0F804802DED028B282F87B004460D4651
S315080093F072D040F223139F4240F0858014F0BEF9E4
S315080094009FED438B4FF0070A4FF00809E3683A2BA4
S3150800941014D008DD5B2B51D05A2B40DC07B0BDECCD
S31508009420028BBDE8F08F282B3ED02E2BF6D129468D
S315080094302046FFF7ADFFE3683A2BEAD1204613F042
S315080094407BFB204613F0C6FB2946039030468DED7C
S31508009450048B8DF808A013F05BFE2B78D5F804B0C2
S31508009460082B4BD096F834706F600221304685F889
S31508009470009012F0F7FBBA1C02A986F834205B4666
S3150800948000913A461421304613F07EFE9DF80830C6
S31508009490082B0DD10399304670F0E4FD08E07B2BCC
S315080094A002D0B3F5927FB9D12946304613F012FEA1
S315080094B042462946204614F0BBFFA7E72946304610
S315080094C013F048FE02A9204614F038F802AA2946E5
S315080094D0304613F0CBFE99E713F02EFB29460022FF
S315080094E0204615F0BBFB204643463A46292113F091
S315080094F047FBE069294613F0FDFB81E759463046EC
S3150800950070F0B0FDAEE7044912F044FBAFF30080FB
S31508009510FFFFFFFFFFFFFFFF901308080000000092
S315080095200D4B9FED0B7B03F5016C03F61C01002226
S315080095300020CCF800200A6003F5026282ED007B69
S31508009540C3F80C08C3F81808C3F82808704700BF02
S3150800955000000000000000000000001000000000ED
S3150800956030B5012285B00C21044611F0D1FCE0B1DA
S315080095709FED117B0246124B043280ED017B02609F
S315080095800FCB6D4685E80F000E4B0F491A6820462B
S315080095900EF010FF00222946204621F043FC204603
S315080095A06FF0DEFD012005B030BD20460EF0ACFEA2
S315080095B0012005B030BD00BF00000000000000F02B
S315080095C06001080800A70020D8B9F0FF00000000D5
S315080095D02DE9F04F2DED048B03689DB0DB689847A5
S315080095E0002800F098850368A94ADB6893428346F9
S315080095F040F08D850BF10D030693A64BDFF8C8A244
S3150800960098699FEDA58ADFEDA58A41F0E7FA7F28DC
S315080096109FED9D9B0BF10C0540F3F280DBF80030C3
S3150800962058461B6998470446002800F0B885DAF8BA
S3150800963020300133CAF82030DBF8003001225E689A
S315080096400DF123014FF47A735846B047012840F0CC
S3150800965023859DF82330542B15D8452B16D9463B20
S315080096600E2B13D8DFE813F0DB00120012001200ED
S315080096701200120012001200120012001200D3008B
S315080096801200D300EF00742B00F0DD80DBF8003009
S3150800969001225E6809A90A235846B047012840F006
S315080096A06B859DF823309DF8246046EA03263746E5
S315080096B007F1040936B2002F00F0FA8440F21E437F
S315080096C0994500F3F5849BF83034002B00F0AE83FF
S315080096D0DBF800304A46D3F8048029464FF47A73FB
S315080096E05846C04781459BF80C8040F03B8740466A
S315080096F03DF096FC8146002800F05987AB59324662
S31508009700002128461EBA64F0D7F9864240F0D9836C
S3150800971001238BF83034242062F0E6F8022F9BF8F8
S315080097200C3040F3A483042FBBF80D6040F3A283EA
S31508009730BBF80F90A3F138023C2A3ED8DFE812F0B6
S315080097405A0307033D003D003D003D003D003D0036
S315080097503D00FC02CD02C8023D009C023D001102FC
S315080097603D003D003D003D0003023D003D00550122
S315080097703D003D002D011F0187003D00F001E2017B
S315080097803D003D0086013D003D003D003D00630172
S315080097903D003D0007013D003D00F2003D003D0053
S315080097A03D003D003D00C6008E003D003D003D00E9
S315080097B03D003D003D003D00870083215846059346
S315080097C067F098FB059B364A3648009350210BF004
S315080097D0FFFEDBF82C04334970F098F8242062F079
S315080097E087F831484246414646F03CFD00242F4B57
S315080097F01C70284B986941F0F1F97F283FF70EAFA6
S315080098002B4A2C4941F6F42054F036FDEEE72A4857
S3150800981046F028FD0021584667F04EFBE7E7DBF8DF
S315080098202C14264A264846F01DFDDBF8003025494B
S315080098301E68584600230322B047DBF80030584616
S315080098409B689847D3E758463EF0B8FDCFE7584699
S315080098503EF0B4FD242062F04BF8C8E79BF80D30C3
S31508009860022B00F07F84032B00F05C84012BB5D11A
S3150800987062F08AF958463FF079FD242062F038F8FC
S31508009880B5E700BFAFF30080ECC122A000000000DE
S315080098906D460208B09700200024744900007A44F7
S315080098A000B20808145801202CB208089B18022098
S315080098B038AB080804830808C4AE0808E4AE0808EC
S315080098C0009D0808F4AE0808DC580120DAF81830BC
S315080098D05A46013349463046CAF818303FF052FD19
S315080098E00746002840F0F88301464022C64876F02D
S315080098F084F9C6484A463946304464F0DDF800BA69
S315080099000C900CAA58460097042301213FF0E0FC6E
S315080099100C9BBF484A46314646F0A4FC242061F019
S31508009920E7FF64E7BB4BBC4E1A78BC4B002A18BF4E
S315080099301E463046FFF70FFC0121034632465846BD
S3150800994000913FF0C5FC242061F0D2FF4FE70121CA
S31508009950B348B44FB44E0091002302683B70C0E987
S315080099600033336058464FF400530C923FF0B0FC76
S315080099700CA870F085F8242061F0BAFF37E7AB4AE7
S31508009980DBF82C14AA4846F06DFC5846012167F00E
S3150800999093FA242061F0ACFF29E7DAF80830A548E5
S315080099A00133CAF8083032464B46002146F05AFCC5
S315080099B05A46494630463FF0E5FC0746002840F03F
S315080099C073829D4BB3F8C62C002A40F0DB8308331C
S315080099D01E444B46324600210091584601213FF06D
S315080099E077FC242061F084FF01E7012F934814BF18
S315080099F04B464FF4E763324659463EF0E7FE2420CD
S31508009A0061F076FFF3E68E4B1B78002B40F07183EE
S31508009A108C490B68002B40F0488302228A4E0A6064
S31508009A207F4B186808B100200860C3E900620CA8DB
S31508009A3000230C9370F024F87A4B584601221A70CA
S31508009A403FF094FC242061F053FFD0E6BBF80D806C
S31508009A50BBF80F707D487FBA98FA98F6B6B2BFB2CF
S31508009A603A46314646F0FEFB79484FF089FC202EEF
S31508009A7000F20382202E00F29F8301A353F826F0FA
S31508009A80CBA10008B9A10008B9A10008B9A100082E
S31508009A90B9A10008B9A10008B9A10008B9A1000830
S31508009AA0B9A10008B9A10008B9A10008B9A1000820
S31508009AB0B9A10008B9A10008B9A10008B9A1000810
S31508009AC0B9A10008D5A10008DFA100081DA2000859
S31508009AD0DDA200084DA3000857A30008B9A1000895
S31508009AE0B9A1000861A30008B9A10008B9A1000836
S31508009AF0B9A10008759800087FA300088FA300087D
S31508009B009FA3000831460BF10F030122584667F060
S31508009B1021FA504845F04EFF242061F0E9FE66E63A
S31508009B205AF0C8FB0DF130094B4B4C4A00902021E6
S31508009B308DED029B48460BF04BFD4846FFF70BFBA5
S31508009B404A46431C47E70123002200925846194615
S31508009B500CAA8DF830303FF0BBFB242061F0C8FE1C
S31508009B6045E6DAF824303E4E334FB26A0133CAF876
S31508009B702430D7F858359A4280F0ED8145F0DAFE60
S31508009B80D6E90C3253EA020640F0CA81354E3368EC
S31508009B90032B00F0F1813448B0EE480A47F0CEFCBA
S31508009BA0002840F0FA81314E314809F073F93368DC
S31508009BB0304A03F580510020C1F8643911681360F2
S31508009BC018702B48316009F0F7F9326802F58053AE
S31508009BD0D3F864691378B61A2BB1134613F8011F24
S31508009BE00029FBD19B1A9E4240F0DE82DBF800106A
S31508009BF001200090334658468E690021B04724203C
S31508009C0061F076FEF3E500BF7A650010A8580010EB
S31508009C10B8B008087D180220403701206458012092
S31508009C20C057012096180220B837012030B008081E
S31508009C30009D080814B10808A058001060170020F5
S31508009C4097180220BC570120BC370120A0B108088C
S31508009C50E0230010201F002044B008084CB0080874
S31508009C60A83B002000580120A03B002058170020E0
S31508009C70045801205C17002006980744002307F8BB
S31508009C80013C9BF80D30202B40F0808410F8013FF2
S31508009C90202BFBD07BB1034613F8012F002AFBD1FA
S31508009CA0191A002903DC06E083421A7003D013F858
S31508009CB0011D2029F8D08F4B1B689847002358466A
S31508009CC01A4619463FF096FA242061F011FE8EE5F1
S31508009CD04A4631460BF1110318E70DF1300948469B
S31508009CE045F068FEDAF80C3083480133CAF80C30C0
S31508009CF046F0B8FA59F03AFB8048B0EE480A47F001
S31508009D001DFC002840F0FB8100231A460421584612
S31508009D103FF070FA484645F05BFE60EE287A17EE8B
S31508009D20900AFEF7F7FC02460B46754846F09AFA83
S31508009D30242061F0DDFD5AE572484FF4E7630022FE
S31508009D4059463EF043FD242061F0D2FD4FE56E4EA4
S31508009D50002206F140083146012031F8023F5B0B2C
S31508009D601CBF03F1FF3300FA03F341451A44F4D14B
S31508009D70002158463EF0D8F90DF1300907460594FA
S31508009D80079536F8023F5C0B1DD00122013C02FA0A
S31508009D9004F45E4A0A9226220B9200940AAA06CA7C
S31508009DA0C3F30C03484664F01DF9DBF8003022467D
S31508009DB01D68494600235846A8473946224648465C
S31508009DC063F07AFE07464645DBD1DBF80030059C92
S31508009DD01E68079D3FBA4946042258460C97012338
S31508009DE0B047DBF8003058469B689847242061F056
S31508009DF07FFDFCE4464B1B78002B00F07D8100209C
S31508009E0061F06CFF0646002853D0D0F8E4340121EF
S31508009E10024603EB8303009158463FF059FA304651
S31508009E2061F08CFF242061F063FDE0E4DBF800308C
S31508009E300246D3F8048029460A235846C0479BF8A9
S31508009E400C8040463DF0ECF800283FF4CFACDBF838
S31508009E5000300699D3F80490F21C05924FF47A73F1
S31508009E605846C847059A82423FF448ACBEE40026E5
S31508009E70B1465FE44FF000095CE4B8F53A4F00F0EC
S31508009E809483BA2E09D9B8F53B4F00F04285B8F548
S31508009E903C4F40F0918140F081FEB8F5F24F40F01A
S31508009EA08B815AF0B3FAE5E4DBF82C0419496FF014
S31508009EB02DFD5846842167F01DF8242061F018FD11
S31508009EC095E49BF83034002B3FF490AC33460246B9
S31508009ED09BF80C10104846F0C5F91049DBF82C041D
S31508009EE06FF014FD8221584667F004F800238BF8BA
S31508009EF030347BE4EC570120ECB00808402400100D
S31508009F00FCB008086017002078650010D4EF002020
S31508009F109718022048B10808E4AF08081CB00808DA
S31508009F20C01A61EB02010A1E03DAC31C184642F185
S31508009F3000028308D7F85815C84800FB01F1C8483D
S31508009F40A0FB010143EA8273090992100020994295
S31508009F509041BFF61BAEC349C34846F04FF9C34B01
S31508009F6093F85035002B40F0F980C14E00F024FEDE
S31508009F703368032B7FF40FAEBA49BE4846F03EF964
S31508009F80BC4847F04FFA0123BB483360B0EE480A95
S31508009F9047F0D4FA00283FF406AEB74845F00AFD64
S31508009FA03B89692B96BFB54A4FF0000852F82380C3
S31508009FB05AF080F9064645F02BFDA84A0023FFF71C
S31508009FC037F83146CDE90080AD4BAE4AAE4846F08B
S31508009FD049F9B7F8EC12012902D9AC4863F050FDEB
S31508009FE0B7F8EE12012902D9A94863F049FDA94E2E
S31508009FF0DFF8E08206F1080936F8021F012903D9BD
S3150800A000D8F8000063F03CFDB14508F10408F3D127
S3150800A010D7F8CC210C2A1346A8BF0C23002A7FF7B1
S3150800A020C2AD9D4F0594B9463C469C4E4FF000087C
S3150800A0301F462AE0718B012901D963F021FDD4F866
S3150800A0405C0700284FD0B6F82214012901D963F01D
S3150800A05017FDD9F83C03002848D036F8021F012915
S3150800A06001D963F00DFDD9F88C04002838D0B6F86C
S3150800A070D81B012901D963F003FD08F10108B84589
S3150800A08004F1200409F11C094ADAD4F8DC05002891
S3150800A090D0D1D4F8E005CDE7814CA34500F09681F0
S3150800A0A000238BF83034FFF7A1BB00221646B7E42D
S3150800A0B09BF83034002BF3D0DBF82C1479483A4659
S3150800A0C046F0D0F8DBF82C0477496FF01FFC8421A2
S3150800A0D0584666F00FFFE3E7DBF82C047349E6E61B
S3150800A0E0D9F89004C3E7D4F86007ACE7D9F8400379
S3150800A0F0B3E761F0C5FD8BE461F046FD7FE636F017
S3150800A1006DFC6B483BF010FF58F0F4FDFCE59847F2
S3150800A11000287FF46FAA1DB0BDEC048BBDE8F08F54
S3150800A120059C40E5002061F0D9FD0646002800F0B0
S3150800A1303082D0F8E4340121024603EB8303009110
S3150800A14058463FF0C5F8304661F0F8FD58463FF0EE
S3150800A1500DF9242061F0CCFBFFF749BB424847F0D4
S3150800A16061F902E761F08CFD58463FF0FFF82420BC
S3150800A17061F0BEFBFFF73BBB4E49DBF82C046FF0E2
S3150800A180C5FB8DE74C4940F25E200BF10F0654F0F3
S3150800A19073F839464A46304675F02FFD19E40A2009
S3150800A1A007F04CFBFFF722BB3246444941F68610BE
S3150800A1B054F062F8002219E541493B46324640F21E
S3150800A1C05E2054F059F8FFF755BB3E4B83F81A76D4
S3150800A1D0FFF750BB3C4B00221A60FFF74BBB002829
S3150800A1E03FF448AB374BDFED390AB3F8622D9FEDE4
S3150800A1F0380AD3F8701D07EE902AB3F84226F8EE0F
S3150800A200E77A384667EEA00A07EE902AF8EEE77A6C
S3150800A21027EE800A58F0CCFDFFF72CBB00283FF448
S3150800A22029AB284BDFED290AB3F8622D9FED280AE2
S3150800A230D3F8701D07EE902AB3F84226F8EEE77AAF
S3150800A240384667EEA00A07EE902AF8EEE77A27EE78
S3150800A250800A58F05BFDFFF70DBB00BF40420F00B8
S3150800A260CDCCCCCC447F0908B03B00200050001070
S3150800A27000580120F0570120A03B0020545509083A
S3150800A28058B00808ECC122A060B00808100E0A08E9
S3150800A290180E0A08E25A0010C89B00202A5B001014
S3150800A2A0205E012014AF080844AF0808A0B00808CB
S3150800A2B0E89C0808F8AE080860B1080880B00808E5
S3150800A2C0DCB10808A0580010C8570120CDCCCC3DF9
S3150800A2D00AD7233C4455090800007A44BB1F172BAC
S3150800A2E000F2AB8101A252F823F000BF4BA7000889
S3150800A2F009A70008759800083BA600087DA600086F
S3150800A3003BA6000871A60008BBA70008AFA700086F
S3150800A310A7A7000893A7000887A7000877A700083B
S3150800A3206FA7000863A7000825A600087598000807
S3150800A3301BA6000811A6000807A60008FDA5000828
S3150800A340F5A500082FA60008E9A50008F8B25AF0F6
S3150800A3501DFFFFF78FBA384658F010FEFFF78ABA86
S3150800A36000283FF487AA5FED240AC64B3846D3F87F
S3150800A370701DB0EE600A58F075FDFFF77BBAC2484B
S3150800A38045F018FB38466BF071FAFFF773BABE480A
S3150800A39045F010FB63206BF069FAFFF76BBA0028EB
S3150800A3A03FF468AAB74BDFEDB90AB3F8622DD3F8C4
S3150800A3B0701D07EE902AF8EEE77AB1EE000A67EE0E
S3150800A3C0A00A384658F094FDFFF754BAB04B1B78EC
S3150800A3D0002B3FF465AEDFF82C83AE4845F042FF0C
S3150800A3E098F80030033B012B00F2ED802368AA4859
S3150800A3F05E68012240F6B83309A9B0470646002828
S3150800A40040F0EB80A44F06E0042B00F0DA81013619
S3150800A410072E00F0FE81236838465B6998470A20B4
S3150800A42007F00CFA9D4B9E4853F83610894645F0BE
S3150800A43019FF23684946DB69384698470A2007F01A
S3150800A440FDF93846974966F0E1FC38463EF016FABB
S3150800A45090B198F80030032BD6D13846924966F069
S3150800A460D5FC38463EF00AFA0028D0D18F4845F088
S3150800A470F9FE0A2007F0E2F90DF1300998F80030E4
S3150800A4808B4F033B012B3E7040F2C7812368894AF4
S3150800A4905B698148934240F0078241F097F80A20A9
S3150800A4A007F0CCF93A7823687C49DB6951F8321011
S3150800A4B0814A7948934240F0058264F0EFFF98F8A4
S3150800A4C00030002B40F097817C4B7D4A402148465E
S3150800A4D00BF07EF87048494666F098FC6E483EF0E8
S3150800A4E0CDF9002840F0828198F80030032B00F05F
S3150800A4F0AC80002B40F08681724B734A4021484657
S3150800A5000BF066F86448494666F080FC62483EF0FF
S3150800A510B5F9002840F06A8198F80030002B40F021
S3150800A520C5816A4B5D4A1B68402152F83330684A38
S3150800A53048460BF04DF85848494666F067FC5648B9
S3150800A5403EF09CF9002840F0518198F80030033B12
S3150800A550012B40F2CD815F4845F084FE4C4A00232A
S3150800A56013709DE543464A4601465B4845F07AFE28
S3150800A5705A49DBF82C046FF0C9F98021584666F071
S3150800A580B9FC00238BF83034FFF730B90698FFF78B
S3150800A59081BB8421584666F0ADFC58463EF0E6FE7F
S3150800A5A0242061F0A5F9FFF722B940F0EBFA4C48F0
S3150800A5B0414645F057FE8321584666F09BFC8BF8CA
S3150800A5C03094FFF713B9474845F04CFE464845F026
S3150800A5D049FE464845F046FE08E7454845F042FE2E
S3150800A5E02B4A002313705BE50021012052F0D4F9B1
S3150800A5F0FFF740B93CF0A8FEFFF73CB904203CF051
S3150800A600B3FEFFF737B903203CF0AEFEFFF732B9C9
S3150800A61001203CF0A9FEFFF72DB902203CF0A4FE6C
S3150800A620FFF728B9334B01221A70FFF723B9002127
S3150800A630084652F0B1F9FFF71DB92F493A4640F2DC
S3150800A6405E2053F019FEFFF715B91C4B2B4A402123
S3150800A65048460AF0BDFF1048494666F0D7FB0E4843
S3150800A6603EF00CF9002840F0C18098F8003040E729
S3150800A670234B012283F8D823FFF7FCB857F05AFB7F
S3150800A680FFF7F8B8A058001040240010CDCCCC3DF8
S3150800A6909518022048AB0808205E01200C550908C9
S3150800A6A008AD080820AD080828AD080834AD080824
S3150800A6B093180220CDB504089DF406082837012012
S3150800A6C0D8AD08082037012004AE08085417002022
S3150800A6D020AE080868AE080864AF0808A4AF0808E2
S3150800A6E0C8AF080878AB0808E4AB080838AC08080F
S3150800A6F0B4AC080899180220C4B10808F4AD0808D3
S3150800A7000020001094180220834F844ED7F8F800D2
S3150800A7100D2386F8D43008B30368DB689847F0EE53
S3150800A720407AD7F80401C6ED347A002800F0EE80A6
S3150800A7300368DB689847F0EE407A794AC6ED697A8D
S3150800A740137801331370FFF795B8734F734ED7F824
S3150800A750F8000C2386F8D4300028DDD1DFED717AB5
S3150800A760DFE7714B012283F8D923FFF783B84BF053
S3150800A7709BFBFFF77FB86D4B6D4801221A7008F0F6
S3150800A78033FBFFF777B80121084652F005F9FFF7C2
S3150800A79071B8624B002283F8D42003F5005383F87E
S3150800A7A0D823FFF767B84BF0C3FAFFF763B8012160
S3150800A7B0002052F0F1F8FFF75DB867F06DFAFFF781
S3150800A7C059B85C495C480DF1300966F01FFB5A48D8
S3150800A7D01022494666F030FB09287FF418AE574820
S3150800A7E045F040FD0A2007F029F847E6544849464F
S3150800A7F045F038FDB2E6534B534A402148460AF025
S3150800A800E7FE67E6514B524A402148460AF0E0FE09
S3150800A81078E6504BFF221A70A0E64F49464866F084
S3150800A820F5FA40224946444866F006FB4149424843
S3150800A83066F0ECFA40484022494666F0FDFA98F878
S3150800A8400030032B4AD045493B4866F0DFFA4022E0
S3150800A8504946394866F0F0FA4149374866F0D6FA6B
S3150800A86035484022494666F0E7FA98F80030032B47
S3150800A8702AD03C49304866F0C9FA2F483DF0FEFF19
S3150800A88039492D4866F0C2FA2B483DF0F7FF98F88B
S3150800A8900030032B7FF4FAAD2748344966F0B6FA40
S3150800A8A025483DF0EBFFF1E59847F8E5304B314A8E
S3150800A8B01B6802EBC30340211B792F4A48460AF05E
S3150800A8C087FE38E69847FAE52C491B4866F09EFA53
S3150800A8D040224946184866F0AFFACAE7284916489A
S3150800A8E066F094FA40224946134866F0A5FAAAE7A4
S3150800A8F01148244966F08AFA0F483DF0BFFF002840
S3150800A9003FF429AE204845F0ADFC24E6DFED057A94
S3150800A91013E740F025F900BFD0A70020000000107B
S3150800A9209818022000000000002000109A18022043
S3150800A930E05701204CAD0808205E012058AD0808F4
S3150800A940A4AE080828370120E8AD080820370120FA
S3150800A95014AE08089318022070AD08088CAD0808D4
S3150800A96098AD0808B0AD0808C0AD0808CCAD080811
S3150800A970541700200C55090834AE0808A4AD080879
S3150800A98080AD080840AE08084CAE08080000000074
S3150800A99010B590F8E03090F8DCC0154C83F0010350
S3150800A9A063F3000C80F8DCC04FF48C62002120466B
S3150800A9B075F023F900214FF4F07204F2644075F043
S3150800A9C01CF99FED097BA4F5906104F6A42204ED19
S3150800A9D01C7B04F6A82400230020C1F8E0081360B5
S3150800A9E0236010BDAFF3008000000000000000F0F7
S3150800A9F080240010000000009FED116BD0ED0F7A47
S3150800AA0080ED030AB5EEC00A0123F1EE10FA80EDD7
S3150800AA10066BC0ED097A80ED0F0A03720BD9DFEDDC
S3150800AA200A6A86EE807AF5EE407AF1EE10FA80ED43
S3150800AA300A7A03D07047054B8362704767F018BCE3
S3150800AA400000000000000000ABC222480000C07FE2
S3150800AA50D0B5554C554E0027204632463B463F2139
S3150800AA606EF0C0FF04F1280032463B4640216EF0E6
S3150800AA70B9FF04F1500032463B4641216EF0B2FF61
S3150800AA8004F1780032463B4642216EF0ABFF04F1F2
S3150800AA90A00032463B4643216EF0A4FF04F1C800ED
S3150800AAA032463B4644216EF09DFF04F1F0003246E3
S3150800AAB03B4645216EF096FF04F58C7032463B46C0
S3150800AAC046216EF08FFF3A4B3A49196047201871B4
S3150800AAD0482083F82400492083F844004A209FED43
S3150800AAE02E6B9FED2F7B83F864004B2083F8840040
S3150800AAF04C20002283F8A4004D244E2083ED046BDD
S3150800AB0083ED0C6B83ED146B83ED1C6B83ED246B6B
S3150800AB1083ED067B83ED0E7B83ED167B83ED1E7B33
S3150800AB2083ED267B1A721A73196283F8282083F834
S3150800AB302C20196483F8482083F84C20196683F87A
S3150800AB40682083F86C20C3F8801083F8882083F87F
S3150800AB508C20C3F8A01083F8A82083F8C44083F893
S3150800AB60E40083ED2C6B83ED2E7B83ED346B83ED54
S3150800AB703C6B83ED367B83ED3E7B83F8AC20C3F8D4
S3150800AB80C010C3F8E01083F8C82083F8CC2083F8F7
S3150800AB90E82083F8EC20D0BD002D3101000000002C
S3150800ABA00000000000000000F0220020400D030015
S3150800ABB0581A0020C8220A080D480E4AC3680E49CA
S3150800ABC09FED097B10B4002443611C7008300462B1
S3150800ABD080F82440094B5DF8044B80ED0A7B45F06C
S3150800ABE00DBB00BFAFF300800000000000000000AE
S3150800ABF0A83B002080160A081CA30808447F0908F9
S3150800AC002DE9F04F2DED048B544891B0FDF710FC5B
S3150800AC1020B111B0BDEC048BBDE8F08F0125504979
S3150800AC2000950346462204464E4845F02BFE4E48FC
S3150800AC30046143F003FF4D4B4D4A1B6813801B0C00
S3150800AC4093704C4B9D63FFF7B7FF60F011FD4A49BF
S3150800AC504A4846F003FC4A494A4846F0FBFB4A493B
S3150800AC604A4846F0F7FB4A494A4846F0F3FB4A4940
S3150800AC704A4846F0EFFB4A4B1D78002D40F06581A7
S3150800AC80484E494845F0EEFA31222946474874F0BD
S3150800AC90B4FF96F8790164F0ADFE96F84C0564F0B9
S3150800ACA0A9FE96F8DF0264F0A5FE4149414846F040
S3150800ACB0D5FB414870F080FA404870F07DFA404A6A
S3150800ACC04048536843F40003536070F075FA3E48F1
S3150800ACD090F83C33002B00F043833C4B9A689B6CFE
S3150800ACE05380202383F3118805F020FC384B1A780B
S3150800ACF0511E012900F21C8336495960012A1DD1CB
S3150800AD00354A3648116C41F010011164116E41F054
S3150800AD1010011166116E116A41F010011162116A73
S3150800AD2021F0100111622E49126A98604FF48002D0
S3150800AD30702381F83633C1F884214A60244E2548A9
S3150800AD40B1680268B1FBF2F3013B9BB203FB022236
S3150800AD50914200F00D83234805F062FA2093002003
S3150800AD6098160A08B89D0020F8AF0120AC160A0804
S3150800AD7078930120A83B0020B5B60608B0160A0845
S3150800AD80A9A50608BC160A0801110508D0160A085E
S3150800AD9079100508DC160A0815140508F0160A08BD
S3150800ADA07D180220A058001008170A08502B012009
S3150800ADB08973040820170A08F0950020CC9500200E
S3150800ADC000230140A895002018620020283501209C
S3150800ADD0709400201C1900200038024000BD0105AF
S3150800ADE000E100E0E0230A08B3F5AA7FC1F0568027
S3150800ADF07BB9AF4BAF49B04AB048C3E902214FF41B
S3150800AE00A271102219805A60AD4900221A6146F0D3
S3150800AE1021FBA74F264646B93B8833B1B868036875
S3150800AE201B689847031EC1F2DF820026A54FDFF88C
S3150800AE30C0830096B7F84220A3493346404645F0FA
S3150800AE4021FD0096B7F8D822A0493346A8F58670A2
S3150800AE5045F018FD00963346B7F804239C49A8F533
S3150800AE60D47045F00FFD9B499B4846F0F3FA9B4B7F
S3150800AE701E7097F84935D90703D497F84835DB0982
S3150800AE8048D0DFF84082B8F84410B8F8460040F0D9
S3150800AE9027FAB8F848160746B8F84A0640F020FADE
S3150800AEA00646002F01F0A180874201F00D8398F82D
S3150800AEB03436062B96BF8A4A8A4B52F82330814A83
S3150800AEC0186892F83C265968520608AB03C302D59F
S3150800AED001F10043099308A9384606F08FFB002EB6
S3150800AEE041F08680804BC3E90076764B93F8493566
S3150800AEF0DB0706D5DFF8FC8298F8AC33002B01F0A7
S3150800AF00ED82704B93F84835DB0941F0CB81734BE2
S3150800AF1001221A70754B1B7853B96A4BB3F8EC02C9
S3150800AF203EF050FA002801F0938171483AF0BCFDD2
S3150800AF30644B93F8BC63F60941F0C6803EF018FCF2
S3150800AF403FF084FA6B4845F08DF96B496B4846F03B
S3150800AF5089FA6B496B4846F081FA5A4B93F80C23E9
S3150800AF60120700F1CF81614B197879B9554B6648BC
S3150800AF701B89692B9CBF654A52F8231045F072F964
S3150800AF804AF0F2FE6249634846F068FA624DDFF815
S3150800AF90688205F580674FF0FF36294632464046F7
S3150800AFA0203508F01FFDAF42F7D15C485C4946F0F2
S3150800AFB059FA5C4800F5805595F8AC31002B00F03D
S3150800AFC0C581594959485A4D46F050FA59495A487F
S3150800AFD046F040FA59495A4846F03CFA95F85C3624
S3150800AFE0002B00F0A881574B5A68002A00F0BB8155
S3150800AFF058F0BCF900283FF40CAE5349534846F0C4
S3150800B00029FA5349534846F025FA5349534846F016
S3150800B01031FA5349534846F025FA5349534846F0FE
S3150800B02021FA5349534846F01DFA5349534846F006
S3150800B03025FA5349534846F011FA5349534846F0FE
S3150800B0400DFA5349534846F009FA5349534846F00E
S3150800B05005FA5349534846F005FA30F0A7FD524819
S3150800B06057F02AFE514B5249524801221A6046F0BF
S3150800B070F1F95149514846F0EDF9514A514805212F
S3150800B0806DF06AF85049514846F0E4F9504951487C
S3150800B09046F0E4F95049514846F0E0F9504951481C
S3150800B0A046F0E4F95049514846F0E0F9A6E000BFF9
S3150800B0B08C36012068170A088847002070170A0886
S3150800B0C0259E0608A058001098170A08A0170A080F
S3150800B0D0AC170A08F5A60608B8170A089C1802202D
S3150800B0E0A8230A08C4230A08709301207D180220A1
S3150800B0F0E02300104C180A086533060800170A08EA
S3150800B100D55006082897090864180A0854550908E6
S3150800B110E90E0508F8140A08B86B002078180A081A
S3150800B12031460208B86F0020F96302089023080820
S3150800B130708100204946020888180A08C155020885
S3150800B14094180A08E83B002061290608A0180A088E
S3150800B150D5280608AC180A083D2B0608B8180A08A8
S3150800B160592A0608C4180A08092A0608CC180A081B
S3150800B170312A0608D8180A08812A0608E4180A088F
S3150800B180F11A0608EC180A08CD1A0608F8180A086B
S3150800B1904D1A060800190A08711A06080C190A0831
S3150800B1A0951A060818190A08D01A00109093012053
S3150800B1B049BC050820190A08FDD6050840190A08D9
S3150800B1C069BC05084C190A08C9C2050864190A08A1
S3150800B1D0DDD8050870190A08E5D805087C190A0893
S3150800B1E0B9C2050888190A08C1C20508487E0908AF
S3150800B1F0E89E002098BD0010B0A500207649774843
S3150800B20046F038F97649774846F030F9764977486E
S3150800B21046F030F97649774846F02CF9764977486A
S3150800B22046F028F97649774846F018F97649774876
S3150800B23046F01CF97649774846F018F97649774872
S3150800B24046F014F97649774846F010F97649774872
S3150800B25046F00CF97649774846F0FCF8764977487F
S3150800B26046F004F97649774846F0F4F8764977487F
S3150800B27046F000F97649774846F0FCF8764B1B7895
S3150800B280002B00F00382754C7549012500234822DE
S3150800B2902046009545F0F6FA0023724900954722A4
S3150800B2A004F10C0045F0EEFA6F4B93F855359B0701
S3150800B2B000F1FC85684B1B780BBB6C48036143F0B7
S3150800B2C0BDFB694BB3F8F04420463EF07BF838B135
S3150800B2D09FED670A674B68496848224664F0C6FBD3
S3150800B2E0614BB3F8004520463EF06CF838B19FED47
S3150800B2F0600A634B60496348224664F0B7FB35F041
S3150800B3005BFB86E493F82727002A3FF42CAEB3F8B4
S3150800B31042003EF057F800283FF425AE002200927E
S3150800B320594B5A487F224FF4CA6107F081FC1AE646
S3150800B330574804F075FF0123D5F8581685F85C368A
S3150800B34028463CF0E1FEC5F860064CE60123D5F830
S3150800B350A81185F8AC311AF0FBF8C5F8B00130E64B
S3150800B3603DF0C0FEB9E44B4A1168596013603FE6E8
S3150800B370D0E90201F26821F0FF010027176050604A
S3150800B380936217610223D160337004F0E5FF20232E
S3150800B39083F3118805F0CAF805F092FB3378022B7F
S3150800B3A040F07985032372683370F368526809217F
S3150800B3B0D962012159615F621F6112B1DA680A43D5
S3150800B3C0DA6085221A6004F0C7FF33493348344EE1
S3150800B3D046F044F8012768E0F5C3050898E7080829
S3150800B3E0CDC205088C26080859BD050890190A0813
S3150800B3F0A5BD0508A4190A08F1BD0508BC190A085F
S3150800B40069E70308D8190A0849BD0508E0190A08B2
S3150800B41039BD0508F4190A0835BF0508041A0A08CB
S3150800B4203DBF0508141A0A0889BE0508241A0A0821
S3150800B4309D9205082C1A0A0845BF0508381A0A08F5
S3150800B44065B20408501A0A08EDFD05085C1A0A08D0
S3150800B4503DBE0508741A0A087D180220C49D0020FE
S3150800B460581D0A086C1D0A08A0580010D4B00120FF
S3150800B47000401C465C1900208C1D0A085046002016
S3150800B48068190020C84600208DBD0408686500209C
S3150800B490F0230A0804180020A18504082C170A08B6
S3150800B4A02C2B0120384606F0C9F93368012BF9D947
S3150800B4B0694B93F8BD23170778D5D3ED757ADFED79
S3150800B4C0676A9FED676A93F848359FED660A67EEE7
S3150800B4D0A67AB6EE007A67EE877A180786EE277A96
S3150800B4E0614BDFED626AD3ED007A9FED616A27EE64
S3150800B4F0267AF4EEC67A48BF37EE077AF1EE10FAE6
S3150800B500D8BFF0EE477AF0EE046A27EEA67AB4EED4
S3150800B510C07AF1EE10FA00F351879FED507A67EE84
S3150800B520877A87EE800A62F0EBFD524B00225A605A
S3150800B530B0EE087AC0EE076AF7EE004A36EEA45A6D
S3150800B540BFEE007AA0EE005A74EEE65A84EE856ADB
S3150800B550A0EE007AE0EE005A37EE077A66EE866AC3
S3150800B56067EE067A26EE256AB1EE667AC3ED006ABC
S3150800B57083ED027AC3ED037A83ED046A364B93F8BA
S3150800B58007365907C3F3800600F1A4863A48032212
S3150800B59056213EF061FE3948032257213EF05CFEF3
S3150800B5A0374890F83C33002B00F01A872A4B93F85B
S3150800B5B00C33DE0700F14086274B93F80C339A07C5
S3150800B5C000F1E485244B93F80C335B0700F1D98529
S3150800B5D0214B93F80F33DF0700F1CE851E4B93F806
S3150800B5E005361E0700F1C3851B4B93F80536D806AA
S3150800B5F000F1B885184B93F80C3F002B3FF409ACC3
S3150800B600204E0F335B010022C6E9232306F1A8006A
S3150800B6100123142286F8A330C6F8942044F0CAF908
S3150800B620B369002B00F00D86174A13885168194430
S3150800B63089B222460120002A7FF4DAAB002B3FF4B8
S3150800B640D8ABB3F5A27FBFF4CFABB1F5A27F024664
S3150800B650F1D9FFF7DEBB00BFA0580010DB0F494049
S3150800B66000006144809F55480068001000007A4435
S3150800B6700AD7233CFC74012050170A085C170A08ED
S3150800B680D05E0020884700208C360120C049C1487A
S3150800B69045F0E0FEC04AC14805216CF05DFDC04A90
S3150800B6A0C04810216CF058FDBF4AC04811216CF003
S3150800B6B053FDBF4ABF4810216CF04EFDBE4ABF4835
S3150800B6C011216CF049FDBE4ABE4811216CF044FDBB
S3150800B6D0BD49BE4845F0BEFEBD49BE4845F0BAFE66
S3150800B6E0BD49BE4845F0B6FEBD4ABE4805216CF0C8
S3150800B6F033FDBD49BD4845F0ADFEBD49BD4845F0E1
S3150800B700A9FEBD49BD4845F0A9FEBD49BD4845F05D
S3150800B710A1FEBD49BD4845F09DFEBD49BD4845F061
S3150800B72099FEBD49BD4845F099FEBD48BD4A11215F
S3150800B7306CF012FDBC4890F83C33002B00F03B84BB
S3150800B740BA4EA6F2845557F0D5FCB948314644F0AE
S3150800B750AFF9B5F8CA023DF035FE68B105F29C634B
S3150800B76093ED000ADFEDB30AB34AB449B448B8EE1C
S3150800B770C00A00236CF00CFCB24BB3F9E420B3F911
S3150800B7805210914201DAA3F85220AF4BDFF828A3F2
S3150800B790AE4DAF4ECAF8043003F14001CAF808109E
S3150800B7A003F15001CAF80C1095F8091ADFF80CB322
S3150800B7B04FF07E52142740F26C79A3F54E58CAF81A
S3150800B7C01820CAF81020CAF81420B26132617261D2
S3150800B7D017FB019103F160024144726005F60C20E3
S3150800B7E003F1A002B033B260F36044F061F995F852
S3150800B7F0591AC5F83CAA17FB0191414405F65C2085
S3150800B800C5F840BA44F054F995F8A91AC5F88C6AEF
S3150800B81017FB01910BF17803414405F6AC20C5F8F6
S3150800B820903A44F045F995F8F93AC5F8DCAA17FBB9
S3150800B830039141440BF1F00305F6FC20C5F8E03A04
S3150800B84044F036F90BF5B473C5F8303BC5F82C6BE4
S3150800B85051F0E6F998F8BC33590600F19F837D4804
S3150800B8603AF022F97C483AF01FF97C483AF01CF97C
S3150800B8707B483AF019F901205FF01EF9714B93F8ED
S3150800B8800F23920640F12A8393F84925D70704D552
S3150800B89093F84835DB0940F0B085724940F25E20DE
S3150800B8A052F0EAFC674D95F805369E0640F1298365
S3150800B8B095F84835DB0940F082836B4940F25E20F3
S3150800B8C052F0DAFC212038F039FD48B95D4B674D56
S3150800B8D0B3F83A83B3F83C73AB68002B00F0958550
S3150800B8E0584B93F81E124B1E2F2B0AD8604CDFEDCF
S3150800B8F0510A9FED600A20463EF016FD20463AF0B2
S3150800B900D3F8504D5C4995F836025C4F5FF094FDCC
S3150800B91095F802035A495FF08FFD59F09DF905F62F
S3150800B9201A56002405F64B5515F8012F36F8021F4E
S3150800B930013438463EF090FC082CF5D1514952485E
S3150800B94045F098FD5149524845F084FD5149524801
S3150800B95045F080FD5149524845F080FD394B93F832
S3150800B9605535DB0940F071834E494F4845F072FD65
S3150800B9704E4B93F827201AB94D4A1168D9621360BD
S3150800B9804A4E4C4CB4614EF66022002398E000BF44
S3150800B990D9200608881A0A0881200608981A0A086B
S3150800B9A0A12D0608A81A0A08812D0608B41A0A083D
S3150800B9B0552E0608C01A0A08352E0608CC1A0A0893
S3150800B9C0D12E0608D81A0A08E5200608E41A0A0835
S3150800B9D06D1F0608F41A0A08791F0608001B0A08CC
S3150800B9E0151F06080C1B0A0841210608181B0A0819
S3150800B9F0D90F0608281B0A081D520608381B0A080C
S3150800BA00252006084C1B0A08D51F06085C1B0A08D1
S3150800BA1095210608681B0A08E50F0608741B0A081C
S3150800BA20801B0A085D2F0608308D0020245E001052
S3150800BA30C8060010000000005C9E00208C1B0A0847
S3150800BA4030400020A0580010208C00100000001084
S3150800BA5094B001206CB001205CB001204CB00120EC
S3150800BA603CB00120A01B0A08D81B0A08988D0120A3
S3150800BA70A88C0020CDCC4C3D088D0020141C0A084B
S3150800BA80E08C00209DDF0608201C0A08DDDE03087E
S3150800BA90301C0A08515D0408441C0A08399D06082A
S3150800BAA0541C0A08CD580408AC80080840470020F2
S3150800BAB0A0AC0020EE5D0010B4B00120E83C0020E8
S3150800BAC0C6E90223304604F22A630025336286F863
S3150800BAD026503EF09FFC0121B14A86F82710B1494D
S3150800BAE0B14B53604FF07E56B04B9160203996614A
S3150800BAF016615661D16001F140025A6001F5B072D3
S3150800BB009A60AB489E61203A29461E615E61DA60FA
S3150800BB1034F068FEA74BA84AA848A9495A6002F516
S3150800BB2080729A604160103201F58071DA60816036
S3150800BB30A44A9E611031C1601031516040311E61C6
S3150800BB405E619160A04B9661103116615661D160B5
S3150800BB5001F160021031C3E901128661066146618E
S3150800BB609E611E615E6101F16002984E984FDFF892
S3150800BB70FCA2DA60A4F24E54B4F8B48940463DF00B
S3150800BB8021FCA0B3B4F8B8B9924B934942464FF09A
S3150800BB900C0807EE90BA08FB0538BBF100094046C9
S3150800BBA018BF4FF00109B8EE678A44F013FFBBF1DE
S3150800BBB0000F40F086815AF8253004F6DE125A60E6
S3150800BBC04FF07C529A6104F6BE129A604FF080429A
S3150800BBD01A6104F6CE12DA604FF07E525A61C6E94F
S3150800BBE0048304F6B41386F80890F7607360013589
S3150800BBF0042D04F16C0406F1180607F17807BBD189
S3150800BC00764C774D94F86C3404F2A450002223F055
S3150800BC10070305F65811A5F8D82584F86C3443F0BF
S3150800BC2047FF95F8CD306F4DD8064CBF04F599609F
S3150800BC3004F592606C4C294643F03AFF204630F0F2
S3150800BC40A9FF53F0C1FBA4F5BB62002182F860147A
S3150800BC50A4F5BA72654B1360A5F2CC55A4F5A87283
S3150800BC6063486449136045F0F5FB95F8CD30D9066D
S3150800BC704CBFA4F58870A4F5A470594C04F2CC51B5
S3150800BC8004F2D45304F5BA620D681968C36A1268D7
S3150800BC905A6002681D60526899609047564957482D
S3150800BCA045F0D8FB564B1B78002B36D14B4B554AE3
S3150800BCB055485649564D574EC3E9F202564845F07F
S3150800BCC0C9FB5649564845F0C5FB564B5649574A8F
S3150800BCD05D614FF07E50886108619061106118615E
S3150800BCE004F69C10C8605248486152489861524808
S3150800BCF098600630D86004F63C6004F6A814C1E9DA
S3150800BD0001044E49566004F66C3400F5DD60C2E95C
S3150800BD1002405561596052F08DFB314B93F854350A
S3150800BD205A0600F15F8150F075FE4549454820F0F6
S3150800BD3037FE454B4549A3F67C624FF07E54B2F870
S3150800BD404C00434A4B60A3F59C65A3F2D4468C612C
S3150800BD5024330C61946114613E4CCD60C2E901360E
S3150800BD60D560334B8E6000254B61536125703DF0DD
S3150800BD7029FB58B12B46DFED380A9FED3D0A374AB5
S3150800BD80374938486CF004F901232370144B364CB4
S3150800BD90B3F8120E002525703DF014FB6AE000BFCB
S3150800BDA0A8BC0020D4970010B4960010E4BC00206C
S3150800BDB0A80B0010A89B0020349900107898002042
S3150800BDC0549A00105898002038980020B08D012009
S3150800BDD0C88800202C1900200C1D0A080000001035
S3150800BDE0A05800106C5E0010D80500100000C8C2EC
S3150800BDF0141D0A08F5B005086DAA0408201D0A08CE
S3150800BE007D180220281F0020F01F0020B1C9050850
S3150800BE100AD7233C746D00102C1D0A08FDA10508DD
S3150800BE20381D0A081CB001208C750120088D0120D8
S3150800BE300000C842CDCCCC3DAC9E0010889E0010B8
S3150800BE406F8614008CBC00201C670010A4A7002075
S3150800BE5084A70020BF180220CDCCCC3D9C9E002094
S3150800BE60401D0A0850880020BE180220FC230A0834
S3150800BE700000C07F00283FF406AA2B461FED040ADF
S3150800BE80C54AC649C648F6EE000A6CF081F8012391
S3150800BE902370FFF7F8B9C34804F0C2F9B1F5AA7FD1
S3150800BEA04FF001027FF6C7ABFEF7B3BFBE4B1B7858
S3150800BEB0002B7FF424AABD49BD4845F0CBFAFFF70D
S3150800BEC0F9B9BC4BDFEDBC0A53F82510B0EE480AA9
S3150800BED00023424638466CF05BF86CE693F84C3221
S3150800BEE0013B2F2B02D8B54839F0DEFDB44B93F849
S3150800BEF04D32013B2F2B3FF6D5ACB24839F0D4FD75
S3150800BF00D0E4B149B14895F8D76245F0A3FAB049EB
S3150800BF10B04845F09FFA30463DF008FCAE4BC3F8F2
S3150800BF205803002800F0E98203F2463603F26F3719
S3150800BF309B4605F5517503F5807A039405E00BF1E8
S3150800BF40200BD34505F102056DD000234FF00108FB
S3150800BF5026F8028F07F8013F9BF87C0338F0EEF9C4
S3150800BF6004460028EBD1B5F8009048463DF02AFA79
S3150800BF700028E4D0984B494603F55770C3F8604348
S3150800BF8043F0A0FA9548424649463EF065F92B88A3
S3150800BF9033800BF55E7039F087FDD0E7904857F08F
S3150800BFA043F9904857F040F98F4857F03DF98F48C4
S3150800BFB057F03AF953E43DF095F8FFF7C1BB8C48C2
S3150800BFC057F032F98B4857F02FF98B4857F02CF970
S3150800BFD08A4857F029F98A4857F026F9894857F0C8
S3150800BFE023F96FE454F01CFC9DE600283EF492AF5A
S3150800BFF0734B93F83636062B00F25281824A52F872
S3150800C00023306F4A186892F83C265968D20906AB5D
S3150800C01003C302D001F10043079306A9304605F091
S3150800C020EDFAFEF75FBF6C4D039C95F83C33002B89
S3150800C0307FF448AC0123D5F8381385F83C332846F5
S3150800C0403CF03AF8C5F840033CE4704B93F8D42129
S3150800C050002A00F0108193F8D521002A00F01D81EE
S3150800C060D3F8D8310B939DED0B8A18EE100AFCF71E
S3150800C07051FB0446224666480B460D4644F0F2F844
S3150800C080B4EE488AF1EE10FA80F1E980DFED617AC4
S3150800C090B4EEE78AF1EE10FA00F3E180DFED5E7A9E
S3150800C0A0B4EEE78AF1EE10FA00F1D9805B4844F065
S3150800C0B0D9F8564B40F20111002283ED648AA3F8A1
S3150800C0C08C1183F88E214FE493F8B029052A00F2E3
S3150800C0D01982DFE802F0373A342D034440F2F113AF
S3150800C0E04F4900220B804F4B4F481A8039F0DCFC31
S3150800C0F04E4839F0D9FC324B4D4993F8BC230E70A3
S3150800C10090067EF51BAF93F8B029052A00F2018246
S3150800C11001A353F822F000BF51C1000851C100081D
S3150800C12051C100083DAF000851C100083DAF0008E5
S3150800C1303B4B4FF421721A8040F28522D3E74FF425
S3150800C140D073CDE74FF4F873CAE74FF40073C7E727
S3150800C150384940F66E0052F08FF8FEF7EFBE40F20F
S3150800C1600933BDE706203FF03DF9FFF743BA05203E
S3150800C1703FF038F9FFF738BA04203FF033F9FFF7F4
S3150800C1802DBA03203FF02EF9FFF722BA02203FF01E
S3150800C19029F9FFF717BA00BFDC9E00204C1D0A08D4
S3150800C1A0D8870020CC230A087D180220119E06088D
S3150800C1B0801D0A082C240A080000000088B0012007
S3150800C1C0A05800107CB00120F9020508001C0A08D6
S3150800C1D051030508081C0A089027002068830808E8
S3150800C1E0508B0020188B0020E08A0020A88A0020A7
S3150800C1F0788C0020488C0020188C0020E88B0020C2
S3150800C200B88B0020888B0020A8230A08D0A7002016
S3150800C210601C0A080000DC42000070429C1D0A08E7
S3150800C2207A1802207818022058480020384800203A
S3150800C230BC1802200C180A0801203FF0D3F8FFF7B3
S3150800C240BBB9B94B1A68B26114361E60FFF7ECB970
S3150800C250B64B93F8E4036DF0BBFBFEF769BEB44931
S3150800C26022462B4640F6B20051F044FCB14843F052
S3150800C270F9FFFFF779BBD3F8DC4174B12368204690
S3150800C2809B68984748B1236821465B680AA898477F
S3150800C2909DF82830002B7FF4E6AE9FEDA78AE4E6EA
S3150800C2A0A64BAEE6A648C0F8687327B190F83C33AB
S3150800C2B0002B00F01081A348C0F86863002E3EF4F6
S3150800C2C026AE90F83C33002B7EF421AE3CF00AFFF4
S3150800C2D0FEF71DBE9C4BDFED9D9A9FED9D9ADFF8FC
S3150800C2E0B4A20FCB10AF07E90F004FF000090027E3
S3150800C2F09FED988A0DF1300BB84607EE907AF8EE66
S3150800C300E77AFBEC018A77EEA77A08F1010827EEAF
S3150800C310A90A4F4480EE090A6FF0B0FBB8F1040F82
S3150800C320A8EE808AE9D109F10109B9F5806FAAEC6E
S3150800C330018ADCD1884BDFED876A1868DFED875AFA
S3150800C3409FED876ADFF850C205EE104AAE464FF4F5
S3150800C3507A6700220CFB02F307EE903AF8EEE77ACA
S3150800C360411C67EEA57A914237EEC67AB0EEC77AD7
S3150800C370BDEEC77A17EE103A05D1B8EEC57A37EE94
S3150800C380C77AF0EEC76ABB4204DABDEEE75A1F4623
S3150800C390B64610460132B2F5007FDBD1BEF1000F7A
S3150800C3A001D06D4B18606F4B15EE101A03F50A6233
S3150800C3B0A3F89E18C2ED006AFFF7E8B817EE900AD0
S3150800C3C0FCF7A8F902460B46CDE90023664954A3B3
S3150800C3D0D3E9002340F25E2051F04EFFFFF7CEB8B6
S3150800C3E03CF080FEFFF7E2B83246604940F25E2034
S3150800C3F051F042FF0126FEF70EBD5D4856F014FFC8
S3150800C4005C4856F011FFFFF74DBA40463CF0DAFF9C
S3150800C41000283FF465AA38463CF0D4FF00283FF4CC
S3150800C4205FAA554E0522304641463DF015FF0522C6
S3150800C430394630463DF010FF40466BF0E7FE414670
S3150800C440286030463DF0A6FC686038466BF0DEFE94
S3150800C450394603463046AB603DF09CFC6A6829685D
S3150800C460E860012606FA02F292B20A8306FA00F397
S3150800C470AA689BB213830DF113010F23284632468F
S3150800C4808DF8133064F046FF32460DF11201284646
S3150800C49064F05AFF9DF81230B12B2BD0BD2B7FF4D8
S3150800C4A01FAA4CF220433446344DADF814302846C2
S3150800C4B0022205A92C6164F02DFF012330482B7553
S3150800C4C039F0F2FAFFF70CBA2E4940F25E2051F025
S3150800C4D0D3FEFEF71FBD3CF005FEECE60123D8F8B7
S3150800C4E0A81388F8AC3340464DF078FEC8F8B00378
S3150800C4F0FEF707BD44F21043D6E7234843F0B2FEE1
S3150800C500FFF7E0B9214940F66E0051F0B5FE2E4618
S3150800C510F1E51F4940F66E0051F0AEFEFEF70EBD7E
S3150800C52000000000F0B30A410418002000200010A3
S3150800C530901C0A08BC1C0A0867A6CA42C4230A0833
S3150800C54028BA0010B8B60010E8020808DB0F494000
S3150800C55000C07F4400000000E86601200000803A21
S3150800C56000007A450000001030170A087C170A08F0
S3150800C570D048002090480020101C0A08988D0120F9
S3150800C58028460020C0170A0874830808EC170A080A
S3150800C59034180A089C1101207E560300000000008A
S3150800C5A038B59FED216BDFED227A224B03600446F6
S3150800C5B000250123036480ED0E6BC0E90755C0E929
S3150800C5C00955C0ED017AC0ED027AC0ED037AC0EDD7
S3150800C5D0047AC0ED057AC0ED067AC562C0ED0C7A1C
S3150800C5E080F8345080F8445085644C306AF0AEFDCB
S3150800C5F0114BA4F8B0504FF0824284ED206B84EDC5
S3150800C600266B84ED2E6B84F87C50C4F88850C4EDF4
S3150800C610237AA4F89050C4ED287AC4ED297AC4F890
S3150800C620A820C4F8AC3038BD00000000000000F0B7
S3150800C630000000001C380A08CDCCCC3D00000000E4
S3150800C6409FED0F7B002200B5C0F8A4104FF0000E36
S3150800C6500D49C0F80CE0C0F820E0C0E90422C0E9A2
S3150800C660062280ED0E7B80ED347B5DF804EB42609C
S3150800C67082600160426242F0FDBD00BFAFF30080F8
S3150800C68000000000000000F004380A08000000005E
S3150800C69010B59FED136BDFED147A144CC0ED147AC8
S3150800C6A000234FF0010C836280ED126BC362C0E970
S3150800C6B00833C0E90A33C0E90C33C0E90E33C0E9D0
S3150800C6C01033C0E9033300F10C0E03604371436174
S3150800C6D0C36180F854C0836180F804C0846010BDCB
S3150800C6E000000000000000000000C07F3C240A088B
S3150800C6F070B5234ED6F82836D6F8B847A6F82C06CD
S3150800C700013382B00546C6F82836ACB1002306F5D3
S3150800C710C86001E0A3420FD01A010133815AA94229
S3150800C720F8D1184C1444204643F044F9164802B090
S3150800C730BDE8704043F03EB904F06AF9D6F8B83758
S3150800C740124A0190172B11D802EB031202F5AC44DA
S3150800C7509FED097BA4F84050013384ED0E7B0198C8
S3150800C760C6F8B837383404F0F3FFDCE7019804F06C
S3150800C770EFFFDBE7AFF3008000000000000000F0E9
S3150800C78000500010385600103056001000000010F7
S3150800C7902DE9F04F2DED068B0123DFED5BAA85B061
S3150800C7A00A24BFEE009AB8EE008AF6EE008A06461C
S3150800C7B01D4629EE08AADFED559A2AEE09AA4FEA80
S3150800C7C0450B32464FEA051AE800B7EE009A0021F3
S3150800C7D0871802F1040990460B46D7ED010A97ED32
S3150800C7E0000A69EE207A20EEE97AE9EE807A5B445F
S3150800C7F0A9EE007AF4EE477AF1EE10FA58D698EDDB
S3150800C800016A59ED016A36EE676A76EEC76A87ED00
S3150800C810016AC7ED006A98ED016A59ED016A77EE7B
S3150800C820867A36EE877AB3F5806F09ED017A574432
S3150800C830C8ED017AD144D044CFD369EE8A7A2AEE7C
S3150800C840E97AE9EE2A7AAAEE097AB4EE677AF1EE7F
S3150800C85010FA40D60131A94239EE079A79EEA79A1D
S3150800C86002F10802B4D1013C1DD05846FBF730FF4F
S3150800C87002460B4622A1D1E90001FCF7CDF8FCF7E8
S3150800C88079FA09EE100A29EE280A6FF067F9B0EE70
S3150800C89040AAB0EE490A6FF061F95D46B0EE4A9AD1
S3150800C8A0F0EE40AA85E705B0BDEC068BBDE8F08F33
S3150800C8B0F0EE691AB0EE491ACDE90202CDE9003167
S3150800C8C072F0C0FEDDE90202DDE90031B0EE407A21
S3150800C8D0F0EE607A93E7F0EE6A1AB0EE4A1AF0EED6
S3150800C8E0690AB0EE490ACDE90102009172F0AAFE82
S3150800C8F0DDE901020099B0EE407AF0EE607AA9E728
S3150800C90000000060FB2109C02EBDBB3300000000FB
S3150800C9102DE9F04FCC4BCD4CCD49CE482DED068BAD
S3150800C920C3F82C44CC4C1C600022CC4CC3F83444CD
S3150800C930C3E90122CA4C83F83024CA4B0B60C1F8FC
S3150800C9406446C94BC94C1A708125C1F858566360AC
S3150800C950E360C74DC74B81F85C260026C6492560AB
S3150800C9604FF07047C0E90067C44D0D606420C1E907
S3150800C9700620086203F1280103F14000C3E9021109
S3150800C9801960586003F1200103F11800C3E9060095
S3150800C990C3E90811BA48BB491A6100F128051A7596
S3150800C9A04FF47A7C0B460560B74FC560C4F808C0DB
S3150800C9B000F11804C0E9064400F1400600F120041D
S3150800C9C043F8247BC0E90844C1E902228560466031
S3150800C9D0026102750A7183B0A431FF2043F8102C56
S3150800C9E003F80C2C23F80A2C03F8082C03F8070C78
S3150800C9F003F8062C10339942F0D1A449A44BA54C50
S3150800CA00C3F89C4001F134001425C3F894505861CA
S3150800CA10002444F620604FF07045C3E92A451960A2
S3150800CA20C3E902229C491A71C3E90622C3E92322F3
S3150800CA30C3F89800994B9A489A4C0860862581F85D
S3150800CA403C23C1F84823C1F83853C3F83853C1F812
S3150800CA50444301259449C3F848531860934D83F815
S3150800CA603C238720C1F8A8030520C3F84443C1E93D
S3150800CA70ED508F4B81F8AC239FED6D8B8D4A0A6084
S3150800CA804FF0000803F5C072C3F8088083ED068BE3
S3150800CA90C3F80C8083ED088B83ED0A8BC3F80080FE
S3150800CAA083ED0C8BC3F8108083ED0E8B83ED108B12
S3150800CAB083ED128B83ED148B83ED168B60339342D3
S3150800CAC0E2D17D4B7D4A1A607D4A5A60DA6082F867
S3150800CAD000807C489FED7C9ADFF868A27B4F4FF474
S3150800CAE07A6228219A606CF091FF794825216CF0CA
S3150800CAF08DFF784859216CF089FF77485A216CF0E8
S3150800CB0085FF764B764824221A712321754A1A60C6
S3150800CB106CF07CFFFDF79CFF734BDFF82CC2734962
S3150800CB2083F8088022221A71714ACCF82020C2E9BB
S3150800CB300088C2E9028882F814800022C3E9041238
S3150800CB4003F128021A624FF021028CF80420694A80
S3150800CB501A609FED39AB684ACCF800209FED387B08
S3150800CB60664A83F80C8002F5805B83F82C8083ED97
S3150800CB70068B83ED0CAB6248624A83ED099A202145
S3150800CB8000238CED047B8CF808808CF80C808CEDE7
S3150800CB90068B6CF027FF5C485A4A9FED5C0A4F21CA
S3150800CBA000236CF01FFF514A594800231F216CF0DF
S3150800CBB019FF584B4D49584883F808800022C3E9A5
S3150800CBC004124FF00C01197154491960F7EE009AD6
S3150800CBD083F80C8083ED068B514B40F8043BF0EE4E
S3150800CBE0690A6CF0F9FC65F0A9F84E486CF0F4FC9B
S3150800CBF04D4B4E481860C3ED019A83ED029A83EDBA
S3150800CC00039A83ED049AC3ED059A494B49484A4A63
S3150800CC1083ED00AB494B212183ED00AB00236CF07B
S3150800CC20E1FE474B4148186090E000BFAFF3008033
S3150800CC30000000000000000000000000000000F0F6
S3150800CC4000093D0000000000208F01206C270A081B
S3150800CC5000520020A03B0020842A0A08B4210120A3
S3150800CC6070270A086C2A0A08ECB00120E8AF0120F0
S3150800CC707C270A08A0C80010F8AF0120A82A0A08CD
S3150800CC80E0C80010902A0120BC2A0A08E42A0A08EB
S3150800CC90884700208F1E170028BA0010B8B6001063
S3150800CCA0482B0A089CA8080898BD001094A80808EC
S3150800CCB0082C00202C2B0A08F05701208C270A087C
S3150800CCC020C900103026002000000000A0680010CF
S3150800CCD08824002038250020E02400208CAC002081
S3150800CCE0302400205C2B0A08A88C002080841E00B3
S3150800CCF0988D0120782B0A089C2B0A080000001042
S3150800CD00D8200020801A0600B02000200000C84263
S3150800CD10C8220020A82200209C960120C8220A08C2
S3150800CD20BC2B0A08BC960120E8930120080F0A08C4
S3150800CD3080480020E0250020400D030078480020A8
S3150800CD4010940120BC86001028460020D04AD148FD
S3150800CD50C3ED019A83ED029A83ED039A83ED049A53
S3150800CD60C3ED059A272100236CF03CFECA48C84A41
S3150800CD70332100236CF036FEC848C54A3521002306
S3150800CD806CF030FEC648C24A372100236CF02AFEF2
S3150800CD90C44BC54AC5491960C3E90A8883F808809F
S3150800CDA083F80C80C3F8208083F8248083ED068BF3
S3150800CDB083ED0C9ABE4B1160BE4919604FF0260CE4
S3150800CDC0B84BDFF85CE382F804C04FF0340C83F804
S3150800CDD004C042F2046CB64BAEF804C04FF0270C00
S3150800CDE08EF806C0CEF8001043F2324E9FEDA47BB3
S3150800CDF0A3F804E04FF0330E83F806E0A94B82F857
S3150800CE000880C2E90A8882ED047B83ED047B82F8F8
S3150800CE100C80C2F8208082F8248082ED068BA64812
S3150800CE2082ED0C9A05219A4A00236CF0DBFDA34893
S3150800CE30974A312100236CF0D5FDDFF8E8E2DFF8E8
S3150800CE40E8C29F499F480860CEF80000CCF8000069
S3150800CE509D4881F8088081F80C80C1F8248081ED0E
S3150800CE60068B9A4980F80880AAF180008860944861
S3150800CE70C1F804A09649CEF820100162CCF820101B
S3150800CE809249944808608E48934981620131CEF8E8
S3150800CE9028100131CCF828104FF0290101714FF004
S3150800CEA02A018EF8041088488EF808804FF02B0166
S3150800CEB09FED757B8CF804104FF02C0101718048AA
S3150800CEC081498EF80C8080ED047B8448CEF8248056
S3150800CED08EED047B8CED047B8EED068B8CF808803A
S3150800CEE08CF80C80CCF824808CED068B81F80C80AD
S3150800CEF088627B497B4B7C4A013088624FF02D0C57
S3150800CF007A4881F804C07A4981624FF02E0C794933
S3150800CF1080F804C0784888607849794888606A4803
S3150800CF206F4980ED047B80ED068B7048019081ED9A
S3150800CF30047B80ED047B81ED068B80ED068B6149D1
S3150800CF4061480160243101626549C0F8248081F88E
S3150800CF500880084681F80C80C1F824805949016088
S3150800CF602431016261482439016024310162614932
S3150800CF7080F8088080F80C80C0F824804FF01900EB
S3150800CF800871604808605D4908604FF01A0008712A
S3150800CF901921C3E901181A2151605B49196011600A
S3150800CFA02831196211624FF001015848C3F82C80E4
S3150800CFB082F8381099854FF00101C2F82C809185C6
S3150800CFC00021C3E90401C2E90401C3E90988C3E9E8
S3150800CFD00C88C2E90288C2E90988C2E90C88C3F844
S3150800CFE00C8083F8388083ED068B82ED068B63F020
S3150800CFF01FF9DFF838E1464ACEF800200C2128321E
S3150800D000DFF82CC1434BCEF82C10CEF820204FF079
S3150800D0100301414A8EF804104FF00101B1EE007A7F
S3150800D0208CF80410CCF800304FF4FD6113602833F7
S3150800D0308EED0C7A8EF808808EF80C80CEF8248057
S3150800D040CCF820301362CEF828108EED048B8EEDC6
S3150800D050068B0F234FF0050ECCF82CE08CF80880D1
S3150800D0608CF80C80CCF82480D362CCF828102B4B93
S3150800D070CCED0C9A8CED048B5CE000BFAFF300801E
S3150800D08000350C0000000000804F12000000000070
S3150800D090400D030008260020104900209025002096
S3150800D0A0B8250020882D0020C02D0020E82B0A086E
S3150800D0B000940120CC2B0A08088D0020E08C002063
S3150800D0C0788C0020182C0A08E88B0020A4930120ED
S3150800D0D03C2C0A08082C0A0805030A0008030A005B
S3150800D0E0B88B0020D048002090480020888B00206C
S3150800D0F00A030A0088B001209DA106087CB0012019
S3150800D100B5A106088C2C0A08502C0A08C0D40100C0
S3150800D110202D0A08E42C0A08E08A0020A88A0020A4
S3150800D12008940120488C0020188C0020508B002081
S3150800D130188B00208CED068B4FF0020C82F80880C5
S3150800D14082F80C80C2F82480916282F804C082EDCD
S3150800D150048B82ED068BC2ED0C9A4FF4FD629A623F
S3150800D160E24ADFEDE37A1A6028321A624FF00D0CB4
S3150800D1700F229FEDE00AE048C3ED0C7A0E2183F8F2
S3150800D18004C083F8088083F80C80C3F82480DA6228
S3150800D19083ED048B83ED068B6CF056FCD7480F2184
S3150800D1A06CF052FCD64811216CF04EFC1221D54881
S3150800D1B06CF04AFCD44BD048186090F82420CF482D
S3150800D1C05A73586090F82420D0489A734FF00D0C83
S3150800D1D083F80CC0986083F8148083ED049AC84AD3
S3150800D1E0CB4BDFF86CE31A6092F824205A73C54AD1
S3150800D1F098604FF00F0CC7488EF806C05A604FF07B
S3150800D200100C92F824209A7383F8148081710246D0
S3150800D210C14983F80CC083ED049A40F60D63AEF855
S3150800D2200430016080ED029A80ED039A41F21013F2
S3150800D230BA489380B94ACEF8001041F213434FF02A
S3150800D240150CB0EE690A0160B5488EED029A1421F4
S3150800D2508EED039A938082F806C082ED029A82EDDB
S3150800D260039A6CF0F1FBAF4815216CF0EDFBAE4B61
S3150800D270AB49196091F82420AA495A7391F82420D9
S3150800D2809A73AA4ADFF8CCC2C2F800C09F489FED3D
S3150800D290A80A98604FF0130C83F80CC083F8148022
S3150800D2A05960A44883ED049A1D21162393806CF0D7
S3150800D2B0CBFBA1481E216CF0C7FB63F0D7F8DFF85B
S3150800D2C098C29E4B9E499F4A4FF003008CF80C006B
S3150800D2D04FF0200018739C4818604FF0500ECCF899
S3150800D2E000000860106099488CF804E0CCF8080043
S3150800D2F04FF0510C81F804C04FF0230C81F80CC094
S3150800D30088604FF0010852210024986090601171DE
S3150800D310A7F6F87082F80C8053221A7169F05CFF40
S3150800D32090222146A7F1140072F067FC20222146BC
S3150800D33007F19400C7E91F44C7E92144C7E9234414
S3150800D34072F05BFC2022214607F1B40072F055FC0E
S3150800D3504022214607F1D40072F04FFC40222146B4
S3150800D36007F5BE70C7E94A44C7E94E44C7E95244BF
S3150800D370C7E95644C7E95A44C7F81841C7F82041CF
S3150800D38087F8784187F87B41C7F81441C7F81C41EC
S3150800D390C7F82441C7F83441C7F84441C7F854418F
S3150800D3A0C7F86441A7F87641A7F87941C7F830412C
S3150800D3B0C7F84041C7F85041C7F86041C7F87041FF
S3150800D3C0A7F8744172F019FC4022214607F5DE7071
S3150800D3D072F013FC4022214607F5FE7072F00DFC30
S3150800D3E04022214607F50F7072F007FC20222146DD
S3150800D3F007F51F7072F001FC2022214607F52770F9
S3150800D40072F0FBFB2022214607F52F7072F0F5FB20
S3150800D4102022214607F5377072F0EFFB20222146BD
S3150800D42007F53F7072F0E9FB2022214607F54770A1
S3150800D43072F0E3FB2022214607F54F7072F0DDFB00
S3150800D4402022214607F5577072F0D7FB4022214665
S3150800D45007F56770C7E9E044C7E9E444C7F87C43C1
S3150800D460C7F88C43C7F88843C7F8984372F0C5FBDA
S3150800D4702022214607F5777072F0BFFB202221464D
S3150800D48007F57F7072F0B9FB4022214607F22C405F
S3150800D490C7F82044C7F82844C7F81C44C7F82444EA
S3150800D4A072F0ABFB4022214607F28440C7F870446D
S3150800D4B0C7F86C44C7F87444C7F87844C7F87C447E
S3150800D4C0C7F8804472F099FB4022214607F2D440FF
S3150800D4D0C7F8C444C7F8C844C7F8CC44C7F8D0440A
S3150800D4E072F08BFB2022214638E000BFA82C0A08E0
S3150800D4F03333234000004843E091002098910020F0
