S01400006275696C642F7275736566692E7372656343
S3150800800010100020B9830008EDEB0208F983000878
S315080080101D840008F88300080B840008837FD15864
S31508008020C4E20900B3830008B383000819460108AF
S31508008030B3830008B3830008B3830008DD5501083D
S31508008040B3830008B3830008C154010839550108F1
S31508008050B3830008B383000869A9040871A9040852
S3150800806079A9040881A9040889A904080D4A010800
S31508008070454A0108814A0108BD4A0108F94A01082A
S31508008080314B01086D4B010895460108ED4801087A
S3150800809011490108354901085949010891A90408F7
S315080080A0B3830008F9570108B38300081D5801086F
S315080080B0C95601082158010845580108CDA80408E1
S315080080C0B3830008BD4D0108F54E0108B3830008C7
S315080080D0B3830008B3830008555A0108795A010882
S315080080E0B5A9040881550108B3830008B3830008BD
S315080080F08D580108B3830008B1580108A94B010837
S31508008100B3830008B383000869580108B3830008DD
S31508008110B3830008B383000869560108B3830008CF
S31508008120E54B01081D4C0108594C0108954C0108FE
S31508008130D14C0108B3830008B38300087D490108C0
S31508008140A1490108C5490108E94901081150010872
S31508008150094D0108454D0108814D0108B55801082A
S31508008160B3830008B3830008B3830008B383000809
S31508008170B3830008B3830008B3830008B3830008F9
S31508008180B3830008B3830008B3830008B3830008E9
S31508008190B3830008B3830008B3830008B3830008D9
S315080081A0B3830008B3830008B3830008B3830008C9
S315080081B0B3830008B3830008B3830008B3830008B9
S315080081C0B3830008B3830008B3830008B3830008A9
S315080081D0B3830008B3830008B3830008B383000899
S315080081E049D2000815C10708000000000000000079
S315080081F001F0FF01102A2BDB10F0070F08D010F84A
S31508008200013B013A8B422DD010F0070F42B3F6D14D
S31508008210F0B441EA012141EA014122F007047FF066
S3150800822000070023F0E80256083C85EA010586EABD
S31508008230010685FA47F5A3FA87F586FA47F6A5FAF9
S3150800824087F68EB9EED1F0BC01F0FF0102F0070205
S3150800825032B110F8013B013A83EA010313B1F8D1B0
S315080082600020704701387047002D06BF3546033891
S31508008270073815F0010F07D1013015F4807F02BFCA
S31508008280013015F4C03F0130F0BC0138704700BF1B
S3150800829072B6394880F30888384880F30988384820
S315080082A04EF60851CEF20001086040F20000CCF20A
S315080082B000004EF63471CEF200010860BFF34F8F0E
S315080082C0BFF36F8F40F20000C0F2F0004EF68851FF
S315080082D0CEF200010860BFF34F8FBFF36F8F4FF0E8
S315080082E00000E1EE100A4EF63C71CEF2000108607D
S315080082F0062080F31488BFF36F8F08F0BBFA24F0CA
S31508008300DFFC4FF055301F491B4A91423CBF41F8EC
S31508008310040BFAE71C49194A91423CBF41F8040B81
S31508008320FAE71A491A4A1B4B9A423EBF51F8040B00
S3150800833042F8040BF8E700201749184A91423CBF57
S3150800834041F8040BFAE708F099FA44F02DFE144CAC
S31508008350144DAC4203DA54F8041B8847F9E768F071
S3150800836031FF114C114DAC4203DA54F8041B88470F
S31508008370F9E708F081BA0000101000201016002056
S315080083800080000810000020101000207C5E0A08FB
S3150800839010160020581A0020581A002050190220DA
S315080083A0E0810008E4810008E4810008E88100080B
S315080083B06EE700F000F8FEE70A480B49026800601D
S315080083C08A4201D0FFF764FF08484FF480410160F4
S315080083D007484FF0010101600648D0F800D0406810
S315080083E000470000F0FF0120EFBEADDE4438024032
S315080083F0003801400000FF1F1EF0040F0CBFEFF30A
S315080084000880EFF3098026F0F5BB1EF0040F0CBFB9
S31508008410EFF30880EFF3098026F034BC1EF0040F52
S315080084200CBFEFF30880EFF3098026F077BC00BF96
S31508008430EC46A0E8F05F80EC108B4FF00000704728
S31508008440B0E8F05FE54690EC108B080008BF012005
S31508008450704700BF00F1340191E838009C46A646F3
S315080084604CF8045D90E8FF0FE54600BD90EC210B43
S31508008470704700BF80EC210B704700BF90EC200BC3
S31508008480704700BF80EC200B704700BFD0EC200B74
S31508008490704700BFC0EC200B704700BFF0EC02012C
S315080084A0F0EC0211F0EC0221F0EC0231F0EC0241A2
S315080084B0F0EC0251F0EC0261F0EC0271F0EC028192
S315080084C0F0EC0291F0EC02A1F0EC02B1F0EC02C182
S315080084D0F0EC02D1F0EC02E1F0EC02F1704700BFDB
S315080084E0E0EC0201E0EC0211E0EC0221E0EC0231E2
S315080084F0E0EC0241E0EC0251E0EC0261E0EC0271D2
S31508008500E0EC0281E0EC0291E0EC02A1E0EC02B1C1
S31508008510E0EC02C1E0EC02D1E0EC02E1E0EC02F1B1
S31508008520704700BFB0FC0181B0FC0191B0FC01A10D
S31508008530B0FC01B1704700BFA0FC0181A0FC01910D
S31508008540A0FC01A1A0FC01B1704700BFEC4600B534
S315080085502DE900502DE9FF1F4FF000032DE90C000F
S3150800856001A978F0DDF8DDF840E012B0704700BFE9
S31508008570EC4600B52DE900502DE9FF1F4FF000032A
S315080085802DE90C0001A978F007F9DDF840E012B0F2
S31508008590704700BFEC4600B52DE900502DE9FF1FD6
S315080085A04FF000032DE90C0001A978F015F9DDF864
S315080085B040E012B0704700BFEC4600B52DE9005008
S315080085C02DE9FF1F4FF000032DE90C0001AB78F0F1
S315080085D0DBF8DDF840E012B0704700BFEC4600B5A6
S315080085E02DE900502DE9FF1F4FF000032DE90C007F
S315080085F001AA78F045F9DDF840E012B0704700BFEF
S3150800860081F0004102E000BF83F0004330B54FEA35
S3150800861041044FEA430594EA050F08BF90EA020FA2
S315080086201FBF54EA000C55EA020C7FEA645C7FEA35
S31508008630655C00F0E2804FEA5454D4EB5555B8BF58
S315080086406D420CDD2C4480EA020281EA030382EAC9
S31508008650000083EA010180EA020281EA0303362D5B
S3150800866088BF30BD11F0004F4FEA01314FF4801C2E
S315080086704CEA113102D0404261EB410113F0004F40
S315080086804FEA03334CEA133302D0524263EB4303F7
S3150800869094EA050F00F0A780A4F10104D5F1200E95
S315080086A00DDB02FA0EFC22FA05F2801841F10001F0
S315080086B003FA0EF2801843FA05F359410EE0A5F1C4
S315080086C020050EF1200E012A03FA0EFC28BF4CF0F5
S315080086D0020C43FA05F3C01851EBE37101F00045AB
S315080086E007D54FF0000EDCF1000C7EEB00006EEBB8
S315080086F00101B1F5801F1BD3B1F5001F0CD3490842
S315080087005FEA30004FEA3C0C04F101044FEA445298
S3150800871012F5800F80F09A80BCF1004F08BF5FEA1F
S31508008720500C50F1000041EB045141EA050130BDFF
S315080087305FEA4C0C404141EB0101013C28BFB1F511
S31508008740801FE9D291F0000F04BF01460020B1FA5C
S3150800875081F308BF2033A3F10B03B3F120020CDA2F
S315080087600C3208DD02F1140CC2F10C0201FA0CF00D
S3150800877021FA02F10CE002F11402D8BFC2F1200C72
S3150800878001FA02F120FA0CFCDCBF41EA0C01904028
S31508008790E41AA2BF01EB0451294330BD6FEA040471
S315080087A01F3C1CDA0C340EDC04F11404C4F120025C
S315080087B020FA04F001FA02F340EA030021FA04F36E
S315080087C045EA030130BDC4F10C04C4F1200220FAC5
S315080087D002F001FA04F340EA0300294630BD21FA03
S315080087E004F0294630BD94F0000F83F4801306BFC9
S315080087F081F480110134013D4EE77FEA645C18BFBD
S315080088007FEA655C29D094EA050F08BF90EA020F53
S3150800881005D054EA000C04BF1946104630BD91EA4B
S31508008820030F1EBF0021002030BD5FEA545C05D14E
S315080088304000494128BF41F0004130BD14F580048D
S315080088403CBF01F5801130BD01F0004545F0FE4101
S3150800885041F470014FF0000030BD7FEA645C1ABF36
S31508008860194610467FEA655C1CBF0B46024650EA6D
S31508008870013406BF52EA033591EA030F41F4002199
S3150800888030BD00BF90F0000F04BF0021704730B51F
S315080088904FF4806404F132044FF000054FF00001F4
S315080088A050E700BF90F0000F04BF0021704730B5B5
S315080088B04FF4806404F1320410F0004548BF40428A
S315080088C04FF000013EE700BF42004FEAE2014FEADF
S315080088D031014FEA02701FBF12F07F4393F07F4FBA
S315080088E081F06051704732F07F4208BF704793F0BD
S315080088F07F4F04BF41F40021704730B54FF46074D0
S3150800890001F0004521F000411CE700BF50EA0102D2
S3150800891008BF704730B54FF000050AE050EA01027B
S3150800892008BF704730B511F0004502D5404261EBEB
S3150800893041014FF4806404F132045FEA915C3FF42C
S31508008940D8AE4FF003025FEADC0C18BF03325FEAC9
S31508008950DC0C18BF033202EBDC02C2F1200300FA7A
S3150800896003FC20FA02F001FA03FE40EA0E0021FA9F
S3150800897002F11444BDE600BF70B54FF0FF0C4CF48D
S31508008980E06C1CEA11541DBF1CEA135594EA0C0F3F
S3150800899095EA0C0F00F0DEF82C4481EA030621EA7A
S315080089A04C5123EA4C5350EA013518BF52EA0335B5
S315080089B041F4801143F4801338D0A0FB02CE4FF067
S315080089C00005E1FB02E506F00042E0FB03E54FF097
S315080089D00006E1FB03569CF0000F18BF4EF0010E8F
S315080089E0A4F1FF04B6F5007F64F5407404D25FEA8B
S315080089F04E0E6D4146EB060642EAC62141EA55513E
S31508008A004FEAC52040EA5E504FEACE2EB4F1FD0C7F
S31508008A1088BFBCF5E06F1ED8BEF1004F08BF5FEAFD
S31508008A20500E50F1000041EB045170BD06F00046AF
S31508008A3046EA010140EA020081EA0301B4EB5C045C
S31508008A40C2BFD4EB0C0541EA045170BD41F4801154
S31508008A504FF0000E013C00F3AB8014F1360FDEBF79
S31508008A60002001F0004170BDC4F10004203C35DA55
S31508008A700C341BDC04F11404C4F1200500FA05F3D8
S31508008A8020FA04F001FA05F240EA020001F0004279
S31508008A9021F0004110EBD37021FA04F642EB0601EF
S31508008AA05EEA430E08BF20EAD37070BDC4F10C0419
S31508008AB0C4F1200500FA04F320FA05F001FA04F2DD
S31508008AC040EA020001F0004110EBD37041F10001C9
S31508008AD05EEA430E08BF20EAD37070BDC4F12005D4
S31508008AE000FA05F24EEA020E20FA04F301FA05F23C
S31508008AF043EA020321FA04F001F0004121FA04F2E4
S31508008B0020EA020000EBD3705EEA430E08BF20EAB3
S31508008B10D37070BD94F0000F0FD101F000464000ED
S31508008B2041EB010111F4801F08BF013CF7D041EA6F
S31508008B30060195F0000F18BF704703F00046520073
S31508008B4043EB030313F4801F08BF013DF7D043EA44
S31508008B500603704794EA0C0F0CEA135518BF95EAFA
S31508008B600C0F0CD050EA410618BF52EA4306D1D181
S31508008B7081EA030101F000414FF0000070BD50EAA0
S31508008B80410606BF1046194652EA430619D094EA2A
S31508008B900C0F02D150EA013613D195EA0C0F05D114
S31508008BA052EA03361CBF104619460AD181EA030168
S31508008BB001F0004141F0FE4141F470014FF0000020
S31508008BC070BD41F0FE4141F4780170BD70B54FF0BB
S31508008BD0FF0C4CF4E06C1CEA11541DBF1CEA13553B
S31508008BE094EA0C0F95EA0C0F00F0A7F8A4EB05041D
S31508008BF081EA030E52EA03354FEA013100F0888014
S31508008C004FEA03334FF0805545EA131343EA1263DC
S31508008C104FEA022245EA111545EA10654FEA002691
S31508008C200EF000419D4208BF964244F1FD0404F54A
S31508008C30407402D25B084FEA3202B61A65EB0305A6
S31508008C405B084FEA32024FF480104FF4002CB6EB63
S31508008C50020E75EB030E22BFB61A754640EA0C00E3
S31508008C605B084FEA3202B6EB020E75EB030E22BF23
S31508008C70B61A754640EA5C005B084FEA3202B6EB64
S31508008C80020E75EB030E22BFB61A754640EA9C0023
S31508008C905B084FEA3202B6EB020E75EB030E22BFF3
S31508008CA0B61A754640EADC0055EA060E18D04FEAB1
S31508008CB0051545EA16754FEA06164FEAC30343EA51
S31508008CC052734FEAC2025FEA1C1CC0D111F4801F1E
S31508008CD00BD141EA00014FF000004FF0004CB6E717
S31508008CE011F4801F04BF01430020B4F1FD0C88BFB6
S31508008CF0BCF5E06F3FF6AFAEB5EB030C04BFB6EBC1
S31508008D00020C5FEA500C50F1000041EB045170BDB3
S31508008D100EF0004E4EEA113114EB5C04C2BFD4EBE0
S31508008D200C0541EA045170BD41F480114FF0000E64
S31508008D30013C90E645EA060E8DE60CEA135594EAE0
S31508008D400C0F08BF95EA0C0F3FF43BAF94EA0C0FE3
S31508008D500AD150EA01347FF434AF95EA0C0F7FF458
S31508008D6025AF104619462CE795EA0C0F06D152EAAC
S31508008D7003353FF4FDAE1046194622E750EA410690
S31508008D8018BF52EA43067FF4C5AE50EA41047FF4A1
S31508008D900DAF52EA43057FF4EBAE12E74FF0FF3C06
S31508008DA006E000BF4FF0010C02E000BF4FF0010CD7
S31508008DB04DF804CD4FEA410C7FEA6C5C4FEA430C50
S31508008DC018BF7FEA6C5C1BD001B050EA410C0CBF9F
S31508008DD052EA430C91EA030F02BF90EA020F002001
S31508008DE0704710F1000F91EA030F58BF994208BF68
S31508008DF090422CBFD8176FEAE37040F00100704725
S31508008E004FEA410C7FEA6C5C02D150EA013C07D17B
S31508008E104FEA430C7FEA6C5CD6D152EA033CD3D0C6
S31508008E205DF8040B704700BF8446104662468C46C0
S31508008E301946634600E000BF01B5FFF7B7FF0028F3
S31508008E4048BF10F1000F01BD4DF808EDFFF7F4FF1C
S31508008E500CBF012000205DF808FB00BF4DF808EDA7
S31508008E60FFF7EAFF34BF012000205DF808FB00BFCA
S31508008E704DF808EDFFF7E0FF94BF012000205DF8EC
S31508008E8008FB00BF4DF808EDFFF7CEFF94BF0120A1
S31508008E9000205DF808FB00BF4DF808EDFFF7C4FF9A
S31508008EA034BF012000205DF808FB00BF4FEA410CE3
S31508008EB07FEA6C5C02D150EA013C0AD14FEA430CC6
S31508008EC07FEA6C5C02D152EA033C02D14FF0000003
S31508008ED070474FF0010070474FEA410212F5001241
S31508008EE015D211D56FF47873B3EB625212D94FEAE3
S31508008EF0C12343F0004343EA505311F0004F23FACD
S31508008F0002F018BF404270474FF00000704750EA21
S31508008F10013005D111F0004008BF6FF000407047DE
S31508008F204FF00000704700BF4FEA4102B2F1E0433C
S31508008F3024BFB3F5001CDCF1FE5C0DD901F0004C32
S31508008F404FEAC0024CEA5070B2F1004F40EB830082
S31508008F5008BF20F00100704711F0804F21D113F1AE
S31508008F603872BCBF01F00040704741F480114FEAE7
S31508008F705252C2F11802C2F1200C10FA0CF320FA70
S31508008F8002F018BF40F001004FEAC1234FEAD3238D
S31508008F9003FA0CFC40EA0C0023FA02F34FEA4303F7
S31508008FA0CCE77FEA625307D150EA01331EBF4FF080
S31508008FB0FE4040F44000704701F0004040F0FE409B
S31508008FC040F40000704700BF80F0004002E000BF98
S31508008FD081F0004142001FBF5FEA410392EA030F96
S31508008FE07FEA226C7FEA236C6AD04FEA1262D2EBE0
S31508008FF01363C1BFD218414048404140B8BF5B42E5
S31508009000192B88BF704710F0004F40F4000020F07D
S315080090107F4018BF404211F0004F41F4000121F093
S315080090207F4118BF494292EA030F3FD0A2F10102DD
S3150800903041FA03FC10EB0C00C3F1200301FA03F11B
S3150800904000F0004302D5494260EB4000B0F5000F3E
S3150800905013D3B0F1807F06D340084FEA310102F1FD
S315080090600102FE2A51D2B1F1004F40EBC25008BFAF
S3150800907020F0010040EA03007047490040EB000079
S31508009080013A28BFB0F5000FEDD2B0FA80FCACF17A
S31508009090080CB2EB0C0200FA0CF0AABF00EBC250A7
S315080090A052421843BCBFD0401843704792F0000F95
S315080090B081F4000106BF80F400000132013BB5E7E8
S315080090C04FEA41037FEA226C18BF7FEA236C21D05E
S315080090D092EA030F04D092F0000F08BF08467047C3
S315080090E090EA010F1CBF0020704712F07F4F04D191
S315080090F0400028BF40F00040704712F100723CBFA4
S3150800910000F50000704700F0004343F0FE4040F4CD
S31508009110000070477FEA226216BF08467FEA23638B
S315080091200146420206BF5FEA412390EA010F40F476
S31508009130800070474FF0000304E000BF10F00043C2
S3150800914048BF40425FEA000C08BF704743F09643A9
S3150800915001464FF000001CE050EA010208BF7047C4
S315080091604FF000030AE000BF50EA010208BF70474B
S3150800917011F0004302D5404261EB41015FEA010C60
S3150800918002BF84460146002043F0B64308BFA3F158
S315080091908053A3F50003BCFA8CF2083AA3EBC2533A
S315080091A010DB01FA02FC634400FA02FCC2F1200259
S315080091B0BCF1004F20FA02F243EB020008BF20F090
S315080091C00100704702F1200201FA02FCC2F12002F6
S315080091D050EA4C0021FA02F243EB020008BF20EAEB
S315080091E0DC7070477BB972B90029BEBF00204FF00A
S315080091F0004106E008BF00281CBF6FF000414FF091
S31508009200FF3000F057B8ADF1080C6DE904CE00291F
S3150800921009DB002B1ADB78F00DF9DDF804E0DDE94F
S31508009220022304B07047404261EB4101002B1BDB6F
S3150800923078F000F9DDF804E0DDE9022304B04042E5
S3150800924061EB4101524263EB43037047524263EBC1
S31508009250430378F0EFF8DDF804E0DDE9022304B013
S31508009260404261EB41017047524263EB430378F099
S31508009270E1F8DDF804E0DDE9022304B0524263EBCD
S315080092804303704753B94AB9002908BF00281CBFD1
S315080092904FF0FF314FF0FF3000F00CB8ADF1080C7D
S315080092A06DE904CE78F0C6F8DDF804E0DDE90223BE
S315080092B004B07047704700BF2DE9F04F2DED108AB6
S315080092C0C1F80CD0C3689D46BDEC108ABDE8F08F86
S315080092D007F054FC002383F311882846A047002092
S315080092E008F03AFFFEE707F0DDFD08F0ADFE07F0EF
S315080092F045FC00DFFEE710F8012B11F8013B012AB7
S3150800930028BF9A42F7D0D01A7047034613F8012BA4
S31508009310002AFBD1181A0138704700000000000027
S3150800932070B586B00C4611461A46114B0093054691
S3150800933074B1631ECDE9010300266846CDE90366CC
S315080093400CF0ACFB039BA34200D2EE5406B070BDF2
S315080093509FED057B019068468DED027B04940CF029
S315080093609DFB06B070BD00BF0000000000000000B5
S31508009370D8200808000000002DE9F04759EC108BAA
S315080093803D4B002240464946FFF77CFD002867D042
S3150800939035A5D5E90045384F4FF0000A00260CE000
S315080093A0FFF714FC8046894632463B464046494606
S315080093B00AF1050AFFF766FDE8B1494622462B463B
S315080093C04046FFF75FFD844622462B4640464946FF
S315080093D0BCF1000FE4D132463B46FFF7F7FB804667
S315080093E0894632463B46404649460AF1010AFFF796
S315080093F049FD0028E1D1214B002240464946FFF7A6
S315080094002DFD50B31AA5D5E9004517A7D7E900677A
S315080094100CE0FFF7B1FAAAF1050A80468946174B10
S31508009420002240464946FFF719FDB0B14946224693
S315080094302B464046FFF712FD844632463B464046D9
S315080094404946BCF1000FE4D10B4B0022FFF794FA12
S315080094500AF1FF3A80468946E1E75046BDE8F087BB
S315080094608246C8E7AFF3008000000000006AF840B3
S3150800947000000080B5F8E43E000024400000F03FFC
S315080094802DE9F047B0F1000A2D4D4FF0000426DD16
S3150800949029A7D7E90067DFF8AC904FF00008BAF1C2
S315080094A0040F2046294632463B460CDDFFF764FA90
S315080094B0AAF1050A04460D46BAF1000FEFD145ECAC
S315080094C0104BBDE8F08742464B46FFF755FA0AF1BE
S315080094D0FF3A04460D46BAF1000FE0D1EFE7EED0A9
S315080094E015A7D7E900671AF1040FDFF858904FF06F
S315080094F000082046294632463B460FDAFFF766FB48
S315080095000AF1050A04460D46BAF1000FD7D01AF13A
S31508009510040F2046294632463B46EFDB42464B4679
S31508009520FFF754FB0AF1010A04460D46BAF1000F8B
S31508009530EDD1C4E7AFF3008000000000006AF840F0
S315080095400000F03F0000244070B5C66984B00446A8
S3150800955030460D4614F084FA204613F073FF204671
S3150800956013F0BEFF9FED087B0346294630460724C5
S315080095706A468DED027B8DF80040019314F0FCFAE3
S3150800958004B070BDAFF30080FFFFFFFFFFFFFFFFD2
S315080095902DE9F04FC768C669D0F804802DED028B17
S315080095A0282F87B004460D4672D040F223139F42F7
S315080095B040F0858014F068FD9FED438B4FF0070A55
S315080095C04FF00809E3683A2B14D008DD5B2B51D01D
S315080095D05A2B40DC07B0BDEC028BBDE8F08F282B78
S315080095E03ED02E2BF6D129462046FFF7ADFFE3687D
S315080095F03A2BEAD1204613F025FF204613F070FFD8
S315080096002946039030468DED048B8DF808A014F09A
S3150800961005FA2B78D5F804B0082B4BD096F8347099
S315080096206F600221304685F8009012F0A1FFBA1C3F
S3150800963002A986F834205B4600913A461421304642
S3150800964014F028FA9DF80830082B0DD103993046F6
S3150800965072F0F0FA08E07B2B02D0B3F5927FB9D10D
S315080096602946304614F0BCF942462946204615F0EC
S3150800967063FBA7E72946304614F0F2F902A920460B
S3150800968014F0E2FB02AA2946304614F075FA99E767
S3150800969013F0D8FE29460022204615F061FF204621
S315080096A043463A46292113F0F1FEE069294613F0AC
S315080096B0A7FF81E75946304672F0BCFAAEE704497F
S315080096C012F0EEFEAFF30080FFFFFFFFFFFFFFFF84
S315080096D0C02E0808000000000F4A02F5805303F563
S315080096E0136C00219FED0A7BCCF8001003F63C1C96
S315080096F0002002F5CA5282ED007BC3F82C09C3F894
S315080097003809CCF80010C3F848097047AFF3008051
S31508009710000000000000000000000010000000002B
S3150800972030B5012285B00C21044612F079F8E0B173
S315080097309FED117B0246124B043280ED017B0260DD
S315080097400FCB6D4685E80F000E4B0F491A68204669
S315080097500FF0C2FA00222946204621F017FE2046BD
S315080097606DF05CFC012005B030BD20460FF062FAB2
S31508009770012005B030BD00BF00000000000000F069
S31508009780901C080854AC0020D8B9F0FF000000006F
S315080097902DE9F04F2DED048B03689DB0DB689847E3
S315080097A0002800F091850368A94ADB68934283463E
S315080097B040F086850BF10D030693A64BDFF8C8A289
S315080097C098699FEDA58ADFEDA58A43F08BF97F2876
S315080097D09FED9D9B0BF10C0540F3F280DBF8003002
S315080097E058461B6998470446002800F0B185DAF800
S315080097F020300133CAF82030DBF8003001225E68D9
S315080098000DF123014FF47A735846B047012840F00A
S315080098101E859DF82330542B15D8452B16D9463B63
S315080098200E2B13D8DFE813F0DB001200120012002B
S315080098301200120012001200120012001200D300C9
S315080098401200D300EF00742B00F0DD80DBF8003047
S3150800985001225E6809A90A235846B047012840F044
S3150800986064859DF823309DF8246046EA032637462A
S315080098709BF8303436B207F10409002F00F0F38460
S3150800988040F21E41894500F3EE84DBF80010D1F85A
S315080098900480002B00F0AA834FF47A734A462946BF
S315080098A05846C04781459BF80C8040F033874046B0
S315080098B03EF0D0F88146002800F05187AB59324671
S315080098C0002128461EBA65F0EFFF864240F0D58390
S315080098D001238BF8303424205EF04CFF022F9BF8CE
S315080098E00C3040F3A083042FBBF80D6040F39E8331
S315080098F0BBF80F90A3F138023C2A3ED8DFE812F0F5
S315080099005A0307033D003D003D003D003D003D0074
S315080099103D00FC02CD02C8023D009C023D0011023A
S315080099203D003D003D003D0003023D003D00550160
S315080099303D003D002D011F0187003D00F001E201B9
S315080099403D003D0086013D003D003D003D006301B0
S315080099503D003D0007013D003D00F2003D003D0091
S315080099603D003D003D00C6008E003D003D003D0027
S315080099703D003D003D003D00870083215846059384
S3150800998067F078F8059B364A3648009350210CF064
S31508009990EFFADBF82C04334971F0DCFD24205EF085
S315080099A0F1FE31484246414644F0E6F800242F4B82
S315080099B01C70284B986943F095F87F283FF70EAF3F
S315080099C02B4A2C4941F6F42057F028FEEEE72A48A0
S315080099D044F0D2F80021584667F02EF8E7E7DBF89E
S315080099E02C14264A264844F0C7F8DBF800302549E7
S315080099F01E68584600230322B047DBF80030584655
S31508009A009B689847D3E758463FF03CF9CFE7584656
S31508009A103FF038F924205EF0B5FEC8E79BF80D3014
S31508009A20022B00F07884032B00F05584012BB5D166
S31508009A3063F0C8FF584640F0F1FA24205EF0A2FE13
S31508009A40B5E700BFAFF30080D2CED9B3000000005F
S31508009A50514C0208049D00200024744900007A44F1
S31508009A609CC00808A04E0120C8C008080619022094
S31508009A70D4B908089C9A080860BD080880BD08087B
S31508009A80B0AC080890BD0808684F0120DAF818300D
S31508009A905A46013349463046CAF8183040F0CAFAE1
S31508009AA00746002840F0F18301464022C64877F071
S31508009AB03CFEC6484A463946304465F0F5FE00BACB
S31508009AC00C900CAA584600970423012140F058FA36
S31508009AD00C9BBF484A46314644F04EF824205EF0B7
S31508009AE051FE64E7BB4BBC4E1A78BC4B002A18BF24
S31508009AF01E463046FFF709FC012103463246584602
S31508009B00009140F03DFA24205EF03CFE4FE701212B
S31508009B10B348B44FB44E0091002302683B70C0E9C5
S31508009B200033336058464FF400530C9240F028FA3D
S31508009B300CA871F08FFD24205EF024FE37E7AB4AAF
S31508009B40DBF82C14AA4844F017F85846012166F0A9
S31508009B5073FF24205EF016FE29E7DAF80830A548D8
S31508009B600133CAF8083032464B46002144F004F85F
S31508009B705A464946304640F05DFA0746002840F006
S31508009B806F829D4BB3F81A2D002A40F0D483083310
S31508009B901E444B463246002100915846012140F0AA
S31508009BA0EFF924205EF0EEFD01E7012F934814BF7C
S31508009BB04B464FF4E563324659463FF015F92420E3
S31508009BC05EF0E0FDF3E68E4B1B78002B40F06A83CF
S31508009BD08C490B68002B40F0438302228A4E0A60A8
S31508009BE07F4B186808B100200860C3E900620CA81A
S31508009BF000230C9371F02EFD7A4B584601221A70F9
S31508009C0040F00CFA24205EF0BDFDD0E6BBF80D80CE
S31508009C10BBF80F707D487FBA98FA98F6B6B2BFB20D
S31508009C203A46314643F0A8FF794854F00DFE202EF7
S31508009C3000F2FF81202E00F2988301A353F826F044
S31508009C407DA300086BA300086BA300086BA300089C
S31508009C506BA300086BA300086BA300086BA300089E
S31508009C606BA300086BA300086BA300086BA300088E
S31508009C706BA300086BA300086BA300086BA300087E
S31508009C806BA3000887A3000891A30008CFA30008C8
S31508009C908DA40008FDA4000807A500086BA300080A
S31508009CA06BA3000811A500086BA300086BA30008A6
S31508009CB06BA30008359A00082FA500083FA50008E1
S31508009CC04FA5000831460BF10F030122584666F0EE
S31508009CD001FF504843F00AFC24205EF053FD66E677
S31508009CE05DF0ACF90DF130094B4B4C4A0090202140
S31508009CF08DED029B48460CF03BF94846FFF705FBFD
S31508009D004A46431C47E70123002200925846194653
S31508009D100CAA8DF8303040F033F924205EF032FD7D
S31508009D2045E6DAF824303E4E334FB26A0133CAF8B4
S31508009D302430D7F8AC359A4280F0E98143F096FB97
S31508009D40D6E90C3253EA020640F0C681354E33682E
S31508009D50032B00F0ED813448B0EE480A45F03CFB91
S31508009D60002840F0F681314E314809F047FD336846
S31508009D70304A03F580510020C1F864391168136030
S31508009D8018702B48316009F0CBFD326802F5805314
S31508009D90D3F864691378B61A2BB1134613F8011F62
S31508009DA00029FBD19B1A9E4240F0D782DBF80010AF
S31508009DB001200090334658468E690021B04724207A
S31508009DC05EF0E0FCF3E500BFC6760010A06900105F
S31508009DD054BF0808F1180220CC2D0120F04E0120AE
S31508009DE04C4E012001190220442E0120CCBE080841
S31508009DF0B0AC0808B0BF08089869001058170020CA
S31508009E0002190220484E0120482E01203CC00808AD
S31508009E10D8340010C01F0020E0BE0808E8BE0808B5
S31508009E20483800208C4E012040380020501700206A
S31508009E30904E01205417002006980744002307F87F
S31508009E40013C9BF80D30202B40F0788410F8013F38
S31508009E50202BFBD07BB1034613F8012F002AFBD138
S31508009E60191A002903DC06E083421A7003D013F896
S31508009E70011D2029F8D08D4B1B68984700235846AA
S31508009E801A46194640F00EF824205EF07BFC8EE553
S31508009E904A4631460BF1110318E70DF130094846D9
S31508009EA043F024FBDAF80C3081480133CAF80C3049
S31508009EB043F062FE5CF01EF97E48B0EE480A45F0B3
S31508009EC08BFA002840F0F48100231A4604215846EC
S31508009ED03FF0E8FF484643F04BFB60EE287A17EE62
S31508009EE0900AFEF7F1FC02460B46734843F044FE1F
S31508009EF024205EF047FC5AE570484FF4E5630022DB
S31508009F0059463EF071FF24205EF03CFC4FE56C4E4E
S31508009F10002206F140083146012031F8023F5B0B6A
S31508009F201CBF03F1FF3300FA03F341451A44F4D189
S31508009F30002158463EF03EFD0DF1300907460594CE
S31508009F40079536F8023F5C0B1DD00122013C02FA48
S31508009F5004F45C4A0A9226220B9200940AAA06CABC
S31508009F60C3F30C03484665F011FFDBF800302246C0
S31508009F701D68494600235846A8473946224648469A
S31508009F8065F092FC07464645DBD1DBF80030059CB8
S31508009F901E68079D3FBA4946042258460C97012376
S31508009FA0B047DBF8003058469B68984724205EF097
S31508009FB0E9FBFCE4444B1B78002B00F0768100207B
S31508009FC063F0AAFD064600284FD0D0F8E4340121F4
S31508009FD0024603EB8303009158463FF0D1FF304613
S31508009FE063F0CAFD24205EF0CDFBE0E402460A23B6
S31508009FF029465846C0479BF80C8040463DF02AFD46
S3150800A00000283FF4D3ACDBF800300699D3F8049067
S3150800A010F21C05924FF47A735846C847059A82424D
S3150800A0203FF44CACC2E40026B14663E44FF00009A5
S3150800A03060E4B8F53A4F00F09083BA2E09D9B8F51E
S3150800A0403B4F00F03C85B8F53C4F40F08E8142F01E
S3150800A05029FDB8F5F24F40F088815DF025F8E9E46E
S3150800A060DBF82C04194971F075FA5846842166F014
S3150800A07001FD24205EF086FB99E49BF83034002B22
S3150800A0803FF494AC334602469BF80C10104843F054
S3150800A09073FD1049DBF82C0471F05CFA82215846EE
S3150800A0A066F0E8FC00238BF830347FE4784E012014
S3150800A0B088BF08083835001098BF080858170020C8
S3150800A0C0C47600105CF5002002190220E4BF0808D7
S3150800A0D080BE0808B8BE0808C01A61EB02010A1E4D
S3150800A0E003DAC31C184642F100028308D7F8AC15F8
S3150800A0F0C64800FB01F1C648A0FB010143EA82738A
S3150800A10009099210002099429041BFF61FAEC14935
S3150800A110C14843F0FDFCC14B93F84836002B40F08C
S3150800A120F680BF4E02F0D8FA3368032B7FF413AEDD
S3150800A130B849BC4843F0ECFCBA4844F021FF012377
S3150800A140B9483360B0EE480A45F046F900283FF4AE
S3150800A1500AAEB54843F0CAF93B89692B96BFB34A9C
S3150800A1604FF0000852F823805CF068FF064643F07B
S3150800A1701FFAA64A0023FFF735F83146CDE90080D5
S3150800A180AB4BAC4AAC4843F0F7FCB7F8EC120129E4
S3150800A19002D9AA4865F06CFBB7F8EE12012902D974
S3150800A1A0A74865F065FBA74EDFF8D88206F10809CF
S3150800A1B036F8021F012903D9D8F8000065F058FBC4
S3150800A1C0B14508F10408F3D1D7F8CC210C2A134677
S3150800A1D0A8BF0C23002A7FF7C6AD9B4F0594B94646
S3150800A1E03C469A4E4FF000081F4629E0718B01291C
S3150800A1F001D965F03DFBD4F85C0700284CD0B6F8C9
S3150800A2007614012901D965F033FBD9F83C030028F7
S3150800A21045D036F8021F012901D965F029FBD9F87E
S3150800A2208C04B0B3B6F82C1C012901D965F020FBC3
S3150800A23008F10108B84504F1200409F11C0948DAB7
S3150800A240D4F8DC050028D1D1D4F8E005CEE7804C57
S3150800A250A34500F0938100238BF83034FFF7A6BBA3
S3150800A26000221646BCE4002BF5D0DBF82C147948FE
S3150800A2703A4643F081FCDBF82C04774971F06AF919
S3150800A2808421584666F0F6FBE5E7DBF82C047349AB
S3150800A290E9E6D9F89004C5E7D4F86007AFE7D9F836
S3150800A2A04003B6E763F00AFC92E463F08BFB86E6AC
S3150800A2B038F078FE6A483CF045FA59F0B9FB03E6EF
S3150800A2C0984700287FF476AA1DB0BDEC048BBDE83C
S3150800A2D0F08F059C47E5002063F01EFC0646002823
S3150800A2E000F02F82D0F8E4340121024603EB830301
S3150800A2F0009158463FF044FE304663F03DFC584610
S3150800A3003FF08CFE24205EF03DFAFFF750BB424832
S3150800A31044F036FE05E763F0D1FB58463FF07EFE73
S3150800A32024205EF02FFAFFF742BB4E49DBF82C04D7
S3150800A33071F010F98FE74C4940F25E200BF10F06D9
S3150800A34057F06CF939464A46304677F0EEF920E47C
S3150800A3500A2007F029FFFFF729BB3246434941F691
S3150800A360861057F05BF9002220E541493B46324604
S3150800A37040F25E2057F052F9FFF75CBB3D4B83F87D
S3150800A3806E76FFF757BB3C4B00221A60FFF752BBAD
S3150800A39000283FF44FAB374BDFED380AB3F8B62D3C
S3150800A3A09FED370AD3F8C41D07EE902AB3F8962610
S3150800A3B0F8EEE77A384667EEA00A07EE902AF8EE36
S3150800A3C0E77A27EE800A59F091FBFFF733BB00289E
S3150800A3D03FF430AB274BDFED290AB3F8B62D9FEDD6
S3150800A3E0280AD3F8C41D07EE902AB3F89626F8EE85
S3150800A3F0E77A384667EEA00A07EE902AF8EEE77A7B
S3150800A40027EE800A59F020FBFFF714BB40420F00E5
S3150800A410CDCCCCCC6C8A09085038002000600010DE
S3150800A4208C4E01207C4E01204038002024DA080892
S3150800A430F4BE0808D2CED9B3FCBE08083C1C0A08EC
S3150800A440441C0A08DA6B00101CA10020226C0010BC
S3150800A450AC540120B0BD0808E0BD08083CBF080898
S3150800A46098AC080894BD0808FCBF08081CBF080873
S3150800A47078C0080898690010544E0120CDCCCC3D10
S3150800A4800AD7233C14DA080800007A44BB1F172BA6
S3150800A49000F2AB8101A252F823F000BFFBA8000826
S3150800A4A0B9A80008359A0008EBA700082DA80008E7
S3150800A4B0EBA7000821A800086BA900085FA90008F7
S3150800A4C057A9000843A9000837A9000827A90008C2
S3150800A4D01FA9000813A90008D5A70008359A00087F
S3150800A4E0CBA70008C1A70008B7A70008ADA70008B2
S3150800A4F0A5A70008DFA7000899A70008F8B25AF030
S3150800A5003BF8FFF797BA384659F0D6FBFFF792BAE9
S3150800A51000283FF48FAA5FED240AC64B3846D3F8C5
S3150800A520C41DB0EE600A59F03BFBFFF783BAC24878
S3150800A53042F0DCFF384666F05FFAFFF77BBABE48A2
S3150800A54042F0D4FF632066F057FAFFF773BA002883
S3150800A5503FF470AAB74BDFEDB90AB3F8B62DD3F8B6
S3150800A560C41D07EE902AF8EEE77AB1EE000A67EE08
S3150800A570A00A384659F05AFBFFF75CBAB04B1B786D
S3150800A580002B3FF468AEDFF82C83AE4843F0F4FAAC
S3150800A59098F80030033B012B00F2ED802368AA48A7
S3150800A5A05E68012240F6B83309A9B0470646002876
S3150800A5B040F0EB80A44F06E0042B00F0DA81013668
S3150800A5C0072E00F0FE81236838465B6998470A2003
S3150800A5D007F0EAFD9D4B9E4853F83610894643F02E
S3150800A5E0CBFA23684946DB69384698470A2007F0BC
S3150800A5F0DBFD3846974966F0A9F938463EF04CFC2B
S3150800A60090B198F80030032BD6D13846924966F0B7
S3150800A6109DF938463EF040FC0028D0D18F4843F0DB
S3150800A620ABFA0A2007F0C0FD0DF1300998F80030A2
S3150800A6308B4F033B012B3E7040F2C7812368894A42
S3150800A6405B698148934240F0078240F0EDFD0A209D
S3150800A65007F0AAFD3A7823687C49DB6951F832107D
S3150800A660814A7948934240F0038266F013FB98F8D2
S3150800A6700030002B40F097817C4B7D4A40214846AC
S3150800A6800BF076FC7048494666F060F96E483EF075
S3150800A69003FC002840F0828198F80030032B00F074
S3150800A6A0AC80002B40F08681724B734A40214846A5
S3150800A6B00BF05EFC6448494666F048F962483EF08D
S3150800A6C0EBFB002840F06A816C4B98F800201B6869
S3150800A6D0002A40F0C3815D4A402152F83330684A67
S3150800A6E048460BF045FC5848494666F02FF9564847
S3150800A6F03EF0D2FB002840F0518198F80030033B29
S3150800A700012B40F2CB815F4843F036FA4C4A0023CE
S3150800A7101370A0E543464A4601465B4843F02CFAC7
S3150800A7205A49DBF82C0470F015FF8021584666F06C
S3150800A730A1F900238BF83034FFF738B90698FFF7EC
S3150800A74089BB8421584666F095F958463FF066FC61
S3150800A75024205EF017F8FFF72AB942F097F94C481B
S3150800A760414643F009FA8321584666F083F98BF887
S3150800A7703094FFF71BB9474843F0FEF9464843F0C3
S3150800A780FBF9464843F0F8F908E7454843F0F4F979
S3150800A7902B4A002313705EE50021012053F0A6FC26
S3150800A7A0FFF748B943F042FAFFF744B9042043F0EB
S3150800A7B02DFAFFF73FB9032043F028FAFFF73AB915
S3150800A7C0012043F023FAFFF735B9022043F01EFAB9
S3150800A7D0FFF730B9334B01221A70FFF72BB9002166
S3150800A7E0084653F083FCFFF725B92F493A4640F24D
S3150800A7F05E2056F013FFFFF71DB91C4B2B4A40216C
S3150800A80048460BF0B5FB1048494666F09FF80E48D7
S3150800A8103EF042FB002840F0C18098F8003040E73F
S3150800A820234B012283F8D024FFF704B955F0E0FA48
S3150800A830FFF700B99869001038350010CDCCCC3D2B
S3150800A84000190220E4B90808AC540120DCD908082C
S3150800A850A4BB0808BCBB0808C4BB0808D0BB0808CA
S3150800A860FE18022029B20408950C0708B42D012009
S3150800A87074BC0808AC2D0120A0BC08084C170020A1
S3150800A880BCBC080804BD080800BE080840BE080885
S3150800A89064BE080814BA080880BA0808D4BA0808B2
S3150800A8A050BB08080419022060C0080890BC0808B4
S3150800A8B000300010FF180220824F834ED7F8F800A8
S3150800A8C00D2386F8C83008B30368DB689847F0EEAE
S3150800A8D0407AD7F80401C6ED317A002800F0EC80FA
S3150800A8E00368DB689847F0EE407A784AC6ED667AE0
S3150800A8F0137801331370FFF79DB8724F724ED7F86D
S3150800A900F8000C2386F8C8300028DDD1DFED707A10
S3150800A910DFE7704B012283F8D124FFF78BB850F09C
S3150800A92073FDFFF787B86C4B6C4801221A7008F064
S3150800A9300FFFFFF77FB80121084653F0D7FBFFF753
S3150800A94079B8614B002283F8C82003F5405383F891
S3150800A950D024FFF76FB850F09BFCFFF76BB80121C6
S3150800A960002053F0C3FBFFF765B869F0D5FCFFF785
S3150800A97061B85B495B480DF1300965F0E7FF594856
S3150800A9801022494665F0F8FF09287FF418AE5648A4
S3150800A99043F0F2F80A2007F007FC47E65348494611
S3150800A9A043F0EAF8B2E6524B524A402148460BF0C9
S3150800A9B0DFFA67E6504B514A402148460BF0D8FA71
S3150800A9C078E64F4BFF221A70A0E64E49454865F0D7
S3150800A9D0BDFF40224946434865F0CEFF40494148FD
S3150800A9E065F0B4FF3F484022494665F0C5FF98F830
S3150800A9F00030032B48D044493A4865F0A7FF402267
S3150800AA004946384865F0B8FF4049364865F09EFF24
S3150800AA1034484022494665F0AFFF98F80030032BCA
S3150800AA2028D03B492F4865F091FF2E483EF034FA6E
S3150800AA3038492C4865F08AFF2A483EF02DFA98F8DE
S3150800AA400030032B7FF4FAAD2648334965F07EFFC4
S3150800AA5024483EF021FAF1E59847F8E52F4A02EB3B
S3150800AA60C30340211B792E4A48460BF081FA3AE681
S3150800AA709847FCE52B491B4865F068FF4022494684
S3150800AA80184865F079FFCCE72749164865F05EFF58
S3150800AA9040224946134865F06FFFACE71148234941
S3150800AAA065F054FF0F483EF0F7F900283FF42BAE47
S3150800AAB01F4843F061F826E6DFED057A15E741F011
S3150800AAC0D3FF00BF24AD00200000001003190220A8
S3150800AAD00000000000300010051902206C4E01200D
S3150800AAE0E8BB0808AC540120F4BB080840BD0808B8
S3150800AAF0B42D012084BC0808AC2D0120B0BC080880
S3150800AB00FE1802200CBC080828BC080834BC080833
S3150800AB104CBC08085CBC080868BC0808DCD90808EE
S3150800AB20D0BC080840BC08081CBC0808DCBC0808DF
S3150800AB30E8BC08080000000010B590F8E03090F86E
S3150800AB40DCC0154C83F0010363F3000C80F8DCC00D
S3150800AB504FF48C620021204676F0E7FD4FF4F07240
S3150800AB60002104F2644076F0E0FD0C4B9FED087B73
S3150800AB7003F5545203F5405003F580430021D9618B
S3150800AB801962002382ED027BC0F8D83910BD00BFD8
S3150800AB9000000000000000F07835001000000010EA
S3150800ABA09FED116BD0ED0F7A80ED030AB5EEC00A62
S3150800ABB00123F1EE10FA80ED066BC0ED097A80EDFF
S3150800ABC00F0A03720BD9DFED0A6A86EE807AF5EE74
S3150800ABD0407AF1EE10FA80ED0A7A03D07047054BF9
S3150800ABE0836270476CF020BE000000000000000081
S3150800ABF0ABC222480000C07FD0B5554C554E002741
S3150800AC00204632463B463F2170F010FD04F12800ED
S3150800AC1032463B46402170F009FD04F150003246A9
S3150800AC203B46412170F002FD04F1780032463B466E
S3150800AC30422170F0FBFC04F1A00032463B4643215A
S3150800AC4070F0F4FC04F1C80032463B46442170F02B
S3150800AC50EDFC04F1F00032463B46452170F0E6FC77
S3150800AC6004F58C7032463B46462170F0DFFC3A4BC1
S3150800AC703A49196047201871482083F8240049206A
S3150800AC8083F844004A209FED2E6B9FED2F7B83F8B7
S3150800AC9064004B2083F884004C20002283F8A4002B
S3150800ACA04D244E2083ED046B83ED0C6B83ED146B02
S3150800ACB083ED1C6B83ED246B83ED067B83ED0E7BA6
S3150800ACC083ED167B83ED1E7B83ED267B1A721A7342
S3150800ACD0196283F8282083F82C20196483F8482001
S3150800ACE083F84C20196683F8682083F86C20C3F82B
S3150800ACF0801083F8882083F88C20C3F8A01083F886
S3150800AD00A82083F8C44083F8E40083ED2C6B83ED18
S3150800AD102E7B83ED346B83ED3C6B83ED367B83EDC5
S3150800AD203E7B83F8AC20C3F8C010C3F8E01083F864
S3150800AD30C82083F8CC2083F8E82083F8EC20D0BD1F
S3150800AD40002D310100000000000000000000000096
S3150800AD5090230020400D0300F81A002050320A08FC
S3150800AD602DE9F04F2DED048B544891B0FDF760FBAB
S3150800AD7020B111B0BDEC048BBDE8F08F0125504918
S3150800AD8000950346462204464E4843F015FD4E48B4
S3150800AD90046141F045FC4D4B4D4A1B6813801B0C62
S3150800ADA093704C4B9D6301F097FC5DF0A7FB4A49F5
S3150800ADB04A4844F001F94A494A4844F0F9F84A49E8
S3150800ADC04A4844F0F5F84A494A4844F0F1F84A49ED
S3150800ADD04A4844F0EDF84A4B1D78002D40F065814D
S3150800ADE0484E494842F0C8FE31222946474876F07F
S3150800ADF09CFC96F8790162F075FA96F8A00562F05F
S3150800AE0071FA96F8DF0262F06DFA4149414844F05A
S3150800AE10D3F841486FF0BEFC40486FF0BBFC404A8F
S3150800AE204048536843F4000353606FF0B3FC3E4850
S3150800AE3090F83C33002B00F045833C4B9A689B6C9A
S3150800AE405380202383F3118806F02CF8384B1A78A0
S3150800AE50511E012900F21E8336495960012A1DD167
S3150800AE60354A3648116C41F010011164116E41F0F3
S3150800AE7010011166116E116A41F010011162116A12
S3150800AE8021F0100111622E49126A98604FF480026F
S3150800AE90702381F83633C1F884214A60244E254848
S3150800AEA0B1680268B1FBF2F3013B9BB203FB0222D5
S3150800AEB0914200F00F83234805F072FE581A0020CD
S3150800AEC00C250A080CA3002094AB012020250A08AB
S3150800AED0348E0120483800204185060824250A08B2
S3150800AEE0A95F060830250A080961050844250A08E5
S3150800AEF0C15A050850250A082164050864250A0868
S3150800AF00F1180220986900107C250A084882012059
S3150800AF10CDDD040894250A08449B0020209B0020C8
S3150800AF2000230140FC9A0020F8650020B42B01207C
S3150800AF30C4990020CC1800200038024000BD010545
S3150800AF4000E100E068330A08B3F5AA7FC1F04B8038
S3150800AF507BB9AF4BAF49B04AB048C3E902214FF4B9
S3150800AF60A271102219805A60AD4900221A6144F074
S3150800AF701FF8A74F264646B93B8833B1B868036819
S3150800AF801B689847031EC1F2CD820026A54FDFF83D
S3150800AF90C0830096B7F84220A3493346404643F09B
S3150800AFA00BFC0096B7F8D822A0493346A8F5867058
S3150800AFB043F002FC00963346B7F85A239C49A8F595
S3150800AFC0D47043F0F9FB9B499B4843F0F1FF9B4B38
S3150800AFD01E7097F89D35D90703D497F89C35DB0979
S3150800AFE048D0DFF84082B8F84410B8F8460041F077
S3150800AFF093FFB8F89C160746B8F89E0641F08CFFF2
S3150800B0000646002F01F09480874201F0FB8298F8EB
S3150800B0108836062B96BF8A4A8A4B52F82330814ACD
S3150800B020186892F890265968520608AB03C302D5E9
S3150800B03001F10043099308A9384606F095FF002E4A
S3150800B04041F07980804BC3E90076764B93F89D35BD
S3150800B050DB0706D5DFF8FC8298F8AC33002B01F045
S3150800B060DB82704B93F89C35DB0941F0B781734B53
S3150800B07001221A70754B1B7853B96A4BB3F8EC0268
S3150800B0803EF0F8FF002801F07F8171483EF052FC3F
S3150800B090644B93F81064F60941F0B9803FF0DCFC84
S3150800B0A03FF0EEFC6B4842F067FD6B496B4843F096
S3150800B0B087FF6B496B4843F07FFF5A4B93F8602331
S3150800B0C0120700F1D181614B197879B9554B664859
S3150800B0D01B89692B9CBF654A52F8231042F04CFD28
S3150800B0E050F0F2F86249634843F066FF624DDFF8B4
S3150800B0F0688205F580674FF0FF3629463246404696
S3150800B100203509F037F9AF42F7D15C485C4943F07E
S3150800B11057FF5C4800F5805595F8AC31002B00F0D8
S3150800B120C781594959485A4D43F04EFF59495A481B
S3150800B13043F03EFF59495A4843F03AFF95F85C36C2
S3150800B140002B00F0AA81574B5A68002A00F0BD81EF
S3150800B1505AF0D0FF00283FF40CAE5349534843F049
S3150800B16027FF5349534843F023FF5349534843F0B5
S3150800B1702FFF5349534843F023FF5349534843F09D
S3150800B1801FFF5349534843F01BFF5349534843F0A5
S3150800B19023FF5349534843F00FFF5349534843F09D
S3150800B1A00BFF5349534843F007FF5349534843F0AD
S3150800B1B003FF5349534843F003FF31F003FA52485B
S3150800B1C058F018FC514B5249524801221A6043F074
S3150800B1D0EFFE5149514843F0EBFE514A51480521CB
S3150800B1E06AF0E8F85049514843F0E2FE50495148A0
S3150800B1F043F0E2FE5049514843F0DEFE50495148BB
S3150800B20043F0E2FE5049514843F0DEFEA6E000BF97
S3150800B210182D0120DC250A0860940020E4250A0878
S3150800B22081D20608986900100C260A0814260A080E
S3150800B23020260A085DD306082C260A0807190220C4
S3150800B24030330A084C330A082C8E0120F1180220E4
S3150800B250D8340010C0260A088940060874250A084A
S3150800B260C1440608DCA60908D8260A0824DA08080C
S3150800B2708D9A0508DC3E0A08986F0020EC260A0815
S3150800B280154C020898730020DD690208C03E0808BC
S3150800B290508500202D4C0208FC260A08B15B0208DE
S3150800B2A008270A0888380020D953060814270A08E8
S3150800B2B08153060820270A08195606082C270A0863
S3150800B2C03555060838270A08E554060840270A08A7
S3150800B2D00D5506084C270A085D55060858270A081A
S3150800B2E05552060860270A08315206086C270A08CC
S3150800B2F0B151060874270A08D551060880270A0896
S3150800B300F95106088C270A08C82B00104C8E012014
S3150800B310BDED050894270A08290E0608B4270A0869
S3150800B320DDED0508C0270A083DF40508D8270A08F0
S3150800B33009100608E4270A0811100608F0270A0863
S3150800B3402DF40508FC270A0835F40508289109088C
S3150800B3503CA40020F8CD001004AB002077497848BB
S3150800B36043F036FE7749784843F02EFE7749784809
S3150800B37043F02EFE7749784843F02AFE7749784805
S3150800B38043F026FE7749784843F016FE7749784811
S3150800B39043F01AFE7749784843F016FE774978480D
S3150800B3A043F012FE7749784843F00EFE774978480D
S3150800B3B043F00AFE7749784843F0FAFD774978481A
S3150800B3C043F002FE7749784843F0F2FD774978481A
S3150800B3D043F0FEFD7749784843F0FAFD774B1B7832
S3150800B3E0002B00F00582764C764901250023482279
S3150800B3F02046009543F0E0F900234722724900955C
S3150800B40004F10C0043F0D8F9704B6C4A93F8A9354F
S3150800B4101278DB0700F1EF85684B1B780BBB6C488D
S3150800B420036141F0FDF8694BB3F8444520463EF008
S3150800B43021FE38B19FED670A674B6849684822467E
S3150800B44069F09AFD614BB3F8544520463EF012FE6A
S3150800B45038B19FED600A634B60496348224669F03C
S3150800B4608BFD37F08DFD84E493F87B27002A3FF4A3
S3150800B4702AAEB3F842003EF0FDFD00283FF423AEA5
S3150800B48000220092594B5A487F224FF4CA6108F0AD
S3150800B49083F818E6574805F083FB0123D5F85816B4
S3150800B4A085F85C3628463DF075FAC5F860064AE622
S3150800B4B00123D5F8A81185F8AC311AF041FBC5F877
S3150800B4C0B0012EE63EF066FCB7E44B4A11685960B7
S3150800B4D013603DE6D0E90201F26821F0FF0100277A
S3150800B4E017605060936217610223D160337005F0CC
S3150800B4F0EFFB202383F3118805F0D4FC05F09EFFAB
S3150800B5003378022B40F06C85032372683370F36836
S3150800B51052680921D962012159615F621F6112B11E
S3150800B520DA680A43DA6085221A6005F0D1FB3349E6
S3150800B5303348344E43F040FD012768E0ADF5050871
S3150800B5408026090841F40508BC410808CDEE05081F
S3150800B55004280A0819EF050818280A0865EF0508D7
S3150800B56030280A08C9F903084C280A08BDEE050858
S3150800B57054280A08ADEE050868280A08A9F005083F
S3150800B58078280A08B1F0050888280A08FDEF050892
S3150800B59098280A0865E70508A0280A08B9F00508E2
S3150800B5A0AC280A0851DD0408C4280A08351F06080D
S3150800B5B0D0280A08B1EF0508E8280A08F118022079
S3150800B5C018A30020CC2B0A08E02B0A08986900105B
S3150800B5D070AC012000401C460C190020002C0A08FB
S3150800B5E0E84C002018190020604D0020512B050852
S3150800B5F04869002078330A08FC1700204DDC040847
S3150800B600A0250A0824820120384606F0CDFD3368B5
S3150800B610012BF9D9694B93F81124170778D5D3ED7F
S3150800B620757ADFED676A9FED676A93F89C359FED3B
S3150800B630660A67EEA67AB6EE007A67EE877A180784
S3150800B64086EE277A614BDFED626AD3ED007A9FEDCD
S3150800B650616A27EE267AF4EEC67A48BF37EE077A8D
S3150800B660F1EE10FAD8BFF0EE477AF0EE046A27EE4C
S3150800B670A67AB4EEC07AF1EE10FA00F33D879FED94
S3150800B680507A554B67EE877A002287EE800A64F077
S3150800B690D9FB5A60B0EE087AC0EE076AF7EE004AA0
S3150800B6A036EEA45ABFEE007AA0EE005A74EEE65AB9
S3150800B6B084EE856AA0EE007AE0EE005A37EE077A45
S3150800B6C066EE866A67EE067A26EE256AB1EE667A31
S3150800B6D0C3ED006A83ED027AC3ED037A83ED046A4B
S3150800B6E0364B93F85B365907C3F3800600F18E860E
S3150800B6F03A480322562142F073FB39480322572160
S3150800B70042F06EFB374890F83C33002B00F0068772
S3150800B7102A4B93F86033DE0700F1DF85274B93F851
S3150800B72060339A0700F1D485244B93F860335B079E
S3150800B73000F1C985214B93F86333DF0700F1BE8515
S3150800B7401E4B93F859361E0700F1B3851B4B93F829
S3150800B7505936D80600F1A885184B93F8603F002B98
S3150800B7603FF407AC204E0F335B010022C6E92323C2
S3150800B77006F1A8000123142286F8A330C6F89420FF
S3150800B78041F0B4FEB369002B00F0AC85174A138864
S3150800B7905168194489B222460120002A7FF4D8ABA1
S3150800B7A0002B3FF4D6ABB3F5A27FBFF4CDABB1F512
S3150800B7B0A27F0246F1D9FFF7DCBB00BF98690010EB
S3150800B7C0DB0F494000006144809F55484C790010C2
S3150800B7D000007A440AD7233C886B0120C4250A084E
S3150800B7E0D0250A08B062002060940020182D012098
S3150800B7F0BC49BD4843F0DCFBBC4ABD48052169F09D
S3150800B800D9FDBC4ABC48102169F0D4FDBB4ABC48E6
S3150800B810112169F0CFFDBB4ABB48102169F0CAFD6A
S3150800B820BA4ABB48112169F0C5FDBA4ABA4811217E
S3150800B83069F0C0FDB949BA4843F0BAFBB949BA48F4
S3150800B84043F0B6FBB949BA4843F0B2FBB94ABA481D
S3150800B850052169F0AFFDB949B94843F0A9FBB949D3
S3150800B860B94843F0A5FBB949B94843F0A5FBB9491E
S3150800B870B94843F09DFBB949B94843F099FBB94922
S3150800B880B94843F095FBB949B94843F095FBB9481F
S3150800B890B94A112169F08EFDB84890F83C33002B5F
S3150800B8A000F02C84B64EA6F5BB6558F0C1FAB5482B
S3150800B8B0314642F02BF8B5F8CA023EF0DBFB68B118
S3150800B8C005F5DE6393ED000ADFEDAF0AAF4AB0492E
S3150800B8D0B048B8EEC00A002369F088FAAE4BB3F94F
S3150800B8E0E420B3F95210914201DAA3F85220AB4B87
S3150800B8F0AB4FAC4DAC4EDFF8A0927B6003F1400134
S3150800B900B96003F15001F96095F8291BDFF800B317
S3150800B9104FF07E524FF014084FF4F86ABA613A6154
S3150800B9207A61B2613261726118FB01A103F16002AA
S3150800B930494405F62C30726003F1A002B033B260B8
S3150800B940F36041F0E3FF95F8791BC5F85C7B18FBBB
S3150800B95001A1494405F67C30C5F860BB41F0D6FF25
S3150800B96095F8C91BC5F8AC6B18FB01A10BF1780358
S3150800B970494405F6CC30C5F8B03B41F0C7FF95F809
S3150800B980193CC5F8FC7B18FB03A149440BF1F003ED
S3150800B99005F61C40C5F8003C41F0B8FF0BF5B4733A
S3150800B9A0C5F8503CC5F84C6C54F0D0FC99F81034E6
S3150800B9B0590600F196837D483DF0BCFF7C483DF072
S3150800B9C0B9FF7C483DF0B6FF7B483DF0B3FF012048
S3150800B9D05BF0B8FF704B93F86323920640F121831E
S3150800B9E093F89D25D70704D593F89C35DB0940F0D5
S3150800B9F0A285724940F25E2055F010FE664D95F814
S3150800BA0059369E0640F1208395F89C35DB0940F0AF
S3150800BA1079836B4940F25E2055F000FE21203DF007
S3150800BA2087FE48B95C4B674DB3F88E83B3F89073BD
S3150800BA30AB68002B00F08785574B93F81E124B1EF8
S3150800BA402F2B0AD8604CDFED500A9FED600A20467E
S3150800BA5042F010FA20463DF06DFF4F4D5C4995F8CF
S3150800BA6036025C4F5CF02EFC95F858035A495CF098
S3150800BA7029FC5BF041FF05F66E56002405F69F5536
S3150800BA8015F8012F36F8021F0134384642F0A8F996
S3150800BA90082CF5D15149524843F09AFA514952486F
S3150800BAA043F086FA5149524843F082FA51495248BE
S3150800BAB043F082FA384B93F8A9355C0600F168839F
S3150800BAC04E494F4843F074FA4E4B93F827201AB95B
S3150800BAD04D4A1168D96213604A4E4C4CB4614EF611
S3150800BAE0602297E0A5010608FC280A084D01060809
S3150800BAF00C290A08DD3A06081C290A08BD3A060870
S3150800BB0028290A08913B060834290A08713B0608C1
S3150800BB1040290A080D3C06084C290A08B1010608FE
S3150800BB2058290A083900060868290A084500060837
S3150800BB3074290A08E1FF050880290A080D02060883
S3150800BB408C290A0805E905089C290A0809460608F1
S3150800BB50AC290A08F1000608C0290A08A100060847
S3150800BB60D0290A0861020608DC290A0811E905082D
S3150800BB70E8290A08F4290A08993C060810910020C1
S3150800BB80706F0010C006001000000000B0A300206F
S3150800BB90002A0A08F8430020986900105C9D0010E6
S3150800BBA050AC01200010001030AC012008AC012078
S3150800BBB0F8AB0120E8AB0120D8AB0120142A0A080B
S3150800BBC04C2A0A08F891012088900020CDCC4C3DDB
S3150800BBD0E8900020882A0A08C0900020D55906084F
S3150800BBE0942A0A0831760408A42A0A0879990408C6
S3150800BBF0B82A0A0881540608C82A0A085997040860
S3150800BC00FCAF0808D84D0020F4B100203A6F0010A8
S3150800BC10F84900200023C6E90223304604F22A63C5
S3150800BC200025336286F8265042F09AF9B44BB54A95
S3150800BC305A60012102F5807286F827109A604FF043
S3150800BC407E562032B0489E6129461E615E61DA60E2
S3150800BC5037F0C2F8AD4BAE4AAE48AF495A6002F566
S3150800BC6080729A604160103201F58071DA608160F5
S3150800BC70AA4A9E611031C1601031516040311E617F
S3150800BC805E619160A64B9661103116615661D1606E
S3150800BC9001F160021031C3E901128661066146614D
S3150800BCA09E611E615E6101F160029E4EDFF81CB363
S3150800BCB0DFF81C93DA60A4F2A254B4F8087A38467E
S3150800BCC03EF0D8F9002838D0B4F80C3A96490293D1
S3150800BCD03A460C2707EE903A07FB05B73846B8EE02
S3150800BCE0678A42F011FE029B4FF0780AB3F100080A
S3150800BCF00AFB059A18BF4FF00108002B40F0848113
S3150800BD008A4B53F8253004F632225A604FF07C529B
S3150800BD109A6104F612229A604FF080421A6104F67C
S3150800BD202222DA604FF07E525A61C6E903A7736190
S3150800BD3004F6082386F8088073600135042D04F19B
S3150800BD406C0406F11806B8D1794C7A4D94F8643427
S3150800BD5004F29C50002223F0070305F6AC11A5F85F
S3150800BD602C2684F8643441F0D1FD95F8CD30724D17
S3150800BD70D8064CBF04F5986004F591606F4C2946C7
S3150800BD8041F0C4FD204631F015FC52F0A3FAA4F5A3
S3150800BD90BA62002182F85814A4F5BA72684B136087
S3150800BDA0A5F5C465A4F5A87266486749136043F00B
S3150800BDB0FFF895F8CD30D9064CBFA4F58870A4F5E0
S3150800BDC0A4705C4C04F5C46104F5C56304F22462EE
S3150800BDD00D681968C36A12685A6002681D6052685D
S3150800BDE09960904759495A4843F0E2F8594B1B78ED
S3150800BDF0002B37D14E4B584A58485949594D5A4E37
S3150800BE00C3E9EF02594843F0D3F85949594843F072
S3150800BE10CFF8594B59495A4A5D614FF07E508861AF
S3150800BE20086190611061186104F51F60C860554883
S3150800BE30486155489861554898600630D86004F5B9
S3150800BE40696004F6FC14C1E9010404F66C3400F5D3
S3150800BE50DD6004F53E51C2E90240566055615960FD
S3150800BE6052F030F8334B93F8A8359A0600F15D8105
S3150800BE7052F07CF94649474821F046F8464B47496F
S3150800BE80A3F56D624FF07E54B2F84C00444A4B60FD
S3150800BE90A3F59C65A3F2D4468C6124330C619461A6
S3150800BEA01461404CCD60C2E90136D560354B8E60D1
S3150800BEB000254B61536125703EF0DCF858B12B46DE
S3150800BEC0DFED390A9FED390A394A3A493A4868F0A6
S3150800BED08DFF01232370174B384CB3F8660E0025E7
S3150800BEE025703EF0C7F800283FF47DAA2B469FED43
S3150800BEF02F0A334A33493448F6EE000A6AE000BF8F
S3150800BF0050C20020ECA70010C81C0010FCA000209E
S3150800BF102CA90010CC9D00204CAA0010AC9D002036
S3150800BF208C9D002010920120802B0A0884330A0871
S3150800BF300000001098690010B86F0010D0050010B6
S3150800BF400000C8C2882B0A08215D050839E10408E3
S3150800BF50942B0A08F1180220C81F00209020002000
S3150800BF6005E105080AD7233CC07E0010A02B0A0865
S3150800BF7031640508AC2B0A08B8AB01207888012083
S3150800BF80588801200000C842CDCCCC3DA4AE001094
S3150800BF906F86140034C2002068780010F8AC0020C0
S3150800BFA0D8AC00202D190220CDCCCC3D0000C07F96
S3150800BFB0F0A30020B42B0A08308C00202C1902208C
S3150800BFC030A40020C02B0A08B88B0020DC180020FB
S3150800BFD0A88C002068F00AFF01232370FFF703BA34
S3150800BFE0C44804F0DDFDB1F5AA7F4FF001027FF6E3
S3150800BFF0D4ABFEF7BEBF002A7FF433AABE49BF48BA
S3150800C00042F0D6FFFFF708BABD4BDFEDBE0A53F87C
S3150800C0102510B0EE480A00233A46504668F0E6FE78
S3150800C0206EE693F84C32013B2F2B02D8B6483DF00A
S3150800C03081FCB64B93F84D32013B2F2B3FF6DEAC15
S3150800C040B3483DF077FCD9E4B249B34895F8D762CE
S3150800C05042F0AEFFB149B24842F0AAFF30463EF080
S3150800C060BFFCB04BC3F85803002800F0E48203F283
S3150800C070463603F26F379B4605F5667503F5807AF3
S3150800C080039405E00BF1200BD34505F102056DD0AD
S3150800C09000234FF0010826F8028F07F8013F9BF8A6
S3150800C0A07C033DF045FB04460028EBD1B5F800902B
S3150800C0B048463DF0DFFF0028E4D09A4B494603F591
S3150800C0C05770C3F8604340F05DFF974842464946BB
S3150800C0D041F086FE2B8833800BF55E703DF02AFC16
S3150800C0E0D0E7924857F038FF914857F035FF914806
S3150800C0F057F032FF904857F02FFF5CE43DF04AFEB8
S3150800C100FFF7D0BB8D4857F027FF8D4857F024FF1F
S3150800C1108C4857F021FF8C4857F01EFF8B4857F084
S3150800C1201BFF8B4857F018FF78E456F0C3FF9FE6CD
S3150800C13000283EF49FAF754B93F88A36062B00F21B
S3150800C1404B81844A52F82330704A186892F8902630
S3150800C1505968D20906AB03C302D001F1004307931D
S3150800C16006A9304605F000FFFEF76CBF6D4D039C2F
S3150800C17095F83C33002B7FF451AC0123D5F83813DE
S3150800C18085F83C3328463CF0F5FBC5F8400345E402
S3150800C190714B93F8D421002A00F0098193F8D52130
S3150800C1A0002A00F01681D3F8D8310B939DED0B8A3F
S3150800C1B018EE100AFCF788FB0446224667480B4629
S3150800C1C00D4641F0D9FCB4EE488AF1EE10FA80F13A
S3150800C1D0E280DFED637AB4EEE78AF1EE10FA00F357
S3150800C1E0DA80DFED607AB4EEE78AF1EE10FA00F154
S3150800C1F0D2805D4841F0C0FC574B40F20111002245
S3150800C20083ED648AA3F88C1183F88E2158E493F899
S3150800C210042A052A00F21482DFE802F03639332CA4
S3150800C220034340F2F113514900220B80504B514809
S3150800C2301A803DF07FFB50483DF07CFB334B4F495D
S3150800C24093F810240E7090067EF528AF93F8042A0A
S3150800C250052A00F2FC8101A353F822F095C20008D2
S3150800C26095C2000895C200089DB0000895C200084E
S3150800C2709DB000083D4B4FF421721A8040F285228A
S3150800C280D4E74FF4D073CEE74FF4F873CBE74FF407
S3150800C2900073C8E73A4940F66E0055F0BFF9FEF755
S3150800C2A0FDBE40F20933BEE7062041F0A7FEFFF7C0
S3150800C2B053BA052041F0A2FEFFF748BA042041F020
S3150800C2C09DFEFFF73DBA032041F098FEFFF732BA0C
S3150800C2D0022041F093FEFFF727BA012041F08EFEB7
S3150800C2E0FFF71CBA274B1A68B26114361E60FFF7AF
S3150800C2F04DBA00BF54330A0821530608F42B0A081E
S3150800C3000C340A080000000024AC012098690010CB
S3150800C31018AC012049E20408742A0A089DE20408B8
S3150800C3207C2A0A0830280020009B0808308F002045
S3150800C330F88E0020C08E0020888E0020589000209D
S3150800C34028900020F88F0020C88F0020988F0020A2
S3150800C350688F002030330A0824AD0020D42A0A0842
S3150800C3600000DC4200007042102C0A08EE18022079
S3150800C370EC18022030950020109500203219022072
S3150800C38080260A08FC170020B74B93F8DC046FF0E8
S3150800C39043F9FEF77DBEB54922462B4640F6B20064
S3150800C3A054F03EFFB24841F0E7FBFFF789BBD3F8EC
S3150800C3B0DC4174B1236820469B68984748B12368D6
S3150800C3C021465B680AA898479DF82830002B7FF419
S3150800C3D0EDAE9FEDA88AEBE6A74BB5E6A748C0F8F1
S3150800C3E0687327B190F83C33002B00F01281A448FB
S3150800C3F0C0F86863002E3EF43AAE90F83C33002B42
S3150800C4007EF435AE3DF0C6FCFEF731BE9D4BDFED42
S3150800C4109E9A9FED9E9ADFF8B8A20FCB10AF07E958
S3150800C4200F004FF0000900279FED998A0DF1300B98
S3150800C430B84607EE907AF8EEE77AFBEC018A77EED3
S3150800C440A77A08F1010827EEA90A4F4480EE090ADF
S3150800C45070F012FCB8F1040FA8EE808AE9D109F150
S3150800C4600109B9F5806FAAEC018ADCD1894BDFEDA9
S3150800C470886A1868DFED885A9FED886ADFF854C223
S3150800C48005EE104AAE464FF47A6700220CFB02F31B
S3150800C49007EE903AF8EEE77A411C67EEA57A9142E4
S3150800C4A037EEC67AB0EEC77ABDEEC77A17EE103AFF
S3150800C4B005D1B8EEC57A37EEC77AF0EEC76ABB4241
S3150800C4C004DABDEEE75A1F46B64610460132B2F503
S3150800C4D0007FDBD1BEF1000F01D06E4B1860704BA8
S3150800C4E015EE101A03F5805203F5CE53A2F8BE19BD
S3150800C4F0C3ED006AFFF7FCB817EE900AFCF7E4F9FB
S3150800C50002460B46CDE90023664955A3D3E9002325
S3150800C51040F25E2055F082F8FFF7E2B83DF03AFCAB
S3150800C520FFF7F6B83246604940F25E2055F076F8D5
S3150800C5300126FEF720BD5D4857F00EFD5C4857F012
S3150800C5400BFDFFF75BBA40463DF094FD00283FF42B
S3150800C55073AA38463DF08EFD00283FF46DAA554E65
S3150800C56005223046414641F03BFC05223946304615
S3150800C57041F036FC404668F077FF41462860304671
S3150800C58040F050F96860384668F06EFF3946034651
S3150800C5903046AB6040F046F96A682968E8600126CB
S3150800C5A006FA02F292B20A8306FA00F3AA689BB266
S3150800C5B013830DF113010F23284632468DF81330E5
S3150800C5C067F0E8F932460DF11201284667F0FCF9E2
S3150800C5D09DF81230B12B2BD0BD2B7FF42DAA4CF22F
S3150800C5E020433446344DADF814302846022205A9B6
S3150800C5F02C6167F0CFF9012330482B753DF09AF985
S3150800C600FFF71ABA2E4940F25E2055F007F8FEF7F2
S3150800C61031BD3DF0BFFBEAE60123D8F8A81388F838
S3150800C620AC3340464AF0F8FFC8F8B003FEF719BD28
S3150800C63044F21043D6E7234841F09EFAFFF7EEB9D5
S3150800C640214940F66E0054F0E9FF2E46F6E51F49EB
S3150800C65040F66E0054F0E2FFFEF720BDAFF300800F
S3150800C66000000000F0B30A4100300010042B0A084D
S3150800C670302B0A0867A6CA424C330A0888CA001033
S3150800C68018C70010181E0808DB0F494000C07F4471
S3150800C69000000000745D01200000803A00007A4521
S3150800C6A000000010A4250A08F0250A08304C0020CE
S3150800C6B0F04B0020842A0A08F8910120C04C00207B
S3150800C6C034260A080C9B080860260A08A8260A08C1
S3150800C6D0241701207E5603000D480E4AC3680E49EA
S3150800C6E09FED097B10B4002443611C700830046276
S3150800C6F080F82440094B5DF8044B80ED0A7B41F035
S3150800C70007BA00BFAFF30080000000000000000079
S3150800C71048380020403B0A08B4B308086C8A090860
S3150800C72070B5214ED6F82037D6F8B048A6F82407B3
S3150800C730013382B00546C6F82037ACB1002306F5AA
S3150800C740E76001E0A3420FD01A010133815AA942DA
S3150800C750F8D1164C1444204640F0C8FE144802B0DE
S3150800C760BDE8704040F0C2BE04F010FED6F8B038FE
S3150800C770104C0190172B0FD803F273619FED087BBD
S3150800C78004EB011484ED007B258101330198C6F87A
S3150800C790B03805F093FCDEE7019805F08FFCDDE77D
S3150800C7A000000000000000F0006000103067001074
S3150800C7B028670010000000102DE9F047E24BE34C13
S3150800C7C0E349E44FE44ADFF8D8C32DED028BC4F8F9
S3150800C7D050343C33C4F8543404F25C4300251D60DD
S3150800C7E004F58C6304F586681D6004F27443C8F882
S3150800C7F000501D6004F58F6304F234481D6004F28E
S3150800C8007C43C8F800501D6004F5906304F58768FA
S3150800C8101D6004F28C43C8F8005004F23C481D60C1
S3150800C82004F59263C8F8005004F588681D6004F2A0
S3150800C8309443C8F8005004F244481D6004F5936315
S3150800C840C8F80050C4F84C1404F5896804F22C4161
S3150800C8501D6004F5946E04F29C4300260D60C8F82A
S3150800C860005001214FF07E581D6084F85864C4F8C2
S3150800C8706464C4F86864C4F86C64C4F87064C4F882
S3150800C8808464C4F8A814C4F82874CEF80080C4F8E0
S3150800C890E01404F59661B14B0B6004F5976104F258
S3150800C8A0A44E0D6004F2BC41CEF800500D6004F2AF
S3150800C8B0AC4E04F2E441CEF800200A6004F59D620D
S3150800C8C0A74F136004F59860C4F888C4C4F8C07408
S3150800C8D0C4F8B464C4F8EC643FF0CAFA0021002036
S3150800C8E004F5B063C3E9000104F5B26343E9020144
S3150800C8F004F294521D6004F5B36304F29C504FF0A1
S3150800C900704784F87865C4F87C6515601D6066F024
S3150800C91043FD04F5C46084F8D06584F81866A4F865
S3150800C920386684F83A660026C0E9006704F5C660EA
S3150800C93004F2146240E90267C0E900678949156094
S3150800C94004F2D45343F8041B9A42FBD1DFF854820D
S3150800C9504346002743F8047B1F60834BC4F84036E0
S3150800C960824BC4F84836824BC4F8B83630330026B2
S3150800C970C4F8BC3608F174007E4BC8F83060C4F8B9
S3150800C980A836C4F88066C4F8446684F89D66C8F874
S3150800C9900870C8F85470C4F85866C8F81070C8F813
S3150800C9A01470C8F81870C8F81C70C8F82070C4F855
S3150800C9B07066C4F87466C4F87866C4F88466C4F801
S3150800C9C08866C4F88C66C8F84870C8F84C7084F84D
S3150800C9D09C66C4F8AC66C4F8B066C8F8687066F0B9
S3150800C9E0DBFCD4F8F436C4F8046703F07043C4F8E3
S3150800C9F0F436614BC4F8F0369FED518B5F4BC4F8A3
S3150800CA0000375F4BC4F8103708F1CC000123A4F8AF
S3150800CA10203788ED2B8B88ED2F8B84F8F76684F802
S3150800CA20226740F063FDD4F864375648C4F82807EF
S3150800CA309B0D9B05C4F86437D4F87C375248C4F874
S3150800CA4048079B0C9B04C4F87C37D4F84C374F48EE
S3150800CA50C4F8600703F07C43C4F84C374C484D4B88
S3150800CA60C4F878074C48C4F8A03708F6B415C4F8D3
S3150800CA70800724334948C4F8A437C4F8980788EDD2
S3150800CA80438B88ED498B88ED3B8B88ED3D8B88ED94
S3150800CA904F8B88ED518BC4F82C67C4F83067C4F8FF
S3150800CAA05067C4F85467C4F86867C4F86C67A4F894
S3150800CAB0846784F89C6784F8A86784F84F67A4F8A5
S3150800CAC06667A4F87E67C8F86071C4F8F467C4F8A6
S3150800CAD0F867A4F80C68A4F81C6884F81E6805F6BC
S3150800CAE074044FF07E5A276005F6780405F5166338
S3150800CAF0C4F800A005F67C04C8F86471276005F63A
S3150800CB008404C8F8B071276005F68804C8F8B471BB
S3150800CB10276008F59254C8F8B871276005F50964C6
S3150800CB20C8F8BC71276005F69804C8F8C471276070
S3150800CB3005F69C04C8F8C87127600A2434E000BFCB
S3150800CB4000000000000000F07C410A080000001008
S3150800CB50286A001010410A08002474C90024744980
S3150800CB6068410A080000C842A0440A08D4410A08D5
S3150800CB7034450A0880450A08F0410A080C420A08A2
S3150800CB8028420A0848420A08F8440A08BC440A081F
S3150800CB9084440A0868420A08A0440A0868440A083D
S3150800CBA0B04908084C060010C5F8A84808F593547B
S3150800CBB0C8F8CC71C5F86068C5F86468C5F86868CF
S3150800CBC0C5F86C68A5F87068C5F8806885F8946833
S3150800CBD085F8A068C5F8A468276003ED048B03ED03
S3150800CBE0228B03ED208B43F8A07C05F50B63CE4919
S3150800CBF01F6005F6B403CD481F6005F6B80308F5AF
S3150800CC0099581F60022385F8C438382385F8F83800
S3150800CC1005F6FC0301F1240C1F6005F51363C5F83E
S3150800CC20F0181F6005F63413C5F828091F6005F6C5
S3150800CC303C1340221F6005F65C1331461F6005F65B
S3150800CC40781305F67C10C5F8F4C8C5F86069C5F808
S3150800CC506469C5F86869A5F8BC68C5F8C868C5F800
S3150800CC60CC68C5F8D068A5F8E86885F8F968C5F805
S3150800CC700069C5F82C69C5F83869C5F84069C5F86A
S3150800CC804469C5F84869C8F800701F60C5F8746932
S3150800CC9074F04BFD05F6C4114FF400020F6005F65B
S3150800CCA0C81100200A604FF00041C4E94901C4F8E0
S3150800CCB0147104F59673C5F8BC6904F5EE74C3E9F6
S3150800CCC002011A6010339C42F9D1994EDFF8A0820E
S3150800CCD0C5F8988A05F68823DFF898821A603346DD
S3150800CCE0944AC5F858299FED8E7BE3E8040105F5BB
S3150800CCF01762C5F8B08A6FF0004800248E49C5F857
S3150800CD00CC8A05F6E428002711604FF07E594FF0CB
S3150800CD100122214606F1880083ED007B86ED0A7B19
S3150800CD2086ED0C7B86ED1A7B86ED1C7B86ED1E7BDD
S3150800CD3086ED207BC5F8D02AC5F8D42AC5F8D82AA6
S3150800CD4085F89C4A85F8A84AA5F8C84A85F8CA4AC3
S3150800CD50A5F8DC4A85F8EC4A3765C8F8009066F00D
S3150800CD6039FB764BC5F8183B0121303306F1D8005C
S3150800CD70C5F81C3B66F02EFB714BC5F8683B0221D3
S3150800CD80303306F59470C5F86C3B66F023FB6D4BA3
S3150800CD90C5F8B83B0321303306F5BC70C5F8BC3B73
S3150800CDA066F018FB684BC5F8083C3033C5F80C3CF0
S3150800CDB0664BC5F8583C3033C5F8743C05F66443F1
S3150800CDC006F5F4701F6005F66843C5F85C4C1F60ED
S3150800CDD005F66C43C5F8604C1F60C5F8704C66F0E4
S3150800CDE0DBFA5B4BC5F8C83C05F6CC4380211F60CF
S3150800CDF005F54D6306F51E701F6005F6D44386EDEE
S3150800CE009C7B1F6005F6D843C5F8A84C1F6005F63D
S3150800CE10DC43C5F8AC4C1F6005F6E443C5F8B04CD6
S3150800CE201F60C5F8B44CC5F8B84CC5F8BC4CC5F875
S3150800CE30C04CC5F8E04C35F0BBFF05F6E8434FF4A7
S3150800CE4000721F6005F6EC4321461F6005F54F6327
S3150800CE5006F51E701F6005F6F443C5F8F84C1F600A
S3150800CE6074F063FC3B4BC5F8183F80214FF48023D0
S3150800CE7006F59560C5F8083FC5F80C4FC5F8104F7C
S3150800CE8085F8344F35F094FF06F5926040F02EFB96
S3150800CE90314B9FED326A93F84E349FED317A07EEA7
S3150800CEA0903AF8EEE77AF1EE046A67EE867A06F5C6
S3150800CEB0956067EE877A87EEA67AFCEEC77A17EE54
S3150800CEC0901A35F075FF274BC6F8B03606F6B82324
S3150800CED006F52D60C3F8009006F52C6386F8BC4A63
S3150800CEE0C3F8009040F002FB06F6D82040F0FEFAA0
S3150800CEF006F6C82040F0FAFABDEC028B1A4A1B4B1C
S3150800CF0086F8C44A86F8E04A86F8B44AC6F8EC4A6F
S3150800CF10C6F8E82AC6F8F03ABDE8F087AFF300800D
S3150800CF2000000000000000F0A8420A08E8420A08CB
S3150800CF30901A001044440A080000C842DC430A0854
S3150800CF40DC430A08DC430A08DC430A0820430A08CB
S3150800CF506C430A0888430A0898690010CDCC4C3DF2
S3150800CF6000007A44A4430A08C0430A08A0440A08F1
S3150800CF7028440A0804430A082DE9F04F2DED068BCC
S3150800CF800123DFED5BAA85B00A24BFEE009AB8EE4E
S3150800CF90008AF6EE008A06461D4629EE08AADFED47
S3150800CFA0559A2AEE09AA4FEA450B32464FEA051A60
S3150800CFB0E800B7EE009A0021871802F104099046A6
S3150800CFC00B46D7ED010A97ED000A69EE207A20EEA6
S3150800CFD0E97AE9EE807A5B44A9EE007AF4EE477ABC
S3150800CFE0F1EE10FA58D698ED016A59ED016A36EE57
S3150800CFF0676A76EEC76A87ED016AC7ED006A98ED3B
S3150800D000016A59ED016A77EE867A36EE877AB3F5C4
S3150800D010806F09ED017A5744C8ED017AD144D044AE
S3150800D020CFD369EE8A7A2AEEE97AE9EE2A7AAAEE67
S3150800D030097AB4EE677AF1EE10FA40D60131A942C0
S3150800D04039EE079A79EEA79A02F10802B4D1013CA3
S3150800D0501DD05846FBF716FC02460B4622A1D1E91D
S3150800D0600001FBF7B3FDFBF75FFF09EE100A29EE97
S3150800D070280A6FF043F9B0EE40AAB0EE490A6FF0FD
S3150800D0803DF95D46B0EE4A9AF0EE40AA85E705B04E
S3150800D090BDEC068BBDE8F08FF0EE691AB0EE491AC2
S3150800D0A0CDE90202CDE9003174F05EF8DDE902024D
S3150800D0B0DDE90031B0EE407AF0EE607A93E7F0EE03
S3150800D0C06A1AB0EE4A1AF0EE690AB0EE490ACDE9D4
S3150800D0D00102009174F048F8DDE901020099B0EE0A
S3150800D0E0407AF0EE607AA9E700000060FB2109C0EB
S3150800D0F02EBDBB330000000010B59FED136BDFEDAE
S3150800D100147A144CC0ED147A00234FF0010C836294
S3150800D11080ED126BC362C0E90833C0E90A33C0E97F
S3150800D1200C33C0E90E33C0E91033C0E9033300F10C
S3150800D1300C0E036043714361C36180F854C0836178
S3150800D14080F804C0846010BD0000000000000000E4
S3150800D1500000C07F503E0A0838B59FED216BDFED11
S3150800D160227A224B0360044600250123036480EDDE
S3150800D1700E6BC0E90755C0E90955C0ED017AC0ED47
S3150800D180027AC0ED037AC0ED047AC0ED057AC0EDE7
S3150800D190067AC562C0ED0C7A80F8345080F844509F
S3150800D1A085644C3066F0F8F8114BA4F8B0504FF08F
S3150800D1B0824284ED206B84ED266B84ED2E6B84F819
S3150800D1C07C50C4F88850C4ED237AA4F89050C4ED76
S3150800D1D0287AC4ED297AC4F8A820C4F8AC3038BD3A
S3150800D1E000000000000000F00000000088400A0867
S3150800D1F0CDCCCC3D000000009FED0F7B002200B592
S3150800D200C0F8A4104FF0000E0D49C0F80CE0C0F8A5
S3150800D21020E0C0E90422C0E9062280ED0E7B80EDFD
S3150800D220347B5DF804EB426082600160426248F03C
S3150800D230AFBB00BFAFF3008000000000000000F0A5
S3150800D24070400A08000000002DE9F04FC84BC94895
S3150800D250C94ACA492DED068BC3F82C04C84818607C
S3150800D2600024C848C3F83404C3E9014483F83044A9
S3150800D2708125C54B1360C2F85856C44BC44DC548E2
S3150800D280C2F864061C7082F85C466B60C24AEB60A2
S3150800D2900026C24BC24828604FF07047C1E90067B4
S3150800D2A06421C2E90641116203F140015960BD4893
S3150800D2B0106003F1180103F12802C3E90611BA49FF
S3150800D2C01A60C3E9022203F12002C3E908221C619D
S3150800D2D01C7506224FF47A73A1F1280083B0AB605F
S3150800D2E007F030F8B14AB24914711346C2E902444C
S3150800D2F043F8241BA432FF2143F8104C03F80C4CC6
S3150800D30023F80A4C03F8084C03F8071C03F8064CE4
S3150800D31010339A42F0D1A74AA74BA8481A6002F1DF
S3150800D3203401596144F62061A54AC3F89C001425C6
S3150800D330C3F8981000204FF07041C3E92A01C3E9E9
S3150800D3400244A048A0491C71C3E90644C3E9234422
S3150800D350C3F894509D4B1160862582F83C43C2F869
S3150800D3604843C2F83853C2F84403994AC3F83853B5
S3150800D370012583F83C4382F8AC43C3F8440319609B
S3150800D3808720944CC3F848539FED739B924BC2F881
S3150800D390A803924911600520C2E9ED40002703F56C
S3150800D3A0C0729F6083ED069BDF6083ED089B83ED6B
S3150800D3B00A9B1F6083ED0C9B1F6183ED0E9B83ED1B
S3150800D3C0109B83ED129B83ED149B83ED169B6033B4
S3150800D3D09342E6D1824B834A1A60834A5A60DA60DE
S3150800D3E0177082489FED828ADFF884B24FF47A621A
S3150800D3F028219A6069F0C0FF7E48252169F0BCFFA4
S3150800D4007D48592169F0B8FF7C485A2169F0B4FF74
S3150800D4107B4B7C4824221A7123217B4A1A6069F0C7
S3150800D420ABFFFDF7E9FB794BDFF848C278491F7275
S3150800D43022221A71774ACCF82020C2E90077C2E97D
S3150800D440027717750022C3E9041203F128021A624B
S3150800D4504FF021028CF804206F4A1A609FED40AB0A
S3150800D4606E4ACCF800209FED407B6D4A1F7302F58B
S3150800D470804502F5805802F5405A83F82C7083EDF2
S3150800D480069B83ED0CAB6748674A83ED098A202122
S3150800D49000238CED047B8CF808708CF80C708CEDEE
S3150800D4A0069B6EF0C3F861485F4A9FED610A4F21FB
S3150800D4B000236EF0BBF8564A5E4800231F216EF023
S3150800D4C0B5F85D4B52495D481F720022C3E9041244
S3150800D4D04FF00C0119715A491960F7EE008A1F734B
S3150800D4E083ED069B574B40F8043BF0EE680A6DF057
S3150800D4F0C3FE66F063FF54486DF0BEFE534B5448B6
