S01400006275696C642F7275736566692E7372656343
S3150800800010100020B9830008E5EC0208F98300087F
S315080080101D840008F88300080B840008ACD596ACCC
S3150800802074C50900B3830008B38300080D4301082B
S31508008030B3830008B3830008B3830008C952010854
S31508008040B3830008B3830008AD510108255201081F
S31508008050B3830008B3830008D5990408DD9904089A
S31508008060E5990408ED990408F599040801470108FB
S315080080703947010875470108B1470108ED47010866
S31508008080254801086148010889430108E1450108B6
S3150800809005460108294601084D460108FD990408C8
S315080080A0B3830008F9540108B38300081D55010875
S315080080B0B5530108215501084555010839990408A1
S315080080C0B3830008B14A0108E94B0108B3830008E5
S315080080D0B3830008B3830008555701087957010888
S315080080E0219A04086D520108B3830008B383000877
S315080080F08D550108B3830008B15501089D4801084C
S31508008100B3830008B383000869550108B3830008E0
S31508008110B3830008B383000855530108B3830008E6
S31508008120D9480108114901084D490108894901083A
S31508008130C5490108B3830008B383000871460108DE
S3150800814095460108B9460108DD460108014D0108B2
S31508008150FD490108394A0108754A0108B55501085B
S31508008160B3830008B3830008B3830008B383000809
S31508008170B3830008B3830008B3830008B3830008F9
S31508008180B3830008B3830008B3830008B3830008E9
S31508008190B3830008B3830008B3830008B3830008D9
S315080081A0B3830008B3830008B3830008B3830008C9
S315080081B0B3830008B3830008B3830008B3830008B9
S315080081C0B3830008B3830008B3830008B3830008A9
S315080081D0B3830008B3830008B3830008B383000899
S315080081E089D00008CDAE0708000000000000000096
S315080081F001F0FF01102A2BDB10F0070F08D010F84A
S31508008200013B013A8B422DD010F0070F42B3F6D14D
S31508008210F0B441EA012141EA014122F007047FF066
S3150800822000070023F0E80256083C85EA010586EABD
S31508008230010685FA47F5A3FA87F586FA47F6A5FAF9
S3150800824087F68EB9EED1F0BC01F0FF0102F0070205
S3150800825032B110F8013B013A83EA010313B1F8D1B0
S315080082600020704701387047002D06BF3546033891
S31508008270073815F0010F07D1013015F4807F02BFCA
S31508008280013015F4C03F0130F0BC0138704700BF1B
S3150800829072B6394880F30888384880F30988384820
S315080082A04EF60851CEF20001086040F20000CCF20A
S315080082B000004EF63471CEF200010860BFF34F8F0E
S315080082C0BFF36F8F40F20000C0F2F0004EF68851FF
S315080082D0CEF200010860BFF34F8FBFF36F8F4FF0E8
S315080082E00000E1EE100A4EF63C71CEF2000108607D
S315080082F0062080F31488BFF36F8F08F03BF924F04B
S3150800830077FD4FF055301F491B4A91423CBF41F853
S31508008310040BFAE71C49194A91423CBF41F8040B81
S31508008320FAE71A491A4A1B4B9A423EBF51F8040B00
S3150800833042F8040BF8E700201749184A91423CBF57
S3150800834041F8040BFAE708F019F947F061FA144CFA
S31508008350144DAC4203DA54F8041B8847F9E76DF06C
S31508008360C9FC114C114DAC4203DA54F8041B88477A
S31508008370F9E708F001B900001010002010160020D7
S315080083800080000810000020101000202C410A0868
S3150800839010160020581A0020581A0020E01802204B
S315080083A0E0810008E4810008E4810008E88100080B
S315080083B06EE700F000F8FEE70A480B49026800601D
S315080083C08A4201D0FFF764FF08484FF480410160F4
S315080083D007484FF0010101600648D0F800D0406810
S315080083E000470000F0FF0120EFBEADDE4438024032
S315080083F0003801400000FF1F1EF0040F0CBFEFF30A
S315080084000880EFF3098026F071BC1EF0040F0CBF3C
S31508008410EFF30880EFF3098026F0B0BC1EF0040FD6
S315080084200CBFEFF30880EFF3098026F0F3BC00BF1A
S31508008430EC46A0E8F05F4FF000007047B0E8F05F48
S31508008440E546080008BF0120704700BF81F00041DB
S3150800845002E000BF83F0004330B54FEA41044FEA1B
S31508008460430594EA050F08BF90EA020F1FBF54EAB6
S31508008470000C55EA020C7FEA645C7FEA655C00F052
S31508008480E2804FEA5454D4EB5555B8BF6D420CDD23
S315080084902C4480EA020281EA030382EA000083EAA6
S315080084A0010180EA020281EA0303362D88BF30BD46
S315080084B011F0004F4FEA01314FF4801C4CEA11319C
S315080084C002D0404261EB410113F0004F4FEA0333FB
S315080084D04CEA133302D0524263EB430394EA050F86
S315080084E000F0A780A4F10104D5F1200E0DDB02FAF5
S315080084F00EFC22FA05F2801841F1000103FA0EF289
S31508008500801843FA05F359410EE0A5F120050EF14E
S31508008510200E012A03FA0EFC28BF4CF0020C43FA7F
S3150800852005F3C01851EBE37101F0004507D54FF08C
S31508008530000EDCF1000C7EEB00006EEB0101B1F5DC
S31508008540801F1BD3B1F5001F0CD349085FEA300022
S315080085504FEA3C0C04F101044FEA445212F5800F2D
S3150800856080F09A80BCF1004F08BF5FEA500C50F1CA
S31508008570000041EB045141EA050130BD5FEA4C0CAD
S31508008580404141EB0101013C28BFB1F5801FE9D20A
S3150800859091F0000F04BF01460020B1FA81F308BF2D
S315080085A02033A3F10B03B3F120020CDA0C3208DDF9
S315080085B002F1140CC2F10C0201FA0CF021FA02F1D4
S315080085C00CE002F11402D8BFC2F1200C01FA02F144
S315080085D020FA0CFCDCBF41EA0C019040E41AA2BF69
S315080085E001EB0451294330BD6FEA04041F3C1CDA31
S315080085F00C340EDC04F11404C4F1200220FA04F051
S3150800860001FA02F340EA030021FA04F345EA0301FA
S3150800861030BDC4F10C04C4F1200220FA02F001FABC
S3150800862004F340EA0300294630BD21FA04F029463E
S3150800863030BD94F0000F83F4801306BF81F48011D7
S315080086400134013D4EE77FEA645C18BF7FEA655C4A
S3150800865029D094EA050F08BF90EA020F05D054EA1C
S31508008660000C04BF1946104630BD91EA030F1EBF21
S315080086700021002030BD5FEA545C05D14000494125
S3150800868028BF41F0004130BD14F580043CBF01F518
S31508008690801130BD01F0004545F0FE4141F47001FE
S315080086A04FF0000030BD7FEA645C1ABF19461046D9
S315080086B07FEA655C1CBF0B46024650EA013406BFDA
S315080086C052EA033591EA030F41F4002130BD00BF99
S315080086D090F0000F04BF0021704730B54FF4806456
S315080086E004F132044FF000054FF0000150E700BFD7
S315080086F090F0000F04BF0021704730B54FF4806436
S3150800870004F1320410F0004548BF40424FF0000122
S315080087103EE700BF42004FEAE2014FEA31014FEA65
S3150800872002701FBF12F07F4393F07F4F81F06051B4
S31508008730704732F07F4208BF704793F07F4F04BFFF
S3150800874041F40021704730B54FF4607401F00045DC
S3150800875021F000411CE700BF50EA010208BF70473C
S3150800876030B54FF000050AE050EA010208BF70472D
S3150800877030B511F0004502D5404261EB41014FF496
S31508008780806404F132045FEA915C3FF4D8AE4FF09E
S3150800879003025FEADC0C18BF03325FEADC0C18BF81
S315080087A0033202EBDC02C2F1200300FA03FC20FAD2
S315080087B002F001FA03FE40EA0E0021FA02F114441F
S315080087C0BDE600BF70B54FF0FF0C4CF4E06C1CEA38
S315080087D011541DBF1CEA135594EA0C0F95EA0C0FA9
S315080087E000F0DEF82C4481EA030621EA4C5123EA1C
S315080087F04C5350EA013518BF52EA033541F480114B
S3150800880043F4801338D0A0FB02CE4FF00005E1FBFD
S3150800881002E506F00042E0FB03E54FF00006E1FB47
S3150800882003569CF0000F18BF4EF0010EA4F1FF048A
S31508008830B6F5007F64F5407404D25FEA4E0E6D41CA
S3150800884046EB060642EAC62141EA55514FEAC520DB
S3150800885040EA5E504FEACE2EB4F1FD0C88BFBCF557
S31508008860E06F1ED8BEF1004F08BF5FEA500E50F108
S31508008870000041EB045170BD06F0004646EA0101CE
S3150800888040EA020081EA0301B4EB5C04C2BFD4EB00
S315080088900C0541EA045170BD41F480114FF0000EF9
S315080088A0013C00F3AB8014F1360FDEBF002001F067
S315080088B0004170BDC4F10004203C35DA0C341BDCE1
S315080088C004F11404C4F1200500FA05F320FA04F0B3
S315080088D001FA05F240EA020001F0004221F00041E7
S315080088E010EBD37021FA04F642EB06015EEA430E5A
S315080088F008BF20EAD37070BDC4F10C04C4F120058A
S3150800890000FA04F320FA05F001FA04F240EA02003C
S3150800891001F0004110EBD37041F100015EEA430E0D
S3150800892008BF20EAD37070BDC4F1200500FA05F22D
S315080089304EEA020E20FA04F301FA05F243EA0203AC
S3150800894021FA04F001F0004121FA04F220EA0200BB
S3150800895000EBD3705EEA430E08BF20EAD37070BD01
S3150800896094F0000F0FD101F00046400041EB0101E1
S3150800897011F4801F08BF013CF7D041EA060195F0C3
S31508008980000F18BF704703F00046520043EB03037D
S3150800899013F4801F08BF013DF7D043EA060370476A
S315080089A094EA0C0F0CEA135518BF95EA0C0F0CD075
S315080089B050EA410618BF52EA4306D1D181EA0301BB
S315080089C001F000414FF0000070BD50EA410606BFB5
S315080089D01046194652EA430619D094EA0C0F02D1FA
S315080089E050EA013613D195EA0C0F05D152EA03363F
S315080089F01CBF104619460AD181EA030101F000415D
S31508008A0041F0FE4141F470014FF0000070BD41F0A5
S31508008A10FE4141F4780170BD70B54FF0FF0C4CF47F
S31508008A20E06C1CEA11541DBF1CEA135594EA0C0F9E
S31508008A3095EA0C0F00F0A7F8A4EB050481EA030EEB
S31508008A4052EA03354FEA013100F088804FEA0333D2
S31508008A504FF0805545EA131343EA12634FEA0222A0
S31508008A6045EA111545EA10654FEA00260EF0004161
S31508008A709D4208BF964244F1FD0404F5407402D2B3
S31508008A805B084FEA3202B61A65EB03055B084FEA44
S31508008A9032024FF480104FF4002CB6EB020E75EB41
S31508008AA0030E22BFB61A754640EA0C005B084FEA69
S31508008AB03202B6EB020E75EB030E22BFB61A7546E6
S31508008AC040EA5C005B084FEA3202B6EB020E75EB31
S31508008AD0030E22BFB61A754640EA9C005B084FEAA9
S31508008AE03202B6EB020E75EB030E22BFB61A7546B6
S31508008AF040EADC0055EA060E18D04FEA051545EAA5
S31508008B0016754FEA06164FEAC30343EA52734FEA4D
S31508008B10C2025FEA1C1CC0D111F4801F0BD141EAC6
S31508008B2000014FF000004FF0004CB6E711F4801F2B
S31508008B3004BF01430020B4F1FD0C88BFBCF5E06F0B
S31508008B403FF6AFAEB5EB030C04BFB6EB020C5FEA1B
S31508008B50500C50F1000041EB045170BD0EF0004E70
S31508008B604EEA113114EB5C04C2BFD4EB0C0541EAA2
S31508008B70045170BD41F480114FF0000E013C90E69F
S31508008B8045EA060E8DE60CEA135594EA0C0F08BF63
S31508008B9095EA0C0F3FF43BAF94EA0C0F0AD150EA62
S31508008BA001347FF434AF95EA0C0F7FF425AF1046F5
S31508008BB019462CE795EA0C0F06D152EA03353FF41D
S31508008BC0FDAE1046194622E750EA410618BF52EA9A
S31508008BD043067FF4C5AE50EA41047FF40DAF52EA6E
S31508008BE043057FF4EBAE12E74FF0FF3C06E000BF0B
S31508008BF04FF0010C02E000BF4FF0010C4DF804CD18
S31508008C004FEA410C7FEA6C5C4FEA430C18BF7FEAD7
S31508008C106C5C1BD001B050EA410C0CBF52EA430C05
S31508008C2091EA030F02BF90EA020F0020704710F185
S31508008C30000F91EA030F58BF994208BF90422CBF14
S31508008C40D8176FEAE37040F0010070474FEA410C0D
S31508008C507FEA6C5C02D150EA013C07D14FEA430C2B
S31508008C607FEA6C5CD6D152EA033CD3D05DF8040B9C
S31508008C70704700BF8446104662468C4619466346CE
S31508008C8000E000BF01B5FFF7B7FF002848BF10F1A5
S31508008C90000F01BD4DF808EDFFF7F4FF0CBF0120EA
S31508008CA000205DF808FB00BF4DF808EDFFF7EAFF66
S31508008CB034BF012000205DF808FB00BF4DF808ED21
S31508008CC0FFF7E0FF94BF012000205DF808FB00BF16
S31508008CD04DF808EDFFF7CEFF94BF012000205DF8A0
S31508008CE008FB00BF4DF808EDFFF7C4FF34BF0120AD
S31508008CF000205DF808FB00BF4FEA410C7FEA6C5C78
S31508008D0002D150EA013C0AD14FEA430C7FEA6C5C77
S31508008D1002D152EA033C02D14FF0000070474FF0EF
S31508008D20010070474FEA410212F5001215D211D51B
S31508008D306FF47873B3EB625212D94FEAC12343F04A
S31508008D40004343EA505311F0004F23FA02F018BFCC
S31508008D50404270474FF00000704750EA013005D195
S31508008D6011F0004008BF6FF0004070474FF0000058
S31508008D70704700BF4FEA4102B2F1E04324BFB3F5A2
S31508008D80001CDCF1FE5C0DD901F0004C4FEAC00274
S31508008D904CEA5070B2F1004F40EB830008BF20F058
S31508008DA00100704711F0804F21D113F13872BCBF12
S31508008DB001F00040704741F480114FEA5252C2F167
S31508008DC01802C2F1200C10FA0CF320FA02F018BFB0
S31508008DD040F001004FEAC1234FEAD32303FA0CFC03
S31508008DE040EA0C0023FA02F34FEA4303CCE77FEA92
S31508008DF0625307D150EA01331EBF4FF0FE4040F4DC
S31508008E004000704701F0004040F0FE4040F400008A
S31508008E10704700BF80F0004002E000BF81F00041CB
S31508008E2042001FBF5FEA410392EA030F7FEA226C02
S31508008E307FEA236C6AD04FEA1262D2EB1363C1BF92
S31508008E40D218414048404140B8BF5B42192B88BF01
S31508008E50704710F0004F40F4000020F07F4018BF24
S31508008E60404211F0004F41F4000121F07F4118BF44
S31508008E70494292EA030F3FD0A2F1010241FA03FCEC
S31508008E8010EB0C00C3F1200301FA03F100F00043D4
S31508008E9002D5494260EB4000B0F5000F13D3B0F19C
S31508008EA0807F06D340084FEA310102F10102FE2A0B
S31508008EB051D2B1F1004F40EBC25008BF20F001007B
S31508008EC040EA03007047490040EB0000013A28BF1A
S31508008ED0B0F5000FEDD2B0FA80FCACF1080CB2EB9D
S31508008EE00C0200FA0CF0AABF00EBC250524218431B
S31508008EF0BCBFD0401843704792F0000F81F40001C0
S31508008F0006BF80F400000132013BB5E74FEA410392
S31508008F107FEA226C18BF7FEA236C21D092EA030FFE
S31508008F2004D092F0000F08BF0846704790EA010F78
S31508008F301CBF0020704712F07F4F04D1400028BFA5
S31508008F4040F00040704712F100723CBF00F5000087
S31508008F50704700F0004343F0FE4040F400007047BD
S31508008F607FEA226216BF08467FEA23630146420269
S31508008F7006BF5FEA412390EA010F40F4800070477C
S31508008F804FF0000304E000BF10F0004348BF404222
S31508008F905FEA000C08BF704743F0964301464FF05E
S31508008FA000001CE050EA010208BF70474FF00003BA
S31508008FB00AE000BF50EA010208BF704711F00043FB
S31508008FC002D5404261EB41015FEA010C02BF8446CB
S31508008FD00146002043F0B64308BFA3F18053A3F52A
S31508008FE00003BCFA8CF2083AA3EBC25310DB01FA71
S31508008FF002FC634400FA02FCC2F12002BCF1004FF5
S3150800900020FA02F243EB020008BF20F00100704785
S3150800901002F1200201FA02FCC2F1200250EA4C00D9
S3150800902021FA02F243EB020008BF20EADC7070471F
S315080090307BB972B90029BEBF00204FF0004106E097
S3150800904008BF00281CBF6FF000414FF0FF3000F04A
S3150800905057B8ADF1080C6DE904CE002909DB002BE1
S315080090601ADB76F027FBDDF804E0DDE9022304B01D
S315080090707047404261EB4101002B1BDB76F01AFB7F
S31508009080DDF804E0DDE9022304B0404261EB41016A
S31508009090524263EB43037047524263EB430376F055
S315080090A009FBDDF804E0DDE9022304B0404261EB88
S315080090B041017047524263EB430376F0FBFADDF851
S315080090C004E0DDE9022304B0524263EB4303704730
S315080090D053B94AB9002908BF00281CBF4FF0FF3111
S315080090E04FF0FF3000F00CB8ADF1080C6DE904CE76
S315080090F076F0E0FADDF804E0DDE9022304B0704713
S31508009100704700BF2DE9F04F2DED108AC1F80CD03D
S31508009110C3689D46BDEC108ABDE8F08F07F0B0FB2A
S31508009120002383F311882846A047002008F0A0FEF4
S31508009130FEE707F03DFD08F013FE07F0A1FB00DF90
S31508009140FEE710F8012B11F8013B012A28BF9A42C5
S31508009150F7D0D01A7047034613F8012B002AFBD123
S31508009160181A01387047000070B586B00C461146CB
S315080091701A46114B0093054674B1631ECDE90103E7
S3150800918000266846CDE903660CF008FB039BA3425C
S3150800919000D2EE5406B070BD9FED057B019068467F
S315080091A08DED027B04940CF0F9FA06B070BD00BF91
S315080091B00000000000000000580308080000000036
S315080091C02DE9F04759EC108B3D4B002240464946A5
S315080091D0FFF77EFD002867D035A5D5E90045384F4D
S315080091E04FF0000A00260CE0FFF716FC8046894679
S315080091F032463B46404649460AF1050AFFF768FDEE
S31508009200E8B1494622462B464046FFF761FD8446AB
S3150800921022462B4640464946BCF1000FE4D1324669
S315080092203B46FFF7F9FB8046894632463B464046B1
S3150800923049460AF1010AFFF74BFD0028E1D1214B07
S31508009240002240464946FFF72FFD50B31AA5D5E937
S31508009250004517A7D7E900670CE0FFF7B3FAAAF1AC
S31508009260050A80468946174B002240464946FFF7BD
S315080092701BFDB0B1494622462B464046FFF714FD72
S31508009280844632463B4640464946BCF1000FE4D187
S315080092900B4B0022FFF796FA0AF1FF3A80468946F9
S315080092A0E1E75046BDE8F0878246C8E7AFF300809D
S315080092B000000000006AF84000000080B5F8E43EAF
S315080092C0000024400000F03F2DE9F047B0F1000A05
S315080092D02D4D4FF0000426DD29A7D7E90067DFF8F2
S315080092E0AC904FF00008BAF1040F204629463246E2
S315080092F03B460CDDFFF766FAAAF1050A04460D4659
S31508009300BAF1000FEFD145EC104BBDE8F0874246A5
S315080093104B46FFF757FA0AF1FF3A04460D46BAF1EB
S31508009320000FE0D1EFE7EED015A7D7E900671AF1ED
S31508009330040FDFF858904FF00008204629463246B9
S315080093403B460FDAFFF768FB0AF1050A04460D46A5
S31508009350BAF1000FD7D01AF1040F20462946324633
S315080093603B46EFDB42464B46FFF756FB0AF1010A3E
S3150800937004460D46BAF1000FEDD1C4E7AFF30080FD
S3150800938000000000006AF8400000F03F000024409A
S3150800939070B5C66984B0044630460D4614F01CFA0A
S315080093A0204613F00BFF204613F056FF9FED087B6F
S315080093B003462946304607246A468DED027B8DF81A
S315080093C00040019314F094FA04B070BDAFF3008026
S315080093D0FFFFFFFFFFFFFFFF2DE9F04FC768C669D4
S315080093E0D0F804802DED028B282F87B004460D4651
S315080093F072D040F223139F4240F0858014F000FD9E
S315080094009FED438B4FF0070A4FF00809E3683A2BA4
S3150800941014D008DD5B2B51D05A2B40DC07B0BDECCD
S31508009420028BBDE8F08F282B3ED02E2BF6D129468D
S315080094302046FFF7ADFFE3683A2BEAD1204613F042
S31508009440BDFE204613F008FF2946039030468DEDF1
S31508009450048B8DF808A014F09DF92B78D5F804B084
S31508009460082B4BD096F834706F600221304685F889
S31508009470009012F039FFBA1C02A986F834205B4620
S3150800948000913A461421304614F0C0F99DF8083088
S31508009490082B0DD10399304670F0BCFC08E07B2BF5
S315080094A002D0B3F5927FB9D12946304614F054F963
S315080094B042462946204615F0FDFAA7E729463046D2
S315080094C014F08AF902A9204614F07AFB02AA294662
S315080094D0304614F00DFA99E713F070FE294600227B
S315080094E0204615F0FDFE204643463A46292113F04C
S315080094F089FEE069294613F03FFF81E75946304661
S3150800950070F088FCAEE7044912F086FEAFF30080DF
S31508009510FFFFFFFFFFFFFFFF4011080800000000E4
S315080095200F4A02F5805303F6081C00219FED0A7BBB
S31508009530CCF8001003F6141C002002F5C95202EDFF
S31508009540027BC3F80409C3F81009CCF80010C3F865
S3150800955020097047AFF300800000000000000000FB
S31508009560000000100000000030B5012285B00C2173
S31508009570044612F00FF8E0B19FED117B0246124B3C
S31508009580043280ED017B02600FCB6D4685E80F0043
S315080095900E4B0F491A6820460FF04EFA002229464C
S315080095A0204621F08BFF20466FF0B2FC012005B063
S315080095B030BD20460FF0EAF9012005B030BD00BFE6
S315080095C000000000000000F010FF070800A70020B8
S315080095D0D8B9F0FF000000002DE9F04F2DED048BFF
S315080095E003689DB0DB689847002800F098850368F3
S315080095F0A94ADB689342834640F08D850BF10D033B
S315080096000693A64BDFF8C8A298699FEDA58ADFEDF9
S31508009610A58A41F073FC7F289FED9D9B0BF10C05F5
S3150800962040F3F280DBF8003058461B699847044639
S31508009630002800F0B885DAF820300133CAF820305F
S31508009640DBF8003001225E680DF123014FF47A73CE
S315080096505846B047012840F023859DF82330542BFF
S3150800966015D8452B16D9463B0E2B13D8DFE813F031
S31508009670DB00120012001200120012001200120083
S31508009680120012001200D3001200D300EF00742B50
S3150800969000F0DD80DBF8003001225E6809A90A23A4
S315080096A05846B047012840F06B859DF823309DF851
S315080096B0246046EA0326374607F1040936B2002F26
S315080096C000F0FA8440F21E43994500F3F5849BF8AE
S315080096D03034002B00F0AE83DBF800304A46D3F86E
S315080096E0048029464FF47A735846C04781459BF84B
S315080096F00C8040F03B8740463DF08CFE81460028B2
S3150800970000F05987AB593246002128461EBA64F044
S3150800971057FC864240F0D98301238BF83034242045
S3150800972062F062FB022F9BF80C3040F3A483042FEF
S31508009730BBF80D6040F3A283BBF80F90A3F1380283
S315080097403C2A3ED8DFE812F05A0307033D003D00E5
S315080097503D003D003D003D003D00FC02CD02C80233
S315080097603D009C023D0011023D003D003D003D00CC
S3150800977003023D003D0055013D003D002D011F013E
S3150800978087003D00F001E2013D003D0086013D00F5
S315080097903D003D003D0063013D003D0007013D00E1
S315080097A03D00F2003D003D003D003D003D00C60085
S315080097B08E003D003D003D003D003D003D003D0062
S315080097C0870083215846059367F0EAFD059B364ACC
S315080097D03648009350210CF03DFADBF82C04334947
S315080097E06FF06CFF242062F003FB31484246414685
S315080097F046F0CCFE00242F4B1C70284B986941F08C
S315080098007DFB7F283FF70EAF2B4A2C4941F6F42003
S3150800981054F0BCFEEEE72A4846F0B8FE002158464A
S3150800982067F0A0FDE7E7DBF82C14264A264846F041
S31508009830ADFEDBF8003025491E6858460023032292
S31508009840B047DBF8003058469B689847D3E7584638
S315080098503EF044FFCFE758463EF040FF242062F032
S31508009860C7FAC8E79BF80D30022B00F07F84032B5C
S3150800987000F05C84012BB5D162F006FC58463FF037
S3150800988005FF242062F0B4FAB5E700BFAFF3008005
S31508009890B2AC33F800000000F14C0208B097002083
S315080098A00024744900007A443CAF08081C5801207B
S315080098B068AF08089F18022074A80808D08008080E
S315080098C000AC080820AC08083C9A080830AC080820
S315080098D0E4580120DAF818305A460133494630462A
S315080098E0CAF818303FF0DEFE0746002840F0F88335
S315080098F001464022C64876F058F8C6484A463946D0
S31508009900304464F05DFB00BA0C900CAA58460097E8
S31508009910042301213FF06CFE0C9BBF484A463146A2
S3150800992046F034FE242062F063FA64E7BB4BBC4E73
S315080099301A78BC4B002A18BF1E463046FFF70BFCA8
S31508009940012103463246584600913FF051FE242035
S3150800995062F04EFA4FE70121B348B44FB44E009176
S31508009960002302683B70C0E90033336058464FF461
S3150800997000530C923FF03CFE0CA86FF059FF2420D0
S3150800998062F036FA37E7AB4ADBF82C14AA4846F0F9
S31508009990FDFD5846012167F0E5FC242062F028FA0F
S315080099A029E7DAF80830A5480133CAF808303246FC
S315080099B04B46002146F0EAFD5A46494630463FF0F6
S315080099C071FE0746002840F073829D4BB3F8EE2CD3
S315080099D0002A40F0DB8308331E444B4632460021FA
S315080099E00091584601213FF003FE242062F000FA58
S315080099F001E740F22C7393483246012F18BF4B46B5
S31508009A0059463FF073F8242062F0F2F9F3E68E4BDC
S31508009A101B78002B40F071838C490B68002B40F0B3
S31508009A20488302228A4E0A607F4B186808B10020D4
S31508009A300860C3E900620CA800230C936FF0F8FED7
S31508009A407A4B584601221A703FF020FE242062F015
S31508009A50CFF9D0E6BBF80D80BBF80F707D487FBA0A
S31508009A6098FA98F6B6B2BFB23A46314646F08EFD37
S31508009A7079484FF0F5FD202E00F20382202E00F2E1
S31508009A809F8301A353F826F0D3A10008C1A10008BB
S31508009A90C1A10008C1A10008C1A10008C1A1000810
S31508009AA0C1A10008C1A10008C1A10008C1A1000800
S31508009AB0C1A10008C1A10008C1A10008C1A10008F0
S31508009AC0C1A10008C1A10008C1A10008DDA10008C4
S31508009AD0E7A1000825A20008E5A2000855A300088A
S31508009AE05FA30008C1A10008C1A1000869A3000876
S31508009AF0C1A10008C1A10008C1A100087D980008FD
S31508009B0087A3000897A30008A7A3000831460BF10E
S31508009B100F030122584667F073FC504846F0DEF8FA
S31508009B20242062F065F966E65AF032FD0DF1300937
S31508009B304B4B4C4A009020218DED029B48460CF079
S31508009B4089F84846FFF707FB4A46431C47E70123BF
S31508009B5000220092584619460CAA8DF830303FF07C
S31508009B6047FD242062F044F945E6DAF824303E4EF3
S31508009B70334FB26A0133CAF82430D7F880359A428F
S31508009B8080F0ED8146F06AF8D6E90C3253EA02060F
S31508009B9040F0CA81354E3368032B00F0F181344812
S31508009BA0B0EE480A47F062FE002840F0FA81314ECE
S31508009BB0314809F0B1FC3368304A03F5805100207A
S31508009BC0C1F864391168136018702B48316009F0C0
S31508009BD035FD326802F58053D3F864691378B61AEE
S31508009BE02BB1134613F8011F0029FBD19B1A9E427D
S31508009BF040F0DE82DBF8001001200090334658461C
S31508009C008E690021B047242062F0F2F8F3E500BF20
S31508009C105A76001060690010F4AD08088118022011
S31508009C20483701206C580120C85701209A1802208D
S31508009C30C03701206CAD08083C9A080850AE0808E1
S31508009C4058690010601700209B180220C45701208D
S31508009C50C4370120DCAE080898340010201F002005
S31508009C6080AD080888AD0808A83B002008580120E0
S31508009C70A03B0020581700200C5801205C17002034
S31508009C8006980744002307F8013C9BF80D30202B63
S31508009C9040F0808410F8013F202BFBD07BB10346AF
S31508009CA013F8012F002AFBD1191A002903DC06E054
S31508009CB083421A7003D013F8011D2029F8D08F4B60
S31508009CC01B689847002358461A4619463FF022FC57
S31508009CD0242062F08DF88EE54A4631460BF11103D1
S31508009CE018E70DF13009484645F0F8FFDAF80C3068
S31508009CF083480133CAF80C3046F048FC59F0A4FCF6
S31508009D008048B0EE480A47F0B1FD002840F0FB81D4
S31508009D1000231A46042158463FF0FCFB484645F006
S31508009D20EBFF60EE287A17EE900AFEF7F3FC024680
S31508009D300B46754846F02AFC242062F059F85AE585
S31508009D40724840F22C73002259463EF0CFFE24207A
S31508009D5062F04EF84FE56E4E002206F14008314695
S31508009D60012031F8023F5B0B1CBF03F1FF3300FAF9
S31508009D7003F341451A44F4D1002158463EF064FBEA
S31508009D800DF1300907460594079536F8023F5C0B36
S31508009D901DD00122013C02FA04F45E4A0A922622E8
S31508009DA00B9200940AAA06CAC3F30C03484664F049
S31508009DB09DFBDBF8003022461D68494600235846BD
S31508009DC0A84739462246484664F0FAF80746464503
S31508009DD0DBD1DBF80030059C1E68079D3FBA494673
S31508009DE0042258460C970123B047DBF80030584642
S31508009DF09B689847242061F0FBFFFCE4464B1B78E0
S31508009E00002B00F07D81002062F0E8F90646002864
S31508009E1053D0D0F8E4340121024603EB83030091C2
S31508009E2058463FF0E5FB304662F008FA242061F018
S31508009E30DFFFE0E4DBF800300246D3F80480294669
S31508009E400A235846C0479BF80C8040463DF0E2FA84
S31508009E5000283FF4CFACDBF800300699D3F804901D
S31508009E60F21C05924FF47A735846C847059A8242FF
S31508009E703FF448ACBEE40026B1465FE44FF0000963
S31508009E805CE4B8F53A4F00F09483BA2E09D9B8F5D0
S31508009E903B4F00F04285B8F53C4F40F0918141F0C8
S31508009EA00DF8B8F5F24F40F08B815AF01DFCE5E449
S31508009EB0DBF82C0419496FF001FC5846842167F039
S31508009EC06FFA242061F094FF95E49BF83034002B58
S31508009ED03FF490AC334602469BF80C10104846F007
S31508009EE055FB1049DBF82C046FF0E8FB8221584635
S31508009EF067F056FA00238BF830347BE4F4570120D8
S31508009F0028AE0808F834001038AE08086017002094
S31508009F1058760010DCEF00209B18022084AE080853
S31508009F2020AD080858AD0808C01A61EB02010A1EE0
S31508009F3003DAC31C184642F100028308D7F88015D5
S31508009F40C84800FB01F1C848A0FB010143EA827337
S31508009F5009099210002099429041BFF61BAEC349E9
S31508009F60C34846F0DFFAC34B93F80836002B40F097
S31508009F70F980C14E00F028FE3368032B7FF40FAE3C
S31508009F80BA49BE4846F0CEFABC4847F0E3FB01237F
S31508009F90BB483360B0EE480A47F068FC00283FF437
S31508009FA006AEB74845F09AFE3B89692B96BFB54A77
S31508009FB04FF0000852F823805AF0EAFA064645F0B0
S31508009FC0BBFEA84A0023FFF733F83146CDE90080E7
S31508009FD0AD4BAE4AAE4846F0D9FAB7F8EC120129AD
S31508009FE002D9AC4863F0D0FFB7F8EE12012902D9BE
S31508009FF0A94863F0C9FFA94EDFF8E08206F108090F
S3150800A00036F8021F012903D9D8F8000063F0BCFF0F
S3150800A010B14508F10408F3D1D7F8CC210C2A134628
S3150800A020A8BF0C23002A7FF7C2AD9D4F0594B946F9
S3150800A0303C469C4E4FF000081F462AE0718B0129CA
S3150800A04001D963F0A1FFD4F85C0700284FD0B6F811
S3150800A0504A14012901D963F097FFD9F83C0300286F
S3150800A06048D036F8021F012901D963F08DFFD9F8C7
S3150800A0708C04002838D0B6F8001C012901D963F0F1
S3150800A08083FF08F10108B84504F1200409F11C0909
S3150800A0904ADAD4F8DC050028D0D1D4F8E005CDE7B3
S3150800A0A0814CA34500F0968100238BF83034FFF7E6
S3150800A0B0A1BB00221646B7E49BF83034002BF3D038
S3150800A0C0DBF82C1479483A4646F060FADBF82C049B
S3150800A0D077496FF0F3FA8421584667F061F9E3E7A8
S3150800A0E0DBF82C047349E6E6D9F89004C3E7D4F8FC
S3150800A0F06007ACE7D9F84003B3E762F041F88BE4B0
S3150800A10061F0C2FF7FE636F087FE6B483CF006F941
S3150800A11058F05EFFFCE5984700287FF46FAA1DB04B
S3150800A120BDEC048BBDE8F08F059C40E5002062F08D
S3150800A13055F80646002800F03082D0F8E4340121AC
S3150800A140024603EB8303009158463FF051FA304626
S3150800A15062F074F858463FF099FA242061F048FEF8
S3150800A160FFF749BB424847F0F5FA02E762F008F8FC
S3150800A17058463FF08BFA242061F03AFEFFF73BBBC6
S3150800A1804E49DBF82C046FF099FA8DE74C4940F2FA
S3150800A1905E200BF10F0654F0F9F939464A46304667
S3150800A1A075F003FC19E40A2007F08AFEFFF722BBC4
S3150800A1B03246444941F6861054F0E8F9002219E57A
S3150800A1C041493B46324640F25E2054F0DFF9FFF73C
S3150800A1D055BB3E4B83F84276FFF750BB3C4B0022FB
S3150800A1E01A60FFF74BBB00283FF448AB374BDFED4F
S3150800A1F0390AB3F88A2D9FED380AD3F8981D07EE69
S3150800A200902AB3F86A26F8EEE77A384667EEA00A87
S3150800A21007EE902AF8EEE77A27EE800A58F036FF1E
S3150800A220FFF72CBB00283FF429AB284BDFED290AA2
S3150800A230B3F88A2D9FED280AD3F8981D07EE902AC1
S3150800A240B3F86A26F8EEE77A384667EEA00A07EE0C
S3150800A250902AF8EEE77A27EE800A58F0C5FEFFF74F
S3150800A2600DBB00BF40420F00CDCCCCCC447C0908C6
S3150800A270B03B00200060001008580120F857012064
S3150800A280A03B00205452090894AD0808B2AC33F834
S3150800A2909CAD0808100B0A08180B0A089A6B0010E0
S3150800A2A0C89B0020E26B0010285E012050AC08080D
S3150800A2B080AC0808DCAD0808249A080834AC0808FD
S3150800A2C09CAE0808BCAD080818AF08085869001005
S3150800A2D0D0570120CDCCCC3D0AD7233C445209089F
S3150800A2E000007A44BB1F172B00F2AB8101A252F87B
S3150800A2F023F000BF53A7000811A700087D9800089F
S3150800A30043A6000885A6000843A6000879A6000803
S3150800A310C3A70008B7A70008AFA700089BA70008AF
S3150800A3208FA700087FA7000877A700086BA7000873
S3150800A3302DA600087D98000823A6000819A600087F
S3150800A3400FA6000805A60008FDA5000837A6000800
S3150800A350F1A50008F8B25BF087F8FFF78FBA384620
S3150800A36058F07AFFFFF78ABA00283FF487AA5FED0C
S3150800A370240AC64B3846D3F8981DB0EE600A58F042
S3150800A380DFFEFFF77BBAC24845F0A8FC38466BF0FB
S3150800A39091FCFFF773BABE4845F0A0FC63206BF04A
S3150800A3A089FCFFF76BBA00283FF468AAB74BDFEDC4
S3150800A3B0B90AB3F88A2DD3F8981D07EE902AF8EE55
S3150800A3C0E77AB1EE000A67EEA00A384658F0FEFEB4
S3150800A3D0FFF754BAB04B1B78002B3FF465AEDFF895
S3150800A3E02C83AE4846F0D2F898F80030033B012B90
S3150800A3F000F2ED802368AA485E68012240F6B83369
S3150800A40009A9B0470646002840F0EB80A44F06E0AD
S3150800A410042B00F0DA810136072E00F0FE8123684E
S3150800A42038465B6998470A2007F04AFD9D4B9E48C7
S3150800A43053F83610894646F0A9F823684946DB6979
S3150800A440384698470A2007F03BFD3846974966F094
S3150800A45033FF38463EF0A2FB90B198F80030032B44
S3150800A460D6D13846924966F027FF38463EF096FB25
S3150800A4700028D0D18F4846F089F80A2007F020FD39
S3150800A4800DF1300998F800308B4F033B012B3E70D5
S3150800A49040F2C7812368894A5B698148934240F044
S3150800A4A0078241F023FA0A2007F00AFD3A78236862
S3150800A4B07C49DB6951F83210814A7948934240F069
S3150800A4C0058265F03DFA98F80030002B40F0978138
S3150800A4D07C4B7D4A402148460BF0BCFB70484946F8
S3150800A4E066F0EAFE6E483EF059FB002840F082818D
S3150800A4F098F80030032B00F0AC80002B40F08681E2
S3150800A500724B734A402148460BF0A4FB64484946FF
S3150800A51066F0D2FE62483EF041FB002840F06A81B0
S3150800A52098F80030002B40F0C5816A4B5D4A1B68DD
S3150800A530402152F83330684A48460BF08BFB58489E
S3150800A540494666F0B9FE56483EF028FB002840F01A
S3150800A550518198F80030033B012B40F2CD815F48CA
S3150800A56046F014F84C4A002313709DE543464A46C4
S3150800A57001465B4846F00AF85A49DBF82C046FF0A6
S3150800A5809DF88021584666F00BFF00238BF830347F
S3150800A590FFF730B90698FFF781BB8421584666F065
S3150800A5A0FFFE58463FF072F8242061F021FCFFF7C1
S3150800A5B022B940F077FC4C48414645F0E7FF832135
S3150800A5C0584666F0EDFE8BF83094FFF713B9474806
S3150800A5D045F0DCFF464845F0D9FF464845F0D6FF2A
S3150800A5E008E7454845F0D2FF2B4A002313705BE580
S3150800A5F00021012052F04EFBFFF740B93DF09EF8CE
S3150800A600FFF73CB904203DF0A9F8FFF737B9032056
S3150800A6103DF0A4F8FFF732B901203DF09FF8FFF7A7
S3150800A6202DB902203DF09AF8FFF728B9334B0122DD
S3150800A6301A70FFF723B90021084652F02BFBFFF7E3
S3150800A6401DB92F493A4640F25E2053F09FFFFFF7A7
S3150800A65015B91C4B2B4A402148460BF0FBFA10480B
S3150800A660494666F029FE0E483EF098FA002840F062
S3150800A670C18098F8003040E7234B012283F89024E4
S3150800A680FFF7FCB857F0E6FCFFF7F8B85869001072
S3150800A690F8340010CDCCCC3D9918022084A80808BF
S3150800A6A0285E01200C52090844AA08085CAA080872
S3150800A6B064AA080870AA080897180220EDB80408C2
S3150800A6C041F906083037012014AB0808283701205D
S3150800A6D040AB0808541700205CAB0808A4AB080870
S3150800A6E0A0AC0808E0AC080804AD0808B4A8080837
S3150800A6F020A9080874A90808F0A908089D180220C6
S3150800A70000AF080830AB080800300010981802207F
S3150800A710834F844ED7F8F8000D2386F8CC3008B35B
S3150800A7200368DB689847F0EE407AD7F80401C6ED6F
S3150800A730327A002800F0EE800368DB689847F0EE6E
S3150800A740407A794AC6ED677A137801331370FFF7B2
S3150800A75095B8734F734ED7F8F8000C2386F8CC30AB
S3150800A7600028DDD1DFED717ADFE7714B012283F82E
S3150800A7709124FFF783B84BF02FFDFFF77FB86D4B99
S3150800A7806D4801221A7008F071FEFFF777B80121AB
S3150800A790084652F07FFAFFF771B8624B002283F839
S3150800A7A0CC2003F5405383F89024FFF767B84BF0A5
S3150800A7B057FCFFF763B80121002052F06BFAFFF748
S3150800A7C05DB867F0CDFCFFF759B85C495C480DF1F8
S3150800A7D0300966F071FD5A481022494666F082FD36
S3150800A7E009287FF418AE574845F0D0FE0A2007F02E
S3150800A7F067FB47E65448494645F0C8FEB2E6534B60
S3150800A800534A402148460BF025FA67E6514B524A0F
S3150800A810402148460BF01EFA78E6504BFF221A7084
S3150800A820A0E64F49464866F047FD40224946444857
S3150800A83066F058FD4149424866F03EFD40484022D0
S3150800A840494666F04FFD98F80030032B4AD0454933
S3150800A8503B4866F031FD40224946394866F042FDDC
S3150800A8604149374866F028FD35484022494666F092
S3150800A87039FD98F80030032B2AD03C49304866F059
S3150800A8801BFD2F483EF08AF939492D4866F014FD1C
S3150800A8902B483EF083F998F80030032B7FF4FAAD85
S3150800A8A02748344966F008FD25483EF077F9F1E572
S3150800A8B09847F8E5304B314A1B6802EBC303402141
S3150800A8C01B792F4A48460BF0C5F938E69847FAE54A
S3150800A8D02C491B4866F0F0FC40224946184866F0A9
S3150800A8E001FDCAE72849164866F0E6FC40224946B3
S3150800A8F0134866F0F7FCAAE71148244966F0DCFC21
S3150800A9000F483EF04BF900283FF429AE204845F0A1
S3150800A9103DFE24E6DFED057A13E740F0B1FA00BF05
S3150800A920D0A70020000000109C180220000000009C
S3150800A930003000109E180220E857012088AA08084F
S3150800A940285E012094AA0808E0AB080830370120E1
S3150800A95024AB08082837012050AB080897180220AE
S3150800A960ACAA0808C8AA0808D4AA0808ECAA0808BD
S3150800A970FCAA080808AB0808541700200C52090856
S3150800A98070AB0808E0AA0808BCAA08087CAB080847
S3150800A99088AB08080000000010B590F8E03090F881
S3150800A9A0DCC0174C83F0010363F3000C80F8DCC0AD
S3150800A9B04FF48C620021204674F0F7FF4FF4F072D2
S3150800A9C0002104F2644074F0F0FF0E4B9FED0A7B01
S3150800A9D003F5535203F5405382ED027B03F6DC7010
S3150800A9E003F57E6200210024C3F8984901601160CE
S3150800A9F010BD00BFAFF3008000000000000000F0AB
S3150800AA0038350010000000109FED116BD0ED0F7A5D
S3150800AA1080ED030AB5EEC00A0123F1EE10FA80EDC7
S3150800AA20066BC0ED097A80ED0F0A03720BD9DFEDCC
S3150800AA300A6A86EE807AF5EE407AF1EE10FA80ED33
S3150800AA400A7A03D07047054B8362704767F070BE79
S3150800AA500000000000000000ABC222480000C07FD2
S3150800AA60D0B5554C554E0027204632463B463F2129
S3150800AA706EF090FE04F1280032463B4640216EF007
S3150800AA8089FE04F1500032463B4641216EF082FEB3
S3150800AA9004F1780032463B4642216EF07BFE04F113
S3150800AAA0A00032463B4643216EF074FE04F1C8000E
S3150800AAB032463B4644216EF06DFE04F1F000324604
S3150800AAC03B4645216EF066FE04F58C7032463B46E1
S3150800AAD046216EF05FFE3A4B3A49196047201871D5
S3150800AAE0482083F82400492083F844004A209FED33
S3150800AAF02E6B9FED2F7B83F864004B2083F8840030
S3150800AB004C20002283F8A4004D244E2083ED046BCC
S3150800AB1083ED0C6B83ED146B83ED1C6B83ED246B5B
S3150800AB2083ED067B83ED0E7B83ED167B83ED1E7B23
S3150800AB3083ED267B1A721A73196283F8282083F824
S3150800AB402C20196483F8482083F84C20196683F86A
S3150800AB50682083F86C20C3F8801083F8882083F86F
S3150800AB608C20C3F8A01083F8A82083F8C44083F883
S3150800AB70E40083ED2C6B83ED2E7B83ED346B83ED44
S3150800AB803C6B83ED367B83ED3E7B83F8AC20C3F8C4
S3150800AB90C010C3F8E01083F8C82083F8CC2083F8E7
S3150800ABA0E82083F8EC20D0BD002D3101000000001C
S3150800ABB00000000000000000F0220020400D030005
S3150800ABC0581A0020C81F0A080D480E4AC3680E49BD
S3150800ABD09FED097B10B4002443611C7008300462A1
S3150800ABE080F82440094B5DF8044B80ED0A7B45F05C
S3150800ABF099BC00BFAFF30080000000000000000011
S3150800AC00A83B002080130A0858A00808447C0908B5
S3150800AC102DE9F04F2DED048B544891B0FDF708FC53
S3150800AC2020B111B0BDEC048BBDE8F08F0125504969
S3150800AC3000950346462204464E4845F0B7FF4E485F
S3150800AC40046144F08BF84D4B4D4A1B6813801B0C6E
S3150800AC5093704C4B9D63FFF7B7FF60F089FF4A4935
S3150800AC604A4846F093FD4A494A4846F08BFD4A4908
S3150800AC704A4846F087FD4A494A4846F083FD4A490C
S3150800AC804A4846F07FFD4A4B1D78002D40F0658105
S3150800AC90484E494845F07AFC31222946474874F01F
S3150800ACA084FE96F8790165F0F7F896F8740565F06C
S3150800ACB0F3F896F8DF0265F0EFF84149414846F0A7
S3150800ACC065FD414870F050F9404870F04DF9404A2A
S3150800ACD04048536843F40003536070F045F93E4812
S3150800ACE090F83C33002B00F043833C4B9A689B6CEE
S3150800ACF05380202383F3118805F05AFF384B1A78BE
S3150800AD00511E012900F21C8336495960012A1DD1BA
S3150800AD10354A3648116C41F010011164116E41F044
S3150800AD2010011166116E116A41F010011162116A63
S3150800AD3021F0100111622E49126A98604FF48002C0
S3150800AD40702381F83633C1F884214A60244E254899
S3150800AD50B1680268B1FBF2F3013B9BB203FB022226
S3150800AD60914200F00D83234805F09CFD20930020B6
S3150800AD7098130A08B89D0020FCAF0120AC130A08F6
S3150800AD8080930120A83B0020B5BB0608B0130A082B
S3150800AD90A9AA0608BC130A0829140508D0130A0824
S3150800ADA0A1130508DC130A0845170508F0130A0855
S3150800ADB0811802205869001008140A08582B012027
S3150800ADC07D77040820140A08F0950020CC95002009
S3150800ADD000230140A8950020186200203035012084
S3150800ADE0709400201C1900200038024000BD01059F
S3150800ADF000E100E0E0200A08B3F5AA7FC1F045802B
S3150800AE007BB9AF4BAF49B04AB048C3E902214FF40A
S3150800AE10A271102219805A60AD4900221A6146F0C3
S3150800AE20B1FCA74F264646B93B8833B1B8680368D4
S3150800AE301B689847031EC1F2C6820026A54FDFF895
S3150800AE40C0830096B7F84220A3493346404645F0EA
S3150800AE50ADFE0096B7F8D822A0493346A8F5867005
S3150800AE6045F0A4FE00963346B7F82E239C49A8F56C
S3150800AE70D47045F09BFE9B499B4846F083FC9B4B50
S3150800AE801E7097F87135D90703D497F87035DB0922
S3150800AE9048D0DFF84082B8F84410B8F8460040F0C9
S3150800AEA0AFFBB8F870160746B8F8720640F0A8FB6C
S3150800AEB00646002F01F09080874201F0F48298F848
S3150800AEC05C36062B96BF8A4A8A4B52F82330814A4B
S3150800AED0186892F864265968520608AB03C302D567
S3150800AEE001F10043099308A9384606F0C9FE002E69
S3150800AEF041F07580804BC3E90076764B93F871353F
S3150800AF00DB0706D5DFF8FC8298F8AC33002B01F096
S3150800AF10D482704B93F87035DB0941F0B281734BDC
S3150800AF2001221A70754B1B7853B96A4BB3F8EC02B9
S3150800AF303EF0D8FB002801F07A8171483AF0AEFF5E
S3150800AF40644B93F8E463F60941F0B5803EF0A0FD42
S3150800AF503FF00CFC6B4845F019FB6B496B4846F013
S3150800AF6019FC6B496B4846F011FC5A4B93F834238D
S3150800AF70120700F1CF81614B197879B9554B6648AC
S3150800AF801B89692B9CBF654A52F8231045F0FEFAC7
S3150800AF904BF082F86249634846F0F8FB624DDFF8E9
S3150800AFA0688205F580674FF0FF36294632464046E7
S3150800AFB0203509F059F8AF42F7D15C485C4946F0AC
S3150800AFC0E9FB5C4800F5805595F8AC31002B00F09C
S3150800AFD0C581594959485A4D46F0E0FB59495A48DE
S3150800AFE046F0D0FB59495A4846F0CCFB95F85C36F2
S3150800AFF0002B00F0A881574B5A68002A00F0BB8145
S3150800B00058F022FB00283FF40CAE5349534846F04B
S3150800B010B9FB5349534846F0B5FB5349534846F0E4
S3150800B020C1FB5349534846F0B5FB5349534846F0CC
S3150800B030B1FB5349534846F0ADFB5349534846F0D4
S3150800B040B5FB5349534846F0A1FB5349534846F0CC
S3150800B0509DFB5349534846F099FB5349534846F0DC
S3150800B06095FB5349534846F095FB31F0E5F95248AC
S3150800B07057F090FF514B5249524801221A6046F048
S3150800B08081FB5149514846F07DFB514A51480521FB
S3150800B0906CF03AFF5049514846F074FB5049514804
S3150800B0A046F074FB5049514846F070FB50495148E8
S3150800B0B046F074FB5049514846F070FBA6E000BFC5
S3150800B0C09436012068140A088847002070140A0874
S3150800B0D025A306085869001098140A08A0140A0837
S3150800B0E0AC140A08F5AB0608B8140A08A01802201A
S3150800B0F0A8200A08C4200A0878930120811802208B
S3150800B100983400104C150A084136060800140A0837
S3150800B110B15306082894090864150A085452090800
S3150800B12011120508F8110A08B86B002078150A08E4
S3150800B130B54C0208B86F00207D6A0208402108084D
S3150800B14070810020CD4C020888150A08455C020863
S3150800B15094150A08E83B00203D2C0608A0150A08A5
S3150800B160F52B0608AC150A08192E0608B8150A089C
S3150800B170352D0608C4150A08E52C0608CC150A0854
S3150800B1800D2D0608D8150A085D2D0608E4150A08C7
S3150800B190111E0608EC150A08ED1D0608F8150A081A
S3150800B1A06D1D060800160A08911D06080C160A08E1
S3150800B1B0B51D060818160A08882B00109893012052
S3150800B1C045BF050820160A08FDD9050840160A08CD
S3150800B1D065BF05084C160A08C5C5050864160A0899
S3150800B1E0DDDB050870160A08E5DB05087C160A0883
S3150800B1F0B5C5050888160A08BDC50508487B0908A7
S3150800B200E89E002090CD0010B0A50020764977482A
S3150800B21046F0C8FA7649774846F0C0FA764977483C
S3150800B22046F0C0FA7649774846F0BCFA7649774838
S3150800B23046F0B8FA7649774846F0A8FA7649774844
S3150800B24046F0ACFA7649774846F0A8FA7649774840
S3150800B25046F0A4FA7649774846F0A0FA7649774840
S3150800B26046F09CFA7649774846F08CFA764977484C
S3150800B27046F094FA7649774846F084FA764977484C
S3150800B28046F090FA7649774846F08CFA764B1B7862
S3150800B290002B00F00382754C7549012500234822CE
S3150800B2A02046009545F082FC002372490095472206
S3150800B2B004F10C0045F07AFC6F4B93F87D35DB07FB
S3150800B2C000F1EB85684B1B780BBB6C48036143F0B8
S3150800B2D045FD694BB3F8184520463EF003FA38B1E8
S3150800B2E09FED670A674B68496848224664F010FE76
S3150800B2F0614BB3F8284520463EF0F4F938B19FED86
S3150800B300600A634B60496348224664F001FE35F0E3
S3150800B31071FD86E493F84F27002A3FF42CAEB3F864
S3150800B32042003EF0DFF900283FF425AE00220092E5
S3150800B330594B5A487F224FF4CA6107F0BBFF1AE6F9
S3150800B340574805F0AFFA0123D5F8581685F85C3644
S3150800B35028463DF069F8C5F860064CE60123D5F89D
S3150800B360A81185F8AC311AF035FCC5F8B00130E6FD
S3150800B3703EF048F8B9E44B4A1168596013603FE655
S3150800B380D0E90201F26821F0FF010027176050603A
S3150800B390936217610223D160337005F01FFB2023E7
S3150800B3A083F3118805F004FC05F0CCFE3378022BF4
S3150800B3B040F06885032372683370F3685268092180
S3150800B3C0D962012159615F621F6112B1DA680A43C5
S3150800B3D0DA6085221A6005F001FB33493348344E9A
S3150800B3E046F0D4F9012768E0F1C60508BCE4080868
S3150800B3F0C9C505083C24080855C0050890160A085A
S3150800B400A1C00508A4160A08EDC00508BC160A0856
S3150800B41045F20308D8160A0845C00508E0160A08C2
S3150800B42035C00508F4160A0831C2050804170A08C3
S3150800B43039C2050814170A0885C1050824170A0819
S3150800B4407D9505082C170A0841C2050838170A0809
S3150800B45085B5040850170A08010106085C170A088A
S3150800B46039C1050874170A0881180220C49D0020EE
S3150800B470581A0A086C1A0A0858690010D8B0012028
S3150800B48000401C465C1900208C1A0A085046002009
S3150800B49068190020C8460020ADC004086865002069
S3150800B4A0F0200A0804180020C18804082C140A0889
S3150800B4B0342B0120384606F003FD3368012BF9D9F1
S3150800B4C0694B93F8E523170778D5D3ED757ADFED41
S3150800B4D0676A9FED676A93F870359FED660A67EEAF
S3150800B4E0A67AB6EE007A67EE877A180786EE277A86
S3150800B4F0614BDFED626AD3ED007A9FED616A27EE54
S3150800B500267AF4EEC67A48BF37EE077AF1EE10FAD5
S3150800B510D8BFF0EE477AF0EE046A27EEA67AB4EEC4
S3150800B520C07AF1EE10FA00F338879FED507A67EE8D
S3150800B530877A87EE800A63F035F8524B00225A6004
S3150800B540B0EE087AC0EE076AF7EE004A36EEA45A5D
S3150800B550BFEE007AA0EE005A74EEE65A84EE856ACB
S3150800B560A0EE007AE0EE005A37EE077A66EE866AB3
S3150800B57067EE067A26EE256AB1EE667AC3ED006AAC
S3150800B58083ED027AC3ED037A83ED046A364B93F8AA
S3150800B5902F365907C3F3800600F18B863A480322F3
S3150800B5A056213EF0E9FF3948032257213EF0E4FFD1
S3150800B5B0374890F83C33002B00F001872A4B93F864
S3150800B5C03433DE0700F1DD85274B93F834339A07C9
S3150800B5D000F1D285244B93F834335B0700F1C78515
S3150800B5E0214B93F83733DF0700F1BC851E4B93F8E0
S3150800B5F02D361E0700F1B1851B4B93F82D36D8065C
S3150800B60000F1A685184B93F8343F002B3FF409AC9C
S3150800B610204E0F335B010022C6E9232306F1A8005A
S3150800B6200123142286F8A330C6F8942044F056FB6A
S3150800B630B369002B00F0F485174A1388516819443A
S3150800B64089B222460120002A7FF4DAAB002B3FF4A8
S3150800B650D8ABB3F5A27FBFF4CFABB1F5A27F024654
S3150800B660F1D9FFF7DEBB00BF58690010DB0F494070
S3150800B67000006144809F5548E078001000007A4435
S3150800B6800AD7233C0475012050140A085C140A08DA
S3150800B690D05E00208847002094360120BC49BD486A
S3150800B6A046F070F8BC4ABD4805216CF02DFCBC4A32
S3150800B6B0BC4810216CF028FCBB4ABC4811216CF030
S3150800B6C023FCBB4ABB4810216CF01EFCBA4ABB4897
S3150800B6D011216CF019FCBA4ABA4811216CF014FC15
S3150800B6E0B949BA4846F04EF8B949BA4846F04AF850
S3150800B6F0B949BA4846F046F8B94ABA4805216CF03D
S3150800B70003FCB949B94846F03DF8B949B94846F085
S3150800B71039F8B949B94846F039F8B949B94846F047
S3150800B72031F8B949B94846F02DF8B949B94846F04B
S3150800B73029F8B949B94846F029F8B948B94A11214A
S3150800B7406CF0E2FBB84890F83C33002B00F02A84F2
S3150800B750B64EA6F2AC5557F03BFEB548314644F016
S3150800B7603BFBB5F8CA023DF0BDFF68B105F2C463FC
S3150800B77093ED000ADFEDAF0AAF4AB049B048B8EE1C
S3150800B780C00A00236CF0DCFAAE4BB3F9E420B3F937
S3150800B7905210914201DAA3F85220AB4BAB4FAC4D95
S3150800B7A0AC4EDFF8A0927B6003F14001B96003F16B
S3150800B7B05001F96095F8011BDFF800B34FF07E528F
S3150800B7C04FF0140840F2947ABA613A617A61B2612C
S3150800B7D03261726118FB01A103F16002494405F662
S3150800B7E00430726003F1A002B033B260F36044F033
S3150800B7F0F3FA95F8511BC5F8347B18FB01A14944A7
S3150800B80005F65430C5F838BB44F0E6FA95F8A11B9E
S3150800B810C5F8846B18FB01A10BF17803494405F6BA
S3150800B820A430C5F8883B44F0D7FA95F8F13BC5F83B
S3150800B830D47B18FB03A149440BF1F00305F6F43059
S3150800B840C5F8D83B44F0C8FA0BF5B473C5F8283CDC
S3150800B850C5F8246C51F064FB99F8E433590600F1F5
S3150800B86094837D483AF01AFB7C483AF017FB7C48EB
S3150800B8703AF014FB7B483AF011FB01205FF09CFB81
S3150800B880704B93F83723920640F11F8393F871257E
S3150800B890D70704D593F87035DB0940F09D857249C2
S3150800B8A040F25E2052F072FE664D95F82D369E06E1
S3150800B8B040F11E8395F87035DB0940F077836B49B4
S3150800B8C040F25E2052F062FE212038F059FF48B956
S3150800B8D05C4B674DB3F86283B3F86473AB68002BAF
S3150800B8E000F08285574B93F81E124B1E2F2B0AD851
S3150800B8F0604CDFED500A9FED600A20463EF0A4FE3C
S3150800B90020463AF0CBFA4F4D5C4995F836025C4F23
S3150800B91060F012F895F82C035A4960F00DF859F0C2
S3150800B92009FB05F64256002405F6735515F8012F4E
S3150800B93036F8021F013438463EF01EFE082CF5D1B3
S3150800B9405149524845F02EFF5149524845F01AFFD1
S3150800B9505149524845F016FF5149524845F016FFDD
S3150800B960384B93F87D355C0600F166834E494F489F
S3150800B97045F008FF4E4B93F827201AB94D4A11682F
S3150800B980D96213604A4E4C4CB4614EF6602297E079
S3150800B990F923060888170A08A123060898170A082B
S3150800B9A07D300608A8170A085D300608B4170A0885
S3150800B9B031310608C0170A0811310608CC170A08DB
S3150800B9C0AD310608D8170A0805240608E4170A0838
S3150800B9D08D220608F4170A089922060800180A088C
S3150800B9E0352206080C180A086124060818180A08D9
S3150800B9F0F912060828180A08F954060838180A0811
S3150800BA00452306084C180A08F52206085C180A0891
S3150800BA10B524060868180A080513060874180A08DB
S3150800BA2080180A0839320608308D0020046F001085
S3150800BA30C0060010000000005C9E00208C180A0852
S3150800BA403040002058690010F09C0010B8B0012062
S3150800BA500010001098B0012070B0012060B00120DD
S3150800BA6050B0012040B00120A0180A08D8180A08CA
S3150800BA70A08D0120A88C0020CDCC4C3D088D00203F
S3150800BA8014190A08E08C0020A5E4060820190A08FB
S3150800BA90B5E9030830190A084561040844190A0873
S3150800BAA039A2060854190A08C15C0408787E0808F1
S3150800BAB040470020A0AC0020CE6E0010E83C0020D5
S3150800BAC00023C6E90223304604F22A6300253362BE
S3150800BAD086F826503EF02EFEB34BB44A5A60012132
S3150800BAE002F5807286F827109A604FF07E5620324B
S3150800BAF0AF489E6129461E615E61DA6035F0A6F898
S3150800BB00AC4BAD4AAD48AE495A6002F580729A60B0
S3150800BB104160103201F58071DA608160A94A9E6140
S3150800BB201031C1601031516040311E615E61916013
S3150800BB30A54B9661103116615661D16001F160021C
S3150800BB401031C3E901128661066146619E611E6174
S3150800BB505E6101F160029D4E9D4FDFF820A3DA6019
S3150800BB60A4F27654B4F8DC8940463DF0BBFDA0B398
S3150800BB70B4F8E0B9974B984942464FF00C0807EEDF
S3150800BB8090BA08FB0538BBF10009404618BF4FF0CC
S3150800BB900109B8EE678A45F0B1F8BBF1000F40F02D
S3150800BBA087815AF8253004F606225A604FF07C52EF
S3150800BBB09A6104F6E6129A604FF080421A6104F61A
S3150800BBC0F612DA604FF07E525A61C6E9048304F62B
S3150800BBD0DC1386F80890F76073600135042D04F1CC
S3150800BBE06C0406F1180607F17807BBD17B4C7C4D2F
S3150800BBF094F8643404F29C50002223F0070305F5F8
S3150800BC001861A5F8002684F8643444F0E5F895F838
S3150800BC10CD30744DD8064CBF04F5986004F5916094
S3150800BC20714C294644F0D8F8204631F0F9FB53F018
S3150800BC3055FDA4F5BA62002182F85814A4F5BA7223
S3150800BC406A4B1360A5F2F455A4F5A87268486949C9
S3150800BC50136045F097FD95F8CD30D9064CBFA4F58D
S3150800BC608870A4F5A4705E4C04F2F45104F2FC53F7
S3150800BC7004F5BF620D681968C36A12685A600268DB
S3150800BC801D605268996090475B495C4845F07AFDAB
S3150800BC905B4B1B78002B36D1504B5A4A5A485B49A6
S3150800BCA05B4D5C4EC3E9F0025B4845F06BFD5B49B2
S3150800BCB05B4845F067FD5B4B5B495C4A5D614FF04D
S3150800BCC07E508861086190611061186104F6C4109D
S3150800BCD0C860574848615748986157489860063081
S3150800BCE0D86004F6646004F51D64C1E9010453498B
S3150800BCF0566004F66C3400F5DD60C2E90240556111
S3150800BD00596052F021FD364B93F87C359A0600F1BE
S3150800BD10608150F0FFFF4A494A4821F08DF94A4BA5
S3150800BD204A49A3F6A4624FF07E54B2F84C00484A3A
S3150800BD304B60A3F59C65A3F2D4468C6124330C6151
S3150800BD4094611461434CCD60C2E90136D560384B25
S3150800BD508E6000254B61536125703DF0C3FC58B1D8
S3150800BD602B46DFED3D0A9FED3D0A3D4A3D493E48DB
S3150800BD706BF0E6FF01232370194B3C4CB3F83A0EDF
S3150800BD80002525703DF0AEFC00283FF484AA2B461A
S3150800BD909FED320A364A37493748F6EE000A6BF005
S3150800BDA0CFFF012323706BE0D0BC002084A70010CE
S3150800BDB0A01C0010A89B0020C4A80010789800209A
S3150800BDC0E4A900105898002038980020B88D012062
S3150800BDD0C88800202C1900200C1A0A080000001038
S3150800BDE0586900104C6F0010D00500100000C8C23A
S3150800BDF0141A0A08E9B305088DAD0408201A0A08BA
S3150800BE0081180220281F0020F01F0020ADCC05084D
S3150800BE100AD7233C547E00102C1A0A08E1A4050808
S3150800BE20381A0A0820B0012094750120108D0120C7
S3150800BE300000C842CDCCCC3D3CAE001018AE001078
S3150800BE406F861400B4BC0020FC770010A4A700205D
S3150800BE5084A70020C2180220CDCCCC3D0000C07FAC
S3150800BE609C9E0020401A0A0850880020C11802200B
S3150800BE70DC9E00204C1A0A08D8870020FC200A08F5
S3150800BE80FFF709BAC14804F00DFDB1F5AA7F4FF0D6
S3150800BE9001027FF6D8ABFEF7C4BFBD4B1B78002B5B
S3150800BEA07FF435AABB49BC4845F06CFCFFF70ABAD3
S3150800BEB0BA4BDFEDBB0A53F82510B0EE480A00234B
S3150800BEC0424638466BF03CFF6BE693F84C32013B32
S3150800BED02F2B02D8B34839F0E1FFB34B93F84D3214
S3150800BEE0013B2F2B3FF6E0ACB04839F0D7FFDBE437
S3150800BEF0AF49B04895F8D76245F044FCAE49AF481B
S3150800BF0045F040FC30463DF0A1FDAD4BC3F8580363
S3150800BF10002800F0E18203F2463603F26F379B46AB
S3150800BF2005F55B7503F5807A039405E00BF1200BA4
S3150800BF30D34505F102056DD000234FF0010826F818
S3150800BF40028F07F8013F9BF87C0338F019FC04467A
S3150800BF500028EBD1B5F8009048463DF0C3FB002811
S3150800BF60E4D0974B494603F55770C3F8604343F04E
S3150800BF703DFC9448424649463EF0FEFA2B883380FB
S3150800BF800BF55E7039F08AFFD0E78F4857F0BAFA9A
S3150800BF908E4857F0B7FA8E4857F0B4FA8D4857F0DE
S3150800BFA0B1FA5EE43DF02EFAFFF7D2BB8A4857F0A5
S3150800BFB0A9FA8A4857F0A6FA894857F0A3FA894891
S3150800BFC057F0A0FA884857F09DFA884857F09AFA29
S3150800BFD07AE454F0B3FD9CE600283EF4A3AF724B16
S3150800BFE093F85E36062B00F24A81814A52F82330CE
S3150800BFF06D4A186892F864265968D20906AB03C3D5
S3150800C00002D001F10043079306A9304605F038FE31
S3150800C010FEF770BF6A4D039C95F83C33002B7FF4FE
S3150800C02053AC0123D5F8381385F83C3328463CF041
S3150800C030D3F9C5F8400347E46E4B93F8D421002A98
S3150800C04000F0088193F8D521002A00F01581D3F86D
S3150800C050D8310B939DED0B8A18EE100AFCF75AFBA4
S3150800C0600446224664480B460D4644F08FFAB4EE61
S3150800C070488AF1EE10FA80F1E180DFED607AB4EEDD
S3150800C080E78AF1EE10FA00F3D980DFED5D7AB4EEB7
S3150800C090E78AF1EE10FA00F1D1805A4844F076FAB0
S3150800C0A0544B40F20111002283ED648AA3F88C11E7
S3150800C0B083F88E215AE493F8D829052A00F21182CA
S3150800C0C0DFE802F03639332C034340F2F1134E49C8
S3150800C0D000220B804D4B4E481A8039F0DFFE4D4842
S3150800C0E039F0DCFE304B4C4993F8E4230E70900689
S3150800C0F07EF52CAF93F8D829052A00F2F98101A319
S3150800C10053F822F03DC100083DC100083DC10008B2
S3150800C1104DAF00083DC100084DAF00083A4B4FF43B
S3150800C12021721A8040F28522D4E74FF4D073CEE705
S3150800C1304FF4F873CBE74FF40073C8E7374940F676
S3150800C1406E0052F023FAFEF701BF40F20933BEE74C
S3150800C15006203FF0D7FAFFF755BA05203FF0D2FA86
S3150800C160FFF74ABA04203FF0CDFAFFF73FBA03209B
S3150800C1703FF0C8FAFFF734BA02203FF0C3FAFFF7D8
S3150800C18029BA01203FF0BEFAFFF71EBACC200A08EA
S3150800C1908118022011A30608801A0A082C210A0809
S3150800C1A0000000008CB001205869001080B0012002
S3150800C1B02106050800190A087906050808190A0853
S3150800C1C09027002034810808508B0020188B002007
S3150800C1D0E08A0020A88A0020788C0020488C00205D
S3150800C1E0188C0020E88B0020B88B0020888B002054
S3150800C1F0A8200A08D0A7002060190A080000DC4217
S3150800C200000070429C1A0A087E1802207C18022038
S3150800C2105848002038480020C01802200C150A0883
S3150800C220B94B1A68B26114361E60FFF705BAB74BE8
S3150800C23093F89C046DF0A4FAFEF782BEB449224630
S3150800C2402B4640F6B20051F0D5FDB24844F09EF9AF
S3150800C250FFF78CBBD3F8DC4174B1236820469B6892
S3150800C260984748B1236821465B680AA898479DF80D
S3150800C2702830002B7FF4EEAE9FEDA78AECE6A74B9D
S3150800C280B6E6A748C0F8687327B190F83C33002B88
S3150800C29000F01081A348C0F86863002E3EF43FAE54
S3150800C2A090F83C33002B7EF43AAE3DF0ABF8FEF73F
S3150800C2B036BE9D4BDFED9D9A9FED9D9ADFF8B4A2A1
S3150800C2C00FCB10AF07E90F004FF0000900279FEDCD
S3150800C2D0998A0DF1300BB84607EE907AF8EEE77AB0
S3150800C2E0FBEC018A77EEA77A08F1010827EEA90A7E
S3150800C2F04F4480EE090A6FF099FAB8F1040FA8EED8
S3150800C300808AE9D109F10109B9F5806FAAEC018A99
S3150800C310DCD1894BDFED876A1868DFED885A9FED17
S3150800C320886ADFF854C205EE104AAE464FF47A67BB
S3150800C33000220CFB02F307EE903AF8EEE77A411C6E
S3150800C34067EEA57A914237EEC67AB0EEC77ABDEEA9
S3150800C350C77A17EE103A05D1B8EEC57A37EEC77A1E
S3150800C360F0EEC76ABB4204DABDEEE75A1F46B64688
S3150800C37010460132B2F5007FDBD1BEF1000F01D0C5
S3150800C3806D4B18606F4B15EE101A03F69812A3F84A
S3150800C3909619C2ED006AFFF701B917EE900AFCF785
S3150800C3A0B9F902460B46CDE90023674954A3D3E9F8
S3150800C3B0002340F25E2052F0E9F8FFF7E7B83DF0B7
S3150800C3C021F8FFF7FBB83246604940F25E2052F08A
S3150800C3D0DDF80126FEF727BD5D4857F093F85D485E
S3150800C3E057F090F8FFF760BA40463DF07BF9002811
S3150800C3F03FF478AA38463DF075F900283FF472AA4A
S3150800C400554E0522304641463EF0B6F805223946D5
S3150800C41030463EF0B1F840466BF0D0FD4146286004
S3150800C42030463DF047FE686038466BF0C7FD394632
S3150800C43003463046AB603DF03DFE6A682968E86011
S3150800C440012606FA02F292B20A8306FA00F3AA68ED
S3150800C4509BB213830DF113010F23284632468DF83C
S3150800C460133065F0BBF932460DF11201284665F026
S3150800C470CFF99DF81230B12B2BD0BD2B7FF432AA01
S3150800C4804CF220433446354DADF814302846022286
S3150800C49005A92C6165F0A2F9012331482B7539F0FD
S3150800C4A0FDFCFFF71FBA2F4940F25E2052F06EF8E6
S3150800C4B0FEF738BD3CF0A6FFECE60123D8F8A81332
S3150800C4C088F8AC3340464DF0FBFFC8F8B003FEF7DA
S3150800C4D020BD44F21043D6E7234844F057F8FFF747
S3150800C4E0F3B9224940F66E0052F050F82E46F9E5A7
S3150800C4F01F4940F66E0052F049F8FEF727BD00BF07
S3150800C50000000000F0B30A410418002000300010B3
S3150800C51090190A08BC190A0867A6CA42C4200A085C
S3150800C52020CA0010B0C6001098000808DB0F494062
S3150800C53000C07F4400000000F06601200000803A39
S3150800C54000007A450010001030140A087C140A0806
S3150800C550D04800209048002010190A08A08D012014
S3150800C56028460020C0140A0840810808EC140A0866
S3150800C57034150A08A41101207E56030000000000A5
S3150800C58038B59FED216BDFED227A224B0360044616
S3150800C59000250123036480ED0E6BC0E90755C0E949
S3150800C5A00955C0ED017AC0ED027AC0ED037AC0EDF7
S3150800C5B0047AC0ED057AC0ED067AC562C0ED0C7A3C
S3150800C5C080F8345080F8445085644C306AF0F6FFA1
S3150800C5D0114BA4F8B0504FF0824284ED206B84EDE5
S3150800C5E0266B84ED2E6B84F87C50C4F88850C4ED15
S3150800C5F0237AA4F89050C4ED287AC4ED297AC4F8B1
S3150800C600A820C4F8AC3038BD00000000000000F0D7
S3150800C6100000000010350A08CDCCCC3D0000000013
S3150800C6209FED0F7B002200B5C0F8A4104FF0000E56
S3150800C6300D49C0F80CE0C0F820E0C0E90422C0E9C2
S3150800C640062280ED0E7B80ED347B5DF804EB4260BC
S3150800C65082600160426242F0A1BF00BFAFF3008072
S3150800C66000000000000000F0F8340A08000000008E
S3150800C67010B59FED136BDFED147A144CC0ED147AE8
S3150800C68000234FF0010C836280ED126BC362C0E990
S3150800C6900833C0E90A33C0E90C33C0E90E33C0E9F0
S3150800C6A01033C0E9033300F10C0E03604371436194
S3150800C6B0C36180F854C0836180F804C0846010BDEB
S3150800C6C000000000000000000000C07F3C210A08AE
S3150800C6D02DE9F84FE24CE34BE349E44FE44ADFF82F
S3150800C6E0DCC32DED028BC4F850343C33C4F8543403
S3150800C6F004F25C4300251D6004F58C6304F5866826
S3150800C7001D6004F27443C8F800501D6004F58F6379
S3150800C71004F234481D6004F27C43C8F800501D60DA
S3150800C72004F5906304F587681D6004F28C43C8F825
S3150800C730005004F23C481D6004F59263C8F80050A6
S3150800C74004F588681D6004F29443C8F8005004F2A2
S3150800C75044481D6004F59363C8F80050C4F84C14A7
S3150800C76004F5896804F22C411D6004F5946E04F200
S3150800C7709C4300260D60C8F8005001214FF07E58F2
S3150800C7801D6084F85864C4F86464C4F86864C4F81E
S3150800C7906C64C4F87064C4F88464C4F8A814C4F853
S3150800C7A02874CEF80080C4F8E01404F59661B14BFD
S3150800C7B00B6004F5976104F2A44E0D6004F2BC41C7
S3150800C7C0CEF800500D6004F2AC4E04F2E441CEF807
S3150800C7D000200A6004F59D62A74F136004F598606F
S3150800C7E0C4F888C4C4F8C074C4F8B464C4F8EC6463
S3150800C7F042F00CF80021002004F5B063C3E90001FB
S3150800C80004F5B26343E9020104F294521D6004F58B
S3150800C810B36304F29C504FF0704784F87865C4F807
S3150800C8207C6515601D606AF0C9FE04F5C46084F86D
S3150800C830D06584F81866A4F8386684F83A6600263F
S3150800C840C0E9006704F5C66004F2146240E90267AD
S3150800C850C0E900678949156004F2D45343F8041BFC
S3150800C8609A42FBD1DFF858824346002743F8047BF7
S3150800C8701F60834BC4F84036824BC4F84836824B57
S3150800C880C4F8B83630330026C4F8BC3608F174004C
S3150800C8907E4BC8F83060C4F84466C4F88066C4F8AD
S3150800C8A0586684F89D66C4F87066C4F87466C4F859
S3150800C8B07866C4F88466C4F88866C4F88C6684F812
S3150800C8C09C66C4F8AC66C4F8B066C4F8A836C8F85E
S3150800C8D05470C8F80870C8F81070C8F81470C8F80A
S3150800C8E01870C8F81C70C8F82070C8F84870C8F8DE
S3150800C8F04C70C8F868706AF061FED4F8F436C4F86B
S3150800C900046703F07043C4F8F436614BC4F8F03694
S3150800C9109FED518B5F4BC4F800375F4BC4F8103757
S3150800C92008F1CC00012384F8F76684F82267C4F876
S3150800C930246784F82867A4F8203788ED2B8B88EDC0
S3150800C9402F8B43F0CBF9D4F874375448C4F8300722
S3150800C9505B0D5B05C4F87437D4F88C375048C4F8B7
S3150800C96038075B0C5B04C4F88C37D4F85C374D4841
S3150800C970C4F8580703F07E434B48C4F85C37C4F83C
S3150800C98070074A4B4A48C4F888074A48C4F8B0377B
S3150800C99008F6B415C4F890072433474884F8346772
S3150800C9A0C4F83C67C4F84067C4F86067C4F86467AD
S3150800C9B0C4F87867C4F87C67A4F8946784F8AC6709
S3150800C9C0C4F8A80784F85F67A4F87667A4F88E67A2
S3150800C9D088ED478B88ED4D8B88ED3F8B88ED418B35
S3150800C9E088ED538B88ED558BC4F8B43705F63403B8
S3150800C9F0F7EE007A1F6005F6380305F638121F6051
S3150800CA0005F63C03C8ED647A1F6008F5905384F870
S3150800CA10B8671F6005F65403C3ED007A05F6580398
S3150800CA20C3ED007A05F65C03C4F8C4671F6005F613
S3150800CA30880384F8C8671F6008F59253C4F88068AD
S3150800CA401F601423C4F8846842F8F87C42F8D87C3E
S3150800CA50C8F8707136E000BF00000000000000F062
S3150800CA600000001004360A08E869001098350A081C
S3150800CA70002474C900247449F0350A080000C84225
S3150800CA802C390A085C360A08C0390A080C3A0A081A
S3150800CA9078360A0894360A08B0360A08D0360A08DC
S3150800CAA0F0360A0884390A0848390A0810370A0885
S3150800CAB010390A082C390A08F4380A08302C0808EC
S3150800CAC04C060010C8F87471C8F88071C8F88471EB
S3150800CAD0C8F88871C8F88C71C5F82868C5F82C6834
S3150800CAE0C5F83068C5F84468C5F84868C5F8506898
S3150800CAF0C5F88468C5F89068C5F89468C5F8983884
S3150800CB0002ED048B2822C5F89C284FF4FA62C5F872
S3150800CB10A02841F27072C5F8A42805F6B40205F6F5
S3150800CB2044131760382285F8D02805F6D402BC4984
S3150800CB30176005F60812BB48176005F614121F6041
S3150800CB40176005F6341205F5156308F5965801F1D0
S3150800CB50240CC5F8C818C5F800093146176005F64B
S3150800CB6054104022C5F8CCC8C5F83C69C5F84069D8
S3150800CB70C5F8A868C5F8AC68C5F8B068A5F8B86877
S3150800CB80C5F8BC68C5F8C06885F8D168C5F8D8681E
S3150800CB90C5F80469C5F81069C5F81869C5F81C69A7
S3150800CBA0C5F82069C5F83869C5F84C69C8F8007031
S3150800CBB01F6072F0FAFE05F6981205F51A631760FB
S3150800CBC0C5F894694FF4000205F51B6600204FF07E
S3150800CBD000411A6046E9020105F69C1305F526642C
S3150800CBE01F603346C3E902011A6010339C42F9D12B
S3150800CBF005F6481322608C4A1A60B7EE008A05F6D5
S3150800CC00BC2282ED008A894AC5F83029884AC5F8C7
S3150800CC10702A884A884EC5F8882A6FF00042002490
S3150800CC20C5F8A42A05F6B82200274FF000084FF0E9
S3150800CC3070494FF0012346E9020106F180002146BA
S3150800CC401760C5F8A83AC5F8AC3AC5F8B03A40E94D
S3150800CC500289C6E90289C6E90889C6E90A89C6E9D0
S3150800CC601889C6E91A89C6E91C8985F8744A85F8B7
S3150800CC70804AA5F8A04A85F8A24AA5F8B44A85F8D4
S3150800CC80C44A6AF0B9FC6D4BC5F8F03A0121303355
S3150800CC9006F1D000C5F8F43A6AF0AEFC684BC5F860
S3150800CCA0403B0221303306F59070C5F8443B6AF0E4
S3150800CCB0A3FC644BC5F8903B0321303306F5B870E6
S3150800CCC0C5F8943B6AF098FC5F4BC5F8E03B3033F7
S3150800CCD0C5F8E43B5D4BC5F8303C3033C5F84C3CF1
S3150800CCE005F63C4306F5F0701F6005F64443C5F8A3
S3150800CCF0344C1F60C5F8384CC6F8D071C5F8484C96
S3150800CD006AF05CFC524BC5F8A03C05F6A44306F550
S3150800CD101C7B1F6005F6A84380211F6005F6AC43FF
S3150800CD2058461F6005F54B63C6E99A891F6005F6E4
S3150800CD30B443C5F8804C1F6005F6BC43C5F8844C5F
S3150800CD401F60C5F8884CC5F88C4CC5F8904CC5F8DA
S3150800CD50944CC5F8984CC5F8B84C33F063FF05F603
S3150800CD60C4434FF400721F6005F6C84321461F608E
S3150800CD7005F6CC4358461F60C6F85072C5F8D04C25
S3150800CD8072F013FE334BC5F8F03E80214FF4802332
S3150800CD9006F59460C5F8E03EC5F8E44EC5F8E84ED9
S3150800CDA085F80C4F33F03EFF06F5916042F096FF8A
S3150800CDB0294B9FED2A6A93F822349FED297A07EECC
S3150800CDC0903AF8EEE77AF1EE046A67EE867A06F5A7
S3150800CDD0946067EE877A87EEA67AFCEEC77A17EE36
S3150800CDE0901A33F01FFF1F4BC6F8A83606F52C60BD
S3150800CDF006F52B6383ED008AC6F8B84A42F06EFF43
S3150800CE00BDEC028B184A194B86F8AC4A86F8B44A28
S3150800CE10C6F8CC4AC6F8C82AC6F8D03ABDE8F88F8C
S3150800CE2050370A0890370A080000C842D0380A085E
S3150800CE30B4380A08AC370A08701A001068380A08A5
S3150800CE4068380A0868380A0868380A08C8370A08AD
S3150800CE5014380A0830380A0858690010CDCC4C3DF9
S3150800CE6000007A442C390A084C380A082C390A0872
S3150800CE7070B5214ED6F8E036D6F87048A6F8E4061E
S3150800CE80013382B00546C6F8E036ACB1002306F594
S3150800CE90DF6001E0A3420FD01A010133815AA9428B
S3150800CEA0F8D1164C1444204642F018FF144802B034
S3150800CEB0BDE8704042F012BF04F0ECF8D6F87038BE
S3150800CEC0104C0190172B0FD803F26F619FED087B6A
S3150800CED004EB011484ED007B258101330198C6F823
S3150800CEE0703804F077FFDEE7019804F073FFDDE79A
S3150800CEF000000000000000F000600010F06600105E
S3150800CF00E8660010000000102DE9F04F2DED068BA5
S3150800CF100123DFED5BAA85B00A24BFEE009AB8EEBE
S3150800CF20008AF6EE008A06461D4629EE08AADFEDB7
S3150800CF30559A2AEE09AA4FEA450B32464FEA051AD0
S3150800CF40E800B7EE009A0021871802F10409904616
S3150800CF500B46D7ED010A97ED000A69EE207A20EE16
S3150800CF60E97AE9EE807A5B44A9EE007AF4EE477A2C
S3150800CF70F1EE10FA58D698ED016A59ED016A36EEC7
S3150800CF80676A76EEC76A87ED016AC7ED006A98EDAB
S3150800CF90016A59ED016A77EE867A36EE877AB3F535
S3150800CFA0806F09ED017A5744C8ED017AD144D0441F
S3150800CFB0CFD369EE8A7A2AEEE97AE9EE2A7AAAEED8
S3150800CFC0097AB4EE677AF1EE10FA40D60131A94231
S3150800CFD039EE079A79EEA79A02F10802B4D1013C14
S3150800CFE01DD05846FBF774FB02460B4622A1D1E931
S3150800CFF00001FBF711FDFBF7BDFE09EE100A29EE4D
S3150800D000280A6EF083FCB0EE40AAB0EE490A6EF02C
S3150800D0107DFC5D46B0EE4A9AF0EE40AA85E705B07B
S3150800D020BDEC068BBDE8F08FF0EE691AB0EE491A32
S3150800D030CDE90202CDE9003172F0DCF9DDE9020240
S3150800D040DDE90031B0EE407AF0EE607A93E7F0EE73
S3150800D0506A1AB0EE4A1AF0EE690AB0EE490ACDE944
S3150800D0600102009172F0C6F9DDE901020099B0EEFD
S3150800D070407AF0EE607AA9E700000060FB2109C05B
S3150800D0802EBDBB33000000002DE9F04FC84BC94C3C
S3150800D090C949CA482DED068BC3F82C44C84C1C60F8
S3150800D0A00022C84CC3F83444C3E90122C64C83F8AD
S3150800D0B03024C64B0B60C1F86446C54BC54C1A7084
S3150800D0C08125C1F858566360E360C34DC34B81F8A8
S3150800D0D05C260026C24925604FF07047C0E9006704
S3150800D0E0C04D0D606420C1E90620086203F12801DD
S3150800D0F003F14000C3E902111960586003F12001E9
S3150800D10003F11800C3E90600C3E90811B648B74990
S3150800D1101A6100F128051A754FF47A7C0B460560EA
S3150800D120B34FC560C4F808C000F11804C0E9064446
S3150800D13000F1400600F1200443F8247BC0E90844C6
S3150800D140C1E9022285604660026102750A7183B0F0
S3150800D150A431FF2043F8102C03F80C2C23F80A2CD2
S3150800D16003F8082C03F8070C03F8062C1033994229
S3150800D170F0D1A049A04BA14CC3F89C4001F1340062
S3150800D1801425C3F894505861002444F620604FF0E3
S3150800D1907045C3E92A451960C3E9022298491A71FC
S3150800D1A0C3E90622C3E92322C3F89800954B96489B
S3150800D1B0964C0860862581F83C23C1F84823C1F8B7
S3150800D1C03853C3F83853C1F8444301259049C3F886
S3150800D1D0485318608F4D83F83C238720C1F8A8036D
S3150800D1E00520C3F84443C1E9ED508B4B81F8AC23C5
S3150800D1F09FED698B894A0A60002703F5C0729F6014
S3150800D20083ED068BDF6083ED088B83ED0A8B1F6049
S3150800D21083ED0C8B1F6183ED0E8B83ED108B83EDF5
S3150800D220128B83ED148B83ED168B60339342E6D114
S3150800D2307B4B7C4A1A607C4A5A60DA6017707B48D6
S3150800D2409FED7B9ADFF868927A4E4FF47A6228212E
S3150800D2509A606CF0B3FA784825216CF0AFFA7748F3
S3150800D26059216CF0ABFA76485A216CF0A7FA754B3F
S3150800D270754824221A712321744A1A606CF09EFAA2
S3150800D280FDF7EEFB724BDFF82CC272491F722222A1
S3150800D2901A71714ACCF82020C2E90077C2E90277F0
S3150800D2A017750022C3E9041203F128021A624FF027
S3150800D2B021028CF80420694A1A609FED39AB684A46
S3150800D2C0CCF800209FED387B664A1F7302F5005B99
S3150800D2D083F82C7083ED068B83ED0CAB6248634AAA
S3150800D2E083ED099A202100238CED047B8CF80870C5
S3150800D2F08CF80C708CED068B6CF04CFA5C485B4A2B
S3150800D3009FED5C0A4F2100236CF044FA514A5A48B3
S3150800D31000231F216CF03EFA584B4E4958481F729D
S3150800D3200022C3E904124FF00C011971554919601E
S3150800D330F7EE009A1F7383ED068B534B40F8043BB8
S3150800D340F0EE690A6CF020F864F05CFF4F486CF068
S3150800D3501BF84F4B4F481860C3ED019A83ED029AAC
S3150800D36083ED039A83ED049AC3ED059A4A4B4B481D
S3150800D3704B4A83ED00AB4B4B212183ED00AB0023D9
S3150800D3806CF008FA484B43481860454A4748C3EDCD
S3150800D390019A91E0AFF30080000000000000000051
S3150800D3A000000000000000F000093D000000000039
S3150800D3B0288F01206C240A0800520020A03B002078
S3150800D3C078270A08BC21012070240A0860270A0861
S3150800D3D0F0B00120ECAF01207C240A0898D8001090
S3150800D3E0FCAF01209C270A08D8D80010982A0120EB
S3150800D3F0B0270A08D8270A08884700208F1E170072
S3150800D40020CA0010B0C600103C280A08D8A508088B
S3150800D41090CD0010D0A50808082C002020280A085E
S3150800D420F85701208C240A0818D900103026002045
S3150800D43000000000587900108824002038250020B4
S3150800D440E02400208CAC00203024002050280A0854
S3150800D450A88C002080841E00A08D01206C280A0854
S3150800D46090280A0800000010D8200020801A06001C
S3150800D470B02000200000C842C8220020A8220020B0
S3150800D480A4960120C81F0A08B0280A08C4960120D5
S3150800D490F0930120080C0A0880480020E0250020A7
S3150800D4A0400D030078480020189401200826002023
S3150800D4B08C9700102846002083ED029A83ED039A84
S3150800D4C083ED049AC3ED059A272100236CF062F9CF
S3150800D4D0CB48CC4A332100236CF05CF9CA48C94AC8
S3150800D4E0352100236CF056F9C848C64A372100236F
S3150800D4F06CF050F9C64BC74AC7491960C3E90A77A1
