S01400006275696C642F7275736566692E7372656343
S3150800800010100020B983000895E50208F9830008D6
S315080080101D840008F88300080B840008FA9ADB5BC5
S315080080209CC60900B3830008B3830008F93B01081E
S31508008030B3830008B3830008B3830008B54B01086F
S31508008040B3830008B3830008994A0108114B010855
S31508008050B3830008B3830008A1960408A996040808
S31508008060B1960408B9960408C1960408ED3F0108BC
S3150800807025400108614001089D400108D9400108D2
S31508008080114101084D410108753C0108CD3E010822
S31508008090F13E0108153F0108393F0108C996040851
S315080080A0B3830008E54D0108B3830008094E0108AB
S315080080B0A14C01080D4E0108314E01080596040829
S315080080C0B38300089D430108D5440108B38300081B
S315080080D0B3830008B38300084150010865500108BE
S315080080E0ED960408594B0108B3830008B3830008CA
S315080080F0794E0108B38300089D4E0108894101089D
S31508008100B3830008B3830008554E0108B3830008FB
S31508008110B3830008B3830008414C0108B383000801
S31508008120C5410108FD4101083942010875420108A7
S31508008130B1420108B3830008B38300085D3F010814
S31508008140813F0108A53F0108C93F0108ED4501081F
S31508008150E94201082543010861430108A14E0108C7
S31508008160B3830008B3830008B3830008B383000809
S31508008170B3830008B3830008B3830008B3830008F9
S31508008180B3830008B3830008B3830008B3830008E9
S31508008190B3830008B3830008B3830008B3830008D9
S315080081A0B3830008B3830008B3830008B3830008C9
S315080081B0B3830008B3830008B3830008B3830008B9
S315080081C0B3830008B3830008B3830008B3830008A9
S315080081D0B3830008B3830008B3830008B383000899
S315080081E001C900083DAF07080000000000000000B4
S315080081F001F0FF01102A2BDB10F0070F08D010F84A
S31508008200013B013A8B422DD010F0070F42B3F6D14D
S31508008210F0B441EA012141EA014122F007047FF066
S3150800822000070023F0E80256083C85EA010586EABD
S31508008230010685FA47F5A3FA87F586FA47F6A5FAF9
S3150800824087F68EB9EED1F0BC01F0FF0102F0070205
S3150800825032B110F8013B013A83EA010313B1F8D1B0
S315080082600020704701387047002D06BF3546033891
S31508008270073815F0010F07D1013015F4807F02BFCA
S31508008280013015F4C03F0130F0BC0138704700BF1B
S3150800829072B6394880F30888384880F30988384820
S315080082A04EF60851CEF20001086040F20000CCF20A
S315080082B000004EF63471CEF200010860BFF34F8F0E
S315080082C0BFF36F8F40F20000C0F2F0004EF68851FF
S315080082D0CEF200010860BFF34F8FBFF36F8F4FF0E8
S315080082E00000E1EE100A4EF63C71CEF2000108607D
S315080082F0062080F31488BFF36F8F07F0B1FD24F0D2
S31508008300E3F94FF055301F491B4A91423CBF41F8EB
S31508008310040BFAE71C49194A91423CBF41F8040B81
S31508008320FAE71A491A4A1B4B9A423EBF51F8040B00
S3150800833042F8040BF8E700201749184A91423CBF57
S3150800834041F8040BFAE707F08FFD47F0C3F8144C21
S31508008350144DAC4203DA54F8041B8847F9E76DF06C
S31508008360A3F9114C114DAC4203DA54F8041B8847A3
S31508008370F9E707F077BD000010100020101600205E
S3150800838000800008100000201010002054420A083F
S3150800839010160020581A0020581A0020E418022047
S315080083A0E0810008E4810008E4810008E88100080B
S315080083B06EE700F000F8FEE70A480B49026800601D
S315080083C08A4201D0FFF764FF08484FF480410160F4
S315080083D007484FF0010101600648D0F800D0406810
S315080083E000470000F0FF0120EFBEADDE4438024032
S315080083F0003801400000FF1F1EF0040F0CBFEFF30A
S315080084000880EFF3098026F0C9B81EF0040F0CBFE8
S31508008410EFF30880EFF3098026F008B91EF0040F81
S315080084200CBFEFF30880EFF3098026F04BB900BFC5
S31508008430EC46A0E8F05F4FF000007047B0E8F05F48
S31508008440E546080008BF0120704700BF81F00041DB
S3150800845002E000BF83F0004330B54FEA41044FEA1B
S31508008460430594EA050F08BF90EA020F1FBF54EAB6
S31508008470000C55EA020C7FEA645C7FEA655C00F052
S31508008480E2804FEA5454D4EB5555B8BF6D420CDD23
S315080084902C4480EA020281EA030382EA000083EAA6
S315080084A0010180EA020281EA0303362D88BF30BD46
S315080084B011F0004F4FEA01314FF4801C4CEA11319C
S315080084C002D0404261EB410113F0004F4FEA0333FB
S315080084D04CEA133302D0524263EB430394EA050F86
S315080084E000F0A780A4F10104D5F1200E0DDB02FAF5
S315080084F00EFC22FA05F2801841F1000103FA0EF289
S31508008500801843FA05F359410EE0A5F120050EF14E
S31508008510200E012A03FA0EFC28BF4CF0020C43FA7F
S3150800852005F3C01851EBE37101F0004507D54FF08C
S31508008530000EDCF1000C7EEB00006EEB0101B1F5DC
S31508008540801F1BD3B1F5001F0CD349085FEA300022
S315080085504FEA3C0C04F101044FEA445212F5800F2D
S3150800856080F09A80BCF1004F08BF5FEA500C50F1CA
S31508008570000041EB045141EA050130BD5FEA4C0CAD
S31508008580404141EB0101013C28BFB1F5801FE9D20A
S3150800859091F0000F04BF01460020B1FA81F308BF2D
S315080085A02033A3F10B03B3F120020CDA0C3208DDF9
S315080085B002F1140CC2F10C0201FA0CF021FA02F1D4
S315080085C00CE002F11402D8BFC2F1200C01FA02F144
S315080085D020FA0CFCDCBF41EA0C019040E41AA2BF69
S315080085E001EB0451294330BD6FEA04041F3C1CDA31
S315080085F00C340EDC04F11404C4F1200220FA04F051
S3150800860001FA02F340EA030021FA04F345EA0301FA
S3150800861030BDC4F10C04C4F1200220FA02F001FABC
S3150800862004F340EA0300294630BD21FA04F029463E
S3150800863030BD94F0000F83F4801306BF81F48011D7
S315080086400134013D4EE77FEA645C18BF7FEA655C4A
S3150800865029D094EA050F08BF90EA020F05D054EA1C
S31508008660000C04BF1946104630BD91EA030F1EBF21
S315080086700021002030BD5FEA545C05D14000494125
S3150800868028BF41F0004130BD14F580043CBF01F518
S31508008690801130BD01F0004545F0FE4141F47001FE
S315080086A04FF0000030BD7FEA645C1ABF19461046D9
S315080086B07FEA655C1CBF0B46024650EA013406BFDA
S315080086C052EA033591EA030F41F4002130BD00BF99
S315080086D090F0000F04BF0021704730B54FF4806456
S315080086E004F132044FF000054FF0000150E700BFD7
S315080086F090F0000F04BF0021704730B54FF4806436
S3150800870004F1320410F0004548BF40424FF0000122
S315080087103EE700BF42004FEAE2014FEA31014FEA65
S3150800872002701FBF12F07F4393F07F4F81F06051B4
S31508008730704732F07F4208BF704793F07F4F04BFFF
S3150800874041F40021704730B54FF4607401F00045DC
S3150800875021F000411CE700BF50EA010208BF70473C
S3150800876030B54FF000050AE050EA010208BF70472D
S3150800877030B511F0004502D5404261EB41014FF496
S31508008780806404F132045FEA915C3FF4D8AE4FF09E
S3150800879003025FEADC0C18BF03325FEADC0C18BF81
S315080087A0033202EBDC02C2F1200300FA03FC20FAD2
S315080087B002F001FA03FE40EA0E0021FA02F114441F
S315080087C0BDE600BF70B54FF0FF0C4CF4E06C1CEA38
S315080087D011541DBF1CEA135594EA0C0F95EA0C0FA9
S315080087E000F0DEF82C4481EA030621EA4C5123EA1C
S315080087F04C5350EA013518BF52EA033541F480114B
S3150800880043F4801338D0A0FB02CE4FF00005E1FBFD
S3150800881002E506F00042E0FB03E54FF00006E1FB47
S3150800882003569CF0000F18BF4EF0010EA4F1FF048A
S31508008830B6F5007F64F5407404D25FEA4E0E6D41CA
S3150800884046EB060642EAC62141EA55514FEAC520DB
S3150800885040EA5E504FEACE2EB4F1FD0C88BFBCF557
S31508008860E06F1ED8BEF1004F08BF5FEA500E50F108
S31508008870000041EB045170BD06F0004646EA0101CE
S3150800888040EA020081EA0301B4EB5C04C2BFD4EB00
S315080088900C0541EA045170BD41F480114FF0000EF9
S315080088A0013C00F3AB8014F1360FDEBF002001F067
S315080088B0004170BDC4F10004203C35DA0C341BDCE1
S315080088C004F11404C4F1200500FA05F320FA04F0B3
S315080088D001FA05F240EA020001F0004221F00041E7
S315080088E010EBD37021FA04F642EB06015EEA430E5A
S315080088F008BF20EAD37070BDC4F10C04C4F120058A
S3150800890000FA04F320FA05F001FA04F240EA02003C
S3150800891001F0004110EBD37041F100015EEA430E0D
S3150800892008BF20EAD37070BDC4F1200500FA05F22D
S315080089304EEA020E20FA04F301FA05F243EA0203AC
S3150800894021FA04F001F0004121FA04F220EA0200BB
S3150800895000EBD3705EEA430E08BF20EAD37070BD01
S3150800896094F0000F0FD101F00046400041EB0101E1
S3150800897011F4801F08BF013CF7D041EA060195F0C3
S31508008980000F18BF704703F00046520043EB03037D
S3150800899013F4801F08BF013DF7D043EA060370476A
S315080089A094EA0C0F0CEA135518BF95EA0C0F0CD075
S315080089B050EA410618BF52EA4306D1D181EA0301BB
S315080089C001F000414FF0000070BD50EA410606BFB5
S315080089D01046194652EA430619D094EA0C0F02D1FA
S315080089E050EA013613D195EA0C0F05D152EA03363F
S315080089F01CBF104619460AD181EA030101F000415D
S31508008A0041F0FE4141F470014FF0000070BD41F0A5
S31508008A10FE4141F4780170BD70B54FF0FF0C4CF47F
S31508008A20E06C1CEA11541DBF1CEA135594EA0C0F9E
S31508008A3095EA0C0F00F0A7F8A4EB050481EA030EEB
S31508008A4052EA03354FEA013100F088804FEA0333D2
S31508008A504FF0805545EA131343EA12634FEA0222A0
S31508008A6045EA111545EA10654FEA00260EF0004161
S31508008A709D4208BF964244F1FD0404F5407402D2B3
S31508008A805B084FEA3202B61A65EB03055B084FEA44
S31508008A9032024FF480104FF4002CB6EB020E75EB41
S31508008AA0030E22BFB61A754640EA0C005B084FEA69
S31508008AB03202B6EB020E75EB030E22BFB61A7546E6
S31508008AC040EA5C005B084FEA3202B6EB020E75EB31
S31508008AD0030E22BFB61A754640EA9C005B084FEAA9
S31508008AE03202B6EB020E75EB030E22BFB61A7546B6
S31508008AF040EADC0055EA060E18D04FEA051545EAA5
S31508008B0016754FEA06164FEAC30343EA52734FEA4D
S31508008B10C2025FEA1C1CC0D111F4801F0BD141EAC6
S31508008B2000014FF000004FF0004CB6E711F4801F2B
S31508008B3004BF01430020B4F1FD0C88BFBCF5E06F0B
S31508008B403FF6AFAEB5EB030C04BFB6EB020C5FEA1B
S31508008B50500C50F1000041EB045170BD0EF0004E70
S31508008B604EEA113114EB5C04C2BFD4EB0C0541EAA2
S31508008B70045170BD41F480114FF0000E013C90E69F
S31508008B8045EA060E8DE60CEA135594EA0C0F08BF63
S31508008B9095EA0C0F3FF43BAF94EA0C0F0AD150EA62
S31508008BA001347FF434AF95EA0C0F7FF425AF1046F5
S31508008BB019462CE795EA0C0F06D152EA03353FF41D
S31508008BC0FDAE1046194622E750EA410618BF52EA9A
S31508008BD043067FF4C5AE50EA41047FF40DAF52EA6E
S31508008BE043057FF4EBAE12E74FF0FF3C06E000BF0B
S31508008BF04FF0010C02E000BF4FF0010C4DF804CD18
S31508008C004FEA410C7FEA6C5C4FEA430C18BF7FEAD7
S31508008C106C5C1BD001B050EA410C0CBF52EA430C05
S31508008C2091EA030F02BF90EA020F0020704710F185
S31508008C30000F91EA030F58BF994208BF90422CBF14
S31508008C40D8176FEAE37040F0010070474FEA410C0D
S31508008C507FEA6C5C02D150EA013C07D14FEA430C2B
S31508008C607FEA6C5CD6D152EA033CD3D05DF8040B9C
S31508008C70704700BF8446104662468C4619466346CE
S31508008C8000E000BF01B5FFF7B7FF002848BF10F1A5
S31508008C90000F01BD4DF808EDFFF7F4FF0CBF0120EA
S31508008CA000205DF808FB00BF4DF808EDFFF7EAFF66
S31508008CB034BF012000205DF808FB00BF4DF808ED21
S31508008CC0FFF7E0FF94BF012000205DF808FB00BF16
S31508008CD04DF808EDFFF7CEFF94BF012000205DF8A0
S31508008CE008FB00BF4DF808EDFFF7C4FF34BF0120AD
S31508008CF000205DF808FB00BF4FEA410C7FEA6C5C78
S31508008D0002D150EA013C0AD14FEA430C7FEA6C5C77
S31508008D1002D152EA033C02D14FF0000070474FF0EF
S31508008D20010070474FEA410212F5001215D211D51B
S31508008D306FF47873B3EB625212D94FEAC12343F04A
S31508008D40004343EA505311F0004F23FA02F018BFCC
S31508008D50404270474FF00000704750EA013005D195
S31508008D6011F0004008BF6FF0004070474FF0000058
S31508008D70704700BF4FEA4102B2F1E04324BFB3F5A2
S31508008D80001CDCF1FE5C0DD901F0004C4FEAC00274
S31508008D904CEA5070B2F1004F40EB830008BF20F058
S31508008DA00100704711F0804F21D113F13872BCBF12
S31508008DB001F00040704741F480114FEA5252C2F167
S31508008DC01802C2F1200C10FA0CF320FA02F018BFB0
S31508008DD040F001004FEAC1234FEAD32303FA0CFC03
S31508008DE040EA0C0023FA02F34FEA4303CCE77FEA92
S31508008DF0625307D150EA01331EBF4FF0FE4040F4DC
S31508008E004000704701F0004040F0FE4040F400008A
S31508008E10704700BF80F0004002E000BF81F00041CB
S31508008E2042001FBF5FEA410392EA030F7FEA226C02
S31508008E307FEA236C6AD04FEA1262D2EB1363C1BF92
S31508008E40D218414048404140B8BF5B42192B88BF01
S31508008E50704710F0004F40F4000020F07F4018BF24
S31508008E60404211F0004F41F4000121F07F4118BF44
S31508008E70494292EA030F3FD0A2F1010241FA03FCEC
S31508008E8010EB0C00C3F1200301FA03F100F00043D4
S31508008E9002D5494260EB4000B0F5000F13D3B0F19C
S31508008EA0807F06D340084FEA310102F10102FE2A0B
S31508008EB051D2B1F1004F40EBC25008BF20F001007B
S31508008EC040EA03007047490040EB0000013A28BF1A
S31508008ED0B0F5000FEDD2B0FA80FCACF1080CB2EB9D
S31508008EE00C0200FA0CF0AABF00EBC250524218431B
S31508008EF0BCBFD0401843704792F0000F81F40001C0
S31508008F0006BF80F400000132013BB5E74FEA410392
S31508008F107FEA226C18BF7FEA236C21D092EA030FFE
S31508008F2004D092F0000F08BF0846704790EA010F78
S31508008F301CBF0020704712F07F4F04D1400028BFA5
S31508008F4040F00040704712F100723CBF00F5000087
S31508008F50704700F0004343F0FE4040F400007047BD
S31508008F607FEA226216BF08467FEA23630146420269
S31508008F7006BF5FEA412390EA010F40F4800070477C
S31508008F804FF0000304E000BF10F0004348BF404222
S31508008F905FEA000C08BF704743F0964301464FF05E
S31508008FA000001CE050EA010208BF70474FF00003BA
S31508008FB00AE000BF50EA010208BF704711F00043FB
S31508008FC002D5404261EB41015FEA010C02BF8446CB
S31508008FD00146002043F0B64308BFA3F18053A3F52A
S31508008FE00003BCFA8CF2083AA3EBC25310DB01FA71
S31508008FF002FC634400FA02FCC2F12002BCF1004FF5
S3150800900020FA02F243EB020008BF20F00100704785
S3150800901002F1200201FA02FCC2F1200250EA4C00D9
S3150800902021FA02F243EB020008BF20EADC7070471F
S315080090307BB972B90029BEBF00204FF0004106E097
S3150800904008BF00281CBF6FF000414FF0FF3000F04A
S3150800905057B8ADF1080C6DE904CE002909DB002BE1
S315080090601ADB76F05FFBDDF804E0DDE9022304B0E5
S315080090707047404261EB4101002B1BDB76F052FB47
S31508009080DDF804E0DDE9022304B0404261EB41016A
S31508009090524263EB43037047524263EB430376F055
S315080090A041FBDDF804E0DDE9022304B0404261EB50
S315080090B041017047524263EB430376F033FBDDF818
S315080090C004E0DDE9022304B0524263EB4303704730
S315080090D053B94AB9002908BF00281CBF4FF0FF3111
S315080090E04FF0FF3000F00CB8ADF1080C6DE904CE76
S315080090F076F018FBDDF804E0DDE9022304B07047DA
S31508009100704700BF2DE9F04F2DED108AC1F80CD03D
S31508009110C3689D46BDEC108ABDE8F08F07F026F8B7
S31508009120002383F311882846A047002008F016FB81
S31508009130FEE707F0B3F908F089FA07F017F800DF39
S31508009140FEE710F8012B11F8013B012A28BF9A42C5
S31508009150F7D0D01A7047034613F8012B002AFBD123
S31508009160181A01387047000070B586B00C461146CB
S315080091701A46114B0093054674B1631ECDE90103E7
S3150800918000266846CDE903660BF07EFF039BA342E3
S3150800919000D2EE5406B070BD9FED057B019068467F
S315080091A08DED027B04940BF06FFF06B070BD00BF17
S315080091B00000000000000000C803080800000000C6
S315080091C02DE9F04759EC108B3D4B002240464946A5
S315080091D0FFF77EFD002867D035A5D5E90045384F4D
S315080091E04FF0000A00260CE0FFF716FC8046894679
S315080091F032463B46404649460AF1050AFFF768FDEE
S31508009200E8B1494622462B464046FFF761FD8446AB
S3150800921022462B4640464946BCF1000FE4D1324669
S315080092203B46FFF7F9FB8046894632463B464046B1
S3150800923049460AF1010AFFF74BFD0028E1D1214B07
S31508009240002240464946FFF72FFD50B31AA5D5E937
S31508009250004517A7D7E900670CE0FFF7B3FAAAF1AC
S31508009260050A80468946174B002240464946FFF7BD
S315080092701BFDB0B1494622462B464046FFF714FD72
S31508009280844632463B4640464946BCF1000FE4D187
S315080092900B4B0022FFF796FA0AF1FF3A80468946F9
S315080092A0E1E75046BDE8F0878246C8E7AFF300809D
S315080092B000000000006AF84000000080B5F8E43EAF
S315080092C0000024400000F03F2DE9F047B0F1000A05
S315080092D02D4D4FF0000426DD29A7D7E90067DFF8F2
S315080092E0AC904FF00008BAF1040F204629463246E2
S315080092F03B460CDDFFF766FAAAF1050A04460D4659
S31508009300BAF1000FEFD145EC104BBDE8F0874246A5
S315080093104B46FFF757FA0AF1FF3A04460D46BAF1EB
S31508009320000FE0D1EFE7EED015A7D7E900671AF1ED
S31508009330040FDFF858904FF00008204629463246B9
S315080093403B460FDAFFF768FB0AF1050A04460D46A5
S31508009350BAF1000FD7D01AF1040F20462946324633
S315080093603B46EFDB42464B46FFF756FB0AF1010A3E
S3150800937004460D46BAF1000FEDD1C4E7AFF30080FD
S3150800938000000000006AF8400000F03F000024409A
S3150800939070B5C66984B0044630460D4613F092FE91
S315080093A0204613F081FB204613F0CCFB9FED087B8B
S315080093B003462946304607246A468DED027B8DF81A
S315080093C00040019313F00AFF04B070BDAFF30080AC
S315080093D0FFFFFFFFFFFFFFFF2DE9F04FC768C669D4
S315080093E0D0F804802DED028B282F87B004460D4651
S315080093F072D040F223139F4240F0858014F076F92C
S315080094009FED438B4FF0070A4FF00809E3683A2BA4
S3150800941014D008DD5B2B51D05A2B40DC07B0BDECCD
S31508009420028BBDE8F08F282B3ED02E2BF6D129468D
S315080094302046FFF7ADFFE3683A2BEAD1204613F042
S3150800944033FB204613F07EFB2946039030468DED0C
S31508009450048B8DF808A013F013FE2B78D5F804B00A
S31508009460082B4BD096F834706F600221304685F889
S31508009470009012F0AFFBBA1C02A986F834205B46AE
S3150800948000913A461421304613F036FE9DF808300E
S31508009490082B0DD10399304670F0F4FC08E07B2BBD
S315080094A002D0B3F5927FB9D12946304613F0CAFDEA
S315080094B042462946204614F073FFA7E72946304658
S315080094C013F000FE02A9204613F0F0FF02AA29466F
S315080094D0304613F083FE99E713F0E6FA2946002290
S315080094E0204615F073FB204643463A46292113F0D9
S315080094F0FFFAE069294613F0B5FB81E7594630467D
S3150800950070F0C0FCAEE7044912F0FCFAAFF3008035
S31508009510FFFFFFFFFFFFFFFFB01108080000000074
S315080095200D4B9FED0B7B03F6080C03F61401002286
S315080095300020CCF800200A6003F5026202ED027BE7
S31508009540C3F80408C3F81008C3F82008704700BF1A
S3150800955000000000000000000000001000000000ED
S3150800956030B5012285B00C21044611F089FCE0B122
S315080095709FED117B0246124B043280ED017B02609F
S315080095800FCB6D4685E80F000E4B0F491A6820462B
S315080095900EF0C8FE00222946204621F0FBFB204695
S315080095A06FF0EEFC012005B030BD20460EF064FEDB
S315080095B0012005B030BD00BF00000000000000F02B
S315080095C080FF070800A70020D8B9F0FF00000000B8
S315080095D02DE9F04F2DED048B03689DB0DB689847A5
S315080095E0002800F098850368A94ADB6893428346F9
S315080095F040F08D850BF10D030693A64BDFF8C8A244
S3150800960098699FEDA58ADFEDA58A41F0DDFA7F28E6
S315080096109FED9D9B0BF10C0540F3F280DBF80030C3
S3150800962058461B6998470446002800F0B885DAF8BA
S3150800963020300133CAF82030DBF8003001225E689A
S315080096400DF123014FF47A735846B047012840F0CC
S3150800965023859DF82330542B15D8452B16D9463B20
S315080096600E2B13D8DFE813F0DB00120012001200ED
S315080096701200120012001200120012001200D3008B
S315080096801200D300EF00742B00F0DD80DBF8003009
S3150800969001225E6809A90A235846B047012840F006
S315080096A06B859DF823309DF8246046EA03263746E5
S315080096B007F1040936B2002F00F0FA8440F21E437F
S315080096C0994500F3F5849BF83034002B00F0AE83FF
S315080096D0DBF800304A46D3F8048029464FF47A73FB
S315080096E05846C04781459BF80C8040F03B8740466A
S315080096F03DF08CFC8146002800F05987AB5932466C
S31508009700002128461EBA64F0B3F9864240F0D98390
S3150800971001238BF83034242062F0C4F8022F9BF81A
S315080097200C3040F3A483042FBBF80D6040F3A283EA
S31508009730BBF80F90A3F138023C2A3ED8DFE812F0B6
S315080097405A0307033D003D003D003D003D003D0036
S315080097503D00FC02CD02C8023D009C023D001102FC
S315080097603D003D003D003D0003023D003D00550122
S315080097703D003D002D011F0187003D00F001E2017B
S315080097803D003D0086013D003D003D003D00630172
S315080097903D003D0007013D003D00F2003D003D0053
S315080097A03D003D003D00C6008E003D003D003D00E9
S315080097B03D003D003D003D00870083215846059346
S315080097C067F076FB059B364A3648009350210BF026
S315080097D0B7FEDBF82C0433496FF0A8FF242062F0AB
S315080097E065F831484246414646F032FD00242F4B83
S315080097F01C70284B986941F0E7F97F283FF70EAFB0
S315080098002B4A2C4941F6F42054F028FDEEE72A4865
S3150800981046F01EFD0021584667F02CFBE7E7DBF80B
S315080098202C14264A264846F013FDDBF80030254955
S315080098301E68584600230322B047DBF80030584616
S315080098409B689847D3E758463EF0ACFDCFE75846A5
S315080098503EF0A8FD242062F029F8C8E79BF80D30F1
S31508009860022B00F07F84032B00F05C84012BB5D11A
S3150800987062F068F958463FF06FFD242062F016F84A
S31508009880B5E700BFAFF30080D68324F700000000D9
S31508009890DD450208B09700200024744900007A4488
S315080098A020B00808185801204CB00808A318022050
S315080098B058A9080824810808E4AC080804AD080873
S315080098C0209B080814AD0808E0580120DAF818307B
S315080098D05A46013349463046CAF818303FF048FD23
S315080098E00746002840F0F88301464022C64876F02D
S315080098F094F8C6484A463946304464F0B9F800BA7E
S315080099000C900CAA58460097042301213FF0D6FC78
S315080099100C9BBF484A46314646F09AFC242061F023
S31508009920C5FF64E7BB4BBC4E1A78BC4B002A18BF70
S315080099301E463046FFF70FFC0121034632465846BD
S3150800994000913FF0BBFC242061F0B0FF4FE70121F6
S31508009950B348B44FB44E0091002302683B70C0E987
S315080099600033336058464FF400530C923FF0A6FC80
S315080099700CA86FF095FF242061F098FF37E7AB4AF3
S31508009980DBF82C14AA4846F063FC5846012167F018
S3150800999071FA242061F08AFF29E7DAF80830A54829
S315080099A00133CAF8083032464B46002146F050FCCF
S315080099B05A46494630463FF0DBFC0746002840F049
S315080099C073829D4BB3F8CA2C002A40F0DB83083318
S315080099D01E444B46324600210091584601213FF06D
S315080099E06DFC242061F062FF01E7012F934814BF44
S315080099F04B464FF4E663324659463EF0DBFE2420DA
S31508009A0061F054FFF3E68E4B1B78002B40F0718310
S31508009A108C490B68002B40F0488302228A4E0A6064
S31508009A207F4B186808B100200860C3E900620CA8DB
S31508009A3000230C936FF034FF7A4B584601221A70B4
S31508009A403FF08AFC242061F031FFD0E6BBF80D8098
S31508009A50BBF80F707D487FBA98FA98F6B6B2BFB2CF
S31508009A603A46314646F0F4FB79484FF075FC202E0D
S31508009A7000F20382202E00F29F8301A353F826F0FA
S31508009A80CBA10008B9A10008B9A10008B9A100082E
S31508009A90B9A10008B9A10008B9A10008B9A1000830
S31508009AA0B9A10008B9A10008B9A10008B9A1000820
S31508009AB0B9A10008B9A10008B9A10008B9A1000810
S31508009AC0B9A10008D5A10008DFA100081DA2000859
S31508009AD0DDA200084DA3000857A30008B9A1000895
S31508009AE0B9A1000861A30008B9A10008B9A1000836
S31508009AF0B9A10008759800087FA300088FA300087D
S31508009B009FA3000831460BF10F030122584667F060
S31508009B10FFF9504845F044FF242061F0C7FE66E689
S31508009B205AF0ACFB0DF130094B4B4C4A0090202102
S31508009B308DED029B48460BF003FD4846FFF70BFBED
S31508009B404A46431C47E70123002200925846194615
S31508009B500CAA8DF830303FF0B1FB242061F0A6FE48
S31508009B6045E6DAF824303E4E334FB26A0133CAF876
S31508009B702430D7F85C359A4280F0ED8145F0D0FE66
S31508009B80D6E90C3253EA020640F0CA81354E3368EC
S31508009B90032B00F0F1813448B0EE480A47F0C4FCC4
S31508009BA0002840F0FA81314E314809F02BF9336824
S31508009BB0304A03F580510020C1F8643911681360F2
S31508009BC018702B48316009F0AFF9326802F58053F6
S31508009BD0D3F864691378B61A2BB1134613F8011F24
S31508009BE00029FBD19B1A9E4240F0DE82DBF800106A
S31508009BF001200090334658468E690021B04724203C
S31508009C0061F054FEF3E500BF466500107058001079
S31508009C10D8AE080885180220443701206858012064
S31508009C20C45701209E180220BC37012050AE0808F0
S31508009C30209B080834AF08086858001060170020F1
S31508009C409F180220C0570120C0370120C0AF08085E
S31508009C50A8230010201F002064AE08086CAE080870
S31508009C60A83B002004580120A03B002058170020DC
S31508009C70085801205C17002006980744002307F8B7
S31508009C80013C9BF80D30202B40F0808410F8013FF2
S31508009C90202BFBD07BB1034613F8012F002AFBD1FA
S31508009CA0191A002903DC06E083421A7003D013F858
S31508009CB0011D2029F8D08F4B1B689847002358466A
S31508009CC01A4619463FF08CFA242061F0EFFD8EE51E
S31508009CD04A4631460BF1110318E70DF1300948469B
S31508009CE045F05EFEDAF80C3083480133CAF80C30CA
S31508009CF046F0AEFA59F01EFB8048B0EE480A47F027
S31508009D0013FC002840F0FB8100231A46042158461C
S31508009D103FF066FA484645F051FE60EE287A17EE9F
S31508009D20900AFEF7F7FC02460B46754846F090FA8D
S31508009D30242061F0BBFD5AE572484FF4E663002221
S31508009D4059463EF037FD242061F0B0FD4FE56E4ED2
S31508009D50002206F140083146012031F8023F5B0B2C
S31508009D601CBF03F1FF3300FA03F341451A44F4D14B
S31508009D70002158463EF0CCF90DF130090746059406
S31508009D80079536F8023F5C0B1DD00122013C02FA0A
S31508009D9004F45E4A0A9226220B9200940AAA06CA7C
S31508009DA0C3F30C03484664F0F9F8DBF800302246A2
S31508009DB01D68494600235846A8473946224648465C
S31508009DC063F056FE07464645DBD1DBF80030059CB6
S31508009DD01E68079D3FBA4946042258460C97012338
S31508009DE0B047DBF8003058469B689847242061F056
S31508009DF05DFDFCE4464B1B78002B00F07D810020BE
S31508009E0061F04AFF0646002853D0D0F8E434012111
S31508009E10024603EB8303009158463FF04FFA30465B
S31508009E2061F06AFF242061F041FDE0E4DBF80030D0
S31508009E300246D3F8048029460A235846C0479BF8A9
S31508009E400C8040463DF0E2F800283FF4CFACDBF842
S31508009E5000300699D3F80490F21C05924FF47A73F1
S31508009E605846C847059A82423FF448ACBEE40026E5
S31508009E70B1465FE44FF000095CE4B8F53A4F00F0EC
S31508009E809483BA2E09D9B8F53B4F00F04285B8F548
S31508009E903C4F40F0918140F077FEB8F5F24F40F024
S31508009EA08B815AF097FAE5E4DBF82C0419496FF030
S31508009EB03DFC5846842166F0FBFF242061F0F6FC41
S31508009EC095E49BF83034002B3FF490AC33460246B9
S31508009ED09BF80C10104846F0BBF91049DBF82C0427
S31508009EE06FF024FC8221584666F0E2FF00238BF8C7
S31508009EF030347BE4F05701200CAF08080824001022
S31508009F001CAF08086017002044650010D8EF002031
S31508009F109F18022068AF080804AE08083CAE080877
S31508009F20C01A61EB02010A1E03DAC31C184642F185
S31508009F3000028308D7F85C15C84800FB01F1C84839
S31508009F40A0FB010143EA8273090992100020994295
S31508009F509041BFF61BAEC349C34846F045F9C34B0B
S31508009F6093F81835002B40F0F980C14E00F028FE12
S31508009F703368032B7FF40FAEBA49BE4846F034F96E
S31508009F80BC4847F045FA0123BB483360B0EE480A9F
S31508009F9047F0CAFA00283FF406AEB74845F000FD78
S31508009FA03B89692B96BFB54A4FF0000852F82380C3
S31508009FB05AF064F9064645F021FDA84A0023FFF742
S31508009FC037F83146CDE90080AD4BAE4AAE4846F08B
S31508009FD03FF9B7F8EC12012902D9AC4863F02CFD19
S31508009FE0B7F8EE12012902D9A94863F025FDA94E52
S31508009FF0DFF8E08206F1080936F8021F012903D9BD
S3150800A000D8F8000063F018FDB14508F10408F3D14B
S3150800A010D7F8CC210C2A1346A8BF0C23002A7FF7B1
S3150800A020C2AD9D4F0594B9463C469C4E4FF000087C
S3150800A0301F462AE0718B012901D963F0FDFCD4F88B
S3150800A0405C0700284FD0B6F82614012901D963F019
S3150800A050F3FCD9F83C03002848D036F8021F01293A
S3150800A06001D963F0E9FCD9F88C04002838D0B6F891
S3150800A070DC1B012901D963F0DFFC08F10108B845AA
S3150800A08004F1200409F11C094ADAD4F8DC05002891
S3150800A090D0D1D4F8E005CDE7814CA34500F09681F0
S3150800A0A000238BF83034FFF7A1BB00221646B7E42D
S3150800A0B09BF83034002BF3D0DBF82C1479483A4659
S3150800A0C046F0C6F8DBF82C0477496FF02FFB84219D
S3150800A0D0584666F0EDFEE3E7DBF82C047349E6E63E
S3150800A0E0D9F89004C3E7D4F86007ACE7D9F8400379
S3150800A0F0B3E761F0A3FD8BE461F024FD7FE636F05B
S3150800A1009FFC6B483BF006FF58F0D8FDFCE59847E6
S3150800A11000287FF46FAA1DB0BDEC048BBDE8F08F54
S3150800A120059C40E5002061F0B7FD0646002800F0D2
S3150800A1303082D0F8E4340121024603EB8303009110
S3150800A14058463FF0BBF8304661F0D6FD58463FF01A
S3150800A15003F9242061F0AAFBFFF749BB424847F000
S3150800A16057F902E761F06AFD58463FF0F5F82420F2
S3150800A17061F09CFBFFF73BBB4E49DBF82C046FF004
S3150800A180D5FA8DE74C4940F25E200BF10F0654F0E4
S3150800A19065F839464A46304675F03FFC19E40A2008
S3150800A1A007F004FBFFF722BB3246444941F6861006
S3150800A1B054F054F8002219E541493B46324640F22C
S3150800A1C05E2054F04BF8FFF755BB3E4B83F81E76DE
S3150800A1D0FFF750BB3C4B00221A60FFF74BBB002829
S3150800A1E03FF448AB374BDFED390AB3F8662D9FEDE0
S3150800A1F0380AD3F8741D07EE902AB3F84626F8EE07
S3150800A200E77A384667EEA00A07EE902AF8EEE77A6C
S3150800A21027EE800A58F0B0FDFFF72CBB00283FF464
S3150800A22029AB284BDFED290AB3F8662D9FED280ADE
S3150800A230D3F8741D07EE902AB3F84626F8EEE77AA7
S3150800A240384667EEA00A07EE902AF8EEE77A27EE78
S3150800A250800A58F03FFDFFF70DBB00BF40420F00D4
S3150800A260CDCCCCCC647D0908B03B00200050001052
S3150800A27004580120F4570120A03B00207453090814
S3150800A28078AE0808D68324F780AE0808300C0A088A
S3150800A290380C0A08AA5A0010C89B0020F25A001067
S3150800A2A0245E012034AD080864AD0808C0AE08086D
S3150800A2B0089B080818AD080880AF0808A0AE08086B
S3150800A2C0FCAF080868580010CC570120CDCCCC3D0F
S3150800A2D00AD7233C6453090800007A44BB1F172B8E
S3150800A2E000F2AB8101A252F823F000BF4BA7000889
S3150800A2F009A70008759800083BA600087DA600086F
S3150800A3003BA6000871A60008BBA70008AFA700086F
S3150800A310A7A7000893A7000887A7000877A700083B
S3150800A3206FA7000863A7000825A600087598000807
S3150800A3301BA6000811A6000807A60008FDA5000828
S3150800A340F5A500082FA60008E9A50008F8B25AF0F6
S3150800A350FFFEFFF78FBA384658F0F4FDFFF78ABAC2
S3150800A36000283FF487AA5FED240AC64B3846D3F87F
S3150800A370741DB0EE600A58F059FDFFF77BBAC24863
S3150800A38045F00EFB38466BF06FF9FFF773BABE4817
S3150800A39045F006FB63206BF067F9FFF76BBA0028F8
S3150800A3A03FF468AAB74BDFEDB90AB3F8662DD3F8C0
S3150800A3B0741D07EE902AF8EEE77AB1EE000A67EE0A
S3150800A3C0A00A384658F078FDFFF754BAB04B1B7808
S3150800A3D0002B3FF465AEDFF82C83AE4845F038FF16
S3150800A3E098F80030033B012B00F2ED802368AA4859
S3150800A3F05E68012240F6B83309A9B0470646002828
S3150800A40040F0EB80A44F06E0042B00F0DA81013619
S3150800A410072E00F0FE81236838465B6998470A20B4
S3150800A42007F0C4F99D4B9E4853F83610894645F007
S3150800A4300FFF23684946DB69384698470A2007F024
S3150800A440B5F93846974966F0BFFC38463EF00AFA31
S3150800A45090B198F80030032BD6D13846924966F069
S3150800A460B3FC38463EF0FEF90028D0D18F4845F0B7
S3150800A470EFFE0A2007F09AF90DF1300998F8003036
S3150800A4808B4F033B012B3E7040F2C7812368894AF4
S3150800A4905B698148934240F0078241F08DF80A20B3
S3150800A4A007F084F93A7823687C49DB6951F8321059
S3150800A4B0814A7948934240F0058264F0CBFF98F8C8
S3150800A4C00030002B40F097817C4B7D4A402148465E
S3150800A4D00BF036F87048494666F076FC6E483EF052
S3150800A4E0C1F9002840F0828198F80030032B00F06B
S3150800A4F0AC80002B40F08681724B734A4021484657
S3150800A5000BF01EF86448494666F05EFC62483EF069
S3150800A510A9F9002840F06A8198F80030002B40F02D
S3150800A520C5816A4B5D4A1B68402152F83330684A38
S3150800A53048460BF005F85848494666F045FC564823
S3150800A5403EF090F9002840F0518198F80030033B1E
S3150800A550012B40F2CD815F4845F07AFE4C4A002334
S3150800A56013709DE543464A4601465B4845F070FE32
S3150800A5705A49DBF82C046FF0D9F88021584666F062
S3150800A58097FC00238BF83034FFF730B90698FFF7AD
S3150800A59081BB8421584666F08BFC58463EF0DCFEAB
S3150800A5A0242061F083F9FFF722B940F0E1FA4C481C
S3150800A5B0414645F04DFE8321584666F079FC8BF8F6
S3150800A5C03094FFF713B9474845F042FE464845F030
S3150800A5D03FFE464845F03CFE08E7454845F038FE4C
S3150800A5E02B4A002313705BE50021012052F0BCF9C9
S3150800A5F0FFF740B93CF09EFEFFF73CB904203CF05B
S3150800A600A9FEFFF737B903203CF0A4FEFFF732B9DD
S3150800A61001203CF09FFEFFF72DB902203CF09AFE80
S3150800A620FFF728B9334B01221A70FFF723B9002127
S3150800A630084652F099F9FFF71DB92F493A4640F2F4
S3150800A6405E2053F00BFEFFF715B91C4B2B4A402131
S3150800A65048460AF075FF1048494666F0B5FB0E48AD
S3150800A6603EF000F9002840F0C18098F8003040E735
S3150800A670234B012283F8A023FFF7FCB857F08AFB87
S3150800A680FFF7F8B86858001008240010CDCCCC3D68
S3150800A6909D18022068A90808245E01202C53090881
S3150800A6A028AB080840AB080848AB080854AB0808AC
S3150800A6B09B180220B9B5040855F406082C37012062
S3150800A6C0F8AB08082437012024AC080854170020E2
S3150800A6D040AC080888AC080884AD0808C4AD08086A
S3150800A6E0E8AD080898A9080804AA080858AA080896
S3150800A6F0D4AA0808A1180220E4AF080814AC080870
S3150800A700002000109C180220834F844ED7F8F800CA
S3150800A7100D2386F8CC3008B30368DB689847F0EE5B
S3150800A720407AD7F80401C6ED327A002800F0EE80A8
S3150800A7300368DB689847F0EE407A794AC6ED677A8F
S3150800A740137801331370FFF795B8734F734ED7F824
S3150800A750F8000C2386F8CC300028DDD1DFED717ABD
S3150800A760DFE7714B012283F8A123FFF783B84BF08B
S3150800A77091FBFFF77FB86D4B6D4801221A7008F000
S3150800A780EBFAFFF777B80121084652F0EDF8FFF724
S3150800A79071B8624B002283F8CC2003F5005383F886
S3150800A7A0A023FFF767B84BF0B9FAFFF763B80121A2
S3150800A7B0002052F0D9F8FFF75DB867F04BFAFFF7BB
S3150800A7C059B85C495C480DF1300966F0FDFA5A48FB
S3150800A7D01022494666F00EFB09287FF418AE574842
S3150800A7E045F036FD0A2006F0E1FF47E6544849469B
S3150800A7F045F02EFDB2E6534B534A402148460AF02F
S3150800A8009FFE67E6514B524A402148460AF098FE99
S3150800A81078E6504BFF221A70A0E64F49464866F084
S3150800A820D3FA40224946444866F0E4FA4149424888
S3150800A83066F0CAFA40484022494666F0DBFA98F8BC
S3150800A8400030032B4AD045493B4866F0BDFA402202
S3150800A8504946394866F0CEFA4149374866F0B4FAAF
S3150800A86035484022494666F0C5FA98F80030032B69
S3150800A8702AD03C49304866F0A7FA2F483DF0F2FF47
S3150800A88039492D4866F0A0FA2B483DF0EBFF98F8B9
S3150800A8900030032B7FF4FAAD2748344966F094FA62
S3150800A8A025483DF0DFFFF1E59847F8E5304B314A9A
S3150800A8B01B6802EBC30340211B792F4A48460AF05E
S3150800A8C03FFE38E69847FAE52C491B4866F07CFABD
S3150800A8D040224946184866F08DFACAE728491648BC
S3150800A8E066F072FA40224946134866F083FAAAE7E8
S3150800A8F01148244966F068FA0F483DF0B3FF00286E
S3150800A9003FF429AE204845F0A3FC24E6DFED057A9E
S3150800A91013E740F01BF900BFD0A700200000001085
S3150800A920A01802200000000000200010A218022033
S3150800A930E45701206CAB0808245E012078AB0808B0
S3150800A940C4AC08082C37012008AC080824370120B5
S3150800A95034AC08089B18022090AB0808ACAB080872
S3150800A960B8AB0808D0AB0808E0AB0808ECAB080899
S3150800A970541700202C53090854AC0808C4AB08081F
S3150800A980A0AB080860AC08086CAC0808000000001A
S3150800A99010B590F8E03090F8DCC0174C83F001034E
S3150800A9A063F3000C80F8DCC04FF48C62002120466B
S3150800A9B075F033F84FF4F072002104F2644075F034
S3150800A9C02CF80E4B9FED0A7B03F50F5203F5005347
S3150800A9D082ED067B03F6EC6003F56F620021002426
S3150800A9E0C3F8A8480160116010BD00BFAFF300802E
S3150800A9F000000000000000F04824001000000010CD
S3150800AA009FED116BD0ED0F7A80ED030AB5EEC00A03
S3150800AA100123F1EE10FA80ED066BC0ED097A80EDA0
S3150800AA200F0A03720BD9DFED0A6A86EE807AF5EE15
S3150800AA30407AF1EE10FA80ED0A7A03D07047054B9A
S3150800AA408362704767F0EABB000000000000000060
S3150800AA50ABC222480000C07FD0B5554C554E0027E2
S3150800AA60204632463B463F216EF0CCFE04F12800D4
S3150800AA7032463B4640216EF0C5FE04F15000324690
S3150800AA803B4641216EF0BEFE04F1780032463B4655
S3150800AA9042216EF0B7FE04F1A00032463B46432140
S3150800AAA06EF0B0FE04F1C80032463B4644216EF013
S3150800AAB0A9FE04F1F00032463B4645216EF0A2FE9F
S3150800AAC004F58C7032463B4646216EF09BFE3A4BA7
S3150800AAD03A49196047201871482083F8240049200C
S3150800AAE083F844004A209FED2E6B9FED2F7B83F859
S3150800AAF064004B2083F884004C20002283F8A400CD
S3150800AB004D244E2083ED046B83ED0C6B83ED146BA3
S3150800AB1083ED1C6B83ED246B83ED067B83ED0E7B47
S3150800AB2083ED167B83ED1E7B83ED267B1A721A73E3
S3150800AB30196283F8282083F82C20196483F84820A2
S3150800AB4083F84C20196683F8682083F86C20C3F8CC
S3150800AB50801083F8882083F88C20C3F8A01083F827
S3150800AB60A82083F8C44083F8E40083ED2C6B83EDBA
S3150800AB702E7B83ED346B83ED3C6B83ED367B83ED67
S3150800AB803E7B83F8AC20C3F8C010C3F8E01083F806
S3150800AB90C82083F8CC2083F8E82083F8EC20D0BDC1
S3150800ABA0002D310100000000000000000000000038
S3150800ABB0F0220020400D0300581A0020E8200A0859
S3150800ABC00D480E4AC3680E499FED097B10B4002450
S3150800ABD043611C700830046280F82440094B5DF814
S3150800ABE0044B80ED0A7B45F0FFBA00BFAFF3008047
S3150800ABF00000000000000000A83B0020A0140A087E
S3150800AC003CA10808647D09082DE9F04F2DED048B59
S3150800AC10544891B0FDF70CFC20B111B0BDEC048B83
S3150800AC20BDE8F08F012550490095034646220446A3
S3150800AC304E4845F01DFE4E48046143F0F5FE4D4B67
S3150800AC404D4A1B6813801B0C93704C4B9D63FFF792
S3150800AC50B7FF60F0EBFC4A494A4846F0F5FB4A491B
S3150800AC604A4846F0EDFB4A494A4846F0E9FB4A4954
S3150800AC704A4846F0E5FB4A494A4846F0E1FB4A4B52
S3150800AC801D78002D40F06581484E494845F0E0FAA8
S3150800AC9031222946474874F0C0FE96F8790164F0D7
S3150800ACA085FE96F8500564F081FE96F8DF0264F09A
S3150800ACB07DFE4149414846F0C7FB414870F08CF992
S3150800ACC0404870F089F9404A4048536843F4000305
S3150800ACD0536070F081F93E4890F83C33002B00F041
S3150800ACE043833C4B9A689B6C5380202383F31188DB
S3150800ACF005F0D4FB384B1A78511E012900F21C8343
S3150800AD0036495960012A1DD1354A3648116C41F039
S3150800AD1010011164116E41F010011166116E116A6D
S3150800AD2041F010011162116A21F0100111622E49D9
S3150800AD30126A98604FF48002702381F83633C1F89E
S3150800AD4084214A60244E2548B1680268B1FBF2F3B3
S3150800AD50013B9BB203FB0222914200F00D8323487C
S3150800AD6005F016FA20930020B8140A08B89D0020AA
S3150800AD7000B00120CC140A087C930120A83B0020CF
S3150800AD8071B60608D0140A0865A50608DC140A0870
S3150800AD90ED100508F0140A0865100508FC140A08E1
S3150800ADA00114050810150A088518022068580010AD
S3150800ADB028150A08542B01207573040840150A083B
S3150800ADC0F0950020CC95002000230140A89500208E
S3150800ADD0186200202C350120709400201C190020D0
S3150800ADE00038024000BD010500E100E000220A0823
S3150800ADF0B3F5AA7FC1F04E807BB9AF4BAF49B04AD5
S3150800AE00B048C3E902214FF4A271102219805A6092
S3150800AE10AD4900221A6146F013FBA74F264646B9EC
S3150800AE203B8833B1B86803681B689847031EC1F2AC
S3150800AE30D7820026A54FDFF8C0830096B7F84220D0
S3150800AE40A3493346404645F013FD0096B7F8D82285
S3150800AE50A0493346A8F5867045F00AFD00963346A4
S3150800AE60B7F804239C49A8F5D47045F001FD9B4921
S3150800AE709B4846F0E5FA9B4B1E7097F84D35D90767
S3150800AE8003D497F84C35DB0948D0DFF84082B8F888
S3150800AE904410B8F8460040F019FAB8F84C160746B8
S3150800AEA0B8F84E0640F012FA0646002F01F09980CF
S3150800AEB0874201F0058398F83836062B96BF8A4AEA
S3150800AEC08A4B52F82330814A186892F84026596806
S3150800AED0520608AB03C302D501F10043099308A93A
S3150800AEE0384606F043FB002E41F07E80804BC3E9CE
S3150800AEF00076764B93F84D35DB0706D5DFF8FC82EE
S3150800AF0098F8AC33002B01F0E582704B93F84C357A
S3150800AF10DB0941F0C381734B01221A70754B1B780C
S3150800AF2053B96A4BB3F8EC023EF042FA002801F036
S3150800AF308B8171483AF0AEFD644B93F8BC63F60911
S3150800AF4041F0BE803EF00AFC3FF076FA6B4845F0C9
S3150800AF507FF96B496B4846F07BFA6B496B4846F0BC
S3150800AF6073FA5A4B93F80C23120700F1CF81614B01
S3150800AF70197879B9554B66481B89692B9CBF654A70
S3150800AF8052F8231045F064F94AF0E4FE6249634832
S3150800AF9046F05AFA624DDFF8688205F580674FF089
S3150800AFA0FF36294632464046203508F0D3FCAF42E4
S3150800AFB0F7D15C485C4946F04BFA5C4800F5805589
S3150800AFC095F8AC31002B00F0C581594959485A4DBE
S3150800AFD046F042FA59495A4846F032FA59495A4807
S3150800AFE046F02EFA95F85C36002B00F0A881574BF0
S3150800AFF05A68002A00F0BB8158F09CF900283FF4F3
S3150800B0000CAE5349534846F01BFA5349534846F089
S3150800B01017FA5349534846F023FA5349534846F01A
S3150800B02017FA5349534846F013FA5349534846F01A
S3150800B0300FFA5349534846F017FA5349534846F00E
S3150800B04003FA5349534846F0FFF95349534846F023
S3150800B050FBF95349534846F0F7F95349534846F024
S3150800B060F7F930F0DDFD524857F00AFE514B5249C8
S3150800B070524801221A6046F0E3F95149514846F010
S3150800B080DFF9514A514805216CF076FF504951487D
S3150800B09046F0D6F95049514846F0D6F95049514834
S3150800B0A046F0D2F95049514846F0D6F95049514828
S3150800B0B046F0D2F9A6E000BF9036012088150A08A6
S3150800B0C08847002090150A08E19D06086858001070
S3150800B0D0B8150A08C0150A08CC150A08B1A6060844
S3150800B0E0D8150A08A4180220C8210A08E4210A0863
S3150800B0F07493012085180220A82300106C160A08EC
S3150800B1002D33060820150A08995006084895090897
S3150800B11084160A0874530908D50E050818130A0870
S3150800B120B86B002098160A08A1450208B86F0020D7
S3150800B13069630208B021080870810020B945020831
S3150800B140A8160A0831550208B4160A08E83B002072
S3150800B15029290608C0160A0805100608CC160A0882
S3150800B160052B0608D8160A08212A0608E4160A082E
S3150800B170D1290608EC160A08F9290608F8160A0855
S3150800B180492A060804170A08511B06080C170A0854
S3150800B1902D1B060818170A08AD1A060820170A08EC
S3150800B1A0D11A06082C170A08F51A060838170A08C5
S3150800B1B0981A00109493012019BC050840170A082C
S3150800B1C0CDD6050860170A0839BC05086C170A08A1
S3150800B1D099C2050884170A08ADD8050890170A0801
S3150800B1E0B5D805089C170A0889C20508A8170A08C9
S3150800B1F091C20508687C0908E89E002050BD001029
S3150800B200B0A500207649774846F02AF97649774866
S3150800B21046F022F97649774846F022F97649774882
S3150800B22046F01EF97649774846F01AF9764977487E
S3150800B23046F00AF97649774846F00EF9764977488E
S3150800B24046F00AF97649774846F006F97649774886
S3150800B25046F002F97649774846F0FEF87649774887
S3150800B26046F0EEF87649774846F0F6F87649774894
S3150800B27046F0E6F87649774846F0F2F87649774890
S3150800B28046F0EEF8764B1B78002B00F00382754CDF
S3150800B29075490125002348222046009545F0E8FA1D
S3150800B2A0002372490095472204F10C0045F0E0FAA4
S3150800B2B06F4B93F859359B0700F1F485684B1B785B
S3150800B2C00BBB6C48036143F0AFFB694BB3F8F4441E
S3150800B2D020463EF06DF838B19FED670A674B68491E
S3150800B2E06848224664F09EFB614BB3F80445204645
S3150800B2F03EF05EF838B19FED600A634B60496348DB
S3150800B300224664F08FFB35F089FB86E493F82B27F9
S3150800B310002A3FF42CAEB3F842003EF049F8002864
S3150800B3203FF425AE00220092594B5A487F224FF42B
S3150800B330CA6107F035FC1AE6574804F029FF0123CD
S3150800B340D5F8581685F85C3628463CF0D1FEC5F87F
S3150800B35060064CE60123D5F8A81185F8AC311AF039
S3150800B360AFF8C5F8B00130E63DF0B2FEB9E44B4A95
S3150800B3701168596013603FE6D0E90201F26821F0CE
S3150800B380FF01002717605060936217610223D1609E
S3150800B390337004F099FF202383F3118805F07EF8B3
S3150800B3A005F046FB3378022B40F07185032372685B
S3150800B3B03370F36852680921D962012159615F62C5
S3150800B3C01F6112B1DA680A43DA6085221A6004F04E
S3150800B3D07BFF33493348344E46F036F8012768E098
S3150800B3E0C5C30508B8E508089DC20508AC240808C1
S3150800B3F029BD0508B0170A0875BD0508C4170A0847
S3150800B400C1BD0508DC170A08DDE70308F8170A08AE
S3150800B41019BD050800180A0809BD050814180A0800
S3150800B42005BF050824180A080DBF050834180A08B8
S3150800B43059BE050844180A08759205084C180A08E2
S3150800B44015BF050858180A0851B2040870180A08E2
S3150800B450D1FD05087C180A080DBE050894180A08C7
S3150800B46085180220C49D0020781B0A088C1B0A0830
S3150800B47068580010DCB0012000401C465C1900200A
S3150800B480AC1B0A085046002068190020C846002050
S3150800B49079BD04086865002010220A0804180020EF
S3150800B4A0898504084C150A08302B0120384606F011
S3150800B4B07DF93368012BF9D9694B93F8BD23170732
S3150800B4C078D5D3ED757ADFED676A9FED676A93F8ED
S3150800B4D04C359FED660A67EEA67AB6EE007A67EEF9
S3150800B4E0877A180786EE277A614BDFED626AD3ED15
S3150800B4F0007A9FED616A27EE267AF4EEC67A48BF8F
S3150800B50037EE077AF1EE10FAD8BFF0EE477AF0EE8A
S3150800B510046A27EEA67AB4EEC07AF1EE10FA00F3C2
S3150800B52049879FED507A67EE877A87EE800A62F040
S3150800B530C3FD524B00225A60B0EE087AC0EE076A85
S3150800B540F7EE004A36EEA45ABFEE007AA0EE005A8D
S3150800B55074EEE65A84EE856AA0EE007AE0EE005AAA
S3150800B56037EE077A66EE866A67EE067A26EE256A6B
S3150800B570B1EE667AC3ED006A83ED027AC3ED037A0B
S3150800B58083ED046A364B93F80B365907C3F38006E6
S3150800B59000F19C863A48032256213EF053FE39486C
S3150800B5A0032257213EF04EFE374890F83C33002BD5
S3150800B5B000F012872A4B93F80C33DE0700F1388621
S3150800B5C0274B93F80C339A0700F1DC85244B93F844
S3150800B5D00C335B0700F1D185214B93F80F33DF0756
S3150800B5E000F1C6851E4B93F809361E0700F1BB8588
S3150800B5F01B4B93F80936D80600F1B085184B93F81B
S3150800B600103F002B3FF409AC204E0F335B0100229C
S3150800B610C6E9232306F1A8000123142286F8A330DD
S3150800B620C6F8942044F0BCF9B369002B00F00586EF
S3150800B630174A13885168194489B222460120002AFC
S3150800B6407FF4DAAB002B3FF4D8ABB3F5A27FBFF497
S3150800B650CFABB1F5A27F0246F1D9FFF7DEBB00BF3B
S3150800B66068580010DB0F494000006144809F554828
S3150800B670CC67001000007A440AD7233C00750120E5
S3150800B68070150A087C150A08D05E00208847002035
S3150800B69090360120BC49BD4845F0D2FEBC4ABD489B
S3150800B6A005216CF069FCBC4ABC4810216CF064FCAE
S3150800B6B0BB4ABC4811216CF05FFCBB4ABB48102151
S3150800B6C06CF05AFCBA4ABB4811216CF055FCBA4AD0
S3150800B6D0BA4811216CF050FCB949BA4845F0B0FE99
S3150800B6E0B949BA4845F0ACFEB949BA4845F0A8FE8A
S3150800B6F0B94ABA4805216CF03FFCB949B94845F042
S3150800B7009FFEB949B94845F09BFEB949B94845F085
S3150800B7109BFEB949B94845F093FEB949B94845F081
S3150800B7208FFEB949B94845F08BFEB949B94845F085
S3150800B7308BFEB948B94A11216CF01EFCB84890F83E
S3150800B7403C33002B00F03384B64EA6F5B16557F0AE
S3150800B750B5FCB548314644F0A1F9B5F8CA023DF042
S3150800B76027FE68B105F5D46393ED000ADFEDAF0A4D
S3150800B770AF4AB049B048B8EEC00A00236CF018FBCF
S3150800B780AE4BB3F9E420B3F95210914201DAA3F8AB
S3150800B7905220AB4BAB4FAC4DAC4EDFF8A0927B6062
S3150800B7A003F14001B96003F15001F96095F8011AF7
S3150800B7B0DFF800B34FF07E524FF014084FF4EE6AEC
S3150800B7C0BA613A617A61B2613261726118FB01A1AC
S3150800B7D003F160024944726005F6042003F1A002F1
S3150800B7E0B033B260F36044F059F995F8511AC5F8C8
S3150800B7F0347A18FB01A1494405F65420C5F838BA2D
S3150800B80044F04CF995F8A11AC5F8846A18FB01A109
S3150800B8100BF17803494405F6A420C5F8883A44F0A4
S3150800B8203DF995F8F13AC5F8D47A18FB03A14944CD
S3150800B8300BF1F00305F6F420C5F8D83A44F02EF9D2
S3150800B8400BF5B473C5F8283BC5F8246B51F0D0F94D
S3150800B85099F8BC33590600F19D837D483AF01AF9E8
S3150800B8607C483AF017F97C483AF014F97B483AF0E4
S3150800B87011F901205FF0FEF8704B93F80F2392063A
S3150800B88040F1288393F84D25D70704D593F84C350E
S3150800B890DB0940F0AE85724940F25E2052F0DEFCCC
S3150800B8A0664D95F809369E0640F1278395F84C357E
S3150800B8B0DB0940F080836B4940F25E2052F0CEFCF3
S3150800B8C0212038F06FFD48B95C4B674DB3F83A83D1
S3150800B8D0B3F83C73AB68002B00F09385574B93F88D
S3150800B8E01E124B1E2F2B0AD8604CDFED500A9FED17
S3150800B8F0600A20463EF00EFD20463AF0CBF84F4D42
S3150800B9005C4995F836025C4F5FF074FD95F80203C2
S3150800B9105A495FF06FFD59F083F905F61E56002463
S3150800B92005F64F5515F8012F36F8021F013438462B
S3150800B9303EF088FC082CF5D15149524845F090FD57
S3150800B9405149524845F07CFD5149524845F078FD29
S3150800B9505149524845F078FD384B93F85935DB097B
S3150800B96040F06F834E494F4845F06AFD4E4B93F8B9
S3150800B97027201AB94D4A1168D96213604A4E4C4CB1
S3150800B980B4614EF6602297E039210608A8180A081D
S3150800B990E1200608B8180A08692D0608C8180A0812
S3150800B9A0492D0608D4180A081D2E0608E0180A08A4
S3150800B9B0FD2D0608EC180A08992E0608F8180A0834
S3150800B9C04521060804190A08CD1F060814190A088D
S3150800B9D0D91F060820190A08751F06082C190A080F
S3150800B9E0A121060838190A08C50F060848190A08C1
S3150800B9F0E151060858190A08852006086C190A082C
S3150800BA00352006087C190A08F521060888190A0847
S3150800BA10D10F060894190A08A0190A08252F06083E
S3150800BA20308D0020F05D0010C006001000000000F8
S3150800BA305C9E0020AC190A083040002068580010A7
S3150800BA40DC8B0010BCB00120000000109CB0012067
S3150800BA5074B0012064B0012054B0012044B0012024
S3150800BA60C0190A08F8190A089C8D0120A88C00201C
S3150800BA70CDCC4C3D088D0020341A0A08E08C0020F5
S3150800BA8055DF0608401A0A084DDF0308501A0A0847
S3150800BA903D5D0408641A0A08F59C0608741A0A0823
S3150800BAA0B9580408CC7E080840470020A0AC0020FE
S3150800BAB0BA5D0010E83C00200023C6E902233046A0
S3150800BAC004F22A630025336286F826503EF098FC75
S3150800BAD00121B24A86F82710B149B24B53604FF09C
S3150800BAE07E56B14B91602039966116615661D160D8
S3150800BAF001F140025A6001F5B0729A60AB489E6146
S3150800BB00203A29461E615E61DA6034F09DFEA84B34
S3150800BB10A84AA948A9495A6002F580729A60416004
S3150800BB20103201F58071DA608160A54A9E61103194
S3150800BB30C1601031516040311E615E619160A14B58
S3150800BB409661103116615661D16001F160021031BB
S3150800BB50C3E901128661066146619E611E615E61E6
S3150800BB6001F16002984E994FDFF8F8A2DA60A4F264
S3150800BB705254B4F8B88940463DF01AFCA0B3B4F85C
S3150800BB80BCB9934B934942464FF00C0807EE90BA5E
S3150800BB9008FB0538BBF10009404618BF4FF00109FC
S3150800BBA0B8EE678A44F00CFFBBF1000F40F08581C0
S3150800BBB05AF8253004F6E2125A604FF07C529A6120
S3150800BBC004F6C2129A604FF080421A6104F6D21245
S3150800BBD0DA604FF07E525A61C6E9048304F6B81358
S3150800BBE086F80890F76073600135042D04F16C043B
S3150800BBF006F1180607F17807BBD1774C774D94F80C
S3150800BC00643404F29C50002223F0070305F65C1105
S3150800BC10A5F8DC2584F8643443F040FF95F8CD3068
S3150800BC206F4DD8064CBF04F5986004F591606D4CCD
S3150800BC30294643F033FF204630F0E8FF53F0B6FBC1
S3150800BC40A4F5BA62002182F85814A4F5BA72664BB4
S3150800BC501360A5F5BA65A4F5A8726448644913602B
S3150800BC6045F0EEFB95F8CD30D9064CBFA4F58870A3
S3150800BC70A4F5A470594C04F5BA6104F5BB6304F243
S3150800BC80D4520D681968C36A12685A6002681D6042
S3150800BC905268996090475749574845F0D1FB574B2A
S3150800BCA01B78002B37D14C4B554A56485649574DA9
S3150800BCB0574EC3E9F002574845F0C2FB5649574864
S3150800BCC045F0BEFB564B5749574A5D614FF07E50CB
S3150800BCD08861086190611061186104F51A60C8608E
S3150800BCE0524848615248986104F58C40986006307D
S3150800BCF0D86004F5646004F6AC14C1E901044D4942
S3150800BD00566004F66C3400F5DD60C2E90240556100
S3150800BD10596052F081FB314B93F858355A0600F1B9
S3150800BD205D8150F05FFE4449444820F0F1FD444BE4
S3150800BD304449A3F568624FF07E54B2F84C00424A73
S3150800BD404B60A3F59C65A3F2D4468C6124330C6141
S3150800BD50946114613D4CCD60C2E90136D560334B20
S3150800BD608E6000254B61536125703DF021FB58B16B
S3150800BD702B46DFED370A9FED3C0A364A36493748E7
S3150800BD806CF016F801232370144B354CB3F8160ED5
S3150800BD90002525703DF00CFB68E000BFACBC002018
S3150800BDA09097001070960010E8BC0020A00B0010B9
S3150800BDB0A89B0020F098001078980020109A001090
S3150800BDC05898002038980020B48D0120C888002093
S3150800BDD02C1900202C1B0A080000001068580010B7
S3150800BDE0385E0010D00500100000C8C2341B0A08CF
S3150800BDF0BDB0050859AA0408401B0A088518022080
S3150800BE00281F0020F01F002081C905080AD7233CF7
S3150800BE10406D00104C1B0A08C9A10508581B0A08E2
S3150800BE2024B00120907501200C8D01200000C84225
S3150800BE30CDCCCC3D449E00106F86140090BC0020EB
S3150800BE40E8660010A4A7002084A70020C6180220D0
S3150800BE50CDCCCC3D9C9E0020601B0A085088002053
S3150800BE60C51802201C220A080000C07F00283FF4DB
S3150800BE700EAA2B461FED040AC54AC649C648F6EE61
S3150800BE80000A6BF095FF01232370FFF700BAC34839
S3150800BE9004F07EF9B1F5AA7F4FF001027FF6CFAB29
S3150800BEA0FEF7BBBFBE4B1B78002B7FF42CAABD49FF
S3150800BEB0BD4845F0C5FAFFF701BABC4BDFEDBC0A31
S3150800BEC053F82510B0EE480A0023424638466BF070
S3150800BED06FFF6DE693F84C32013B2F2B02D8B5481D
S3150800BEE039F0D8FDB44B93F84D32013B2F2B3FF672
S3150800BEF0D7ACB24839F0CEFDD2E4B149B14895F88D
S3150800BF00D76245F09DFAB049B04845F099FA3046EF
S3150800BF103DF002FCAE4BC3F85803002800F0E98256
S3150800BF2003F2463603F26F379B4605F5517503F55E
S3150800BF30807A039405E00BF1200BD34505F1020541
S3150800BF406DD000234FF0010826F8028F07F8013F4D
S3150800BF509BF87C0338F026FA04460028EBD1B5F89E
S3150800BF60009048463DF024FA0028E4D0984B49460C
S3150800BF7003F55770C3F8604343F09AFA954842466A
S3150800BF8049463EF05FF92B8833800BF55E7039F031
S3150800BF9081FDD0E7904857F02BF9904857F028F9DB
S3150800BFA08F4857F025F98F4857F022F955E43DF0A8
S3150800BFB08FF8FFF7C9BB8C4857F01AF98B4857F02A
S3150800BFC017F98B4857F014F98A4857F011F98A4837
S3150800BFD057F00EF9894857F00BF971E454F012FC42
S3150800BFE09FE600283EF49AAF734B93F83A36062B31
S3150800BFF000F25281824A52F823306F4A186892F842
S3150800C00040265968D20906AB03C302D001F10043A2
S3150800C010079306A9304605F0A9FAFEF767BF6C4DE7
S3150800C020039C95F83C33002B7FF44AAC0123D5F8E2
S3150800C030381385F83C3328463CF032F8C5F84003F7
S3150800C0403EE4704B93F8D421002A00F0108193F84F
S3150800C050D521002A00F01D81D3F8D8310B939DED28
S3150800C0600B8A18EE100AFCF755FB0446224666486A
S3150800C0700B460D4644F0ECF8B4EE488AF1EE10FA99
S3150800C08080F1E980DFED617AB4EEE78AF1EE10FA25
S3150800C09000F3E180DFED5E7AB4EEE78AF1EE10FA9E
S3150800C0A000F1D9805B4844F0D3F8564B40F20111B1
S3150800C0B0002283ED648AA3F88C1183F88E2151E45B
S3150800C0C093F8B429052A00F21982DFE802F0373A14
S3150800C0D0342D034440F2F1134F4900220B804F4B95
S3150800C0E04F481A8039F0D6FC4E4839F0D3FC324B0B
S3150800C0F04D4993F8BC230E7090067EF523AF93F84E
S3150800C100B429052A00F2018201A353F822F000BFE0
S3150800C11049C1000849C1000849C1000845AF0008DF
S3150800C12049C1000845AF00083B4B4FF421721A80FD
S3150800C13040F28522D3E74FF4D073CDE74FF4F87376
S3150800C140CAE74FF40073C7E7384940F66E0052F065
S3150800C15085F8FEF7F7BE40F20933BDE706203FF043
S3150800C16037F9FFF74BBA05203FF032F9FFF740BA27
S3150800C17004203FF02DF9FFF735BA03203FF028F9E0
S3150800C180FFF72ABA02203FF023F9FFF71FBA00BFCC
S3150800C190DC9E00206C1B0A08D8870020EC210A08C0
S3150800C1A085180220CD9D0608A01B0A084C220A08FD
S3150800C1B00000000090B001206858001084B00120EB
S3150800C1C0E5020508201A0A083D030508281A0A0880
S3150800C1D09027002088810808508B0020188B0020A3
S3150800C1E0E08A0020A88A0020788C0020488C00204D
S3150800C1F0188C0020E88B0020B88B0020888B002044
S3150800C200C8210A08D0A70020801A0A080000DC42C4
S3150800C21000007042BC1B0A088218022080180220FF
S3150800C2205848002038480020C41802202C160A084E
S3150800C23001203FF0CDF8FFF7C3B9B94B1A68B261D0
S3150800C24014361E60FFF7F4B9B64B93F8AC036DF0DD
S3150800C250CFFAFEF771BEB44922462B4640F6B20025
S3150800C26051F030FCB14843F0F3FFFFF77BBBD3F83E
S3150800C270DC4174B1236820469B68984748B1236817
S3150800C28021465B680AA898479DF82830002B7FF45A
S3150800C290E6AE9FEDA78AE4E6A64BAEE6A648C0F84A
S3150800C2A0687327B190F83C33002B00F01081A3483F
S3150800C2B0C0F86863002E3EF42EAE90F83C33002B8F
S3150800C2C07EF429AE3CF004FFFEF725BE9C4BDFED5D
S3150800C2D09D9A9FED9D9ADFF8B4A20FCB10AF07E9A0
S3150800C2E00F004FF0000900279FED988A0DF1300BDB
S3150800C2F0B84607EE907AF8EEE77AFBEC018A77EE15
S3150800C300A77A08F1010827EEA90A4F4480EE090A20
S3150800C3106FF0C4FAB8F1040FA8EE808AE9D109F1E2
S3150800C3200109B9F5806FAAEC018ADCD1884BDFEDEB
S3150800C330876A1868DFED875A9FED876ADFF850C26B
S3150800C34005EE104AAE464FF47A6700220CFB02F35C
S3150800C35007EE903AF8EEE77A411C67EEA57A914225
S3150800C36037EEC67AB0EEC77ABDEEC77A17EE103A40
S3150800C37005D1B8EEC57A37EEC77AF0EEC76ABB4282
S3150800C38004DABDEEE75A1F46B64610460132B2F544
S3150800C390007FDBD1BEF1000F01D06D4B18606F4BEB
S3150800C3A015EE101A03F69802A3F89618C2ED006A5D
S3150800C3B0FFF7F0B817EE900AFCF7ACF902460B4601
S3150800C3C0CDE90023664954A3D3E9002340F25E2051
S3150800C3D051F044FFFFF7D6B83CF07AFEFFF7EAB80B
S3150800C3E03246604940F25E2051F038FF0126FEF7DA
S3150800C3F016BD5D4856F0FCFE5C4856F0F9FEFFF7A0
S3150800C4004FBA40463CF0D4FF00283FF467AA3846A6
S3150800C4103CF0CEFF00283FF461AA554E052230466F
S3150800C42041463DF00FFF0522394630463DF00AFFEA
S3150800C43040466BF0FBFD4146286030463DF0A0FCC7
S3150800C440686038466BF0F2FD394603463046AB6005
S3150800C4503DF096FC6A682968E860012606FA02F249
S3150800C46092B20A8306FA00F3AA689BB213830DF107
S3150800C47013010F23284632468DF8133064F028FF3F
S3150800C48032460DF11201284664F03CFF9DF8123041
S3150800C490B12B2BD0BD2B7FF421AA4CF22043344676
S3150800C4A0344DADF814302846022205A92C6164F0F3
S3150800C4B00FFF012330482B7539F0ECFAFFF70EBA57
S3150800C4C02E4940F25E2051F0C9FEFEF727BD3CF02A
S3150800C4D0FFFDECE60123D8F8A81388F8AC334046EC
S3150800C4E04DF062FEC8F8B003FEF70FBD44F21043E4
S3150800C4F0D6E7234843F0ACFEFFF7E2B9214940F6F8
S3150800C5006E0051F0ABFE2E46F1E51F4940F66E006F
S3150800C51051F0A4FEFEF716BD00000000F0B30A4174
S3150800C5200418002000200010B01A0A08DC1A0A08AD
S3150800C53067A6CA42E4210A08E0B9001070B60010DE
S3150800C54008010808DB0F494000C07F4400000000CE
S3150800C550EC6601200000803A00007A4500000010D1
S3150800C56050150A089C150A08D04800209048002053
S3150800C570301A0A089C8D012028460020E0150A0872
S3150800C580948108080C160A0854160A08A0110120F6
S3150800C5907E5603000000000038B59FED216BDFEDE5
S3150800C5A0227A224B0360044600250123036480EDAA
S3150800C5B00E6BC0E90755C0E90955C0ED017AC0ED13
S3150800C5C0027AC0ED037AC0ED047AC0ED057AC0EDB3
S3150800C5D0067AC562C0ED0C7A80F8345080F844506B
S3150800C5E085644C306AF0C4FC114BA4F8B0504FF087
S3150800C5F0824284ED206B84ED266B84ED2E6B84F8E5
S3150800C6007C50C4F88850C4ED237AA4F89050C4ED41
S3150800C610287AC4ED297AC4F8A820C4F8AC3038BD05
S3150800C62000000000000000F0000000003C360A0888
S3150800C630CDCCCC3D000000009FED0F7B002200B55D
S3150800C640C0F8A4104FF0000E0D49C0F80CE0C0F871
S3150800C65020E0C0E90422C0E9062280ED0E7B80EDC9
S3150800C660347B5DF804EB426082600160426242F00E
S3150800C670F7BD00BFAFF3008000000000000000F027
S3150800C68024360A080000000010B59FED136BDFED95
S3150800C690147A144CC0ED147A00234FF0010C83620F
S3150800C6A080ED126BC362C0E90833C0E90A33C0E9FA
S3150800C6B00C33C0E90E33C0E91033C0E9033300F187
S3150800C6C00C0E036043714361C36180F854C08361F3
S3150800C6D080F804C0846010BD00000000000000005F
S3150800C6E00000C07F5C220A0870B5214ED6F8F035E6
S3150800C6F0D6F88047A6F8F405013382B00546C6F891
S3150800C700F035ACB1002306F5C16001E0A3420FD0B5
S3150800C7101A010133815AA942F8D1164C144420460D
S3150800C72043F03EF9144802B0BDE8704043F038B90A
S3150800C73004F026F9D6F88037104C0190172B0FD83D
S3150800C74003F5AC619FED087B04EB011484ED007BD7
S3150800C750258101330198C6F8803704F0B1FFDEE77A
S3150800C760019804F0ADFFDDE700000000000000F0CE
S3150800C7700050001000560010F85500100000001078
S3150800C7802DE9F04F2DED068B0123DFED5BAA85B071
S3150800C7900A24BFEE009AB8EE008AF6EE008A06462C
S3150800C7A01D4629EE08AADFED559A2AEE09AA4FEA90
S3150800C7B0450B32464FEA051AE800B7EE009A002103
S3150800C7C0871802F1040990460B46D7ED010A97ED42
S3150800C7D0000A69EE207A20EEE97AE9EE807A5B446F
S3150800C7E0A9EE007AF4EE477AF1EE10FA58D698EDEB
S3150800C7F0016A59ED016A36EE676A76EEC76A87ED11
S3150800C800016AC7ED006A98ED016A59ED016A77EE8B
S3150800C810867A36EE877AB3F5806F09ED017A574442
S3150800C820C8ED017AD144D044CFD369EE8A7A2AEE8C
S3150800C830E97AE9EE2A7AAAEE097AB4EE677AF1EE8F
S3150800C84010FA40D60131A94239EE079A79EEA79A2D
S3150800C85002F10802B4D1013C1DD05846FBF738FF57
S3150800C86002460B4622A1D1E90001FCF7D5F8FCF7F0
S3150800C87081FA09EE100A29EE280A6FF07FF8B0EE61
S3150800C88040AAB0EE490A6FF079F85D46B0EE4A9ACA
S3150800C890F0EE40AA85E705B0BDEC068BBDE8F08F43
S3150800C8A0F0EE691AB0EE491ACDE90202CDE9003177
S3150800C8B072F0D8FDDDE90202DDE90031B0EE407A1A
S3150800C8C0F0EE607A93E7F0EE6A1AB0EE4A1AF0EEE6
S3150800C8D0690AB0EE490ACDE90102009172F0C2FD7B
S3150800C8E0DDE901020099B0EE407AF0EE607AA9E738
S3150800C8F000000060FB2109C02EBDBB33000000000C
S3150800C9002DE9F04FC84BC94CC949CA482DED068BCD
S3150800C910C3F82C44C84C1C600022C84CC3F83444E5
S3150800C920C3E90122C64C83F83024C64B0B60C1F814
S3150800C9306446C54BC54C1A708125C1F858566360C4
S3150800C940E360C34DC34B81F85C260026C2492560C7
S3150800C9504FF07047C0E90067C04D0D606420C1E91B
S3150800C9600620086203F1280103F14000C3E9021119
S3150800C9701960586003F1200103F11800C3E90600A5
S3150800C980C3E90811B648B7491A6100F128051A75AE
S3150800C9904FF47A7C0B460560B34FC560C4F808C0EF
S3150800C9A000F11804C0E9064400F1400600F120042D
S3150800C9B043F8247BC0E90844C1E902228560466041
S3150800C9C0026102750A7183B0A431FF2043F8102C66
S3150800C9D003F80C2C23F80A2C03F8082C03F8070C88
S3150800C9E003F8062C10339942F0D1A049A04BA14C6C
S3150800C9F0C3F89C4001F134001425C3F894505861DB
S3150800CA00002444F620604FF07045C3E92A451960B2
S3150800CA10C3E9022298491A71C3E90622C3E9232207
S3150800CA20C3F89800954B9648964C0860862581F879
S3150800CA303C23C1F84823C1F83853C3F83853C1F822
S3150800CA40444301259049C3F8485318608F4D83F82D
S3150800CA503C238720C1F8A8030520C3F84443C1E94D
S3150800CA60ED508B4B81F8AC239FED698B894A0A60A0
S3150800CA70002703F5C0729F6083ED068BDF6083EDA8
S3150800CA80088B83ED0A8B1F6083ED0C8B1F6183ED8A
S3150800CA900E8B83ED108B83ED128B83ED148B83ED58
S3150800CAA0168B60339342E6D17B4B7C4A1A607C4AEC
S3150800CAB05A60DA6017707B489FED7B9A4FF47A626A
S3150800CAC028219A606CF0B2FE784825216CF0AEFEFB
S3150800CAD0774859216CF0AAFE76485A216CF0A6FED2
S3150800CAE0754B764824221A712321754A1A606CF010
S3150800CAF09DFEFDF7B1FF734BDFF828C272491F721E
S3150800CB0022221A71714ACCF82020C2E90077C2E9BC
S3150800CB10027717750022C3E9041203F128021A6284
S3150800CB204FF021028CF80420694A1A60694ACCF849
S3150800CB300020694A1F739FED38AB02F5804502F560
S3150800CB408C4602F5805A02F540589FED357B634ABC
S3150800CB5083F82C7002F5805B83ED068B83ED0CABB6
S3150800CB605F48604A83ED099A202100238CED047BF7
S3150800CB708CF808708CF80C708CED068B6CF042FE05
S3150800CB805948584A9FED590A4F2100236CF03AFE3E
S3150800CB904D4A574800231F216CF034FE554B4A492D
S3150800CBA055481F720022C3E904124FF00C0119718F
S3150800CBB052491960F7EE009A1F7383ED068B504BA6
S3150800CBC040F8043BF0EE690A6CF016FC65F094F840
S3150800CBD04C486CF011FC4C4B4C481860C3ED019A5C
S3150800CBE083ED029A83ED039A83ED049AC3ED059AC1
S3150800CBF0474B4848484A83ED00AB484B212183ED13
S3150800CC0000AB00236CF0FEFD454B404818608BE0F6
S3150800CC10000000000000000000000000000000F016
S3150800CC2000093D0000000000248F01208C250A0819
S3150800CC3000520020A03B0020A4280A08B8210120A1
S3150800CC4090250A088C280A08F4B00120F0AF0120C4
S3150800CC509C250A0858C8001000B00120C8280A08F0
S3150800CC6098C80010942A0120DC280A0804290A0812
S3150800CC70884700208F1E1700E0B9001070B6001014
S3150800CC8068290A08BCA6080850BD0010B4A60808FA
S3150800CC90082C00204C290A08F4570120AC250A085C
S3150800CCA0D8C8001030260020000000008824002084
S3150800CCB038250020E02400208CAC002030240020F9
S3150800CCC07C290A08A88C002080841E009C8D0120DF
S3150800CCD098290A08BC290A0868580010000000109C
S3150800CCE0D8200020801A0600B02000200000C84284
S3150800CCF0C8220020A8220020A0960120E8200A08C1
S3150800CD00DC290A08C0960120EC930120280D0A08A0
S3150800CD1080480020E0250020400D030078480020C8
S3150800CD201494012028460020CB4ACC48C3ED019A2A
S3150800CD3083ED029A83ED039A83ED049AC3ED059A6F
S3150800CD40272100236CF05EFDC548C34A3321002322
S3150800CD506CF058FDC348C04A352100236CF052FDDB
S3150800CD60C148BD4A372100236CF04CFDBF4BC04A71
S3150800CD70C0491960C3E90A771F721F731F6283F8D7
S3150800CD80247083ED068B83ED0C9ABB4B1160BB496F
S3150800CD9019604FF0260CB54BDFF84CE382F804C057
S3150800CDA04FF0340C83F804C042F2046CB24BAEF870
S3150800CDB004C04FF0270C8EF806C0CEF8001043F2D8
S3150800CDC0324E9FEDA17BA3F804E04FF0330E83F8B3
S3150800CDD006E0A64B1772C2E90A7782ED047B83ED5B
S3150800CDE0047B1773176282F8247082ED068BA448B9
S3150800CDF082ED0C9A0521984A00236CF003FDA148A0
S3150800CE00954A312100236CF0FDFC9F499F48086034
S3150800CE109F48DFF8D8E20F720F734F6281ED068BD9
S3150800CE209A49077201600773476280ED068B994835
S3150800CE30CEF80010A8F5F8714160A8F51C7181605C
S3150800CE409149954808629249CEF8200008629148AF
S3150800CE50DFF89CC28EF808700B46904901608A4933
S3150800CE608F4888620130986287498EF80C700130C5
S3150800CE709FED777BCEF828004FF02900087182498C
S3150800CE80CEF824704FF02A0081ED047B187185498D
S3150800CE908CF808704FF02B0083ED047B8EF80400A5
S3150800CEA0814B824A4FF02C008EED047B8CF80400EF
S3150800CEB08EED068B7E488CF80C70CCF82810013164
S3150800CEC099624FF02D0E013183F804E081624FF02C
S3150800CED02E0E784980F804E07748886077487849C4
S3150800CEE0816073491F7281ED047B81ED068B67496A
S3150800CEF01F7301F1240083ED047B5F6219601862D9
S3150800CF0083ED068B6A4BCCF8001019606949CCF89A
S3150800CF1024708CED047BCCF8200018628CED068B0F
S3150800CF20684808604FF0190C81F804C063491F72FD
S3150800CF3008604FF01A001F735F620871624B6348FE
S3150800CF401921C2E901171A21D76059606049116091
S3150800CF5019602831116219624FF00101D76283F80E
S3150800CF60381091854FF00101DF6299850021C2E9E9
S3150800CF700401C3E90401C2E90977C2E90C77C3E9E8
S3150800CF800277C3E90977C3E90C7782F8387082ED2E
S3150800CF90068B83ED068B63F027F9DFF858E14D4AD7
S3150800CFA0DFF854C1CEF800200C21CEF82C10283218
S3150800CFB04FF00301484B8EF80410CEF820204FF0AE
S3150800CFC00101464A8CF80410F1EE007A4FF4FD612F
S3150800CFD0CEED0C7A8EF808708EF80C70CEF82470A8
S3150800CFE0CCF800301360CEF8281028338EED048B69
S3150800CFF08EED068B4FF0050E8CF808708CF80C70C9
S3150800D000CCF82470CCF820301362CCF82810CCF871
S3150800D0102CE08CED048B8CED068BCCED0C9A0F2353
S3150800D0204FF0020C177217735762D36291622C4B3A
S3150800D03082F804C082ED048B82ED068BC2ED0C9A51
S3150800D040284A5FE0AFF3008000350C0000000000BE
S3150800D050804F120000000000400D03000826002043
S3150800D0601049002090250020B8250020882D002092
S3150800D070C02D0020082A0A0804940120EC290A0871
S3150800D080088D0020E08C0020788C0020382A0A08B9
S3150800D090488C0020A89301205C2A0A08282A0A0836
S3150800D0A005030A0008030A00B88B0020D0480020B0
S3150800D0B0888B002090B0012059A1060884B0012071
S3150800D0C071A10608AC2A0A0890480020C0D40100BD
S3150800D0D0702A0A08402B0A08042B0A08E08A00204E
S3150800D0E0A88A0020C82A0A080C940120188C002057
S3150800D0F0E88B0020508B0020188B00203333234008
S3150800D100000048431FED037A1A604FF4FD6EC3F81A
S3150800D11028E028324FF00D0E4FF00F0C1FED080ACD
S3150800D120DE4883ED0C7A0E211A6283F804E01F723A
S3150800D1301F735F62C3F82CC083ED048B83ED068BE7
S3150800D1406CF092FBD6480F216CF08EFBD548112166
S3150800D1506CF08AFB1221D4486CF086FBD34BCF487F
S3150800D160186090F82420CE485A73586090F8242006
S3150800D170CF489A734FF00D0E83F80CE098601F7530
S3150800D18083ED049AC74ACB4B1A60986092F824201C
S3150800D190C9485A734FF00F0CC34A80F806C0DFF827
S3150800D1A05CC35A6092F824208CF806109A73C34917
S3150800D1B0016002464FF0100E1F7583F80CE083EDF0
S3150800D1C0049A80ED029A80ED039A40F60D63BC48F6
S3150800D1D09380BB4ACCF8001041F210134FF0150E9D
S3150800D1E0ACF80430B0EE690A41F213430160B54861
S3150800D1F08CED029A14218CED039A938082F806E04E
S3150800D20082ED029A82ED039A6CF02EFBAE48152148
S3150800D2106CF02AFBAD4BAB49196091F82420AA495A
S3150800D2205A7391F824209A73A94A1F75A94F176053
S3150800D2309F489FEDA90A9860132759601F73A7484E
S3150800D24083ED049A1D21162393806CF00DFBA448E8
S3150800D250A44F1E216CF008FB63F0E4F8A24AA34B26
S3150800D260A3494FF0030C4FF0010087F80CC0107368
S3150800D2704FF0200C9F4883F80CC018604FF0500CF4
S3150800D2803860086010609C4887F804C0B860512769
S3150800D2900F71232788600F7352210024A5F5804754
S3150800D2A0986090601171AAF6F87053221A7169F0A5
S3150800D2B0A5FE9022214607F57F6072F0AEFB07F5C2
S3150800D2C08453202221460AF19800CAF88040CAE908
S3150800D2D02344C3E90144CAF8944072F09EFB202215
S3150800D2E021460AF1B80072F098FB402221460AF15D
S3150800D2F0D80072F092FB07F589534022214607F5BC
S3150800D3008C50CAF82041CAE94F445C60CAE95744C0
S3150800D310CAE95A44CAE95C44CAE94A44CAE94C44D7
S3150800D320CAE95244CAE95444CAF81C418AF87C41FD
S3150800D3308AF87F41CAF81841CAF83841CAF85841EC
S3150800D340AAF87A41AAF87D41CAF84441CAF8644164
S3150800D350AAF8784172F061FB4022214607F58E5003
S3150800D36072F05BFB4022214607F5905072F055FBA0
S3150800D3704022214607F5925072F04FFB20222146A3
S3150800D38007F5945072F049FB2022214607F595507F
S3150800D39072F043FB2022214607F5965072F03DFBBA
S3150800D3A02022214607F5975072F037FB20222146A6
S3150800D3B007F5985072F031FB2022214607F599505F
S3150800D3C072F02BFB2022214607F59A5072F025FBB6
S3150800D3D02022214607F59B5072F01FFB07F59C5348
S3150800D3E04022214607F59D50CAF88043CAE9E4441D
S3150800D3F0C3E90144DC60CAE9E64472F00EFB202268
S3150800D400214607F59F5072F008FB2022214607F5B2
S3150800D410A05072F002FB07F5A153402221460AF5F7
S3150800D4208660CAF82044CAF828445C60CAF82C44C6
S3150800D43072F0F3FA402221460AF59160CAF874445C
S3150800D440CAF87044CAF87844CAF87C44CAF88044D2
S3150800D450CAF8844472F0E1FA402221460AF59B6034
S3150800D460CAF8C844CAF8CC44CAF8D044CAF8D4445E
S3150800D47072F0D3FA07F5A9532022214607F5AA50D8
S3150800D480CAF82045CAF81C455C60CAF83445CAF88B
S3150800D4903C45CAF81845CAF8304531E0E091002005
S3150800D4A098910020509100200891002074AC00202B
S3150800D4B0982B0A084CAC002064AC00207C2B0A0888
S3150800D4C014AC0020C09000207890002024AC0020E6
S3150800D4D02C9401209C200A0800007A444821002048
S3150800D4E00021002074B0012054B0012044B001206E
S3150800D4F064B00120B42B0A08000080BF3CAC0020B1
