S01400006275696C642F7275736566692E7372656343
S3150800800010100020B9830008F1E80208F983000877
S315080080101D840008F88300080B840008BA37841A00
S3150800802058CF0900B3830008B3830008E143010869
S31508008030B3830008B3830008B3830008A553010877
S31508008040B3830008B3830008895201080153010865
S31508008050B3830008B38300083D9B0408459B0408C6
S315080080604D9B0408559B04085D9B0408D5470108E9
S315080080700D4801084948010885480108C148010812
S31508008080F9480108354901085D440108B546010863
S31508008090D9460108FD46010821470108659B0408E1
S315080080A0B3830008C1550108B3830008E5550108E4
S315080080B091540108E95501080D560108A19A0408CA
S315080080C0B3830008854B0108BD4C0108B38300083B
S315080080D0B3830008B38300081D58010841580108F6
S315080080E0899B040849530108B3830008B383000831
S315080080F055560108B38300087956010871490108E5
S31508008100B3830008B383000831560108B383000817
S31508008110B3830008B383000831540108B383000809
S31508008120AD490108E5490108214A01085D4A0108E7
S31508008130994A0108B3830008B38300084547010834
S31508008140694701088D470108B1470108D94D01085B
S31508008150D14A01080D4B0108494B01087D56010813
S31508008160B3830008B3830008B3830008B383000809
S31508008170B3830008B3830008B3830008B3830008F9
S31508008180B3830008B3830008B3830008B3830008E9
S31508008190B3830008B3830008B3830008B3830008D9
S315080081A0B3830008B3830008B3830008B3830008C9
S315080081B0B3830008B3830008B3830008B3830008B9
S315080081C0B3830008B3830008B3830008B3830008A9
S315080081D0B3830008B3830008B3830008B383000899
S315080081E0B9D10008FDAB0708000000000000000038
S315080081F001F0FF01102A2BDB10F0070F08D010F84A
S31508008200013B013A8B422DD010F0070F42B3F6D14D
S31508008210F0B441EA012141EA014122F007047FF066
S3150800822000070023F0E80256083C85EA010586EABD
S31508008230010685FA47F5A3FA87F586FA47F6A5FAF9
S3150800824087F68EB9EED1F0BC01F0FF0102F0070205
S3150800825032B110F8013B013A83EA010313B1F8D1B0
S315080082600020704701387047002D06BF3546033891
S31508008270073815F0010F07D1013015F4807F02BFCA
S31508008280013015F4C03F0130F0BC0138704700BF1B
S3150800829072B6394880F30888384880F30988384820
S315080082A04EF60851CEF20001086040F20000CCF20A
S315080082B000004EF63471CEF200010860BFF34F8F0E
S315080082C0BFF36F8F40F20000C0F2F0004EF68851FF
S315080082D0CEF200010860BFF34F8FBFF36F8F4FF0E8
S315080082E00000E1EE100A4EF63C71CEF2000108607D
S315080082F0062080F31488BFF36F8F08F0B7F924F0CF
S3150800830093FB4FF055301F491B4A91423CBF41F839
S31508008310040BFAE71C49194A91423CBF41F8040B81
S31508008320FAE71A491A4A1B4B9A423EBF51F8040B00
S3150800833042F8040BF8E700201749184A91423CBF57
S3150800834041F8040BFAE708F095F947F031FB144CAD
S31508008350144DAC4203DA54F8041B8847F9E76DF06C
S3150800836083FB114C114DAC4203DA54F8041B8847C1
S31508008370F9E708F07DB9000010100020101600205B
S31508008380008000081000002010100020104B0A087A
S3150800839010160020581A0020581A00202419022006
S315080083A0E0810008E4810008E4810008E88100080B
S315080083B06EE700F000F8FEE70A480B49026800601D
S315080083C08A4201D0FFF764FF08484FF480410160F4
S315080083D007484FF0010101600648D0F800D0406810
S315080083E000470000F0FF0120EFBEADDE4438024032
S315080083F0003801400000FF1F1EF0040F0CBFEFF30A
S315080084000880EFF3098026F077BA1EF0040F0CBF38
S31508008410EFF30880EFF3098026F0B6BA1EF0040FD2
S315080084200CBFEFF30880EFF3098026F0F9BA00BF16
S31508008430EC46A0E8F05F80EC108B4FF00000704728
S31508008440B0E8F05FE54690EC108B080008BF012005
S31508008450704700BF00F1340191E838009C46A646F3
S315080084604CF8045D90E8FF0FE54600BD90EC210B43
S31508008470704700BF80EC210B704700BF90EC200BC3
S31508008480704700BF80EC200B704700BFD0EC200B74
S31508008490704700BFC0EC200B704700BFF0EC02012C
S315080084A0F0EC0211F0EC0221F0EC0231F0EC0241A2
S315080084B0F0EC0251F0EC0261F0EC0271F0EC028192
S315080084C0F0EC0291F0EC02A1F0EC02B1F0EC02C182
S315080084D0F0EC02D1F0EC02E1F0EC02F1704700BFDB
S315080084E0E0EC0201E0EC0211E0EC0221E0EC0231E2
S315080084F0E0EC0241E0EC0251E0EC0261E0EC0271D2
S31508008500E0EC0281E0EC0291E0EC02A1E0EC02B1C1
S31508008510E0EC02C1E0EC02D1E0EC02E1E0EC02F1B1
S31508008520704700BFB0FC0181B0FC0191B0FC01A10D
S31508008530B0FC01B1704700BFA0FC0181A0FC01910D
S31508008540A0FC01A1A0FC01B1704700BFEC4600B534
S315080085502DE900502DE9FF1F4FF000032DE90C000F
S3150800856001A976F02BFFDDF840E012B0704700BF96
S31508008570EC4600B52DE900502DE9FF1F4FF000032A
S315080085802DE90C0001A976F055FFDDF840E012B0A0
S31508008590704700BFEC4600B52DE900502DE9FF1FD6
S315080085A04FF000032DE90C0001A976F063FFDDF812
S315080085B040E012B0704700BFEC4600B52DE9005008
S315080085C02DE9FF1F4FF000032DE90C0001AB76F0F3
S315080085D029FFDDF840E012B0704700BFEC4600B551
S315080085E02DE900502DE9FF1F4FF000032DE90C007F
S315080085F001AA76F093FFDDF840E012B0704700BF9D
S3150800860081F0004102E000BF83F0004330B54FEA35
S3150800861041044FEA430594EA050F08BF90EA020FA2
S315080086201FBF54EA000C55EA020C7FEA645C7FEA35
S31508008630655C00F0E2804FEA5454D4EB5555B8BF58
S315080086406D420CDD2C4480EA020281EA030382EAC9
S31508008650000083EA010180EA020281EA0303362D5B
S3150800866088BF30BD11F0004F4FEA01314FF4801C2E
S315080086704CEA113102D0404261EB410113F0004F40
S315080086804FEA03334CEA133302D0524263EB4303F7
S3150800869094EA050F00F0A780A4F10104D5F1200E95
S315080086A00DDB02FA0EFC22FA05F2801841F10001F0
S315080086B003FA0EF2801843FA05F359410EE0A5F1C4
S315080086C020050EF1200E012A03FA0EFC28BF4CF0F5
S315080086D0020C43FA05F3C01851EBE37101F00045AB
S315080086E007D54FF0000EDCF1000C7EEB00006EEBB8
S315080086F00101B1F5801F1BD3B1F5001F0CD3490842
S315080087005FEA30004FEA3C0C04F101044FEA445298
S3150800871012F5800F80F09A80BCF1004F08BF5FEA1F
S31508008720500C50F1000041EB045141EA050130BDFF
S315080087305FEA4C0C404141EB0101013C28BFB1F511
S31508008740801FE9D291F0000F04BF01460020B1FA5C
S3150800875081F308BF2033A3F10B03B3F120020CDA2F
S315080087600C3208DD02F1140CC2F10C0201FA0CF00D
S3150800877021FA02F10CE002F11402D8BFC2F1200C72
S3150800878001FA02F120FA0CFCDCBF41EA0C01904028
S31508008790E41AA2BF01EB0451294330BD6FEA040471
S315080087A01F3C1CDA0C340EDC04F11404C4F120025C
S315080087B020FA04F001FA02F340EA030021FA04F36E
S315080087C045EA030130BDC4F10C04C4F1200220FAC5
S315080087D002F001FA04F340EA0300294630BD21FA03
S315080087E004F0294630BD94F0000F83F4801306BFC9
S315080087F081F480110134013D4EE77FEA645C18BFBD
S315080088007FEA655C29D094EA050F08BF90EA020F53
S3150800881005D054EA000C04BF1946104630BD91EA4B
S31508008820030F1EBF0021002030BD5FEA545C05D14E
S315080088304000494128BF41F0004130BD14F580048D
S315080088403CBF01F5801130BD01F0004545F0FE4101
S3150800885041F470014FF0000030BD7FEA645C1ABF36
S31508008860194610467FEA655C1CBF0B46024650EA6D
S31508008870013406BF52EA033591EA030F41F4002199
S3150800888030BD00BF90F0000F04BF0021704730B51F
S315080088904FF4806404F132044FF000054FF00001F4
S315080088A050E700BF90F0000F04BF0021704730B5B5
S315080088B04FF4806404F1320410F0004548BF40428A
S315080088C04FF000013EE700BF42004FEAE2014FEADF
S315080088D031014FEA02701FBF12F07F4393F07F4FBA
S315080088E081F06051704732F07F4208BF704793F0BD
S315080088F07F4F04BF41F40021704730B54FF46074D0
S3150800890001F0004521F000411CE700BF50EA0102D2
S3150800891008BF704730B54FF000050AE050EA01027B
S3150800892008BF704730B511F0004502D5404261EBEB
S3150800893041014FF4806404F132045FEA915C3FF42C
S31508008940D8AE4FF003025FEADC0C18BF03325FEAC9
S31508008950DC0C18BF033202EBDC02C2F1200300FA7A
S3150800896003FC20FA02F001FA03FE40EA0E0021FA9F
S3150800897002F11444BDE600BF70B54FF0FF0C4CF48D
S31508008980E06C1CEA11541DBF1CEA135594EA0C0F3F
S3150800899095EA0C0F00F0DEF82C4481EA030621EA7A
S315080089A04C5123EA4C5350EA013518BF52EA0335B5
S315080089B041F4801143F4801338D0A0FB02CE4FF067
S315080089C00005E1FB02E506F00042E0FB03E54FF097
S315080089D00006E1FB03569CF0000F18BF4EF0010E8F
S315080089E0A4F1FF04B6F5007F64F5407404D25FEA8B
S315080089F04E0E6D4146EB060642EAC62141EA55513E
S31508008A004FEAC52040EA5E504FEACE2EB4F1FD0C7F
S31508008A1088BFBCF5E06F1ED8BEF1004F08BF5FEAFD
S31508008A20500E50F1000041EB045170BD06F00046AF
S31508008A3046EA010140EA020081EA0301B4EB5C045C
S31508008A40C2BFD4EB0C0541EA045170BD41F4801154
S31508008A504FF0000E013C00F3AB8014F1360FDEBF79
S31508008A60002001F0004170BDC4F10004203C35DA55
S31508008A700C341BDC04F11404C4F1200500FA05F3D8
S31508008A8020FA04F001FA05F240EA020001F0004279
S31508008A9021F0004110EBD37021FA04F642EB0601EF
S31508008AA05EEA430E08BF20EAD37070BDC4F10C0419
S31508008AB0C4F1200500FA04F320FA05F001FA04F2DD
S31508008AC040EA020001F0004110EBD37041F10001C9
S31508008AD05EEA430E08BF20EAD37070BDC4F12005D4
S31508008AE000FA05F24EEA020E20FA04F301FA05F23C
S31508008AF043EA020321FA04F001F0004121FA04F2E4
S31508008B0020EA020000EBD3705EEA430E08BF20EAB3
S31508008B10D37070BD94F0000F0FD101F000464000ED
S31508008B2041EB010111F4801F08BF013CF7D041EA6F
S31508008B30060195F0000F18BF704703F00046520073
S31508008B4043EB030313F4801F08BF013DF7D043EA44
S31508008B500603704794EA0C0F0CEA135518BF95EAFA
S31508008B600C0F0CD050EA410618BF52EA4306D1D181
S31508008B7081EA030101F000414FF0000070BD50EAA0
S31508008B80410606BF1046194652EA430619D094EA2A
S31508008B900C0F02D150EA013613D195EA0C0F05D114
S31508008BA052EA03361CBF104619460AD181EA030168
S31508008BB001F0004141F0FE4141F470014FF0000020
S31508008BC070BD41F0FE4141F4780170BD70B54FF0BB
S31508008BD0FF0C4CF4E06C1CEA11541DBF1CEA13553B
S31508008BE094EA0C0F95EA0C0F00F0A7F8A4EB05041D
S31508008BF081EA030E52EA03354FEA013100F0888014
S31508008C004FEA03334FF0805545EA131343EA1263DC
S31508008C104FEA022245EA111545EA10654FEA002691
S31508008C200EF000419D4208BF964244F1FD0404F54A
S31508008C30407402D25B084FEA3202B61A65EB0305A6
S31508008C405B084FEA32024FF480104FF4002CB6EB63
S31508008C50020E75EB030E22BFB61A754640EA0C00E3
S31508008C605B084FEA3202B6EB020E75EB030E22BF23
S31508008C70B61A754640EA5C005B084FEA3202B6EB64
S31508008C80020E75EB030E22BFB61A754640EA9C0023
S31508008C905B084FEA3202B6EB020E75EB030E22BFF3
S31508008CA0B61A754640EADC0055EA060E18D04FEAB1
S31508008CB0051545EA16754FEA06164FEAC30343EA51
S31508008CC052734FEAC2025FEA1C1CC0D111F4801F1E
S31508008CD00BD141EA00014FF000004FF0004CB6E717
S31508008CE011F4801F04BF01430020B4F1FD0C88BFB6
S31508008CF0BCF5E06F3FF6AFAEB5EB030C04BFB6EBC1
S31508008D00020C5FEA500C50F1000041EB045170BDB3
S31508008D100EF0004E4EEA113114EB5C04C2BFD4EBE0
S31508008D200C0541EA045170BD41F480114FF0000E64
S31508008D30013C90E645EA060E8DE60CEA135594EAE0
S31508008D400C0F08BF95EA0C0F3FF43BAF94EA0C0FE3
S31508008D500AD150EA01347FF434AF95EA0C0F7FF458
S31508008D6025AF104619462CE795EA0C0F06D152EAAC
S31508008D7003353FF4FDAE1046194622E750EA410690
S31508008D8018BF52EA43067FF4C5AE50EA41047FF4A1
S31508008D900DAF52EA43057FF4EBAE12E74FF0FF3C06
S31508008DA006E000BF4FF0010C02E000BF4FF0010CD7
S31508008DB04DF804CD4FEA410C7FEA6C5C4FEA430C50
S31508008DC018BF7FEA6C5C1BD001B050EA410C0CBF9F
S31508008DD052EA430C91EA030F02BF90EA020F002001
S31508008DE0704710F1000F91EA030F58BF994208BF68
S31508008DF090422CBFD8176FEAE37040F00100704725
S31508008E004FEA410C7FEA6C5C02D150EA013C07D17B
S31508008E104FEA430C7FEA6C5CD6D152EA033CD3D0C6
S31508008E205DF8040B704700BF8446104662468C46C0
S31508008E301946634600E000BF01B5FFF7B7FF0028F3
S31508008E4048BF10F1000F01BD4DF808EDFFF7F4FF1C
S31508008E500CBF012000205DF808FB00BF4DF808EDA7
S31508008E60FFF7EAFF34BF012000205DF808FB00BFCA
S31508008E704DF808EDFFF7E0FF94BF012000205DF8EC
S31508008E8008FB00BF4DF808EDFFF7CEFF94BF0120A1
S31508008E9000205DF808FB00BF4DF808EDFFF7C4FF9A
S31508008EA034BF012000205DF808FB00BF4FEA410CE3
S31508008EB07FEA6C5C02D150EA013C0AD14FEA430CC6
S31508008EC07FEA6C5C02D152EA033C02D14FF0000003
S31508008ED070474FF0010070474FEA410212F5001241
S31508008EE015D211D56FF47873B3EB625212D94FEAE3
S31508008EF0C12343F0004343EA505311F0004F23FACD
S31508008F0002F018BF404270474FF00000704750EA21
S31508008F10013005D111F0004008BF6FF000407047DE
S31508008F204FF00000704700BF4FEA4102B2F1E0433C
S31508008F3024BFB3F5001CDCF1FE5C0DD901F0004C32
S31508008F404FEAC0024CEA5070B2F1004F40EB830082
S31508008F5008BF20F00100704711F0804F21D113F1AE
S31508008F603872BCBF01F00040704741F480114FEAE7
S31508008F705252C2F11802C2F1200C10FA0CF320FA70
S31508008F8002F018BF40F001004FEAC1234FEAD3238D
S31508008F9003FA0CFC40EA0C0023FA02F34FEA4303F7
S31508008FA0CCE77FEA625307D150EA01331EBF4FF080
S31508008FB0FE4040F44000704701F0004040F0FE409B
S31508008FC040F40000704700BF80F0004002E000BF98
S31508008FD081F0004142001FBF5FEA410392EA030F96
S31508008FE07FEA226C7FEA236C6AD04FEA1262D2EBE0
S31508008FF01363C1BFD218414048404140B8BF5B42E5
S31508009000192B88BF704710F0004F40F4000020F07D
S315080090107F4018BF404211F0004F41F4000121F093
S315080090207F4118BF494292EA030F3FD0A2F10102DD
S3150800903041FA03FC10EB0C00C3F1200301FA03F11B
S3150800904000F0004302D5494260EB4000B0F5000F3E
S3150800905013D3B0F1807F06D340084FEA310102F1FD
S315080090600102FE2A51D2B1F1004F40EBC25008BFAF
S3150800907020F0010040EA03007047490040EB000079
S31508009080013A28BFB0F5000FEDD2B0FA80FCACF17A
S31508009090080CB2EB0C0200FA0CF0AABF00EBC250A7
S315080090A052421843BCBFD0401843704792F0000F95
S315080090B081F4000106BF80F400000132013BB5E7E8
S315080090C04FEA41037FEA226C18BF7FEA236C21D05E
S315080090D092EA030F04D092F0000F08BF08467047C3
S315080090E090EA010F1CBF0020704712F07F4F04D191
S315080090F0400028BF40F00040704712F100723CBFA4
S3150800910000F50000704700F0004343F0FE4040F4CD
S31508009110000070477FEA226216BF08467FEA23638B
S315080091200146420206BF5FEA412390EA010F40F476
S31508009130800070474FF0000304E000BF10F00043C2
S3150800914048BF40425FEA000C08BF704743F09643A9
S3150800915001464FF000001CE050EA010208BF7047C4
S315080091604FF000030AE000BF50EA010208BF70474B
S3150800917011F0004302D5404261EB41015FEA010C60
S3150800918002BF84460146002043F0B64308BFA3F158
S315080091908053A3F50003BCFA8CF2083AA3EBC2533A
S315080091A010DB01FA02FC634400FA02FCC2F1200259
S315080091B0BCF1004F20FA02F243EB020008BF20F090
S315080091C00100704702F1200201FA02FCC2F12002F6
S315080091D050EA4C0021FA02F243EB020008BF20EAEB
S315080091E0DC7070477BB972B90029BEBF00204FF00A
S315080091F0004106E008BF00281CBF6FF000414FF091
S31508009200FF3000F057B8ADF1080C6DE904CE00291F
S3150800921009DB002B1ADB76F05BFFDDF804E0DDE9FD
S31508009220022304B07047404261EB4101002B1BDB6F
S3150800923076F04EFFDDF804E0DDE9022304B0404293
S3150800924061EB4101524263EB43037047524263EBC1
S31508009250430376F03DFFDDF804E0DDE9022304B0C0
S31508009260404261EB41017047524263EB430376F09B
S315080092702FFFDDF804E0DDE9022304B0524263EB78
S315080092804303704753B94AB9002908BF00281CBFD1
S315080092904FF0FF314FF0FF3000F00CB8ADF1080C7D
S315080092A06DE904CE76F014FFDDF804E0DDE902236B
S315080092B004B07047704700BF2DE9F04F2DED108AB6
S315080092C0C1F80CD0C3689D46BDEC108ABDE8F08F86
S315080092D007F050FB002383F311882846A047002097
S315080092E008F036FEFEE707F0D9FC08F0A9FD07F0FE
S315080092F041FB00DFFEE710F8012B11F8013B012ABC
S3150800930028BF9A42F7D0D01A7047034613F8012BA4
S31508009310002AFBD1181A0138704700000000000027
S3150800932070B586B00C4611461A46114B0093054691
S3150800933074B1631ECDE9010300266846CDE90366CC
S315080093400CF090FA039BA34200D2EE5406B070BD0F
S315080093509FED057B019068468DED027B04940CF029
S3150800936081FA06B070BD00BF0000000000000000D2
S31508009370740D0808000000002DE9F04759EC108B21
S315080093803D4B002240464946FFF77CFD002867D042
S3150800939035A5D5E90045384F4FF0000A00260CE000
S315080093A0FFF714FC8046894632463B464046494606
S315080093B00AF1050AFFF766FDE8B1494622462B463B
S315080093C04046FFF75FFD844622462B4640464946FF
S315080093D0BCF1000FE4D132463B46FFF7F7FB804667
S315080093E0894632463B46404649460AF1010AFFF796
S315080093F049FD0028E1D1214B002240464946FFF7A6
S315080094002DFD50B31AA5D5E9004517A7D7E900677A
S315080094100CE0FFF7B1FAAAF1050A80468946174B10
S31508009420002240464946FFF719FDB0B14946224693
S315080094302B464046FFF712FD844632463B464046D9
S315080094404946BCF1000FE4D10B4B0022FFF794FA12
S315080094500AF1FF3A80468946E1E75046BDE8F087BB
S315080094608246C8E7AFF3008000000000006AF840B3
S3150800947000000080B5F8E43E000024400000F03FFC
S315080094802DE9F047B0F1000A2D4D4FF0000426DD16
S3150800949029A7D7E90067DFF8AC904FF00008BAF1C2
S315080094A0040F2046294632463B460CDDFFF764FA90
S315080094B0AAF1050A04460D46BAF1000FEFD145ECAC
S315080094C0104BBDE8F08742464B46FFF755FA0AF1BE
S315080094D0FF3A04460D46BAF1000FE0D1EFE7EED0A9
S315080094E015A7D7E900671AF1040FDFF858904FF06F
S315080094F000082046294632463B460FDAFFF766FB48
S315080095000AF1050A04460D46BAF1000FD7D01AF13A
S31508009510040F2046294632463B46EFDB42464B4679
S31508009520FFF754FB0AF1010A04460D46BAF1000F8B
S31508009530EDD1C4E7AFF3008000000000006AF840F0
S315080095400000F03F0000244070B5C66984B00446A8
S3150800955030460D4614F068F9204613F057FE2046AB
S3150800956013F0A2FE9FED087B0346294630460724E2
S315080095706A468DED027B8DF80040019314F0E0F900
S3150800958004B070BDAFF30080FFFFFFFFFFFFFFFFD2
S315080095902DE9F04FC768C669D0F804802DED028B17
S315080095A0282F87B004460D4672D040F223139F42F7
S315080095B040F0858014F04CFC9FED438B4FF0070A72
S315080095C04FF00809E3683A2B14D008DD5B2B51D01D
S315080095D05A2B40DC07B0BDEC028BBDE8F08F282B78
S315080095E03ED02E2BF6D129462046FFF7ADFFE3687D
S315080095F03A2BEAD1204613F009FE204613F054FE12
S315080096002946039030468DED048B8DF808A014F09A
S31508009610E9F82B78D5F804B0082B4BD096F83470B7
S315080096206F600221304685F8009012F085FEBA1C5C
S3150800963002A986F834205B4600913A461421304642
S3150800964014F00CF99DF80830082B0DD10399304613
S3150800965070F090FA08E07B2B02D0B3F5927FB9D16F
S315080096602946304614F0A0F842462946204615F009
S3150800967047FAA7E72946304614F0D6F802A9204645
S3150800968014F0C6FA02AA2946304614F059F999E7A1
S3150800969013F0BCFD29460022204615F045FE20465B
S315080096A043463A46292113F0D5FDE069294613F0C9
S315080096B08BFE81E75946304670F05CFAAEE70449FE
S315080096C012F0D2FDAFF30080FFFFFFFFFFFFFFFFA1
S315080096D05C1B0808000000000F4B03F5B25C03F59D
S315080096E0805200219FED0A7B6346CCF8001002F2F7
S315080096F04C6C002083ED047BC2F83C06C2F8480691
S31508009700CCF80010C2F85806704700BFAFF30080C7
S31508009710000000000000000000000010000000002B
S3150800972030B5012285B00C21044611F05DFFE0B189
S315080097309FED117B0246124B043280ED017B0260DD
S315080097400FCB6D4685E80F000E4B0F491A68204669
S315080097500FF0A6F900222946204621F0CBFC204628
S315080097606FF08EFA012005B030BD20460FF046F99D
S31508009770012005B030BD00BF00000000000000F069
S315080097802C09080844A70020D8B9F0FF00000000FB
S315080097902DE9F04F2DED048B03689DB0DB689847E3
S315080097A0002800F091850368A94ADB68934283463E
S315080097B040F086850BF10D030693A64BDFF8C8A289
S315080097C098699FEDA58ADFEDA58A41F04DFC7F28B3
S315080097D09FED9D9B0BF10C0540F3F280DBF8003002
S315080097E058461B6998470446002800F0B185DAF800
S315080097F020300133CAF82030DBF8003001225E68D9
S315080098000DF123014FF47A735846B047012840F00A
S315080098101E859DF82330542B15D8452B16D9463B63
S315080098200E2B13D8DFE813F0DB001200120012002B
S315080098301200120012001200120012001200D300C9
S315080098401200D300EF00742B00F0DD80DBF8003047
S3150800985001225E6809A90A235846B047012840F044
S3150800986064859DF823309DF8246046EA032637462A
S315080098709BF8303436B207F10409002F00F0F38460
S3150800988040F21E41894500F3EE84DBF80010D1F85A
S315080098900480002B00F0AA834FF47A734A462946BF
S315080098A05846C04781459BF80C8040F033874046B0
S315080098B03DF0F6FD8146002800F05187AB59324647
S315080098C0002128461EBA64F003FB864240F0D58381
S315080098D001238BF83034242062F03CFA022F9BF8DF
S315080098E00C3040F3A083042FBBF80D6040F39E8331
S315080098F0BBF80F90A3F138023C2A3ED8DFE812F0F5
S315080099005A0307033D003D003D003D003D003D0074
S315080099103D00FC02CD02C8023D009C023D0011023A
S315080099203D003D003D003D0003023D003D00550160
S315080099303D003D002D011F0187003D00F001E201B9
S315080099403D003D0086013D003D003D003D006301B0
S315080099503D003D0007013D003D00F2003D003D0091
S315080099603D003D003D00C6008E003D003D003D0027
S315080099703D003D003D003D00870083215846059384
S3150800998067F0BEFC059B364A3648009350210CF01A
S31508009990D3F9DBF82C0433496FF042FD242062F03A
S315080099A0DDF931484246414646F0C0FE00242F4BB9
S315080099B01C70284B986941F057FB7F283FF70EAF7C
S315080099C02B4A2C4941F6F42054F0ACFDEEE72A4820
S315080099D046F0ACFE0021584667F074FCE7E7DBF872
S315080099E02C14264A264846F0A1FEDBF80030254905
S315080099F01E68584600230322B047DBF80030584655
S31508009A009B689847D3E758463EF012FFCFE758467B
S31508009A103EF00EFF242062F0A1F9C8E79BF80D304E
S31508009A20022B00F07884032B00F05584012BB5D166
S31508009A3062F0DAFA58463FF0DBFE242062F08EF92F
S31508009A40B5E700BFAFF3008051C500B200000000C3
S31508009A50194A0208F49700200024744900007A4441
S31508009A6058B908086058012084B90808E318022084
S31508009A7090B208089C8A08081CB608083CB608086C
S31508009A8058A408084CB6080828590120DAF81830EE
S31508009A905A46013349463046CAF818303FF0B4FEF4
S31508009AA00746002840F0F18301464022C64876F072
S31508009AB08AFCC6484A463946304464F009FA00BA70
S31508009AC00C900CAA58460097042301213FF042FE49
S31508009AD00C9BBF484A46314646F028FE242062F0D1
S31508009AE03DF964E7BB4BBC4E1A78BC4B002A18BF3D
S31508009AF01E463046FFF709FC012103463246584602
S31508009B0000913FF027FE242062F028F94FE7012153
S31508009B10B348B44FB44E0091002302683B70C0E9C5
S31508009B200033336058464FF400530C923FF012FE50
S31508009B300CA86FF02FFD242062F010F937E7AB4A26
S31508009B40DBF82C14AA4846F0F1FD5846012167F0C7
S31508009B50B9FB242062F002F929E7DAF80830A548AB
S31508009B600133CAF8083032464B46002146F0DEFD7E
S31508009B705A46494630463FF047FE0746002840F019
S31508009B806F829D4BB3F8EE2C002A40F0D48308333D
S31508009B901E444B46324600210091584601213FF0AB
S31508009BA0D9FD242062F0DAF801E7012F934814BFA3
S31508009BB04B464FF4E563324659463FF043F82420B6
S31508009BC062F0CCF8F3E68E4B1B78002B40F06A83E4
S31508009BD08C490B68002B40F0438302228A4E0A60A8
S31508009BE07F4B186808B100200860C3E900620CA81A
S31508009BF000230C936FF0CEFC7A4B584601221A705C
S31508009C003FF0F6FD242062F0A9F8D0E6BBF80D80F7
S31508009C10BBF80F707D487FBA98FA98F6B6B2BFB20D
S31508009C203A46314646F082FD79484FF049FD202EE6
S31508009C3000F2FF81202E00F2988301A353F826F044
S31508009C407DA300086BA300086BA300086BA300089C
S31508009C506BA300086BA300086BA300086BA300089E
S31508009C606BA300086BA300086BA300086BA300088E
S31508009C706BA300086BA300086BA300086BA300087E
S31508009C806BA3000887A3000891A30008CFA30008C8
S31508009C908DA40008FDA4000807A500086BA300080A
S31508009CA06BA3000811A500086BA300086BA30008A6
S31508009CB06BA30008359A00082FA500083FA50008E1
S31508009CC04FA5000831460BF10F030122584667F0ED
S31508009CD047FB504846F0D2F8242062F03FF866E683
S31508009CE05AF0ECFB0DF130094B4B4C4A0090202101
S31508009CF08DED029B48460CF01FF84846FFF705FB1A
S31508009D004A46431C47E70123002200925846194653
S31508009D100CAA8DF830303FF01DFD242062F01EF8A5
S31508009D2045E6DAF824303E4E334FB26A0133CAF8B4
S31508009D302430D7F880359A4280F0E98146F05EF8FB
S31508009D40D6E90C3253EA020640F0C681354E33682E
S31508009D50032B00F0ED813448B0EE480A47F04CFE7C
S31508009D60002840F0F681314E314809F043FC33684B
S31508009D70304A03F580510020C1F864391168136030
S31508009D8018702B48316009F0C7FC326802F5805319
S31508009D90D3F864691378B61A2BB1134613F8011F62
S31508009DA00029FBD19B1A9E4240F0D782DBF80010AF
S31508009DB001200090334658468E690021B04724207A
S31508009DC061F0CCFFF3E500BFAA730010B06600107F
S31508009DD010B80808C51802208C370120B058012091
S31508009DE00C580120DE1802200438012088B708081C
S31508009DF058A408086CB80808A86600106017002060
S31508009E00DF1802200858012008380120F8B8080889
S31508009E10E8310010C01F00209CB70808A4B708083E
S31508009E20483C00204C580120403C00205817002090
S31508009E30505801205C17002006980744002307F8AD
S31508009E40013C9BF80D30202B40F0788410F8013F38
S31508009E50202BFBD07BB1034613F8012F002AFBD138
S31508009E60191A002903DC06E083421A7003D013F896
S31508009E70011D2029F8D08D4B1B68984700235846AA
S31508009E801A4619463FF0F8FB242061F067FF8EE575
S31508009E904A4631460BF1110318E70DF130094846D9
S31508009EA045F0ECFFDAF80C3081480133CAF80C307B
S31508009EB046F03CFC59F05EFB7E48B0EE480A47F097
S31508009EC09BFD002840F0F48100231A4604215846D9
S31508009ED03FF0D2FB484645F0DFFF60EE287A17EEE2
S31508009EE0900AFEF7F1FC02460B46734846F01EFC44
S31508009EF0242061F033FF5AE570484FF4E5630022E9
S31508009F0059463EF09FFE242061F028FF4FE56C4E2F
S31508009F10002206F140083146012031F8023F5B0B6A
S31508009F201CBF03F1FF3300FA03F341451A44F4D189
S31508009F30002158463EF032FB0DF1300907460594DC
S31508009F40079536F8023F5C0B1DD00122013C02FA48
S31508009F5004F45C4A0A9226220B9200940AAA06CABC
S31508009F60C3F30C03484664F049FADBF8003022468E
S31508009F701D68494600235846A8473946224648469A
S31508009F8063F0A6FF07464645DBD1DBF80030059CA3
S31508009F901E68079D3FBA4946042258460C97012376
S31508009FA0B047DBF8003058469B689847242061F094
S31508009FB0D5FEFCE4444B1B78002B00F0768100208C
S31508009FC062F0BCF8064600284FD0D0F8E4340121E8
S31508009FD0024603EB8303009158463FF0BBFB30462D
S31508009FE062F0DCF8242061F0B9FEE0E402460A23B8
S31508009FF029465846C0479BF80C8040463DF050FA23
S3150800A00000283FF4D3ACDBF800300699D3F8049067
S3150800A010F21C05924FF47A735846C847059A82424D
S3150800A0203FF44CACC2E40026B14663E44FF00009A5
S3150800A03060E4B8F53A4F00F09083BA2E09D9B8F51E
S3150800A0403B4F00F03C85B8F53C4F40F08E8140F020
S3150800A050EBFFB8F5F24F40F088815AF0DBFAE9E4F5
S3150800A060DBF82C0419496FF0DBF95846842167F0B0
S3150800A07047F9242061F072FE99E49BF83034002BEE
S3150800A0803FF494AC334602469BF80C10104846F051
S3150800A0904DFB1049DBF82C046FF0C2F982215846B3
S3150800A0A067F02EF900238BF830347FE43858012006
S3150800A0B044B808084832001054B808086017002049
S3150800A0C0A873001020F00020DF180220A0B80808A6
S3150800A0D03CB7080874B70808C01A61EB02010A1EE3
S3150800A0E003DAC31C184642F100028308D7F8801524
S3150800A0F0C64800FB01F1C648A0FB010143EA82738A
S3150800A10009099210002099429041BFF61FAEC14935
S3150800A110C14846F0D7FAC14B93F85833002B40F0A4
S3150800A120F680BF4E00F020FE3368032B7FF413AE93
S3150800A130B849BC4846F0C6FABA4847F0D1FB0123ED
S3150800A140B9483360B0EE480A47F056FC00283FF499
S3150800A1500AAEB54845F092FE3B89692B96BFB34ACD
S3150800A1604FF0000852F823805AF0A8F9064645F041
S3150800A170B3FEA64A0023FFF735F83146CDE900803D
S3150800A180AB4BAC4AAC4846F0D1FAB7F8EC12012909
S3150800A19002D9AA4863F080FEB7F8EE12012902D95F
S3150800A1A0A74863F079FEA74EDFF8D88206F10809BA
S3150800A1B036F8021F012903D9D8F8000063F06CFEAF
S3150800A1C0B14508F10408F3D1D7F8CC210C2A134677
S3150800A1D0A8BF0C23002A7FF7C6AD9B4F0594B94646
S3150800A1E03C469A4E4FF000081F4629E0718B01291C
S3150800A1F001D963F051FED4F85C0700284CD0B6F8B4
S3150800A2004A14012901D963F047FED9F83C0300280E
S3150800A21045D036F8021F012901D963F03DFED9F869
S3150800A2208C04B0B3B6F8001C012901D963F034FEDA
S3150800A23008F10108B84504F1200409F11C0948DAB7
S3150800A240D4F8DC050028D1D1D4F8E005CEE7804C57
S3150800A250A34500F0938100238BF83034FFF7A6BBA3
S3150800A26000221646BCE4002BF5D0DBF82C147948FE
S3150800A2703A4646F05BFADBF82C0477496FF0D0F8DB
S3150800A2808421584667F03CF8E5E7DBF82C04734967
S3150800A290E9E6D9F89004C5E7D4F86007AFE7D9F836
S3150800A2A04003B6E761F01CFF92E461F09DFE86E686
S3150800A2B036F0EAFB6A483CF07DF858F025FE03E6DE
S3150800A2C0984700287FF476AA1DB0BDEC048BBDE83C
S3150800A2D0F08F059C47E5002061F030FF0646002810
S3150800A2E000F02F82D0F8E4340121024603EB830301
S3150800A2F0009158463FF02EFA304661F04FFF584617
S3150800A3003FF076FA242061F029FDFFF750BB42485A
S3150800A31047F0E6FA05E761F0E3FE58463FF068FACB
S3150800A320242061F01BFDFFF742BB4E49DBF82C04E5
S3150800A3306FF076F88FE74C4940F25E200BF10F0676
S3150800A34054F0F0F839464A46304676F03CF820E4B0
S3150800A3500A2007F025FEFFF729BB3246434941F696
S3150800A360861054F0DFF8002220E541493B46324684
S3150800A37040F25E2054F0D6F8FFF75CBB3D4B83F8FD
S3150800A3804276FFF757BB3C4B00221A60FFF752BBD9
S3150800A39000283FF44FAB374BDFED380AB3F88A2D68
S3150800A3A09FED370AD3F8981D07EE902AB3F86A2668
S3150800A3B0F8EEE77A384667EEA00A07EE902AF8EE36
S3150800A3C0E77A27EE800A58F0FDFDFFF733BB002831
S3150800A3D03FF430AB274BDFED290AB3F88A2D9FED02
S3150800A3E0280AD3F8981D07EE902AB3F86A26F8EEDD
S3150800A3F0E77A384667EEA00A07EE902AF8EEE77A7B
S3150800A40027EE800A58F08CFDFFF714BB40420F0078
S3150800A410CDCCCCCCA0850908503C002000600010AB
S3150800A4204C5801203C580120403C0020B05B0908EC
S3150800A430B0B7080851C500B2B8B708086C140A08BE
S3150800A44074140A08EA6800100C9C0020326900108F
S3150800A4506C5E01206CB608089CB60808F8B70808B0
S3150800A46040A4080850B60808B8B80808D8B70808B5
S3150800A47034B90808A866001014580120CDCCCC3D84
S3150800A4800AD7233CA05B090800007A44BB1F172B98
S3150800A49000F2AB8101A252F823F000BFFBA8000826
S3150800A4A0B9A80008359A0008EBA700082DA80008E7
S3150800A4B0EBA7000821A800086BA900085FA90008F7
S3150800A4C057A9000843A9000837A9000827A90008C2
S3150800A4D01FA9000813A90008D5A70008359A00087F
S3150800A4E0CBA70008C1A70008B7A70008ADA70008B2
S3150800A4F0A5A70008DFA7000899A70008F8B25AF030
S3150800A50059FFFFF797BA384658F042FEFFF792BA56
S3150800A51000283FF48FAA5FED240AC64B3846D3F8C5
S3150800A520981DB0EE600A58F0A7FDFFF783BAC24837
S3150800A53045F0A4FC38466BF077FAFFF77BBABE48BD
S3150800A54045F09CFC63206BF06FFAFFF773BA00289E
S3150800A5503FF470AAB74BDFEDB90AB3F88A2DD3F8E2
S3150800A560981D07EE902AF8EEE77AB1EE000A67EE34
S3150800A570A00A384658F0C6FDFFF75CBAB04B1B7800
S3150800A580002B3FF468AEDFF82C83AE4846F0CEF8D1
S3150800A59098F80030033B012B00F2ED802368AA48A7
S3150800A5A05E68012240F6B83309A9B0470646002876
S3150800A5B040F0EB80A44F06E0042B00F0DA81013668
S3150800A5C0072E00F0FE81236838465B6998470A2003
S3150800A5D007F0E6FC9D4B9E4853F83610894646F030
S3150800A5E0A5F823684946DB69384698470A2007F0E4
S3150800A5F0D7FC3846974966F00FFE38463EF07AFB98
S3150800A60090B198F80030032BD6D13846924966F0B7
S3150800A61003FE38463EF06EFB0028D0D18F4846F040
S3150800A62085F80A2007F0BCFC0DF1300998F80030CF
S3150800A6308B4F033B012B3E7040F2C7812368894A42
S3150800A6405B698148934240F0078241F005FA0A2087
S3150800A65007F0A6FC3A7823687C49DB6951F8321082
S3150800A660814A7948934240F0038265F01FF998F8C9
S3150800A6700030002B40F097817C4B7D4A40214846AC
S3150800A6800BF05AFB7048494666F0C6FD6E483EF028
S3150800A69031FB002840F0828198F80030032B00F047
S3150800A6A0AC80002B40F08681724B734A40214846A5
S3150800A6B00BF042FB6448494666F0AEFD62483EF040
S3150800A6C019FB002840F06A816C4B98F800201B683B
S3150800A6D0002A40F0C3815D4A402152F83330684A67
S3150800A6E048460BF029FB5848494666F095FD5648FA
S3150800A6F03EF000FB002840F0518198F80030033BFB
S3150800A700012B40F2CB815F4846F010F84C4A0023F3
S3150800A7101370A0E543464A4601465B4846F006F8EC
S3150800A7205A49DBF82C046EF07BFE8021584666F009
S3150800A730E7FD00238BF83034FFF738B90698FFF7A2
S3150800A74089BB8421584666F0DBFD58463FF050F831
S3150800A750242061F003FBFFF72AB940F059FC4C4866
S3150800A760414645F0E3FF8321584666F0C9FD8BF85C
S3150800A7703094FFF71BB9474845F0D8FF464845F0DF
S3150800A780D5FF464845F0D2FF08E7454845F0CEFFD5
S3150800A7902B4A002313705EE50021012052F04CFA83
S3150800A7A0FFF748B93DF00EF8FFF744B904203DF02D
S3150800A7B019F8FFF73FB903203DF014F8FFF73AB947
S3150800A7C001203DF00FF8FFF735B902203DF00AF8F1
S3150800A7D0FFF730B9334B01221A70FFF72BB9002166
S3150800A7E0084652F029FAFFF725B92F493A4640F2AA
S3150800A7F05E2053F097FEFFF71DB91C4B2B4A4021EC
S3150800A80048460BF099FA1048494666F005FD0E4889
S3150800A8103EF070FA002840F0C18098F8003040E712
S3150800A820234B012283F8E021FFF704B957F0AAFB6E
S3150800A830FFF700B9A866001048320010CDCCCC3D11
S3150800A840DD180220A0B208086C5E0120685B0908C2
S3150800A85060B4080878B4080880B408088CB40808F6
S3150800A860DB18022059BA0408ADF806087437012027
S3150800A87030B508086C3701205CB508085417002065
S3150800A88078B50808C0B50808BCB60808FCB60808B4
S3150800A89020B70808D0B208083CB3080890B30808DF
S3150800A8A00CB40808E11802201CB908084CB50808B9
S3150800A8B000300010DC180220824F834ED7F8F800CB
S3150800A8C00D2386F8C83008B30368DB689847F0EEAE
S3150800A8D0407AD7F80401C6ED317A002800F0EC80FA
S3150800A8E00368DB689847F0EE407A784AC6ED667AE0
S3150800A8F0137801331370FFF79DB8724F724ED7F86D
S3150800A900F8000C2386F8C8300028DDD1DFED707A10
S3150800A910DFE7704B012283F8E121FFF78BB84BF094
S3150800A92003FDFFF787B86C4B6C4801221A7008F0D4
S3150800A9300BFEFFF77FB80121084652F07DF9FFF7B5
S3150800A94079B8614B002283F8C82003F5405383F891
S3150800A950E021FFF76FB84BF02BFCFFF76BB801212E
S3150800A960002052F069F9FFF765B867F0A9FBFFF711
S3150800A97061B85B495B480DF1300966F04DFC5948F2
S3150800A9801022494666F05EFC09287FF418AE564840
S3150800A99045F0CCFE0A2007F003FB47E65348494634
S3150800A9A045F0C4FEB2E6524B524A402148460BF0E7
S3150800A9B0C3F967E6504B514A402148460BF0BCF9AB
S3150800A9C078E64F4BFF221A70A0E64E49454866F0D6
S3150800A9D023FC40224946434866F034FC4049414836
S3150800A9E066F01AFC3F484022494666F02BFC98F868
S3150800A9F00030032B48D044493A4866F00DFC402203
S3150800AA004946384866F01EFC4049364866F004FC5C
S3150800AA1034484022494666F015FC98F80030032B66
S3150800AA2028D03B492F4866F0F7FB2E483EF062F9DE
S3150800AA3038492C4866F0F0FB2A483EF05BF998F84E
S3150800AA400030032B7FF4FAAD2648334966F0E4FB61
S3150800AA5024483EF04FF9F1E59847F8E52F4A02EB0E
S3150800AA60C30340211B792E4A48460BF065F93AE69E
S3150800AA709847FCE52B491B4866F0CEFB4022494621
S3150800AA80184866F0DFFBCCE72749164866F0C4FB92
S3150800AA9040224946134866F0D5FBACE711482349DE
S3150800AAA066F0BAFB0F483EF025F900283FF42BAEB6
S3150800AAB01F4845F03BFE26E6DFED057A15E740F030
S3150800AAC095FA00BF14A8002000000010E018022024
S3150800AAD00000000000300010E21802202C58012067
S3150800AAE0A4B408086C5E0120B0B40808FCB50808D0
S3150800AAF07437012040B508086C3701206CB5080882
S3150800AB00DB180220C8B40808E4B40808F0B408083A
S3150800AB1008B5080818B5080824B50808685B0908C0
S3150800AB208CB50808FCB40808D8B4080898B508080D
S3150800AB30A4B508080000000010B590F8E03090F8B9
S3150800AB40DCC0174C83F0010363F3000C80F8DCC00B
S3150800AB504FF48C620021204675F035FC4FF4F072F4
S3150800AB60002104F2644075F02EFC0E4B9FED0A7B23
S3150800AB7003F5485203F5405382ED067B03F62C5045
S3150800AB8003F5536200210024C3F8E846016011600A
S3150800AB9010BD00BFAFF3008000000000000000F009
S3150800ABA088320010000000109FED116BD0ED0F7A6F
S3150800ABB080ED030AB5EEC00A0123F1EE10FA80ED26
S3150800ABC0066BC0ED097A80ED0F0A03720BD9DFED2B
S3150800ABD00A6A86EE807AF5EE407AF1EE10FA80ED92
S3150800ABE00A7A03D07047054B8362704767F058BDF1
S3150800ABF00000000000000000ABC222480000C07F31
S3150800AC00D0B5554C554E0027204632463B463F2187
S3150800AC106EF072FC04F1280032463B4640216EF085
S3150800AC206BFC04F1500032463B4641216EF064FC51
S3150800AC3004F1780032463B4642216EF05DFC04F191
S3150800AC40A00032463B4643216EF056FC04F1C8008C
S3150800AC5032463B4644216EF04FFC04F1F000324682
S3150800AC603B4645216EF048FC04F58C7032463B465F
S3150800AC7046216EF041FC3A4B3A4919604720187153
S3150800AC80482083F82400492083F844004A209FED91
S3150800AC902E6B9FED2F7B83F864004B2083F884008E
S3150800ACA04C20002283F8A4004D244E2083ED046B2B
S3150800ACB083ED0C6B83ED146B83ED1C6B83ED246BBA
S3150800ACC083ED067B83ED0E7B83ED167B83ED1E7B82
S3150800ACD083ED267B1A721A73196283F8282083F883
S3150800ACE02C20196483F8482083F84C20196683F8C9
S3150800ACF0682083F86C20C3F8801083F8882083F8CE
S3150800AD008C20C3F8A01083F8A82083F8C44083F8E1
S3150800AD10E40083ED2C6B83ED2E7B83ED346B83EDA2
S3150800AD203C6B83ED367B83ED3E7B83F8AC20C3F822
S3150800AD30C010C3F8E01083F8C82083F8CC2083F845
S3150800AD40E82083F8EC20D0BD002D3101000000007A
S3150800AD50000000000000000090230020400D0300C2
S3150800AD60F81A002028290A080D480E4AC3680E4911
S3150800AD709FED097B10B4002443611C7008300462FF
S3150800AD8080F82440094B5DF8044B80ED0A7B45F0BA
S3150800AD9099BC00BFAFF3008000000000000000006F
S3150800ADA0483C0020E01C0A0874AA0808A08509087F
S3150800ADB02DE9F04F2DED048B544891B0FDF738FB83
S3150800ADC020B111B0BDEC048BBDE8F08F01255049C8
S3150800ADD000950346462204464E4845F0A9FF4E48CC
S3150800ADE0046144F08FF84D4B4D4A1B6813801B0CC9
S3150800ADF093704C4B9D63FFF7B7FF60F06FFE4A49AF
S3150800AE004A4846F089FD4A494A4846F081FD4A497A
S3150800AE104A4846F07DFD4A494A4846F079FD4A497E
S3150800AE204A4846F075FD4A4B1D78002D40F065816D
S3150800AE30484E494845F07AFC31222946474875F07C
S3150800AE40C2FA96F8790164F0DDFF96F8740564F0A5
S3150800AE50D9FF96F8DF0264F0D5FF4149414846F02C
S3150800AE605BFD41486FF018FF40486FF015FF404AF8
S3150800AE704048536843F4000353606FF00DFF3E48A3
S3150800AE8090F83C33002B00F045833C4B9A689B6C4A
S3150800AE905380202383F3118805F000FF384B1A7876
S3150800AEA0511E012900F21E8336495960012A1DD117
S3150800AEB0354A3648116C41F010011164116E41F0A3
S3150800AEC010011166116E116A41F010011162116AC2
S3150800AED021F0100111622E49126A98604FF480021F
S3150800AEE0702381F83633C1F884214A60244E2548F8
S3150800AEF0B1680268B1FBF2F3013B9BB203FB022285
S3150800AF00914200F00F83234805F046FD581A0020A9
S3150800AF10F81C0A08FC9D002040B001200C1D0A08F8
S3150800AF20C4930120483C002021BB0608101D0A08CE
S3150800AF3015AA06081C1D0A08C5150508301D0A08A5
S3150800AF403D1505083C1D0A08D1180508501D0A08B4
S3150800AF50C5180220A8660010681D0A089C2B012047
S3150800AF6005780408801D0A083496002010960020EB
S3150800AF7000230140EC950020B862002074350120BA
S3150800AF80B49400201C1900200038024000BD0105B9
S3150800AF9000E100E0402A0A08B3F5AA7FC1F04B8019
S3150800AFA07BB9AF4BAF49B04AB048C3E902214FF469
S3150800AFB0A271102219805A60AD4900221A6146F022
S3150800AFC0A7FCA74F264646B93B8833B1B86803683D
S3150800AFD01B689847031EC1F2CB820026A54FDFF8EF
S3150800AFE0C0830096B7F84220A3493346404645F049
S3150800AFF09FFE0096B7F8D822A0493346A8F5867072
S3150800B00045F096FE00963346B7F82E239C49A8F5D8
S3150800B010D47045F08DFE9B499B4846F079FC9B4BC6
S3150800B0201E7097F87135D90703D497F87035DB0980
S3150800B03048D0DFF84082B8F84410B8F8460040F027
S3150800B04095FBB8F870160746B8F8720640F08EFBFE
S3150800B0500646002F01F09480874201F0F98298F89D
S3150800B0605C36062B96BF8A4A8A4B52F82330814AA9
S3150800B070186892F864265968520608AB03C302D5C5
S3150800B08001F10043099308A9384606F069FE002E27
S3150800B09041F07980804BC3E90076764B93F8713599
S3150800B0A0DB0706D5DFF8FC8298F8AC33002B01F0F5
S3150800B0B0D982704B93F87035DB0941F0B781734B31
S3150800B0C001221A70754B1B7853B96A4BB3F8EC0218
S3150800B0D03EF0BAFB002801F07F8171483AF02CFF58
S3150800B0E0644B93F8E463F60941F0B9803EF084FDB9
S3150800B0F03FF0F0FB6B4845F019FB6B496B4846F08F
S3150800B1000FFC6B496B4846F007FC5A4B93F83423FF
S3150800B110120700F1D181614B197879B9554B664808
S3150800B1201B89692B9CBF654A52F8231045F0FEFA25
S3150800B1304BF05AF86249634846F0EEFB624DDFF879
S3150800B140688205F580674FF0FF3629463246404645
S3150800B150203508F0F3FFAF42F7D15C485C4946F06A
S3150800B160DFFB5C4800F5805595F8AC31002B00F004
S3150800B170C781594959485A4D46F0D6FB59495A4844
S3150800B18046F0C6FB59495A4846F0C2FB95F85C3664
S3150800B190002B00F0AA81574B5A68002A00F0BD819F
S3150800B1A058F0E8F900283FF40CAE5349534846F0E6
S3150800B1B0AFFB5349534846F0ABFB5349534846F057
S3150800B1C0B7FB5349534846F0ABFB5349534846F03F
S3150800B1D0A7FB5349534846F0A3FB5349534846F047
S3150800B1E0ABFB5349534846F097FB5349534846F03F
S3150800B1F093FB5349534846F08FFB5349534846F04F
S3150800B2008BFB5349534846F08BFB30F0BBFF524843
S3150800B21057F05CFE514B5249524801221A6046F0DB
S3150800B22077FB5149514846F073FB514A514805216D
S3150800B2306CF026FD5049514846F06AFB5049514882
S3150800B24046F06AFB5049514846F066FB504951485A
S3150800B25046F06AFB5049514846F066FBA6E000BF37
S3150800B260D8360120C81D0A0828480020D01D0A081B
S3150800B27099A20608A8660010F81D0A08001E0A0802
S3150800B2800C1E0A0861AB0608181E0A08E4180220F4
S3150800B290082A0A08242A0A08BC930120C51802208D
S3150800B2A0E8310010AC1E0A086D350608601D0A084C
S3150800B2B0FD520608849D0908C41E0A08B05B0908E1
S3150800B2C0AD130508581B0A08586C0020D81E0A0832
S3150800B2D0DD49020858700020A16702085C2B08089F
S3150800B2E010820020F5490208E81E0A087559020866
S3150800B2F0F41E0A08883C0020752B0608001F0A0859
S3150800B3001D2B06080C1F0A08512D0608181F0A08C7
S3150800B3106D2C0608241F0A081D2C06082C1F0A086F
S3150800B320452C0608381F0A08952C0608441F0A08E3
S3150800B330491D06084C1F0A08251D0608581F0A0835
S3150800B340A51C0608601F0A08C91C06086C1F0A08FF
S3150800B350ED1C0608781F0A08D8280010DC9301207F
S3150800B360E9BE0508801F0A0895D90508A01F0A081E
S3150800B37009BF0508AC1F0A0869C50508C41F0A08DD
S3150800B38075DB0508D01F0A087DDB0508DC1F0A08DF
S3150800B39059C50508E81F0A0861C50508A4840908EF
S3150800B3A02C9F0020E0CA0010F4A5002077497848B1
S3150800B3B046F0BEFA7749784846F0B6FA77497848AB
S3150800B3C046F0B6FA7749784846F0B2FA77497848A7
S3150800B3D046F0AEFA7749784846F09EFA77497848B3
S3150800B3E046F0A2FA7749784846F09EFA77497848AF
S3150800B3F046F09AFA7749784846F096FA77497848AF
S3150800B40046F092FA7749784846F082FA77497848BA
S3150800B41046F08AFA7749784846F07AFA77497848BA
S3150800B42046F086FA7749784846F082FA774B1B78D1
S3150800B430002B00F00582764C764901250023482228
S3150800B4402046009545F074FC002347227249009572
S3150800B45004F10C0045F06CFC704B6C4A93F87D3592
S3150800B4601278DB0700F1EF85684B1B780BBB6C483D
S3150800B470036143F047FD694BB3F8184520463EF093
S3150800B480E3F938B19FED670A674B68496848224671
S3150800B49064F0F4FC614BB3F8284520463EF0D4F935
S3150800B4A038B19FED600A634B60496348224664F0F1
S3150800B4B0E5FC35F0D7FA84E493F84F27002A3FF4E1
S3150800B4C02AAEB3F842003EF0BFF900283FF423AE97
S3150800B4D000220092594B5A487F224FF4CA6107F05E
S3150800B4E057FF18E6574805F057FA0123D5F85816B6
S3150800B4F085F85C3628463DF041F8C5F860064AE608
S3150800B5000123D5F8A81185F8AC311AF0FBF9C5F86E
S3150800B510B0012EE63EF028F8B7E44B4A11685960A8
S3150800B52013603DE6D0E90201F26821F0FF01002729
S3150800B53017605060936217610223D160337005F07B
S3150800B540C3FA202383F3118805F0A8FB05F072FEE1
S3150800B5503378022B40F06C85032372683370F368E6
S3150800B56052680921D962012159615F621F6112B1CE
S3150800B570DA680A43DA6085221A6005F0A5FA3349C3
S3150800B5803348344E46F0C8F9012768E095C60508E1
S3150800B59084EE08086DC50508582E0808F9BF050881
S3150800B5A0F01F0A0845C0050804200A0891C00508C6
S3150800B5B01C200A0859F0030838200A08E9BF0508BC
S3150800B5C040200A08D9BF050854200A08D5C105082D
S3150800B5D064200A08DDC1050874200A0829C105087F
S3150800B5E084200A08DD9505088C200A08E5C10508A7
S3150800B5F098200A08F1B60408B0200A086900060867
S3150800B600BC200A08DDC00508D4200A08C51802208F
S3150800B610089E0020B8230A08CC230A08A86600104A
S3150800B6201CB1012000401C465C190020EC230A08C6
S3150800B630F0460020681900206847002021C2040847
S3150800B64008660020502A0A0804180020158A0408EB
S3150800B6508C1D0A08782B0120384606F0A1FC3368B1
S3150800B660012BF9D9694B93F8E523170778D5D3ED5C
S3150800B670757ADFED676A9FED676A93F870359FED17
S3150800B680660A67EEA67AB6EE007A67EE877A180734
S3150800B69086EE277A614BDFED626AD3ED007A9FED7D
S3150800B6A0616A27EE267AF4EEC67A48BF37EE077A3D
S3150800B6B0F1EE10FAD8BFF0EE477AF0EE046A27EEFC
S3150800B6C0A67AB4EEC07AF1EE10FA00F33B879FED46
S3150800B6D0507A67EE877A87EE800A62F01DFF524B32
S3150800B6E000225A60B0EE087AC0EE076AF7EE004A02
S3150800B6F036EEA45ABFEE007AA0EE005A74EEE65A69
S3150800B70084EE856AA0EE007AE0EE005A37EE077AF4
S3150800B71066EE866A67EE067A26EE256AB1EE667AE0
S3150800B720C3ED006A83ED027AC3ED037A83ED046AFA
S3150800B730364B93F82F365907C3F3800600F18E86E9
S3150800B7403A48032256213EF0CBFF394803225721B7
S3150800B7503EF0C6FF374890F83C33002B00F00487CC
S3150800B7602A4B93F83433DE0700F1DF85274B93F82D
S3150800B77034339A0700F1D485244B93F834335B07A6
S3150800B78000F1C985214B93F83733DF0700F1BE85F1
S3150800B7901E4B93F82D361E0700F1B3851B4B93F805
S3150800B7A02D36D80600F1A885184B93F8343F002BA0
S3150800B7B03FF407AC204E0F335B010022C6E9232372
S3150800B7C006F1A8000123142286F8A330C6F89420AF
S3150800B7D044F054FBB369002B00F0AC85174A138874
S3150800B7E05168194489B222460120002A7FF4D8AB51
S3150800B7F0002B3FF4D6ABB3F5A27FBFF4CDABB1F5C2
S3150800B800A27F0246F1D9FFF7DCBB00BFA86600108D
S3150800B810DB0F494000006144809F55483076001090
S3150800B82000007A440AD7233C48750120B01D0A084F
S3150800B830BC1D0A08705F002028480020D836012061
S3150800B840BC49BD4846F064F8BC4ABD4805216CF0C1
S3150800B85017FABC4ABC4810216CF012FABB4ABC481D
S3150800B86011216CF00DFABB4ABB4810216CF008FA9E
S3150800B870BA4ABB4811216CF003FABA4ABA481121F0
S3150800B8806CF0FEF9B949BA4846F042F8B949BA48DF
S3150800B89046F03EF8B949BA4846F03AF8B94ABA48BD
S3150800B8A005216CF0EDF9B949B94846F031F8B949BE
S3150800B8B0B94846F02DF8B949B94846F02DF8B949BE
S3150800B8C0B94846F025F8B949B94846F021F8B949C2
S3150800B8D0B94846F01DF8B949B94846F01DF8B948BF
S3150800B8E0B94A11216CF0CCF9B84890F83C33002BD2
S3150800B8F000F02C84B64EA6F2AC5557F005FDB548B7
S3150800B900314644F039FBB5F8CA023DF09DFF68B1EF
S3150800B91005F2C46393ED000ADFEDAF0AAF4AB049FA
S3150800B920B048B8EEC00A00236CF0C6F8AE4BB3F9BF
S3150800B930E420B3F95210914201DAA3F85220AB4B36
S3150800B940AB4FAC4DAC4EDFF8A0927B6003F14001E3
S3150800B950B96003F15001F96095F83918DFF800B3BA
S3150800B9604FF07E524FF0140840F2947ABA613A6169
S3150800B9707A61B2613261726118FB01A103F160025A
S3150800B980494405F63C00726003F1A002B033B26088
S3150800B990F36044F0F1FA95F88918C5F86C7818FB45
S3150800B9A001A1494405F68C00C5F870B844F0E4FADC
S3150800B9B095F8D918C5F8BC6818FB01A10BF17803EE
S3150800B9C0494405F6DC00C5F8C03844F0D5FA95F8C0
S3150800B9D02939C5F80C7918FB03A149440BF1F00382
S3150800B9E005F62C10C5F8103944F0C6FA0BF5B473F1
S3150800B9F0C5F86039C5F85C6951F064FA99F8E4331A
S3150800BA00590600F196837D483AF096FA7C483AF052
S3150800BA1093FA7C483AF090FA7B483AF08DFA01207E
S3150800BA205FF080FA704B93F83723920640F1218332
S3150800BA3093F87125D70704D593F87035DB0940F0DC
S3150800BA40A085724940F25E2052F06CFD664D95F86D
S3150800BA502D369E0640F1208395F87035DB0940F0B7
S3150800BA6079836B4940F25E2052F05CFD212038F064
S3150800BA70BDFC48B95C4B674DB3F86283B3F8647391
S3150800BA80AB68002B00F08585574B93F81E124B1EAA
S3150800BA902F2B0AD8604CDFED500A9FED600A20462E
S3150800BAA03EF086FE20463AF047FA4F4D5C4995F837
S3150800BAB036025C4F5FF0F6FE95F82C035A495FF0A4
S3150800BAC0F1FE59F0DDF905F64256002405F67355E0
S3150800BAD015F8012F36F8021F013438463EF000FEED
S3150800BAE0082CF5D15149524845F022FF5149524890
S3150800BAF045F00EFF5149524845F00AFF5149524850
S3150800BB0045F00AFF384B93F87D355C0600F16883EB
S3150800BB104E494F4845F0FCFE4E4B93F827201AB97C
S3150800BB204D4A1168D96213604A4E4C4CB4614EF6C0
S3150800BB30602297E041230608E8200A08E922060859
S3150800BB40F8200A08B52F060808210A08952F0608BE
S3150800BB5014210A086930060820210A08493006080F
S3150800BB602C210A08E530060838210A084D2306085C
S3150800BB7044210A08D521060854210A08E1210608A5
S3150800BB8060210A087D2106086C210A08A9230608EF
S3150800BB9078210A083112060888210A084554060839
S3150800BBA098210A088D220608AC210A083D220608B3
S3150800BBB0BC210A08FD230608C8210A083D12060802
S3150800BBC0D4210A08E0210A0871310608D08D002020
S3150800BBD0546C0010C006001000000000A09E002053
S3150800BBE0EC210A08D0400020A8660010409A0010F0
S3150800BBF0FCB0012000100010DCB00120B4B0012018
S3150800BC00A4B0012094B0012084B0012000220A08C3
S3150800BC1038220A08E48D0120488D0020CDCC4C3D01
S3150800BC20A88D002074220A08808D0020B5E3060836
S3150800BC3080220A08C1E6030890220A08DD61040882
S3150800BC40A4220A08ADA10608B4220A085D5D040804
S3150800BC5044880808E0470020E4AC00201E6C001069
S3150800BC60883D00200023C6E90223304604F22A63F1
S3150800BC700025336286F826503EF010FEB44BB54ACE
S3150800BC805A60012102F5807286F827109A604FF0F3
S3150800BC907E562032B0489E6129461E615E61DA6092
S3150800BCA034F0F8FDAD4BAE4AAE48AF495A6002F5DE
S3150800BCB080729A604160103201F58071DA608160A5
S3150800BCC0AA4A9E611031C1601031516040311E612F
S3150800BCD05E619160A64B9661103116615661D1601E
S3150800BCE001F160021031C3E90112866106614661FD
S3150800BCF09E611E615E6101F160029E4EDFF81CB313
S3150800BD00DFF81C93DA60A4F27654B4F8DC79384686
S3150800BD103DF09AFD002838D0B4F8E03996490293E8
S3150800BD203A460C2707EE903A07FB05B73846B8EEB1
S3150800BD30678A45F0A5F8029B4FF0780AB3F1000828
S3150800BD400AFB059A18BF4FF00108002B40F08481C2
S3150800BD508A4B53F8253004F606225A604FF07C5277
S3150800BD609A6104F6E6129A604FF080421A6104F668
S3150800BD70F612DA604FF07E525A61C6E903A773617C
S3150800BD8004F6DC1386F8088073600135042D04F187
S3150800BD906C0406F11806B8D1794C7A4D94F86434D7
S3150800BDA004F29C50002223F0070305F51861A5F854
S3150800BDB0002684F8643444F0DFF895F8CD30724DE7
S3150800BDC0D8064CBF04F5986004F591606F4C294677
S3150800BDD044F0D2F8204631F0C3F953F033FCA4F509
S3150800BDE0BA62002182F85814A4F5BA72684B136037
S3150800BDF0A5F2F455A4F5A87266486749136045F09C
S3150800BE0087FD95F8CD30D9064CBFA4F58870A4F502
S3150800BE10A4705C4C04F2F45104F2FC5304F5BF62BE
S3150800BE200D681968C36A12685A6002681D6052680C
S3150800BE309960904759495A4845F06AFD594B1B780D
S3150800BE40002B37D14E4B584A58485949594D5A4EE6
S3150800BE50C3E9EF02594845F05BFD5949594845F091
S3150800BE6057FD594B59495A4A5D614FF07E508861D2
S3150800BE70086190611061186104F6C410C8605548DD
S3150800BE80486155489861554898600630D86004F668
S3150800BE90646004F51D64C1E9010404F66C3400F518
S3150800BEA0DD6004F53E51C2E90240566055615960AD
S3150800BEB052F016FC334B93F87C359A0600F15D81F7
S3150800BEC050F0FAFE4649474820F0D2FE464B47490D
S3150800BED0A3F6A4624FF07E54B2F84C00444A4B6075
S3150800BEE0A3F59C65A3F2D4468C6124330C61946156
S3150800BEF01461404CCD60C2E90136D560354B8E6081
S3150800BF0000254B61536125703DF09EFC58B12B46C8
S3150800BF10DFED390A9FED390A394A3A493A486BF052
S3150800BF20CBFD01232370174B384CB3F83A0E002586
S3150800BF3025703DF089FC00283FF47DAA2B469FED2D
S3150800BF402F0A334A33493448F6EE000A6AE000BF3E
S3150800BF5014BD0020D0A40010D8190010EC9B0020B6
S3150800BF6010A60010BC98002030A700109C9800204E
S3150800BF707C980020FC8D01206C230A085C2A0A089C
S3150800BF8000000010A86600109C6C0010D005001078
S3150800BF900000C8C274230A08B1B30508F9AE04083C
S3150800BFA080230A08C5180220C81F002090200020F8
S3150800BFB051CC05080AD7233CA47B00108C230A0819
S3150800BFC031A5050898230A0864B00120D875012010
S3150800BFD0548D01200000C842CDCCCC3D88AB001062
S3150800BFE06F861400F8BC00204C750010E8A70020E6
S3150800BFF0C8A7002006190220CDCCCC3D0000C07F82
S3150800C000E09E0020A0230A08F088002005190220D7
S3150800C010209F0020AC230A08788800202C190020CD
S3150800C020688900206BF048FD01232370FFF703BAE7
S3150800C030C44804F0B1FCB1F5AA7F4FF001027FF6BF
S3150800C040D4ABFEF7BEBF002A7FF433AABE49BF4869
S3150800C05045F05EFCFFF708BABD4BDFEDBE0A53F8A4
S3150800C0602510B0EE480A00233A4650466BF024FDE8
S3150800C0706EE693F84C32013B2F2B02D8B64839F0BE
S3150800C0805BFFB64B93F84D32013B2F2B3FF6DEACE8
S3150800C090B34839F051FFD9E4B249B34895F8D762A5
S3150800C0A045F036FCB149B24845F032FC30463DF021
S3150800C0B081FDB04BC3F85803002800F0E28203F272
S3150800C0C0463603F26F379B4605F55B7503F5807AAE
S3150800C0D0039405E00BF1200BD34505F102056DD05D
S3150800C0E000234FF0010826F8028F07F8013F9BF856
S3150800C0F07C0338F07BF904460028EBD1B5F80090AC
S3150800C10048463DF0A1FB0028E4D09A4B494603F582
S3150800C1105770C3F8604343F039FC9748424649468E
S3150800C1203EF0DEFA2B8833800BF55E7039F004FF9B
S3150800C130D0E7924857F07CF9914857F079F9914839
S3150800C14057F076F9904857F073F95CE43DF00CFA2D
S3150800C150FFF7D0BB8D4857F06BF98D4857F068F953
S3150800C1608C4857F065F98C4857F062F98B4857F0B8
S3150800C1705FF98B4857F05CF978E454F089FC9FE640
S3150800C18000283EF49FAF754B93F85E36062B00F2F7
S3150800C1904B81844A52F82330704A186892F864260C
S3150800C1A05968D20906AB03C302D001F100430793CD
S3150800C1B006A9304605F0D4FDFEF76CBF6D4D039C0D
S3150800C1C095F83C33002B7FF451AC0123D5F838138E
S3150800C1D085F83C3328463CF0A9F9C5F8400345E400
S3150800C1E0714B93F8D421002A00F0098193F8D521E0
S3150800C1F0002A00F01681D3F8D8310B939DED0B8AEF
S3150800C20018EE100AFCF760FB0446224667480B4600
S3150800C2100D4644F08BFAB4EE488AF1EE10FA80F136
S3150800C220E280DFED637AB4EEE78AF1EE10FA00F306
S3150800C230DA80DFED607AB4EEE78AF1EE10FA00F103
S3150800C240D2805D4844F072FA574B40F20111002241
S3150800C25083ED648AA3F88C1183F88E2158E493F849
S3150800C260D829052A00F21282DFE802F03639332C83
S3150800C270034340F2F113514900220B80504B5148B9
S3150800C2801A8039F059FE504839F056FE334B4F495B
S3150800C29093F8E4230E7090067EF528AF93F8D82914
S3150800C2A0052A00F2FA8101A353F822F0E5C2000834
S3150800C2B0E5C20008E5C20008EDB00008E5C20008BE
S3150800C2C0EDB000083D4B4FF421721A8040F28522EA
S3150800C2D0D4E74FF4D073CEE74FF4F873CBE74FF4B7
S3150800C2E00073C8E73A4940F66E0052F01BF9FEF7AC
S3150800C2F0FDBE40F20933BEE706203FF0B9FAFFF764
S3150800C30053BA05203FF0B4FAFFF748BA04203FF0C5
S3150800C310AFFAFFF73DBA03203FF0AAFAFFF732BAA1
S3150800C32002203FF0A5FAFFF727BA01203FF0A0FA4E
S3150800C330FFF71CBA274B1A68B26114361E60FFF75E
S3150800C3404DBA00BF2C2A0A0885A20608E0230A0867
S3150800C3508C2A0A0800000000D0B00120A866001048
S3150800C360C4B00120C107050860220A081508050897
S3150800C37068220A0830280020008B0808F08B002065
S3150800C380B88B0020808B0020488B0020188D002059
S3150800C390E88C0020B88C0020888C0020588C00205F
S3150800C3A0288C0020082A0A0814A80020C0220A0897
S3150800C3B00000DC4200007042FC230A08C218022072
S3150800C3C0C0180220F8480020D84800200419022086
S3150800C3D06C1E0A0804180020B54B93F8EC016DF0A2
S3150800C3E081F8FEF77DBEB34922462B4640F6B200D9
S3150800C3F051F0CCFCB04844F099F9FFF789BBD3F863
S3150800C400DC4174B1236820469B68984748B1236885
S3150800C41021465B680AA898479DF82830002B7FF4C8
S3150800C420EDAE9FEDA68AEBE6A54BB5E6A548C0F8A6
S3150800C430687327B190F83C33002B00F01081A248AE
S3150800C440C0F86863002E3EF43AAE90F83C33002BF1
S3150800C4507EF435AE3DF088F8FEF731BE9B4BDFED36
S3150800C4609C9A9FED9C9ADFF8B0A20FCB10AF07E914
S3150800C4700F004FF0000900279FED978A0DF1300B4A
S3150800C480B84607EE907AF8EEE77AFBEC018A77EE83
S3150800C490A77A08F1010827EEA90A4F4480EE090A8F
S3150800C4A06FF090FAB8F1040FA8EE808AE9D109F185
S3150800C4B00109B9F5806FAAEC018ADCD1874BDFED5B
S3150800C4C0866A1868DFED865A9FED866ADFF84CC2E1
S3150800C4D005EE104AAE464FF47A6700220CFB02F3CB
S3150800C4E007EE903AF8EEE77A411C67EEA57A914294
S3150800C4F037EEC67AB0EEC77ABDEEC77A17EE103AAF
S3150800C50005D1B8EEC57A37EEC77AF0EEC76ABB42F0
S3150800C51004DABDEEE75A1F46B64610460132B2F5B2
S3150800C520007FDBD1BEF1000F01D06C4B18606E4B5B
S3150800C53015EE101A03F5DA62A3F8CE16C2ED006AF4
S3150800C540FFF7FEB817EE900AFCF7BEF902460B464F
S3150800C550CDE90023654954A3D3E9002340F25E20C0
S3150800C56051F0E0FFFFF7E4B83CF0FEFFFFF7F8B83C
S3150800C57032465F4940F25E2051F0D4FF0126FEF7AD
S3150800C58022BD5C4856F054FF5B4856F051FFFFF752
S3150800C5905DBA40463DF058F900283FF475AA38467A
S3150800C5A03DF052F900283FF46FAA544E0522304652
S3150800C5B041463EF095F80522394630463EF090F859
S3150800C5C040466BF0B7FB4146286030463DF026FEF4
S3150800C5D0686038466BF0AEFB394603463046AB60BA
S3150800C5E03DF01CFE6A682968E860012606FA02F230
S3150800C5F092B20A8306FA00F3AA689BB213830DF176
S3150800C60013010F23284632468DF8133065F096F845
S3150800C61032460DF11201284665F0AAF89DF8123047
S3150800C620B12B2BD0BD2B7FF42FAA4CF220433446D6
S3150800C630334DADF814302846022205A92C6165F061
S3150800C6407DF801232F482B7539F076FCFFF71CBAC5
S3150800C6502D4940F25E2051F065FFFEF733BD3CF0F0
S3150800C66083FFECE60123D8F8A81388F8AC334046D4
S3150800C6704DF04EFFC8F8B003FEF71BBD44F2104359
S3150800C680D6E7224844F052F8FFF7F0B9204940F6B9
S3150800C6906E0051F047FF2E46F8E51E4940F66E003B
S3150800C6A051F040FFFEF722BD00000000F0B30A413A
S3150800C6B000300010F0220A081C230A0867A6CA429E
S3150800C6C0242A0A0870C7001000C40010B40A080813
S3150800C6D0DB0F494000C07F4400000000346701209A
S3150800C6E00000803A00007A4500100010901D0A08E4
S3150800C6F0DC1D0A08704900203049002070220A080B
S3150800C700E48D0120C8460020201E0A080C8B080864
S3150800C7104C1E0A08941E0A08E81101207E560300DA
S3150800C72038B59FED216BDFED227A224B0360044674
S3150800C73000250123036480ED0E6BC0E90755C0E9A7
S3150800C7400955C0ED017AC0ED027AC0ED037AC0ED55
S3150800C750047AC0ED057AC0ED067AC562C0ED0C7A9A
S3150800C76080F8345080F8445085644C306AF0E2FD15
S3150800C770114BA4F8B0504FF0824284ED206B84ED43
S3150800C780266B84ED2E6B84F87C50C4F88850C4ED73
S3150800C790237AA4F89050C4ED287AC4ED297AC4F80F
S3150800C7A0A820C4F8AC3038BD00000000000000F036
S3150800C7B000000000703E0A08CDCCCC3D0000000009
S3150800C7C09FED0F7B002200B5C0F8A4104FF0000EB5
S3150800C7D00D49C0F80CE0C0F820E0C0E90422C0E921
S3150800C7E0062280ED0E7B80ED347B5DF804EB42601B
S3150800C7F082600160426242F0A1BF00BFAFF30080D1
S3150800C80000000000000000F0583E0A080000000082
S3150800C81010B59FED136BDFED147A144CC0ED147A46
S3150800C82000234FF0010C836280ED126BC362C0E9EE
S3150800C8300833C0E90A33C0E90C33C0E90E33C0E94E
S3150800C8401033C0E9033300F10C0E036043714361F2
S3150800C850C36180F854C0836180F804C0846010BD49
S3150800C86000000000000000000000C07F9C2A0A08A3
S3150800C8702DE9F843D94FDA4BC7F850343C33C7F89B
S3150800C880543407F25C4300241C6007F58C6307F5F3
S3150800C89086681C6007F27443C8F800401C6007F5F8
S3150800C8A08F6307F234481C6007F27C43C8F80040DF
S3150800C8B007F587681C6007F59063C8F8004007F21B
S3150800C8C03C481C6007F28C43C8F8004007F58868A6
S3150800C8D01C6007F59263C8F8004007F244481C60DC
S3150800C8E007F29443C8F8004007F589681C60BD49FB
S3150800C8F0C8F8004007F5936307F5946EC7F84C141B
S3150800C9004FF07E5807F22C411C60CEF8008007F2E3
S3150800C9109C4307F2A44E00250C60B34E1C6001210F
S3150800C92087F85854C7F86454C7F86854C7F86C545D
S3150800C930C7F87054C7F88454C7F8A814C7F8286409
S3150800C940CEF80040C7F8E01407F59661A74B0B60D0
S3150800C95007F5976107F2AC4E0C6007F2BC41A44A92
S3150800C9600C6007F2E441CEF800200A6007F59D62E4
S3150800C970DFF8D4C29F4E136007F59860C7F888C4DD
S3150800C980C7F8B454C7F8EC54C7F8C06442F014F8B2
S3150800C9900021002007F5B063C3E9000107F5B2637B
S3150800C9A043E902011C6007F2945207F5B36307F2E4
S3150800C9B09C5014601C6087F87855C7F87C556AF057
S3150800C9C0B9FC07F2146207F5C46087F8D0551460FD
S3150800C9D087F818560024A7F8385687F83A564FF0BD
S3150800C9E07045C0E9004507F5C66040E90245C0E95B
S3150800C9F00045814907F2D45343F8041B9342FBD1FF
S3150800CA007E4E3346002443F8044B1C607C4BC7F823
S3150800CA1040367C4BC7F848367B4BC7F8B8363033B8
S3150800CA200025C7F8BC3606F17400784B3563C7F89D
S3150800CA30A836C7F88056C7F8445687F89D56C7F8EB
S3150800CA405856C7F87056C7F87456C7F87856C7F8D0
S3150800CA508456C7F88856C7F88C5687F89C56C7F880
S3150800CA60AC56C7F8B0567465B46034617461B46185
S3150800CA70F4613462B464F464B4666AF05BFCD7F8B3
S3150800CA80F436C7F8045703F07043C7F8F436604B1A
S3150800CA90C7F8F0365F4BC7F800375F4BC7F8103753
S3150800CAA04FF000084FF07049012306F1CC00A7F8B3
S3150800CAB0203787F8F75687F82257C6E92B89C6E93B
S3150800CAC02F8943F0DBF9554BC7F89837544BC7F80D
S3150800CAD0A0371C33C7F8A437D7F86437514AC7F8C4
S3150800CAE02C579B0D9B05C7F86437D7F87C37C7F8D2
S3150800CAF030579B0C9B04C7F87C37D7F84C37C7F8D8
S3150800CB00505703F07C43C7F84C37474BC7F82837CC
S3150800CB10464BC7F84837464BC7F86037454BC7F802
S3150800CB207837454BC7F88037C7F85457C7F868575A
S3150800CB30C7F86C57A7F8845787F89C5787F8A857FB
S3150800CB4087F84F57A7F86657A7F87E57C6E9438967
S3150800CB50C6E94989C6E93B89C6E93D89C6E94F89D7
S3150800CB60C6E9518906F5B470C6F8604187F8D0570A
S3150800CB70C7F8D45706F5C877C6F88021C6F86441C1
S3150800CB80C6F88C4133F0A6FE3B4606F57A621C6071
S3150800CB905C609C60DC601C61DD6183F82050C3E941
S3150800CBA0055524339342F2D1244E4FF46162002195
S3150800CBB0A6F6240073F007FC4FF4C803C6F8EC3554
S3150800CBC01F4BC6F800362433C6F8043606F20C6343
S3150800CBD038221C601B4BC6F8383637E000000010B8
S3150800CBE0643F0A0838670010F83E0A0800247449AA
S3150800CBF0002474C9503F0A080000C8424C060010B9
S3150800CC0080420A08BC3F0A0814430A0860430A0817
S3150800CC10D83F0A08F43F0A0810400A0848420A089A
S3150800CC2050400A0848E17A3F30400A08D8420A08C4
S3150800CC309C420A0864420A0880420A08001000104A
S3150800CC4088400A08C8400A084C36080886F80826A4
S3150800CC5006F5C86306F26C621C60146006F244634B
S3150800CC6006F27C621C60146006F24C6306F5D1621B
S3150800CC70C7F8945E1C60146006F5CC634022002158
S3150800CC804FF000084FF0704906F5C06706F28C6051
S3150800CC90C3E9008947E90289C6F8F05586F8F455CC
S3150800CCA086F80956C6F81056C6F83C56C6F84856C9
S3150800CCB0C6F85056C6F85456C6F85856C6F8845696
S3150800CCC0C6F87456C6F8785673F07DFB06F2D4613A
S3150800CCD006F5DA630C6006F5DB614FF400021C60AA
S3150800CCE00A6006F5DC6300204FF00041C3E9000145
S3150800CCF0C6F8CC5606F5DD6306F5F364C3E902010A
S3150800CD001A6010339C42F9D1934D06F5F363002758
S3150800CD101A602B4663E84801904A1A60904BC6F899
S3150800CD20A8374FF00123C6F8E037C6F8E437C6F847
S3150800CD30E8378C4BC6F8C0376FF00043C6F8DC37C7
S3150800CD4006F5FE639FED827B00241F6006F2F473EE
S3150800CD50854AC6F868264FF07E58214605F18800B0
S3150800CD6085ED047B85ED0A7B85ED0C7B85ED1A7BCD
S3150800CD7085ED1C7B85ED1E7B85ED207BC3F8008049
S3150800CD8086F8AC4786F8B847A6F8D84786F8DA474B
S3150800CD90A6F8EC4786F8FC476AF0EAFA734BC6F839
S3150800CDA028380121303305F1D800C6F82C386AF046
S3150800CDB0DFFA6F4BC6F878380221303305F59470E0
S3150800CDC0C6F87C386AF0D4FA6A4BC6F8C838032124
S3150800CDD0303305F5BC70C6F8CC386AF0C9FA664B2C
S3150800CDE0C6F818393033C6F81C39644BC6F86839A2
S3150800CDF03033C6F8843906F6741305F5F4701F60E7
S3150800CE0006F67813C6F86C491F6006F67C13C6F852
S3150800CE1070491F60C6F880496AF08CFA584BC6F804
S3150800CE20D83906F6DC1380211F6006F6E41305F5EB
S3150800CE301E701F6006F6E81385ED9C7B1F6006F6DC
S3150800CE40EC13C5F840721F6006F6F413C6F8B84925
S3150800CE501F60C6F8BC49C6F8C049C6F8C449C6F832
S3150800CE60C849C6F8CC49C6F8D049C6F8F04933F0DF
S3150800CE70FDFC06F6F81305F518701F6006F6FC1398
S3150800CE804FF400721F6006F6042340F8187B21460B
S3150800CE901F60C6F8084A73F096FA4FF4802380217B
S3150800CEA0C6F8183C05F59560364BC6F8283CC6F812
S3150800CEB01C4CC6F8204C86F8444C33F0D7FC05F5D4
S3150800CEC0926042F0DBFF304B9FED306A93F82234D4
S3150800CED09FED2F7A07EE903AF8EEE77AF1EE046ABC
S3150800CEE067EE867A05F5066767EE877A05F5956033
S3150800CEF087EEA67AFCEEC77A17EE901A33F0B6FCE0
S3150800CF00244BC6F8503E05F52D60C7F85882C7F879
S3150800CF10608285F8BC4A42F0B1FF05F6D82042F097
S3150800CF20ADFF05F6C82042F0A9FF1B4A1B4B85F842
S3150800CF30C44A85F8E04A85F8B44AC5F8EC4AC5F803
S3150800CF40E82AC5F8F03ABDE8F88300BFAFF30080D9
S3150800CF5000000000000000F0A01700100000C84202
S3150800CF6008420A08E4400A0824420A08BC410A089A
S3150800CF70BC410A08BC410A08BC410A0800410A0823
S3150800CF804C410A0868410A08A8660010CDCC4C3DF9
S3150800CF9000007A4484410A08A0410A0880420A0827
S3150800CFA070B5214ED6F83034D6F8C045A6F8340404
S3150800CFB0013382B00546C6F83034ACB1002306F515
S3150800CFC0896001E0A3420FD01A010133815AA942B0
S3150800CFD0F8D1164C1444204642F050FF144802B0CB
S3150800CFE0BDE8704042F04ABF04F0CCF8D6F8C03528
S3150800CFF0104C0190172B0FD803F244619FED087B64
S3150800D00004EB011484ED007B258101330198C6F8F1
S3150800D010C03504F04FFFDEE7019804F04BFFDDE76B
S3150800D02000000000000000F00060001040640010DE
S3150800D03038640010000000102DE9F04F2DED068B26
S3150800D0400123DFED5BAA85B00A24BFEE009AB8EE8D
S3150800D050008AF6EE008A06461D4629EE08AADFED86
S3150800D060559A2AEE09AA4FEA450B32464FEA051A9F
S3150800D070E800B7EE009A0021871802F104099046E5
S3150800D0800B46D7ED010A97ED000A69EE207A20EEE5
S3150800D090E97AE9EE807A5B44A9EE007AF4EE477AFB
S3150800D0A0F1EE10FA58D698ED016A59ED016A36EE96
S3150800D0B0676A76EEC76A87ED016AC7ED006A98ED7A
S3150800D0C0016A59ED016A77EE867A36EE877AB3F504
S3150800D0D0806F09ED017A5744C8ED017AD144D044EE
S3150800D0E0CFD369EE8A7A2AEEE97AE9EE2A7AAAEEA7
S3150800D0F0097AB4EE677AF1EE10FA40D60131A94200
S3150800D10039EE079A79EEA79A02F10802B4D1013CE2
S3150800D1101DD05846FBF7B6FB02460B4622A1D1E9BD
S3150800D1200001FBF753FDFBF7FFFE09EE100A29EE97
S3150800D130280A6DF089FFB0EE40AAB0EE490A6DF0F4
S3150800D14083FF5D46B0EE4A9AF0EE40AA85E705B041
S3150800D150BDEC068BBDE8F08FF0EE691AB0EE491A01
S3150800D160CDE90202CDE9003172F04CFEDDE902029A
S3150800D170DDE90031B0EE407AF0EE607A93E7F0EE42
S3150800D1806A1AB0EE4A1AF0EE690AB0EE490ACDE913
S3150800D1900102009172F036FEDDE901020099B0EE57
S3150800D1A0407AF0EE607AA9E700000060FB2109C02A
S3150800D1B02EBDBB33000000002DE9F04FCC4BCD4C03
S3150800D1C0CD49CE482DED068BC3F82C44CC4C1C60BB
S3150800D1D00022CC4CC3F83444C3E90122CA4C83F874
S3150800D1E03024CA4B0B60C1F86446C94BC94C1A7047
S3150800D1F08125C1F858566360E360C74DC74B81F86F
S3150800D2005C260026C64925604FF07047C0E90067CE
S3150800D210C44D0D606420C1E90620086203F12801A7
S3150800D22003F14000C3E902111960586003F12001B7
S3150800D23003F11800C3E90600C3E90811BA48BB4957
S3150800D2401A6100F128051A754FF47A7C0B460560B9
S3150800D250B74FC560C4F808C000F11804C0E9064411
S3150800D26000F1400600F1200443F8247BC0E9084495
S3150800D270C1E9022285604660026102750A7183B0BF
S3150800D280A431FF2043F8102C03F80C2C23F80A2CA1
S3150800D29003F8082C03F8070C03F8062C10339942F8
S3150800D2A0F0D1A449A44BA54CC3F89C4001F1340025
S3150800D2B01425C3F894505861002444F620604FF0B2
S3150800D2C07045C3E92A451960C3E902229C491A71C7
S3150800D2D0C3E90622C3E92322C3F89800994B9A4862
S3150800D2E09A4C0860862581F83C23C1F84823C1F882
S3150800D2F03853C3F83853C1F8444301259449C3F851
S3150800D30048531860934D83F83C238720C1F8A80337
S3150800D3100520C3F84443C1E9ED508F4B81F8AC238F
S3150800D3209FED6D8B8D4A0A604FF0000803F5C072B9
S3150800D330C3F8088083ED068BC3F80C8083ED088B51
S3150800D34083ED0A8BC3F8008083ED0C8BC3F810803D
S3150800D35083ED0E8B83ED108B83ED128B83ED148B8F
S3150800D36083ED168B60339342E2D17D4B7D4A1A607A
S3150800D3707D4A5A60DA6082F800807C489FED7C9A84
S3150800D380DFF868A27B4E4FF47A6228219A606CF027
S3150800D390C7F8794825216CF0C3F8784859216CF00C
S3150800D3A0BFF877485A216CF0BBF8764B76482422AA
S3150800D3B01A712321754A1A606CF0B2F8FDF720FC41
S3150800D3C0734BDFF82CC2734983F8088022221A713E
S3150800D3D0714ACCF82020C2E90088C2E9028882F89E
S3150800D3E014800022C3E9041203F128021A624FF0DE
S3150800D3F021028CF80420694A1A609FED39AB684A05
S3150800D400CCF800209FED387B664A83F80C8002F53D
S3150800D410005B83F82C8083ED068B83ED0CAB6248AA
S3150800D420624A83ED099A202100238CED047B8CF84F
S3150800D43008808CF80C808CED068B6CF05DF85C48E7
S3150800D4405A4A9FED5C0A4F2100236CF055F8514A61
S3150800D450594800231F216CF04FF8584B4D4958483E
S3150800D46083F808800022C3E904124FF00C011971F1
S3150800D47054491960F7EE009A83F80C8083ED068B01
S3150800D480514B40F8043BF0EE690A6BF02FFE64F04E
S3150800D49069FE4E486BF02AFE4D4B4E481860C3EDA8
S3150800D4A0019A83ED029A83ED039A83ED049AC3EDFC
S3150800D4B0059A494B49484A4A83ED00AB494B212115
S3150800D4C083ED00AB00236CF017F8474B4148186012
S3150800D4D090E000BFAFF300800000000000000000ED
S3150800D4E000000000000000F000093D0000000000F8
S3150800D4F06C8F0120CC2D0A08A0520020403C002049
