S01400006275696C642F7275736566692E7372656343
S3150800800010100020B983000819DB0208F98300085C
S315080080101D840008F88300080B840008D49C3000EF
S315080080205CCE0900B3830008B38300082530010835
S31508008030B3830008B3830008B3830008E13F01084F
S31508008040B3830008B3830008C53E01083D3F010815
S31508008050B3830008B383000899870408A187040836
S31508008060A9870408B1870408B987040819340108E0
S31508008070513401088D340108C93401080535010851
S315080080803D35010879350108A1300108F9320108A2
S315080080901D3301084133010865330108C187040807
S315080080A0B383000811420108B3830008354201086A
S315080080B0CD400108394201085D420108FD860408E1
S315080080C0B3830008C937010801390108B3830008DA
S315080080D0B3830008B38300086D440108914401087E
S315080080E0E5870408853F0108B3830008B3830008C1
S315080080F0A5420108B3830008C9420108B53501083D
S31508008100B3830008B383000881420108B3830008DB
S31508008110B3830008B38300086D400108B3830008E1
S31508008120F13501082936010865360108A136010826
S31508008130DD360108B3830008B383000889330108D4
S31508008140AD330108D1330108F5330108193A01089E
S3150800815015370108513701088D370108CD42010846
S31508008160B3830008B3830008B3830008B383000809
S31508008170B3830008B3830008B3830008B3830008F9
S31508008180B3830008B3830008B3830008B3830008E9
S31508008190B3830008B3830008B3830008B3830008D9
S315080081A0B3830008B3830008B3830008B3830008C9
S315080081B0B3830008B3830008B3830008B3830008B9
S315080081C0B3830008B3830008B3830008B3830008A9
S315080081D0B3830008B3830008B3830008B383000899
S315080081E071BD000879B4070800000000000000000F
S315080081F001F0FF01102A2BDB10F0070F08D010F84A
S31508008200013B013A8B422DD010F0070F42B3F6D14D
S31508008210F0B441EA012141EA014122F007047FF066
S3150800822000070023F0E80256083C85EA010586EABD
S31508008230010685FA47F5A3FA87F586FA47F6A5FAF9
S3150800824087F68EB9EED1F0BC01F0FF0102F0070205
S3150800825032B110F8013B013A83EA010313B1F8D1B0
S315080082600020704701387047002D06BF3546033891
S31508008270073815F0010F07D1013015F4807F02BFCA
S31508008280013015F4C03F0130F0BC0138704700BF1B
S3150800829072B6394880F30888384880F30988384820
S315080082A04EF60851CEF20001086040F20000CCF20A
S315080082B000004EF63471CEF200010860BFF34F8F0E
S315080082C0BFF36F8F40F20000C0F2F0004EF68851FF
S315080082D0CEF200010860BFF34F8FBFF36F8F4FF0E8
S315080082E00000E1EE100A4EF63C71CEF2000108607D
S315080082F0062080F31488BFF36F8F06F0C7FF23F0BC
S31508008300ADFC4FF055301F491B4A91423CBF41F81E
S31508008310040BFAE71C49194A91423CBF41F8040B81
S31508008320FAE71A491A4A1B4B9A423EBF51F8040B00
S3150800833042F8040BF8E700201749184A91423CBF57
S3150800834041F8040BFAE706F0A5FF47F0FDFA144CCE
S31508008350144DAC4203DA54F8041B8847F9E76DF06C
S3150800836097FF114C114DAC4203DA54F8041B8847A9
S31508008370F9E706F08DBF0000101000201016002047
S31508008380008000081000002010100020144A0A0877
S3150800839010160020581A0020581A0020E01802204B
S315080083A0E0810008E4810008E4810008E88100080B
S315080083B06EE700F000F8FEE70A480B49026800601D
S315080083C08A4201D0FFF764FF08484FF480410160F4
S315080083D007484FF0010101600648D0F800D0406810
S315080083E000470000F0FF0120EFBEADDE4438024032
S315080083F0003801400000FF1F1EF0040F0CBFEFF30A
S315080084000880EFF3098025F08BBB1EF0040F0CBF24
S31508008410EFF30880EFF3098025F0CABB1EF0040FBE
S315080084200CBFEFF30880EFF3098025F00DBC00BF01
S31508008430EC46A0E8F05F4FF000007047B0E8F05F48
S31508008440E546080008BF0120704700BF81F00041DB
S3150800845002E000BF83F0004330B54FEA41044FEA1B
S31508008460430594EA050F08BF90EA020F1FBF54EAB6
S31508008470000C55EA020C7FEA645C7FEA655C00F052
S31508008480E2804FEA5454D4EB5555B8BF6D420CDD23
S315080084902C4480EA020281EA030382EA000083EAA6
S315080084A0010180EA020281EA0303362D88BF30BD46
S315080084B011F0004F4FEA01314FF4801C4CEA11319C
S315080084C002D0404261EB410113F0004F4FEA0333FB
S315080084D04CEA133302D0524263EB430394EA050F86
S315080084E000F0A780A4F10104D5F1200E0DDB02FAF5
S315080084F00EFC22FA05F2801841F1000103FA0EF289
S31508008500801843FA05F359410EE0A5F120050EF14E
S31508008510200E012A03FA0EFC28BF4CF0020C43FA7F
S3150800852005F3C01851EBE37101F0004507D54FF08C
S31508008530000EDCF1000C7EEB00006EEB0101B1F5DC
S31508008540801F1BD3B1F5001F0CD349085FEA300022
S315080085504FEA3C0C04F101044FEA445212F5800F2D
S3150800856080F09A80BCF1004F08BF5FEA500C50F1CA
S31508008570000041EB045141EA050130BD5FEA4C0CAD
S31508008580404141EB0101013C28BFB1F5801FE9D20A
S3150800859091F0000F04BF01460020B1FA81F308BF2D
S315080085A02033A3F10B03B3F120020CDA0C3208DDF9
S315080085B002F1140CC2F10C0201FA0CF021FA02F1D4
S315080085C00CE002F11402D8BFC2F1200C01FA02F144
S315080085D020FA0CFCDCBF41EA0C019040E41AA2BF69
S315080085E001EB0451294330BD6FEA04041F3C1CDA31
S315080085F00C340EDC04F11404C4F1200220FA04F051
S3150800860001FA02F340EA030021FA04F345EA0301FA
S3150800861030BDC4F10C04C4F1200220FA02F001FABC
S3150800862004F340EA0300294630BD21FA04F029463E
S3150800863030BD94F0000F83F4801306BF81F48011D7
S315080086400134013D4EE77FEA645C18BF7FEA655C4A
S3150800865029D094EA050F08BF90EA020F05D054EA1C
S31508008660000C04BF1946104630BD91EA030F1EBF21
S315080086700021002030BD5FEA545C05D14000494125
S3150800868028BF41F0004130BD14F580043CBF01F518
S31508008690801130BD01F0004545F0FE4141F47001FE
S315080086A04FF0000030BD7FEA645C1ABF19461046D9
S315080086B07FEA655C1CBF0B46024650EA013406BFDA
S315080086C052EA033591EA030F41F4002130BD00BF99
S315080086D090F0000F04BF0021704730B54FF4806456
S315080086E004F132044FF000054FF0000150E700BFD7
S315080086F090F0000F04BF0021704730B54FF4806436
S3150800870004F1320410F0004548BF40424FF0000122
S315080087103EE700BF42004FEAE2014FEA31014FEA65
S3150800872002701FBF12F07F4393F07F4F81F06051B4
S31508008730704732F07F4208BF704793F07F4F04BFFF
S3150800874041F40021704730B54FF4607401F00045DC
S3150800875021F000411CE700BF50EA010208BF70473C
S3150800876030B54FF000050AE050EA010208BF70472D
S3150800877030B511F0004502D5404261EB41014FF496
S31508008780806404F132045FEA915C3FF4D8AE4FF09E
S3150800879003025FEADC0C18BF03325FEADC0C18BF81
S315080087A0033202EBDC02C2F1200300FA03FC20FAD2
S315080087B002F001FA03FE40EA0E0021FA02F114441F
S315080087C0BDE600BF70B54FF0FF0C4CF4E06C1CEA38
S315080087D011541DBF1CEA135594EA0C0F95EA0C0FA9
S315080087E000F0DEF82C4481EA030621EA4C5123EA1C
S315080087F04C5350EA013518BF52EA033541F480114B
S3150800880043F4801338D0A0FB02CE4FF00005E1FBFD
S3150800881002E506F00042E0FB03E54FF00006E1FB47
S3150800882003569CF0000F18BF4EF0010EA4F1FF048A
S31508008830B6F5007F64F5407404D25FEA4E0E6D41CA
S3150800884046EB060642EAC62141EA55514FEAC520DB
S3150800885040EA5E504FEACE2EB4F1FD0C88BFBCF557
S31508008860E06F1ED8BEF1004F08BF5FEA500E50F108
S31508008870000041EB045170BD06F0004646EA0101CE
S3150800888040EA020081EA0301B4EB5C04C2BFD4EB00
S315080088900C0541EA045170BD41F480114FF0000EF9
S315080088A0013C00F3AB8014F1360FDEBF002001F067
S315080088B0004170BDC4F10004203C35DA0C341BDCE1
S315080088C004F11404C4F1200500FA05F320FA04F0B3
S315080088D001FA05F240EA020001F0004221F00041E7
S315080088E010EBD37021FA04F642EB06015EEA430E5A
S315080088F008BF20EAD37070BDC4F10C04C4F120058A
S3150800890000FA04F320FA05F001FA04F240EA02003C
S3150800891001F0004110EBD37041F100015EEA430E0D
S3150800892008BF20EAD37070BDC4F1200500FA05F22D
S315080089304EEA020E20FA04F301FA05F243EA0203AC
S3150800894021FA04F001F0004121FA04F220EA0200BB
S3150800895000EBD3705EEA430E08BF20EAD37070BD01
S3150800896094F0000F0FD101F00046400041EB0101E1
S3150800897011F4801F08BF013CF7D041EA060195F0C3
S31508008980000F18BF704703F00046520043EB03037D
S3150800899013F4801F08BF013DF7D043EA060370476A
S315080089A094EA0C0F0CEA135518BF95EA0C0F0CD075
S315080089B050EA410618BF52EA4306D1D181EA0301BB
S315080089C001F000414FF0000070BD50EA410606BFB5
S315080089D01046194652EA430619D094EA0C0F02D1FA
S315080089E050EA013613D195EA0C0F05D152EA03363F
S315080089F01CBF104619460AD181EA030101F000415D
S31508008A0041F0FE4141F470014FF0000070BD41F0A5
S31508008A10FE4141F4780170BD70B54FF0FF0C4CF47F
S31508008A20E06C1CEA11541DBF1CEA135594EA0C0F9E
S31508008A3095EA0C0F00F0A7F8A4EB050481EA030EEB
S31508008A4052EA03354FEA013100F088804FEA0333D2
S31508008A504FF0805545EA131343EA12634FEA0222A0
S31508008A6045EA111545EA10654FEA00260EF0004161
S31508008A709D4208BF964244F1FD0404F5407402D2B3
S31508008A805B084FEA3202B61A65EB03055B084FEA44
S31508008A9032024FF480104FF4002CB6EB020E75EB41
S31508008AA0030E22BFB61A754640EA0C005B084FEA69
S31508008AB03202B6EB020E75EB030E22BFB61A7546E6
S31508008AC040EA5C005B084FEA3202B6EB020E75EB31
S31508008AD0030E22BFB61A754640EA9C005B084FEAA9
S31508008AE03202B6EB020E75EB030E22BFB61A7546B6
S31508008AF040EADC0055EA060E18D04FEA051545EAA5
S31508008B0016754FEA06164FEAC30343EA52734FEA4D
S31508008B10C2025FEA1C1CC0D111F4801F0BD141EAC6
S31508008B2000014FF000004FF0004CB6E711F4801F2B
S31508008B3004BF01430020B4F1FD0C88BFBCF5E06F0B
S31508008B403FF6AFAEB5EB030C04BFB6EB020C5FEA1B
S31508008B50500C50F1000041EB045170BD0EF0004E70
S31508008B604EEA113114EB5C04C2BFD4EB0C0541EAA2
S31508008B70045170BD41F480114FF0000E013C90E69F
S31508008B8045EA060E8DE60CEA135594EA0C0F08BF63
S31508008B9095EA0C0F3FF43BAF94EA0C0F0AD150EA62
S31508008BA001347FF434AF95EA0C0F7FF425AF1046F5
S31508008BB019462CE795EA0C0F06D152EA03353FF41D
S31508008BC0FDAE1046194622E750EA410618BF52EA9A
S31508008BD043067FF4C5AE50EA41047FF40DAF52EA6E
S31508008BE043057FF4EBAE12E74FF0FF3C06E000BF0B
S31508008BF04FF0010C02E000BF4FF0010C4DF804CD18
S31508008C004FEA410C7FEA6C5C4FEA430C18BF7FEAD7
S31508008C106C5C1BD001B050EA410C0CBF52EA430C05
S31508008C2091EA030F02BF90EA020F0020704710F185
S31508008C30000F91EA030F58BF994208BF90422CBF14
S31508008C40D8176FEAE37040F0010070474FEA410C0D
S31508008C507FEA6C5C02D150EA013C07D14FEA430C2B
S31508008C607FEA6C5CD6D152EA033CD3D05DF8040B9C
S31508008C70704700BF8446104662468C4619466346CE
S31508008C8000E000BF01B5FFF7B7FF002848BF10F1A5
S31508008C90000F01BD4DF808EDFFF7F4FF0CBF0120EA
S31508008CA000205DF808FB00BF4DF808EDFFF7EAFF66
S31508008CB034BF012000205DF808FB00BF4DF808ED21
S31508008CC0FFF7E0FF94BF012000205DF808FB00BF16
S31508008CD04DF808EDFFF7CEFF94BF012000205DF8A0
S31508008CE008FB00BF4DF808EDFFF7C4FF34BF0120AD
S31508008CF000205DF808FB00BF4FEA410C7FEA6C5C78
S31508008D0002D150EA013C0AD14FEA430C7FEA6C5C77
S31508008D1002D152EA033C02D14FF0000070474FF0EF
S31508008D20010070474FEA410212F5001215D211D51B
S31508008D306FF47873B3EB625212D94FEAC12343F04A
S31508008D40004343EA505311F0004F23FA02F018BFCC
S31508008D50404270474FF00000704750EA013005D195
S31508008D6011F0004008BF6FF0004070474FF0000058
S31508008D70704700BF4FEA4102B2F1E04324BFB3F5A2
S31508008D80001CDCF1FE5C0DD901F0004C4FEAC00274
S31508008D904CEA5070B2F1004F40EB830008BF20F058
S31508008DA00100704711F0804F21D113F13872BCBF12
S31508008DB001F00040704741F480114FEA5252C2F167
S31508008DC01802C2F1200C10FA0CF320FA02F018BFB0
S31508008DD040F001004FEAC1234FEAD32303FA0CFC03
S31508008DE040EA0C0023FA02F34FEA4303CCE77FEA92
S31508008DF0625307D150EA01331EBF4FF0FE4040F4DC
S31508008E004000704701F0004040F0FE4040F400008A
S31508008E10704700BF80F0004002E000BF81F00041CB
S31508008E2042001FBF5FEA410392EA030F7FEA226C02
S31508008E307FEA236C6AD04FEA1262D2EB1363C1BF92
S31508008E40D218414048404140B8BF5B42192B88BF01
S31508008E50704710F0004F40F4000020F07F4018BF24
S31508008E60404211F0004F41F4000121F07F4118BF44
S31508008E70494292EA030F3FD0A2F1010241FA03FCEC
S31508008E8010EB0C00C3F1200301FA03F100F00043D4
S31508008E9002D5494260EB4000B0F5000F13D3B0F19C
S31508008EA0807F06D340084FEA310102F10102FE2A0B
S31508008EB051D2B1F1004F40EBC25008BF20F001007B
S31508008EC040EA03007047490040EB0000013A28BF1A
S31508008ED0B0F5000FEDD2B0FA80FCACF1080CB2EB9D
S31508008EE00C0200FA0CF0AABF00EBC250524218431B
S31508008EF0BCBFD0401843704792F0000F81F40001C0
S31508008F0006BF80F400000132013BB5E74FEA410392
S31508008F107FEA226C18BF7FEA236C21D092EA030FFE
S31508008F2004D092F0000F08BF0846704790EA010F78
S31508008F301CBF0020704712F07F4F04D1400028BFA5
S31508008F4040F00040704712F100723CBF00F5000087
S31508008F50704700F0004343F0FE4040F400007047BD
S31508008F607FEA226216BF08467FEA23630146420269
S31508008F7006BF5FEA412390EA010F40F4800070477C
S31508008F804FF0000304E000BF10F0004348BF404222
S31508008F905FEA000C08BF704743F0964301464FF05E
S31508008FA000001CE050EA010208BF70474FF00003BA
S31508008FB00AE000BF50EA010208BF704711F00043FB
S31508008FC002D5404261EB41015FEA010C02BF8446CB
S31508008FD00146002043F0B64308BFA3F18053A3F52A
S31508008FE00003BCFA8CF2083AA3EBC25310DB01FA71
S31508008FF002FC634400FA02FCC2F12002BCF1004FF5
S3150800900020FA02F243EB020008BF20F00100704785
S3150800901002F1200201FA02FCC2F1200250EA4C00D9
S3150800902021FA02F243EB020008BF20EADC7070471F
S315080090307BB972B90029BEBF00204FF0004106E097
S3150800904008BF00281CBF6FF000414FF0FF3000F04A
S3150800905057B8ADF1080C6DE904CE002909DB002BE1
S315080090601ADB76F0FDFDDDF804E0DDE9022304B045
S315080090707047404261EB4101002B1BDB76F0F0FDA7
S31508009080DDF804E0DDE9022304B0404261EB41016A
S31508009090524263EB43037047524263EB430376F055
S315080090A0DFFDDDF804E0DDE9022304B0404261EBB0
S315080090B041017047524263EB430376F0D1FDDDF878
S315080090C004E0DDE9022304B0524263EB4303704730
S315080090D053B94AB9002908BF00281CBF4FF0FF3111
S315080090E04FF0FF3000F00CB8ADF1080C6DE904CE76
S315080090F076F0B6FDDDF804E0DDE9022304B070473A
S31508009100704700BF2DE9F04F2DED108AC1F80CD03D
S31508009110C3689D46BDEC108ABDE8F08F06F03CFAA0
S31508009120002383F311882846A047002007F02CFD6A
S31508009130FEE706F0C9FB07F09FFC06F02DFA00DFF4
S31508009140FEE710F8012B11F8013B012A28BF9A42C5
S31508009150F7D0D01A7047034613F8012B002AFBD123
S31508009160181A01387047000070B586B00C461146CB
S315080091701A46114B0093054674B1631ECDE90103E7
S3150800918000266846CDE903660BF094F9039BA342D3
S3150800919000D2EE5406B070BD9FED057B019068467F
S315080091A08DED027B04940BF085F906B070BD00BF07
S315080091B00000000000000000040908080000000084
S315080091C02DE9F04759EC108B3D4B002240464946A5
S315080091D0FFF77EFD002867D035A5D5E90045384F4D
S315080091E04FF0000A00260CE0FFF716FC8046894679
S315080091F032463B46404649460AF1050AFFF768FDEE
S31508009200E8B1494622462B464046FFF761FD8446AB
S3150800921022462B4640464946BCF1000FE4D1324669
S315080092203B46FFF7F9FB8046894632463B464046B1
S3150800923049460AF1010AFFF74BFD0028E1D1214B07
S31508009240002240464946FFF72FFD50B31AA5D5E937
S31508009250004517A7D7E900670CE0FFF7B3FAAAF1AC
S31508009260050A80468946174B002240464946FFF7BD
S315080092701BFDB0B1494622462B464046FFF714FD72
S31508009280844632463B4640464946BCF1000FE4D187
S315080092900B4B0022FFF796FA0AF1FF3A80468946F9
S315080092A0E1E75046BDE8F0878246C8E7AFF300809D
S315080092B000000000006AF84000000080B5F8E43EAF
S315080092C0000024400000F03F2DE9F047B0F1000A05
S315080092D02D4D4FF0000426DD29A7D7E90067DFF8F2
S315080092E0AC904FF00008BAF1040F204629463246E2
S315080092F03B460CDDFFF766FAAAF1050A04460D4659
S31508009300BAF1000FEFD145EC104BBDE8F0874246A5
S315080093104B46FFF757FA0AF1FF3A04460D46BAF1EB
S31508009320000FE0D1EFE7EED015A7D7E900671AF1ED
S31508009330040FDFF858904FF00008204629463246B9
S315080093403B460FDAFFF768FB0AF1050A04460D46A5
S31508009350BAF1000FD7D01AF1040F20462946324633
S315080093603B46EFDB42464B46FFF756FB0AF1010A3E
S3150800937004460D46BAF1000FEDD1C4E7AFF30080FD
S3150800938000000000006AF8400000F03F000024409A
S3150800939070B5C66984B0044630460D4613F0A8F881
S315080093A0204612F097FD204612F0E2FD9FED087B5D
S315080093B003462946304607246A468DED027B8DF81A
S315080093C00040019313F020F904B070BDAFF300809C
S315080093D0FFFFFFFFFFFFFFFF2DE9F04FC768C669D4
S315080093E0D0F804802DED028B282F87B004460D4651
S315080093F072D040F223139F4240F0858013F08CFB15
S315080094009FED438B4FF0070A4FF00809E3683A2BA4
S3150800941014D008DD5B2B51D05A2B40DC07B0BDECCD
S31508009420028BBDE8F08F282B3ED02E2BF6D129468D
S315080094302046FFF7ADFFE3683A2BEAD1204612F043
S3150800944049FD204612F094FD2946039030468DEDDD
S31508009450048B8DF808A013F029F82B78D5F804B0FA
S31508009460082B4BD096F834706F600221304685F889
S31508009470009011F0C5FDBA1C02A986F834205B4697
S3150800948000913A461421304613F04CF89DF80830FE
S31508009490082B0DD10399304670F092FF08E07B2B1C
S315080094A002D0B3F5927FB9D12946304612F0E0FFD3
S315080094B042462946204614F089F9A7E72946304648
S315080094C013F016F802A9204613F006FA02AA29464E
S315080094D0304613F099F899E712F0FCFC2946002269
S315080094E0204614F089FD204643463A46292112F0C3
S315080094F015FDE069294612F0CBFD81E7594630464D
S3150800950070F05EFFAEE7044911F012FDAFF300807C
S31508009510FFFFFFFFFFFFFFFFEC1608080000000033
S315080095200F4A02F5805303F54B6C00219FED0A7B29
S31508009530CCF8001003F6BC4C002002F5E65282ED8A
S31508009540007BC3F8AC0CC3F8B80CCCF80010C3F811
S31508009550C80C7047AFF30080000000000000000050
S31508009560000000100000000030B5012285B00C2173
S31508009570044610F09BFEE0B19FED117B0246124BAC
S31508009580043280ED017B02600FCB6D4685E80F0043
S315080095900E4B0F491A6820460EF0DAF800222946C3
S315080095A0204620F0C1FE20466FF088FF012005B056
S315080095B030BD20460EF076F8012005B030BD00BF5C
S315080095C000000000000000F0BC04080800A7002006
S315080095D0D8B9F0FF0000000010B590F8E03090F818
S315080095E0DCC0174C83F0010363F3000C80F8DCC081
S315080095F04FF48C620021204676F0ADFC4FF4F072F1
S31508009600002104F2644076F0A6FC0E4B9FED0A7B1F
S3150800961003F5615203F5405003F580430021C3F872
S315080096208413C3F88813002382ED0C7BC0F8403DF1
S3150800963010BD00BFAFF3008000000000000000F07E
S31508009640E0380010000000109FED116BD0ED0F7A86
S3150800965080ED030AB5EEC00A0123F1EE10FA80ED9B
S31508009660066BC0ED097A80ED0F0A03720BD9DFEDA0
S315080096700A6A86EE807AF5EE407AF1EE10FA80ED07
S315080096800A7A03D07047054B8362704769F05EBB60
S315080096900000000000000000ABC222480000C07FA6
S315080096A0D0B5554C554E0027204632463B463F21FD
S315080096B070F046FB04F1280032463B46402170F024
S315080096C03FFB04F1500032463B46412170F038FB1F
S315080096D004F1780032463B46422170F031FB04F132
S315080096E0A00032463B46432170F02AFB04F1C8002D
S315080096F032463B46442170F023FB04F1F000324623
S315080097003B46452170F01CFB04F58C7032463B46FF
S31508009710462170F015FB3A4B3A49196047201871F3
S31508009720482083F82400492083F844004A209FED06
S315080097302E6B9FED2F7B83F864004B2083F8840003
S315080097404C20002283F8A4004D244E2083ED046BA0
S3150800975083ED0C6B83ED146B83ED1C6B83ED246B2F
S3150800976083ED067B83ED0E7B83ED167B83ED1E7BF7
S3150800977083ED267B1A721A73196283F8282083F8F8
S315080097802C20196483F8482083F84C20196683F83E
S31508009790682083F86C20C3F8801083F8882083F843
S315080097A08C20C3F8A01083F8A82083F8C44083F857
S315080097B0E40083ED2C6B83ED2E7B83ED346B83ED18
S315080097C03C6B83ED367B83ED3E7B83F8AC20C3F898
S315080097D0C010C3F8E01083F8C82083F8CC2083F8BB
S315080097E0E82083F8EC20D0BD002D310100000000F0
S315080097F00000000000000000F0220020400D0300D9
S31508009800581A002094280A080D480E4AC3680E49BB
S315080098109FED097B10B4002443611C700830046274
S3150800982080F82440094B5DF8044B80ED0A7B46F02E
S31508009830D9BC00BFAFF300800000000000000000A4
S31508009840A83B00204C1C0A0804A60808EC84090852
S315080098502DE9F04F2DED048B544891B0FEF7E8FD45
S3150800986020B111B0BDEC048BBDE8F08F012550493D
S3150800987000950346462204464E4846F0F7FF4E48F2
S31508009880046145F007FB4D4B4D4A1B6813801B0CC2
S3150800989093704C4B9D63FFF7B7FF62F0D3FB4A49C1
S315080098A04A4847F0D5FD4A494A4847F0CDFD4A4956
S315080098B04A4847F0C9FD4A494A4847F0C5FD4A495A
S315080098C04A4847F0C1FD4A4B1D78002D40F0658196
S315080098D0484E494846F0BAFC31222946474876F0B0
S315080098E03AFB96F8790166F0DDFD96F8740566F0A0
S315080098F0D9FD96F8DF0266F0D5FD4149414847F0A3
S31508009900A7FD414871F006FE404871F003FE404A43
S315080099104048536843F40003536071F0FBFD3E482A
S3150800992090F83C33002B00F043833C4B9A689B6CC1
S315080099305380202383F3118805F0C6FF384B1A7825
S31508009940511E012900F21C8336495960012A1DD18E
S31508009950354A3648116C41F010011164116E41F018
S3150800996010011166116E116A41F010011162116A37
S3150800997021F0100111622E49126A98604FF4800294
S31508009980702381F83633C1F884214A60244E25486D
S31508009990B1680268B1FBF2F3013B9BB203FB0222FA
S315080099A0914200F00D83234805F008FE209300201D
S315080099B0641C0A08B89D0020FCAF0120781C0A0820
S315080099C080930120A83B002089C006087C1C0A0851
S315080099D07DAF0608881C0A08ED1005089C1C0A08B5
S315080099E061100508A81C0A0809140508BC1C0A0801
S315080099F081180220006D0010D41C0A08582B01207B
S31508009A0045650408EC1C0A08F0950020CC95002052
S31508009A1000230140A8950020186200203035012057
S31508009A20709400201C1900200038024000BD010572
S31508009A3000E100E0AC290A08B3F5AA7FC1F0458029
S31508009A407BB9AF4BAF49B04AB048C3E902214FF4DE
S31508009A50A271102219805A60AD4900221A6147F096
S31508009A60F3FCA74F264646B93B8833B1B868036866
S31508009A701B689847031EC1F2C8820026A54FDFF867
S31508009A80C0830096B7F84220A3493346404646F0BD
S31508009A90EDFE0096B7F8D822A0493346A8F5867099
S31508009AA046F0E4FE00963346B7F82E239C49A8F5FF
S31508009AB0D47046F0DBFE9B499B4847F0C5FC9B4BA0
S31508009AC01E7097F87135D90703D497F87035DB09F6
S31508009AD048D0DFF84082B8F84410B8F8460040F09D
S31508009AE071FCB8F870160746B8F8720640F06AFCBA
S31508009AF00646002F01F09080874201F0F68298F81A
S31508009B005C36062B96BF8A4A8A4B52F82330814A1E
S31508009B10186892F864265968520608AB03C302D53A
S31508009B2001F10043099308A9384606F035FF002ECF
S31508009B3041F07580804BC3E90076764B93F8713512
S31508009B40DB0706D5DFF8FC8298F8AC33002B01F06A
S31508009B50D682704B93F87035DB0941F0B281734BAE
S31508009B6001221A70754B1B7853B96A4BB3F8EC028D
S31508009B703EF09AFC002801F07A8171483BF06CF8B7
S31508009B80644B93F8E463F60941F0B5803EF062FE53
S31508009B903FF0CEFC6B4846F059FB6B496B4847F0E3
S31508009BA05BFC6B496B4847F053FC5A4B93F83423DC
S31508009BB0120700F1CF81614B197879B9554B664880
S31508009BC01B89692B9CBF654A52F8231046F03EFB59
S31508009BD04CF0C2F86249634847F03AFC624DDFF838
S31508009BE0688205F580674FF0FF36294632464046BB
S31508009BF0203509F0C5F8AF42F7D15C485C4947F013
S31508009C002BFC5C4800F5805595F8AC31002B00F02C
S31508009C10C581594959485A4D47F022FC59495A486D
S31508009C2047F012FC59495A4847F00EFC95F85C363D
S31508009C30002B00F0A881574B5A68002A00F0BB8118
S31508009C4059F05EFF00283FF40CAE5349534847F0DD
S31508009C50FBFB5349534847F0F7FB5349534847F032
S31508009C6003FC5349534847F0F7FB5349534847F019
S31508009C70F3FB5349534847F0EFFB5349534847F022
S31508009C80F7FB5349534847F0E3FB5349534847F01A
S31508009C90DFFB5349534847F0DBFB5349534847F02A
S31508009CA0D7FB5349534847F0D7FB31F0DFFA524800
S31508009CB059F0CCFB514B5249524801221A6047F0E1
S31508009CC0C3FB5149514847F0BFFB514A514805214A
S31508009CD06EF0F0FB5049514847F0B6FB50495148E1
S31508009CE047F0B6FB5049514847F0B2FB5049514836
S31508009CF047F0B6FB5049514847F0B2FBA6E000BF13
S31508009D0094360120341D0A08884700203C1D0A089D
S31508009D10F9A70608006D0010641D0A086C1D0A08DC
S31508009D20781D0A08C9B00608841D0A08A01802206A
S31508009D3074290A0890290A087893012081180220B4
S31508009D4040380010181E0A08F93A0608CC1C0A08FA
S31508009D5069580608F49C0908301E0A08205B090899
S31508009D60D10E0508C41A0A08B86B0020441E0A0852
S31508009D70CD390208B86F002095570208EC26080866
S31508009D8070810020E5390208541E0A085D49020858
S31508009D90601E0A08E83B0020E52906086C1E0A082A
S31508009DA0A1290608781E0A08C12B0608841E0A0877
S31508009DB0DD2A0608901E0A088D2A0608981E0A0833
S31508009DC0B52A0608A41E0A08052B0608B01E0A08A6
S31508009DD069120608B81E0A0845120608C41E0A08AB
S31508009DE0C5110608CC1E0A08E9110608D81E0A0875
S31508009DF00D120608E41E0A08302F00109893012059
S31508009E00B9BD0508EC1E0A08A9D905080C1F0A08D9
S31508009E10D9BD0508181F0A0839C40508301F0A08DD
S31508009E2089DB05083C1F0A0891DB0508481F0A0854
S31508009E3029C40508541F0A0831C40508F08309080F
S31508009E40E89E002038D10010B0A500207649774852
S31508009E5047F00AFB7649774847F002FB7649774888
S31508009E6047F002FB7649774847F0FEFA7649774885
S31508009E7047F0FAFA7649774847F0EAFA7649774892
S31508009E8047F0EEFA7649774847F0EAFA764977488E
S31508009E9047F0E6FA7649774847F0E2FA764977488E
S31508009EA047F0DEFA7649774847F0CEFA764977489A
S31508009EB047F0D6FA7649774847F0C6FA764977489A
S31508009EC047F0D2FA7649774847F0CEFA764B1B78B0
S31508009ED0002B00F00382754C7549012500234822A2
S31508009EE02046009546F0C2FC002372490095472299
S31508009EF004F10C0046F0BAFC6F4B93F87D35DB078E
S31508009F0000F1EB85684B1B780BBB6C48036144F08A
S31508009F10C1FF694BB3F8184520463EF0C5FA38B17B
S31508009F209FED670A674B68496848224666F0F6FA65
S31508009F30614BB3F8284520463EF0B6FA38B19FED96
S31508009F40600A634B60496348224666F0E7FA35F0D3
S31508009F505DFE86E493F84F27002A3FF42CAEB3F84B
S31508009F6042003EF0A1FA00283FF425AE00220092F6
S31508009F70594B5A487F224FF4CA6108F027F81AE667
S31508009F80574805F01BFB0123D5F8581685F85C36AB
S31508009F9028463DF02BF9C5F860064CE60123D5F8AE
S31508009FA0A81185F8AC311AF0A1FCC5F8B00130E665
S31508009FB03EF00AF9B9E44B4A1168596013603FE666
S31508009FC0D0E90201F26821F0FF010027176050600E
S31508009FD0936217610223D160337005F08BFB20234F
S31508009FE083F3118805F070FC05F038FF3378022BEF
S31508009FF040F06885032372683370F3685268092154
S3150800A000D962012159615F621F6112B1DA680A4398
S3150800A010DA6085221A6005F06DFB33493348344E01
S3150800A02047F016FA012768E065C5050890EB0808A9
S3150800A0303DC40508E8290808C9BE05085C1F0A08C2
S3150800A04015BF0508701F0A0861BF0508881F0A089A
S3150800A0505DE00308A41F0A08B9BE0508AC1F0A0874
S3150800A060A9BE0508C01F0A08A5C00508D01F0A080A
S3150800A070ADC00508E01F0A08F9BF0508F01F0A0861
S3150800A0808D940508F81F0A08B5C0050804200A08B3
S3150800A09049A304081C200A08E104060828200A081F
S3150800A0A0ADBF050840200A0881180220C49D00207B
S3150800A0B024230A0838230A08006D0010D8B00120A6
S3150800A0C000401C465C19002058230A085046002008
S3150800A0D068190020C846002021C2040868650020C7
S3150800A0E0BC290A080418002085760408F81C0A0802
S3150800A0F0342B0120384606F06FFD3368012BF9D959
S3150800A100694B93F8E523170778D5D3ED757ADFED14
S3150800A110676A9FED676A93F870359FED660A67EE82
S3150800A120A67AB6EE007A67EE877A180786EE277A59
S3150800A130614BDFED626AD3ED007A9FED616A27EE27
S3150800A140267AF4EEC67A48BF37EE077AF1EE10FAA9
S3150800A150D8BFF0EE477AF0EE046A27EEA67AB4EE98
S3150800A160C07AF1EE10FA00F33A879FED507A67EE5F
S3150800A170877A87EE800A64F01BFD524B00225A60EC
S3150800A180B0EE087AC0EE076AF7EE004A36EEA45A31
S3150800A190BFEE007AA0EE005A74EEE65A84EE856A9F
S3150800A1A0A0EE007AE0EE005A37EE077A66EE866A87
S3150800A1B067EE067A26EE256AB1EE667AC3ED006A80
S3150800A1C083ED027AC3ED037A83ED046A364B93F87E
S3150800A1D02F365907C3F3800600F18B863A480322C7
S3150800A1E056213FF0ABF83948032257213FF0A6F82D
S3150800A1F0374890F83C33002B00F003872A4B93F836
S3150800A2003433DE0700F1DD85274B93F834339A079C
S3150800A21000F1D285244B93F834335B0700F1C785E8
S3150800A220214B93F83733DF0700F1BC851E4B93F8B3
S3150800A2302D361E0700F1B1851B4B93F82D36D8062F
S3150800A24000F1A685184B93F8343F002B3FF409AC70
S3150800A250204E0F335B010022C6E9232306F1A8002E
S3150800A2600123142286F8A330C6F8942045F0D2FDBF
S3150800A270B369002B00F0F485174A1388516819440E
S3150800A28089B222460120002A7FF4DAAB002B3FF47C
S3150800A290D8ABB3F5A27FBFF4CFABB1F5A27F024628
S3150800A2A0F1D9FFF7DEBB00BF006D0010DB0F494098
S3150800A2B000006144809F5548887C001000007A445D
S3150800A2C00AD7233C047501201C1D0A08281D0A0804
S3150800A2D0D05E00208847002094360120BC49BD483E
S3150800A2E047F0B2F8BC4ABD4805216EF0E3F8BC4A0F
S3150800A2F0BC4810216EF0DEF8BB4ABC4811216EF04E
S3150800A300D9F8BB4ABB4810216EF0D4F8BA4ABB4804
S3150800A31011216EF0CFF8BA4ABA4811216EF0CAF880
S3150800A320B949BA4847F090F8B949BA4847F08CF89D
S3150800A330B949BA4847F088F8B94ABA4805216EF0CB
S3150800A340B9F8B949B94847F07FF8B949B94847F063
S3150800A3507BF8B949B94847F07BF8B949B94847F095
S3150800A36073F8B949B94847F06FF8B949B94847F099
S3150800A3706BF8B949B94847F06BF8B948B94A112199
S3150800A3806EF098F8B84890F83C33002B00F02A8411
S3150800A390B64EA6F2AC5559F077FAB548314645F0AF
S3150800A3A0B1FDB5F8CA023EF07FF868B105F2C4639C
S3150800A3B093ED000ADFEDAF0AAF4AB049B048B8EEF0
S3150800A3C0C00A00236DF092FFAE4BB3F9E420B3F94F
S3150800A3D05210914201DAA3F85220AB4BAB4FAC4D69
S3150800A3E0AC4EDFF8A0927B6003F14001B96003F13F
S3150800A3F05001F96095F8A91EDFF800B34FF07E52B8
S3150800A4004FF0140840F2947ABA613A617A61B261FF
S3150800A4103261726118FB01A103F16002494405F635
S3150800A420AC60726003F1A002B033B260F36045F02D
S3150800A43069FD95F8F91EC5F8DC7E18FB01A14944AB
S3150800A44005F6FC60C5F8E0BE45F05CFD95F8491FC9
S3150800A450C5F82C6F18FB01A10BF17803494405F6E2
S3150800A4604C70C5F8303F45F04DFD95F8993FC5F855
S3150800A4707C7F18FB03A149440BF1F00305F69C7099
S3150800A480C5F8803F45F03EFD0BF5B473C5F8D03FDF
S3150800A490C5F8CC6F52F018FD99F8E433590600F167
S3150800A4A094837D483AF0D8FB7C483AF0D5FB7C4843
S3150800A4B03AF0D2FB7B483AF0CFFB012060F0E6FF8A
S3150800A4C0704B93F83723920640F11F8393F8712552
S3150800A4D0D70704D593F87035DB0940F09F85724994
S3150800A4E040F25E2054F00CF8664D95F82D369E061F
S3150800A4F040F11E8395F87035DB0940F077836B4988
S3150800A50040F25E2053F0FCFF212039F045F848B9A7
S3150800A5105C4B674DB3F86283B3F86473AB68002B82
S3150800A52000F08485574B93F81E124B1E2F2B0AD822
S3150800A530604CDFED500A9FED600A20463EF066FF4C
S3150800A54020463AF089FB4F4D5C4995F836025C4F38
S3150800A55061F05CFC95F82C035A4961F057FC5AF0F7
S3150800A56045FF05F64256002405F6735515F8012FE2
S3150800A57036F8021F013438463EF0E0FE082CF5D1C5
S3150800A5805149524846F070FF5149524846F05CFF1F
S3150800A5905149524846F058FF5149524846F058FF2B
S3150800A5A0384B93F87D355C0600F166834E494F4873
S3150800A5B046F04AFF4E4B93F827201AB94D4A1168C0
S3150800A5C0D96213604A4E4C4CB4614EF6602297E04D
S3150800A5D0A527060854200A084D27060864200A08F5
S3150800A5E03535060874200A081535060880200A0835
S3150800A5F0E93506088C200A08C935060898200A088D
S3150800A60065360608A4200A08B1270608B0200A08F5
S3150800A61039260608C0200A0845260608CC200A0856
S3150800A620E1250608D8200A080D280608E4200A08A5
S3150800A63051110608F4200A08B159060804210A0827
S3150800A640F126060818210A08A126060828210A085C
S3150800A6506128060834210A085D11060840210A08FF
S3150800A6604C210A08F1360608308D0020AC7200101D
S3150800A670E0060010000000005C9E002058210A0831
S3150800A68030400020006D001098A00010B8B00120DE
S3150800A6900010001098B0012070B0012060B00120B1
S3150800A6A050B0012040B001206C210A08A4210A08F4
S3150800A6B0948D0120A88C0020CDCC4C3D088D00201F
S3150800A6C0E0210A08E08C0020B1EA0608EC210A0815
S3150800A6D0C9D70308FC210A08014F040810220A08F2
S3150800A6E00DA7060820220A087D4A040824840808BB
S3150800A6F040470020A0AC002076720010E83C0020FD
S3150800A7000023C6E90223304604F22A630025336291
S3150800A71086F826503EF0F0FEB34BB44A5A60012143
S3150800A72002F5807286F827109A604FF07E5620321E
S3150800A730AF489E6129461E615E61DA6035F092F97E
S3150800A740AC4BAD4AAD48AE495A6002F580729A6084
S3150800A7504160103201F58071DA608160A94A9E6114
S3150800A7601031C1601031516040311E615E619160E7
S3150800A770A54B9661103116615661D16001F16002F0
S3150800A7801031C3E901128661066146619E611E6148
S3150800A7905E6101F160029D4E9D4FDFF820A3DA60ED
S3150800A7A0A4F27654B4F8DC8940463DF07DFEA0B3A9
S3150800A7B0B4F8E0B9974B984942464FF00C0807EEB3
S3150800A7C090BA08FB0538BBF10009404618BF4FF0A0
S3150800A7D00109B8EE678A46F0F1F8BBF1000F40F0C0
S3150800A7E087815AF8253004F606225A604FF07C52C3
S3150800A7F09A6104F6E6129A604FF080421A6104F6EE
S3150800A800F612DA604FF07E525A61C6E9048304F6FE
S3150800A810DC1386F80890F76073600135042D04F19F
S3150800A8206C0406F1180607F17807BBD17B4C7C4D02
S3150800A83094F8843404F2BC50002223F0070305F58B
S3150800A8401861A5F8002684F8843445F05BFB95F872
S3150800A850CD30744DD8064CBF04F59C6004F5956060
S3150800A860714C294645F04EFB204631F0E3FC55F085
S3150800A87025F9A4F5BE62002182F87814A4F5BA7207
S3150800A8806A4B1360A5F2F455A4F5A872684869499D
S3150800A890136046F0D9FD95F8CD30D9064CBFA4F51E
S3150800A8A08870A4F5A4705E4C04F2F45104F2FC53CB
S3150800A8B004F5BF620D681968C36A12685A600268AF
S3150800A8C01D605268996090475B495C4846F0BCFD3C
S3150800A8D05B4B1B78002B36D1504B5A4A5A485B497A
S3150800A8E05B4D5C4EC3E9F7025B4846F0ADFD5B493C
S3150800A8F05B4846F0A9FD5B4B5B495C4A5D614FF0DE
S3150800A9007E508861086190611061186104F6C41070
S3150800A910C860574848615748986157489860063054
S3150800A920D86004F6646004F51D64C1E9010453495E
S3150800A930566004F66C3400F5DD60C2E902405561E4
S3150800A940596054F0F1F8364B93F87C359A0600F1C5
S3150800A950608152F015F94A494A4821F0A3FA4A4B50
S3150800A9604A49A3F6A4624FF07E54B2F84C00484A0E
S3150800A9704B60A3F59C65A3F2D4468C6124330C6125
S3150800A98094611461434CCD60C2E90136D560384BF9
S3150800A9908E6000254B61536125703DF085FD58B1E9
S3150800A9A02B46DFED3D0A9FED3D0A3D4A3D493E48AF
S3150800A9B06DF09CFC01232370194B3C4CB3F83A0EFE
S3150800A9C0002525703DF070FD00283FF484AA2B462B
S3150800A9D09FED320A364A37493748F6EE000A6DF0D7
S3150800A9E085FC012323706BE0D0BC00202CAB001043
S3150800A9F048200010A89B00206CAC00107898002016
S3150800AA008CAD00105898002038980020AC8D012095
S3150800AA10C88800202C190020D8220A080000001037
S3150800AA20006D0010F4720010F00500100000C8C296
S3150800AA30E0220A08B5B30508519B0408EC220A0867
S3150800AA4081180220281F0020F01F002019CB0508B6
S3150800AA500AD7233CFC810010F8220A08A9A4050895
S3150800AA6004230A0820B00120048D0120E48C01206B
S3150800AA700000C842CDCCCC3DE4B10010C0B10010F6
S3150800AA806F861400B4BC0020A47B0010A4A7002085
S3150800AA9084A70020C3180220CDCCCC3D0000C07F7F
S3150800AAA09C9E00200C230A0850880020C218022009
S3150800AAB0DC9E002018230A08D8870020C8290A081F
S3150800AAC0FFF709BAC14804F079FDB1F5AA7F4FF03E
S3150800AAD001027FF6D8ABFEF7C4BFBD4B1B78002B2F
S3150800AAE07FF435AABB49BC4846F0AEFCFFF70ABA64
S3150800AAF0BA4BDFEDBB0A53F82510B0EE480A00231F
S3150800AB00424638466DF0F2FB6BE693F84C32013B51
S3150800AB102F2B02D8B3483AF09FF8B34B93F84D322F
S3150800AB20013B2F2B3FF6E0ACB0483AF095F8DBE452
S3150800AB30AF49B04895F8D76246F086FCAE49AF48AB
S3150800AB4046F082FC30463DF063FEAD4BC3F8580331
S3150800AB50002800F0E38203F2463603F26F379B467D
S3150800AB6005F55B7503F5807A039405E00BF1200B78
S3150800AB70D34505F102056DD000234FF0010826F8EC
S3150800AB80028F07F8013F9BF87C0338F005FD044661
S3150800AB900028EBD1B5F8009048463DF085FC002822
S3150800ABA0E4D0974B494603F55770C3F8604344F021
S3150800ABB0B9FE9448424649463EF0C0FB2B8833808E
S3150800ABC00BF55E703AF048F8D0E78F4858F0F6FE75
S3150800ABD08E4858F0F3FE8E4858F0F0FE8D4858F02F
S3150800ABE0EDFE5EE43DF0F0FAFFF7D2BB8A4858F076
S3150800ABF0E5FE8A4858F0E2FE894858F0DFFE8948A3
S3150800AC0058F0DCFE884858F0D9FE884858F0D6FE39
S3150800AC107AE456F0C7F99CE600283EF4A3AF724BD7
S3150800AC2093F85E36062B00F24A81814A52F82330A1
S3150800AC306D4A186892F864265968D20906AB03C3A8
S3150800AC4002D001F10043079306A9304605F0A4FE99
S3150800AC50FEF770BF6A4D039C95F83C33002B7FF4D2
S3150800AC6053AC0123D5F8381385F83C3328463CF015
S3150800AC7095FAC5F8400347E46E4B93F8D421002AA9
S3150800AC8000F0088193F8D521002A00F01581D3F841
S3150800AC90D8310B939DED0B8A18EE100AFDF73AFD95
S3150800ACA00446224664480B460D4645F0CFFAB4EEF4
S3150800ACB0488AF1EE10FA80F1E180DFED607AB4EEB1
S3150800ACC0E78AF1EE10FA00F3D980DFED5D7AB4EE8B
S3150800ACD0E78AF1EE10FA00F1D1805A4845F0B6FA43
S3150800ACE0544B40F20111002283ED648AA3F88C11BB
S3150800ACF083F88E215AE493F8D829052A00F213829C
S3150800AD00DFE802F03639332C034340F2F1134E499B
S3150800AD1000220B804D4B4E481A8039F09DFF4D4856
S3150800AD2039F09AFF304B4C4993F8E4230E7090069D
S3150800AD307EF52CAF93F8D829052A00F2FB8101A3EA
S3150800AD4053F822F07DAD00087DAD00087DAD000802
S3150800AD508D9B00087DAD00088D9B00083A4B4FF48B
S3150800AD6021721A8040F28522D4E74FF4D073CEE7D9
S3150800AD704FF4F873CBE74FF40073C8E7374940F64A
S3150800AD806E0053F0BDFBFEF701BF40F20933BEE784
S3150800AD9006203FF099FBFFF755BA05203FF094FBD4
S3150800ADA0FFF74ABA04203FF08FFBFFF73FBA0320AC
S3150800ADB03FF08AFBFFF734BA02203FF085FBFFF726
S3150800ADC029BA01203FF080FBFFF71EBA98290A0826
S3150800ADD081180220E5A706084C230A08F8290A085C
S3150800ADE0000000008CB00120006D001080B001202A
S3150800ADF0E1020508CC210A0839030508D4210A0806
S3150800AE0090270020E0860808508B0020188B002029
S3150800AE10E08A0020A88A0020788C0020488C002030
S3150800AE20188C0020E88B0020B88B0020888B002027
S3150800AE3074290A08D0A700202C220A080000DC4240
S3150800AE400000704268230A087E1802207C18022037
S3150800AE505848002038480020C1180220D81D0A0882
S3150800AE60BB4B1A68B26114361E60FFF705BAB94BB8
S3150800AE7093F844086EF05AFFFEF782BEB64922469A
S3150800AE802B4640F6B20052F08BFFB44845F0DEF987
S3150800AE90FFF78CBBD3F8DC4174B1236820469B6866
S3150800AEA0984748B1236821465B680AA898479DF8E1
S3150800AEB02830002B7FF4EEAE9FEDA98AECE6A94B6D
S3150800AEC0B6E6A948C0F8687327B190F83C33002B5A
S3150800AED000F01281A548C0F86863002E3EF43FAE24
S3150800AEE090F83C33002B7EF43AAE3DF06DF9FEF750
S3150800AEF036BE9F4BDFED9F9A9FED9F9ADFF8BCA267
S3150800AF000FCB10AF07E90F004FF0000900279FEDA0
S3150800AF109B8A0DF1300BB84607EE907AF8EEE77A81
S3150800AF20FBEC018A77EEA77A08F1010827EEA90A51
S3150800AF304F4480EE090A70F04FFFB8F1040FA8EEEF
S3150800AF40808AE9D109F10109B9F5806FAAEC018A6D
S3150800AF50DCD18B4BDFED896A1868DFED8A5A9FEDE5
S3150800AF608A6ADFF85CC205EE104AAE464FF47A6785
S3150800AF7000220CFB02F307EE903AF8EEE77A411C42
S3150800AF8067EEA57A914237EEC67AB0EEC77ABDEE7D
S3150800AF90C77A17EE103A05D1B8EEC57A37EEC77AF2
S3150800AFA0F0EEC76ABB4204DABDEEE75A1F46B6465C
S3150800AFB010460132B2F5007FDBD1BEF1000F01D099
S3150800AFC06F4B1860714B15EE101A03F5805203F596
S3150800AFD0EA53A2F83E1DC3ED006AFFF7FFB817EE65
S3150800AFE0900AFDF797FB02460B46CDE90023684910
S3150800AFF055A3D3E9002340F25E2053F081FAFFF708
S3150800B000E5B83DF0E1F8FFF7F9B83246614940F294
S3150800B0105E2053F075FA0126FEF725BD5E4858F006
S3150800B020CDFC5E4858F0CAFCFFF75EBA40463DF0D4
S3150800B0303BFA00283FF476AA38463DF035FA002850
S3150800B0403FF470AA564E0522304641463EF076F940
S3150800B0500522394630463EF071F940466DF084FACD
S3150800B0604146286030463DF007FF686038466DF077
S3150800B0707BFA394603463046AB603DF0FDFE6A680A
S3150800B0802968E860012606FA02F292B20A8306FAED
S3150800B09000F3AA689BB213830DF113010F23284608
S3150800B0A032468DF8133066F09FFE32460DF11201D6
S3150800B0B0284666F0B3FE9DF81230B12B2BD0BD2B77
S3150800B0C07FF430AA4CF220433446364DADF814309E
S3150800B0D02846022205A92C6166F086FE012332481D
S3150800B0E02B7539F0B9FDFFF71DBA304940F25E20DD
S3150800B0F053F006FAFEF736BD3DF066F8EAE6012398
S3150800B100D8F8A81388F8AC3340464FF0BDF9C8F80C
S3150800B110B003FEF71EBD44F21043D6E7244845F0B7
S3150800B12095F8FFF7F1B9234940F66E0053F0E8F9B0
S3150800B1302E46F7E5204940F66E0053F0E1F9FEF792
S3150800B14025BD00BFAFF3008000000000F0B30A4140
S3150800B15004180020003000105C220A0888220A0819
S3150800B16067A6CA4290290A08C8CD001058CA001016
S3150800B17044060808DB0F494000C07F440000000071
S3150800B180F06601200000803A00007A4500000010B1
S3150800B190FC1C0A08481D0A08D048002090480020D0
S3150800B1A0DC210A08948D0120284600208C1D0A08F7
S3150800B1B0EC860808B81D0A08001E0A08A411012012
S3150800B1C07E5603000000000038B59FED216BDFEDC9
S3150800B1D0227A224B0360044600250123036480ED8E
S3150800B1E00E6BC0E90755C0E90955C0ED017AC0EDF7
S3150800B1F0027AC0ED037AC0ED047AC0ED057AC0ED97
S3150800B200067AC562C0ED0C7A80F8345080F844504E
S3150800B21085644C306CF0A8FC114BA4F8B0504FF084
S3150800B220824284ED206B84ED266B84ED2E6B84F8C8
S3150800B2307C50C4F88850C4ED237AA4F89050C4ED25
S3150800B240287AC4ED297AC4F8A820C4F8AC3038BDE9
S3150800B25000000000000000F000000000DC3D0A08C5
S3150800B260CDCCCC3D000000009FED0F7B002200B541
S3150800B270C0F8A4104FF0000E0D49C0F80CE0C0F855
S3150800B28020E0C0E90422C0E9062280ED0E7B80EDAD
S3150800B290347B5DF804EB426082600160426244F0F0
S3150800B2A019BA00BFAFF3008000000000000000F0EC
S3150800B2B0C43D0A080000000010B59FED136BDFEDD2
S3150800B2C0147A144CC0ED147A00234FF0010C8362F3
S3150800B2D080ED126BC362C0E90833C0E90A33C0E9DE
S3150800B2E00C33C0E90E33C0E91033C0E9033300F16B
S3150800B2F00C0E036043714361C36180F854C08361D7
S3150800B30080F804C0846010BD000000000000000042
S3150800B3100000C07F082A0A082DE9F84FE44CE54BDF
S3150800B320E549E64FE64ADFF8F0C32DED028BC4F88F
S3150800B33070343C33C4F8743404F27C4300251D6031
S3150800B34004F5906304F58A681D6004F29443C8F80E
S3150800B35000501D6004F5936304F254481D6004F21E
S3150800B3609C43C8F800501D6004F5946304F58B6887
S3150800B3701D6004F2AC43C8F8005004F25C481D6036
S3150800B38004F59663C8F8005004F58C681D6004F24D
S3150800B390B443C8F8005004F264481D6004F5976386
S3150800B3A0C8F80050C4F86C1404F58D6804F24C41D2
S3150800B3B01D6004F5986E04F2BC4300260D60C8F8BB
S3150800B3C0005001214FF07E581D6084F87864C4F857
S3150800B3D08464C4F88864C4F88C64C4F89064C4F8B7
S3150800B3E0A464C4F8C814C4F84874CEF80080C4F835
S3150800B3F0001504F59A61B34B0B6004F59B6104F2E2
S3150800B400C44E0D6004F2DC41CEF800500D6004F223
S3150800B410CC4E04F20451CEF800200A6004F5A1626D
S3150800B420A94F136004F59C60C4F8A8C4C4F8E07476
S3150800B430C4F8D464C4F80C6543F0A2FA00210020CD
S3150800B44004F5B463C3E9000104F5B66343E90201F0
S3150800B45004F2B4521D6004F5B76304F2BC504FF011
S3150800B460704784F89865C4F89C6515601D606CF093
S3150800B4707BFB04F5C86084F8F06584F83866A4F8A0
S3150800B480586684F85A660026C0E9006704F5CA605B
S3150800B49004F2346240E90267C0E900678B49156027
S3150800B4A004F2F45343F8041B9A42FBD1DFF86C828A
S3150800B4B04346002743F8047B1F60854BC4F8603673
S3150800B4C0844BC4F86836844BC4F8D8363033002623
S3150800B4D0C4F8DC3608F17400804BC8F83060C4F84C
S3150800B4E0C836C4F8A066C4F8646684F8BD66C8F8A9
S3150800B4F00870C8F85470C4F87866C8F81070C8F8A8
S3150800B5001470C8F81870C8F81C70C8F82070C4F809
S3150800B5109066C4F89466C4F89866C4F8A466C4F835
S3150800B520A866C4F8AC66C8F84870C8F84C7084F8C1
S3150800B530BC66C4F8CC66C4F8D066C8F868706CF007
S3150800B54013FBD4F81437C4F8246703F070439FED4F
S3150800B550548BC4F81437624BC4F81037614BC4F8DF
S3150800B56020374FF0010A604BA4F840A708F1CC0039
S3150800B570C4F8303788ED2B8B88ED2F8B84F8176746
S3150800B58084F84267C4F8446784F8486744F042FC84
S3150800B590564BC4F850374FF40072554BC4F8583719
S3150800B5A0314608F1FC004FF0400984F85467C4F8A6
S3150800B5B05C6784F8606774F0CEFC8022314608F533
S3150800B5C04170A4F86A9974F0C6FC9FED377B494B25
S3150800B5D0C4F8B83A08F1EC0008F2644303ED027BBC
S3150800B5E0A4F8F299C4F8BC6AC4F8C06AC4F8D06A68
S3150800B5F0C4F8D46A84F8D86A51F0C6FB51463E4866
S3150800B600324644F0B3FAD4F81C3B3C48C4F8E00A86
S3150800B6101B0D1B05C4F81C3B08F2844BD4F8043BED
S3150800B6203748C4F8000B8BED008B08F2944B0BEDF2
S3150800B630028B3448C4F8180B08F2A44B03F07F4376
S3150800B640C4F8043B8BED008B2F4B3048C4F8300B05
S3150800B65008F2C44B0BED028B2D48C4F8583B08F290
S3150800B660D44BC4F8380B8BED008B2A4884F854A7C2
S3150800B670243308F2E44B84F860A7C4F85C3BC4F8AA
S3150800B680500BC4F8E46AC4F8E86AC4F8086BC4F84E
S3150800B6900C6BC4F8206BC4F8246B41E0AFF3008050
S3150800B6A000000000000000F000000000000000009C
S3150800B6B000000010D03E0A08906D0010643E0A088B
S3150800B6C0002474C900247449BC3E0A080000C84214
S3150800B6D014420A08283F0A08A8420A08F4420A0837
S3150800B6E0443F0A08603F0A087C3F0A08B83F0A0830
S3150800B6F09C3F0A08960064007C9E0020D83F0A08F2
S3150800B7006C420A0830420A08F83F0A08F8410A0853
S3150800B71014420A08DC410A08DC3108086C060010E5
S3150800B720A4F8346BA4F8366BA4F83C6B84F8546B15
S3150800B73084F8076BA4F81E6B0BED028B84F8606B1C
S3150800B740C4F86C6B84F8706BC4F8286CC4F82C6C5D
S3150800B75008F59F6408F69415276008F2FC44F7EE8E
S3150800B760007A276008F5A16405F53E6A276008F2A5
S3150800B7700C5405F54E63276008F5A26443ED387A44
S3150800B780276008F21454CAF80070276008F5A36405
S3150800B790C4ED007A05F6DC34C5F8D06B276005F6EB
S3150800B7A0E434C5F8D46B276005F6E834C5F8D86BD9
S3150800B7B0276005F6F434C5F8EC6B276005F6FC340B
S3150800B7C0C4ED007A05F60444C5F8F06B276005F663
S3150800B7D00844C5F8F86B276005F54364C5F82C6C72
S3150800B7E0276005F63444C5F8386C27601424C5F874
S3150800B7F0404C2824C5F83C6CC5F8444C03ED048B32
S3150800B8004FF4FA63C5F8483C41F27073C5F84C3CEE
S3150800B81005F65C43B9491F60382385F8783C05F678
S3150800B8207C43B7481F6005F54B6308F5B4581F609D
S3150800B83005F6B44301F1240C1F6005F6BC434A46DD
S3150800B8401F6005F6DC43C5F8701C1F6005F6F84353
S3150800B850C5F8A80C314605F6FC401F60C5F874CC3F
S3150800B860C8F80070C5F8506CC5F8546CC5F8586C23
S3150800B870A5F8606CC5F8646CC5F8686C85F8796CD1
S3150800B880C5F8806CC5F8AC6CC5F8B86CC5F8C06C62
S3150800B890C5F8C46CC5F8C86CC5F8E06CC5F8E46CA6
S3150800B8A0C5F8E86CC5F8F46C74F055FB05F6445118
S3150800B8B005F554630F6005F648514FF400020A6017
S3150800B8C000204FF00041C3E904011F60C5F83C6D34
S3150800B8D005F6086405F65853C3E902011A601033E1
S3150800B8E09C42F9D1874F884CC5F8184E05F608636F
S3150800B8F0864C1A603B46864AC5F8D82CE3E804010C
S3150800B90005F54F62C5F8304E6FF000440026C5F8BD
S3150800B9104C4E8049116005F664644FF000084FF0FC
S3150800B92001224FF0000A4FF0704B4FF07E59314616
S3150800B93007F18800C4F80090C5F8502EC5F8542EB3
S3150800B940C5F8582EC3E900AB85F81C6E85F8286E35
S3150800B950A5F8486E85F84A6EA5F85C6E85F86C6E93
S3150800B960C7E90AABC7E90CABC7E91AABC7E91CAB11
S3150800B970C7E91EABC7E920ABC7F850806CF012F9CF
S3150800B980654BC5F8983E0121303307F1D800C5F854
S3150800B9909C3E6CF007F9614BC5F8E83E022130334E
S3150800B9A007F59470C5F8EC3E6CF0FCF85C4BC5F8EE
S3150800B9B0383F0321303307F5BC70C5F83C3F6CF0BF
S3150800B9C0F1F8584BC5F8883F3033C5F88C3F564BCD
S3150800B9D0C5F8D83F3033C5F8F43F05F6E473C5F823
S3150800B9E0DC6FC5F8E06FC5F8F06FC3F8008005F6A0
S3150800B9F0E87305F6EC7507F5F87407F5F470C3F8FF
S3150800BA000080C5F800806CF0AFF8484BA36480212D
S3150800BA1007F51E70C7E99CABC4E90A66C4E90C665B
S3150800BA20C4E90E662664C4F84C80C4F85080C4F88D
S3150800BA305480C4F85880C4F85C802666C4F86480CC
S3150800BA4033F0FCFF4FF40072314607F51E70C4F858
S3150800BA506880C4F86C80C4F87080C4F87480A667DF
S3150800BA6074F079FA4FF480238021C4F8883207F5F8
S3150800BA7095602F4BC4F89832C4E9A36684F8B4627B
S3150800BA8033F0DCFF07F5926044F0C4F9294B9FEDCB
S3150800BA902A6A93F822349FED297A07EE903AF8EE4F
S3150800BAA0E77AF1EE046A67EE867A07F5956067EE3F
S3150800BAB0877A87EEA67AFCEEC77A17EE901A33F0E5
S3150800BAC0BDFF1F4BC4F8C03407F6B82307F6C820D5
S3150800BAD0C3F80090C4F8D06844F09CF9BDEC028B1A
S3150800BAE0184A194B84F8C46884F8CC68C4F8E46822
S3150800BAF0C4F8E028C4F8E838BDE8F88F38400A08E2
S3150800BB0078400A08101E00109C410A0894400A084A
S3150800BB10B8410A080000C84250410A0850410A08BC
S3150800BB2050410A0850410A08B0400A08FC400A0871
S3150800BB3018410A08006D0010CDCC4C3D00007A442F
S3150800BB4014420A0834410A0814420A080000000090
S3150800BB5070B5234ED6F8883AD6F8184CA6F88C0A4B
S3150800BB60013382B00546C6F8883AACB1002306F51B
S3150800BB702A6001E0A3420FD01A010133815AA94273
S3150800BB80F8D1184C1444204644F044F9164802B03B
S3150800BB90BDE8704044F03EB904F008F9D6F8183C00
S3150800BBA0124A0190172B10D802EB031202F5D5445E
S3150800BBB09FED097B2584013384ED067B0198C6F841
S3150800BBC0183C183404F092FFDDE7019804F08EFF64
S3150800BBD0DCE700BFAFF3008000000000000000F0C3
S3150800BBE000600010986A0010906A001000000010AB
S3150800BBF02DE9F04F2DED068B0123DFED5BAA85B00D
S3150800BC000A24BFEE009AB8EE008AF6EE008A0646C7
S3150800BC101D4629EE08AADFED559A2AEE09AA4FEA2B
S3150800BC20450B32464FEA051AE800B7EE009A00219E
S3150800BC30871802F1040990460B46D7ED010A97EDDD
S3150800BC40000A69EE207A20EEE97AE9EE807A5B440A
S3150800BC50A9EE007AF4EE477AF1EE10FA58D698ED86
S3150800BC60016A59ED016A36EE676A76EEC76A87EDAC
S3150800BC70016AC7ED006A98ED016A59ED016A77EE27
S3150800BC80867A36EE877AB3F5806F09ED017A5744DE
S3150800BC90C8ED017AD144D044CFD369EE8A7A2AEE28
S3150800BCA0E97AE9EE2A7AAAEE097AB4EE677AF1EE2B
S3150800BCB010FA40D60131A94239EE079A79EEA79AC9
S3150800BCC002F10802B4D1013C1DD05846FCF700FD2C
S3150800BCD002460B4622A1D1E90001FCF79DFEFDF7BD
S3150800BCE049F809EE100A29EE280A70F0E5F8B0EED0
S3150800BCF040AAB0EE490A70F0DFF85D46B0EE4A9AFF
S3150800BD00F0EE40AA85E705B0BDEC068BBDE8F08FDE
S3150800BD10F0EE691AB0EE491ACDE90202CDE9003112
S3150800BD2073F03EFEDDE90202DDE90031B0EE407A4D
S3150800BD30F0EE607A93E7F0EE6A1AB0EE4A1AF0EE81
S3150800BD40690AB0EE490ACDE90102009173F028FEAE
S3150800BD50DDE901020099B0EE407AF0EE607AA9E7D3
S3150800BD6000000060FB2109C02EBDBB3300000000A7
S3150800BD702DE9F04FC84BC94CC949CA482DED068B69
S3150800BD80C3F82C44C84C1C600022C84CC3F8344481
S3150800BD90C3E90122C64C83F83024C64B0B60C1F8B0
S3150800BDA06446C54BC54C1A708125C1F85856636060
S3150800BDB0E360C34DC34B81F85C260026C249256063
S3150800BDC04FF07047C0E90067C04D0D606420C1E9B7
S3150800BDD00620086203F1280103F14000C3E90211B5
S3150800BDE01960586003F1200103F11800C3E9060041
S3150800BDF0C3E90811B648B7491A6100F128051A754A
S3150800BE004FF47A7C0B460560B34FC560C4F808C08A
S3150800BE1000F11804C0E9064400F1400600F12004C8
S3150800BE2043F8247BC0E90844C1E9022285604660DC
S3150800BE30026102750A7183B0A431FF2043F8102C01
S3150800BE4003F80C2C23F80A2C03F8082C03F8070C23
S3150800BE5003F8062C10339942F0D1A049A04BA14C07
S3150800BE60C3F89C4001F134001425C3F89450586176
S3150800BE70002444F620604FF07045C3E92A4519604E
S3150800BE80C3E9022298491A71C3E90622C3E92322A3
S3150800BE90C3F89800954B9648964C0860862581F815
S3150800BEA03C23C1F84823C1F83853C3F83853C1F8BE
S3150800BEB0444301259049C3F8485318608F4D83F8C9
S3150800BEC03C238720C1F8A8030520C3F84443C1E9E9
S3150800BED0ED508B4B81F8AC239FED698B894A0A603C
S3150800BEE0002703F5C0729F6083ED068BDF6083ED44
S3150800BEF0088B83ED0A8B1F6083ED0C8B1F6183ED26
S3150800BF000E8B83ED108B83ED128B83ED148B83EDF3
S3150800BF10168B60339342E6D17B4B7C4A1A607C4A87
S3150800BF205A60DA6017707B489FED7B9ADFF868B233
S3150800BF307A4E4FF47A6228219A606DF015FF784898
S3150800BF4025216DF011FF774859216DF00DFF7648D0
S3150800BF505A216DF009FF754B754824221A71232161
S3150800BF60744A1A606DF000FFFDF79AFB724BDFF812
S3150800BF702CC272491F7222221A71714ACCF82020EB
S3150800BF80C2E90077C2E9027717750022C3E90412ED
S3150800BF9003F128021A624FF021028CF80420694A3C
S3150800BFA01A609FED39AB684ACCF800209FED387BC4
S3150800BFB0664A1F7302F5005983F82C7083ED068BC9
S3150800BFC083ED0CAB6248634A83ED099A202100236E
S3150800BFD08CED047B8CF808708CF80C708CED068B55
S3150800BFE06DF0AEFE5C485B4A9FED5C0A4F2100236C
S3150800BFF06DF0A6FE514A5A4800231F216DF0A0FE97
S3150800C000584B4E4958481F720022C3E904124FF094
S3150800C0100C01197155491960F7EE009A1F7383EDE3
S3150800C020068B534B40F8043BF0EE690A6DF082FC30
S3150800C03066F0EEFB4F486DF07DFC4F4B4F4818609D
S3150800C040C3ED019A83ED029A83ED039A83ED049A70
S3150800C050C3ED059A4A4B4B484B4A83ED00AB4B4B15
S3150800C060212183ED00AB00236DF06AFE484B43485F
S3150800C0701860454A4748C3ED019A91E0AFF300803E
S3150800C080000000000000000000000000000000F0B2
S3150800C09000093D0000000000288F0120382D0A08FD
S3150800C0A000520020A03B002044300A08BC21012091
S3150800C0B03C2D0A082C300A08F0B00120ECAF01200C
S3150800C0C0482D0A0840DC0010FCAF012068300A0839
S3150800C0D080DC0010982A01207C300A08A4300A085F
S3150800C0E0884700208F1E1700C8CD001058CA0010B8
S3150800C0F008310A0884AB080838D100107CAB080858
S3150800C100082C0020EC300A08F8570120582D0A0898
S3150800C110C0DC00103026002000000000007D001062
S3150800C1208824002038250020E02400208CAC00203C
S3150800C130302400201C310A08A88C002080841E00A8
S3150800C140948D012038310A085C310A080000001075
S3150800C150D8200020801A0600B02000200000C8421F
S3150800C160C8220020A8220020A496012094280A08A4
S3150800C1707C310A08C4960120F0930120D4140A08D9
S3150800C18080480020E0250020400D03007848002064
S3150800C1901894012008260020349B00102846002009
S3150800C1A083ED029A83ED039A83ED049AC3ED059A0B
S3150800C1B0272100236DF0C4FDCB48CC4A3321002348
S3150800C1C06DF0BEFDCA48C94A352100236DF0B8FD99
S3150800C1D0C848C64A372100236DF0B2FDC64BC74A88
S3150800C1E0C7491960C3E90A771F721F731F6283F86C
S3150800C1F0247083ED068B83ED0C9AC24B1160C249FD
S3150800C20019604FF0260CBC4BDFF874E382F804C0C3
S3150800C2104FF0340C83F804C042F2046CB94BAEF804
S3150800C22004C04FF0270C8EF806C0CEF8001043F273
S3150800C230324E9FEDA97BA3F804E04FF0330E83F846
S3150800C24006E0AD4B1772C2E90A7782ED047B83EDEF
S3150800C250047B1773176282F8247082ED068BAB484D
S3150800C26082ED0C9A0521A14A00236DF069FDA848C4
S3150800C2709E4A312100236DF063FDA649A648086051
S3150800C280A648DFF800E30F720F734F6281ED068B45
S3150800C290A149077201600773476280ED068BA048C3
S3150800C2A0CEF80010ABF1800181609A49C0F804B05D
S3150800C2B09C4808629949CEF8200008629848DFF839
S3150800C2C0C8C28EF808700B4697490160914997488D
S3150800C2D08862013098628F498EF80C7001309FEDA4
S3150800C2E0807BCEF828004FF0290008718949CEF8DE
S3150800C2F024704FF02A0081ED047B18718C498CF864
S3150800C30008704FF02B0083ED047B8EF80400894BF0
S3150800C310894A4FF02C008EED047B8CF804008EEDD4
S3150800C320068B86488CF80C70CCF828100131996277
S3150800C3304FF02D0E013183F804E081624FF02E0E86
S3150800C3407F4980F804E07F4888607F487F4981609C
S3150800C3507A491F7281ED047B81ED068B6E491F7346
S3150800C36001F1240083ED047B5F621960186283ED96
S3150800C370068B724BCCF8001019607149CCF8247002
S3150800C3808CED047BCCF8200018628CED068B704887
S3150800C39008604FF0190C81F804C06B491F720860D9
S3150800C3A04FF01A001F735F6208716A4B6A481921B9
S3150800C3B0C2E901171A21D7605960684911601960E6
S3150800C3C02831116219624FF00101D76283F83810DB
S3150800C3D091854FF00101DF6299850021C2E90401C8
S3150800C3E0C3E90401C2E90977C2E90C77C3E9027710
S3150800C3F0C3E90977C3E90C7782F8387082ED068BB2
S3150800C40083ED068B64F06CFCDFF880E1544ACEF8C5
S3150800C41000200C212832DFF878C1524BCEF82C10B8
S3150800C420CEF820204FF003014F4A8EF804104FF043
S3150800C4300101F1EE007A8CF80410CCF800304FF4C4
S3150800C440FD6113602833CEED0C7A8EF808708EF8ED
S3150800C4500C70CEF82470CCF820301362CEF8281071
S3150800C4608EED048B8EED068B0F234FF0050E8CF8A0
S3150800C47008708CF80C70CCF82470D362CCF82810AD
S3150800C4803A4BCCF82CE08CED048B8CED068BCCED7E
S3150800C4900C9A4FF0020C82F804C017721773576291
S3150800C4A0916282ED048B82ED068BC2ED0C9A4FF4F5
S3150800C4B0FD629A622E4A9FED2F7A1A6028321A6216
S3150800C4C04FF00D0E0F229FED2C0A2C4883ED0C7AA7
S3150800C4D00E215FE0AFF3008000350C00000000007D
S3150800C4E0804F12000000000010490020400D030094
S3150800C4F090250020B8250020882D0020C02D00207A
S3150800C500A8310A08089401208C310A08088D0020F1
S3150800C510E08C0020788C0020D8310A08488C00204E
S3150800C520AC930120FC310A08C8310A0805030A0041
S3150800C53008030A00B88B0020D0480020888B00200A
S3150800C5408CB0012071AB060880B0012089AB0608C3
S3150800C5504C320A0890480020C0D4010010320A085C
S3150800C560E0320A08A4320A08E08A0020A88A0020D5
S3150800C57068320A083333234000004843E09100201C
S3150800C58010940120188C0020E88B0020508B002086
S3150800C590188B002083F804E01F721F735F62DA624B
S3150800C5A083ED048B83ED068B6DF0FCFBE2480F21CF
S3150800C5B06DF0F8FBE14811216DF0F4FB1221E0481B
S3150800C5C06DF0F0FBDF4BE048186090F82420DA485D
S3150800C5D05A73586090F82420DC489A734FF00D0E71
S3150800C5E083F80CE098601F7583ED049AD34AD84BFC
S3150800C5F0DFF8A4C31A6092F824205A73D04A5A6006
S3150800C600986092F82420D3489A734FF00F028CF85A
S3150800C61006108271D049016002464FF0100E1F7550
S3150800C62083F80CE083ED049A80ED029A80ED039A74
S3150800C63040F60D63C9489380C84ACCF8001041F209
S3150800C64010134FF0150EACF80430B0EE690A41F23B
S3150800C65013430160C2488CED029A14218CED039AAB
S3150800C660938082F806E082ED029A82ED039A6DF0D5
S3150800C67099FBBC4815216DF095FBBB4BB849196071
S3150800C68091F82420B7495A7391F824209A73B74A27
S3150800C6901F75B74F1760AD489FEDB60A9860132708
S3150800C6A059601F73B44883ED049A1D21162393809D
S3150800C6B06DF078FBB148B24F1E216DF073FB64F044
S3150800C6C02DFCB04AB04BB1494FF0030C4FF00100B6
S3150800C6D087F80CC010734FF0200CAD4883F80CC0D7
S3150800C6E018604FF0500C386008601060A94887F849
S3150800C6F004C0B86051270F71232788600F73522131
S3150800C7000024986090601171A6F6F87053221A7189
S3150800C7106BF070FA9022214606F1140073F01BFCA8
S3150800C7202022214606F1BC00C6E92A44C6E92D4462
S3150800C730C6F8A440C6F8B04073F00DFC2022214686
S3150800C74006F1DC0073F007FC4022214606F1FC00E6
S3150800C75073F001FC4022214606F5D270C6E954441E
S3150800C760C6E95844C6E95C44C6E96044C6E9644477
S3150800C770C6F84041C6F8484186F8A04186F8A34164
S3150800C780C6F83C41C6F84441C6F84C41C6F85C4177
S3150800C790C6F86C41C6F87C41C6F88C41A6F89E419D
S3150800C7A0A6F8A141C6F85841C6F86841C6F87841C6
S3150800C7B0C6F88841C6F89841A6F89C4173F0CBFBA9
S3150800C7C04022214606F5F27073F0C5FB4022214649
S3150800C7D006F5097073F0BFFB4022214606F519706D
S3150800C7E073F0B9FB2022214606F5297073F0B3FBD6
S3150800C7F02022214606F5317073F0ADFB2022214632
S3150800C80006F5397073F0A7FB2022214606F541701C
S3150800C81073F0A1FB2022214606F5497073F09BFBB5
S3150800C8202022214606F5517073F095FB20222146F9
S3150800C83006F5597073F08FFB2022214606F56170C4
S3150800C84073F089FB4022214606F57170C6E9EA4471
S3150800C850C6E9EE44C6F8A443C6F8B443C6F8B043DE
S3150800C860C6F8C04373F077FB2022214606F204403F
S3150800C87073F071FB2022214606F2244073F06BFB0D
S3150800C8804022214606F25440C6F84844C6F85044A9
S3150800C890C6F84444C6F84C4473F05DFB4022214672
S3150800C8A006F2AC40C6F89844C6F89444C6F89C44C8
S3150800C8B0C6F8A044C6F8A444C6F8A84473F04BFBCF
S3150800C8C04022214606F2FC40C6F8EC44C6F8F0447D
S3150800C8D0C6F8F444C6F8F84473F03DFB2022214616
S3150800C8E006F26450C6F84045C6F84845C6F85045AD
S3150800C8F0C6F85845C6F86045C6F83C45C6F84445E6
S3150800C900C6F84C45C6F85445C6F85C4573F023FB93
S3150800C9102022214606F2845073F01DFB2022214670
S3150800C92006F2AC50C6F8A845C6F8A44573F013FB42
S3150800C9302022214632E000BF989100205091002025
S3150800C9400891002074AC0020E091002038330A08D2
S3150800C9504CAC002064AC00201C330A0814AC002040
S3150800C960C09000207890002024AC0020309401204C
S3150800C97048280A0800007A4448210020002100209F
S3150800C98070B0012050B0012040B0012060B00120F5
S3150800C99054330A08000080BF3CAC002006F2D4508D
S3150800C9A0C6F8CC45C6F8D04573F0D5FA40222146DC
S3150800C9B0ABF5976073F0CFFA40222146ABF58F604E
S3150800C9C073F0C9FA40222146ABF5876073F0C3FAC3
S3150800C9D040222146ABF57E7073F0BDFA202221462F
S3150800C9E0ABF56E7073F0B7FA20222146ABF5667088
S3150800C9F073F0B1FA20222146ABF55E7006F5405574
S3150800CA0073F0A9FA06F58056ABF5567380222146CF
S3150800CA10ABF55470C6F8DC4A5C6073F09CFAABF56B
S3150800CA20347320222146ABF53070C6F8644BC3E94F
S3150800CA300144DC6073F08FFA4FF400722146ABF5BF
S3150800CA40287073F088FA20222146ABF1A00073F013
S3150800CA5082FA06F6B4508022214673F07CFA8022C8
S3150800CA602146584673F077FA202221460BF18000BA
S3150800CA7073F071FA4FF4007221460BF1A800C6F85C
S3150800CA80D44EC6F8D84E73F066FA202221460BF526
S3150800CA902A7073F060FA202221460BF5327073F083
S3150800CAA05AFA3C2221460BF53A7073F054FA4FF4C1
S3150800CAB0007221460BF5497073F04DFA2022214683
S3150800CAC00BF2245073F047FA202221460BF2445009
S3150800CAD073F041FA402221460BF2645073F03BFA98
S3150800CAE0A5F580510E46C1F8D843C1F8E84340225F
S3150800CAF021460BF2C450CBF8A845CBF8AC45CBF889
S3150800CB00B045CBF8B845CBF8BC45CBF8C04573F073
S3150800CB1022FA4FF4007221460BF22460C6F8384414
S3150800CB20C6F84844CBF80846CBF80C46CBF810466E
S3150800CB30CBF81846CBF81C46CBF8204673F00BFA10
S3150800CB40202221460BF6240073F005FA20222146FE
S3150800CB500BF6440073F0FFF94FF4007221460BF60A
S3150800CB60640073F0F8F9202221460BF6642073F06E
S3150800CB70F2F9202221460BF6842073F0ECF94FF4E3
S3150800CB80007221460BF6A42073F0E5F94FF4007203
S3150800CB9021460BF6A44073F0DEF996F8E43CC6F895
S3150800CBA0D84C23F00F0386F8E43CD6F8E43CA6F804
S3150800CBB0E24C03F00F034FF4807221460BF6B56082
S3150800CBC0C6F8E43C73F0C7F9202221460BF6B67086
S3150800CBD086F8E94D73F0BFF9202221460BF6D67088
S3150800CBE073F0B9F94FF4807221460BF6F870A6F87F
S3150800CBF02A4E73F0B0F92022214606F62C7073F0FF
S3150800CC00AAF92022214606F64C7073F0A4F94FF4CF
S3150800CC108072214606F66C7073F09DF94FF48072A7
S3150800CC20214605F18C00C5E91C44C5E92044EC669B
S3150800CC30EC67AC67C5F8884073F08DF94022214649
S3150800CC4005F5D670C5E96444C5E96844C5F88C415C
S3150800CC50C5F89C41C5F89841C5F8A84173F07BF919
S3150800CC605022214605F5037005F52078C5E97C4470
S3150800CC70C5E98044C5F8EC41C5F8FC41C5F8F8415A
S3150800CC80C5F8084273F067F9C022214605F52470F5
S3150800CC90C5E99844C5E99C44C5E99E44C5F88C4253
S3150800CCA0C5F85C42C5F86C42C5F88842C5F86842C2
S3150800CCB0C8E9004473F04FF9C022214605F55870BB
S3150800CCC0C5F85443C5F85C43C5F85043C5F85843FE
S3150800CCD073F041F92422214605F59860C5F83444D5
S3150800CCE0C5F83C44C5F84444C5F84C44C5F8544412
S3150800CCF0C5F85C44C5F86444C5F86C44C5F8744482
S3150800CD00C5F87C44C5F88C44C5F89444C5F89C44D9
S3150800CD10C5F82444C5F82844C5F82C44C5F8204469
S3150800CD20C5F83044C5F83844C5F84044C5F8484401
S3150800CD30C5F85044C5F85844C5F86044C5F8684471
S3150800CD40C5F87044C5F87844C5F88844C5F89044D1
S3150800CD50C5F89844C8E98044C5F8A044C5F8A44471
S3150800CD60C5F8AC44C5F8B444C5F8BC44C5F8A844ED
S3150800CD70C5F8B044C5F8B84473F0EDF82422214646
S3150800CD8005F59E60A5F8E844A5F8EE44C5F8E44420
S3150800CD90C5F8EA4473F0DFF82022214605F5A460B9
S3150800CDA0A5F81845A5F81E45C5F81445C5F81A4549
S3150800CDB073F0D1F82022214605F5AA60C5F8444546
S3150800CDC0C5F84C45C5F84045C5F8484573F0C3F85D
S3150800CDD02022214608F54070C5F87445C5F87C45FB
S3150800CDE0C5F87045C5F8784573F0B5F84FF4BC72C8
S3150800CDF0214605F5B660C5F8A445C5F8AC45C5F89D
S3150800CE00A045C5F8A84573F0A6F84FF43C7221462C
S3150800CE1005F5E56073F09FF84FF4BC72214605F6F8
S3150800CE204820C5F8184AC5F8304AC5F81C4AC5F856
S3150800CE30204AC5F8244AC5F8284AC5F82C4AC5F830
S3150800CE40344AC5F8384AC5F83C4AC5F8404AC5F8D0
S3150800CE50444A73F080F84FF4BC72214605F53C60ED
S3150800CE6073F079F82422214605F56660C5F8384D31
S3150800CE70C5F8504DC5F83C4DC5F8404DC5F8444D6C
S3150800CE80C5F8484DC5F84C4DC5F8544DC5F8584D2C
S3150800CE90C5F85C4DC5F8604DC5F8644DC5F86C4DD0
S3150800CEA0C5F8704DC5F8744DC5F8784DC5F87C4D74
S3150800CEB0C5F89C4DC5F8A04DC5F8A44DC5F8A84DB4
S3150800CEC0C5F8AC4DC5F8B44DC5F8684DC5F8984DCC
S3150800CED0C5F8B04DC8F8004BC8F8044BC8F8084B5D
S3150800CEE0C8F80C4BC8F8104BC8F8144BC5F8B84D21
S3150800CEF0C5F8BC4DC5F8C04DC5F8C44DC5F8CC4DF0
S3150800CF00C5F8D04DC5F8D44DC5F8D84DC5F8DC4D93
S3150800CF10C5F8E44DC5F8E84DC5F8EC4DC5F8F04D33
S3150800CF20C5F8F44DC5F8FC4DC5F8004EC5F8044ED5
S3150800CF30C5F8084EC5F80C4EC5F8144EC5F8184E77
S3150800CF40C5F81C4EC5F8204EC5F8244EC5F82C4E1B
S3150800CF50C5F8304EC5F8344EC5F8384EC5F8C84D34
S3150800CF60C5F8E04DC5F8F84DC5F8104EC5F8284E79
S3150800CF70C5F83C4EC5F8544EC5F85C4EC5F8404E4B
S3150800CF80C5F8504EC5F8584EC5F8444EC5F8484E33
S3150800CF90C5F84C4E72F0DFFF4022214605F6C46004
S3150800CFA0C5F8A04EC5F8A84EC5F8B04EC5F8B84E97
S3150800CFB0C5F8C04EC5F8844EC5F8904EC5F89C4EC7
S3150800CFC0C5F8A44EC5F8AC4EC5F8B44EC5F8BC4E67
S3150800CFD0C5F8884EC5F88C4EC5F8944EC5F8984ED7
S3150800CFE072F0B9FF4022214605F6047072F0B3FFCD
S3150800CFF04022214605F65470C5F8484FC5F8504FEB
S3150800D000C5F8444FC5F84C4F72F0A5FF402221469B
S3150800D01005F6947072F09FFF05F6FE7508F5586AD6
S3150800D020C822214608F68E5045F8284C45F8244C67
S3150800D03045F8204C45F81C4C45F8184C45F8144C56
S3150800D04045F8104C45F80C4C45F8084C45F8044C86
S3150800D0502C606C60AC60EC6072F07DFF6422214647
S3150800D06008F67E60CAF8D640CAF8EA40C8F85A4EAA
S3150800D070C8F85E4EC8F8624EC8F8664EC8F86E4ED6
S3150800D080C8F8724EC8F8764EC8F87A4E72F063FF42
S3150800D0902022214608F60A70CAF86241CAF8764183
S3150800D0A0C8F8E64EC8F8EA4EC8F8EE4EC8F8F24E8A
S3150800D0B0C8F8FA4EC8F8FE4EC8F8024FC8F8064F28
S3150800D0C072F049FF2022214608F6C470CAF8AA4120
S3150800D0D0CAF8DE41CAF8C241CAF8CA41CAF8D641F6
S3150800D0E0CAF8EE41CAF8F641CAF8FE41CAF806423D
S3150800D0F0CAF80E42CAF81642CAF81E42C8F82E4F97
S3150800D100C8F8324FC8F8364FCAF8BA41CAF8BE410D
S3150800D110C8F8464FC8F84E4FCAF8D241C8F85A4F11
S3150800D120C8F8624FC8F8664FC8F86A4FC8F8724F11
S3150800D130C8F87A4FC8F8824FC8F88A4FC8F8924F8D
S3150800D140C8F89A4FC8F8A24FCAF82642C8F8AA4F94
S3150800D150CAF82E42CAF83642C8F8B24FC8F8BA4FCB
S3150800D160AAF83E4272F0F7FE08F5845308F6F47200
S3150800D170C8F8F84FC8F8FC4F2146CAF874420AF5B1
S3150800D1804970C2E903444FF4BC72C8F8E84FC8F8BE
S3150800D190F04FCAE9A344CAE9A544CAE9A844CAE9BA
S3150800D1A0AA44CAE9AD44CAE9AF44CAE9B244CAE9DD
S3150800D1B0B444CAE9B744CAF86442CAF86C42CAF821
S3150800D1C08842CAF89C42CAF8B042CAF8C442CAF8A9
S3150800D1D0D842CAE9B944C3E90044C3E902441C6118
S3150800D1E0CAE9BC44CAE9BE44CAF81843CAF8204387
S3150800D1F0CAF8EC42CAF81443CAF81C4372F0ABFEEC
S3150800D200A9F500531A464FF0010083F8480083ED4C
S3150800D21006AB83ED0EAB83ED10AB9C8483F82C40F4
S3150800D2205C639C4B13609C4B93600AF59763CAF842
S3150800D230AC44CAF8B04483ED009A08F5925383EDDE
S3150800D240009A0AF2C44383ED009A0AF5996383EDBE
S3150800D250009A0AF59A6383ED009A0AF2D4431546B2
S3150800D26083ED009A4FF08073C2F82D30CAF8A044B7
S3150800D270CAF89C44CAF8A444CAF8B444CAF8BC44D8
S3150800D280CAF8CC44CAF8D844CAF8E844CAF8EC4400
S3150800D290CAF8A844CAF8DC44CAF8E044CAF8E44420
S3150800D2A06AF03AFB7D4BC5F8E4337D4BC5F8443448
S3150800D2B07C4BC5F8203440F20113A5F8D83305F5A0
S3150800D2C0816383ED009A05F20C4383ED009A05F518
S3150800D2D0826383ED009A05F2244383ED009A05F5EF
S3150800D2E0856383ED009A05F22C4383ED009A05F5D4
S3150800D2F0866383ED009A05F2344383ED009A05F5BB
S3150800D300876383ED009A05F23C4383ED009A05F5A1
S3150800D3108863C5F8E04385F8DA43C5F8DC4385ED4C
S3150800D320FA9A85EDFB9A85EDFC9A85EDFD9A85EDD1
S3150800D330FE9AC5F8FC43C5F80044C5F80444C5F888
S3150800D3401444C5F8184483ED009AFDF7E5FF564BDB
S3150800D350C9F8F0380133C9F8F83805F6E423C9F8EE
S3150800D3600039524BA9F8F448A9F8FC48A9F8044929
S3150800D37003F1600225461D701D815B600C339342E4
S3150800D380F9D1B9F8B4394A4CC9F8685923F4FF43B6
S3150800D39023F07F03A9F8B439D9F87839C9F86C5954
S3150800D3A003F06043C9F87839D9F8B439C9F8885907
S3150800D3B009F51762C3F30E03C9F8B43900231360DD
S3150800D3C03C4AC9F8B029002289F87B2909F68C124B
S3150800D3D0A44613600122C9F8902909F6941200267A
S3150800D3E0136009F69C124FF07047136009F6C812CD
S3150800D3F0ECE80C67136009F6CC124CE90267136077
S3150800D40009F51D62C4E91067136009F6E412C9F844
S3150800D4109859136009F6E812C9F8A059136009F675
S3150800D420EC12C9F8B8591360C9F8D459C9F8D859CB
S3150800D430C9F8DC59C9F8E059D9F8F0691E4BC9F89A
S3150800D440F8394FF4A06206F07F43002109F624203C
S3150800D45020260027C9F8F039C4E92667C9F8F4591F
S3150800D46089F8F359C9F8FC59C9F8005AC9F8045A91
S3150800D470C9F80C5AC9F8105AC9F8205A72F06BFD47
S3150800D480002504F1A40204F2A45104F5B26013467F
S3150800D4902C4616E0B0340A08682D0A0898340A089B
S3150800D4A0546D001070330A08026A0010082900102B
S3150800D4B08029001080340A08C8330A0814339942B0
S3150800D4C00AD09342FAD38342F8D81C601C46143318
S3150800D4D099424FF00105F4D10DB1C9F8204AE44B41
S3150800D4E0A3F53D510022A1F8102389F8282F03F54A
S3150800D4F0D870002103F8102C23F80F2C43F80C1CC5
