S01400006275696C642F7275736566692E7372656343
S3150800800010100020B9830008F9D10208F983000886
S315080080101D840008F88300080B840008F7B883E17C
S3150800802078C50900B3830008B383000881280108CE
S31508008030B3830008B3830008B38300083D380108FA
S31508008040B3830008B383000821370108993701086C
S31508008050B3830008B3830008D1810408D9810408D2
S31508008060E1810408E9810408F1810408752C0108F6
S31508008070AD2C0108E92C0108252D0108612D010800
S31508008080992D0108D52D0108FD280108552B010851
S31508008090792B01089D2B0108C12B0108F9810408D9
S315080080A0B38300086D3A0108B3830008913A0108C2
S315080080B029390108953A0108B93A010835810408B1
S315080080C0B3830008253001085D310108B383000831
S315080080D0B3830008B3830008C93C0108ED3C0108D6
S315080080E01D820408E1370108B3830008B38300083A
S315080080F0013B0108B3830008253B0108112E01083E
S31508008100B3830008B3830008DD3A0108B383000887
S31508008110B3830008B3830008C9380108B38300088D
S315080081204D2E0108852E0108C12E0108FD2E0108D5
S31508008130392F0108B3830008B3830008E52B01082B
S31508008140092C01082D2C0108512C0108753201084B
S31508008150712F0108AD2F0108E92F0108293B0108F5
S31508008160B3830008B3830008B3830008B383000809
S31508008170B3830008B3830008B3830008B3830008F9
S31508008180B3830008B3830008B3830008B3830008E9
S31508008190B3830008B3830008B3830008B3830008D9
S315080081A0B3830008B3830008B3830008B3830008C9
S315080081B0B3830008B3830008B3830008B3830008B9
S315080081C0B3830008B3830008B3830008B3830008A9
S315080081D0B3830008B3830008B3830008B383000899
S315080081E041B5000859AE070800000000000000006D
S315080081F001F0FF01102A2BDB10F0070F08D010F84A
S31508008200013B013A8B422DD010F0070F42B3F6D14D
S31508008210F0B441EA012141EA014122F007047FF066
S3150800822000070023F0E80256083C85EA010586EABD
S31508008230010685FA47F5A3FA87F586FA47F6A5FAF9
S3150800824087F68EB9EED1F0BC01F0FF0102F0070205
S3150800825032B110F8013B013A83EA010313B1F8D1B0
S315080082600020704701387047002D06BF3546033891
S31508008270073815F0010F07D1013015F4807F02BFCA
S31508008280013015F4C03F0130F0BC0138704700BF1B
S3150800829072B6394880F30888384880F30988384820
S315080082A04EF60851CEF20001086040F20000CCF20A
S315080082B000004EF63471CEF200010860BFF34F8F0E
S315080082C0BFF36F8F40F20000C0F2F0004EF68851FF
S315080082D0CEF200010860BFF34F8FBFF36F8F4FF0E8
S315080082E00000E1EE100A4EF63C71CEF2000108607D
S315080082F0062080F31488BFF36F8F06F0F5FB23F092
S3150800830017F84FF055301F491B4A91423CBF41F8B8
S31508008310040BFAE71C49194A91423CBF41F8040B81
S31508008320FAE71A491A4A1B4B9A423EBF51F8040B00
S3150800833042F8040BF8E700201749184A91423CBF57
S3150800834041F8040BFAE706F0D3FB47F033F8144C70
S31508008350144DAC4203DA54F8041B8847F9E76DF06C
S3150800836043F9114C114DAC4203DA54F8041B884703
S31508008370F9E706F0BBBB000010100020101600201D
S3150800838000800008100000201010002030410A0864
S3150800839010160020581A0020581A0020D818022053
S315080083A0E0810008E4810008E4810008E88100080B
S315080083B06EE700F000F8FEE70A480B49026800601D
S315080083C08A4201D0FFF764FF08484FF480410160F4
S315080083D007484FF0010101600648D0F800D0406810
S315080083E000470000F0FF0120EFBEADDE4438024032
S315080083F0003801400000FF1F1EF0040F0CBFEFF30A
S315080084000880EFF3098024F0FBBE1EF0040F0CBFB2
S31508008410EFF30880EFF3098024F03ABF1EF0040F4B
S315080084200CBFEFF30880EFF3098024F07DBF00BF8F
S31508008430EC46A0E8F05F4FF000007047B0E8F05F48
S31508008440E546080008BF0120704700BF81F00041DB
S3150800845002E000BF83F0004330B54FEA41044FEA1B
S31508008460430594EA050F08BF90EA020F1FBF54EAB6
S31508008470000C55EA020C7FEA645C7FEA655C00F052
S31508008480E2804FEA5454D4EB5555B8BF6D420CDD23
S315080084902C4480EA020281EA030382EA000083EAA6
S315080084A0010180EA020281EA0303362D88BF30BD46
S315080084B011F0004F4FEA01314FF4801C4CEA11319C
S315080084C002D0404261EB410113F0004F4FEA0333FB
S315080084D04CEA133302D0524263EB430394EA050F86
S315080084E000F0A780A4F10104D5F1200E0DDB02FAF5
S315080084F00EFC22FA05F2801841F1000103FA0EF289
S31508008500801843FA05F359410EE0A5F120050EF14E
S31508008510200E012A03FA0EFC28BF4CF0020C43FA7F
S3150800852005F3C01851EBE37101F0004507D54FF08C
S31508008530000EDCF1000C7EEB00006EEB0101B1F5DC
S31508008540801F1BD3B1F5001F0CD349085FEA300022
S315080085504FEA3C0C04F101044FEA445212F5800F2D
S3150800856080F09A80BCF1004F08BF5FEA500C50F1CA
S31508008570000041EB045141EA050130BD5FEA4C0CAD
S31508008580404141EB0101013C28BFB1F5801FE9D20A
S3150800859091F0000F04BF01460020B1FA81F308BF2D
S315080085A02033A3F10B03B3F120020CDA0C3208DDF9
S315080085B002F1140CC2F10C0201FA0CF021FA02F1D4
S315080085C00CE002F11402D8BFC2F1200C01FA02F144
S315080085D020FA0CFCDCBF41EA0C019040E41AA2BF69
S315080085E001EB0451294330BD6FEA04041F3C1CDA31
S315080085F00C340EDC04F11404C4F1200220FA04F051
S3150800860001FA02F340EA030021FA04F345EA0301FA
S3150800861030BDC4F10C04C4F1200220FA02F001FABC
S3150800862004F340EA0300294630BD21FA04F029463E
S3150800863030BD94F0000F83F4801306BF81F48011D7
S315080086400134013D4EE77FEA645C18BF7FEA655C4A
S3150800865029D094EA050F08BF90EA020F05D054EA1C
S31508008660000C04BF1946104630BD91EA030F1EBF21
S315080086700021002030BD5FEA545C05D14000494125
S3150800868028BF41F0004130BD14F580043CBF01F518
S31508008690801130BD01F0004545F0FE4141F47001FE
S315080086A04FF0000030BD7FEA645C1ABF19461046D9
S315080086B07FEA655C1CBF0B46024650EA013406BFDA
S315080086C052EA033591EA030F41F4002130BD00BF99
S315080086D090F0000F04BF0021704730B54FF4806456
S315080086E004F132044FF000054FF0000150E700BFD7
S315080086F090F0000F04BF0021704730B54FF4806436
S3150800870004F1320410F0004548BF40424FF0000122
S315080087103EE700BF42004FEAE2014FEA31014FEA65
S3150800872002701FBF12F07F4393F07F4F81F06051B4
S31508008730704732F07F4208BF704793F07F4F04BFFF
S3150800874041F40021704730B54FF4607401F00045DC
S3150800875021F000411CE700BF50EA010208BF70473C
S3150800876030B54FF000050AE050EA010208BF70472D
S3150800877030B511F0004502D5404261EB41014FF496
S31508008780806404F132045FEA915C3FF4D8AE4FF09E
S3150800879003025FEADC0C18BF03325FEADC0C18BF81
S315080087A0033202EBDC02C2F1200300FA03FC20FAD2
S315080087B002F001FA03FE40EA0E0021FA02F114441F
S315080087C0BDE600BF70B54FF0FF0C4CF4E06C1CEA38
S315080087D011541DBF1CEA135594EA0C0F95EA0C0FA9
S315080087E000F0DEF82C4481EA030621EA4C5123EA1C
S315080087F04C5350EA013518BF52EA033541F480114B
S3150800880043F4801338D0A0FB02CE4FF00005E1FBFD
S3150800881002E506F00042E0FB03E54FF00006E1FB47
S3150800882003569CF0000F18BF4EF0010EA4F1FF048A
S31508008830B6F5007F64F5407404D25FEA4E0E6D41CA
S3150800884046EB060642EAC62141EA55514FEAC520DB
S3150800885040EA5E504FEACE2EB4F1FD0C88BFBCF557
S31508008860E06F1ED8BEF1004F08BF5FEA500E50F108
S31508008870000041EB045170BD06F0004646EA0101CE
S3150800888040EA020081EA0301B4EB5C04C2BFD4EB00
S315080088900C0541EA045170BD41F480114FF0000EF9
S315080088A0013C00F3AB8014F1360FDEBF002001F067
S315080088B0004170BDC4F10004203C35DA0C341BDCE1
S315080088C004F11404C4F1200500FA05F320FA04F0B3
S315080088D001FA05F240EA020001F0004221F00041E7
S315080088E010EBD37021FA04F642EB06015EEA430E5A
S315080088F008BF20EAD37070BDC4F10C04C4F120058A
S3150800890000FA04F320FA05F001FA04F240EA02003C
S3150800891001F0004110EBD37041F100015EEA430E0D
S3150800892008BF20EAD37070BDC4F1200500FA05F22D
S315080089304EEA020E20FA04F301FA05F243EA0203AC
S3150800894021FA04F001F0004121FA04F220EA0200BB
S3150800895000EBD3705EEA430E08BF20EAD37070BD01
S3150800896094F0000F0FD101F00046400041EB0101E1
S3150800897011F4801F08BF013CF7D041EA060195F0C3
S31508008980000F18BF704703F00046520043EB03037D
S3150800899013F4801F08BF013DF7D043EA060370476A
S315080089A094EA0C0F0CEA135518BF95EA0C0F0CD075
S315080089B050EA410618BF52EA4306D1D181EA0301BB
S315080089C001F000414FF0000070BD50EA410606BFB5
S315080089D01046194652EA430619D094EA0C0F02D1FA
S315080089E050EA013613D195EA0C0F05D152EA03363F
S315080089F01CBF104619460AD181EA030101F000415D
S31508008A0041F0FE4141F470014FF0000070BD41F0A5
S31508008A10FE4141F4780170BD70B54FF0FF0C4CF47F
S31508008A20E06C1CEA11541DBF1CEA135594EA0C0F9E
S31508008A3095EA0C0F00F0A7F8A4EB050481EA030EEB
S31508008A4052EA03354FEA013100F088804FEA0333D2
S31508008A504FF0805545EA131343EA12634FEA0222A0
S31508008A6045EA111545EA10654FEA00260EF0004161
S31508008A709D4208BF964244F1FD0404F5407402D2B3
S31508008A805B084FEA3202B61A65EB03055B084FEA44
S31508008A9032024FF480104FF4002CB6EB020E75EB41
S31508008AA0030E22BFB61A754640EA0C005B084FEA69
S31508008AB03202B6EB020E75EB030E22BFB61A7546E6
S31508008AC040EA5C005B084FEA3202B6EB020E75EB31
S31508008AD0030E22BFB61A754640EA9C005B084FEAA9
S31508008AE03202B6EB020E75EB030E22BFB61A7546B6
S31508008AF040EADC0055EA060E18D04FEA051545EAA5
S31508008B0016754FEA06164FEAC30343EA52734FEA4D
S31508008B10C2025FEA1C1CC0D111F4801F0BD141EAC6
S31508008B2000014FF000004FF0004CB6E711F4801F2B
S31508008B3004BF01430020B4F1FD0C88BFBCF5E06F0B
S31508008B403FF6AFAEB5EB030C04BFB6EB020C5FEA1B
S31508008B50500C50F1000041EB045170BD0EF0004E70
S31508008B604EEA113114EB5C04C2BFD4EB0C0541EAA2
S31508008B70045170BD41F480114FF0000E013C90E69F
S31508008B8045EA060E8DE60CEA135594EA0C0F08BF63
S31508008B9095EA0C0F3FF43BAF94EA0C0F0AD150EA62
S31508008BA001347FF434AF95EA0C0F7FF425AF1046F5
S31508008BB019462CE795EA0C0F06D152EA03353FF41D
S31508008BC0FDAE1046194622E750EA410618BF52EA9A
S31508008BD043067FF4C5AE50EA41047FF40DAF52EA6E
S31508008BE043057FF4EBAE12E74FF0FF3C06E000BF0B
S31508008BF04FF0010C02E000BF4FF0010C4DF804CD18
S31508008C004FEA410C7FEA6C5C4FEA430C18BF7FEAD7
S31508008C106C5C1BD001B050EA410C0CBF52EA430C05
S31508008C2091EA030F02BF90EA020F0020704710F185
S31508008C30000F91EA030F58BF994208BF90422CBF14
S31508008C40D8176FEAE37040F0010070474FEA410C0D
S31508008C507FEA6C5C02D150EA013C07D14FEA430C2B
S31508008C607FEA6C5CD6D152EA033CD3D05DF8040B9C
S31508008C70704700BF8446104662468C4619466346CE
S31508008C8000E000BF01B5FFF7B7FF002848BF10F1A5
S31508008C90000F01BD4DF808EDFFF7F4FF0CBF0120EA
S31508008CA000205DF808FB00BF4DF808EDFFF7EAFF66
S31508008CB034BF012000205DF808FB00BF4DF808ED21
S31508008CC0FFF7E0FF94BF012000205DF808FB00BF16
S31508008CD04DF808EDFFF7CEFF94BF012000205DF8A0
S31508008CE008FB00BF4DF808EDFFF7C4FF34BF0120AD
S31508008CF000205DF808FB00BF4FEA410C7FEA6C5C78
S31508008D0002D150EA013C0AD14FEA430C7FEA6C5C77
S31508008D1002D152EA033C02D14FF0000070474FF0EF
S31508008D20010070474FEA410212F5001215D211D51B
S31508008D306FF47873B3EB625212D94FEAC12343F04A
S31508008D40004343EA505311F0004F23FA02F018BFCC
S31508008D50404270474FF00000704750EA013005D195
S31508008D6011F0004008BF6FF0004070474FF0000058
S31508008D70704700BF4FEA4102B2F1E04324BFB3F5A2
S31508008D80001CDCF1FE5C0DD901F0004C4FEAC00274
S31508008D904CEA5070B2F1004F40EB830008BF20F058
S31508008DA00100704711F0804F21D113F13872BCBF12
S31508008DB001F00040704741F480114FEA5252C2F167
S31508008DC01802C2F1200C10FA0CF320FA02F018BFB0
S31508008DD040F001004FEAC1234FEAD32303FA0CFC03
S31508008DE040EA0C0023FA02F34FEA4303CCE77FEA92
S31508008DF0625307D150EA01331EBF4FF0FE4040F4DC
S31508008E004000704701F0004040F0FE4040F400008A
S31508008E10704700BF80F0004002E000BF81F00041CB
S31508008E2042001FBF5FEA410392EA030F7FEA226C02
S31508008E307FEA236C6AD04FEA1262D2EB1363C1BF92
S31508008E40D218414048404140B8BF5B42192B88BF01
S31508008E50704710F0004F40F4000020F07F4018BF24
S31508008E60404211F0004F41F4000121F07F4118BF44
S31508008E70494292EA030F3FD0A2F1010241FA03FCEC
S31508008E8010EB0C00C3F1200301FA03F100F00043D4
S31508008E9002D5494260EB4000B0F5000F13D3B0F19C
S31508008EA0807F06D340084FEA310102F10102FE2A0B
S31508008EB051D2B1F1004F40EBC25008BF20F001007B
S31508008EC040EA03007047490040EB0000013A28BF1A
S31508008ED0B0F5000FEDD2B0FA80FCACF1080CB2EB9D
S31508008EE00C0200FA0CF0AABF00EBC250524218431B
S31508008EF0BCBFD0401843704792F0000F81F40001C0
S31508008F0006BF80F400000132013BB5E74FEA410392
S31508008F107FEA226C18BF7FEA236C21D092EA030FFE
S31508008F2004D092F0000F08BF0846704790EA010F78
S31508008F301CBF0020704712F07F4F04D1400028BFA5
S31508008F4040F00040704712F100723CBF00F5000087
S31508008F50704700F0004343F0FE4040F400007047BD
S31508008F607FEA226216BF08467FEA23630146420269
S31508008F7006BF5FEA412390EA010F40F4800070477C
S31508008F804FF0000304E000BF10F0004348BF404222
S31508008F905FEA000C08BF704743F0964301464FF05E
S31508008FA000001CE050EA010208BF70474FF00003BA
S31508008FB00AE000BF50EA010208BF704711F00043FB
S31508008FC002D5404261EB41015FEA010C02BF8446CB
S31508008FD00146002043F0B64308BFA3F18053A3F52A
S31508008FE00003BCFA8CF2083AA3EBC25310DB01FA71
S31508008FF002FC634400FA02FCC2F12002BCF1004FF5
S3150800900020FA02F243EB020008BF20F00100704785
S3150800901002F1200201FA02FCC2F1200250EA4C00D9
S3150800902021FA02F243EB020008BF20EADC7070471F
S315080090307BB972B90029BEBF00204FF0004106E097
S3150800904008BF00281CBF6FF000414FF0FF3000F04A
S3150800905057B8ADF1080C6DE904CE002909DB002BE1
S315080090601ADB76F0EDFADDF804E0DDE9022304B058
S315080090707047404261EB4101002B1BDB76F0E0FABA
S31508009080DDF804E0DDE9022304B0404261EB41016A
S31508009090524263EB43037047524263EB430376F055
S315080090A0CFFADDF804E0DDE9022304B0404261EBC3
S315080090B041017047524263EB430376F0C1FADDF88B
S315080090C004E0DDE9022304B0524263EB4303704730
S315080090D053B94AB9002908BF00281CBF4FF0FF3111
S315080090E04FF0FF3000F00CB8ADF1080C6DE904CE76
S315080090F076F0A6FADDF804E0DDE9022304B070474D
S31508009100704700BF2DE9F04F2DED108AC1F80CD03D
S31508009110C3689D46BDEC108ABDE8F08F05F06AFE6F
S31508009120002383F311882846A047002007F05AF940
S31508009130FEE705F0F7FF07F0CDF805F05BFE00DF68
S31508009140FEE710F8012B11F8013B012A28BF9A42C5
S31508009150F7D0D01A7047034613F8012B002AFBD123
S31508009160181A01387047000070B586B00C461146CB
S315080091701A46114B0093054674B1631ECDE90103E7
S3150800918000266846CDE903660AF0C2FD039BA342A2
S3150800919000D2EE5406B070BD9FED057B019068467F
S315080091A08DED027B04940AF0B3FD06B070BD00BFD6
S315080091B00000000000000000E402080800000000AB
S315080091C02DE9F04759EC108B3D4B002240464946A5
S315080091D0FFF77EFD002867D035A5D5E90045384F4D
S315080091E04FF0000A00260CE0FFF716FC8046894679
S315080091F032463B46404649460AF1050AFFF768FDEE
S31508009200E8B1494622462B464046FFF761FD8446AB
S3150800921022462B4640464946BCF1000FE4D1324669
S315080092203B46FFF7F9FB8046894632463B464046B1
S3150800923049460AF1010AFFF74BFD0028E1D1214B07
S31508009240002240464946FFF72FFD50B31AA5D5E937
S31508009250004517A7D7E900670CE0FFF7B3FAAAF1AC
S31508009260050A80468946174B002240464946FFF7BD
S315080092701BFDB0B1494622462B464046FFF714FD72
S31508009280844632463B4640464946BCF1000FE4D187
S315080092900B4B0022FFF796FA0AF1FF3A80468946F9
S315080092A0E1E75046BDE8F0878246C8E7AFF300809D
S315080092B000000000006AF84000000080B5F8E43EAF
S315080092C0000024400000F03F2DE9F047B0F1000A05
S315080092D02D4D4FF0000426DD29A7D7E90067DFF8F2
S315080092E0AC904FF00008BAF1040F204629463246E2
S315080092F03B460CDDFFF766FAAAF1050A04460D4659
S31508009300BAF1000FEFD145EC104BBDE8F0874246A5
S315080093104B46FFF757FA0AF1FF3A04460D46BAF1EB
S31508009320000FE0D1EFE7EED015A7D7E900671AF1ED
S31508009330040FDFF858904FF00008204629463246B9
S315080093403B460FDAFFF768FB0AF1050A04460D46A5
S31508009350BAF1000FD7D01AF1040F20462946324633
S315080093603B46EFDB42464B46FFF756FB0AF1010A3E
S3150800937004460D46BAF1000FEDD1C4E7AFF30080FD
S3150800938000000000006AF8400000F03F000024409A
S3150800939070B5C66984B0044630460D4612F0D6FC50
S315080093A0204612F0C5F9204612F010FA9FED087B08
S315080093B003462946304607246A468DED027B8DF81A
S315080093C00040019312F04EFD04B070BDAFF300806B
S315080093D0FFFFFFFFFFFFFFFF2DE9F04FC768C669D4
S315080093E0D0F804802DED028B282F87B004460D4651
S315080093F072D040F223139F4240F0858012F0BAFFE4
S315080094009FED438B4FF0070A4FF00809E3683A2BA4
S3150800941014D008DD5B2B51D05A2B40DC07B0BDECCD
S31508009420028BBDE8F08F282B3ED02E2BF6D129468D
S315080094302046FFF7ADFFE3683A2BEAD1204612F043
S3150800944077F9204612F0C2F92946039030468DED89
S31508009450048B8DF808A012F057FC2B78D5F804B0C9
S31508009460082B4BD096F834706F600221304685F889
S31508009470009011F0F3F9BA1C02A986F834205B466D
S3150800948000913A461421304612F07AFC9DF80830CD
S31508009490082B0DD10399304670F082FC08E07B2B2F
S315080094A002D0B3F5927FB9D12946304612F00EFCA8
S315080094B042462946204613F0B7FDA7E72946304617
S315080094C012F044FC02A9204612F034FE02AA2946EC
S315080094D0304612F0C7FC99E712F02AF9294600220D
S315080094E0204614F0B7F9204643463A46292112F099
S315080094F043F9E069294612F0F9F981E759463046F9
S3150800950070F04EFCAEE7044911F040F9AFF3008065
S31508009510FFFFFFFFFFFFFFFFCC1008080000000059
S315080095200D4B9FED0B7B03F6080C03F61401002286
S315080095300020CCF800200A6003F5026202ED027BE7
S31508009540C3F80408C3F81008C3F82008704700BF1A
S3150800955000000000000000000000001000000000ED
S3150800956030B5012285B00C21044610F0CDFAE0B1E1
S315080095709FED117B0246124B043280ED017B02609F
S315080095800FCB6D4685E80F000E4B0F491A6820462B
S315080095900DF00CFD00222946204620F02FFA204621
S315080095A06FF07CFC012005B030BD20460DF0A8FC0C
S315080095B0012005B030BD00BF00000000000000F02B
S315080095C09CFE070800A70020D8B9F0FF000000009D
S315080095D010B590F8E03090F8DCC0174C83F0010322
S315080095E063F3000C80F8DCC04FF48C62002120463F
S315080095F076F0A1F94FF4F072002104F2644076F097
S315080096009AF90E4B9FED0A7B03F50F5203F50053AB
S3150800961082ED027B03F6DC6003F56E62002100240E
S31508009620C3F898480160116010BD00BFAFF3008011
S3150800963000000000000000F03824001000000010B0
S315080096409FED116BD0ED0F7A80ED030AB5EEC00AD7
S315080096500123F1EE10FA80ED066BC0ED097A80ED74
S315080096600F0A03720BD9DFED0A6A86EE807AF5EEE9
S31508009670407AF1EE10FA80ED0A7A03D07047054B6E
S315080096808362704768F03ABD0000000000000000E1
S31508009690ABC222480000C07FD0B5554C554E0027B6
S315080096A0204632463B463F2170F03AF804F128003E
S315080096B032463B46402170F033F804F150003246FA
S315080096C03B46412170F02CF804F1780032463B46BF
S315080096D0422170F025F804F1A00032463B464321AA
S315080096E070F01EF804F1C80032463B46442170F07B
S315080096F017F804F1F00032463B46452170F010F8A1
S3150800970004F58C7032463B46462170F009F83A4B10
S315080097103A49196047201871482083F824004920DF
S3150800972083F844004A209FED2E6B9FED2F7B83F82C
S3150800973064004B2083F884004C20002283F8A400A0
S315080097404D244E2083ED046B83ED0C6B83ED146B77
S3150800975083ED1C6B83ED246B83ED067B83ED0E7B1B
S3150800976083ED167B83ED1E7B83ED267B1A721A73B7
S31508009770196283F8282083F82C20196483F8482076
S3150800978083F84C20196683F8682083F86C20C3F8A0
S31508009790801083F8882083F88C20C3F8A01083F8FB
S315080097A0A82083F8C44083F8E40083ED2C6B83ED8E
S315080097B02E7B83ED346B83ED3C6B83ED367B83ED3B
S315080097C03E7B83F8AC20C3F8C010C3F8E01083F8DA
S315080097D0C82083F8CC2083F8E82083F8EC20D0BD95
S315080097E0002D31010000000000000000000000000C
S315080097F0F0220020400D0300581A0020C41F0A0852
S315080098000D480E4AC3680E499FED097B10B4002423
S3150800981043611C700830046280F82440094B5DF8E7
S31508009820044B80ED0A7B46F04FBC00BFAFF30080C7
S315080098300000000000000000A83B00207C130A0876
S3150800984058A00808447C09082DE9F04F2DED048B33
S31508009850544891B0FEF7ECFD20B111B0BDEC048B75
S31508009860BDE8F08F01255049009503464622044677
S315080098704E4846F06DFF4E48046145F045F84D4B9D
S315080098804D4A1B6813801B0C93704C4B9D63FFF766
S31508009890B7FF61F029FE4A494A4847F045FD4A495B
S315080098A04A4847F03DFD4A494A4847F039FD4A4982
S315080098B04A4847F035FD4A494A4847F031FD4A4B80
S315080098C01D78002D40F06581484E494846F030FC29
S315080098D031222946474876F02EF896F8790165F040
S315080098E0C5FF96F84C0565F0C1FF96F8DF0265F0EE
S315080098F0BDFF4149414847F017FD414871F0FAFA62
S31508009900404871F0F7FA404A4048536843F4000368
S31508009910536071F0EFFA3E4890F83C33002B00F0A4
S3150800992043833C4B9A689B6C5380202383F31188AE
S3150800993005F0F8FB384B1A78511E012900F21C83F2
S3150800994036495960012A1DD1354A3648116C41F00D
S3150800995010011164116E41F010011166116E116A41
S3150800996041F010011162116A21F0100111622E49AD
S31508009970126A98604FF48002702381F83633C1F872
S3150800998084214A60244E2548B1680268B1FBF2F387
S31508009990013B9BB203FB0222914200F00D83234850
S315080099A005F03AFA2093002094130A08B89D00207F
S315080099B0F4AF0120A8130A0878930120A83B0020D9
S315080099C02DB50608AC130A0821A40608B8130A0818
S315080099D0CD0F0508CC130A08450F0508D8130A0841
S315080099E0E1120508EC130A087918022058580010E5
S315080099F004140A08502B0120A95E04081C140A083E
S31508009A00F0950020CC95002000230140A895002061
S31508009A101862002028350120709400201C190020A7
S31508009A200038024000BD010500E100E0DC200A081C
S31508009A30B3F5AA7FC1F04E807BB9AF4BAF49B04AA8
S31508009A40B048C3E902214FF4A271102219805A6066
S31508009A50AD4900221A6147F063FCA74F264646B96E
S31508009A603B8833B1B86803681B689847031EC1F280
S31508009A70D7820026A54FDFF8C0830096B7F84220A4
S31508009A80A3493346404646F063FE0096B7F8D82207
S31508009A90A0493346A8F5867046F05AFE0096334626
S31508009AA0B7F804239C49A8F5D47046F051FE9B49A3
S31508009AB09B4847F035FC9B4B1E7097F84935D907EC
S31508009AC003D497F84835DB0948D0DFF84082B8F860
S31508009AD04410B8F8460040F091F9B8F84816074619
S31508009AE0B8F84A0640F08AF90646002F01F0998030
S31508009AF0874201F0058398F83436062B96BF8A4AC2
S31508009B008A4B52F82330814A186892F83C265968DD
S31508009B10520608AB03C302D501F10043099308A90D
S31508009B20384606F067FB002E41F07E80804BC3E97D
S31508009B300076764B93F84935DB0706D5DFF8FC82C5
S31508009B4098F8AC33002B01F0E582704B93F8483552
S31508009B50DB0941F0C381734B01221A70754B1B78E0
S31508009B6053B96A4BB3F8EC023EF0BAF9002801F093
S31508009B708B8171483AF028FD644B93F8BC63F6096B
S31508009B8041F0BE803EF082FB3FF0EEF96B4846F0AE
S31508009B90CFFA6B496B4847F0CBFB6B496B4847F0EC
S31508009BA0C3FB5A4B93F80C23120700F1CF81614B84
S31508009BB0197879B9554B66481B89692B9CBF654A44
S31508009BC052F8231046F0B4FA4CF034F86249634868
S31508009BD047F0AAFB624DDFF8688205F580674FF00B
S31508009BE0FF36294632464046203508F0F7FCAF4294
S31508009BF0F7D15C485C4947F09BFB5C4800F580550B
S31508009C0095F8AC31002B00F0C581594959485A4D91
S31508009C1047F092FB59495A4847F082FB59495A4836
S31508009C2047F07EFB95F85C36002B00F0A881574B71
S31508009C305A68002A00F0BB8159F0DCFA00283FF484
S31508009C400CAE5349534847F06BFB5349534847F00A
S31508009C5067FB5349534847F073FB5349534847F04A
S31508009C6067FB5349534847F063FB5349534847F04A
S31508009C705FFB5349534847F067FB5349534847F03E
S31508009C8053FB5349534847F04FFB5349534847F052
S31508009C904BFB5349534847F047FB5349534847F052
S31508009CA047FB30F06DFD524858F04AFF514B524978
S31508009CB0524801221A6047F033FB5149514847F090
S31508009CC02FFB514A514805216EF0E4F85049514896
S31508009CD047F026FB5049514847F026FB5049514862
S31508009CE047F022FB5049514847F026FB5049514856
S31508009CF047F022FBA6E000BF8C36012064140A0850
S31508009D00884700206C140A089D9C060858580010BD
S31508009D1094140A089C140A08A8140A086DA50608CB
S31508009D20B4140A0898180220A4200A08C0200A08B1
S31508009D3070930120791802209823001048150A0804
S31508009D40ED310608FC130A085D4F06082894090831
S31508009D5060150A0854520908B50D0508F4110A08D1
S31508009D60B86B002074150A0829320208B86F00205B
S31508009D70F14F0208CC200808708100204132020801
S31508009D8084150A08B941020890150A08E83B00201C
S31508009D90E92706089C150A08A1270608A8150A082F
S31508009DA0C5290608B4150A08E1280608C0150A08D0
S31508009DB091280608C8150A08B9280608D4150A08F5
S31508009DC009290608E0150A08C9190608E8150A083F
S31508009DD0A5190608F4150A0825190608FC150A081F
S31508009DE04919060808160A086D19060814160A08F5
S31508009DF0881A00109093012009BB05081C160A084A
S31508009E00BDD505083C160A0829BB050848160A08E0
S31508009E1089C1050860160A089DD705086C160A0840
S31508009E20A5D7050878160A0879C1050884160A0808
S31508009E3081C10508487B0908E89E002028BD001056
S31508009E40B0A500207649774847F07AFA76497748E8
S31508009E5047F072FA7649774847F072FA76497748B2
S31508009E6047F06EFA7649774847F06AFA76497748AE
S31508009E7047F05AFA7649774847F05EFA76497748BE
S31508009E8047F05AFA7649774847F056FA76497748B6
S31508009E9047F052FA7649774847F04EFA76497748B6
S31508009EA047F03EFA7649774847F046FA76497748C2
S31508009EB047F036FA7649774847F042FA76497748BE
S31508009EC047F03EFA764B1B78002B00F00382754C60
S31508009ED075490125002348222046009546F038FC9E
S31508009EE0002372490095472204F10C0046F030FC25
S31508009EF06F4B93F855359B0700F1F485684B1B7833
S31508009F000BBB6C48036144F0FFFC694BB3F8F044A3
S31508009F1020463DF0E5FF38B19FED670A674B684973
S31508009F206848224665F0DEFC614BB3F800452046DA
S31508009F303DF0D6FF38B19FED600A634B6049634830
S31508009F40224665F0CFFC35F0E3FA86E493F8272736
S31508009F50002A3FF42CAEB3F842003DF0C1FF0028BA
S31508009F603FF425AE00220092594B5A487F224FF4FF
S31508009F70CA6107F059FC1AE6574804F04DFF012359
S31508009F80D5F8581685F85C3628463CF04BFEC5F8D9
S31508009F9060064CE60123D5F8A81185F8AC311AF00D
S31508009FA0D3F8C5F8B00130E63DF02CFEB9E44B4ACB
S31508009FB01168596013603FE6D0E90201F26821F0A2
S31508009FC0FF01002717605060936217610223D16072
S31508009FD0337004F0BDFF202383F3118805F0A2F83F
S31508009FE005F06AFB3378022B40F07185032372680B
S31508009FF03370F36852680921D962012159615F6299
S3150800A0001F6112B1DA680A43DA6085221A6004F021
S3150800A0109FFF33493348344E47F086F9012768E0F5
S3150800A020B5C20508BCE408088DC10508C823080898
S3150800A03019BC05088C160A0865BC0508A0160A0886
S3150800A040B1BC0508B8160A0841D30308D4160A088D
S3150800A05009BC0508DC160A08F9BB0508F0160A0843
S3150800A060F5BD050800170A08FDBD050810170A08FA
S3150800A07049BD050820170A085D91050828170A082A
S3150800A08005BE050834170A08819D04084C170A08F6
S3150800A090C1FC050858170A08FDBC050870170A0808
S3150800A0A079180220C49D0020541A0A08681A0A085A
S3150800A0B058580010D0B0012000401C465C190020FA
S3150800A0C0881A0A085046002068190020C846002049
S3150800A0D059BC040868650020EC200A08041800200A
S3150800A0E0BD70040828140A082C2B0120384606F0EF
S3150800A0F0A1F93368012BF9D9694B93F8BD231707E2
S3150800A10078D5D3ED757ADFED676A9FED676A93F8C0
S3150800A11048359FED660A67EEA67AB6EE007A67EED0
S3150800A120877A180786EE277A614BDFED626AD3EDE8
S3150800A130007A9FED616A27EE267AF4EEC67A48BF62
S3150800A14037EE077AF1EE10FAD8BFF0EE477AF0EE5E
S3150800A150046A27EEA67AB4EEC07AF1EE10FA00F396
S3150800A16049879FED507A67EE877A87EE800A63F013
S3150800A17003FF524B00225A60B0EE087AC0EE076A17
S3150800A180F7EE004A36EEA45ABFEE007AA0EE005A61
S3150800A19074EEE65A84EE856AA0EE007AE0EE005A7E
S3150800A1A037EE077A66EE866A67EE067A26EE256A3F
S3150800A1B0B1EE667AC3ED006A83ED027AC3ED037ADF
S3150800A1C083ED046A364B93F807365907C3F38006BE
S3150800A1D000F19C863A48032256213EF0CBFD3948C9
S3150800A1E0032257213EF0C6FD374890F83C33002B32
S3150800A1F000F012872A4B93F80C33DE0700F13886F5
S3150800A200274B93F80C339A0700F1DC85244B93F817
S3150800A2100C335B0700F1D185214B93F80F33DF0729
S3150800A22000F1C6851E4B93F805361E0700F1BB855F
S3150800A2301B4B93F80536D80600F1B085184B93F8F2
S3150800A2400C3F002B3FF409AC204E0F335B01002274
S3150800A250C6E9232306F1A8000123142286F8A330B1
S3150800A260C6F8942045F00CFBB369002B00F0058670
S3150800A270174A13885168194489B222460120002AD0
S3150800A2807FF4DAAB002B3FF4D8ABB3F5A27FBFF46B
S3150800A290CFABB1F5A27F0246F1D9FFF7DEBB00BF0F
S3150800A2A058580010DB0F494000006144809F55480C
S3150800A2B0B867001000007A440AD7233CFC740120D2
S3150800A2C04C140A0858140A08D05E00208847002053
S3150800A2D08C360120BC49BD4847F022F8BC4ABD4827
S3150800A2E005216DF0D7FDBC4ABC4810216DF0D2FDA2
S3150800A2F0BB4ABC4811216DF0CDFDBB4ABB481021B5
S3150800A3006DF0C8FDBA4ABB4811216DF0C3FDBA4AC3
S3150800A310BA4811216DF0BEFDB949BA4847F000F8B0
S3150800A320B949BA4846F0FCFFB949BA4846F0F8FFB9
S3150800A330B94ABA4805216DF0ADFDB949B94846F0A4
S3150800A340EFFFB949B94846F0EBFFB949B94846F0B5
S3150800A350EBFFB949B94846F0E3FFB949B94846F0B1
S3150800A360DFFFB949B94846F0DBFFB949B94846F0B5
S3150800A370DBFFB948B94A11216DF08CFDB84890F851
S3150800A3803C33002B00F03384B64EA6F2845558F0C1
S3150800A390F5FDB548314645F0F1FAB5F8CA023DF083
S3150800A3A09FFD68B105F29C6393ED000ADFEDAF0AE5
S3150800A3B0AF4AB049B048B8EEC00A00236DF086FC33
S3150800A3C0AE4BB3F9E420B3F95210914201DAA3F87F
S3150800A3D05220AB4BAB4FAC4DAC4E7B6003F140010A
S3150800A3E0B96003F15001A1F54F59F96095F8011AC2
S3150800A3F0DFF800B34FF07E524FF0140840F26C7A43
S3150800A400BA613A617A61B2613261726118FB01A17F
S3150800A41003F160024944726005F6042003F1A002C4
S3150800A420B033B260F36045F0A9FA95F8511AC5F849
S3150800A430347A18FB01A1494405F65420C5F838BA00
S3150800A44045F09CFA95F8A11AC5F8846A18FB01A18B
S3150800A4500BF17803494405F6A420C5F8883A45F077
S3150800A4608DFA95F8F13AC5F8D47A18FB03A1494450
S3150800A4700BF1F00305F6F420C5F8D83A45F07EFA54
S3150800A4800BF5B473C5F8283BC5F8246B52F028FBC6
S3150800A49099F8BC33590600F19D837D483AF094F843
S3150800A4A07C483AF091F87C483AF08EF87B483AF0C6
S3150800A4B08BF8012060F03CFA704B93F80F23920654
S3150800A4C040F1288393F84925D70704D593F84835EA
S3150800A4D0DB0940F0AE85724940F25E2053F036FE45
S3150800A4E0664D95F805369E0640F1278395F848355A
S3150800A4F0DB0940F080836B4940F25E2053F026FE6C
S3150800A500212038F0D5FC48B95C4B674DB3F83A833F
S3150800A510B3F83C73AB68002B00F09385574B93F860
S3150800A5201E124B1E2F2B0AD8604CDFED500A9FEDEA
S3150800A530600A20463EF086FC20463AF045F84F4D24
S3150800A5405C4995F836025C4F60F0B2FE95F8020356
S3150800A5505A4960F0ADFE5AF0C3FA05F61A560024B9
S3150800A56005F64B5515F8012F36F8021F0134384603
S3150800A5703EF000FC082CF5D15149524846F0E0FE61
S3150800A5805149524846F0CCFE5149524846F0C8FE59
S3150800A5905149524846F0C8FE384B93F85535DB0901
S3150800A5A040F06F834E494F4846F0BAFE4E4B93F83B
S3150800A5B027201AB94D4A1168D96213604A4E4C4C85
S3150800A5C0B4614EF6602297E0B11F060884170A08A0
S3150800A5D0591F060894170A08292C0608A4170A08FA
S3150800A5E0092C0608B0170A08DD2C0608BC170A0845
S3150800A5F0BD2C0608C8170A08592D0608D4170A08D4
S3150800A600BD1F0608E0170A08451E0608F0170A08BF
S3150800A610511E0608FC170A08ED1D060808180A0840
S3150800A6201920060814180A08B10E060824180A087C
S3150800A630A550060834180A08FD1E060848180A0810
S3150800A640AD1E060858180A086D20060864180A0878
S3150800A650BD0E060870180A087C180A08E52D0608B3
S3150800A660308D0020DC5D0010C006001000000000E0
S3150800A6705C9E002088180A083040002058580010B0
S3150800A680C88B0010B0B001200000001090B0012067
S3150800A69068B0012058B0012048B0012038B0012028
S3150800A6A09C180A08D4180A08988D0120A88C00203E
S3150800A6B0CDCC4C3D088D002010190A08E08C0020EE
S3150800A6C015DE06081C190A08B1CA03082C190A0857
S3150800A6D07148040840190A08B19B060850190A0867
S3150800A6E0ED430408E87D080840470020A0AC002098
S3150800A6F0A65D0010E83C00200023C6E90223304688
S3150800A70004F22A630025336286F826503EF010FCD0
S3150800A7100121B14A86F82710B049B14B53604FF072
S3150800A7207E56B04B91602031966116615661D160B4
S3150800A73001F120025A6001F590729A60AA489E615A
S3150800A740203229461E615E61DA6034F0F7FDA74BB8
S3150800A750A74AA848A8495A6002F580729A604160DB
S3150800A760103201F58071DA608160A44A9E61103169
S3150800A770C1601031516040311E615E619160A04B2D
S3150800A7809661103116615661D16001F1600210318F
S3150800A790C3E901128661066146619E611E615E61BA
S3150800A7A001F16002974E984FDFF8F8A2DA60A4F23A
S3150800A7B04E54B4F8B48940463DF092FBA0B3B4F8C1
S3150800A7C0B8B9924B924942464FF00C0807EE90BA38
S3150800A7D008FB0538BBF10009404618BF4FF00109D0
S3150800A7E0B8EE678A46F05CF8BBF1000F40F0858149
S3150800A7F05AF8253004F6DE125A604FF07C529A61F8
S3150800A80004F6BE129A604FF080421A6104F6CE1220
S3150800A810DA604FF07E525A61C6E9048304F6B4132F
S3150800A82086F80890F76073600135042D04F16C040E
S3150800A83006F1180607F17807BBD1764C764D94F8E1
S3150800A840643404F29C50002223F0070305F65811DD
S3150800A850A5F8D82584F8643445F090F895F8CD30F5
S3150800A8606E4DD8064CBF04F5986004F591606C4CA3
S3150800A870294645F083F8204630F076FF54F00EFD61
S3150800A880A4F5BA62002182F85814A4F5BA72654B89
S3150800A8901360A5F2CC55A4F5A87263486349136002
S3150800A8A046F03EFD95F8CD30D9064CBFA4F5887024
S3150800A8B0A4F5A470584C04F2CC5104F2D45304F510
S3150800A8C0BA620D681968C36A12685A6002681D6020
S3150800A8D05268996090475649564846F021FD564BAE
S3150800A8E01B78002B36D14B4B544A55485549564D83
S3150800A8F0564EC3E9F002564846F012FD55495648E9
S3150800A90046F00EFD554B5649564A5D614FF07E504E
S3150800A9108861086190611061186104F69C10C8602E
S3150800A9205148486151489861514898600630D86046
S3150800A93004F63C6004F6A814C1E901044D495660C2
S3150800A94004F66C3400F5DD60C2E9024055615960D1
S3150800A95053F0DAFC304B93F854355A0600F15E8111
S3150800A96051F0B8FF4449454820F006FE444B454996
S3150800A970A3F67C624FF07E54B2F84C00424A4B6014
S3150800A980A3F59C65A3F2D4468C6124330C619461CB
S3150800A99014613E4CCD60C2E90136D560324B8E60FB
S3150800A9A000254B61536125703DF09AFA58B12B4644
S3150800A9B0DFED370A9FED3C0A364A374937486DF0CE
S3150800A9C085F901232370144B354CB3F8120E002574
S3150800A9D025703DF085FA69E0A8BC00205C97001058
S3150800A9E05C960010E4BC0020A00B0010A89B002079
S3150800A9F0DC98001078980020FC99001058980020E0
S3150800AA0038980020B08D0120C88800202C19002015
S3150800AA10081A0A080000001058580010245E001092
S3150800AA20D00500100000C8C2101A0A08ADAF050804
S3150800AA30899504081C1A0A0879180220281F00207C
S3150800AA40F01F002071C805080AD7233C2C6D00109A
S3150800AA50281A0A08B5A00508341A0A0818B00120E9
S3150800AA608C750120088D01200000C842CDCCCC3D54
S3150800AA70549E0010309E00106F8614008CBC002077
S3150800AA80D4660010A4A7002084A70020BA180220C4
S3150800AA90CDCCCC3D9C9E00203C1A0A08508800204C
S3150800AAA0B9180220F8200A080000C07F00283FF4E1
S3150800AAB00EAA2B461FED040AC54AC649C648F6EE35
S3150800AAC0000A6DF003F901232370FFF700BAC348A3
S3150800AAD004F0A2F9B1F5AA7F4FF001027FF6CFABD9
S3150800AAE0FEF7BBBFBE4B1B78002B7FF42CAABD49D3
S3150800AAF0BD4846F015FCFFF701BABC4BDFEDBC0AB2
S3150800AB0053F82510B0EE480A0023424638466DF041
S3150800AB10DDF86DE693F84C32013B2F2B02D8B54889
S3150800AB2039F052FDB44B93F84D32013B2F2B3FF6CB
S3150800AB30D7ACB24839F048FDD2E4B149B14895F8E6
S3150800AB40D76246F0EDFBB049B04846F0E9FB30461F
S3150800AB503DF07AFBAE4BC3F85803002800F0E982B3
S3150800AB6003F2463603F26F379B4605F5517503F532
S3150800AB70807A039405E00BF1200BD34505F1020515
S3150800AB806DD000234FF0010826F8028F07F8013F21
S3150800AB909BF87C0338F08CF904460028EBD1B5F80D
S3150800ABA0009048463DF09CF90028E4D0984B494669
S3150800ABB003F55770C3F8604344F0EAFB95484246EC
S3150800ABC049463EF0D7F82B8833800BF55E7039F08E
S3150800ABD0FBFCD0E7904858F06BFA904858F068FAB2
S3150800ABE08F4858F065FA8F4858F062FA55E43DF0F8
S3150800ABF009F8FFF7C9BB8C4858F05AFA8B4858F041
S3150800AC0057FA8B4858F054FA8A4858F051FA8A4845
S3150800AC1058F04EFA894858F04BFA71E455F06AFD37
S3150800AC209EE600283EF49AAF734B93F83636062B09
S3150800AC3000F25281824A52F823306F4A186892F815
S3150800AC403C265968D20906AB03C302D001F100437A
S3150800AC50079306A9304605F0CDFAFEF767BF6C4D97
S3150800AC60039C95F83C33002B7FF44AAC0123D5F8B6
S3150800AC70381385F83C3328463BF0ACFFC5F840034B
S3150800AC803EE4704B93F8D421002A00F0108193F823
S3150800AC90D521002A00F01D81D3F8D8310B939DEDFC
S3150800ACA00B8A18EE100AFDF735FD0446224666485B
S3150800ACB00B460D4645F03CFAB4EE488AF1EE10FA1A
S3150800ACC080F1E980DFED617AB4EEE78AF1EE10FAF9
S3150800ACD000F3E180DFED5E7AB4EEE78AF1EE10FA72
S3150800ACE000F1D9805B4845F023FA564B40F2011132
S3150800ACF0002283ED648AA3F88C1183F88E2151E42F
S3150800AD0093F8B029052A00F21982DFE802F0373AEB
S3150800AD10342D034440F2F1134F4900220B804F4B68
S3150800AD204F481A8039F050FC4E4839F04DFC324BEA
S3150800AD304D4993F8BC230E7090067EF523AF93F821
S3150800AD40B029052A00F2018201A353F822F000BFB8
S3150800AD5089AD000889AD000889AD0008859B000803
S3150800AD6089AD0008859B00083B4B4FF421721A8079
S3150800AD7040F28522D3E74FF4D073CDE74FF4F8734A
S3150800AD80CAE74FF40073C7E7384940F66E0053F038
S3150800AD90DDF9FEF7F7BE40F20933BDE706203FF0BE
S3150800ADA0AFF8FFF74BBA05203FF0AAF8FFF740BA0D
S3150800ADB004203FF0A5F8FFF735BA03203FF0A0F8C6
S3150800ADC0FFF72ABA02203FF09BF8FFF71FBA00BF29
S3150800ADD0DC9E0020481A0A08D8870020C8200A08DE
S3150800ADE079180220899C06087C1A0A0828210A086C
S3150800ADF00000000084B001205858001078B00120E7
S3150800AE00C5010508FC180A081D02050804190A08E0
S3150800AE1090270020A4800808508B0020188B00205B
S3150800AE20E08A0020A88A0020788C0020488C002020
S3150800AE30188C0020E88B0020B88B0020888B002017
S3150800AE40A4200A08D0A700205C190A080000DC42E2
S3150800AE5000007042981A0A08761802207418022010
S3150800AE605848002038480020B818022008150A0853
S3150800AE7001203FF045F8FFF7C3B9B94B1A68B2612C
S3150800AE8014361E60FFF7F4B9B64B93F89C036EF0C0
S3150800AE903DFCFEF771BEB44922462B4640F6B20089
S3150800AEA052F088FDB14845F043F9FFF77BBBD3F86C
S3150800AEB0DC4174B1236820469B68984748B12368EB
S3150800AEC021465B680AA898479DF82830002B7FF42E
S3150800AED0E6AE9FEDA78AE4E6A64BAEE6A648C0F81E
S3150800AEE0687327B190F83C33002B00F01081A34813
S3150800AEF0C0F86863002E3EF42EAE90F83C33002B63
S3150800AF007EF429AE3CF07EFEFEF725BE9C4BDFEDB7
S3150800AF109D9A9FED9D9ADFF8B4A20FCB10AF07E973
S3150800AF200F004FF0000900279FED988A0DF1300BAE
S3150800AF30B84607EE907AF8EEE77AFBEC018A77EEE8
S3150800AF40A77A08F1010827EEA90A4F4480EE090AF4
S3150800AF5070F032FCB8F1040FA8EE808AE9D109F145
S3150800AF600109B9F5806FAAEC018ADCD1884BDFEDBF
S3150800AF70876A1868DFED875A9FED876ADFF850C23F
S3150800AF8005EE104AAE464FF47A6700220CFB02F330
S3150800AF9007EE903AF8EEE77A411C67EEA57A9142F9
S3150800AFA037EEC67AB0EEC77ABDEEC77A17EE103A14
S3150800AFB005D1B8EEC57A37EEC77AF0EEC76ABB4256
S3150800AFC004DABDEEE75A1F46B64610460132B2F518
S3150800AFD0007FDBD1BEF1000F01D06D4B18606F4BBF
S3150800AFE015EE101A03F69802A3F89618C2ED006A31
S3150800AFF0FFF7F0B817EE900AFDF78CFB02460B46F2
S3150800B000CDE90023664954A3D3E9002340F25E2024
S3150800B01053F09CF8FFF7D6B83CF0F4FDFFF7EAB812
S3150800B0203246604940F25E2053F090F80126FEF75A
S3150800B03016BD5D4858F03CF85C4858F039F8FFF7FB
S3150800B0404FBA40463CF04CFF00283FF467AA384602
S3150800B0503CF046FF00283FF461AA554E05223046CB
S3150800B06041463DF087FE0522394630463DF082FED0
S3150800B07040466CF069FF4146286030463DF018FCB2
S3150800B080686038466CF060FF394603463046AB6068
S3150800B0903DF00EFC6A682968E860012606FA02F2A5
S3150800B0A092B20A8306FA00F3AA689BB213830DF1DB
S3150800B0B013010F23284632468DF8133066F076F8CA
S3150800B0C032460DF11201284666F08AF89DF81230CC
S3150800B0D0B12B2BD0BD2B7FF421AA4CF2204334464A
S3150800B0E0344DADF814302846022205A92C6166F0C5
S3150800B0F05DF8012330482B7539F066FAFFF70EBA6A
S3150800B1002E4940F25E2053F021F8FEF727BD3CF0A9
S3150800B11079FDECE60123D8F8A81388F8AC33404645
S3150800B1204EF0B8FFC8F8B003FEF70FBD44F210435F
S3150800B130D6E7234844F0FCFFFFF7E2B9214940F679
S3150800B1406E0053F003F82E46F1E51F4940F66E00EF
S3150800B15052F0FCFFFEF716BD00000000F0B30A41EE
S3150800B16004180020002000108C190A08B8190A08CB
S3150800B17067A6CA42C0200A08B8B9001048B6001027
S3150800B18024000808DB0F494000C07F440000000087
S3150800B190E86601200000803A00007A4500000010A9
S3150800B1A02C140A0878140A08D04800209048002071
S3150800B1B00C190A08988D012028460020BC140A0894
S3150800B1C0B0800808E8140A0830150A089C110120FE
S3150800B1D07E5603000000000038B59FED216BDFEDB9
S3150800B1E0227A224B0360044600250123036480ED7E
S3150800B1F00E6BC0E90755C0E90955C0ED017AC0EDE7
S3150800B200027AC0ED037AC0ED047AC0ED057AC0ED86
S3150800B210067AC562C0ED0C7A80F8345080F844503E
S3150800B22085644C306BF044FE114BA4F8B0504FF0D7
S3150800B230824284ED206B84ED266B84ED2E6B84F8B8
S3150800B2407C50C4F88850C4ED237AA4F89050C4ED15
S3150800B250287AC4ED297AC4F8A820C4F8AC3038BDD9
S3150800B26000000000000000F00000000018350A0881
S3150800B270CDCCCC3D000000009FED0F7B002200B531
S3150800B280C0F8A4104FF0000E0D49C0F80CE0C0F845
S3150800B29020E0C0E90422C0E9062280ED0E7B80ED9D
S3150800B2A0347B5DF804EB426082600160426243F0E1
S3150800B2B047BF00BFAFF3008000000000000000F0A9
S3150800B2C000350A080000000010B59FED136BDFED8E
S3150800B2D0147A144CC0ED147A00234FF0010C8362E3
S3150800B2E080ED126BC362C0E90833C0E90A33C0E9CE
S3150800B2F00C33C0E90E33C0E91033C0E9033300F15B
S3150800B3000C0E036043714361C36180F854C08361C6
S3150800B31080F804C0846010BD000000000000000032
S3150800B3200000C07F38210A0870B5214ED6F8E035EE
S3150800B330D6F87047A6F8E405013382B00546C6F884
S3150800B340E035ACB1002306F5BF6001E0A3420FD09B
S3150800B3501A010133815AA942F8D1164C14442046E1
S3150800B36044F08EFA144802B0BDE8704044F088BA3A
S3150800B37004F04AF9D6F87037104C0190172B0FD8FD
S3150800B38003F25F519FED087B04EB011484ED007B0B
S3150800B390258101330198C6F8703704F0D5FFDEE73A
S3150800B3A0019804F0D1FFDDE700000000000000F07E
S3150800B3B000500010F0550010E8550010000000106D
S3150800B3C02DE9F04F2DED068B0123DFED5BAA85B045
S3150800B3D00A24BFEE009AB8EE008AF6EE008A064600
S3150800B3E01D4629EE08AADFED559A2AEE09AA4FEA64
S3150800B3F0450B32464FEA051AE800B7EE009A0021D7
S3150800B400871802F1040990460B46D7ED010A97ED15
S3150800B410000A69EE207A20EEE97AE9EE807A5B4442
S3150800B420A9EE007AF4EE477AF1EE10FA58D698EDBE
S3150800B430016A59ED016A36EE676A76EEC76A87EDE4
S3150800B440016AC7ED006A98ED016A59ED016A77EE5F
S3150800B450867A36EE877AB3F5806F09ED017A574416
S3150800B460C8ED017AD144D044CFD369EE8A7A2AEE60
S3150800B470E97AE9EE2A7AAAEE097AB4EE677AF1EE63
S3150800B48010FA40D60131A94239EE079A79EEA79A01
S3150800B49002F10802B4D1013C1DD05846FDF718F94F
S3150800B4A002460B4622A1D1E90001FDF7B5FAFDF7E0
S3150800B4B061FC09EE100A29EE280A70F0EDF9B0EEE3
S3150800B4C040AAB0EE490A70F0E7F95D46B0EE4A9A2E
S3150800B4D0F0EE40AA85E705B0BDEC068BBDE8F08F17
S3150800B4E0F0EE691AB0EE491ACDE90202CDE900314B
S3150800B4F073F046FFDDE90202DDE90031B0EE407A7D
S3150800B500F0EE607A93E7F0EE6A1AB0EE4A1AF0EEB9
S3150800B510690AB0EE490ACDE90102009173F030FFDD
S3150800B520DDE901020099B0EE407AF0EE607AA9E70B
S3150800B53000000060FB2109C02EBDBB3300000000DF
S3150800B5402DE9F04FCC4BCD4CCD49CE482DED068B91
S3150800B550C3F82C44CC4C1C600022CC4CC3F83444B1
S3150800B560C3E90122CA4C83F83024CA4B0B60C1F8E0
S3150800B5706446C94BC94C1A708125C1F85856636090
S3150800B580E360C74DC74B81F85C260026C64925608F
S3150800B5904FF07047C0E90067C44D0D606420C1E9EB
S3150800B5A00620086203F1280103F14000C3E90211ED
S3150800B5B01960586003F1200103F11800C3E9060079
S3150800B5C0C3E90811BA48BB491A6100F128051A757A
S3150800B5D04FF47A7C0B460560B74FC560C4F808C0BF
S3150800B5E000F11804C0E9064400F1400600F1200401
S3150800B5F043F8247BC0E90844C1E902228560466015
S3150800B600026102750A7183B0A431FF2043F8102C39
S3150800B61003F80C2C23F80A2C03F8082C03F8070C5B
S3150800B62003F8062C10339942F0D1A449A44BA54C33
S3150800B630C3F89C4001F134001425C3F894505861AE
S3150800B640002444F620604FF07045C3E92A45196086
S3150800B650C3E902229C491A71C3E90622C3E92322D7
S3150800B660C3F89800994B9A489A4C0860862581F841
S3150800B6703C23C1F84823C1F83853C3F83853C1F8F6
S3150800B680444301259449C3F848531860934D83F8F9
S3150800B6903C238720C1F8A8030520C3F84443C1E921
S3150800B6A0ED508F4B81F8AC239FED6D8B8D4A0A6068
S3150800B6B04FF0000803F5C072C3F8088083ED068BC7
S3150800B6C0C3F80C8083ED088B83ED0A8BC3F80080E2
S3150800B6D083ED0C8BC3F8108083ED0E8B83ED108BF6
S3150800B6E083ED128B83ED148B83ED168B60339342B7
S3150800B6F0E2D17D4B7D4A1A607D4A5A60DA6082F84B
S3150800B70000807C489FED7C9ADFF868A27B4F4FF457
S3150800B7107A6228219A606EF017F8794825216EF02A
S3150800B72013F8784859216EF00FF877485A216EF0C9
S3150800B7300BF8764B764824221A712321754A1A602B
S3150800B7406EF002F8FDF7A8FF734BDFF82CC27349B9
S3150800B75083F8088022221A71714ACCF82020C2E99F
S3150800B7600088C2E9028882F814800022C3E904121C
S3150800B77003F128021A624FF021028CF80420694A64
S3150800B7801A609FED39AB684ACCF800209FED387BEC
S3150800B790664A83F80C8002F5805B83F82C8083ED7B
S3150800B7A0068B83ED0CAB6248624A83ED099A202129
S3150800B7B000238CED047B8CF808808CF80C808CEDCB
S3150800B7C0068B6DF0ADFF5C485A4A9FED5C0A4F2127
S3150800B7D000236DF0A5FF514A594800231F216DF03B
S3150800B7E09FFF584B4D49584883F808800022C3E903
S3150800B7F004124FF00C01197154491960F7EE009ABA
S3150800B80083F80C8083ED068B514B40F8043BF0EE31
S3150800B810690A6DF07FFD66F0DDF94E486DF07AFD38
S3150800B8204D4B4E481860C3ED019A83ED029A83ED9D
S3150800B830039A83ED049AC3ED059A494B49484A4A47
S3150800B84083ED00AB494B212183ED00AB00236DF05E
S3150800B85067FF474B4148186090E000BFAFF3008090
S3150800B860000000000000000000000000000000F0DA
S3150800B87000093D0000000000208F012068240A0806
S3150800B88000520020A03B002080270A08B42101208E
S3150800B8906C240A0868270A08E8B00120E4AF0120EA
S3150800B8A078240A0830C80010F4AF0120A4270A0833
S3150800B8B070C80010902A0120B8270A08E0270A084D
S3150800B8C0884700208F1E1700B8B9001048B6001028
S3150800B8D044280A08D8A5080828BD0010D0A50808D5
S3150800B8E0082C002028280A08F057012088240A086E
S3150800B8F0B0C800103026002000000000586800106C
S3150800B9008824002038250020E02400208CAC002064
S3150800B9103024002058280A08A88C002080841E009D
S3150800B920988D012074280A0898280A080000001033
S3150800B930D8200020801A0600B02000200000C84247
S3150800B940C8220020A82200209C960120C41F0A08AD
S3150800B950B8280A08BC960120E8930120080C0A08B2
S3150800B96080480020E0250020400D0300784800208C
S3150800B970109401206486001028460020D04AD14839
S3150800B980C3ED019A83ED029A83ED039A83ED049A37
S3150800B990C3ED059A272100236DF0C2FECA48C84A9E
S3150800B9A0332100236DF0BCFEC848C54A3521002363
S3150800B9B06DF0B6FEC648C24A372100236DF0B0FEC8
S3150800B9C0C44BC54AC5491960C3E90A8883F8088083
S3150800B9D083F80C80C3F8208083F8248083ED068BD7
S3150800B9E083ED0C9ABE4B1160BE4919604FF0260CC8
S3150800B9F0B84BDFF85CE382F804C04FF0340C83F8E8
S3150800BA0004C042F2046CB64BAEF804C04FF0270CE3
S3150800BA108EF806C0CEF8001043F2324E9FEDA47B96
S3150800BA20A3F804E04FF0330E83F806E0A94B82F83A
S3150800BA300880C2E90A8882ED047B83ED047B82F8DC
S3150800BA400C80C2F8208082F8248082ED068BA648F6
S3150800BA5082ED0C9A05219A4A00236DF061FEA348EF
S3150800BA60974A312100236DF05BFEDFF8E8E2DFF844
S3150800BA70E8C29F499F480860CEF80000CCF800004D
S3150800BA809D4881F8088081F80C80C1F8248081EDF2
S3150800BA90068B9A4980F80880AAF180008860944845
S3150800BAA0C1F804A09649CEF820100162CCF82010FF
S3150800BAB09249944808608E48934981620131CEF8CC
S3150800BAC028100131CCF828104FF0290101714FF0E8
S3150800BAD02A018EF8041088488EF808804FF02B014A
S3150800BAE09FED757B8CF804104FF02C01017180488E
S3150800BAF081498EF80C8080ED047B8448CEF824803A
S3150800BB008EED047B8CED047B8EED068B8CF808801D
S3150800BB108CF80C80CCF824808CED068B81F80C8090
S3150800BB2088627B497B4B7C4A013088624FF02D0C3A
S3150800BB307A4881F804C07A4981624FF02E0C794917
S3150800BB4080F804C0784888607849794888606A48E7
S3150800BB506F4980ED047B80ED068B7048009081ED7F
S3150800BB60047B80ED047B81ED068B80ED068B6149B5
S3150800BB7061480160243101626549C0F8248081F872
S3150800BB800880084681F80C80C1F82480594901606C
S3150800BB902431016261482439016024310162614916
S3150800BBA080F8088080F80C80C0F824804FF01900CF
S3150800BBB00871604808605D4908604FF01A0008710E
S3150800BBC01921C3E901181A2151605B4919601160EE
S3150800BBD02831196211624FF001015848C3F82C80C8
S3150800BBE082F8381099854FF00101C2F82C809185AA
S3150800BBF00021C3E90401C2E90401C3E90988C3E9CC
S3150800BC000C88C2E90288C2E90988C2E90C88C3F827
S3150800BC100C8083F8388083ED068B82ED068B64F002
S3150800BC2043FADFF838E1464ACEF800200C212832DC
S3150800BC30DFF82CC1434BCEF82C10CEF820204FF05D
S3150800BC400301414A8EF804104FF00101B1EE007A63
S3150800BC508CF80410CCF800304FF4FD6113602833DB
S3150800BC608EED0C7A8EF808808EF80C80CEF824803B
S3150800BC70CCF820301362CEF828108EED048B8EEDAA
S3150800BC80068B0F234FF0050ECCF82CE08CF80880B5
S3150800BC908CF80C80CCF82480D362CCF828102B4B77
S3150800BCA0CCED0C9A8CED048B5CE000BFAFF3008002
S3150800BCB000350C0000000000804F12000000000054
S3150800BCC0400D03000826002010490020902500207A
S3150800BCD0B8250020882D0020C02D0020E4280A0859
S3150800BCE000940120C8280A08088D0020E08C00204E
S3150800BCF0788C002014290A08E88B0020A4930120D8
S3150800BD0038290A0804290A0805030A0008030A004C
S3150800BD10B88B0020D048002090480020888B00204F
S3150800BD200A030A0084B0012015A0060878B001208D
S3150800BD302DA0060888290A084C290A08C0D401003B
S3150800BD401C2A0A08E0290A08E08A0020A88A002096
S3150800BD5008940120488C0020188C0020508B002065
S3150800BD60188B00208CED068B4FF0020C82F80880A9
S3150800BD7082F80C80C2F82480916282F804C082EDB1
S3150800BD80048B82ED068BC2ED0C9A4FF4FD629A6223
S3150800BD90E24ADFEDE37A1A6028321A624FF00D0C98
S3150800BDA00F229FEDE00AE048C3ED0C7A0E2183F8D6
S3150800BDB004C083F8088083F80C80C3F82480DA620C
S3150800BDC083ED048B83ED068B6DF0DCFCD7480F21E1
S3150800BDD06DF0D8FCD64811216DF0D4FC1221D54857
S3150800BDE06DF0D0FCD44BD048186090F82420CF488A
S3150800BDF05A73586090F82420D0489A734FF00D0C67
S3150800BE0083F80CC0986083F8148083ED049AC84AB6
S3150800BE10CB4BDFF86CE31A6092F824205A73C54AB4
S3150800BE2098604FF00F0CC7488EF806C05A604FF05E
S3150800BE30100C92F824209A7383F8148081710246B4
S3150800BE40C14983F80CC083ED049A40F60D63AEF839
S3150800BE500430016080ED029A80ED039A41F21013D6
S3150800BE60BA489380B94ACEF8001041F213434FF00E
S3150800BE70150CB0EE690A0160B5488EED029A1421D8
S3150800BE808EED039A938082F806C082ED029A82EDBF
S3150800BE90039A6DF077FCAF4815216DF073FCAE4B35
S3150800BEA0AB49196091F82420AA495A7391F82420BD
S3150800BEB09A73AA4ADFF8CCC2C2F800C09F489FED21
S3150800BEC0A80A98604FF0130C83F80CC083F8148006
S3150800BED05960A44883ED049A1D21162393806DF0BA
S3150800BEE051FCA1481E216DF04DFC64F0FBF9DFF80A
S3150800BEF098C29E4B9E499F4A4FF003008CF80C004F
S3150800BF004FF0200018739C4818604FF0500ECCF87C
S3150800BF1000000860106099488CF804E0CCF8080026
S3150800BF204FF0510C81F804C04FF0230C81F80CC077
S3150800BF3088604FF0010852210024986090601171C2
S3150800BF40A7F6F87082F80C8053221A716AF0F6FF89
S3150800BF5090222146AAF5F15073F0EDFC20222146E5
S3150800BF6007F19400C7E91F44C7E92144C7E92344F8
S3150800BF7073F0E1FC2022214607F1B40073F0DBFCE4
S3150800BF804022214607F1D40073F0D5FC4022214611
S3150800BF9007F5BE70C7E94A44C7E94E44C7E95244A3
S3150800BFA0C7E95644C7E95A44C7F81841C7F82041B3
S3150800BFB087F8784187F87B41C7F81441C7F81C41D0
S3150800BFC0C7F82441C7F83441C7F84441C7F8544173
S3150800BFD0C7F86441A7F87641A7F87941C7F8304110
S3150800BFE0C7F84041C7F85041C7F86041C7F87041E3
S3150800BFF0A7F8744173F09FFC4022214607F5DE70CE
S3150800C00073F099FC4022214607F5FE7073F093FC05
S3150800C0104022214607F50F7073F08DFC2022214639
S3150800C02007F51F7073F087FC2022214607F5277055
S3150800C03073F081FC2022214607F52F7073F07BFCF4
S3150800C0402022214607F5377073F075FC2022214619
S3150800C05007F53F7073F06FFC2022214607F54770FD
S3150800C06073F069FC2022214607F54F7073F063FCD4
S3150800C0702022214607F5577073F05DFC40222146C1
S3150800C08007F56770C7E9E044C7E9E444C7F87C43A5
S3150800C090C7F88C43C7F88843C7F8984373F04BFC36
S3150800C0A02022214607F5777073F045FC20222146A9
S3150800C0B007F57F7073F03FFC4022214607F22C40BB
S3150800C0C0C7F82044C7F82844C7F81C44C7F82444CE
S3150800C0D073F031FC4022214607F28440C7F87044C9
S3150800C0E0C7F86C44C7F87444C7F87844C7F87C4462
S3150800C0F0C7F8804473F01FFC4022214607F2D4405B
S3150800C100C7F8C444C7F8C844C7F8CC44C7F8D044ED
S3150800C11073F011FC2022214638E000BFA4290A0842
S3150800C1203333234000004843E091002098910020D3
S3150800C130509100200891002074AC0020742A0A0847
S3150800C1404CAC00203CAC0020582A0A0814AC00204D
S3150800C150C09000207890002024AC0020289401206C
S3150800C16000007A44482100200021002038B0012030
S3150800C17058B0012048B00120902A0A08000080BF64
S3150800C18064AC0020781F0A0868B0012007F23C500A
S3150800C190C7F81845C7F82045C7F82845C7F83045F1
S3150800C1A0C7F83845C7F81445C7F81C45C7F82445E5
S3150800C1B0C7F82C45C7F8344573F0BDFB2022214645
S3150800C1C007F25C5073F0B7FB2022214607F2845031
S3150800C1D0C7F88045C7F87C4573F0ADFB2022214699
S3150800C1E007F2AC50C7F8A445C7F8A84573F0A3FBF7
S3150800C1F040222146AAF5976073F09DFB402221460E
S3150800C200AAF58F6073F097FB40222146AAF587604E
S3150800C21073F091FB40222146AAF57E7073F08BFBE2
S3150800C22020222146AAF56E7073F085FB202221464E
S3150800C230AAF5667073F07FFB20222146AAF55E7088
S3150800C24007F5405573F077FB07F58057AAF556733F
S3150800C25080222146AAF55470C7F8B44A5C6073F088
S3150800C2606AFBAAF5347320222146AAF53070C7F86E
S3150800C2703C4BC3E90144DC6073F05DFB4FF400728C
S3150800C2802146AAF5287073F056FB20222146AAF10A
S3150800C290A00073F050FB07F68C508022214673F0FD
S3150800C2A04AFB80222146504673F045FB2022214650
S3150800C2B00AF1800073F03FFB4FF4007221460AF141
S3150800C2C0A800C7F8AC4EC7F8B04E73F034FB20226E
S3150800C2D021460AF52A7073F02EFB202221460AF51C
S3150800C2E0327073F028FB3C2221460AF53A7073F047
S3150800C2F022FB4FF4007221460AF5497073F01BFBC6
S3150800C300202221460AF2245073F015FB20222146EA
S3150800C3100AF2445073F00FFB402221460AF2645099
S3150800C32073F009FBA5F580510F46C1F8B0434022CA
S3150800C33021460AF2C450CAF8A845CAF8AC45CAF854
S3150800C340B045CAF8B445CAF8B845CAF8BC45CAF8EB
S3150800C350C04573F0F0FA4FF4007221460AF22460E1
S3150800C360C7F81044C7F82044CAF80846CAF80C4665
S3150800C370CAF81046CAF81846CAF81C46CAF820462B
S3150800C38073F0D9FA202221460AF6240073F0D3FA6C
S3150800C390202221460AF6440073F0CDFA4FF40072C3
S3150800C3A021460AF6640073F0C6FA202221460AF6E8
S3150800C3B0642073F0C0FA202221460AF6842073F01E
S3150800C3C0BAFA4FF4007221460AF6A42073F0B3FABB
S3150800C3D04FF4007221460AF6A44073F0ACFA97F8B7
S3150800C3E0BC3CC7F8B04C23F00F0387F8BC3CD7F821
S3150800C3F0BC3CA7F8BA4C03F00F034FF480722146F1
S3150800C4000AF6B560C7F8BC3C73F095FA20222146B7
S3150800C4100AF6B67087F8C14D73F08DFA20222146C8
S3150800C4200AF6D67073F087FA4FF4807221460AF638
S3150800C430F870A7F8024E73F07EFA2022214607F616
S3150800C440047073F078FA2022214607F6247073F0F8
S3150800C45072FA4FF48072214607F6447073F06BFA4D
S3150800C4602022214605F1440073F065FA2022214670
S3150800C47005F1640073F05FFA4FF48072214605F106
S3150800C480840073F058FA4FF48072214605F5D2708D
S3150800C490C5E96244C5E96644C5F88441C5F89441CE
S3150800C4A0C5F89041C5F8A04173F045FA40222146E7
S3150800C4B005F53170C5E9AA44C5E9AE44C5F8A442F4
S3150800C4C0C5F8B442C5F8B042C5F8C04273F033FAAD
S3150800C4D05022214605F54970C5E9C244C5E9C64456
S3150800C4E0C5F80443C5F81443C5F81043C5F82043F6
S3150800C4F073F021FAC022214605F56A70C5E9DE44C3
S3150800C500C5E9E244C5E9E444C5F89C43C5F8A44333
S3150800C510C5F87443C5F88443C5F89843C5F8A043DD
S3150800C520C5F8804373F007FAC022214605F58F60E7
S3150800C53005F5B066C5F86C44C5F87444C5F8684492
S3150800C540C5F8704473F0F7F92422214605F5BB6057
S3150800C550C6E90044C5F84C45C5F85445C5F85C45D8
S3150800C560C5F86445C5F86C45C5F87445C5F87C45F5
S3150800C570C5F88C45C5F89445C5F89C45C5F8A44545
S3150800C580C5F8AC45C5F8B445C5F83C45C5F84045B9
S3150800C590C5F84445C5F83845C5F84845C5F8504571
S3150800C5A0C5F85845C5F86045C5F86845C5F87045E5
S3150800C5B0C5F87845C5F88845C5F89045C5F898453D
S3150800C5C0C5F8A045C5F8A845C5F8B045C5F8B845A5
S3150800C5D0C5F8BC45C5F8C445C5F8CC45C5F8D44525
S3150800C5E0C5F8C045C5F8C845C5F8D04573F0A3F9E0
S3150800C5F02422214605F5C160A5F80046A5F8064699
S3150800C600C5F8FC45C5F8024673F095F9202221467F
S3150800C61005F5C760A5F83046A5F83646C5F82C4690
S3150800C620C5F8324673F087F92022214605F5CD6014
S3150800C630C5F85C46C5F86446C5F85846C5F8604668
S3150800C64073F079F92022214605F5D360C5F88C46A2
S3150800C650C5F89446C5F88846C5F8904673F06BF950
S3150800C6604FF4BC72214605F5D960C5F8BC46C5F835
S3150800C670C446C5F8B846C5F8C04673F05CF94FF429
S3150800C6803C72214605F5046073F055F94FF4BC7207
S3150800C690214605F53660C5F8304BC5F8484BC5F850
S3150800C6A0344BC5F8384BC5F83C4BC5F8404BC5F874
S3150800C6B0444BC5F84C4BC5F8504BC5F8544BC5F818
S3150800C6C0584BC5F85C4B73F036F94FF4BC722146EB
S3150800C6D005F6D84073F02FF92422214605F678701E
S3150800C6E0C5F8504EC5F8684EC5F8544EC5F8584EAC
S3150800C6F0C5F85C4EC5F8604EC5F8644EC5F86C4E74
S3150800C700C5F8704EC5F8744EC5F8784EC5F87C4E17
S3150800C710C6F80049C6F80449C6F80849C6F80C49D7
S3150800C720C6F81049C6F81449C5F89C4EC5F8A04E77
S3150800C730C5F8A44EC5F8A84EC5F8AC4EC5F8B44E13
S3150800C740C5F8B84EC5F8BC4EC5F8C04EC5F8C44EB7
S3150800C750C5F8CC4EC5F8984EC5F8B04EC5F8C84EC3
S3150800C760C5F8D04EC5F8D44EC5F8D84EC5F8DC4E37
S3150800C770C5F8E44EC5F8E84EC5F8EC4EC5F8F04ED7
S3150800C780C5F8F44EC5F8FC4EC5F8004FC5F8044F79
S3150800C790C5F8084FC5F80C4FC5F8144FC5F8184F1B
S3150800C7A0C5F81C4FC5F8204FC5F8244FC5F82C4FBF
S3150800C7B0C5F8304FC5F8344FC5F8384FC5F83C4F63
S3150800C7C0C5F8444FC5F8484FC5F84C4FC5F8504F03
S3150800C7D0C5F8E04EC5F8F84EC5F8104FC5F8284F0D
S3150800C7E0C5F8404FC5F8544FC5F86C4FC5F8744F97
S3150800C7F0C5F8584FC5F8684FC5F8704FC5F85C4F6F
S3150800C800C5F8604FC5F8644F73F095F84022214685
S3150800C81005F6DC7006F52869C5F8B84FC5F8C04FA7
S3150800C820C5F8C84FC5F8D04FC5F8D84FC5F89C4FBE
S3150800C830C5F8A84FC5F8B44FC5F8BC4FC5F8C44FDE
S3150800C840C5F8CC4FC5F8D44FC5F8A04FC5F8A44FC6
S3150800C850C5F8AC4FC5F8B04F73F06DF840222146C5
S3150800C86006F69C2073F067F8C822214606F626309D
S3150800C870C9F86E40C9F87E40C9F89640C6F8E04A3D
S3150800C880C6F8E84AC6F8F24AC6F8F64AC6F8FA4AB0
S3150800C890C6F8024BC6F8064BC6F80A4BC9F88E40CE
S3150800C8A0C6F81A4BC6F8124BC6F81E4BC6F8224BEA
S3150800C8B0C9F85C40C9F8644073F03DF86422214623
S3150800C8C006F61640C9F86E41C9F88241C6F8F24B19
S3150800C8D0C6F8F64BC6F8FA4BC6F8FE4BC6F8064C31
S3150800C8E0C6F80A4CC6F80E4CC6F8124C73F023F874
S3150800C8F02022214606F6A240C9F8FA41C9F80E4296
S3150800C900C6F87E4CC6F8824CC6F8864CC6F88A4CE1
S3150800C910C6F8924CC6F8964CC6F89A4CC6F89E4C81
S3150800C92073F009F82022214606F65C50C9F84242FF
S3150800C930C9F87642C6F8C64CC6F8CA4CC6F8CE4CF4
S3150800C940C9F85A42C9F86242C6F8DE4CC6F8E64C3F
S3150800C950C9F86E42C6F8FA4CC6F8F24CC6F8FE4C50
S3150800C960C6F8024DC9F88642C9F88E42C6F80A4D7D
S3150800C970C6F8124DC9F89642C9F89E42C6F81A4D2D
S3150800C980C6F8224DC9F8A642C9F8AE42C6F82A4DDD
S3150800C990C6F8324DC9F8B642C9F85242C6F83A4DF9
S3150800C9A0C9F85642C9F86A42C9F8BE42C6F8424DA5
S3150800C9B0C9F8C642C9F8CE42C6F84A4DC6F8524D1D
S3150800C9C0A9F8D64272F0B7FF21464FF4BC7206F6B4
S3150800C9D03C60C6F8804DC6F8884DC6F8904DC6F836
S3150800C9E0944DC6F8984DC6F89C4DC6F8A44DC6F8A1
S3150800C9F0A84DC6F8AC4DC6F8B04DC6F8B84DC6F841
S3150800CA00BC4DC6F8C04DC6F8C44DC6F8CC4DC6F8E0
S3150800CA10D04DC6F8D44DC6F8D84DC6F8E04DC6F880
S3150800CA20E44DC6F8E84DC6F8EC4DC6F8F44DC6F820
S3150800CA30F84DC9F8FC42C9F80443C9F80C43C9F8CB
S3150800CA402043C9F83443C9F84843C9F85C43C9F8D0
S3150800CA507043C6F8FC4DC9F88443C9F89843C6F82C
S3150800CA60304EC6F8384EC6F8004EC6F8084EC6F818
S3150800CA700C4EC6F8104EC6F8144EC6F81C4EC6F82C
S3150800CA80204EC6F8244EC6F8284EC9F8AC43C9F855
S3150800CA90B44372F050FFABF580531A4683ED06ABEC
S3150800CAA083ED0EAB83ED10AB83F848809C8483F846
S3150800CAB02C405C63984B1360984B936006F57D6336
S3150800CAC0C9F83C45C9F84C45C9F85445C6F8C44F99
S3150800CAD0C6F8C84F83ED009A06F6D87383ED009A18
S3150800CAE006F6DC7383ED009A06F57E6383ED009AFD
S3150800CAF006F6E8731546C6F8B84FC9F87045C6F87D
S3150800CB00C04FC6F8F44FC6F8F84FC6F8FC4F83ED89
S3150800CB10009A06F6EC764FF08073C2F82D30C9F805
S3150800CB203445C9F86445C9F88045C9F8844586ED91
S3150800CB30009A6AF09DF87A4BC5F8C833794BC5F860
S3150800CB402434794BC5F8003440F20113A5F8BC33F8
S3150800CB5005F2044383ED009A05F5816383ED009A97
S3150800CB6005F20C4383ED009A05F5826383ED009A7E
S3150800CB7005F2144383ED009A05F5836383ED009A65
S3150800CB8005F21C4383ED009A05F58463C5E9F8446C
S3150800CB90C5F8C44385F8BE43C5F8C04385EDF39A86
S3150800CBA085EDF49A85EDF59A85EDF69A85EDF79A71
S3150800CBB0C5F8E84385EDFB9A85EDFC9A85EDFD9A67
S3150800CBC0C5F8F843C5F8FC4383ED009A6AF0DCFC27
S3150800CBD0564BCBF848340133CBF8503405F23C7346
S3150800CBE0CBF8583405F5A65205F5A353ABF84C44D3
S3150800CBF0ABF85444ABF85C4425461D701D815B6058
S3150800CC000C339342F9D1BBF80C35494CCBF8C054D8
S3150800CC1023F4FF4323F07F03ABF80C35DBF8D0345D
S3150800CC20CBF8C45403F06043CBF8D034DBF80C35AA
S3150800CC30CBF8E0540BF59962C3F30E03CBF80C3529
S3150800CC40002313602246002642F8603F0192394AC3
S3150800CC50CBF8082500228BF8D3240BF2E4424FF0D8
S3150800CC60704713600122CBF8E8240BF2EC42C4E9C2
S3150800CC700E6713600BF2F44244E9026713600BF285
S3150800CC802452236413600BF5A562CBF8F0541360A5
S3150800CC900BF23C52CBF8F85413600BF24452CBF823
S3150800CCA010551360CBF82C55CBF83055CBF83455C6
S3150800CCB0CBF83855C4E90867DBF84835DFF878C09B
S3150800CCC0CBF84C5503F07F434FF4A06200210BF2DA
S3150800CCD07C5020260027CBF84835C4E924678BF812
S3150800CCE04B55CBF85455CBF85855CBF85C55CBF883
S3150800CCF06455CBF86855CBF87855CBF850C5002560
S3150800CD0072F019FE04F19C0204F29C5104F5B1601C
S3150800CD1013462C4615E000BFEC2B0A0898240A088F
S3150800CD20D42B0A08AC580010AC2A0A085A55001029
S3150800CD30E0140010BC2B0A08042B0A081433994285
S3150800CD400AD09342FAD38342F8D81C601C4614339F
S3150800CD5099424FF00105F4D10DB1CBF87845E64B71
S3150800CD600022A3F81023E54B8BF8802A002103F54F
S3150800CD70D87003F8102C23F80F2C43F80C1C43F832
S3150800CD80081C43F8042C1961C3E9002224338342A2
S3150800CD90EFD18BF8382CDA4A002302F8243B01330A
S3150800CDA00C2BFAD1D74BD84E9FEDE88A9FEDCE9B38
S3150800CDB003F5E46200245C6183ED1E9B9C619C6024
S3150800CDC09C62DC60DC621C61DC64DC611C651C62E4
S3150800CDD01C665C629C639C64DC655C6683F86840E0
S3150800CDE083F86940DE6683ED1C8A83ED208A83F822
S3150800CDF08C40C3E90C44C3E91044C3E91544C3E9AC
S3150800CE002144C3F89040C3E9004498339A42D2D1EA
S3150800CE10BE4DDFF834A385F860430021282205F5C6
S3150800CE205A7072F088FDBA4BC5F898339FEDB07BFF
S3150800CE3030339FEDC60AC5F8B83305F56C7203237F
S3150800CE4005F5667085EDEA7B85EDEC7BC5E9F6446C
S3150800CE50C5F8C063A5F8904385F8924385F8A043C2
S3150800CE6085F8A443A5F8E04385F89C3302F5CF5925
S3150800CE7085EDF29B85EDFA9B85EDEF8A85EDF48AC3
S3150800CE8085EDF58AFCF7DCFB05F2144383ED008A91
S3150800CE9005F5836383ED008A05F58463002783ED32
S3150800CEA0008A05F2244383ED008A4FF48C6205F26A
S3150800CEB02C43394605F5876083ED008AC5F80C448E
S3150800CEC0C5F80044C5F80844C5F81044C5F81C441C
S3150800CED0C5F82844C5F83044C5F8344485EDFC9BAC
S3150800CEE085EDFE9B72F027FD4FF48C62394605F6F8
S3150800CEF07C20C5F8984872F01EFD05F6DC6383EDC4
S3150800CF00008A05F56E6305F580564FF001084FF463
S3150800CF10007283ED008A394605F6E46305F6EC608F
S3150800CF2083ED008A85F8E88E72F005FD794BC6F820
S3150800CF301031C6F82C31784BC6F8FC30774BC6F85A
S3150800CF40F830774BC6F81431764BC6F830314FF4C3
S3150800CF5000037549C6F8EC3006F5F8704FF0FF3354
S3150800CF60C6E95544C6E97044C6E97244C6E974443C
S3150800CF70C6E97644C6F8F04086F8F440C6F8284173
S3150800CF8086F84C4186F85C41C6F84831C6F84481B3
S3150800CF9086ED548A86ED788A86ED798A86ED7A8AD0
S3150800CFA086ED7B8AFEF768F93A46604BC6F8F0319B
S3150800CFB0394606F53670C6E9B244C6E9B784C6E905
S3150800CFC0E3A486F8D042C6F8E44244F003FB584985
S3150800CFD006F52360FEF750F9564B5749C6F8303A1E
S3150800CFE006F608301C46FEF747F95449C6F8084BBA
S3150800CFF005F5DF50FEF740F94F49C6F8E04B06F64F
S3150800D000B840FEF739F9C6F8B84C0022C9E92DA789
S3150800D010C9F80480A9F8087089F80A70C9F80C706C
S3150800D0204846114644F0D6FA454B09F5EB694B4597
S3150800D030EBD103F50C66C5F80874C5F80C744FF007
S3150800D0400008A6F5A0654FF070493E483772C6E954
S3150800D0500777C6E90089C6E90489002442F098F8EA
S3150800D060A5F5F55048F09CFE4FF0000A06F194002D
S3150800D07030222146C6F840A0C6F844A0C6F848A003
S3150800D080C6F84CA0C6F854A0C6F868A0C6F86CA0A6
S3150800D090C6F870A0C6F87CA0C6F880A0A5F82875C2
S3150800D0A0C5F83C75C5F85075C5F85875C5F85C756A
S3150800D0B0C5F86075C5F86475C5F87475C5F87875EA
S3150800D0C0C5F88475C5F88875A5F8907572F033FCAF
S3150800D0D0C6F8C870C6E93689C6E93A89C6F8CCA042
S3150800D0E036E000BFAFF3008000000000000000F04B
S3150800D0F0000000000000000000000010981A001050
S3150800D100891A0010401C00100000C07F0020001083
S3150800D110142B0A089C2B0A08A8240A08AC2B0A0810
S3150800D120B0240A08B8240A08C0240A085C2B0A088E
S3150800D130C4240A08842B0A08D0240A08DC240A080E
S3150800D140404C0010F0310010742B0A080000000053
S3150800D150C6F8D0A006F1F003C5F8C47506F51C7626
S3150800D160C3E900891C811033B342F9D11FED098A3E
S3150800D170CF4FC5F8704705F5EF6383ED008A05F2D2
S3150800D1807C73302283ED008A002105F2B47305F51D
S3150800D190F760C5F8E045A5F8E44587ED008A83ED14
S3150800D1A0008A72F0C8FB05F5FD6383ED008A05F574
S3150800D1B0FF6383ED008A05F2FC739FEDB79B83ED51
S3150800D1C0008A012105F6040385F8281883ED008AEC
S3150800D1D0B84985F8204805F6080383ED008A05F660
S3150800D1E00C0387ED249B87ED269B87ED208A83ED2C
S3150800D1F0008A009101F5F07842F002FBAE4ADFF8AA
S3150800D2006CA3DFF86C93AD4ECAF80060C7E91C0141
S3150800D210A7F5AF4387ED309BA94FAA481060386041
S3150800D220A948DFF850A3C9F800A0A0F2C46E8EED95
S3150800D230008ADFF844E3DFF84493CEF8009005F55A
S3150800D240036989ED008A05F6480989ED008A05F61D
S3150800D2504C0989ED008A05F5056989ED008A9FED77
S3150800D2609B7AC5F8384505F65409C5F83448C5F813
S3150800D2703848C5F83045F7EE007A0BF2445189ED87
S3150800D280008A05F28C5905F23455C0ED007AC1EDD5
S3150800D290007A89ED007AC5ED007A9FED817BA3F8C7
S3150800D2A0384B2425019B3D712325157183ED008A92
S3150800D2B01472147380ED028A87ED069B3C723C73E8
S3150800D2C087ED047B9FED787BDFF8B4B2804BDFF8FF
S3150800D2D0B4C2DFF8B4E27F4E7F498048CBF80060DD
S3150800D2E082ED047B82ED069B7D4A7E4EC2F800E005
S3150800D2F0C2E90144DFF894A27B4A9E604FF07609A2
S3150800D300FF251C61CCE900CCC3F81340CCF80840D3
S3150800D3105D75DC605C601A60CBF83893CBF844A383
S3150800D3208BF83C436AF006F9704971486AF002F9CD
S3150800D330009E304678366AF013F9B045F9D1DFF821
S3150800D34050C26C4B6C4FDFF84C826C4ECCF81C808C
S3150800D35000254FF07E59CCE90035CCE90255CCF8CA
S3150800D3601090CCF81490CCF81890DFF82CC2C7F8B7
S3150800D3701CC0634CC7F81090C7E90035C7E90255C9
S3150800D380C7F81490C7F818905E4F5F4AF761C6E968
S3150800D3900035C6E90255C6F81090C6F81490C6F8C6
S3150800D3A018905A4EDFF8F4E1E661C4E90035C4E99D
S3150800D3B00255574BC4F81090C4F81490C4F8189046
S3150800D3C0544CC2F800E05449D461C2E901555348A7
S3150800D3D0D560C2F81090C2F81490C2F81890504A56
S3150800D3E0C3F800E0DA61C3E90155DD60C3F81090BF
S3150800D3F0C3F81490C3F818906AF09CF849494A484B
S3150800D4004A4CDFF89C81DFF89CA1494F494E6AF0E7
S3150800D41091F8494949486AF08DF8494949486AF0F6
S3150800D42089F8494B494A4A4911601C601031494CF0
S3150800D4309161C2F85C434FF47F41474C9982198445
S3150800D44099855C60454946481D72DD601D745D829C
S3150800D4509D759D611D77DD8383F822505D6283F893
S3150800D46028505D8583F82E504FF0000B8523C2E9BE
S3150800D4700155D560958282F85453C2F810B0C2F8A7
S3150800D48050336AF057F8374937486AF053F808F5C1
S3150800D490B06489E0AFF300800000000000000000DF
S3150800D4A000093D000000000080841E000000000006
S3150800D4B080570010C888002058480020282C0A08E1
S3150800D4C038480020C41F0A083C0B001000003444EA
S3150800D4D0788B0120502C0A08F4240A08D8870020E3
S3150800D4E0288D0120FC7F090894320A08FC240A08C2
S3150800D4F05088002074340A0818970120F8960120ED
