S01400006275696C642F7275736566692E7372656343
S3150800800010100020B983000811E60208F983000859
S315080080101D840008F88300080B840008E37578FDC2
S3150800802018C80900B3830008B3830008793C01081F
S31508008030B3830008B3830008B3830008354C0108EE
S31508008040B3830008B3830008194B0108914B010854
S31508008050B3830008B3830008C9960408D1960408B8
S31508008060D9960408E1960408E99604086D400108C3
S31508008070A5400108E14001081D41010859410108D0
S3150800808091410108CD410108F53C01084D3F010821
S31508008090713F0108953F0108B93F0108F1960408A8
S315080080A0B3830008654E0108B3830008894E0108AA
S315080080B0214D01088D4E0108B14E01082D96040880
S315080080C0B38300081D44010855450108B383000819
S315080080D0B3830008B3830008C1500108E5500108BE
S315080080E015970408D94B0108B3830008B383000821
S315080080F0F94E0108B38300081D4F0108094201081B
S31508008100B3830008B3830008D54E0108B38300087B
S31508008110B3830008B3830008C14C0108B383000881
S31508008120454201087D420108B9420108F5420108A5
S3150800813031430108B3830008B3830008DD3F010813
S315080081400140010825400108494001086D4601081B
S3150800815069430108A5430108E1430108214F0108C5
S31508008160B3830008B3830008B3830008B383000809
S31508008170B3830008B3830008B3830008B3830008F9
S31508008180B3830008B3830008B3830008B3830008E9
S31508008190B3830008B3830008B3830008B3830008D9
S315080081A0B3830008B3830008B3830008B3830008C9
S315080081B0B3830008B3830008B3830008B3830008B9
S315080081C0B3830008B3830008B3830008B3830008A9
S315080081D0B3830008B3830008B3830008B383000899
S315080081E001C90008C1B0070800000000000000002F
S315080081F001F0FF01102A2BDB10F0070F08D010F84A
S31508008200013B013A8B422DD010F0070F42B3F6D14D
S31508008210F0B441EA012141EA014122F007047FF066
S3150800822000070023F0E80256083C85EA010586EABD
S31508008230010685FA47F5A3FA87F586FA47F6A5FAF9
S3150800824087F68EB9EED1F0BC01F0FF0102F0070205
S3150800825032B110F8013B013A83EA010313B1F8D1B0
S315080082600020704701387047002D06BF3546033891
S31508008270073815F0010F07D1013015F4807F02BFCA
S31508008280013015F4C03F0130F0BC0138704700BF1B
S3150800829072B6394880F30888384880F30988384820
S315080082A04EF60851CEF20001086040F20000CCF20A
S315080082B000004EF63471CEF200010860BFF34F8F0E
S315080082C0BFF36F8F40F20000C0F2F0004EF68851FF
S315080082D0CEF200010860BFF34F8FBFF36F8F4FF0E8
S315080082E00000E1EE100A4EF63C71CEF2000108607D
S315080082F0062080F31488BFF36F8F07F0F1FD24F092
S3150800830023FA4FF055301F491B4A91423CBF41F8AA
S31508008310040BFAE71C49194A91423CBF41F8040B81
S31508008320FAE71A491A4A1B4B9A423EBF51F8040B00
S3150800833042F8040BF8E700201749184A91423CBF57
S3150800834041F8040BFAE707F0CFFD47F0D7F8144CCD
S31508008350144DAC4203DA54F8041B8847F9E76DF06C
S315080083605BFA114C114DAC4203DA54F8041B8847EA
S31508008370F9E707F0B7BD000010100020101600201E
S31508008380008000081000002010100020D0430A08C2
S3150800839010160020581A0020581A0020DC1802204F
S315080083A0E0810008E4810008E4810008E88100080B
S315080083B06EE700F000F8FEE70A480B49026800601D
S315080083C08A4201D0FFF764FF08484FF480410160F4
S315080083D007484FF0010101600648D0F800D0406810
S315080083E000470000F0FF0120EFBEADDE4438024032
S315080083F0003801400000FF1F1EF0040F0CBFEFF30A
S315080084000880EFF3098026F007B91EF0040F0CBFA9
S31508008410EFF30880EFF3098026F046B91EF0040F43
S315080084200CBFEFF30880EFF3098026F089B900BF87
S31508008430EC46A0E8F05F4FF000007047B0E8F05F48
S31508008440E546080008BF0120704700BF81F00041DB
S3150800845002E000BF83F0004330B54FEA41044FEA1B
S31508008460430594EA050F08BF90EA020F1FBF54EAB6
S31508008470000C55EA020C7FEA645C7FEA655C00F052
S31508008480E2804FEA5454D4EB5555B8BF6D420CDD23
S315080084902C4480EA020281EA030382EA000083EAA6
S315080084A0010180EA020281EA0303362D88BF30BD46
S315080084B011F0004F4FEA01314FF4801C4CEA11319C
S315080084C002D0404261EB410113F0004F4FEA0333FB
S315080084D04CEA133302D0524263EB430394EA050F86
S315080084E000F0A780A4F10104D5F1200E0DDB02FAF5
S315080084F00EFC22FA05F2801841F1000103FA0EF289
S31508008500801843FA05F359410EE0A5F120050EF14E
S31508008510200E012A03FA0EFC28BF4CF0020C43FA7F
S3150800852005F3C01851EBE37101F0004507D54FF08C
S31508008530000EDCF1000C7EEB00006EEB0101B1F5DC
S31508008540801F1BD3B1F5001F0CD349085FEA300022
S315080085504FEA3C0C04F101044FEA445212F5800F2D
S3150800856080F09A80BCF1004F08BF5FEA500C50F1CA
S31508008570000041EB045141EA050130BD5FEA4C0CAD
S31508008580404141EB0101013C28BFB1F5801FE9D20A
S3150800859091F0000F04BF01460020B1FA81F308BF2D
S315080085A02033A3F10B03B3F120020CDA0C3208DDF9
S315080085B002F1140CC2F10C0201FA0CF021FA02F1D4
S315080085C00CE002F11402D8BFC2F1200C01FA02F144
S315080085D020FA0CFCDCBF41EA0C019040E41AA2BF69
S315080085E001EB0451294330BD6FEA04041F3C1CDA31
S315080085F00C340EDC04F11404C4F1200220FA04F051
S3150800860001FA02F340EA030021FA04F345EA0301FA
S3150800861030BDC4F10C04C4F1200220FA02F001FABC
S3150800862004F340EA0300294630BD21FA04F029463E
S3150800863030BD94F0000F83F4801306BF81F48011D7
S315080086400134013D4EE77FEA645C18BF7FEA655C4A
S3150800865029D094EA050F08BF90EA020F05D054EA1C
S31508008660000C04BF1946104630BD91EA030F1EBF21
S315080086700021002030BD5FEA545C05D14000494125
S3150800868028BF41F0004130BD14F580043CBF01F518
S31508008690801130BD01F0004545F0FE4141F47001FE
S315080086A04FF0000030BD7FEA645C1ABF19461046D9
S315080086B07FEA655C1CBF0B46024650EA013406BFDA
S315080086C052EA033591EA030F41F4002130BD00BF99
S315080086D090F0000F04BF0021704730B54FF4806456
S315080086E004F132044FF000054FF0000150E700BFD7
S315080086F090F0000F04BF0021704730B54FF4806436
S3150800870004F1320410F0004548BF40424FF0000122
S315080087103EE700BF42004FEAE2014FEA31014FEA65
S3150800872002701FBF12F07F4393F07F4F81F06051B4
S31508008730704732F07F4208BF704793F07F4F04BFFF
S3150800874041F40021704730B54FF4607401F00045DC
S3150800875021F000411CE700BF50EA010208BF70473C
S3150800876030B54FF000050AE050EA010208BF70472D
S3150800877030B511F0004502D5404261EB41014FF496
S31508008780806404F132045FEA915C3FF4D8AE4FF09E
S3150800879003025FEADC0C18BF03325FEADC0C18BF81
S315080087A0033202EBDC02C2F1200300FA03FC20FAD2
S315080087B002F001FA03FE40EA0E0021FA02F114441F
S315080087C0BDE600BF70B54FF0FF0C4CF4E06C1CEA38
S315080087D011541DBF1CEA135594EA0C0F95EA0C0FA9
S315080087E000F0DEF82C4481EA030621EA4C5123EA1C
S315080087F04C5350EA013518BF52EA033541F480114B
S3150800880043F4801338D0A0FB02CE4FF00005E1FBFD
S3150800881002E506F00042E0FB03E54FF00006E1FB47
S3150800882003569CF0000F18BF4EF0010EA4F1FF048A
S31508008830B6F5007F64F5407404D25FEA4E0E6D41CA
S3150800884046EB060642EAC62141EA55514FEAC520DB
S3150800885040EA5E504FEACE2EB4F1FD0C88BFBCF557
S31508008860E06F1ED8BEF1004F08BF5FEA500E50F108
S31508008870000041EB045170BD06F0004646EA0101CE
S3150800888040EA020081EA0301B4EB5C04C2BFD4EB00
S315080088900C0541EA045170BD41F480114FF0000EF9
S315080088A0013C00F3AB8014F1360FDEBF002001F067
S315080088B0004170BDC4F10004203C35DA0C341BDCE1
S315080088C004F11404C4F1200500FA05F320FA04F0B3
S315080088D001FA05F240EA020001F0004221F00041E7
S315080088E010EBD37021FA04F642EB06015EEA430E5A
S315080088F008BF20EAD37070BDC4F10C04C4F120058A
S3150800890000FA04F320FA05F001FA04F240EA02003C
S3150800891001F0004110EBD37041F100015EEA430E0D
S3150800892008BF20EAD37070BDC4F1200500FA05F22D
S315080089304EEA020E20FA04F301FA05F243EA0203AC
S3150800894021FA04F001F0004121FA04F220EA0200BB
S3150800895000EBD3705EEA430E08BF20EAD37070BD01
S3150800896094F0000F0FD101F00046400041EB0101E1
S3150800897011F4801F08BF013CF7D041EA060195F0C3
S31508008980000F18BF704703F00046520043EB03037D
S3150800899013F4801F08BF013DF7D043EA060370476A
S315080089A094EA0C0F0CEA135518BF95EA0C0F0CD075
S315080089B050EA410618BF52EA4306D1D181EA0301BB
S315080089C001F000414FF0000070BD50EA410606BFB5
S315080089D01046194652EA430619D094EA0C0F02D1FA
S315080089E050EA013613D195EA0C0F05D152EA03363F
S315080089F01CBF104619460AD181EA030101F000415D
S31508008A0041F0FE4141F470014FF0000070BD41F0A5
S31508008A10FE4141F4780170BD70B54FF0FF0C4CF47F
S31508008A20E06C1CEA11541DBF1CEA135594EA0C0F9E
S31508008A3095EA0C0F00F0A7F8A4EB050481EA030EEB
S31508008A4052EA03354FEA013100F088804FEA0333D2
S31508008A504FF0805545EA131343EA12634FEA0222A0
S31508008A6045EA111545EA10654FEA00260EF0004161
S31508008A709D4208BF964244F1FD0404F5407402D2B3
S31508008A805B084FEA3202B61A65EB03055B084FEA44
S31508008A9032024FF480104FF4002CB6EB020E75EB41
S31508008AA0030E22BFB61A754640EA0C005B084FEA69
S31508008AB03202B6EB020E75EB030E22BFB61A7546E6
S31508008AC040EA5C005B084FEA3202B6EB020E75EB31
S31508008AD0030E22BFB61A754640EA9C005B084FEAA9
S31508008AE03202B6EB020E75EB030E22BFB61A7546B6
S31508008AF040EADC0055EA060E18D04FEA051545EAA5
S31508008B0016754FEA06164FEAC30343EA52734FEA4D
S31508008B10C2025FEA1C1CC0D111F4801F0BD141EAC6
S31508008B2000014FF000004FF0004CB6E711F4801F2B
S31508008B3004BF01430020B4F1FD0C88BFBCF5E06F0B
S31508008B403FF6AFAEB5EB030C04BFB6EB020C5FEA1B
S31508008B50500C50F1000041EB045170BD0EF0004E70
S31508008B604EEA113114EB5C04C2BFD4EB0C0541EAA2
S31508008B70045170BD41F480114FF0000E013C90E69F
S31508008B8045EA060E8DE60CEA135594EA0C0F08BF63
S31508008B9095EA0C0F3FF43BAF94EA0C0F0AD150EA62
S31508008BA001347FF434AF95EA0C0F7FF425AF1046F5
S31508008BB019462CE795EA0C0F06D152EA03353FF41D
S31508008BC0FDAE1046194622E750EA410618BF52EA9A
S31508008BD043067FF4C5AE50EA41047FF40DAF52EA6E
S31508008BE043057FF4EBAE12E74FF0FF3C06E000BF0B
S31508008BF04FF0010C02E000BF4FF0010C4DF804CD18
S31508008C004FEA410C7FEA6C5C4FEA430C18BF7FEAD7
S31508008C106C5C1BD001B050EA410C0CBF52EA430C05
S31508008C2091EA030F02BF90EA020F0020704710F185
S31508008C30000F91EA030F58BF994208BF90422CBF14
S31508008C40D8176FEAE37040F0010070474FEA410C0D
S31508008C507FEA6C5C02D150EA013C07D14FEA430C2B
S31508008C607FEA6C5CD6D152EA033CD3D05DF8040B9C
S31508008C70704700BF8446104662468C4619466346CE
S31508008C8000E000BF01B5FFF7B7FF002848BF10F1A5
S31508008C90000F01BD4DF808EDFFF7F4FF0CBF0120EA
S31508008CA000205DF808FB00BF4DF808EDFFF7EAFF66
S31508008CB034BF012000205DF808FB00BF4DF808ED21
S31508008CC0FFF7E0FF94BF012000205DF808FB00BF16
S31508008CD04DF808EDFFF7CEFF94BF012000205DF8A0
S31508008CE008FB00BF4DF808EDFFF7C4FF34BF0120AD
S31508008CF000205DF808FB00BF4FEA410C7FEA6C5C78
S31508008D0002D150EA013C0AD14FEA430C7FEA6C5C77
S31508008D1002D152EA033C02D14FF0000070474FF0EF
S31508008D20010070474FEA410212F5001215D211D51B
S31508008D306FF47873B3EB625212D94FEAC12343F04A
S31508008D40004343EA505311F0004F23FA02F018BFCC
S31508008D50404270474FF00000704750EA013005D195
S31508008D6011F0004008BF6FF0004070474FF0000058
S31508008D70704700BF4FEA4102B2F1E04324BFB3F5A2
S31508008D80001CDCF1FE5C0DD901F0004C4FEAC00274
S31508008D904CEA5070B2F1004F40EB830008BF20F058
S31508008DA00100704711F0804F21D113F13872BCBF12
S31508008DB001F00040704741F480114FEA5252C2F167
S31508008DC01802C2F1200C10FA0CF320FA02F018BFB0
S31508008DD040F001004FEAC1234FEAD32303FA0CFC03
S31508008DE040EA0C0023FA02F34FEA4303CCE77FEA92
S31508008DF0625307D150EA01331EBF4FF0FE4040F4DC
S31508008E004000704701F0004040F0FE4040F400008A
S31508008E10704700BF80F0004002E000BF81F00041CB
S31508008E2042001FBF5FEA410392EA030F7FEA226C02
S31508008E307FEA236C6AD04FEA1262D2EB1363C1BF92
S31508008E40D218414048404140B8BF5B42192B88BF01
S31508008E50704710F0004F40F4000020F07F4018BF24
S31508008E60404211F0004F41F4000121F07F4118BF44
S31508008E70494292EA030F3FD0A2F1010241FA03FCEC
S31508008E8010EB0C00C3F1200301FA03F100F00043D4
S31508008E9002D5494260EB4000B0F5000F13D3B0F19C
S31508008EA0807F06D340084FEA310102F10102FE2A0B
S31508008EB051D2B1F1004F40EBC25008BF20F001007B
S31508008EC040EA03007047490040EB0000013A28BF1A
S31508008ED0B0F5000FEDD2B0FA80FCACF1080CB2EB9D
S31508008EE00C0200FA0CF0AABF00EBC250524218431B
S31508008EF0BCBFD0401843704792F0000F81F40001C0
S31508008F0006BF80F400000132013BB5E74FEA410392
S31508008F107FEA226C18BF7FEA236C21D092EA030FFE
S31508008F2004D092F0000F08BF0846704790EA010F78
S31508008F301CBF0020704712F07F4F04D1400028BFA5
S31508008F4040F00040704712F100723CBF00F5000087
S31508008F50704700F0004343F0FE4040F400007047BD
S31508008F607FEA226216BF08467FEA23630146420269
S31508008F7006BF5FEA412390EA010F40F4800070477C
S31508008F804FF0000304E000BF10F0004348BF404222
S31508008F905FEA000C08BF704743F0964301464FF05E
S31508008FA000001CE050EA010208BF70474FF00003BA
S31508008FB00AE000BF50EA010208BF704711F00043FB
S31508008FC002D5404261EB41015FEA010C02BF8446CB
S31508008FD00146002043F0B64308BFA3F18053A3F52A
S31508008FE00003BCFA8CF2083AA3EBC25310DB01FA71
S31508008FF002FC634400FA02FCC2F12002BCF1004FF5
S3150800900020FA02F243EB020008BF20F00100704785
S3150800901002F1200201FA02FCC2F1200250EA4C00D9
S3150800902021FA02F243EB020008BF20EADC7070471F
S315080090307BB972B90029BEBF00204FF0004106E097
S3150800904008BF00281CBF6FF000414FF0FF3000F04A
S3150800905057B8ADF1080C6DE904CE002909DB002BE1
S315080090601ADB76F021FCDDF804E0DDE9022304B022
S315080090707047404261EB4101002B1BDB76F014FC84
S31508009080DDF804E0DDE9022304B0404261EB41016A
S31508009090524263EB43037047524263EB430376F055
S315080090A003FCDDF804E0DDE9022304B0404261EB8D
S315080090B041017047524263EB430376F0F5FBDDF856
S315080090C004E0DDE9022304B0524263EB4303704730
S315080090D053B94AB9002908BF00281CBF4FF0FF3111
S315080090E04FF0FF3000F00CB8ADF1080C6DE904CE76
S315080090F076F0DAFBDDF804E0DDE9022304B0704718
S31508009100704700BF2DE9F04F2DED108AC1F80CD03D
S31508009110C3689D46BDEC108ABDE8F08F07F066F877
S31508009120002383F311882846A047002008F056FB41
S31508009130FEE707F0F3F908F0C9FA07F057F800DF79
S31508009140FEE710F8012B11F8013B012A28BF9A42C5
S31508009150F7D0D01A7047034613F8012B002AFBD123
S31508009160181A01387047000070B586B00C461146CB
S315080091701A46114B0093054674B1631ECDE90103E7
S3150800918000266846CDE903660BF0BEFF039BA342A3
S3150800919000D2EE5406B070BD9FED057B019068467F
S315080091A08DED027B04940BF0AFFF06B070BD00BFD7
S315080091B000000000000000004C0508080000000040
S315080091C02DE9F04759EC108B3D4B002240464946A5
S315080091D0FFF77EFD002867D035A5D5E90045384F4D
S315080091E04FF0000A00260CE0FFF716FC8046894679
S315080091F032463B46404649460AF1050AFFF768FDEE
S31508009200E8B1494622462B464046FFF761FD8446AB
S3150800921022462B4640464946BCF1000FE4D1324669
S315080092203B46FFF7F9FB8046894632463B464046B1
S3150800923049460AF1010AFFF74BFD0028E1D1214B07
S31508009240002240464946FFF72FFD50B31AA5D5E937
S31508009250004517A7D7E900670CE0FFF7B3FAAAF1AC
S31508009260050A80468946174B002240464946FFF7BD
S315080092701BFDB0B1494622462B464046FFF714FD72
S31508009280844632463B4640464946BCF1000FE4D187
S315080092900B4B0022FFF796FA0AF1FF3A80468946F9
S315080092A0E1E75046BDE8F0878246C8E7AFF300809D
S315080092B000000000006AF84000000080B5F8E43EAF
S315080092C0000024400000F03F2DE9F047B0F1000A05
S315080092D02D4D4FF0000426DD29A7D7E90067DFF8F2
S315080092E0AC904FF00008BAF1040F204629463246E2
S315080092F03B460CDDFFF766FAAAF1050A04460D4659
S31508009300BAF1000FEFD145EC104BBDE8F0874246A5
S315080093104B46FFF757FA0AF1FF3A04460D46BAF1EB
S31508009320000FE0D1EFE7EED015A7D7E900671AF1ED
S31508009330040FDFF858904FF00008204629463246B9
S315080093403B460FDAFFF768FB0AF1050A04460D46A5
S31508009350BAF1000FD7D01AF1040F20462946324633
S315080093603B46EFDB42464B46FFF756FB0AF1010A3E
S3150800937004460D46BAF1000FEDD1C4E7AFF30080FD
S3150800938000000000006AF8400000F03F000024409A
S3150800939070B5C66984B0044630460D4613F0D2FE51
S315080093A0204613F0C1FB204613F00CFC9FED087B0A
S315080093B003462946304607246A468DED027B8DF81A
S315080093C00040019313F04AFF04B070BDAFF300806C
S315080093D0FFFFFFFFFFFFFFFF2DE9F04FC768C669D4
S315080093E0D0F804802DED028B282F87B004460D4651
S315080093F072D040F223139F4240F0858014F0B6F9EC
S315080094009FED438B4FF0070A4FF00809E3683A2BA4
S3150800941014D008DD5B2B51D05A2B40DC07B0BDECCD
S31508009420028BBDE8F08F282B3ED02E2BF6D129468D
S315080094302046FFF7ADFFE3683A2BEAD1204613F042
S3150800944073FB204613F0BEFB2946039030468DED8C
S31508009450048B8DF808A013F053FE2B78D5F804B0CA
S31508009460082B4BD096F834706F600221304685F889
S31508009470009012F0EFFBBA1C02A986F834205B466E
S3150800948000913A461421304613F076FE9DF80830CE
S31508009490082B0DD10399304670F0B6FD08E07B2BFA
S315080094A002D0B3F5927FB9D12946304613F00AFEA9
S315080094B042462946204614F0B3FFA7E72946304618
S315080094C013F040FE02A9204614F030F802AA2946F5
S315080094D0304613F0C3FE99E713F026FB294600220F
S315080094E0204615F0B3FB204643463A46292113F099
S315080094F03FFBE069294613F0F5FB81E759463046FC
S3150800950070F082FDAEE7044912F03CFBAFF3008031
S31508009510FFFFFFFFFFFFFFFF3413080800000000EE
S315080095200D4B9FED0B7B03F6080C03F61401002286
S315080095300020CCF800200A6003F5026202ED027BE7
S31508009540C3F80408C3F81008C3F82008704700BF1A
S3150800955000000000000000000000001000000000ED
S3150800956030B5012285B00C21044611F0C9FCE0B1E2
S315080095709FED117B0246124B043280ED017B02609F
S315080095800FCB6D4685E80F000E4B0F491A6820462B
S315080095900EF008FF00222946204621F03BFC204613
S315080095A06FF0B0FD012005B030BD20460EF0A4FED8
S315080095B0012005B030BD00BF00000000000000F02B
S315080095C00401080800A70020D8B9F0FF0000000031
S315080095D02DE9F04F2DED048B03689DB0DB689847A5
S315080095E0002800F098850368A94ADB6893428346F9
S315080095F040F08D850BF10D030693A64BDFF8C8A244
S3150800960098699FEDA58ADFEDA58A41F0F1FA7F28D2
S315080096109FED9D9B0BF10C0540F3F280DBF80030C3
S3150800962058461B6998470446002800F0B885DAF8BA
S3150800963020300133CAF82030DBF8003001225E689A
S315080096400DF123014FF47A735846B047012840F0CC
S3150800965023859DF82330542B15D8452B16D9463B20
S315080096600E2B13D8DFE813F0DB00120012001200ED
S315080096701200120012001200120012001200D3008B
S315080096801200D300EF00742B00F0DD80DBF8003009
S3150800969001225E6809A90A235846B047012840F006
S315080096A06B859DF823309DF8246046EA03263746E5
S315080096B007F1040936B2002F00F0FA8440F21E437F
S315080096C0994500F3F5849BF83034002B00F0AE83FF
S315080096D0DBF800304A46D3F8048029464FF47A73FB
S315080096E05846C04781459BF80C8040F03B8740466A
S315080096F03DF0A2FC8146002800F05987AB59324656
S31508009700002128461EBA64F0DBF9864240F0D98368
S3150800971001238BF83034242062F0EAF8022F9BF8F4
S315080097200C3040F3A483042FBBF80D6040F3A283EA
S31508009730BBF80F90A3F138023C2A3ED8DFE812F0B6
S315080097405A0307033D003D003D003D003D003D0036
S315080097503D00FC02CD02C8023D009C023D001102FC
S315080097603D003D003D003D0003023D003D00550122
S315080097703D003D002D011F0187003D00F001E2017B
S315080097803D003D0086013D003D003D003D00630172
S315080097903D003D0007013D003D00F2003D003D0053
S315080097A03D003D003D00C6008E003D003D003D00E9
S315080097B03D003D003D003D00870083215846059346
S315080097C067F0A0FB059B364A3648009350210BF0FC
S315080097D0F7FEDBF82C04334970F06AF8242062F0AF
S315080097E08BF831484246414646F046FD00242F4B49
S315080097F01C70284B986941F0FBF97F283FF70EAF9C
S315080098002B4A2C4941F6F42054F03CFDEEE72A4851
S3150800981046F032FD0021584667F056FBE7E7DBF8CD
S315080098202C14264A264846F027FDDBF80030254941
S315080098301E68584600230322B047DBF80030584616
S315080098409B689847D3E758463EF0C2FDCFE758468F
S315080098503EF0BEFD242062F04FF8C8E79BF80D30B5
S31508009860022B00F07F84032B00F05C84012BB5D11A
S3150800987062F08EF958463FF083FD242062F03CF8EA
S31508009880B5E700BFAFF30080FDA68FCF000000004C
S315080098905D460208B09700200024744900007A4407
S315080098A0A4B1080814580120D0B108089B18022052
S315080098B0DCAA0808A882080868AE080888AE08085E
S315080098C0A49C080898AE0808DC580120DAF8183075
S315080098D05A46013349463046CAF818303FF05CFD0F
S315080098E00746002840F0F88301464022C64876F02D
S315080098F056F9C6484A463946304464F0E1F800BA93
S315080099000C900CAA58460097042301213FF0EAFC64
S315080099100C9BBF484A46314646F0AEFC242061F00F
S31508009920EBFF64E7BB4BBC4E1A78BC4B002A18BF4A
S315080099301E463046FFF70FFC0121034632465846BD
S3150800994000913FF0CFFC242061F0D6FF4FE70121BC
S31508009950B348B44FB44E0091002302683B70C0E987
S315080099600033336058464FF400530C923FF0BAFC6C
S315080099700CA870F057F8242061F0BEFF37E7AB4A11
S31508009980DBF82C14AA4846F077FC5846012167F004
S315080099909BFA242061F0B0FF29E7DAF80830A548D9
S315080099A00133CAF8083032464B46002146F064FCBB
S315080099B05A46494630463FF0EFFC0746002840F035
S315080099C073829D4BB3F8C62C002A40F0DB8308331C
S315080099D01E444B46324600210091584601213FF06D
S315080099E081FC242061F088FF01E7012F934814BF0A
S315080099F04B464FF4E663324659463EF0F1FE2420C4
S31508009A0061F07AFFF3E68E4B1B78002B40F07183EA
S31508009A108C490B68002B40F0488302228A4E0A6064
S31508009A207F4B186808B100200860C3E900620CA8DB
S31508009A3000230C936FF0F6FF7A4B584601221A70F2
S31508009A403FF09EFC242061F057FFD0E6BBF80D805E
S31508009A50BBF80F707D487FBA98FA98F6B6B2BFB2CF
S31508009A603A46314646F008FC79484FF095FC202ED8
S31508009A7000F20382202E00F29F8301A353F826F0FA
S31508009A80CBA10008B9A10008B9A10008B9A100082E
S31508009A90B9A10008B9A10008B9A10008B9A1000830
S31508009AA0B9A10008B9A10008B9A10008B9A1000820
S31508009AB0B9A10008B9A10008B9A10008B9A1000810
S31508009AC0B9A10008D5A10008DFA100081DA2000859
S31508009AD0DDA200084DA3000857A30008B9A1000895
S31508009AE0B9A1000861A30008B9A10008B9A1000836
S31508009AF0B9A10008759800087FA300088FA300087D
S31508009B009FA3000831460BF10F030122584667F060
S31508009B1029FA504845F058FF242061F0EDFE66E624
S31508009B205AF0D0FB0DF130094B4B4C4A00902021DE
S31508009B308DED029B48460BF043FD4846FFF70BFBAD
S31508009B404A46431C47E70123002200925846194615
S31508009B500CAA8DF830303FF0C5FB242061F0CCFE0E
S31508009B6045E6DAF824303E4E334FB26A0133CAF876
S31508009B702430D7F858359A4280F0ED8145F0E4FE56
S31508009B80D6E90C3253EA020640F0CA81354E3368EC
S31508009B90032B00F0F1813448B0EE480A47F0D8FCB0
S31508009BA0002840F0FA81314E314809F06BF93368E4
S31508009BB0304A03F580510020C1F8643911681360F2
S31508009BC018702B48316009F0EFF9326802F58053B6
S31508009BD0D3F864691378B61A2BB1134613F8011F24
S31508009BE00029FBD19B1A9E4240F0DE82DBF800106A
S31508009BF001200090334658468E690021B04724203C
S31508009C0061F07AFEF3E500BF72650010A0580010F7
S31508009C105CB008087D1802204037012064580120EE
S31508009C20C057012096180220B8370120D4AF08087B
S31508009C30A49C0808B8B008089858001060170020B7
S31508009C4097180220BC570120BC37012044B10808E8
S31508009C50D8230010201F0020E8AF0808F0AF080836
S31508009C60A83B002000580120A03B002058170020E0
S31508009C70045801205C17002006980744002307F8BB
S31508009C80013C9BF80D30202B40F0808410F8013FF2
S31508009C90202BFBD07BB1034613F8012F002AFBD1FA
S31508009CA0191A002903DC06E083421A7003D013F858
S31508009CB0011D2029F8D08F4B1B689847002358466A
S31508009CC01A4619463FF0A0FA242061F015FE8EE5E3
S31508009CD04A4631460BF1110318E70DF1300948469B
S31508009CE045F072FEDAF80C3083480133CAF80C30B6
S31508009CF046F0C2FA59F042FB8048B0EE480A47F0EF
S31508009D0027FC002840F0FB8100231A460421584608
S31508009D103FF07AFA484645F065FE60EE287A17EE77
S31508009D20900AFEF7F7FC02460B46754846F0A4FA79
S31508009D30242061F0E1FD5AE572484FF4E6630022FB
S31508009D4059463EF04DFD242061F0D6FD4FE56E4E96
S31508009D50002206F140083146012031F8023F5B0B2C
S31508009D601CBF03F1FF3300FA03F341451A44F4D14B
S31508009D70002158463EF0E2F90DF1300907460594F0
S31508009D80079536F8023F5C0B1DD00122013C02FA0A
S31508009D9004F45E4A0A9226220B9200940AAA06CA7C
S31508009DA0C3F30C03484664F021F9DBF80030224679
S31508009DB01D68494600235846A8473946224648465C
S31508009DC063F07EFE07464645DBD1DBF80030059C8E
S31508009DD01E68079D3FBA4946042258460C97012338
S31508009DE0B047DBF8003058469B689847242061F056
S31508009DF083FDFCE4464B1B78002B00F07D81002098
S31508009E0061F070FF0646002853D0D0F8E4340121EB
S31508009E10024603EB8303009158463FF063FA304647
S31508009E2061F090FF242061F067FDE0E4DBF8003084
S31508009E300246D3F8048029460A235846C0479BF8A9
S31508009E400C8040463DF0F8F800283FF4CFACDBF82C
S31508009E5000300699D3F80490F21C05924FF47A73F1
S31508009E605846C847059A82423FF448ACBEE40026E5
S31508009E70B1465FE44FF000095CE4B8F53A4F00F0EC
S31508009E809483BA2E09D9B8F53B4F00F04285B8F548
S31508009E903C4F40F0918140F08BFEB8F5F24F40F010
S31508009EA08B815AF0BBFAE5E4DBF82C0419496FF00C
S31508009EB0FFFC5846842167F025F8242061F01CFD34
S31508009EC095E49BF83034002B3FF490AC33460246B9
S31508009ED09BF80C10104846F0CFF91049DBF82C0413
S31508009EE06FF0E6FC8221584667F00CF800238BF8E1
S31508009EF030347BE4EC57012090B008083824001071
S31508009F00A0B008086017002070650010D4EF002084
S31508009F1097180220ECB0080888AF0808C0AF0808F0
S31508009F20C01A61EB02010A1E03DAC31C184642F185
S31508009F3000028308D7F85815C84800FB01F1C8483D
S31508009F40A0FB010143EA8273090992100020994295
S31508009F509041BFF61BAEC349C34846F059F9C34BF7
S31508009F6093F84835002B40F0F980C14E00F028FEE2
S31508009F703368032B7FF40FAEBA49BE4846F048F95A
S31508009F80BC4847F059FA0123BB483360B0EE480A8B
S31508009F9047F0DEFA00283FF406AEB74845F014FD50
S31508009FA03B89692B96BFB54A4FF0000852F82380C3
S31508009FB05AF088F9064645F035FDA84A0023FFF70A
S31508009FC037F83146CDE90080AD4BAE4AAE4846F08B
S31508009FD053F9B7F8EC12012902D9AC4863F054FDDD
S31508009FE0B7F8EE12012902D9A94863F04DFDA94E2A
S31508009FF0DFF8E08206F1080936F8021F012903D9BD
S3150800A000D8F8000063F040FDB14508F10408F3D123
S3150800A010D7F8CC210C2A1346A8BF0C23002A7FF7B1
S3150800A020C2AD9D4F0594B9463C469C4E4FF000087C
S3150800A0301F462AE0718B012901D963F025FDD4F862
S3150800A0405C0700284FD0B6F82214012901D963F01D
S3150800A0501BFDD9F83C03002848D036F8021F012911
S3150800A06001D963F011FDD9F88C04002838D0B6F868
S3150800A070D81B012901D963F007FD08F10108B84585
S3150800A08004F1200409F11C094ADAD4F8DC05002891
S3150800A090D0D1D4F8E005CDE7814CA34500F09681F0
S3150800A0A000238BF83034FFF7A1BB00221646B7E42D
S3150800A0B09BF83034002BF3D0DBF82C1479483A4659
S3150800A0C046F0DAF8DBF82C0477496FF0F1FB8421C7
S3150800A0D0584666F017FFE3E7DBF82C047349E6E613
S3150800A0E0D9F89004C3E7D4F86007ACE7D9F8400379
S3150800A0F0B3E761F0C9FD8BE461F04AFD7FE636F00F
S3150800A10065FC6B483BF01CFF58F0FCFDFCE59847E6
S3150800A11000287FF46FAA1DB0BDEC048BBDE8F08F54
S3150800A120059C40E5002061F0DDFD0646002800F0AC
S3150800A1303082D0F8E4340121024603EB8303009110
S3150800A14058463FF0CFF8304661F0FCFD58463FF0E0
S3150800A15017F9242061F0D0FBFFF749BB424847F0C6
S3150800A1606BF902E761F090FD58463FF009F92420A3
S3150800A17061F0C2FBFFF73BBB4E49DBF82C046FF0DE
S3150800A18097FB8DE74C4940F25E200BF10F0654F021
S3150800A19079F839464A46304675F001FD19E40A2031
S3150800A1A007F044FBFFF722BB3246444941F68610C6
S3150800A1B054F068F8002219E541493B46324640F218
S3150800A1C05E2054F05FF8FFF755BB3E4B83F81A76CE
S3150800A1D0FFF750BB3C4B00221A60FFF74BBB002829
S3150800A1E03FF448AB374BDFED390AB3F8622D9FEDE4
S3150800A1F0380AD3F8701D07EE902AB3F84226F8EE0F
S3150800A200E77A384667EEA00A07EE902AF8EEE77A6C
S3150800A21027EE800A58F0D4FDFFF72CBB00283FF440
S3150800A22029AB284BDFED290AB3F8622D9FED280AE2
S3150800A230D3F8701D07EE902AB3F84226F8EEE77AAF
S3150800A240384667EEA00A07EE902AF8EEE77A27EE78
S3150800A250800A58F063FDFFF70DBB00BF40420F00B0
S3150800A260CDCCCCCCE07E0908B03B002000500010D5
S3150800A27000580120F0570120A03B0020F05409089F
S3150800A280FCAF0808FDA68FCF04B00808AC0D0A0875
S3150800A290B40D0A08DA5A0010C89B0020225B001089
S3150800A2A0205E0120B8AE0808E8AE080844B00808E1
S3150800A2B08C9C08089CAE080804B1080824B0080855
S3150800A2C080B1080898580010C8570120CDCCCC3D5D
S3150800A2D00AD7233CE054090800007A44BB1F172B11
S3150800A2E000F2AB8101A252F823F000BF4BA7000889
S3150800A2F009A70008759800083BA600087DA600086F
S3150800A3003BA6000871A60008BBA70008AFA700086F
S3150800A310A7A7000893A7000887A7000877A700083B
S3150800A3206FA7000863A7000825A600087598000807
S3150800A3301BA6000811A6000807A60008FDA5000828
S3150800A340F5A500082FA60008E9A50008F8B25AF0F6
S3150800A35025FFFFF78FBA384658F018FEFFF78ABA76
S3150800A36000283FF487AA5FED240AC64B3846D3F87F
S3150800A370701DB0EE600A58F07DFDFFF77BBAC24843
S3150800A38045F022FB38466BF027FAFFF773BABE484A
S3150800A39045F01AFB63206BF01FFAFFF76BBA00282B
S3150800A3A03FF468AAB74BDFEDB90AB3F8622DD3F8C4
S3150800A3B0701D07EE902AF8EEE77AB1EE000A67EE0E
S3150800A3C0A00A384658F09CFDFFF754BAB04B1B78E4
S3150800A3D0002B3FF465AEDFF82C83AE4845F04CFF02
S3150800A3E098F80030033B012B00F2ED802368AA4859
S3150800A3F05E68012240F6B83309A9B0470646002828
S3150800A40040F0EB80A44F06E0042B00F0DA81013619
S3150800A410072E00F0FE81236838465B6998470A20B4
S3150800A42007F004FA9D4B9E4853F83610894645F0C6
S3150800A43023FF23684946DB69384698470A2007F010
S3150800A440F5F93846974966F0E9FC38463EF020FAB1
S3150800A45090B198F80030032BD6D13846924966F069
S3150800A460DDFC38463EF014FA0028D0D18F4845F076
S3150800A47003FF0A2007F0DAF90DF1300998F80030E1
S3150800A4808B4F033B012B3E7040F2C7812368894AF4
S3150800A4905B698148934240F0078241F0A1F80A209F
S3150800A4A007F0C4F93A7823687C49DB6951F8321019
S3150800A4B0814A7948934240F0058264F0F3FF98F8A0
S3150800A4C00030002B40F097817C4B7D4A402148465E
S3150800A4D00BF076F87048494666F0A0FC6E483EF0E8
S3150800A4E0D7F9002840F0828198F80030032B00F055
S3150800A4F0AC80002B40F08681724B734A4021484657
S3150800A5000BF05EF86448494666F088FC62483EF0FF
S3150800A510BFF9002840F06A8198F80030002B40F017
S3150800A520C5816A4B5D4A1B68402152F83330684A38
S3150800A53048460BF045F85848494666F06FFC5648B9
S3150800A5403EF0A6F9002840F0518198F80030033B08
S3150800A550012B40F2CD815F4845F08EFE4C4A002320
S3150800A56013709DE543464A4601465B4845F084FE1E
S3150800A5705A49DBF82C046FF09BF98021584666F09F
S3150800A580C1FC00238BF83034FFF730B90698FFF783
S3150800A59081BB8421584666F0B5FC58463EF0F0FE6D
S3150800A5A0242061F0A9F9FFF722B940F0F5FA4C48E2
S3150800A5B0414645F061FE8321584666F0A3FC8BF8B8
S3150800A5C03094FFF713B9474845F056FE464845F01C
S3150800A5D053FE464845F050FE08E7454845F04CFE10
S3150800A5E02B4A002313705BE50021012052F0DAF9AB
S3150800A5F0FFF740B93CF0B4FEFFF73CB904203CF045
S3150800A600BFFEFFF737B903203CF0BAFEFFF732B9B1
S3150800A61001203CF0B5FEFFF72DB902203CF0B0FE54
S3150800A620FFF728B9334B01221A70FFF723B9002127
S3150800A630084652F0B7F9FFF71DB92F493A4640F2D6
S3150800A6405E2053F01FFEFFF715B91C4B2B4A40211D
S3150800A65048460AF0B5FF1048494666F0DFFB0E4843
S3150800A6603EF016F9002840F0C18098F8003040E71F
S3150800A670234B012283F8D023FFF7FCB857F062FB7F
S3150800A680FFF7F8B89858001038240010CDCCCC3D08
S3150800A69095180220ECAA0808205E0120A85409088B
S3150800A6A0ACAC0808C4AC0808CCAC0808D8AC080898
S3150800A6B093180220E1B50408A5F4060828370120F6
S3150800A6C07CAD080820370120A8AD080854170020DB
S3150800A6D0C4AD08080CAE080808AF080848AF080853
S3150800A6E06CAF08081CAB080888AB0808DCAB080880
S3150800A6F058AC08089918022068B1080898AD0808E7
S3150800A7000020001094180220834F844ED7F8F800D2
S3150800A7100D2386F8CC3008B30368DB689847F0EE5B
S3150800A720407AD7F80401C6ED327A002800F0EE80A8
S3150800A7300368DB689847F0EE407A794AC6ED677A8F
S3150800A740137801331370FFF795B8734F734ED7F824
S3150800A750F8000C2386F8CC300028DDD1DFED717ABD
S3150800A760DFE7714B012283F8D123FFF783B84BF05B
S3150800A770A5FBFFF77FB86D4B6D4801221A7008F0EC
S3150800A7802BFBFFF777B80121084652F00BF9FFF7C4
S3150800A79071B8624B002283F8CC2003F5005383F886
S3150800A7A0D023FFF767B84BF0CDFAFFF763B801215E
S3150800A7B0002052F0F7F8FFF75DB867F075FAFFF773
S3150800A7C059B85C495C480DF1300966F027FB5A48D0
S3150800A7D01022494666F038FB09287FF418AE574818
S3150800A7E045F04AFD0A2007F021F847E6544849464D
S3150800A7F045F042FDB2E6534B534A402148460AF01B
S3150800A800DFFE67E6514B524A402148460AF0D8FE19
S3150800A81078E6504BFF221A70A0E64F49464866F084
S3150800A820FDFA40224946444866F00EFB4149424833
S3150800A83066F0F4FA40484022494666F005FB98F867
S3150800A8400030032B4AD045493B4866F0E7FA4022D8
S3150800A8504946394866F0F8FA4149374866F0DEFA5B
S3150800A86035484022494666F0EFFA98F80030032B3F
S3150800A8702AD03C49304866F0D1FA2F483EF008F80D
S3150800A88039492D4866F0CAFA2B483EF001F898F87F
S3150800A8900030032B7FF4FAAD2748344966F0BEFA38
S3150800A8A025483DF0F5FFF1E59847F8E5304B314A84
S3150800A8B01B6802EBC30340211B792F4A48460AF05E
S3150800A8C07FFE38E69847FAE52C491B4866F0A6FA53
S3150800A8D040224946184866F0B7FACAE72849164892
S3150800A8E066F09CFA40224946134866F0ADFAAAE794
S3150800A8F01148244966F092FA0F483DF0C9FF00282E
S3150800A9003FF429AE204845F0B7FC24E6DFED057A8A
S3150800A91013E740F02FF900BFD0A700200000001071
S3150800A9209818022000000000002000109A18022043
S3150800A930E0570120F0AC0808205E0120FCAC0808AE
S3150800A94048AE0808283701208CAD080820370120B2
S3150800A950B8AD08089318022014AD080830AD0808E9
S3150800A9603CAD080854AD080864AD080870AD080881
S3150800A97054170020A8540908D8AD080848AD080897
S3150800A98024AD0808E4AD0808F0AD0808000000008A
S3150800A99010B590F8E03090F8DCC0174C83F001034E
S3150800A9A063F3000C80F8DCC04FF48C62002120466B
S3150800A9B075F0F5F84FF4F072002104F2644075F072
S3150800A9C0EEF80E4B9FED0A7B03F5105203F5005384
S3150800A9D082ED027B03F61C7003F5726200210024E7
S3150800A9E0C3F8D8480160116010BD00BFAFF30080FE
S3150800A9F000000000000000F078240010000000109D
S3150800AA009FED116BD0ED0F7A80ED030AB5EEC00A03
S3150800AA100123F1EE10FA80ED066BC0ED097A80EDA0
S3150800AA200F0A03720BD9DFED0A6A86EE807AF5EE15
S3150800AA30407AF1EE10FA80ED0A7A03D07047054B9A
S3150800AA408362704767F016BC000000000000000033
S3150800AA50ABC222480000C07FD0B5554C554E0027E2
S3150800AA60204632463B463F216EF08EFF04F1280011
S3150800AA7032463B4640216EF087FF04F150003246CD
S3150800AA803B4641216EF080FF04F1780032463B4692
S3150800AA9042216EF079FF04F1A00032463B4643217D
S3150800AAA06EF072FF04F1C80032463B4644216EF050
S3150800AAB06BFF04F1F00032463B4645216EF064FF19
S3150800AAC004F58C7032463B4646216EF05DFF3A4BE4
S3150800AAD03A49196047201871482083F8240049200C
S3150800AAE083F844004A209FED2E6B9FED2F7B83F859
S3150800AAF064004B2083F884004C20002283F8A400CD
S3150800AB004D244E2083ED046B83ED0C6B83ED146BA3
S3150800AB1083ED1C6B83ED246B83ED067B83ED0E7B47
S3150800AB2083ED167B83ED1E7B83ED267B1A721A73E3
S3150800AB30196283F8282083F82C20196483F84820A2
S3150800AB4083F84C20196683F8682083F86C20C3F8CC
S3150800AB50801083F8882083F88C20C3F8A01083F827
S3150800AB60A82083F8C44083F8E40083ED2C6B83EDBA
S3150800AB702E7B83ED346B83ED3C6B83ED367B83ED67
S3150800AB803E7B83F8AC20C3F8C010C3F8E01083F806
S3150800AB90C82083F8CC2083F8E82083F8EC20D0BDC1
S3150800ABA0002D310100000000000000000000000038
S3150800ABB0F0220020400D0300581A002064220A08DB
S3150800ABC00D480E4AC3680E499FED097B10B4002450
S3150800ABD043611C700830046280F82440094B5DF814
S3150800ABE0044B80ED0A7B45F013BB00BFAFF3008032
S3150800ABF00000000000000000A83B00201C160A0800
S3150800AC00C0A20808E07E09082DE9F04F2DED048B57
S3150800AC10544891B0FDF70CFC20B111B0BDEC048B83
S3150800AC20BDE8F08F012550490095034646220446A3
S3150800AC304E4845F031FE4E48046143F009FF4D4B3E
S3150800AC404D4A1B6813801B0C93704C4B9D63FFF792
S3150800AC50B7FF60F011FD4A494A4846F009FC4A49DF
S3150800AC604A4846F001FC4A494A4846F0FDFB4A492B
S3150800AC704A4846F0F9FB4A494A4846F0F5FB4A4B2A
S3150800AC801D78002D40F06581484E494845F0F4FA94
S3150800AC9031222946474874F082FF96F8790164F014
S3150800ACA0ADFE96F84C0564F0A9FE96F8DF0264F04E
S3150800ACB0A5FE4149414846F0DBFB414870F04EFA93
S3150800ACC0404870F04BFA404A4048536843F4000342
S3150800ACD0536070F043FA3E4890F83C33002B00F07E
S3150800ACE043833C4B9A689B6C5380202383F31188DB
S3150800ACF005F014FC384B1A78511E012900F21C8302
S3150800AD0036495960012A1DD1354A3648116C41F039
S3150800AD1010011164116E41F010011166116E116A6D
S3150800AD2041F010011162116A21F0100111622E49D9
S3150800AD30126A98604FF48002702381F83633C1F89E
S3150800AD4084214A60244E2548B1680268B1FBF2F3B3
S3150800AD50013B9BB203FB0222914200F00D8323487C
S3150800AD6005F056FA2093002034160A08B89D0020EC
S3150800AD70F8AF012048160A0878930120A83B00205E
S3150800AD80BDB606084C160A08B1A5060858160A08DC
S3150800AD90151105086C160A088D10050878160A0894
S3150800ADA0291405088C160A087D18022098580010E0
S3150800ADB0A4160A08502B0120A1730408BC160A0819
S3150800ADC0F0950020CC95002000230140A89500208E
S3150800ADD01862002028350120709400201C190020D4
S3150800ADE00038024000BD010500E100E07C230A08A6
S3150800ADF0B3F5AA7FC1F04E807BB9AF4BAF49B04AD5
S3150800AE00B048C3E902214FF4A271102219805A6092
S3150800AE10AD4900221A6146F027FBA74F264646B9D8
S3150800AE203B8833B1B86803681B689847031EC1F2AC
S3150800AE30D7820026A54FDFF8C0830096B7F84220D0
S3150800AE40A3493346404645F027FD0096B7F8D82271
S3150800AE50A0493346A8F5867045F01EFD0096334690
S3150800AE60B7F804239C49A8F5D47045F015FD9B490D
S3150800AE709B4846F0F9FA9B4B1E7097F84935D90757
S3150800AE8003D497F84835DB0948D0DFF84082B8F88C
S3150800AE904410B8F8460040F02DFAB8F848160746A8
S3150800AEA0B8F84A0640F026FA0646002F01F09980BF
S3150800AEB0874201F0058398F83436062B96BF8A4AEE
S3150800AEC08A4B52F82330814A186892F83C2659680A
S3150800AED0520608AB03C302D501F10043099308A93A
S3150800AEE0384606F083FB002E41F07E80804BC3E98E
S3150800AEF00076764B93F84935DB0706D5DFF8FC82F2
S3150800AF0098F8AC33002B01F0E582704B93F848357E
S3150800AF10DB0941F0C381734B01221A70754B1B780C
S3150800AF2053B96A4BB3F8EC023EF056FA002801F022
S3150800AF308B8171483AF0C4FD644B93F8BC63F609FB
S3150800AF4041F0BE803EF01EFC3FF08AFA6B4845F0A1
S3150800AF5093F96B496B4846F08FFA6B496B4846F094
S3150800AF6087FA5A4B93F80C23120700F1CF81614BED
S3150800AF70197879B9554B66481B89692B9CBF654A70
S3150800AF8052F8231045F078F94AF0F8FE624963480A
S3150800AF9046F06EFA624DDFF8688205F580674FF075
S3150800AFA0FF36294632464046203508F013FDAF42A3
S3150800AFB0F7D15C485C4946F05FFA5C4800F5805575
S3150800AFC095F8AC31002B00F0C581594959485A4DBE
S3150800AFD046F056FA59495A4846F046FA59495A48DF
S3150800AFE046F042FA95F85C36002B00F0A881574BDC
S3150800AFF05A68002A00F0BB8158F0C0F900283FF4CF
S3150800B0000CAE5349534846F02FFA5349534846F075
S3150800B0102BFA5349534846F037FA5349534846F0F2
S3150800B0202BFA5349534846F027FA5349534846F0F2
S3150800B03023FA5349534846F02BFA5349534846F0E6
S3150800B04017FA5349534846F013FA5349534846F0FA
S3150800B0500FFA5349534846F00BFA5349534846F0FA
S3150800B0600BFA30F099FD524857F02EFE514B5249D3
S3150800B070524801221A6046F0F7F95149514846F0FC
S3150800B080F3F9514A514805216DF038F850495148AD
S3150800B09046F0EAF95049514846F0EAF9504951480C
S3150800B0A046F0E6F95049514846F0EAF95049514800
S3150800B0B046F0E6F9A6E000BF8C36012004170A0818
S3150800B0C0884700200C170A082D9E06089858001075
S3150800B0D034170A083C170A0848170A08FDA606087E
S3150800B0E054170A089C18022044230A0860230A08F1
S3150800B0F0709301207D180220D8230010E8170A084B
S3150800B100753306089C160A08E5500608C496090809
S3150800B11000180A08F0540908FD0E050894140A08D0
S3150800B120B86B002014180A0821460208B86F0020D8
S3150800B130E9630208342308087081002039460208AA
S3150800B14024180A08B155020830180A08E83B0020F6
S3150800B150712906083C180A08E528060848180A0846
S3150800B1604D2B060854180A08692A060860180A08A2
S3150800B170192A060868180A08412A060874180A08C7
S3150800B180912A060880180A08011B060888180A0862
S3150800B190DD1A060894180A085D1A06089C180A0893
S3150800B1A0811A0608A8180A08A51A0608B4180A086B
S3150800B1B0C81A00109093012055BC0508BC180A0847
S3150800B1C009D70508DC180A0875BC0508E8180A082E
S3150800B1D0D5C2050800190A08E9D805080C190A088D
S3150800B1E0F1D8050818190A08C5C2050824190A0855
S3150800B1F0CDC20508E47D0908E89E002080BD001040
S3150800B200B0A500207649774846F03EF97649774852
S3150800B21046F036F97649774846F036F9764977485A
S3150800B22046F032F97649774846F02EF97649774856
S3150800B23046F01EF97649774846F022F97649774866
S3150800B24046F01EF97649774846F01AF9764977485E
S3150800B25046F016F97649774846F012F9764977485E
S3150800B26046F002F97649774846F00AF9764977486A
S3150800B27046F0FAF87649774846F006F97649774867
S3150800B28046F002F9764B1B78002B00F00382754CCA
S3150800B29075490125002348222046009545F0FCFA09
S3150800B2A0002372490095472204F10C0045F0F4FA90
S3150800B2B06F4B93F855359B0700F1F485684B1B785F
S3150800B2C00BBB6C48036143F0C3FB694BB3F8F0440E
S3150800B2D020463EF081F838B19FED670A674B68490A
S3150800B2E06848224664F0C6FB614BB3F80045204621
S3150800B2F03EF072F838B19FED600A634B60496348C7
S3150800B300224664F0B7FB35F04FFB86E493F827270F
S3150800B310002A3FF42CAEB3F842003EF05DF8002850
S3150800B3203FF425AE00220092594B5A487F224FF42B
S3150800B330CA6107F075FC1AE6574804F069FF01234D
S3150800B340D5F8581685F85C3628463CF0E7FEC5F869
S3150800B35060064CE60123D5F8A81185F8AC311AF039
S3150800B360EFF8C5F8B00130E63DF0C6FEB9E44B4A41
S3150800B3701168596013603FE6D0E90201F26821F0CE
S3150800B380FF01002717605060936217610223D1609E
S3150800B390337004F0D9FF202383F3118805F0BEF833
S3150800B3A005F086FB3378022B40F07185032372681B
S3150800B3B03370F36852680921D962012159615F62C5
S3150800B3C01F6112B1DA680A43DA6085221A6004F04E
S3150800B3D0BBFF33493348344E46F04AF8012768E044
S3150800B3E001C4050834E70808D9C205083026080844
S3150800B3F065BD05082C190A08B1BD050840190A08D3
S3150800B400FDBD050858190A0859E7030874190A08FA
S3150800B41055BD05087C190A0845BD050890190A088E
S3150800B42041BF0508A0190A0849BF0508B0190A0846
S3150800B43095BE0508C0190A08B5920508C8190A086C
S3150800B44051BF0508D4190A0879B20408EC190A0884
S3150800B450F9FD0508F8190A0849BE0508101A0A0868
S3150800B4607D180220C49D0020F41C0A08081D0A083D
S3150800B47098580010D4B0012000401C465C190020E2
S3150800B480281D0A085046002068190020C8460020D2
S3150800B490A1BD0408686500208C230A08041800204A
S3150800B4A0B5850408C8160A082C2B0120384606F06C
S3150800B4B0BDF93368012BF9D9694B93F8BD231707F2
S3150800B4C078D5D3ED757ADFED676A9FED676A93F8ED
S3150800B4D048359FED660A67EEA67AB6EE007A67EEFD
S3150800B4E0877A180786EE277A614BDFED626AD3ED15
S3150800B4F0007A9FED616A27EE267AF4EEC67A48BF8F
S3150800B50037EE077AF1EE10FAD8BFF0EE477AF0EE8A
S3150800B510046A27EEA67AB4EEC07AF1EE10FA00F3C2
S3150800B52049879FED507A67EE877A87EE800A62F040
S3150800B530EBFD524B00225A60B0EE087AC0EE076A5D
S3150800B540F7EE004A36EEA45ABFEE007AA0EE005A8D
S3150800B55074EEE65A84EE856AA0EE007AE0EE005AAA
S3150800B56037EE077A66EE866A67EE067A26EE256A6B
S3150800B570B1EE667AC3ED006A83ED027AC3ED037A0B
S3150800B58083ED046A364B93F807365907C3F38006EA
S3150800B59000F19C863A48032256213EF067FE394858
S3150800B5A0032257213EF062FE374890F83C33002BC1
S3150800B5B000F012872A4B93F80C33DE0700F1388621
S3150800B5C0274B93F80C339A0700F1DC85244B93F844
S3150800B5D00C335B0700F1D185214B93F80F33DF0756
S3150800B5E000F1C6851E4B93F805361E0700F1BB858C
S3150800B5F01B4B93F80536D80600F1B085184B93F81F
S3150800B6000C3F002B3FF409AC204E0F335B010022A0
S3150800B610C6E9232306F1A8000123142286F8A330DD
S3150800B620C6F8942044F0D0F9B369002B00F00586DB
S3150800B630174A13885168194489B222460120002AFC
S3150800B6407FF4DAAB002B3FF4D8ABB3F5A27FBFF497
S3150800B650CFABB1F5A27F0246F1D9FFF7DEBB00BF3B
S3150800B66098580010DB0F494000006144809F5548F8
S3150800B670F867001000007A440AD7233CFC740120BE
S3150800B680EC160A08F8160A08D05E0020884700203B
S3150800B6908C360120BC49BD4845F0E6FEBC4ABD488B
S3150800B6A005216CF02BFDBC4ABC4810216CF026FD28
S3150800B6B0BB4ABC4811216CF021FDBB4ABB4810218E
S3150800B6C06CF01CFDBA4ABB4811216CF017FDBA4A4A
S3150800B6D0BA4811216CF012FDB949BA4845F0C4FEC2
S3150800B6E0B949BA4845F0C0FEB949BA4845F0BCFE62
S3150800B6F0B94ABA4805216CF001FDB949B94845F07F
S3150800B700B3FEB949B94845F0AFFEB949B94845F05D
S3150800B710AFFEB949B94845F0A7FEB949B94845F059
S3150800B720A3FEB949B94845F09FFEB949B94845F05D
S3150800B7309FFEB948B94A11216CF0E0FCB84890F868
S3150800B7403C33002B00F03384B64EA6F2845557F0EE
S3150800B750D9FCB548314644F0B5F9B5F8CA023DF00A
S3150800B7603BFE68B105F29C6393ED000ADFEDAF0A74
S3150800B770AF4AB049B048B8EEC00A00236CF0DAFB0D
S3150800B780AE4BB3F9E420B3F95210914201DAA3F8AB
S3150800B7905220AB4BAB4FAC4DAC4E7B6003F1400136
S3150800B7A0B96003F15001A1F54F59F96095F8011AEE
S3150800B7B0DFF800B34FF07E524FF0140840F26C7A6F
S3150800B7C0BA613A617A61B2613261726118FB01A1AC
S3150800B7D003F160024944726005F6042003F1A002F1
S3150800B7E0B033B260F36044F06DF995F8511AC5F8B4
S3150800B7F0347A18FB01A1494405F65420C5F838BA2D
S3150800B80044F060F995F8A11AC5F8846A18FB01A1F5
S3150800B8100BF17803494405F6A420C5F8883A44F0A4
S3150800B82051F995F8F13AC5F8D47A18FB03A14944B9
S3150800B8300BF1F00305F6F420C5F8D83A44F042F9BE
S3150800B8400BF5B473C5F8283BC5F8246B51F0EEF92F
S3150800B85099F8BC33590600F19D837D483AF030F9D2
S3150800B8607C483AF02DF97C483AF02AF97B483AF0B8
S3150800B87027F901205FF024F9704B93F80F239206FD
S3150800B88040F1288393F84925D70704D593F8483516
S3150800B890DB0940F0AE85724940F25E2052F0F2FCB8
S3150800B8A0664D95F805369E0640F1278395F8483586
S3150800B8B0DB0940F080836B4940F25E2052F0E2FCDF
S3150800B8C0212038F043FD48B95C4B674DB3F83A83FD
S3150800B8D0B3F83C73AB68002B00F09385574B93F88D
S3150800B8E01E124B1E2F2B0AD8604CDFED500A9FED17
S3150800B8F0600A20463EF022FD20463AF0E1F84F4D18
S3150800B9005C4995F836025C4F5FF09AFD95F802039C
S3150800B9105A495FF095FD59F0A7F905F61A5600241D
S3150800B92005F64B5515F8012F36F8021F013438462F
S3150800B9303EF09CFC082CF5D15149524845F0A4FD2F
S3150800B9405149524845F090FD5149524845F08CFD01
S3150800B9505149524845F08CFD384B93F85535DB096B
S3150800B96040F06F834E494F4845F07EFD4E4B93F8A5
S3150800B97027201AB94D4A1168D96213604A4E4C4CB1
S3150800B980B4614EF6602297E0E9200608241A0A08F0
S3150800B99091200608341A0A08B12D0608441A0A081E
S3150800B9A0912D0608501A0A08652E06085C1A0A0818
S3150800B9B0452E0608681A0A08E12E0608741A0A08A7
S3150800B9C0F5200608801A0A087D1F0608901A0A0834
S3150800B9D0891F06089C1A0A08251F0608A81A0A08B5
S3150800B9E051210608B41A0A08E90F0608C41A0A08F3
S3150800B9F02D520608D41A0A0835200608E81A0A0835
S3150800BA00E51F0608F81A0A08A5210608041B0A08ED
S3150800BA10F50F0608101B0A081C1B0A086D2F0608D6
S3150800BA20308D00201C5E0010C006001000000000CB
S3150800BA305C9E0020281B0A083040002098580010F9
S3150800BA40088C0010B4B001200000001094B001204A
S3150800BA506CB001205CB001204CB001203CB0012044
S3150800BA603C1B0A08741B0A08988D0120A88C002024
S3150800BA70CDCC4C3D088D0020B01B0A08E08C002078
S3150800BA80A5DF0608BC1B0A08CDDE0308CC1B0A087E
S3150800BA90695D0408E01B0A08419D0608F01B0A08B0
S3150800BAA0E55804085080080840470020A0AC00204C
S3150800BAB0E65D0010E83C00200023C6E90223304674
S3150800BAC004F22A630025336286F826503EF0ACFC61
S3150800BAD00121B14A86F82710B049B14B53604FF09F
S3150800BAE07E56B04B91602039966116615661D160D9
S3150800BAF001F140025A6001F5B0729A60AA489E6147
S3150800BB00203A29461E615E61DA6034F063FEA74B6F
S3150800BB10A74AA848A8495A6002F580729A60416007
S3150800BB20103201F58071DA608160A44A9E61103195
S3150800BB30C1601031516040311E615E619160A04B59
S3150800BB409661103116615661D16001F160021031BB
S3150800BB50C3E901128661066146619E611E615E61E6
S3150800BB6001F16002974E984FDFF8F8A2DA60A4F266
S3150800BB704E54B4F8B48940463DF02EFCA0B3B4F850
S3150800BB80B8B9924B924942464FF00C0807EE90BA64
S3150800BB9008FB0538BBF10009404618BF4FF00109FC
S3150800BBA0B8EE678A44F020FFBBF1000F40F08581AC
S3150800BBB05AF8253004F6DE125A604FF07C529A6124
S3150800BBC004F6BE129A604FF080421A6104F6CE124D
S3150800BBD0DA604FF07E525A61C6E9048304F6B4135C
S3150800BBE086F80890F76073600135042D04F16C043B
S3150800BBF006F1180607F17807BBD1764C764D94F80E
S3150800BC00643404F29C50002223F0070305F6581109
S3150800BC10A5F8D82584F8643443F054FF95F8CD3058
S3150800BC206E4DD8064CBF04F5986004F591606C4CCF
S3150800BC30294643F047FF204630F0A4FF53F0CAFBDD
S3150800BC40A4F5BA62002182F85814A4F5BA72654BB5
S3150800BC501360A5F2CC55A4F5A8726348634913602E
S3150800BC6045F002FC95F8CD30D9064CBFA4F588708E
S3150800BC70A4F5A470584C04F2CC5104F2D45304F53C
S3150800BC80BA620D681968C36A12685A6002681D604C
S3150800BC905268996090475649564845F0E5FB564B19
S3150800BCA01B78002B36D14B4B544A55485549564DAF
S3150800BCB0564EC3E9F002564845F0D6FB5549564854
S3150800BCC045F0D2FB554B5649564A5D614FF07E50BA
S3150800BCD08861086190611061186104F69C10C8605B
S3150800BCE05148486151489861514898600630D86073
S3150800BCF004F63C6004F6A814C1E901044D495660EF
S3150800BD0004F66C3400F5DD60C2E9024055615960FD
S3150800BD1052F096FB304B93F854355A0600F15E8183
S3150800BD2050F07EFE4449454820F032FE444B4549D2
S3150800BD30A3F67C624FF07E54B2F84C00424A4B6040
S3150800BD40A3F59C65A3F2D4468C6124330C619461F7
S3150800BD5014613E4CCD60C2E90136D560324B8E6027
S3150800BD6000254B61536125703DF036FB58B12B46D3
S3150800BD70DFED370A9FED3C0A364A374937486CF0FB
S3150800BD80D9F801232370144B354CB3F8120E00254D
S3150800BD9025703DF021FB69E0A8BC0020BC97001087
S3150800BDA09C960010E4BC0020A00B0010A89B002065
S3150800BDB01C990010789800203C9A0010589800208A
S3150800BDC038980020B08D0120C88800202C19002042
S3150800BDD0A81C0A080000001098580010645E00109D
S3150800BDE0D00500100000C8C2B01C0A0801B1050839
S3150800BDF081AA0408BC1C0A087D180220281F0020F6
S3150800BE00F01F0020BDC905080AD7233C6C6D001039
S3150800BE10C81C0A080DA20508D41C0A081CB0012073
S3150800BE208C750120088D01200000C842CDCCCC3D80
S3150800BE30949E0010709E00106F8614008CBC002023
S3150800BE4014670010A4A7002084A70020BF180220AA
S3150800BE50CDCCCC3D9C9E0020DC1C0A0850880020D6
S3150800BE60BE18022098230A080000C07F00283FF465
S3150800BE700EAA2B461FED040AC54AC649C648F6EE61
S3150800BE80000A6CF057F801232370FFF700BAC3487D
S3150800BE9004F0BEF9B1F5AA7F4FF001027FF6CFABE9
S3150800BEA0FEF7BBBFBE4B1B78002B7FF42CAABD49FF
S3150800BEB0BD4845F0D9FAFFF701BABC4BDFEDBC0A1D
S3150800BEC053F82510B0EE480A0023424638466CF06F
S3150800BED031F86DE693F84C32013B2F2B02D8B54862
S3150800BEE039F0EEFDB44B93F84D32013B2F2B3FF65C
S3150800BEF0D7ACB24839F0E4FDD2E4B149B14895F877
S3150800BF00D76245F0B1FAB049B04845F0ADFA3046C7
S3150800BF103DF016FCAE4BC3F85803002800F0E98242
S3150800BF2003F2463603F26F379B4605F5517503F55E
S3150800BF30807A039405E00BF1200BD34505F1020541
S3150800BF406DD000234FF0010826F8028F07F8013F4D
S3150800BF509BF87C0338F0FAF904460028EBD1B5F8CB
S3150800BF60009048463DF038FA0028E4D0984B4946F8
S3150800BF7003F55770C3F8604343F0AEFA9548424656
S3150800BF8049463EF073F92B8833800BF55E7039F01D
S3150800BF9097FDD0E7904857F04FF9904857F04CF97D
S3150800BFA08F4857F049F98F4857F046F955E43DF060
S3150800BFB0A3F8FFF7C9BB8C4857F03EF98B4857F0F2
S3150800BFC03BF98B4857F038F98A4857F035F98A48CB
S3150800BFD057F032F9894857F02FF971E454F026FCE6
S3150800BFE09EE600283EF49AAF734B93F83636062B36
S3150800BFF000F25281824A52F823306F4A186892F842
S3150800C0003C265968D20906AB03C302D001F10043A6
S3150800C010079306A9304605F0E9FAFEF767BF6C4DA7
S3150800C020039C95F83C33002B7FF44AAC0123D5F8E2
S3150800C030381385F83C3328463CF048F8C5F84003E1
S3150800C0403EE4704B93F8D421002A00F0108193F84F
S3150800C050D521002A00F01D81D3F8D8310B939DED28
S3150800C0600B8A18EE100AFCF755FB0446224666486A
S3150800C0700B460D4644F000F9B4EE488AF1EE10FA84
S3150800C08080F1E980DFED617AB4EEE78AF1EE10FA25
S3150800C09000F3E180DFED5E7AB4EEE78AF1EE10FA9E
S3150800C0A000F1D9805B4844F0E7F8564B40F201119D
S3150800C0B0002283ED648AA3F88C1183F88E2151E45B
S3150800C0C093F8B029052A00F21982DFE802F0373A18
S3150800C0D0342D034440F2F1134F4900220B804F4B95
S3150800C0E04F481A8039F0ECFC4E4839F0E9FC324BDF
S3150800C0F04D4993F8BC230E7090067EF523AF93F84E
S3150800C100B029052A00F2018201A353F822F000BFE4
S3150800C11049C1000849C1000849C1000845AF0008DF
S3150800C12049C1000845AF00083B4B4FF421721A80FD
S3150800C13040F28522D3E74FF4D073CDE74FF4F87376
S3150800C140CAE74FF40073C7E7384940F66E0052F065
S3150800C15099F8FEF7F7BE40F20933BDE706203FF02F
S3150800C1604BF9FFF74BBA05203FF046F9FFF740BAFF
S3150800C17004203FF041F9FFF735BA03203FF03CF9B8
S3150800C180FFF72ABA02203FF037F9FFF71FBA00BFB8
S3150800C190DC9E0020E81C0A08D887002068230A08C5
S3150800C1A07D180220199E06081C1D0A08C8230A08BD
S3150800C1B00000000088B00120985800107CB00120CB
S3150800C1C00D0305089C1B0A0865030508A41B0A0835
S3150800C1D0902700200C830808508B0020188B00201D
S3150800C1E0E08A0020A88A0020788C0020488C00204D
S3150800C1F0188C0020E88B0020B88B0020888B002044
S3150800C20044230A08D0A70020FC1B0A080000DC42C9
S3150800C21000007042381D0A087A1802207818022091
S3150800C2205848002038480020BC180220A8170A08D9
S3150800C23001203FF0E1F8FFF7C3B9B94B1A68B261BC
S3150800C24014361E60FFF7F4B9B64B93F8DC036DF0AD
S3150800C25091FBFEF771BEB44922462B4640F6B20062
S3150800C26051F04EFCB14844F007F8FFF77BBBD3F812
S3150800C270DC4174B1236820469B68984748B1236817
S3150800C28021465B680AA898479DF82830002B7FF45A
S3150800C290E6AE9FEDA78AE4E6A64BAEE6A648C0F84A
S3150800C2A0687327B190F83C33002B00F01081A3483F
S3150800C2B0C0F86863002E3EF42EAE90F83C33002B8F
S3150800C2C07EF429AE3CF018FFFEF725BE9C4BDFED49
S3150800C2D09D9A9FED9D9ADFF8B4A20FCB10AF07E9A0
S3150800C2E00F004FF0000900279FED988A0DF1300BDB
S3150800C2F0B84607EE907AF8EEE77AFBEC018A77EE15
S3150800C300A77A08F1010827EEA90A4F4480EE090A20
S3150800C3106FF086FBB8F1040FA8EE808AE9D109F11F
S3150800C3200109B9F5806FAAEC018ADCD1884BDFEDEB
S3150800C330876A1868DFED875A9FED876ADFF850C26B
S3150800C34005EE104AAE464FF47A6700220CFB02F35C
S3150800C35007EE903AF8EEE77A411C67EEA57A914225
S3150800C36037EEC67AB0EEC77ABDEEC77A17EE103A40
S3150800C37005D1B8EEC57A37EEC77AF0EEC76ABB4282
S3150800C38004DABDEEE75A1F46B64610460132B2F544
S3150800C390007FDBD1BEF1000F01D06D4B18606F4BEB
S3150800C3A015EE101A03F69802A3F89618C2ED006A5D
S3150800C3B0FFF7F0B817EE900AFCF7ACF902460B4601
S3150800C3C0CDE90023664954A3D3E9002340F25E2051
S3150800C3D051F058FFFFF7D6B83CF08EFEFFF7EAB8E3
S3150800C3E03246604940F25E2051F04CFF0126FEF7C6
S3150800C3F016BD5D4856F020FF5C4856F01DFFFFF756
S3150800C4004FBA40463CF0E8FF00283FF467AA384692
S3150800C4103CF0E2FF00283FF461AA554E052230465B
S3150800C42041463DF023FF0522394630463DF01EFFC2
S3150800C43040466BF0BDFE4146286030463DF0B4FCF0
S3150800C440686038466BF0B4FE394603463046AB6042
S3150800C4503DF0AAFC6A682968E860012606FA02F235
S3150800C46092B20A8306FA00F3AA689BB213830DF107
S3150800C47013010F23284632468DF8133064F052FF15
S3150800C48032460DF11201284664F066FF9DF8123017
S3150800C490B12B2BD0BD2B7FF421AA4CF22043344676
S3150800C4A0344DADF814302846022205A92C6164F0F3
S3150800C4B039FF012330482B7539F002FBFFF70EBA16
S3150800C4C02E4940F25E2051F0DDFEFEF727BD3CF016
S3150800C4D013FEECE60123D8F8A81388F8AC334046D7
S3150800C4E04DF084FEC8F8B003FEF70FBD44F21043C2
S3150800C4F0D6E7234843F0C0FEFFF7E2B9214940F6E4
S3150800C5006E0051F0BFFE2E46F1E51F4940F66E005B
S3150800C51051F0B8FEFEF716BD00000000F0B30A4160
S3150800C52004180020002000102C1C0A08581C0A08B1
S3150800C53067A6CA4260230A0810BA0010A0B60010FF
S3150800C5408C020808DB0F494000C07F440000000049
S3150800C550E86601200000803A00007A4500000010D5
S3150800C560CC160A0818170A08D04800209048002058
S3150800C570AC1B0A08988D0120284600205C170A087B
S3150800C5801883080888170A08D0170A089C1101207A
S3150800C5907E5603000000000038B59FED216BDFEDE5
S3150800C5A0227A224B0360044600250123036480EDAA
S3150800C5B00E6BC0E90755C0E90955C0ED017AC0ED13
S3150800C5C0027AC0ED037AC0ED047AC0ED057AC0EDB3
S3150800C5D0067AC562C0ED0C7A80F8345080F844506B
S3150800C5E085644C306AF07CFD114BA4F8B0504FF0CE
S3150800C5F0824284ED206B84ED266B84ED2E6B84F8E5
S3150800C6007C50C4F88850C4ED237AA4F89050C4ED41
S3150800C610287AC4ED297AC4F8A820C4F8AC3038BD05
S3150800C62000000000000000F000000000B8370A080B
S3150800C630CDCCCC3D000000009FED0F7B002200B55D
S3150800C640C0F8A4104FF0000E0D49C0F80CE0C0F871
S3150800C65020E0C0E90422C0E9062280ED0E7B80EDC9
S3150800C660347B5DF804EB426082600160426242F00E
S3150800C6700BBE00BFAFF3008000000000000000F012
S3150800C680A0370A080000000010B59FED136BDFED18
S3150800C690147A144CC0ED147A00234FF0010C83620F
S3150800C6A080ED126BC362C0E90833C0E90A33C0E9FA
S3150800C6B00C33C0E90E33C0E91033C0E9033300F187
S3150800C6C00C0E036043714361C36180F854C08361F3
S3150800C6D080F804C0846010BD00000000000000005F
S3150800C6E00000C07FD8230A0870B5214ED6F8203638
S3150800C6F0D6F8B047A6F82406013382B00546C6F830
S3150800C7002036ACB1002306F5C76001E0A3420FD07E
S3150800C7101A010133815AA942F8D1164C144420460D
S3150800C72043F052F9144802B0BDE8704043F04CB9E2
S3150800C73004F066F9D6F8B037104C0190172B0FD8CD
S3150800C74003F263519FED087B04EB011484ED007B33
S3150800C750258101330198C6F8B03704F0F1FFDEE70A
S3150800C760019804F0EDFFDDE700000000000000F08E
S3150800C7700050001030560010285600100000001017
S3150800C7802DE9F04F2DED068B0123DFED5BAA85B071
S3150800C7900A24BFEE009AB8EE008AF6EE008A06462C
S3150800C7A01D4629EE08AADFED559A2AEE09AA4FEA90
S3150800C7B0450B32464FEA051AE800B7EE009A002103
S3150800C7C0871802F1040990460B46D7ED010A97ED42
S3150800C7D0000A69EE207A20EEE97AE9EE807A5B446F
S3150800C7E0A9EE007AF4EE477AF1EE10FA58D698EDEB
S3150800C7F0016A59ED016A36EE676A76EEC76A87ED11
S3150800C800016AC7ED006A98ED016A59ED016A77EE8B
S3150800C810867A36EE877AB3F5806F09ED017A574442
S3150800C820C8ED017AD144D044CFD369EE8A7A2AEE8C
S3150800C830E97AE9EE2A7AAAEE097AB4EE677AF1EE8F
S3150800C84010FA40D60131A94239EE079A79EEA79A2D
S3150800C85002F10802B4D1013C1DD05846FBF738FF57
S3150800C86002460B4622A1D1E90001FCF7D5F8FCF7F0
S3150800C87081FA09EE100A29EE280A6FF041F9B0EE9E
S3150800C88040AAB0EE490A6FF03BF95D46B0EE4A9A07
S3150800C890F0EE40AA85E705B0BDEC068BBDE8F08F43
S3150800C8A0F0EE691AB0EE491ACDE90202CDE9003177
S3150800C8B072F09AFEDDE90202DDE90031B0EE407A57
S3150800C8C0F0EE607A93E7F0EE6A1AB0EE4A1AF0EEE6
S3150800C8D0690AB0EE490ACDE90102009172F084FEB8
S3150800C8E0DDE901020099B0EE407AF0EE607AA9E738
S3150800C8F000000060FB2109C02EBDBB33000000000C
S3150800C9002DE9F04FCC4BCD4CCD49CE482DED068BBD
S3150800C910C3F82C44CC4C1C600022CC4CC3F83444DD
S3150800C920C3E90122CA4C83F83024CA4B0B60C1F80C
S3150800C9306446C94BC94C1A708125C1F858566360BC
S3150800C940E360C74DC74B81F85C260026C6492560BB
S3150800C9504FF07047C0E90067C44D0D606420C1E917
S3150800C9600620086203F1280103F14000C3E9021119
S3150800C9701960586003F1200103F11800C3E90600A5
S3150800C980C3E90811BA48BB491A6100F128051A75A6
S3150800C9904FF47A7C0B460560B74FC560C4F808C0EB
S3150800C9A000F11804C0E9064400F1400600F120042D
S3150800C9B043F8247BC0E90844C1E902228560466041
S3150800C9C0026102750A7183B0A431FF2043F8102C66
S3150800C9D003F80C2C23F80A2C03F8082C03F8070C88
S3150800C9E003F8062C10339942F0D1A449A44BA54C60
S3150800C9F0C3F89C4001F134001425C3F894505861DB
S3150800CA00002444F620604FF07045C3E92A451960B2
S3150800CA10C3E902229C491A71C3E90622C3E9232203
S3150800CA20C3F89800994B9A489A4C0860862581F86D
S3150800CA303C23C1F84823C1F83853C3F83853C1F822
S3150800CA40444301259449C3F848531860934D83F825
S3150800CA503C238720C1F8A8030520C3F84443C1E94D
S3150800CA60ED508F4B81F8AC239FED6D8B8D4A0A6094
S3150800CA704FF0000803F5C072C3F8088083ED068BF3
S3150800CA80C3F80C8083ED088B83ED0A8BC3F800800E
S3150800CA9083ED0C8BC3F8108083ED0E8B83ED108B22
S3150800CAA083ED128B83ED148B83ED168B60339342E3
S3150800CAB0E2D17D4B7D4A1A607D4A5A60DA6082F877
S3150800CAC000807C489FED7C9ADFF868A27B4F4FF484
S3150800CAD07A6228219A606CF06BFF794825216CF000
S3150800CAE067FF784859216CF063FF77485A216CF044
S3150800CAF05FFF764B764824221A712321754A1A60FD
S3150800CB006CF056FFFDF7A8FF734BDFF82CC273498C
S3150800CB1083F8088022221A71714ACCF82020C2E9CB
S3150800CB200088C2E9028882F814800022C3E9041248
S3150800CB3003F128021A624FF021028CF80420694A90
S3150800CB401A609FED39AB684ACCF800209FED387B18
S3150800CB50664A83F80C8002F5805B83F82C8083EDA7
S3150800CB60068B83ED0CAB6248624A83ED099A202155
S3150800CB7000238CED047B8CF808808CF80C808CEDF7
S3150800CB80068B6CF001FF5C485A4A9FED5C0A4F2100
S3150800CB9000236CF0F9FE514A594800231F216CF016
S3150800CBA0F3FE584B4D49584883F808800022C3E9DC
S3150800CBB004124FF00C01197154491960F7EE009AE6
S3150800CBC083F80C8083ED068B514B40F8043BF0EE5E
S3150800CBD0690A6CF0D3FC65F0B9F84E486CF0CEFCE7
S3150800CBE04D4B4E481860C3ED019A83ED029A83EDCA
S3150800CBF0039A83ED049AC3ED059A494B49484A4A74
S3150800CC0083ED00AB494B212183ED00AB00236CF08B
S3150800CC10BBFE474B4148186090E000BFAFF3008069
S3150800CC20000000000000000000000000000000F006
S3150800CC3000093D0000000000208F012008270A088F
S3150800CC4000520020A03B0020202A0A08B421012017
S3150800CC500C270A08082A0A08ECB00120E8AF0120C8
S3150800CC6018270A0888C80010F8AF0120442A0A08BD
S3150800CC70C8C80010902A0120582A0A08802A0A08DB
S3150800CC80884700208F1E170010BA0010A0B60010A3
S3150800CC90E42A0A0840A8080880BD001038A8080831
S3150800CCA0082C0020C82A0A08F057012028270A0855
S3150800CCB008C90010302600200000000098680010FF
S3150800CCC08824002038250020E02400208CAC002091
S3150800CCD030240020F82A0A08A88C002080841E0028
S3150800CCE0988D0120142B0A08382B0A08000000101A
S3150800CCF0D8200020801A0600B02000200000C84274
S3150800CD00C8220020A82200209C96012064220A0836
S3150800CD10582B0A08BC960120E8930120A40E0A089D
S3150800CD2080480020E0250020400D030078480020B8
S3150800CD3010940120A486001028460020D04AD14825
S3150800CD40C3ED019A83ED029A83ED039A83ED049A63
S3150800CD50C3ED059A272100236CF016FECA48C84A77
S3150800CD60332100236CF010FEC848C54A352100233C
S3150800CD706CF00AFEC648C24A372100236CF004FE4E
S3150800CD80C44BC54AC5491960C3E90A8883F80880AF
S3150800CD9083F80C80C3F8208083F8248083ED068B03
S3150800CDA083ED0C9ABE4B1160BE4919604FF0260CF4
S3150800CDB0B84BDFF85CE382F804C04FF0340C83F814
S3150800CDC004C042F2046CB64BAEF804C04FF0270C10
S3150800CDD08EF806C0CEF8001043F2324E9FEDA47BC3
S3150800CDE0A3F804E04FF0330E83F806E0A94B82F867
S3150800CDF00880C2E90A8882ED047B83ED047B82F809
S3150800CE000C80C2F8208082F8248082ED068BA64822
S3150800CE1082ED0C9A05219A4A00236CF0B5FDA348C9
S3150800CE20974A312100236CF0AFFDDFF8E8E2DFF81E
S3150800CE30E8C29F499F480860CEF80000CCF8000079
S3150800CE409D4881F8088081F80C80C1F8248081ED1E
S3150800CE50068B9A4980F80880AAF180008860944871
S3150800CE60C1F804A09649CEF820100162CCF820102B
S3150800CE709249944808608E48934981620131CEF8F8
S3150800CE8028100131CCF828104FF0290101714FF014
S3150800CE902A018EF8041088488EF808804FF02B0176
S3150800CEA09FED757B8CF804104FF02C0101718048BA
S3150800CEB081498EF80C8080ED047B8448CEF8248066
S3150800CEC08EED047B8CED047B8EED068B8CF808804A
S3150800CED08CF80C80CCF824808CED068B81F80C80BD
S3150800CEE088627B497B4B7C4A013088624FF02D0C67
S3150800CEF07A4881F804C07A4981624FF02E0C794944
S3150800CF0080F804C0784888607849794888606A4813
S3150800CF106F4980ED047B80ED068B7048009081EDAB
S3150800CF20047B80ED047B81ED068B80ED068B6149E1
S3150800CF3061480160243101626549C0F8248081F89E
S3150800CF400880084681F80C80C1F824805949016098
S3150800CF502431016261482439016024310162614942
S3150800CF6080F8088080F80C80C0F824804FF01900FB
S3150800CF700871604808605D4908604FF01A0008713A
S3150800CF801921C3E901181A2151605B49196011601A
S3150800CF902831196211624FF001015848C3F82C80F4
S3150800CFA082F8381099854FF00101C2F82C809185D6
S3150800CFB00021C3E90401C2E90401C3E90988C3E9F8
S3150800CFC00C88C2E90288C2E90988C2E90C88C3F854
S3150800CFD00C8083F8388083ED068B82ED068B63F030
S3150800CFE02BF9DFF838E1464ACEF800200C21283222
S3150800CFF0DFF82CC1434BCEF82C10CEF820204FF08A
S3150800D0000301414A8EF804104FF00101B1EE007A8F
S3150800D0108CF80410CCF800304FF4FD611360283307
S3150800D0208EED0C7A8EF808808EF80C80CEF8248067
S3150800D030CCF820301362CEF828108EED048B8EEDD6
S3150800D040068B0F234FF0050ECCF82CE08CF80880E1
S3150800D0508CF80C80CCF82480D362CCF828102B4BA3
S3150800D060CCED0C9A8CED048B5CE000BFAFF300802E
S3150800D07000350C0000000000804F12000000000080
S3150800D080400D0300082600201049002090250020A6
S3150800D090B8250020882D0020C02D0020842B0A08E2
S3150800D0A000940120682B0A08088D0020E08C0020D7
S3150800D0B0788C0020B42B0A08E88B0020A493012062
S3150800D0C0D82B0A08A42B0A0805030A0008030A0035
S3150800D0D0B88B0020D048002090480020888B00207C
S3150800D0E00A030A0088B00120A5A106087CB0012021
S3150800D0F0BDA10608282C0A08EC2B0A08C0D4010092
S3150800D100BC2C0A08802C0A08E08A0020A88A00207D
S3150800D11008940120488C0020188C0020508B002091
S3150800D120188B00208CED068B4FF0020C82F80880D5
S3150800D13082F80C80C2F82480916282F804C082EDDD
S3150800D140048B82ED068BC2ED0C9A4FF4FD629A624F
S3150800D150E24ADFEDE37A1A6028321A624FF00D0CC4
S3150800D1600F229FEDE00AE048C3ED0C7A0E2183F802
S3150800D17004C083F8088083F80C80C3F82480DA6238
S3150800D18083ED048B83ED068B6CF030FCD7480F21BA
S3150800D1906CF02CFCD64811216CF028FC1221D548DD
S3150800D1A06CF024FCD44BD048186090F82420CF4863
S3150800D1B05A73586090F82420D0489A734FF00D0C93
S3150800D1C083F80CC0986083F8148083ED049AC84AE3
S3150800D1D0CB4BDFF86CE31A6092F824205A73C54AE1
S3150800D1E098604FF00F0CC7488EF806C05A604FF08B
S3150800D1F0100C92F824209A7383F8148081710246E1
S3150800D200C14983F80CC083ED049A40F60D63AEF865
S3150800D2100430016080ED029A80ED039A41F2101302
S3150800D220BA489380B94ACEF8001041F213434FF03A
S3150800D230150CB0EE690A0160B5488EED029A142104
S3150800D2408EED039A938082F806C082ED029A82EDEB
S3150800D250039A6CF0CBFBAF4815216CF0C7FBAE4BBD
S3150800D260AB49196091F82420AA495A7391F82420E9
S3150800D2709A73AA4ADFF8CCC2C2F800C09F489FED4D
S3150800D280A80A98604FF0130C83F80CC083F8148032
S3150800D2905960A44883ED049A1D21162393806CF0E7
S3150800D2A0A5FBA1481E216CF0A1FB63F0E3F8DFF8AB
S3150800D2B098C29E4B9E499F4A4FF003008CF80C007B
S3150800D2C04FF0200018739C4818604FF0500ECCF8A9
S3150800D2D000000860106099488CF804E0CCF8080053
S3150800D2E04FF0510C81F804C04FF0230C81F80CC0A4
S3150800D2F088604FF0010852210024986090601171EF
S3150800D300A7F6F87082F80C8053221A7169F02EFF7E
S3150800D31090222146AAF5F15072F041FC20222146BE
S3150800D32007F19400C7E91F44C7E92144C7E9234424
S3150800D33072F035FC2022214607F1B40072F02FFC6A
S3150800D3404022214607F1D40072F029FC40222146EA
S3150800D35007F5BE70C7E94A44C7E94E44C7E95244CF
S3150800D360C7E95644C7E95A44C7F81841C7F82041DF
S3150800D37087F8784187F87B41C7F81441C7F81C41FC
S3150800D380C7F82441C7F83441C7F84441C7F854419F
S3150800D390C7F86441A7F87641A7F87941C7F830413C
S3150800D3A0C7F84041C7F85041C7F86041C7F870410F
S3150800D3B0A7F8744172F0F3FB4022214607F5DE70A8
S3150800D3C072F0EDFB4022214607F5FE7072F0E7FB8E
S3150800D3D04022214607F50F7072F0E1FB2022214614
S3150800D3E007F51F7072F0DBFB2022214607F5277030
S3150800D3F072F0D5FB2022214607F52F7072F0CFFB7D
S3150800D4002022214607F5377072F0C9FB20222146F3
S3150800D41007F53F7072F0C3FB2022214607F54770D7
S3150800D42072F0BDFB2022214607F54F7072F0B7FB5C
S3150800D4302022214607F5577072F0B1FB402221469B
S3150800D44007F56770C7E9E044C7E9E444C7F87C43D1
S3150800D450C7F88C43C7F88843C7F8984372F09FFB10
S3150800D4602022214607F5777072F099FB2022214683
S3150800D47007F57F7072F093FB4022214607F22C4095
S3150800D480C7F82044C7F82844C7F81C44C7F82444FA
S3150800D49072F085FB4022214607F28440C7F87044A3
S3150800D4A0C7F86C44C7F87444C7F87844C7F87C448E
S3150800D4B0C7F8804472F073FB4022214607F2D44035
S3150800D4C0C7F8C444C7F8C844C7F8CC44C7F8D0441A
S3150800D4D072F065FB2022214638E000BF442C0A087A
S3150800D4E03333234000004843E09100209891002000
S3150800D4F0509100200891002074AC0020142D0A08D1
