S01400006275696C642F7275736566692E7372656343
S3150800800010100020B983000835D20208F983000849
S315080080101D840008F88300080B840008625D0ABC0A
S3150800802090C60900B3830008B3830008992801089D
S31508008030B3830008B3830008B383000855380108E2
S31508008040B3830008B383000839370108B13701083C
S31508008050B3830008B3830008C1820408C9820408F0
S31508008060D1820408D9820408E18204088D2C01080B
S31508008070C52C0108012D01083D2D0108792D01089F
S31508008080B12D0108ED2D0108152901086D2B0108F0
S31508008090912B0108B52B0108D92B0108E9820408A0
S315080080A0B3830008853A0108B3830008A93A010892
S315080080B041390108AD3A0108D13A01082582040878
S315080080C0B38300083D30010875310108B383000801
S315080080D0B3830008B3830008E13C0108053D0108A5
S315080080E00D830408F9370108B3830008B383000831
S315080080F0193B0108B38300083D3B0108292E0108F6
S31508008100B3830008B3830008F53A0108B38300086F
S31508008110B3830008B3830008E1380108B383000875
S31508008120652E01089D2E0108D92E0108152F010874
S31508008130512F0108B3830008B3830008FD2B0108FB
S31508008140212C0108452C0108692C01088D320108EB
S31508008150892F0108C52F010801300108413B010894
S31508008160B3830008B3830008B3830008B383000809
S31508008170B3830008B3830008B3830008B3830008F9
S31508008180B3830008B3830008B3830008B3830008E9
S31508008190B3830008B3830008B3830008B3830008D9
S315080081A0B3830008B3830008B3830008B3830008C9
S315080081B0B3830008B3830008B3830008B3830008B9
S315080081C0B3830008B3830008B3830008B3830008A9
S315080081D0B3830008B3830008B3830008B383000899
S315080081E041B5000831AF0708000000000000000094
S315080081F001F0FF01102A2BDB10F0070F08D010F84A
S31508008200013B013A8B422DD010F0070F42B3F6D14D
S31508008210F0B441EA012141EA014122F007047FF066
S3150800822000070023F0E80256083C85EA010586EABD
S31508008230010685FA47F5A3FA87F586FA47F6A5FAF9
S3150800824087F68EB9EED1F0BC01F0FF0102F0070205
S3150800825032B110F8013B013A83EA010313B1F8D1B0
S315080082600020704701387047002D06BF3546033891
S31508008270073815F0010F07D1013015F4807F02BFCA
S31508008280013015F4C03F0130F0BC0138704700BF1B
S3150800829072B6394880F30888384880F30988384820
S315080082A04EF60851CEF20001086040F20000CCF20A
S315080082B000004EF63471CEF200010860BFF34F8F0E
S315080082C0BFF36F8F40F20000C0F2F0004EF68851FF
S315080082D0CEF200010860BFF34F8FBFF36F8F4FF0E8
S315080082E00000E1EE100A4EF63C71CEF2000108607D
S315080082F0062080F31488BFF36F8F06F001FC23F085
S3150800830033F84FF055301F491B4A91423CBF41F89C
S31508008310040BFAE71C49194A91423CBF41F8040B81
S31508008320FAE71A491A4A1B4B9A423EBF51F8040B00
S3150800833042F8040BF8E700201749184A91423CBF57
S3150800834041F8040BFAE706F0DFFB47F0ABF8144CEC
S31508008350144DAC4203DA54F8041B8847F9E76DF06C
S31508008360A5F9114C114DAC4203DA54F8041B8847A1
S31508008370F9E706F0C7BB0000101000201016002011
S3150800838000800008100000201010002048420A084B
S3150800839010160020581A0020581A0020D818022053
S315080083A0E0810008E4810008E4810008E88100080B
S315080083B06EE700F000F8FEE70A480B49026800601D
S315080083C08A4201D0FFF764FF08484FF480410160F4
S315080083D007484FF0010101600648D0F800D0406810
S315080083E000470000F0FF0120EFBEADDE4438024032
S315080083F0003801400000FF1F1EF0040F0CBFEFF30A
S315080084000880EFF3098024F019BF1EF0040F0CBF93
S31508008410EFF30880EFF3098024F058BF1EF0040F2D
S315080084200CBFEFF30880EFF3098024F09BBF00BF71
S31508008430EC46A0E8F05F4FF000007047B0E8F05F48
S31508008440E546080008BF0120704700BF81F00041DB
S3150800845002E000BF83F0004330B54FEA41044FEA1B
S31508008460430594EA050F08BF90EA020F1FBF54EAB6
S31508008470000C55EA020C7FEA645C7FEA655C00F052
S31508008480E2804FEA5454D4EB5555B8BF6D420CDD23
S315080084902C4480EA020281EA030382EA000083EAA6
S315080084A0010180EA020281EA0303362D88BF30BD46
S315080084B011F0004F4FEA01314FF4801C4CEA11319C
S315080084C002D0404261EB410113F0004F4FEA0333FB
S315080084D04CEA133302D0524263EB430394EA050F86
S315080084E000F0A780A4F10104D5F1200E0DDB02FAF5
S315080084F00EFC22FA05F2801841F1000103FA0EF289
S31508008500801843FA05F359410EE0A5F120050EF14E
S31508008510200E012A03FA0EFC28BF4CF0020C43FA7F
S3150800852005F3C01851EBE37101F0004507D54FF08C
S31508008530000EDCF1000C7EEB00006EEB0101B1F5DC
S31508008540801F1BD3B1F5001F0CD349085FEA300022
S315080085504FEA3C0C04F101044FEA445212F5800F2D
S3150800856080F09A80BCF1004F08BF5FEA500C50F1CA
S31508008570000041EB045141EA050130BD5FEA4C0CAD
S31508008580404141EB0101013C28BFB1F5801FE9D20A
S3150800859091F0000F04BF01460020B1FA81F308BF2D
S315080085A02033A3F10B03B3F120020CDA0C3208DDF9
S315080085B002F1140CC2F10C0201FA0CF021FA02F1D4
S315080085C00CE002F11402D8BFC2F1200C01FA02F144
S315080085D020FA0CFCDCBF41EA0C019040E41AA2BF69
S315080085E001EB0451294330BD6FEA04041F3C1CDA31
S315080085F00C340EDC04F11404C4F1200220FA04F051
S3150800860001FA02F340EA030021FA04F345EA0301FA
S3150800861030BDC4F10C04C4F1200220FA02F001FABC
S3150800862004F340EA0300294630BD21FA04F029463E
S3150800863030BD94F0000F83F4801306BF81F48011D7
S315080086400134013D4EE77FEA645C18BF7FEA655C4A
S3150800865029D094EA050F08BF90EA020F05D054EA1C
S31508008660000C04BF1946104630BD91EA030F1EBF21
S315080086700021002030BD5FEA545C05D14000494125
S3150800868028BF41F0004130BD14F580043CBF01F518
S31508008690801130BD01F0004545F0FE4141F47001FE
S315080086A04FF0000030BD7FEA645C1ABF19461046D9
S315080086B07FEA655C1CBF0B46024650EA013406BFDA
S315080086C052EA033591EA030F41F4002130BD00BF99
S315080086D090F0000F04BF0021704730B54FF4806456
S315080086E004F132044FF000054FF0000150E700BFD7
S315080086F090F0000F04BF0021704730B54FF4806436
S3150800870004F1320410F0004548BF40424FF0000122
S315080087103EE700BF42004FEAE2014FEA31014FEA65
S3150800872002701FBF12F07F4393F07F4F81F06051B4
S31508008730704732F07F4208BF704793F07F4F04BFFF
S3150800874041F40021704730B54FF4607401F00045DC
S3150800875021F000411CE700BF50EA010208BF70473C
S3150800876030B54FF000050AE050EA010208BF70472D
S3150800877030B511F0004502D5404261EB41014FF496
S31508008780806404F132045FEA915C3FF4D8AE4FF09E
S3150800879003025FEADC0C18BF03325FEADC0C18BF81
S315080087A0033202EBDC02C2F1200300FA03FC20FAD2
S315080087B002F001FA03FE40EA0E0021FA02F114441F
S315080087C0BDE600BF70B54FF0FF0C4CF4E06C1CEA38
S315080087D011541DBF1CEA135594EA0C0F95EA0C0FA9
S315080087E000F0DEF82C4481EA030621EA4C5123EA1C
S315080087F04C5350EA013518BF52EA033541F480114B
S3150800880043F4801338D0A0FB02CE4FF00005E1FBFD
S3150800881002E506F00042E0FB03E54FF00006E1FB47
S3150800882003569CF0000F18BF4EF0010EA4F1FF048A
S31508008830B6F5007F64F5407404D25FEA4E0E6D41CA
S3150800884046EB060642EAC62141EA55514FEAC520DB
S3150800885040EA5E504FEACE2EB4F1FD0C88BFBCF557
S31508008860E06F1ED8BEF1004F08BF5FEA500E50F108
S31508008870000041EB045170BD06F0004646EA0101CE
S3150800888040EA020081EA0301B4EB5C04C2BFD4EB00
S315080088900C0541EA045170BD41F480114FF0000EF9
S315080088A0013C00F3AB8014F1360FDEBF002001F067
S315080088B0004170BDC4F10004203C35DA0C341BDCE1
S315080088C004F11404C4F1200500FA05F320FA04F0B3
S315080088D001FA05F240EA020001F0004221F00041E7
S315080088E010EBD37021FA04F642EB06015EEA430E5A
S315080088F008BF20EAD37070BDC4F10C04C4F120058A
S3150800890000FA04F320FA05F001FA04F240EA02003C
S3150800891001F0004110EBD37041F100015EEA430E0D
S3150800892008BF20EAD37070BDC4F1200500FA05F22D
S315080089304EEA020E20FA04F301FA05F243EA0203AC
S3150800894021FA04F001F0004121FA04F220EA0200BB
S3150800895000EBD3705EEA430E08BF20EAD37070BD01
S3150800896094F0000F0FD101F00046400041EB0101E1
S3150800897011F4801F08BF013CF7D041EA060195F0C3
S31508008980000F18BF704703F00046520043EB03037D
S3150800899013F4801F08BF013DF7D043EA060370476A
S315080089A094EA0C0F0CEA135518BF95EA0C0F0CD075
S315080089B050EA410618BF52EA4306D1D181EA0301BB
S315080089C001F000414FF0000070BD50EA410606BFB5
S315080089D01046194652EA430619D094EA0C0F02D1FA
S315080089E050EA013613D195EA0C0F05D152EA03363F
S315080089F01CBF104619460AD181EA030101F000415D
S31508008A0041F0FE4141F470014FF0000070BD41F0A5
S31508008A10FE4141F4780170BD70B54FF0FF0C4CF47F
S31508008A20E06C1CEA11541DBF1CEA135594EA0C0F9E
S31508008A3095EA0C0F00F0A7F8A4EB050481EA030EEB
S31508008A4052EA03354FEA013100F088804FEA0333D2
S31508008A504FF0805545EA131343EA12634FEA0222A0
S31508008A6045EA111545EA10654FEA00260EF0004161
S31508008A709D4208BF964244F1FD0404F5407402D2B3
S31508008A805B084FEA3202B61A65EB03055B084FEA44
S31508008A9032024FF480104FF4002CB6EB020E75EB41
S31508008AA0030E22BFB61A754640EA0C005B084FEA69
S31508008AB03202B6EB020E75EB030E22BFB61A7546E6
S31508008AC040EA5C005B084FEA3202B6EB020E75EB31
S31508008AD0030E22BFB61A754640EA9C005B084FEAA9
S31508008AE03202B6EB020E75EB030E22BFB61A7546B6
S31508008AF040EADC0055EA060E18D04FEA051545EAA5
S31508008B0016754FEA06164FEAC30343EA52734FEA4D
S31508008B10C2025FEA1C1CC0D111F4801F0BD141EAC6
S31508008B2000014FF000004FF0004CB6E711F4801F2B
S31508008B3004BF01430020B4F1FD0C88BFBCF5E06F0B
S31508008B403FF6AFAEB5EB030C04BFB6EB020C5FEA1B
S31508008B50500C50F1000041EB045170BD0EF0004E70
S31508008B604EEA113114EB5C04C2BFD4EB0C0541EAA2
S31508008B70045170BD41F480114FF0000E013C90E69F
S31508008B8045EA060E8DE60CEA135594EA0C0F08BF63
S31508008B9095EA0C0F3FF43BAF94EA0C0F0AD150EA62
S31508008BA001347FF434AF95EA0C0F7FF425AF1046F5
S31508008BB019462CE795EA0C0F06D152EA03353FF41D
S31508008BC0FDAE1046194622E750EA410618BF52EA9A
S31508008BD043067FF4C5AE50EA41047FF40DAF52EA6E
S31508008BE043057FF4EBAE12E74FF0FF3C06E000BF0B
S31508008BF04FF0010C02E000BF4FF0010C4DF804CD18
S31508008C004FEA410C7FEA6C5C4FEA430C18BF7FEAD7
S31508008C106C5C1BD001B050EA410C0CBF52EA430C05
S31508008C2091EA030F02BF90EA020F0020704710F185
S31508008C30000F91EA030F58BF994208BF90422CBF14
S31508008C40D8176FEAE37040F0010070474FEA410C0D
S31508008C507FEA6C5C02D150EA013C07D14FEA430C2B
S31508008C607FEA6C5CD6D152EA033CD3D05DF8040B9C
S31508008C70704700BF8446104662468C4619466346CE
S31508008C8000E000BF01B5FFF7B7FF002848BF10F1A5
S31508008C90000F01BD4DF808EDFFF7F4FF0CBF0120EA
S31508008CA000205DF808FB00BF4DF808EDFFF7EAFF66
S31508008CB034BF012000205DF808FB00BF4DF808ED21
S31508008CC0FFF7E0FF94BF012000205DF808FB00BF16
S31508008CD04DF808EDFFF7CEFF94BF012000205DF8A0
S31508008CE008FB00BF4DF808EDFFF7C4FF34BF0120AD
S31508008CF000205DF808FB00BF4FEA410C7FEA6C5C78
S31508008D0002D150EA013C0AD14FEA430C7FEA6C5C77
S31508008D1002D152EA033C02D14FF0000070474FF0EF
S31508008D20010070474FEA410212F5001215D211D51B
S31508008D306FF47873B3EB625212D94FEAC12343F04A
S31508008D40004343EA505311F0004F23FA02F018BFCC
S31508008D50404270474FF00000704750EA013005D195
S31508008D6011F0004008BF6FF0004070474FF0000058
S31508008D70704700BF4FEA4102B2F1E04324BFB3F5A2
S31508008D80001CDCF1FE5C0DD901F0004C4FEAC00274
S31508008D904CEA5070B2F1004F40EB830008BF20F058
S31508008DA00100704711F0804F21D113F13872BCBF12
S31508008DB001F00040704741F480114FEA5252C2F167
S31508008DC01802C2F1200C10FA0CF320FA02F018BFB0
S31508008DD040F001004FEAC1234FEAD32303FA0CFC03
S31508008DE040EA0C0023FA02F34FEA4303CCE77FEA92
S31508008DF0625307D150EA01331EBF4FF0FE4040F4DC
S31508008E004000704701F0004040F0FE4040F400008A
S31508008E10704700BF80F0004002E000BF81F00041CB
S31508008E2042001FBF5FEA410392EA030F7FEA226C02
S31508008E307FEA236C6AD04FEA1262D2EB1363C1BF92
S31508008E40D218414048404140B8BF5B42192B88BF01
S31508008E50704710F0004F40F4000020F07F4018BF24
S31508008E60404211F0004F41F4000121F07F4118BF44
S31508008E70494292EA030F3FD0A2F1010241FA03FCEC
S31508008E8010EB0C00C3F1200301FA03F100F00043D4
S31508008E9002D5494260EB4000B0F5000F13D3B0F19C
S31508008EA0807F06D340084FEA310102F10102FE2A0B
S31508008EB051D2B1F1004F40EBC25008BF20F001007B
S31508008EC040EA03007047490040EB0000013A28BF1A
S31508008ED0B0F5000FEDD2B0FA80FCACF1080CB2EB9D
S31508008EE00C0200FA0CF0AABF00EBC250524218431B
S31508008EF0BCBFD0401843704792F0000F81F40001C0
S31508008F0006BF80F400000132013BB5E74FEA410392
S31508008F107FEA226C18BF7FEA236C21D092EA030FFE
S31508008F2004D092F0000F08BF0846704790EA010F78
S31508008F301CBF0020704712F07F4F04D1400028BFA5
S31508008F4040F00040704712F100723CBF00F5000087
S31508008F50704700F0004343F0FE4040F400007047BD
S31508008F607FEA226216BF08467FEA23630146420269
S31508008F7006BF5FEA412390EA010F40F4800070477C
S31508008F804FF0000304E000BF10F0004348BF404222
S31508008F905FEA000C08BF704743F0964301464FF05E
S31508008FA000001CE050EA010208BF70474FF00003BA
S31508008FB00AE000BF50EA010208BF704711F00043FB
S31508008FC002D5404261EB41015FEA010C02BF8446CB
S31508008FD00146002043F0B64308BFA3F18053A3F52A
S31508008FE00003BCFA8CF2083AA3EBC25310DB01FA71
S31508008FF002FC634400FA02FCC2F12002BCF1004FF5
S3150800900020FA02F243EB020008BF20F00100704785
S3150800901002F1200201FA02FCC2F1200250EA4C00D9
S3150800902021FA02F243EB020008BF20EADC7070471F
S315080090307BB972B90029BEBF00204FF0004106E097
S3150800904008BF00281CBF6FF000414FF0FF3000F04A
S3150800905057B8ADF1080C6DE904CE002909DB002BE1
S315080090601ADB76F059FBDDF804E0DDE9022304B0EB
S315080090707047404261EB4101002B1BDB76F04CFB4D
S31508009080DDF804E0DDE9022304B0404261EB41016A
S31508009090524263EB43037047524263EB430376F055
S315080090A03BFBDDF804E0DDE9022304B0404261EB56
S315080090B041017047524263EB430376F02DFBDDF81E
S315080090C004E0DDE9022304B0524263EB4303704730
S315080090D053B94AB9002908BF00281CBF4FF0FF3111
S315080090E04FF0FF3000F00CB8ADF1080C6DE904CE76
S315080090F076F012FBDDF804E0DDE9022304B07047E0
S31508009100704700BF2DE9F04F2DED108AC1F80CD03D
S31508009110C3689D46BDEC108ABDE8F08F05F076FE63
S31508009120002383F311882846A047002007F066F934
S31508009130FEE706F003F807F0D9F805F067FE00DF4A
S31508009140FEE710F8012B11F8013B012A28BF9A42C5
S31508009150F7D0D01A7047034613F8012B002AFBD123
S31508009160181A01387047000070B586B00C461146CB
S315080091701A46114B0093054674B1631ECDE90103E7
S3150800918000266846CDE903660AF0CEFD039BA34296
S3150800919000D2EE5406B070BD9FED057B019068467F
S315080091A08DED027B04940AF0BFFD06B070BD00BFCA
S315080091B00000000000000000BC03080800000000D2
S315080091C02DE9F04759EC108B3D4B002240464946A5
S315080091D0FFF77EFD002867D035A5D5E90045384F4D
S315080091E04FF0000A00260CE0FFF716FC8046894679
S315080091F032463B46404649460AF1050AFFF768FDEE
S31508009200E8B1494622462B464046FFF761FD8446AB
S3150800921022462B4640464946BCF1000FE4D1324669
S315080092203B46FFF7F9FB8046894632463B464046B1
S3150800923049460AF1010AFFF74BFD0028E1D1214B07
S31508009240002240464946FFF72FFD50B31AA5D5E937
S31508009250004517A7D7E900670CE0FFF7B3FAAAF1AC
S31508009260050A80468946174B002240464946FFF7BD
S315080092701BFDB0B1494622462B464046FFF714FD72
S31508009280844632463B4640464946BCF1000FE4D187
S315080092900B4B0022FFF796FA0AF1FF3A80468946F9
S315080092A0E1E75046BDE8F0878246C8E7AFF300809D
S315080092B000000000006AF84000000080B5F8E43EAF
S315080092C0000024400000F03F2DE9F047B0F1000A05
S315080092D02D4D4FF0000426DD29A7D7E90067DFF8F2
S315080092E0AC904FF00008BAF1040F204629463246E2
S315080092F03B460CDDFFF766FAAAF1050A04460D4659
S31508009300BAF1000FEFD145EC104BBDE8F0874246A5
S315080093104B46FFF757FA0AF1FF3A04460D46BAF1EB
S31508009320000FE0D1EFE7EED015A7D7E900671AF1ED
S31508009330040FDFF858904FF00008204629463246B9
S315080093403B460FDAFFF768FB0AF1050A04460D46A5
S31508009350BAF1000FD7D01AF1040F20462946324633
S315080093603B46EFDB42464B46FFF756FB0AF1010A3E
S3150800937004460D46BAF1000FEDD1C4E7AFF30080FD
S3150800938000000000006AF8400000F03F000024409A
S3150800939070B5C66984B0044630460D4612F0E2FC44
S315080093A0204612F0D1F9204612F01CFA9FED087BF0
S315080093B003462946304607246A468DED027B8DF81A
S315080093C00040019312F05AFD04B070BDAFF300805F
S315080093D0FFFFFFFFFFFFFFFF2DE9F04FC768C669D4
S315080093E0D0F804802DED028B282F87B004460D4651
S315080093F072D040F223139F4240F0858012F0C6FFD8
S315080094009FED438B4FF0070A4FF00809E3683A2BA4
S3150800941014D008DD5B2B51D05A2B40DC07B0BDECCD
S31508009420028BBDE8F08F282B3ED02E2BF6D129468D
S315080094302046FFF7ADFFE3683A2BEAD1204612F043
S3150800944083F9204612F0CEF92946039030468DED71
S31508009450048B8DF808A012F063FC2B78D5F804B0BD
S31508009460082B4BD096F834706F600221304685F889
S31508009470009011F0FFF9BA1C02A986F834205B4661
S3150800948000913A461421304612F086FC9DF80830C1
S31508009490082B0DD10399304670F0EEFC08E07B2BC3
S315080094A002D0B3F5927FB9D12946304612F01AFC9C
S315080094B042462946204613F0C3FDA7E7294630460B
S315080094C012F050FC02A9204612F040FE02AA2946D4
S315080094D0304612F0D3FC99E712F036F929460022F5
S315080094E0204614F0C3F9204643463A46292112F08D
S315080094F04FF9E069294612F005FA81E759463046E0
S3150800950070F0BAFCAEE7044911F04CF9AFF30080ED
S31508009510FFFFFFFFFFFFFFFFA41108080000000080
S315080095200D4B9FED0B7B03F6080C03F61401002286
S315080095300020CCF800200A6003F5026202ED027BE7
S31508009540C3F80408C3F81008C3F82008704700BF1A
S3150800955000000000000000000000001000000000ED
S3150800956030B5012285B00C21044610F0D9FAE0B1D5
S315080095709FED117B0246124B043280ED017B02609F
S315080095800FCB6D4685E80F000E4B0F491A6820462B
S315080095900DF018FD00222946204620F04BFA2046F9
S315080095A06FF0E8FC012005B030BD20460DF0B4FC94
S315080095B0012005B030BD00BF00000000000000F02B
S315080095C074FF070800A70020D8B9F0FF00000000C4
S315080095D010B590F8E03090F8DCC0174C83F0010322
S315080095E063F3000C80F8DCC04FF48C62002120463F
S315080095F076F00DFA4FF4F072002104F2644076F02A
S3150800960006FA0E4B9FED0A7B03F50F5203F500533E
S3150800961082ED067B03F6EC6003F56F6200210024F9
S31508009620C3F8A8480160116010BD00BFAFF3008001
S3150800963000000000000000F04824001000000010A0
S315080096409FED116BD0ED0F7A80ED030AB5EEC00AD7
S315080096500123F1EE10FA80ED066BC0ED097A80ED74
S315080096600F0A03720BD9DFED0A6A86EE807AF5EEE9
S31508009670407AF1EE10FA80ED0A7A03D07047054B6E
S315080096808362704768F09EBD00000000000000007D
S31508009690ABC222480000C07FD0B5554C554E0027B6
S315080096A0204632463B463F2170F0A6F804F12800D2
S315080096B032463B46402170F09FF804F1500032468E
S315080096C03B46412170F098F804F1780032463B4653
S315080096D0422170F091F804F1A00032463B4643213E
S315080096E070F08AF804F1C80032463B46442170F00F
S315080096F083F804F1F00032463B46452170F07CF8C9
S3150800970004F58C7032463B46462170F075F83A4BA4
S315080097103A49196047201871482083F824004920DF
S3150800972083F844004A209FED2E6B9FED2F7B83F82C
S3150800973064004B2083F884004C20002283F8A400A0
S315080097404D244E2083ED046B83ED0C6B83ED146B77
S3150800975083ED1C6B83ED246B83ED067B83ED0E7B1B
S3150800976083ED167B83ED1E7B83ED267B1A721A73B7
S31508009770196283F8282083F82C20196483F8482076
S3150800978083F84C20196683F8682083F86C20C3F8A0
S31508009790801083F8882083F88C20C3F8A01083F8FB
S315080097A0A82083F8C44083F8E40083ED2C6B83ED8E
S315080097B02E7B83ED346B83ED3C6B83ED367B83ED3B
S315080097C03E7B83F8AC20C3F8C010C3F8E01083F8DA
S315080097D0C82083F8CC2083F8E82083F8EC20D0BD95
S315080097E0002D31010000000000000000000000000C
S315080097F0F0220020400D0300581A0020DC200A0839
S315080098000D480E4AC3680E499FED097B10B4002423
S3150800981043611C700830046280F82440094B5DF8E7
S31508009820044B80ED0A7B46F0C7BC00BFAFF300804F
S315080098300000000000000000A83B002094140A085D
S3150800984030A10808587D09082DE9F04F2DED048B45
S31508009850544891B0FEF7ECFD20B111B0BDEC048B75
S31508009860BDE8F08F01255049009503464622044677
S315080098704E4846F0E5FF4E48046145F0BDF84D4BAD
S315080098804D4A1B6813801B0C93704C4B9D63FFF766
S31508009890B7FF61F09FFE4A494A4847F0BDFD4A496D
S315080098A04A4847F0B5FD4A494A4847F0B1FD4A4992
S315080098B04A4847F0ADFD4A494A4847F0A9FD4A4B90
S315080098C01D78002D40F06581484E494846F0A8FCB1
S315080098D031222946474876F09AF896F8790166F0D3
S315080098E039F896F84C0566F035F896F8DF0266F012
S315080098F031F84149414847F08FFD414871F066FB10
S31508009900404871F063FB404A4048536843F40003FB
S31508009910536071F05BFB3E4890F83C33002B00F037
S3150800992043833C4B9A689B6C5380202383F31188AE
S3150800993005F004FC384B1A78511E012900F21C83E5
S3150800994036495960012A1DD1354A3648116C41F00D
S3150800995010011164116E41F010011166116E116A41
S3150800996041F010011162116A21F0100111622E49AD
S31508009970126A98604FF48002702381F83633C1F872
S3150800998084214A60244E2548B1680268B1FBF2F387
S31508009990013B9BB203FB0222914200F00D83234850
S315080099A005F046FA20930020AC140A08B89D00205A
S315080099B0F4AF0120C0140A0878930120A83B0020C0
S315080099C019B60608C4140A080DA50608D0140A080C
S315080099D0BD100508E4140A0835100508F0140A082D
S315080099E0D113050804150A087918022068580010CA
S315080099F01C150A08502B0120955F040834150A081F
S31508009A00F0950020CC95002000230140A895002061
S31508009A101862002028350120709400201C190020A7
S31508009A200038024000BD010500E100E0F4210A0803
S31508009A30B3F5AA7FC1F04E807BB9AF4BAF49B04AA8
S31508009A40B048C3E902214FF4A271102219805A6066
S31508009A50AD4900221A6147F0DBFCA74F264646B9F6
S31508009A603B8833B1B86803681B689847031EC1F280
S31508009A70D7820026A54FDFF8C0830096B7F84220A4
S31508009A80A3493346404646F0DBFE0096B7F8D8228F
S31508009A90A0493346A8F5867046F0D2FE00963346AE
S31508009AA0B7F804239C49A8F5D47046F0C9FE9B492B
S31508009AB09B4847F0ADFC9B4B1E7097F84935D90774
S31508009AC003D497F84835DB0948D0DFF84082B8F860
S31508009AD04410B8F8460040F009FAB8F848160746A0
S31508009AE0B8F84A0640F002FA0646002F01F09980B7
S31508009AF0874201F0058398F83436062B96BF8A4AC2
S31508009B008A4B52F82330814A186892F83C265968DD
S31508009B10520608AB03C302D501F10043099308A90D
S31508009B20384606F073FB002E41F07E80804BC3E971
S31508009B300076764B93F84935DB0706D5DFF8FC82C5
S31508009B4098F8AC33002B01F0E582704B93F8483552
S31508009B50DB0941F0C381734B01221A70754B1B78E0
S31508009B6053B96A4BB3F8EC023EF032FA002801F01A
S31508009B708B8171483AF09EFD644B93F8BC63F609F5
S31508009B8041F0BE803EF0FAFB3FF066FA6B4846F0BD
S31508009B9047FB6B496B4847F043FC6B496B4847F0FA
S31508009BA03BFC5A4B93F80C23120700F1CF81614B0B
S31508009BB0197879B9554B66481B89692B9CBF654A44
S31508009BC052F8231046F02CFB4CF0ACF86249634877
S31508009BD047F022FC624DDFF8688205F580674FF092
S31508009BE0FF36294632464046203508F003FDAF4287
S31508009BF0F7D15C485C4947F013FC5C4800F5805592
S31508009C0095F8AC31002B00F0C581594959485A4D91
S31508009C1047F00AFC59495A4847F0FAFB59495A4845
S31508009C2047F0F6FB95F85C36002B00F0A881574BF9
S31508009C305A68002A00F0BB8159F050FB00283FF40F
S31508009C400CAE5349534847F0E3FB5349534847F092
S31508009C50DFFB5349534847F0EBFB5349534847F05A
S31508009C60DFFB5349534847F0DBFB5349534847F05A
S31508009C70D7FB5349534847F0DFFB5349534847F04E
S31508009C80CBFB5349534847F0C7FB5349534847F062
S31508009C90C3FB5349534847F0BFFB5349534847F062
S31508009CA0BFFB30F08BFD524858F0BEFF514B52496E
S31508009CB0524801221A6047F0ABFB5149514847F018
S31508009CC0A7FB514A514805216EF050F950495148B1
S31508009CD047F09EFB5049514847F09EFB5049514872
S31508009CE047F09AFB5049514847F09EFB5049514866
S31508009CF047F09AFBA6E000BF8C3601207C150A08BF
S31508009D008847002084150A08899D060868580010A7
S31508009D10AC150A08B4150A08C0150A0859A6060893
S31508009D20CC150A0898180220BC210A08D8210A0866
S31508009D307093012079180220A823001060160A08DB
S31508009D40D532060814150A08415006083C95090834
S31508009D5078160A0868530908A50E05080C130A0898
S31508009D60B86B00208C160A0841320208B86F00202A
S31508009D7009500208A42108087081002059320208F7
S31508009D809C160A08D1410208A8160A08E83B0020D2
S31508009D90D1280608B4160A0889280608C0160A082B
S31508009DA0AD2A0608CC160A08C9290608D8160A08CC
S31508009DB079290608E0160A08A1290608EC160A08F1
S31508009DC0F1290608F8160A08B11A060800170A083B
S31508009DD08D1A06080C170A080D1A060814170A0819
S31508009DE0311A060820170A08551A06082C170A08F1
S31508009DF0981A001090930120EDBB050834170A083D
S31508009E00A1D6050854170A080DBC050860170A08E4
S31508009E106DC2050878170A0881D8050884170A0844
S31508009E2089D8050890170A085DC205089C170A080C
S31508009E3065C205085C7C0908E89E002050BD001034
S31508009E40B0A500207649774847F0F2FA7649774870
S31508009E5047F0EAFA7649774847F0EAFA76497748C2
S31508009E6047F0E6FA7649774847F0E2FA76497748BE
S31508009E7047F0D2FA7649774847F0D6FA76497748CE
S31508009E8047F0D2FA7649774847F0CEFA76497748C6
S31508009E9047F0CAFA7649774847F0C6FA76497748C6
S31508009EA047F0B6FA7649774847F0BEFA76497748D2
S31508009EB047F0AEFA7649774847F0BAFA76497748CE
S31508009EC047F0B6FA764B1B78002B00F00382754CE8
S31508009ED075490125002348222046009546F0B0FC26
S31508009EE0002372490095472204F10C0046F0A8FCAD
S31508009EF06F4B93F855359B0700F1F485684B1B7833
S31508009F000BBB6C48036144F077FD694BB3F8F0442A
S31508009F1020463EF05DF838B19FED670A674B684901
S31508009F206848224665F052FD614BB3F80045204665
S31508009F303EF04EF838B19FED600A634B60496348BE
S31508009F40224665F043FD35F021FB86E493F8272782
S31508009F50002A3FF42CAEB3F842003EF039F8002848
S31508009F603FF425AE00220092594B5A487F224FF4FF
S31508009F70CA6107F065FC1AE6574804F059FF012341
S31508009F80D5F8581685F85C3628463CF0C1FEC5F863
S31508009F9060064CE60123D5F8A81185F8AC311AF00D
S31508009FA0DFF8C5F8B00130E63DF0A2FEB9E44B4A49
S31508009FB01168596013603FE6D0E90201F26821F0A2
S31508009FC0FF01002717605060936217610223D16072
S31508009FD0337004F0C9FF202383F3118805F0AEF827
S31508009FE005F076FB3378022B40F0718503237268FF
S31508009FF03370F36852680921D962012159615F6299
S3150800A0001F6112B1DA680A43DA6085221A6004F021
S3150800A010ABFF33493348344E47F0FEF9012768E071
S3150800A02099C30508ACE5080871C20508A024080804
S3150800A030FDBC0508A4170A0849BD0508B8170A088B
S3150800A04095BD0508D0170A087DD30308EC170A083A
S3150800A050EDBC0508F4170A08DDBC050808180A0847
S3150800A060D9BE050818180A08E1BE050828180A08FE
S3150800A0702DBE050838180A084592050840180A082A
S3150800A080E9BE05084C180A08719E040864180A08EF
S3150800A090A5FD050870180A08E1BD050888180A080C
S3150800A0A079180220C49D00206C1B0A08801B0A0828
S3150800A0B068580010D0B0012000401C465C190020EA
S3150800A0C0A01B0A085046002068190020C846002030
S3150800A0D049BD04086865002004220A0804180020FF
S3150800A0E0A971040840150A082C2B0120384606F0E9
S3150800A0F0ADF93368012BF9D9694B93F8BD231707D6
S3150800A10078D5D3ED757ADFED676A9FED676A93F8C0
S3150800A11048359FED660A67EEA67AB6EE007A67EED0
S3150800A120877A180786EE277A614BDFED626AD3EDE8
S3150800A130007A9FED616A27EE267AF4EEC67A48BF62
S3150800A14037EE077AF1EE10FAD8BFF0EE477AF0EE5E
S3150800A150046A27EEA67AB4EEC07AF1EE10FA00F396
S3150800A16049879FED507A67EE877A87EE800A63F013
S3150800A17077FF524B00225A60B0EE087AC0EE076AA3
S3150800A180F7EE004A36EEA45ABFEE007AA0EE005A61
S3150800A19074EEE65A84EE856AA0EE007AE0EE005A7E
S3150800A1A037EE077A66EE866A67EE067A26EE256A3F
S3150800A1B0B1EE667AC3ED006A83ED027AC3ED037ADF
S3150800A1C083ED046A364B93F807365907C3F38006BE
S3150800A1D000F19C863A48032256213EF043FE394850
S3150800A1E0032257213EF03EFE374890F83C33002BB9
S3150800A1F000F012872A4B93F80C33DE0700F13886F5
S3150800A200274B93F80C339A0700F1DC85244B93F817
S3150800A2100C335B0700F1D185214B93F80F33DF0729
S3150800A22000F1C6851E4B93F805361E0700F1BB855F
S3150800A2301B4B93F80536D80600F1B085184B93F8F2
S3150800A2400C3F002B3FF409AC204E0F335B01002274
S3150800A250C6E9232306F1A8000123142286F8A330B1
S3150800A260C6F8942045F084FBB369002B00F00586F8
S3150800A270174A13885168194489B222460120002AD0
S3150800A2807FF4DAAB002B3FF4D8ABB3F5A27FBFF46B
S3150800A290CFABB1F5A27F0246F1D9FFF7DEBB00BF0F
S3150800A2A068580010DB0F494000006144809F5548FC
S3150800A2B0C867001000007A440AD7233CFC740120C2
S3150800A2C064150A0870150A08D05E00208847002021
S3150800A2D08C360120BC49BD4847F09AF8BC4ABD48AF
S3150800A2E005216DF043FEBC4ABC4810216DF03EFEC8
S3150800A2F0BB4ABC4811216DF039FEBB4ABB48102148
S3150800A3006DF034FEBA4ABB4811216DF02FFEBA4AE9
S3150800A310BA4811216DF02AFEB949BA4847F078F8CB
S3150800A320B949BA4847F074F8B949BA4847F070F8D5
S3150800A330B94ABA4805216DF019FEB949B94847F036
S3150800A34067F8B949B94847F063F8B949B94847F0D1
S3150800A35063F8B949B94847F05BF8B949B94847F0CD
S3150800A36057F8B949B94847F053F8B949B94847F0D1
S3150800A37053F8B948B94A11216DF0F8FDB84890F874
S3150800A3803C33002B00F03384B64EA6F2845558F0C1
S3150800A39069FEB548314645F069FBB5F8CA023DF095
S3150800A3A017FE68B105F29C6393ED000ADFEDAF0A6C
S3150800A3B0AF4AB049B048B8EEC00A00236DF0F2FCC7
S3150800A3C0AE4BB3F9E420B3F95210914201DAA3F87F
S3150800A3D05220AB4BAB4FAC4DAC4E7B6003F140010A
S3150800A3E0B96003F15001A1F54F59F96095F8011AC2
S3150800A3F0DFF800B34FF07E524FF0140840F26C7A43
S3150800A400BA613A617A61B2613261726118FB01A17F
S3150800A41003F160024944726005F6042003F1A002C4
S3150800A420B033B260F36045F021FB95F8511AC5F8D0
S3150800A430347A18FB01A1494405F65420C5F838BA00
S3150800A44045F014FB95F8A11AC5F8846A18FB01A112
S3150800A4500BF17803494405F6A420C5F8883A45F077
S3150800A46005FB95F8F13AC5F8D47A18FB03A14944D7
S3150800A4700BF1F00305F6F420C5F8D83A45F0F6FADC
S3150800A4800BF5B473C5F8283BC5F8246B52F09AFB54
S3150800A49099F8BC33590600F19D837D483AF00AF9CC
S3150800A4A07C483AF007F97C483AF004F97B483AF0D8
S3150800A4B001F9012060F0B2FA704B93F80F23920667
S3150800A4C040F1288393F84925D70704D593F84835EA
S3150800A4D0DB0940F0AE85724940F25E2053F0A8FED3
S3150800A4E0664D95F805369E0640F1278395F848355A
S3150800A4F0DB0940F080836B4940F25E2053F098FEFA
S3150800A500212038F015FD48B95C4B674DB3F83A83FE
S3150800A510B3F83C73AB68002B00F09385574B93F860
S3150800A5201E124B1E2F2B0AD8604CDFED500A9FEDEA
S3150800A530600A20463EF0FEFC20463AF0BBF84F4D36
S3150800A5405C4995F836025C4F60F028FF95F80203DF
S3150800A5505A4960F023FF5AF037FB05F61A560024CD
S3150800A56005F64B5515F8012F36F8021F0134384603
S3150800A5703EF078FC082CF5D15149524846F058FF70
S3150800A5805149524846F044FF5149524846F040FF67
S3150800A5905149524846F040FF384B93F85535DB0988
S3150800A5A040F06F834E494F4846F032FF4E4B93F8C2
S3150800A5B027201AB94D4A1168D96213604A4E4C4C85
S3150800A5C0B4614EF6602297E0992006089C180A089E
S3150800A5D041200608AC180A08112D0608BC180A08F6
S3150800A5E0F12C0608C8180A08C52D0608D4180A0842
S3150800A5F0A52D0608E0180A08412E0608EC180A08D0
S3150800A600A5200608F8180A082D1F060808190A08BA
S3150800A610391F060814190A08D51E060820190A083B
S3150800A620012106082C190A08990F06083C190A0878
S3150800A630895106084C190A08E51F060860190A0810
S3150800A640951F060870190A08552106087C190A0874
S3150800A650A50F060888190A0894190A08CD2E0608AF
S3150800A660308D0020EC5D0010C006001000000000D0
S3150800A6705C9E0020A0190A08304000206858001087
S3150800A680D88B0010B0B001200000001090B0012057
S3150800A69068B0012058B0012048B0012038B0012028
S3150800A6A0B4190A08EC190A08988D0120A88C00200C
S3150800A6B0CDCC4C3D088D0020281A0A08E08C0020D5
S3150800A6C0FDDE0608341A0A08EDCA0308441A0A0801
S3150800A6D05D490408581A0A089D9C0608681A0A085B
S3150800A6E0D9440408C07E080840470020A0AC0020D2
S3150800A6F0B65D0010E83C00200023C6E90223304678
S3150800A70004F22A630025336286F826503EF088FC58
S3150800A7100121B14A86F82710B049B14B53604FF072
S3150800A7207E56B04B91602039966116615661D160AC
S3150800A73001F140025A6001F5B0729A60AA489E611A
S3150800A740203A29461E615E61DA6034F035FEA74B71
S3150800A750A74AA848A8495A6002F580729A604160DB
S3150800A760103201F58071DA608160A44A9E61103169
S3150800A770C1601031516040311E615E619160A04B2D
S3150800A7809661103116615661D16001F1600210318F
S3150800A790C3E901128661066146619E611E615E61BA
S3150800A7A001F16002974E984FDFF8F8A2DA60A4F23A
S3150800A7B04E54B4F8B48940463DF00AFCA0B3B4F848
S3150800A7C0B8B9924B924942464FF00C0807EE90BA38
S3150800A7D008FB0538BBF10009404618BF4FF00109D0
S3150800A7E0B8EE678A46F0D4F8BBF1000F40F08581D1
S3150800A7F05AF8253004F6DE125A604FF07C529A61F8
S3150800A80004F6BE129A604FF080421A6104F6CE1220
S3150800A810DA604FF07E525A61C6E9048304F6B4132F
S3150800A82086F80890F76073600135042D04F16C040E
S3150800A83006F1180607F17807BBD1764C764D94F8E1
S3150800A840643404F29C50002223F0070305F65811DD
S3150800A850A5F8D82584F8643445F008F995F8CD307C
S3150800A8606E4DD8064CBF04F5986004F591606C4CA3
S3150800A870294645F0FBF8204630F094FF54F080FD59
S3150800A880A4F5BA62002182F85814A4F5BA72654B89
S3150800A8901360A5F2CC55A4F5A87263486349136002
S3150800A8A046F0B6FD95F8CD30D9064CBFA4F58870AC
S3150800A8B0A4F5A470584C04F2CC5104F2D45304F510
S3150800A8C0BA620D681968C36A12685A6002681D6020
S3150800A8D05268996090475649564846F099FD564B36
S3150800A8E01B78002B36D14B4B544A55485549564D83
S3150800A8F0564EC3E9F002564846F08AFD5549564871
S3150800A90046F086FD554B5649564A5D614FF07E50D6
S3150800A9108861086190611061186104F69C10C8602E
S3150800A9205148486151489861514898600630D86046
S3150800A93004F63C6004F6A814C1E901044D495660C2
S3150800A94004F66C3400F5DD60C2E9024055615960D1
S3150800A95053F04CFD304B93F854355A0600F15E819E
S3150800A96052F02AF84449454820F022FE444B45490E
S3150800A970A3F67C624FF07E54B2F84C00424A4B6014
S3150800A980A3F59C65A3F2D4468C6124330C619461CB
S3150800A99014613E4CCD60C2E90136D560324B8E60FB
S3150800A9A000254B61536125703DF012FB58B12B46CB
S3150800A9B0DFED370A9FED3C0A364A374937486DF0CE
S3150800A9C0F1F901232370144B354CB3F8120E002508
S3150800A9D025703DF0FDFA69E0A8BC00208C970010B0
S3150800A9E06C960010E4BC0020A00B0010A89B002069
S3150800A9F0EC980010789800200C9A001058980020BF
S3150800AA0038980020B08D0120C88800202C19002015
S3150800AA10201B0A080000001068580010345E001059
S3150800AA20D00500100000C8C2281B0A0891B0050806
S3150800AA3079960408341B0A0879180220281F002072
S3150800AA40F01F002055C905080AD7233C3C6D0010A5
S3150800AA50401B0A089DA105084C1B0A0818B00120CE
S3150800AA608C750120088D01200000C842CDCCCC3D54
S3150800AA70649E0010409E00106F8614008CBC002057
S3150800AA80E4660010A4A7002084A70020BA180220B4
S3150800AA90CDCCCC3D9C9E0020541B0A085088002033
S3150800AAA0B918022010220A080000C07F00283FF4C7
S3150800AAB00EAA2B461FED040AC54AC649C648F6EE35
S3150800AAC0000A6DF06FF901232370FFF700BAC34837
S3150800AAD004F0AEF9B1F5AA7F4FF001027FF6CFABCD
S3150800AAE0FEF7BBBFBE4B1B78002B7FF42CAABD49D3
S3150800AAF0BD4846F08DFCFFF701BABC4BDFEDBC0A3A
S3150800AB0053F82510B0EE480A0023424638466DF041
S3150800AB1049F96DE693F84C32013B2F2B02D8B5481C
S3150800AB2039F0C8FDB44B93F84D32013B2F2B3FF655
S3150800AB30D7ACB24839F0BEFDD2E4B149B14895F870
S3150800AB40D76246F065FCB049B04846F061FC30462D
S3150800AB503DF0F2FBAE4BC3F85803002800F0E9823B
S3150800AB6003F2463603F26F379B4605F5517503F532
S3150800AB70807A039405E00BF1200BD34505F1020515
S3150800AB806DD000234FF0010826F8028F07F8013F21
S3150800AB909BF87C0338F0CCF904460028EBD1B5F8CD
S3150800ABA0009048463DF014FA0028E4D0984B4946F0
S3150800ABB003F55770C3F8604344F062FC9548424673
S3150800ABC049463EF04FF92B8833800BF55E7039F015
S3150800ABD071FDD0E7904858F0DFFA904858F0DCFA53
S3150800ABE08F4858F0D9FA8F4858F0D6FA55E43DF010
S3150800ABF07FF8FFF7C9BB8C4858F0CEFA8B4858F057
S3150800AC00CBFA8B4858F0C8FA8A4858F0C5FA8A48E9
S3150800AC1058F0C2FA894858F0BFFA71E455F0DCFDDD
S3150800AC209EE600283EF49AAF734B93F83636062B09
S3150800AC3000F25281824A52F823306F4A186892F815
S3150800AC403C265968D20906AB03C302D001F100437A
S3150800AC50079306A9304605F0D9FAFEF767BF6C4D8B
S3150800AC60039C95F83C33002B7FF44AAC0123D5F8B6
S3150800AC70381385F83C3328463CF022F8C5F84003DB
S3150800AC803EE4704B93F8D421002A00F0108193F823
S3150800AC90D521002A00F01D81D3F8D8310B939DEDFC
S3150800ACA00B8A18EE100AFDF735FD0446224666485B
S3150800ACB00B460D4645F0B4FAB4EE488AF1EE10FAA2
S3150800ACC080F1E980DFED617AB4EEE78AF1EE10FAF9
S3150800ACD000F3E180DFED5E7AB4EEE78AF1EE10FA72
S3150800ACE000F1D9805B4845F09BFA564B40F20111BA
S3150800ACF0002283ED648AA3F88C1183F88E2151E42F
S3150800AD0093F8B029052A00F21982DFE802F0373AEB
S3150800AD10342D034440F2F1134F4900220B804F4B68
S3150800AD204F481A8039F0C6FC4E4839F0C3FC324BFE
S3150800AD304D4993F8BC230E7090067EF523AF93F821
S3150800AD40B029052A00F2018201A353F822F000BFB8
S3150800AD5089AD000889AD000889AD0008859B000803
S3150800AD6089AD0008859B00083B4B4FF421721A8079
S3150800AD7040F28522D3E74FF4D073CDE74FF4F8734A
S3150800AD80CAE74FF40073C7E7384940F66E0053F038
S3150800AD904FFAFEF7F7BE40F20933BDE706203FF04B
S3150800ADA027F9FFF74BBA05203FF022F9FFF740BA1B
S3150800ADB004203FF01DF9FFF735BA03203FF018F9D4
S3150800ADC0FFF72ABA02203FF013F9FFF71FBA00BFB0
S3150800ADD0DC9E0020601B0A08D8870020E0210A08AC
S3150800ADE079180220759D0608941B0A0840220A084D
S3150800ADF00000000084B001206858001078B00120D7
S3150800AE00B5020508141A0A080D0305081C1A0A08CB
S3150800AE10902700207C810808508B0020188B002082
S3150800AE20E08A0020A88A0020788C0020488C002020
S3150800AE30188C0020E88B0020B88B0020888B002017
S3150800AE40BC210A08D0A70020741A0A080000DC42B0
S3150800AE5000007042B01B0A087618022074180220F7
S3150800AE605848002038480020B818022020160A083A
S3150800AE7001203FF0BDF8FFF7C3B9B94B1A68B261B4
S3150800AE8014361E60FFF7F4B9B64B93F8AC036EF0B0
S3150800AE90A9FCFEF771BEB44922462B4640F6B2001D
S3150800AEA052F0FAFDB14845F0BBF9FFF77BBBD3F882
S3150800AEB0DC4174B1236820469B68984748B12368EB
S3150800AEC021465B680AA898479DF82830002B7FF42E
S3150800AED0E6AE9FEDA78AE4E6A64BAEE6A648C0F81E
S3150800AEE0687327B190F83C33002B00F01081A34813
S3150800AEF0C0F86863002E3EF42EAE90F83C33002B63
S3150800AF007EF429AE3CF0F4FEFEF725BE9C4BDFED41
S3150800AF109D9A9FED9D9ADFF8B4A20FCB10AF07E973
S3150800AF200F004FF0000900279FED988A0DF1300BAE
S3150800AF30B84607EE907AF8EEE77AFBEC018A77EEE8
S3150800AF40A77A08F1010827EEA90A4F4480EE090AF4
S3150800AF5070F09EFCB8F1040FA8EE808AE9D109F1D9
S3150800AF600109B9F5806FAAEC018ADCD1884BDFEDBF
S3150800AF70876A1868DFED875A9FED876ADFF850C23F
S3150800AF8005EE104AAE464FF47A6700220CFB02F330
S3150800AF9007EE903AF8EEE77A411C67EEA57A9142F9
S3150800AFA037EEC67AB0EEC77ABDEEC77A17EE103A14
S3150800AFB005D1B8EEC57A37EEC77AF0EEC76ABB4256
S3150800AFC004DABDEEE75A1F46B64610460132B2F518
S3150800AFD0007FDBD1BEF1000F01D06D4B18606F4BBF
S3150800AFE015EE101A03F69802A3F89618C2ED006A31
S3150800AFF0FFF7F0B817EE900AFDF78CFB02460B46F2
S3150800B000CDE90023664954A3D3E9002340F25E2024
S3150800B01053F00EF9FFF7D6B83CF06AFEFFF7EAB828
S3150800B0203246604940F25E2053F002F90126FEF7E7
S3150800B03016BD5D4858F0B0F85C4858F0ADF8FFF713
S3150800B0404FBA40463CF0C4FF00283FF467AA38468A
S3150800B0503CF0BEFF00283FF461AA554E0522304653
S3150800B06041463DF0FFFE0522394630463DF0FAFEE0
S3150800B07040466CF0D5FF4146286030463DF090FCCE
S3150800B080686038466CF0CCFF394603463046AB60FC
S3150800B0903DF086FC6A682968E860012606FA02F22D
S3150800B0A092B20A8306FA00F3AA689BB213830DF1DB
S3150800B0B013010F23284632468DF8133066F0DCF864
S3150800B0C032460DF11201284666F0F0F89DF8123066
S3150800B0D0B12B2BD0BD2B7FF421AA4CF2204334464A
S3150800B0E0344DADF814302846022205A92C6166F0C5
S3150800B0F0C3F8012330482B7539F0DCFAFFF70EBA8E
S3150800B1002E4940F25E2053F093F8FEF727BD3CF037
S3150800B110EFFDECE60123D8F8A81388F8AC334046CF
S3150800B1204FF02CF8C8F8B003FEF70FBD44F21043F1
S3150800B130D6E7234845F074F8FFF7E2B9214940F607
S3150800B1406E0053F075F82E46F1E51F4940F66E007D
S3150800B15053F06EF8FEF716BD00000000F0B30A4182
S3150800B1600418002000200010A41A0A08D01A0A0899
S3150800B17067A6CA42D8210A08E0B9001070B60010BE
S3150800B180FC000808DB0F494000C07F4400000000AF
S3150800B190E86601200000803A00007A4500000010A9
S3150800B1A044150A0890150A08D0480020904800203F
S3150800B1B0241A0A08988D012028460020D4150A0862
S3150800B1C08881080800160A0848160A089C110120F2
S3150800B1D07E5603000000000038B59FED216BDFEDB9
S3150800B1E0227A224B0360044600250123036480ED7E
S3150800B1F00E6BC0E90755C0E90955C0ED017AC0EDE7
S3150800B200027AC0ED037AC0ED047AC0ED057AC0ED86
S3150800B210067AC562C0ED0C7A80F8345080F844503E
S3150800B22085644C306BF0A6FE114BA4F8B0504FF075
S3150800B230824284ED206B84ED266B84ED2E6B84F8B8
S3150800B2407C50C4F88850C4ED237AA4F89050C4ED15
S3150800B250287AC4ED297AC4F8A820C4F8AC3038BDD9
S3150800B26000000000000000F00000000030360A0868
S3150800B270CDCCCC3D000000009FED0F7B002200B531
S3150800B280C0F8A4104FF0000E0D49C0F80CE0C0F845
S3150800B29020E0C0E90422C0E9062280ED0E7B80ED9D
S3150800B2A0347B5DF804EB426082600160426243F0E1
S3150800B2B0BFBF00BFAFF3008000000000000000F031
S3150800B2C018360A080000000010B59FED136BDFED75
S3150800B2D0147A144CC0ED147A00234FF0010C8362E3
S3150800B2E080ED126BC362C0E90833C0E90A33C0E9CE
S3150800B2F00C33C0E90E33C0E91033C0E9033300F15B
S3150800B3000C0E036043714361C36180F854C08361C6
S3150800B31080F804C0846010BD000000000000000032
S3150800B3200000C07F50220A0870B5214ED6F8F035C5
S3150800B330D6F88047A6F8F405013382B00546C6F864
S3150800B340F035ACB1002306F5C16001E0A3420FD089
S3150800B3501A010133815AA942F8D1164C14442046E1
S3150800B36044F006FB144802B0BDE8704044F000BB48
S3150800B37004F056F9D6F88037104C0190172B0FD8E1
S3150800B38003F5AC619FED087B04EB011484ED007BAB
S3150800B390258101330198C6F8803704F0E1FFDEE71E
S3150800B3A0019804F0DDFFDDE700000000000000F072
S3150800B3B00050001000560010F8550010000000104C
S3150800B3C02DE9F04F2DED068B0123DFED5BAA85B045
S3150800B3D00A24BFEE009AB8EE008AF6EE008A064600
S3150800B3E01D4629EE08AADFED559A2AEE09AA4FEA64
S3150800B3F0450B32464FEA051AE800B7EE009A0021D7
S3150800B400871802F1040990460B46D7ED010A97ED15
S3150800B410000A69EE207A20EEE97AE9EE807A5B4442
S3150800B420A9EE007AF4EE477AF1EE10FA58D698EDBE
S3150800B430016A59ED016A36EE676A76EEC76A87EDE4
S3150800B440016AC7ED006A98ED016A59ED016A77EE5F
S3150800B450867A36EE877AB3F5806F09ED017A574416
S3150800B460C8ED017AD144D044CFD369EE8A7A2AEE60
S3150800B470E97AE9EE2A7AAAEE097AB4EE677AF1EE63
S3150800B48010FA40D60131A94239EE079A79EEA79A01
S3150800B49002F10802B4D1013C1DD05846FDF718F94F
S3150800B4A002460B4622A1D1E90001FDF7B5FAFDF7E0
S3150800B4B061FC09EE100A29EE280A70F059FAB0EE76
S3150800B4C040AAB0EE490A70F053FA5D46B0EE4A9AC1
S3150800B4D0F0EE40AA85E705B0BDEC068BBDE8F08F17
S3150800B4E0F0EE691AB0EE491ACDE90202CDE900314B
S3150800B4F073F0B2FFDDE90202DDE90031B0EE407A11
S3150800B500F0EE607A93E7F0EE6A1AB0EE4A1AF0EEB9
S3150800B510690AB0EE490ACDE90102009173F09CFF71
S3150800B520DDE901020099B0EE407AF0EE607AA9E70B
S3150800B53000000060FB2109C02EBDBB3300000000DF
S3150800B5402DE9F04FCC4BCD4CCD49CE482DED068B91
S3150800B550C3F82C44CC4C1C600022CC4CC3F83444B1
S3150800B560C3E90122CA4C83F83024CA4B0B60C1F8E0
S3150800B5706446C94BC94C1A708125C1F85856636090
S3150800B580E360C74DC74B81F85C260026C64925608F
S3150800B5904FF07047C0E90067C44D0D606420C1E9EB
S3150800B5A00620086203F1280103F14000C3E90211ED
S3150800B5B01960586003F1200103F11800C3E9060079
S3150800B5C0C3E90811BA48BB491A6100F128051A757A
S3150800B5D04FF47A7C0B460560B74FC560C4F808C0BF
S3150800B5E000F11804C0E9064400F1400600F1200401
S3150800B5F043F8247BC0E90844C1E902228560466015
S3150800B600026102750A7183B0A431FF2043F8102C39
S3150800B61003F80C2C23F80A2C03F8082C03F8070C5B
S3150800B62003F8062C10339942F0D1A449A44BA54C33
S3150800B630C3F89C4001F134001425C3F894505861AE
S3150800B640002444F620604FF07045C3E92A45196086
S3150800B650C3E902229C491A71C3E90622C3E92322D7
S3150800B660C3F89800994B9A489A4C0860862581F841
S3150800B6703C23C1F84823C1F83853C3F83853C1F8F6
S3150800B680444301259449C3F848531860934D83F8F9
S3150800B6903C238720C1F8A8030520C3F84443C1E921
S3150800B6A0ED508F4B81F8AC239FED6D8B8D4A0A6068
S3150800B6B04FF0000803F5C072C3F8088083ED068BC7
S3150800B6C0C3F80C8083ED088B83ED0A8BC3F80080E2
S3150800B6D083ED0C8BC3F8108083ED0E8B83ED108BF6
S3150800B6E083ED128B83ED148B83ED168B60339342B7
S3150800B6F0E2D17D4B7D4A1A607D4A5A60DA6082F84B
S3150800B70000807C489FED7C9ADFF868A27B4F4FF457
S3150800B7107A6228219A606EF083F8794825216EF0BE
S3150800B7207FF8784859216EF07BF877485A216EF0F1
S3150800B73077F8764B764824221A712321754A1A60BF
S3150800B7406EF06EF8FDF7A8FF734BDFF82CC273494D
S3150800B75083F8088022221A71714ACCF82020C2E99F
S3150800B7600088C2E9028882F814800022C3E904121C
S3150800B77003F128021A624FF021028CF80420694A64
S3150800B7801A609FED39AB684ACCF800209FED387BEC
S3150800B790664A83F80C8002F5805B83F82C8083ED7B
S3150800B7A0068B83ED0CAB6248624A83ED099A202129
S3150800B7B000238CED047B8CF808808CF80C808CEDCB
S3150800B7C0068B6EF019F85C485A4A9FED5C0A4F21C1
S3150800B7D000236EF011F8514A594800231F216EF0D4
S3150800B7E00BF8584B4D49584883F808800022C3E99E
S3150800B7F004124FF00C01197154491960F7EE009ABA
S3150800B80083F80C8083ED068B514B40F8043BF0EE31
S3150800B810690A6DF0EBFD66F043FA4E486DF0E6FDF9
S3150800B8204D4B4E481860C3ED019A83ED029A83ED9D
S3150800B830039A83ED049AC3ED059A494B49484A4A47
S3150800B84083ED00AB494B212183ED00AB00236DF05E
S3150800B850D3FF474B4148186090E000BFAFF3008024
S3150800B860000000000000000000000000000000F0DA
S3150800B87000093D0000000000208F012080250A08ED
S3150800B88000520020A03B002098280A08B421012075
S3150800B89084250A0880280A08E8B00120E4AF0120B8
S3150800B8A090250A0858C80010F4AF0120BC280A08D9
S3150800B8B098C80010902A0120D0280A08F8280A08F3
S3150800B8C0884700208F1E1700E0B9001070B60010D8
S3150800B8D05C290A08B0A6080850BD0010A8A60808E2
S3150800B8E0082C002040290A08F0570120A0250A083C
S3150800B8F0D8C8001030260020000000006868001034
S3150800B9008824002038250020E02400208CAC002064
S3150800B9103024002070290A08A88C002080841E0084
S3150800B920988D01208C290A08B0290A080000001001
S3150800B930D8200020801A0600B02000200000C84247
S3150800B940C8220020A82200209C960120DC200A0894
S3150800B950D0290A08BC960120E89301201C0D0A0884
S3150800B96080480020E0250020400D0300784800208C
S3150800B970109401207486001028460020D04AD14829
S3150800B980C3ED019A83ED029A83ED039A83ED049A37
S3150800B990C3ED059A272100236DF02EFFCA48C84A31
S3150800B9A0332100236DF028FFC848C54A35210023F6
S3150800B9B06DF022FFC648C24A372100236DF01CFFEE
S3150800B9C0C44BC54AC5491960C3E90A8883F8088083
S3150800B9D083F80C80C3F8208083F8248083ED068BD7
S3150800B9E083ED0C9ABE4B1160BE4919604FF0260CC8
S3150800B9F0B84BDFF85CE382F804C04FF0340C83F8E8
S3150800BA0004C042F2046CB64BAEF804C04FF0270CE3
S3150800BA108EF806C0CEF8001043F2324E9FEDA47B96
S3150800BA20A3F804E04FF0330E83F806E0A94B82F83A
S3150800BA300880C2E90A8882ED047B83ED047B82F8DC
S3150800BA400C80C2F8208082F8248082ED068BA648F6
S3150800BA5082ED0C9A05219A4A00236DF0CDFEA34883
S3150800BA60974A312100236DF0C7FEDFF8E8E2DFF8D8
S3150800BA70E8C29F499F480860CEF80000CCF800004D
S3150800BA809D4881F8088081F80C80C1F8248081EDF2
S3150800BA90068B9A4980F80880AAF180008860944845
S3150800BAA0C1F804A09649CEF820100162CCF82010FF
S3150800BAB09249944808608E48934981620131CEF8CC
S3150800BAC028100131CCF828104FF0290101714FF0E8
S3150800BAD02A018EF8041088488EF808804FF02B014A
S3150800BAE09FED757B8CF804104FF02C01017180488E
S3150800BAF081498EF80C8080ED047B8448CEF824803A
S3150800BB008EED047B8CED047B8EED068B8CF808801D
S3150800BB108CF80C80CCF824808CED068B81F80C8090
S3150800BB2088627B497B4B7C4A013088624FF02D0C3A
S3150800BB307A4881F804C07A4981624FF02E0C794917
S3150800BB4080F804C0784888607849794888606A48E7
S3150800BB506F4980ED047B80ED068B7048019081ED7E
S3150800BB60047B80ED047B81ED068B80ED068B6149B5
S3150800BB7061480160243101626549C0F8248081F872
S3150800BB800880084681F80C80C1F82480594901606C
S3150800BB902431016261482439016024310162614916
S3150800BBA080F8088080F80C80C0F824804FF01900CF
S3150800BBB00871604808605D4908604FF01A0008710E
S3150800BBC01921C3E901181A2151605B4919601160EE
S3150800BBD02831196211624FF001015848C3F82C80C8
S3150800BBE082F8381099854FF00101C2F82C809185AA
S3150800BBF00021C3E90401C2E90401C3E90988C3E9CC
S3150800BC000C88C2E90288C2E90988C2E90C88C3F827
S3150800BC100C8083F8388083ED068B82ED068B64F002
S3150800BC20B7FADFF838E1464ACEF800200C21283268
S3150800BC30DFF82CC1434BCEF82C10CEF820204FF05D
S3150800BC400301414A8EF804104FF00101B1EE007A63
S3150800BC508CF80410CCF800304FF4FD6113602833DB
S3150800BC608EED0C7A8EF808808EF80C80CEF824803B
S3150800BC70CCF820301362CEF828108EED048B8EEDAA
S3150800BC80068B0F234FF0050ECCF82CE08CF80880B5
S3150800BC908CF80C80CCF82480D362CCF828102B4B77
S3150800BCA0CCED0C9A8CED048B5CE000BFAFF3008002
S3150800BCB000350C0000000000804F12000000000054
S3150800BCC0400D03000826002010490020902500207A
S3150800BCD0B8250020882D0020C02D0020FC290A0840
S3150800BCE000940120E0290A08088D0020E08C002035
S3150800BCF0788C00202C2A0A08E88B0020A4930120BF
S3150800BD00502A0A081C2A0A0805030A0008030A001A
S3150800BD10B88B0020D048002090480020888B00204F
S3150800BD200A030A0084B0012001A1060878B00120A0
S3150800BD3019A10608A02A0A08642A0A08C0D401001C
S3150800BD40342B0A08F82A0A08E08A0020A88A002064
S3150800BD5008940120488C0020188C0020508B002065
S3150800BD60188B00208CED068B4FF0020C82F80880A9
S3150800BD7082F80C80C2F82480916282F804C082EDB1
S3150800BD80048B82ED068BC2ED0C9A4FF4FD629A6223
S3150800BD90E24ADFEDE37A1A6028321A624FF00D0C98
S3150800BDA00F229FEDE00AE048C3ED0C7A0E2183F8D6
S3150800BDB004C083F8088083F80C80C3F82480DA620C
S3150800BDC083ED048B83ED068B6DF048FDD7480F2174
S3150800BDD06DF044FDD64811216DF040FD1221D5487D
S3150800BDE06DF03CFDD44BD048186090F82420CF481D
S3150800BDF05A73586090F82420D0489A734FF00D0C67
S3150800BE0083F80CC0986083F8148083ED049AC84AB6
S3150800BE10CB4BDFF86CE31A6092F824205A73C54AB4
S3150800BE2098604FF00F0CC7488EF806C05A604FF05E
S3150800BE30100C92F824209A7383F8148081710246B4
S3150800BE40C14983F80CC083ED049A40F60D63AEF839
S3150800BE500430016080ED029A80ED039A41F21013D6
S3150800BE60BA489380B94ACEF8001041F213434FF00E
S3150800BE70150CB0EE690A0160B5488EED029A1421D8
S3150800BE808EED039A938082F806C082ED029A82EDBF
S3150800BE90039A6DF0E3FCAF4815216DF0DFFCAE4B5D
S3150800BEA0AB49196091F82420AA495A7391F82420BD
S3150800BEB09A73AA4ADFF8CCC2C2F800C09F489FED21
S3150800BEC0A80A98604FF0130C83F80CC083F8148006
S3150800BED05960A44883ED049A1D21162393806DF0BA
S3150800BEE0BDFCA1481E216DF0B9FC64F06FFADFF8BD
S3150800BEF098C29E4B9E499F4A4FF003008CF80C004F
S3150800BF004FF0200018739C4818604FF0500ECCF87C
S3150800BF1000000860106099488CF804E0CCF8080026
S3150800BF204FF0510C81F804C04FF0230C81F80CC077
S3150800BF3088604FF0010852210024986090601171C2
S3150800BF40A7F6F87082F80C8053221A716BF058F82D
S3150800BF5090222146AAF5F15073F059FD2022214678
S3150800BF6007F19400C7E91F44C7E92144C7E92344F8
S3150800BF7073F04DFD2022214607F1B40073F047FD0A
S3150800BF804022214607F1D40073F041FD40222146A4
S3150800BF9007F5BE70C7E94A44C7E94E44C7E95244A3
S3150800BFA0C7E95644C7E95A44C7F81841C7F82041B3
S3150800BFB087F8784187F87B41C7F81441C7F81C41D0
S3150800BFC0C7F82441C7F83441C7F84441C7F8544173
S3150800BFD0C7F86441A7F87641A7F87941C7F8304110
S3150800BFE0C7F84041C7F85041C7F86041C7F87041E3
S3150800BFF0A7F8744173F00BFD4022214607F5DE7061
S3150800C00073F005FD4022214607F5FE7073F0FFFC2C
S3150800C0104022214607F50F7073F0F9FC20222146CD
S3150800C02007F51F7073F0F3FC2022214607F52770E9
S3150800C03073F0EDFC2022214607F52F7073F0E7FC1C
S3150800C0402022214607F5377073F0E1FC20222146AD
S3150800C05007F53F7073F0DBFC2022214607F5477091
S3150800C06073F0D5FC2022214607F54F7073F0CFFCFC
S3150800C0702022214607F5577073F0C9FC4022214655
S3150800C08007F56770C7E9E044C7E9E444C7F87C43A5
S3150800C090C7F88C43C7F88843C7F8984373F0B7FCCA
S3150800C0A02022214607F5777073F0B1FC202221463D
S3150800C0B007F57F7073F0ABFC4022214607F22C404F
S3150800C0C0C7F82044C7F82844C7F81C44C7F82444CE
S3150800C0D073F09DFC4022214607F28440C7F870445D
S3150800C0E0C7F86C44C7F87444C7F87844C7F87C4462
S3150800C0F0C7F8804473F08BFC4022214607F2D440EF
S3150800C100C7F8C444C7F8C844C7F8CC44C7F8D044ED
S3150800C11073F07DFC2022214638E000BFBC2A0A08BD
S3150800C1203333234000004843E091002098910020D3
S3150800C130509100200891002074AC00208C2B0A082E
S3150800C1404CAC00203CAC0020702B0A0814AC002034
S3150800C150C09000207890002024AC0020289401206C
S3150800C16000007A44482100200021002038B0012030
S3150800C17058B0012048B00120A82B0A08000080BF4B
S3150800C18064AC002090200A0868B0012007F23C50F1
S3150800C190C7F81845C7F82045C7F82845C7F83045F1
S3150800C1A0C7F83845C7F81445C7F81C45C7F82445E5
S3150800C1B0C7F82C45C7F8344573F029FC20222146D8
S3150800C1C007F25C5073F023FC2022214607F28450C4
S3150800C1D0C7F88045C7F87C4573F019FC202221462C
S3150800C1E007F2AC50C7F8A445C7F8A84573F00FFC8A
S3150800C1F040222146AAF5976073F009FC40222146A1
S3150800C200AAF58F6073F003FC40222146AAF58760E1
S3150800C21073F0FDFB40222146AAF57E7073F0F7FB0A
S3150800C22020222146AAF56E7073F0F1FB20222146E2
S3150800C230AAF5667073F0EBFB20222146AAF55E701C
S3150800C24007F5405573F0E3FB07F58057AAF55673D3
S3150800C25080222146AAF55470C7F8B44A5C6073F088
S3150800C260D6FBAAF5347320222146AAF53070C7F802
S3150800C2703C4BC3E90144DC6073F0C9FB4FF4007220
S3150800C2802146AAF5287073F0C2FB20222146AAF19E
S3150800C290A00073F0BCFB07F68C508022214673F091
S3150800C2A0B6FB80222146504673F0B1FB2022214678
S3150800C2B00AF1800073F0ABFB4FF4007221460AF1D5
S3150800C2C0A800C7F8AC4EC7F8B04E73F0A0FB202202
S3150800C2D021460AF52A7073F09AFB202221460AF5B0
S3150800C2E0327073F094FB3C2221460AF53A7073F0DB
S3150800C2F08EFB4FF4007221460AF5497073F087FBEE
S3150800C300202221460AF2245073F081FB202221467E
S3150800C3100AF2445073F07BFB402221460AF264502D
S3150800C32073F075FBA5F580510F46C1F8B04340225E
S3150800C33021460AF2C450CAF8A845CAF8AC45CAF854
S3150800C340B045CAF8B445CAF8B845CAF8BC45CAF8EB
S3150800C350C04573F05CFB4FF4007221460AF2246074
S3150800C360C7F81044C7F82044CAF80846CAF80C4665
S3150800C370CAF81046CAF81846CAF81C46CAF820462B
S3150800C38073F045FB202221460AF6240073F03FFB92
S3150800C390202221460AF6440073F039FB4FF4007256
S3150800C3A021460AF6640073F032FB202221460AF67B
S3150800C3B0642073F02CFB202221460AF6842073F0B1
S3150800C3C026FB4FF4007221460AF6A42073F01FFBE1
S3150800C3D04FF4007221460AF6A44073F018FB97F84A
S3150800C3E0BC3CC7F8B04C23F00F0387F8BC3CD7F821
S3150800C3F0BC3CA7F8BA4C03F00F034FF480722146F1
S3150800C4000AF6B560C7F8BC3C73F001FB202221464A
S3150800C4100AF6B67087F8C14D73F0F9FA202221465C
S3150800C4200AF6D67073F0F3FA4FF4807221460AF6CC
S3150800C430F870A7F8024E73F0EAFA2022214607F6AA
S3150800C440047073F0E4FA2022214607F6247073F08C
S3150800C450DEFA4FF48072214607F6447073F0D7FA75
S3150800C4602022214605F1440073F0D1FA2022214604
S3150800C47005F1640073F0CBFA4FF48072214605F19A
S3150800C480840073F0C4FA4FF48072214605F5D27021
S3150800C490C5E96244C5E96644C5F88441C5F89441CE
S3150800C4A0C5F89041C5F8A04173F0B1FA402221467B
S3150800C4B005F53170C5E9AA44C5E9AE44C5F8A442F4
S3150800C4C0C5F8B442C5F8B042C5F8C04273F09FFA41
S3150800C4D05022214605F54970C5E9C244C5E9C64456
S3150800C4E0C5F80443C5F81443C5F81043C5F82043F6
S3150800C4F073F08DFAC022214605F56A70C5E9DE4457
S3150800C500C5E9E244C5E9E444C5F89C43C5F8A44333
S3150800C510C5F87443C5F88443C5F89843C5F8A043DD
S3150800C520C5F8804373F073FAC022214605F58F607B
S3150800C53005F5B066C5F86C44C5F87444C5F8684492
S3150800C540C5F8704473F063FA2422214605F5BB60EA
S3150800C550C6E90044C5F84C45C5F85445C5F85C45D8
S3150800C560C5F86445C5F86C45C5F87445C5F87C45F5
S3150800C570C5F88C45C5F89445C5F89C45C5F8A44545
S3150800C580C5F8AC45C5F8B445C5F83C45C5F84045B9
S3150800C590C5F84445C5F83845C5F84845C5F8504571
S3150800C5A0C5F85845C5F86045C5F86845C5F87045E5
S3150800C5B0C5F87845C5F88845C5F89045C5F898453D
S3150800C5C0C5F8A045C5F8A845C5F8B045C5F8B845A5
S3150800C5D0C5F8BC45C5F8C445C5F8CC45C5F8D44525
S3150800C5E0C5F8C045C5F8C845C5F8D04573F00FFA73
S3150800C5F02422214605F5C160A5F80046A5F8064699
S3150800C600C5F8FC45C5F8024673F001FA2022214612
S3150800C61005F5C760A5F83046A5F83646C5F82C4690
S3150800C620C5F8324673F0F3F92022214605F5CD60A8
S3150800C630C5F85C46C5F86446C5F85846C5F8604668
S3150800C64073F0E5F92022214605F5D360C5F88C4636
S3150800C650C5F89446C5F88846C5F8904673F0D7F9E4
S3150800C6604FF4BC72214605F5D960C5F8BC46C5F835
S3150800C670C446C5F8B846C5F8C04673F0C8F94FF4BD
S3150800C6803C72214605F5046073F0C1F94FF4BC729B
S3150800C690214605F53660C5F8304BC5F8484BC5F850
S3150800C6A0344BC5F8384BC5F83C4BC5F8404BC5F874
S3150800C6B0444BC5F84C4BC5F8504BC5F8544BC5F818
S3150800C6C0584BC5F85C4B73F0A2F94FF4BC7221467F
S3150800C6D005F6D84073F09BF92422214605F67870B2
S3150800C6E0C5F8504EC5F8684EC5F8544EC5F8584EAC
S3150800C6F0C5F85C4EC5F8604EC5F8644EC5F86C4E74
S3150800C700C5F8704EC5F8744EC5F8784EC5F87C4E17
S3150800C710C6F80049C6F80449C6F80849C6F80C49D7
S3150800C720C6F81049C6F81449C5F89C4EC5F8A04E77
S3150800C730C5F8A44EC5F8A84EC5F8AC4EC5F8B44E13
S3150800C740C5F8B84EC5F8BC4EC5F8C04EC5F8C44EB7
S3150800C750C5F8CC4EC5F8984EC5F8B04EC5F8C84EC3
S3150800C760C5F8D04EC5F8D44EC5F8D84EC5F8DC4E37
S3150800C770C5F8E44EC5F8E84EC5F8EC4EC5F8F04ED7
S3150800C780C5F8F44EC5F8FC4EC5F8004FC5F8044F79
S3150800C790C5F8084FC5F80C4FC5F8144FC5F8184F1B
S3150800C7A0C5F81C4FC5F8204FC5F8244FC5F82C4FBF
S3150800C7B0C5F8304FC5F8344FC5F8384FC5F83C4F63
S3150800C7C0C5F8444FC5F8484FC5F84C4FC5F8504F03
S3150800C7D0C5F8E04EC5F8F84EC5F8104FC5F8284F0D
S3150800C7E0C5F8404FC5F8544FC5F86C4FC5F8744F97
S3150800C7F0C5F8584FC5F8684FC5F8704FC5F85C4F6F
S3150800C800C5F8604FC5F8644F73F001F94022214618
S3150800C81005F6DC7006F52869C5F8B84FC5F8C04FA7
S3150800C820C5F8C84FC5F8D04FC5F8D84FC5F89C4FBE
S3150800C830C5F8A84FC5F8B44FC5F8BC4FC5F8C44FDE
S3150800C840C5F8CC4FC5F8D44FC5F8A04FC5F8A44FC6
S3150800C850C5F8AC4FC5F8B04F73F0D9F84022214659
S3150800C86006F69C2073F0D3F8C822214606F6263031
S3150800C870C9F86E40C9F87E40C9F89640C6F8E04A3D
S3150800C880C6F8E84AC6F8F24AC6F8F64AC6F8FA4AB0
S3150800C890C6F8024BC6F8064BC6F80A4BC9F88E40CE
S3150800C8A0C6F81A4BC6F8124BC6F81E4BC6F8224BEA
S3150800C8B0C9F85C40C9F8644073F0A9F864222146B7
S3150800C8C006F61640C9F86E41C9F88241C6F8F24B19
S3150800C8D0C6F8F64BC6F8FA4BC6F8FE4BC6F8064C31
S3150800C8E0C6F80A4CC6F80E4CC6F8124C73F08FF808
S3150800C8F02022214606F6A240C9F8FA41C9F80E4296
S3150800C900C6F87E4CC6F8824CC6F8864CC6F88A4CE1
S3150800C910C6F8924CC6F8964CC6F89A4CC6F89E4C81
S3150800C92073F075F82022214606F67450C9F842427B
S3150800C930C9F86A42C9F88E42C6F8C64CC6F8CA4C47
S3150800C940C6F8CE4CC9F85A42C9F86242C6F8DE4C57
S3150800C950C6F8E64CC6F8EE4CC6F8F24CC6F8F64CE5
S3150800C960C9F87A42C9F88642C6F8FE4CC6F80A4D96
S3150800C970C6F8124DC6F8164DC6F81A4DC9F89E42A5
S3150800C980C9F8A642C6F8224DC6F82A4DC9F8AE42DD
S3150800C990C9F8B642C6F8324DC6F83A4DC9F85242F9
S3150800C9A0C9F85642C9F88242C9F8BE42C6F8424D8D
S3150800C9B0C9F8C642C9F8CE42C6F84A4DC6F8524D1D
S3150800C9C0C9F8D642C9F8DE42C6F85A4DC6F8624DCD
S3150800C9D0C9F8E642A9F8EE42C6F86A4D73F017F8A8
S3150800C9E021464FF4BC7206F65460C6F8984DC6F850
S3150800C9F0A04DC6F8A84DC6F8AC4DC6F8B04DC6F859
S3150800CA00B44DC6F8BC4DC6F8C04DC6F8C44DC6F8F8
S3150800CA10C84DC6F8D04DC6F8D44DC6F8D84DC6F898
S3150800CA20DC4DC6F8E44DC6F8E84DC6F8EC4DC6F838
S3150800CA30F04DC6F8F84DC6F8FC4DC6F8004EC6F8D7
S3150800CA40044EC6F80C4EC6F8104EC9F81443C9F879
S3150800CA501C43C9F82443C9F83843C9F84C43C9F8F4
S3150800CA606043C9F87443C9F88843C6F8144EC9F830
S3150800CA709C43C9F8B043C6F8484EC6F8504EC6F8A7
S3150800CA80184EC6F8204EC6F8244EC6F8284EC6F8E4
S3150800CA902C4EC6F8344EC6F8384EC6F83C4EC6F884
S3150800CAA0404EC9F8C443C9F8CC4372F0B0FFABF5A1
S3150800CAB080531A4683ED06AB83ED0EAB83ED10ABC0
S3150800CAC083F848809C8483F82C405C63984B1360F9
S3150800CAD0984B936006F6E873C9F85445C9F8644557
S3150800CAE0C9F86C45C6F8DC4FC6F8E04F83ED009AE6
S3150800CAF006F57F6383ED009A06F6F47383ED009AD4
S3150800CB0006F6F87383ED009A09F284531546C6F8BB
S3150800CB10D04FC6F8D84F83ED009A06F580564FF0E9
S3150800CB208073C2F82D30C9F84C45C9F87C45C9F858
S3150800CB308845C9F89845C9F89C45C9F88C45C9F887
S3150800CB409045C9F8944586ED009A6AF0F3F87A4B51
S3150800CB50C5F8C833794BC5F82434794BC5F8003481
S3150800CB6040F20113A5F8BC3305F2044383ED009A9D
S3150800CB7005F5816383ED009A05F20C4383ED009A6F
S3150800CB8005F5826383ED009A05F2144383ED009A56
S3150800CB9005F5836383ED009A05F21C4383ED009A3D
S3150800CBA005F58463C5E9F844C5F8C44385F8BE436A
S3150800CBB0C5F8C04385EDF39A85EDF49A85EDF59AA7
S3150800CBC085EDF69A85EDF79AC5F8E84385EDFB9A63
S3150800CBD085EDFC9A85EDFD9AC5F8F843C5F8FC4342
S3150800CBE083ED009A6AF032FD564BCBF85834013380
S3150800CBF0CBF8603405F23C73CBF8683403F69452EC
S3150800CC00ABF85C44ABF86444ABF86C4403F63453B5
S3150800CC1025461D701D815B600C339342F9D1BBF824
S3150800CC201C35494CCBF8D05423F4FF4323F07F033B
S3150800CC30ABF81C35DBF8E034CBF8D45403F060438A
S3150800CC40CBF8E034DBF81C35CBF8F0540BF59B62D7
S3150800CC50C3F30E03CBF81C35002313603B4ACBF80D
S3150800CC60182500228BF8E3240BF2F4420026136001
S3150800CC700122CBF8F8240BF2FC424FF07047136000
S3150800CC800BF2045244E9026713600BF5A662C4E985
S3150800CC90086713600BF23452C4E90E6713600BF58C
S3150800CCA0A762CBF8005513600BF24C52CBF8085527
S3150800CCB013600BF5AA62CBF8205513600BF2545299
S3150800CCC0CBF83C551360CBF84055CBF84455CBF818
S3150800CCD04855DBF858651E4BCBF860354FF4A06213
S3150800CCE006F07F4300210BF28C5020260027CBF854
S3150800CCF05835C4E92467CBF85C558BF85B55CBF8F7
S3150800CD006455CBF86855CBF86C55CBF87455CBF809
S3150800CD107855CBF8885572F07AFE002504F19C0206
S3150800CD2004F29C5104F5B16013462C4615E000BF89
S3150800CD30042D0A08B0250A08EC2C0A08BC5800106D
S3150800CD40C42B0A086A550010F0140010D42C0A08DF
S3150800CD501C2C0A08143399420AD09342FAD3834208
S3150800CD60F8D81C601C46143399424FF00105F4D1DB
S3150800CD700DB1CBF88845E449E44B0022A1F810230D
S3150800CD808BF8902A002103F5D87003F8102C23F8A5
S3150800CD900F2C43F80C1C43F8081C43F8042C1961A3
S3150800CDA0C3E9002224338342EFD1D9498BF8482CB2
S3150800CDB0002301F8243B01330C2BFAD1D54BD64E70
S3150800CDC09FEDE78A9FEDCC9B03F5E46200245C6146
S3150800CDD083ED1E9B9C619C609C62DC60DC621C612E
S3150800CDE0DC64DC611C651C621C665C629C639C647A
S3150800CDF0DC655C6683F8684083F86940DE6683ED27
S3150800CE001C8A83ED208A83F88C40C3E90C44C3E965
S3150800CE101044C3E91544C3E92144C3F89040C3E963
S3150800CE20004498339A42D2D1BC4DDFF830A385F836
S3150800CE3070432822002105F55E7072F0E8FDB84BB4
S3150800CE40C5F8A8339FEDAE7B30339FEDC50AC5F80C
S3150800CE50C83305F56A70032385EDEE7B85EDF07B17
S3150800CE60C5E9FA44C5F8D063A5F8A04385F8A243F6
S3150800CE7085F8B04385F8B443A5F8F04385F8AC3394
S3150800CE8085EDF69B85EDFE9B85EDF38A85EDF88AA3
S3150800CE9085EDF98AFCF7D4FB05F5806383ED009BE5
S3150800CEA005F5826303ED029B05F2244383ED008AB0
S3150800CEB005F5856383ED008A05F58663002783ED0E
S3150800CEC0008A05F2344383ED008A4FF48C6205F23A
S3150800CED03C43394605F5896083ED008AC5F81C444C
S3150800CEE0C5F81044C5F81844C5F82044C5F82C44BC
S3150800CEF0C5F83844C5F84044C5F8444472F087FD7F
S3150800CF004FF48C62394605F68C20C5F8A84872F0AD
S3150800CF107EFD05F6EC6383ED008A05F56F6305F57E
S3150800CF2080564FF001084FF4007283ED008A3946A7
S3150800CF3005F6F46305F6FC6083ED008A85F8F88E3D
S3150800CF4072F065FD774BC6F82031C6F83C31764B52
S3150800CF50C6F80C31754BC6F80831754BC6F824313E
S3150800CF60744BC6F840314FF400037349C6F8FC30D9
S3150800CF7005F590504FF0FF33C6E95944C6E97444A5
S3150800CF80C6E97644C6E97844C6E97A44C6F8004153
S3150800CF9086F80441C6F8384186F85C4186F86C4143
S3150800CFA0C6F85831C6F8548186ED588A86ED7C8ACB
S3150800CFB086ED7D8A86ED7E8A86ED7F8AFEF75CF9A8
S3150800CFC03A465E4BC6F80032394606F53A70C6E967
S3150800CFD0B644C6E9BB84C6E9E7A486F8E042C6F8C3
S3150800CFE0F44244F06FFB564905F5D250FEF744F972
S3150800CFF0544B5549C6F8403A06F618301C46FEF713
S3150800D0003BF95249C6F8184B06F53F60FEF734F966
S3150800D0104D49C6F8F04B06F6C840FEF72DF905F55A
S3150800D020ED59C6F8C84C0022C9E92DA7C9F80480ED
S3150800D030A9F8087089F80A70C9F80C7048461146AC
S3150800D04044F040FB424B09F5EB694B45EBD103F540
S3150800D0500C664FF000084FF070493E48C5F8187442
S3150800D060C5F81C74C6E90777A6F5A265C6E900895E
S3150800D070C6E904893772002442F002F9364848F0B6
S3150800D08007FF4FF0000A06F1940030222146C6F841
S3150800D09040A0C6F844A0C6F848A0C6F84CA0C6F8F2
S3150800D0A054A0C6F868A0C6F86CA0C6F870A0C6F862
S3150800D0B07CA0C6F880A0A5F83875C5F84C75C5F8E3
S3150800D0C06075C5F86875C5F86C75C5F87075C5F8E6
S3150800D0D07475C5F88475C5F88875C5F89475C5F866
S3150800D0E09875A5F8A07572F092FCC6F8C870C6E9DE
S3150800D0F03689C6E93A8935E000000000000000F0EC
S3150800D100000000000000000000000010A81A00102F
S3150800D110991A0010501C00100000C07F0020001053
S3150800D1202C2C0A08B42C0A08C0250A08C42C0A089C
S3150800D130C8250A08D0250A08D8250A08742C0A081A
S3150800D140DC250A089C2C0A08E8250A08F4250A089A
S3150800D150504C001000320010703100108C2C0A0858
S3150800D16000000000C6F8CCA0C6F8D0A006F1F0036F
S3150800D170C5F8D47506F51C76C3E900891C811033F9
S3150800D180B342F9D11FED0A8AC5F8804705F5F16360
S3150800D19083ED008A05F28C7383ED008A05F5F26348
S3150800D1A083ED008A302205F2C473002105F5F96083
S3150800D1B0C5F8F045A5F8F44583ED008A72F027FC1A
S3150800D1C005F5FF6282ED008A05F6080282ED008AFF
S3150800D1D005F60C0282ED008A05F5016282ED008AE9
S3150800D1E005F6140282ED008A05F6180282ED008A19
S3150800D1F005F61C029FEDAE9B82ED008A0122B24F16
S3150800D20085F83828DFF884A3B04ADFF88493B04E4F
S3150800D21085F8304887ED009B87ED029B019202F561
S3150800D220F07842F065FBCAF80060DFF868E3DFF8DB
S3150800D23068A3C9F800A0DFF86493CEF8009005F556
S3150800D240046E8EED008A05F6580E8EED008A05F6F8
S3150800D2505C0E8EED008A05F5066E9E4A8EED008AF6
S3150800D26047E9080105F6640E87ED0C9B9A4FC5F849
S3150800D2704845C5F84448C5F84848C5F84045F7EE56
S3150800D280007A96498EED008A05F29C5E05F24455B1
S3150800D290C5ED007A396011609FED917A91498EED5E
S3150800D2A0007A0BF5AA6585ED008A0BF25455C1ED97
S3150800D2B0007AC5ED007A9FED807B87ED047B9FEDB4
S3150800D2C0807B894B3C722425A1F2C4603D712325DD
S3150800D2D0157187ED069BA3F8384B3C7314721473CB
S3150800D2E081ED028A80ED008A82ED047B82ED069B41
S3150800D2F07E4A7F4B7F4EDFF8A8A2DFF8A8C21660E9
S3150800D3004FF0760EC2F838E37B4FC2F844A382F892
S3150800D3103C437A4A9A607A497A4A7B48DFF8889287
S3150800D3201C61FF25C3F81340CCE900CC5D75CCF829
S3150800D3300840DC605C601A60C7E90144C7F80090E1
S3150800D3406AF05AF9714972486AF056F9019E3046F0
S3150800D35078366AF067F9B045F9D1DFF850C26D4BF7
S3150800D3606D4FDFF84C826D4ECCF81C8000254FF0CF
S3150800D3707E59CCE90035CCE90255CCF81090CCF8AA
S3150800D3801490CCF81890DFF82CC2C7F81CC0644C6F
S3150800D390C7F81090C7E90035C7E90255C7F81490D1
S3150800D3A0C7F818905F4F604AF761C6E90035C6E9C5
S3150800D3B00255C6F81090C6F81490C6F818905B4E39
S3150800D3C0DFF8F4E1E661C4E90035C4E90255584BD3
S3150800D3D0C4F81090C4F81490C4F81890554CC2F8C4
S3150800D3E000E05549D461C2E901555448D560C2F8F0
S3150800D3F01090C2F81490C2F81890514AC3F800E089
S3150800D400DA61C3E90155DD60C3F81090C3F81490DA
S3150800D410C3F818906AF0F0F84A494B484B4CDFF8C5
S3150800D4209C81DFF89CA14A4F4A4E6AF0E5F84A49C2
S3150800D4304A486AF0E1F84A494A486AF0DDF84A4B30
S3150800D4404A4A4B4911601C6010314A4C9161C2F836
S3150800D4505C434FF47F41484C9982198499855C60F6
S3150800D460464947481D72DD601D745D829D759D6144
S3150800D4701D77DD8383F822505D6283F828505D8529
S3150800D48083F82E504FF0000B8523C2E90155D5606D
S3150800D490958282F85453C2F810B0C2F850336AF035
S3150800D4A0ABF8384938486AF0A7F808F5B06489E057
S3150800D4B0000000000000000000093D000000000018
S3150800D4C080841E000000000020580010C888002034
S3150800D4D0402D0A085848002038480020DC200A0851
S3150800D4E0000034443C0B001000000010308D002072
S3150800D4F0788B0120682D0A08288D012010810908DB
