S01400006275696C642F7275736566692E7372656343
S3150800800010100020B9830008F5E50208F983000876
S315080080101D840008F88300080B8400081FFC8CCA1E
S315080080209CC60900B3830008B3830008593C0108BD
S31508008030B3830008B3830008B3830008154C01080E
S31508008040B3830008B3830008F94A0108714B010895
S31508008050B3830008B3830008819604088996040848
S315080080609196040899960408A19604084D400108BB
S3150800807085400108C1400108FD4001083941010851
S3150800808071410108AD410108D53C01082D3F0108A1
S31508008090513F0108753F0108993F0108A996040850
S315080080A0B3830008454E0108B3830008694E0108EA
S315080080B0014D01086D4E0108914E0108E595040829
S315080080C0B3830008FD43010835450108B38300085A
S315080080D0B3830008B3830008A1500108C5500108FE
S315080080E0CD960408B94B0108B3830008B38300088A
S315080080F0D94E0108B3830008FD4E0108E94101087D
S31508008100B3830008B3830008B54E0108B38300089B
S31508008110B3830008B3830008A14C0108B3830008A1
S31508008120254201085D42010899420108D542010825
S3150800813011430108B3830008B3830008BD3F010853
S31508008140E13F010805400108294001084D4601089C
S315080081504943010885430108C1430108014F010845
S31508008160B3830008B3830008B3830008B383000809
S31508008170B3830008B3830008B3830008B3830008F9
S31508008180B3830008B3830008B3830008B3830008E9
S31508008190B3830008B3830008B3830008B3830008D9
S315080081A0B3830008B3830008B3830008B3830008C9
S315080081B0B3830008B3830008B3830008B3830008B9
S315080081C0B3830008B3830008B3830008B3830008A9
S315080081D0B3830008B3830008B3830008B383000899
S315080081E001C900083DAF07080000000000000000B4
S315080081F001F0FF01102A2BDB10F0070F08D010F84A
S31508008200013B013A8B422DD010F0070F42B3F6D14D
S31508008210F0B441EA012141EA014122F007047FF066
S3150800822000070023F0E80256083C85EA010586EABD
S31508008230010685FA47F5A3FA87F586FA47F6A5FAF9
S3150800824087F68EB9EED1F0BC01F0FF0102F0070205
S3150800825032B110F8013B013A83EA010313B1F8D1B0
S315080082600020704701387047002D06BF3546033891
S31508008270073815F0010F07D1013015F4807F02BFCA
S31508008280013015F4C03F0130F0BC0138704700BF1B
S3150800829072B6394880F30888384880F30988384820
S315080082A04EF60851CEF20001086040F20000CCF20A
S315080082B000004EF63471CEF200010860BFF34F8F0E
S315080082C0BFF36F8F40F20000C0F2F0004EF68851FF
S315080082D0CEF200010860BFF34F8FBFF36F8F4FF0E8
S315080082E00000E1EE100A4EF63C71CEF2000108607D
S315080082F0062080F31488BFF36F8F07F0E1FD24F0A2
S3150800830013FA4FF055301F491B4A91423CBF41F8BA
S31508008310040BFAE71C49194A91423CBF41F8040B81
S31508008320FAE71A491A4A1B4B9A423EBF51F8040B00
S3150800833042F8040BF8E700201749184A91423CBF57
S3150800834041F8040BFAE707F0BFFD47F0B3F8144C01
S31508008350144DAC4203DA54F8041B8847F9E76DF06C
S31508008360ABF9114C114DAC4203DA54F8041B88479B
S31508008370F9E707F0A7BD000010100020101600202E
S3150800838000800008100000201010002054420A083F
S3150800839010160020581A0020581A0020D818022053
S315080083A0E0810008E4810008E4810008E88100080B
S315080083B06EE700F000F8FEE70A480B49026800601D
S315080083C08A4201D0FFF764FF08484FF480410160F4
S315080083D007484FF0010101600648D0F800D0406810
S315080083E000470000F0FF0120EFBEADDE4438024032
S315080083F0003801400000FF1F1EF0040F0CBFEFF30A
S315080084000880EFF3098026F0F9B81EF0040F0CBFB8
S31508008410EFF30880EFF3098026F038B91EF0040F51
S315080084200CBFEFF30880EFF3098026F07BB900BF95
S31508008430EC46A0E8F05F4FF000007047B0E8F05F48
S31508008440E546080008BF0120704700BF81F00041DB
S3150800845002E000BF83F0004330B54FEA41044FEA1B
S31508008460430594EA050F08BF90EA020F1FBF54EAB6
S31508008470000C55EA020C7FEA645C7FEA655C00F052
S31508008480E2804FEA5454D4EB5555B8BF6D420CDD23
S315080084902C4480EA020281EA030382EA000083EAA6
S315080084A0010180EA020281EA0303362D88BF30BD46
S315080084B011F0004F4FEA01314FF4801C4CEA11319C
S315080084C002D0404261EB410113F0004F4FEA0333FB
S315080084D04CEA133302D0524263EB430394EA050F86
S315080084E000F0A780A4F10104D5F1200E0DDB02FAF5
S315080084F00EFC22FA05F2801841F1000103FA0EF289
S31508008500801843FA05F359410EE0A5F120050EF14E
S31508008510200E012A03FA0EFC28BF4CF0020C43FA7F
S3150800852005F3C01851EBE37101F0004507D54FF08C
S31508008530000EDCF1000C7EEB00006EEB0101B1F5DC
S31508008540801F1BD3B1F5001F0CD349085FEA300022
S315080085504FEA3C0C04F101044FEA445212F5800F2D
S3150800856080F09A80BCF1004F08BF5FEA500C50F1CA
S31508008570000041EB045141EA050130BD5FEA4C0CAD
S31508008580404141EB0101013C28BFB1F5801FE9D20A
S3150800859091F0000F04BF01460020B1FA81F308BF2D
S315080085A02033A3F10B03B3F120020CDA0C3208DDF9
S315080085B002F1140CC2F10C0201FA0CF021FA02F1D4
S315080085C00CE002F11402D8BFC2F1200C01FA02F144
S315080085D020FA0CFCDCBF41EA0C019040E41AA2BF69
S315080085E001EB0451294330BD6FEA04041F3C1CDA31
S315080085F00C340EDC04F11404C4F1200220FA04F051
S3150800860001FA02F340EA030021FA04F345EA0301FA
S3150800861030BDC4F10C04C4F1200220FA02F001FABC
S3150800862004F340EA0300294630BD21FA04F029463E
S3150800863030BD94F0000F83F4801306BF81F48011D7
S315080086400134013D4EE77FEA645C18BF7FEA655C4A
S3150800865029D094EA050F08BF90EA020F05D054EA1C
S31508008660000C04BF1946104630BD91EA030F1EBF21
S315080086700021002030BD5FEA545C05D14000494125
S3150800868028BF41F0004130BD14F580043CBF01F518
S31508008690801130BD01F0004545F0FE4141F47001FE
S315080086A04FF0000030BD7FEA645C1ABF19461046D9
S315080086B07FEA655C1CBF0B46024650EA013406BFDA
S315080086C052EA033591EA030F41F4002130BD00BF99
S315080086D090F0000F04BF0021704730B54FF4806456
S315080086E004F132044FF000054FF0000150E700BFD7
S315080086F090F0000F04BF0021704730B54FF4806436
S3150800870004F1320410F0004548BF40424FF0000122
S315080087103EE700BF42004FEAE2014FEA31014FEA65
S3150800872002701FBF12F07F4393F07F4F81F06051B4
S31508008730704732F07F4208BF704793F07F4F04BFFF
S3150800874041F40021704730B54FF4607401F00045DC
S3150800875021F000411CE700BF50EA010208BF70473C
S3150800876030B54FF000050AE050EA010208BF70472D
S3150800877030B511F0004502D5404261EB41014FF496
S31508008780806404F132045FEA915C3FF4D8AE4FF09E
S3150800879003025FEADC0C18BF03325FEADC0C18BF81
S315080087A0033202EBDC02C2F1200300FA03FC20FAD2
S315080087B002F001FA03FE40EA0E0021FA02F114441F
S315080087C0BDE600BF70B54FF0FF0C4CF4E06C1CEA38
S315080087D011541DBF1CEA135594EA0C0F95EA0C0FA9
S315080087E000F0DEF82C4481EA030621EA4C5123EA1C
S315080087F04C5350EA013518BF52EA033541F480114B
S3150800880043F4801338D0A0FB02CE4FF00005E1FBFD
S3150800881002E506F00042E0FB03E54FF00006E1FB47
S3150800882003569CF0000F18BF4EF0010EA4F1FF048A
S31508008830B6F5007F64F5407404D25FEA4E0E6D41CA
S3150800884046EB060642EAC62141EA55514FEAC520DB
S3150800885040EA5E504FEACE2EB4F1FD0C88BFBCF557
S31508008860E06F1ED8BEF1004F08BF5FEA500E50F108
S31508008870000041EB045170BD06F0004646EA0101CE
S3150800888040EA020081EA0301B4EB5C04C2BFD4EB00
S315080088900C0541EA045170BD41F480114FF0000EF9
S315080088A0013C00F3AB8014F1360FDEBF002001F067
S315080088B0004170BDC4F10004203C35DA0C341BDCE1
S315080088C004F11404C4F1200500FA05F320FA04F0B3
S315080088D001FA05F240EA020001F0004221F00041E7
S315080088E010EBD37021FA04F642EB06015EEA430E5A
S315080088F008BF20EAD37070BDC4F10C04C4F120058A
S3150800890000FA04F320FA05F001FA04F240EA02003C
S3150800891001F0004110EBD37041F100015EEA430E0D
S3150800892008BF20EAD37070BDC4F1200500FA05F22D
S315080089304EEA020E20FA04F301FA05F243EA0203AC
S3150800894021FA04F001F0004121FA04F220EA0200BB
S3150800895000EBD3705EEA430E08BF20EAD37070BD01
S3150800896094F0000F0FD101F00046400041EB0101E1
S3150800897011F4801F08BF013CF7D041EA060195F0C3
S31508008980000F18BF704703F00046520043EB03037D
S3150800899013F4801F08BF013DF7D043EA060370476A
S315080089A094EA0C0F0CEA135518BF95EA0C0F0CD075
S315080089B050EA410618BF52EA4306D1D181EA0301BB
S315080089C001F000414FF0000070BD50EA410606BFB5
S315080089D01046194652EA430619D094EA0C0F02D1FA
S315080089E050EA013613D195EA0C0F05D152EA03363F
S315080089F01CBF104619460AD181EA030101F000415D
S31508008A0041F0FE4141F470014FF0000070BD41F0A5
S31508008A10FE4141F4780170BD70B54FF0FF0C4CF47F
S31508008A20E06C1CEA11541DBF1CEA135594EA0C0F9E
S31508008A3095EA0C0F00F0A7F8A4EB050481EA030EEB
S31508008A4052EA03354FEA013100F088804FEA0333D2
S31508008A504FF0805545EA131343EA12634FEA0222A0
S31508008A6045EA111545EA10654FEA00260EF0004161
S31508008A709D4208BF964244F1FD0404F5407402D2B3
S31508008A805B084FEA3202B61A65EB03055B084FEA44
S31508008A9032024FF480104FF4002CB6EB020E75EB41
S31508008AA0030E22BFB61A754640EA0C005B084FEA69
S31508008AB03202B6EB020E75EB030E22BFB61A7546E6
S31508008AC040EA5C005B084FEA3202B6EB020E75EB31
S31508008AD0030E22BFB61A754640EA9C005B084FEAA9
S31508008AE03202B6EB020E75EB030E22BFB61A7546B6
S31508008AF040EADC0055EA060E18D04FEA051545EAA5
S31508008B0016754FEA06164FEAC30343EA52734FEA4D
S31508008B10C2025FEA1C1CC0D111F4801F0BD141EAC6
S31508008B2000014FF000004FF0004CB6E711F4801F2B
S31508008B3004BF01430020B4F1FD0C88BFBCF5E06F0B
S31508008B403FF6AFAEB5EB030C04BFB6EB020C5FEA1B
S31508008B50500C50F1000041EB045170BD0EF0004E70
S31508008B604EEA113114EB5C04C2BFD4EB0C0541EAA2
S31508008B70045170BD41F480114FF0000E013C90E69F
S31508008B8045EA060E8DE60CEA135594EA0C0F08BF63
S31508008B9095EA0C0F3FF43BAF94EA0C0F0AD150EA62
S31508008BA001347FF434AF95EA0C0F7FF425AF1046F5
S31508008BB019462CE795EA0C0F06D152EA03353FF41D
S31508008BC0FDAE1046194622E750EA410618BF52EA9A
S31508008BD043067FF4C5AE50EA41047FF40DAF52EA6E
S31508008BE043057FF4EBAE12E74FF0FF3C06E000BF0B
S31508008BF04FF0010C02E000BF4FF0010C4DF804CD18
S31508008C004FEA410C7FEA6C5C4FEA430C18BF7FEAD7
S31508008C106C5C1BD001B050EA410C0CBF52EA430C05
S31508008C2091EA030F02BF90EA020F0020704710F185
S31508008C30000F91EA030F58BF994208BF90422CBF14
S31508008C40D8176FEAE37040F0010070474FEA410C0D
S31508008C507FEA6C5C02D150EA013C07D14FEA430C2B
S31508008C607FEA6C5CD6D152EA033CD3D05DF8040B9C
S31508008C70704700BF8446104662468C4619466346CE
S31508008C8000E000BF01B5FFF7B7FF002848BF10F1A5
S31508008C90000F01BD4DF808EDFFF7F4FF0CBF0120EA
S31508008CA000205DF808FB00BF4DF808EDFFF7EAFF66
S31508008CB034BF012000205DF808FB00BF4DF808ED21
S31508008CC0FFF7E0FF94BF012000205DF808FB00BF16
S31508008CD04DF808EDFFF7CEFF94BF012000205DF8A0
S31508008CE008FB00BF4DF808EDFFF7C4FF34BF0120AD
S31508008CF000205DF808FB00BF4FEA410C7FEA6C5C78
S31508008D0002D150EA013C0AD14FEA430C7FEA6C5C77
S31508008D1002D152EA033C02D14FF0000070474FF0EF
S31508008D20010070474FEA410212F5001215D211D51B
S31508008D306FF47873B3EB625212D94FEAC12343F04A
S31508008D40004343EA505311F0004F23FA02F018BFCC
S31508008D50404270474FF00000704750EA013005D195
S31508008D6011F0004008BF6FF0004070474FF0000058
S31508008D70704700BF4FEA4102B2F1E04324BFB3F5A2
S31508008D80001CDCF1FE5C0DD901F0004C4FEAC00274
S31508008D904CEA5070B2F1004F40EB830008BF20F058
S31508008DA00100704711F0804F21D113F13872BCBF12
S31508008DB001F00040704741F480114FEA5252C2F167
S31508008DC01802C2F1200C10FA0CF320FA02F018BFB0
S31508008DD040F001004FEAC1234FEAD32303FA0CFC03
S31508008DE040EA0C0023FA02F34FEA4303CCE77FEA92
S31508008DF0625307D150EA01331EBF4FF0FE4040F4DC
S31508008E004000704701F0004040F0FE4040F400008A
S31508008E10704700BF80F0004002E000BF81F00041CB
S31508008E2042001FBF5FEA410392EA030F7FEA226C02
S31508008E307FEA236C6AD04FEA1262D2EB1363C1BF92
S31508008E40D218414048404140B8BF5B42192B88BF01
S31508008E50704710F0004F40F4000020F07F4018BF24
S31508008E60404211F0004F41F4000121F07F4118BF44
S31508008E70494292EA030F3FD0A2F1010241FA03FCEC
S31508008E8010EB0C00C3F1200301FA03F100F00043D4
S31508008E9002D5494260EB4000B0F5000F13D3B0F19C
S31508008EA0807F06D340084FEA310102F10102FE2A0B
S31508008EB051D2B1F1004F40EBC25008BF20F001007B
S31508008EC040EA03007047490040EB0000013A28BF1A
S31508008ED0B0F5000FEDD2B0FA80FCACF1080CB2EB9D
S31508008EE00C0200FA0CF0AABF00EBC250524218431B
S31508008EF0BCBFD0401843704792F0000F81F40001C0
S31508008F0006BF80F400000132013BB5E74FEA410392
S31508008F107FEA226C18BF7FEA236C21D092EA030FFE
S31508008F2004D092F0000F08BF0846704790EA010F78
S31508008F301CBF0020704712F07F4F04D1400028BFA5
S31508008F4040F00040704712F100723CBF00F5000087
S31508008F50704700F0004343F0FE4040F400007047BD
S31508008F607FEA226216BF08467FEA23630146420269
S31508008F7006BF5FEA412390EA010F40F4800070477C
S31508008F804FF0000304E000BF10F0004348BF404222
S31508008F905FEA000C08BF704743F0964301464FF05E
S31508008FA000001CE050EA010208BF70474FF00003BA
S31508008FB00AE000BF50EA010208BF704711F00043FB
S31508008FC002D5404261EB41015FEA010C02BF8446CB
S31508008FD00146002043F0B64308BFA3F18053A3F52A
S31508008FE00003BCFA8CF2083AA3EBC25310DB01FA71
S31508008FF002FC634400FA02FCC2F12002BCF1004FF5
S3150800900020FA02F243EB020008BF20F00100704785
S3150800901002F1200201FA02FCC2F1200250EA4C00D9
S3150800902021FA02F243EB020008BF20EADC7070471F
S315080090307BB972B90029BEBF00204FF0004106E097
S3150800904008BF00281CBF6FF000414FF0FF3000F04A
S3150800905057B8ADF1080C6DE904CE002909DB002BE1
S315080090601ADB76F05FFBDDF804E0DDE9022304B0E5
S315080090707047404261EB4101002B1BDB76F052FB47
S31508009080DDF804E0DDE9022304B0404261EB41016A
S31508009090524263EB43037047524263EB430376F055
S315080090A041FBDDF804E0DDE9022304B0404261EB50
S315080090B041017047524263EB430376F033FBDDF818
S315080090C004E0DDE9022304B0524263EB4303704730
S315080090D053B94AB9002908BF00281CBF4FF0FF3111
S315080090E04FF0FF3000F00CB8ADF1080C6DE904CE76
S315080090F076F018FBDDF804E0DDE9022304B07047DA
S31508009100704700BF2DE9F04F2DED108AC1F80CD03D
S31508009110C3689D46BDEC108ABDE8F08F07F056F887
S31508009120002383F311882846A047002008F046FB51
S31508009130FEE707F0E3F908F0B9FA07F047F800DFA9
S31508009140FEE710F8012B11F8013B012A28BF9A42C5
S31508009150F7D0D01A7047034613F8012B002AFBD123
S31508009160181A01387047000070B586B00C461146CB
S315080091701A46114B0093054674B1631ECDE90103E7
S3150800918000266846CDE903660BF0AEFF039BA342B3
S3150800919000D2EE5406B070BD9FED057B019068467F
S315080091A08DED027B04940BF09FFF06B070BD00BFE7
S315080091B00000000000000000C803080800000000C6
S315080091C02DE9F04759EC108B3D4B002240464946A5
S315080091D0FFF77EFD002867D035A5D5E90045384F4D
S315080091E04FF0000A00260CE0FFF716FC8046894679
S315080091F032463B46404649460AF1050AFFF768FDEE
S31508009200E8B1494622462B464046FFF761FD8446AB
S3150800921022462B4640464946BCF1000FE4D1324669
S315080092203B46FFF7F9FB8046894632463B464046B1
S3150800923049460AF1010AFFF74BFD0028E1D1214B07
S31508009240002240464946FFF72FFD50B31AA5D5E937
S31508009250004517A7D7E900670CE0FFF7B3FAAAF1AC
S31508009260050A80468946174B002240464946FFF7BD
S315080092701BFDB0B1494622462B464046FFF714FD72
S31508009280844632463B4640464946BCF1000FE4D187
S315080092900B4B0022FFF796FA0AF1FF3A80468946F9
S315080092A0E1E75046BDE8F0878246C8E7AFF300809D
S315080092B000000000006AF84000000080B5F8E43EAF
S315080092C0000024400000F03F2DE9F047B0F1000A05
S315080092D02D4D4FF0000426DD29A7D7E90067DFF8F2
S315080092E0AC904FF00008BAF1040F204629463246E2
S315080092F03B460CDDFFF766FAAAF1050A04460D4659
S31508009300BAF1000FEFD145EC104BBDE8F0874246A5
S315080093104B46FFF757FA0AF1FF3A04460D46BAF1EB
S31508009320000FE0D1EFE7EED015A7D7E900671AF1ED
S31508009330040FDFF858904FF00008204629463246B9
S315080093403B460FDAFFF768FB0AF1050A04460D46A5
S31508009350BAF1000FD7D01AF1040F20462946324633
S315080093603B46EFDB42464B46FFF756FB0AF1010A3E
S3150800937004460D46BAF1000FEDD1C4E7AFF30080FD
S3150800938000000000006AF8400000F03F000024409A
S3150800939070B5C66984B0044630460D4613F0C2FE61
S315080093A0204613F0B1FB204613F0FCFB9FED087B2B
S315080093B003462946304607246A468DED027B8DF81A
S315080093C00040019313F03AFF04B070BDAFF300807C
S315080093D0FFFFFFFFFFFFFFFF2DE9F04FC768C669D4
S315080093E0D0F804802DED028B282F87B004460D4651
S315080093F072D040F223139F4240F0858014F0A6F9FC
S315080094009FED438B4FF0070A4FF00809E3683A2BA4
S3150800941014D008DD5B2B51D05A2B40DC07B0BDECCD
S31508009420028BBDE8F08F282B3ED02E2BF6D129468D
S315080094302046FFF7ADFFE3683A2BEAD1204613F042
S3150800944063FB204613F0AEFB2946039030468DEDAC
S31508009450048B8DF808A013F043FE2B78D5F804B0DA
S31508009460082B4BD096F834706F600221304685F889
S31508009470009012F0DFFBBA1C02A986F834205B467E
S3150800948000913A461421304613F066FE9DF80830DE
S31508009490082B0DD10399304670F0F4FC08E07B2BBD
S315080094A002D0B3F5927FB9D12946304613F0FAFDBA
S315080094B042462946204614F0A3FFA7E72946304628
S315080094C013F030FE02A9204614F020F802AA294615
S315080094D0304613F0B3FE99E713F016FB294600222F
S315080094E0204615F0A3FB204643463A46292113F0A9
S315080094F02FFBE069294613F0E5FB81E7594630461C
S3150800950070F0C0FCAEE7044912F02CFBAFF3008004
S31508009510FFFFFFFFFFFFFFFFB01108080000000074
S315080095200D4B9FED0B7B03F6080C03F61401002286
S315080095300020CCF800200A6003F5026202ED027BE7
S31508009540C3F80408C3F81008C3F82008704700BF1A
S3150800955000000000000000000000001000000000ED
S3150800956030B5012285B00C21044611F0B9FCE0B1F2
S315080095709FED117B0246124B043280ED017B02609F
S315080095800FCB6D4685E80F000E4B0F491A6820462B
S315080095900EF0F8FE00222946204621F02BFC204634
S315080095A06FF0EEFC012005B030BD20460EF094FEAB
S315080095B0012005B030BD00BF00000000000000F02B
S315080095C080FF070800A70020D8B9F0FF00000000B8
S315080095D02DE9F04F2DED048B03689DB0DB689847A5
S315080095E0002800F098850368A94ADB6893428346F9
S315080095F040F08D850BF10D030693A64BDFF8C8A244
S3150800960098699FEDA58ADFEDA58A41F0CDFA7F28F6
S315080096109FED9D9B0BF10C0540F3F280DBF80030C3
S3150800962058461B6998470446002800F0B885DAF8BA
S3150800963020300133CAF82030DBF8003001225E689A
S315080096400DF123014FF47A735846B047012840F0CC
S3150800965023859DF82330542B15D8452B16D9463B20
S315080096600E2B13D8DFE813F0DB00120012001200ED
S315080096701200120012001200120012001200D3008B
S315080096801200D300EF00742B00F0DD80DBF8003009
S3150800969001225E6809A90A235846B047012840F006
S315080096A06B859DF823309DF8246046EA03263746E5
S315080096B007F1040936B2002F00F0FA8440F21E437F
S315080096C0994500F3F5849BF83034002B00F0AE83FF
S315080096D0DBF800304A46D3F8048029464FF47A73FB
S315080096E05846C04781459BF80C8040F03B8740466A
S315080096F03DF07CFC8146002800F05987AB5932467C
S31508009700002128461EBA64F08FF9864240F0D983B4
S3150800971001238BF83034242062F0A0F8022F9BF83E
S315080097200C3040F3A483042FBBF80D6040F3A283EA
S31508009730BBF80F90A3F138023C2A3ED8DFE812F0B6
S315080097405A0307033D003D003D003D003D003D0036
S315080097503D00FC02CD02C8023D009C023D001102FC
S315080097603D003D003D003D0003023D003D00550122
S315080097703D003D002D011F0187003D00F001E2017B
S315080097803D003D0086013D003D003D003D00630172
S315080097903D003D0007013D003D00F2003D003D0053
S315080097A03D003D003D00C6008E003D003D003D00E9
S315080097B03D003D003D003D00870083215846059346
S315080097C067F052FB059B364A3648009350210BF04A
S315080097D0E7FEDBF82C0433496FF0A8FF242062F07B
S315080097E041F831484246414646F022FD00242F4BB7
S315080097F01C70284B986941F0D7F97F283FF70EAFC0
S315080098002B4A2C4941F6F42054F01AFDEEE72A4873
S3150800981046F00EFD0021584667F008FBE7E7DBF83F
S315080098202C14264A264846F003FDDBF80030254965
S315080098301E68584600230322B047DBF80030584616
S315080098409B689847D3E758463EF09CFDCFE75846B5
S315080098503EF098FD242062F005F8C8E79BF80D3025
S31508009860022B00F07F84032B00F05C84012BB5D11A
S3150800987062F044F958463FF05FFD242061F0F2FF9C
S31508009880B5E700BFAFF30080094B55DB00000000C9
S315080098903D460208B09700200024744900007A4427
S315080098A020B00808145801204CB008089718022060
S315080098B058A9080824810808E4AC080804AD080873
S315080098C0209B080814AD0808DC580120DAF818307F
S315080098D05A46013349463046CAF818303FF038FD33
S315080098E00746002840F0F88301464022C64876F02D
S315080098F094F8C6484A463946304464F095F800BAA2
S315080099000C900CAA58460097042301213FF0C6FC88
S315080099100C9BBF484A46314646F08AFC242061F033
S31508009920A1FF64E7BB4BBC4E1A78BC4B002A18BF94
S315080099301E463046FFF70FFC0121034632465846BD
S3150800994000913FF0ABFC242061F08CFF4FE701212A
S31508009950B348B44FB44E0091002302683B70C0E987
S315080099600033336058464FF400530C923FF096FC90
S315080099700CA86FF095FF242061F074FF37E7AB4A17
S31508009980DBF82C14AA4846F053FC5846012167F028
S315080099904DFA242061F066FF29E7DAF80830A54871
S315080099A00133CAF8083032464B46002146F040FCDF
S315080099B05A46494630463FF0CBFC0746002840F059
S315080099C073829D4BB3F8C62C002A40F0DB8308331C
S315080099D01E444B46324600210091584601213FF06D
S315080099E05DFC242061F03EFF01E7012F934814BF78
S315080099F04B464FF4E663324659463EF0CBFE2420EA
S31508009A0061F030FFF3E68E4B1B78002B40F0718334
S31508009A108C490B68002B40F0488302228A4E0A6064
S31508009A207F4B186808B100200860C3E900620CA8DB
S31508009A3000230C936FF034FF7A4B584601221A70B4
S31508009A403FF07AFC242061F00DFFD0E6BBF80D80CC
S31508009A50BBF80F707D487FBA98FA98F6B6B2BFB2CF
S31508009A603A46314646F0E4FB79484FF065FC202E2D
S31508009A7000F20382202E00F29F8301A353F826F0FA
S31508009A80CBA10008B9A10008B9A10008B9A100082E
S31508009A90B9A10008B9A10008B9A10008B9A1000830
S31508009AA0B9A10008B9A10008B9A10008B9A1000820
S31508009AB0B9A10008B9A10008B9A10008B9A1000810
S31508009AC0B9A10008D5A10008DFA100081DA2000859
S31508009AD0DDA200084DA3000857A30008B9A1000895
S31508009AE0B9A1000861A30008B9A10008B9A1000836
S31508009AF0B9A10008759800087FA300088FA300087D
S31508009B009FA3000831460BF10F030122584667F060
S31508009B10DBF9504845F034FF242061F0A3FE66E6E1
S31508009B205AF088FB0DF130094B4B4C4A0090202126
S31508009B308DED029B48460BF033FD4846FFF70BFBBD
S31508009B404A46431C47E70123002200925846194615
S31508009B500CAA8DF830303FF0A1FB242061F082FE7C
S31508009B6045E6DAF824303E4E334FB26A0133CAF876
S31508009B702430D7F858359A4280F0ED8145F0C0FE7A
S31508009B80D6E90C3253EA020640F0CA81354E3368EC
S31508009B90032B00F0F1813448B0EE480A47F0B4FCD4
S31508009BA0002840F0FA81314E314809F05BF93368F4
S31508009BB0304A03F580510020C1F8643911681360F2
S31508009BC018702B48316009F0DFF9326802F58053C6
S31508009BD0D3F864691378B61A2BB1134613F8011F24
S31508009BE00029FBD19B1A9E4240F0DE82DBF800106A
S31508009BF001200090334658468E690021B04724203C
S31508009C0061F030FEF3E500BF4265001070580010A1
S31508009C10D8AE080879180220403701206458012078
S31508009C20C057012092180220B837012050AE080804
S31508009C30209B080834AF08086858001060170020F1
S31508009C4093180220BC570120BC370120C0AF080872
S31508009C50A8230010201F002064AE08086CAE080870
S31508009C60A83B002000580120A03B002058170020E0
S31508009C70045801205C17002006980744002307F8BB
S31508009C80013C9BF80D30202B40F0808410F8013FF2
S31508009C90202BFBD07BB1034613F8012F002AFBD1FA
S31508009CA0191A002903DC06E083421A7003D013F858
S31508009CB0011D2029F8D08F4B1B689847002358466A
S31508009CC01A4619463FF07CFA242061F0CBFD8EE552
S31508009CD04A4631460BF1110318E70DF1300948469B
S31508009CE045F04EFEDAF80C3083480133CAF80C30DA
S31508009CF046F09EFA59F0FAFA8048B0EE480A47F05C
S31508009D0003FC002840F0FB8100231A46042158462C
S31508009D103FF056FA484645F041FE60EE287A17EEBF
S31508009D20900AFEF7F7FC02460B46754846F080FA9D
S31508009D30242061F097FD5AE572484FF4E663002245
S31508009D4059463EF027FD242061F08CFD4FE56E4E06
S31508009D50002206F140083146012031F8023F5B0B2C
S31508009D601CBF03F1FF3300FA03F341451A44F4D14B
S31508009D70002158463EF0BCF90DF130090746059416
S31508009D80079536F8023F5C0B1DD00122013C02FA0A
S31508009D9004F45E4A0A9226220B9200940AAA06CA7C
S31508009DA0C3F30C03484664F0D5F8DBF800302246C6
S31508009DB01D68494600235846A8473946224648465C
S31508009DC063F032FE07464645DBD1DBF80030059CDA
S31508009DD01E68079D3FBA4946042258460C97012338
S31508009DE0B047DBF8003058469B689847242061F056
S31508009DF039FDFCE4464B1B78002B00F07D810020E2
S31508009E0061F026FF0646002853D0D0F8E434012135
S31508009E10024603EB8303009158463FF03FFA30466B
S31508009E2061F046FF242061F01DFDE0E4DBF8003018
S31508009E300246D3F8048029460A235846C0479BF8A9
S31508009E400C8040463DF0D2F800283FF4CFACDBF852
S31508009E5000300699D3F80490F21C05924FF47A73F1
S31508009E605846C847059A82423FF448ACBEE40026E5
S31508009E70B1465FE44FF000095CE4B8F53A4F00F0EC
S31508009E809483BA2E09D9B8F53B4F00F04285B8F548
S31508009E903C4F40F0918140F067FEB8F5F24F40F034
S31508009EA08B815AF073FAE5E4DBF82C0419496FF054
S31508009EB03DFC5846842166F0D7FF242061F0D2FC89
S31508009EC095E49BF83034002B3FF490AC33460246B9
S31508009ED09BF80C10104846F0ABF91049DBF82C0437
S31508009EE06FF024FC8221584666F0BEFF00238BF8EB
S31508009EF030347BE4EC5701200CAF08080824001026
S31508009F001CAF08086017002040650010D4EF002039
S31508009F109318022068AF080804AE08083CAE080883
S31508009F20C01A61EB02010A1E03DAC31C184642F185
S31508009F3000028308D7F85815C84800FB01F1C8483D
S31508009F40A0FB010143EA8273090992100020994295
S31508009F509041BFF61BAEC349C34846F035F9C34B1B
S31508009F6093F81835002B40F0F980C14E00F028FE12
S31508009F703368032B7FF40FAEBA49BE4846F024F97E
S31508009F80BC4847F035FA0123BB483360B0EE480AAF
S31508009F9047F0BAFA00283FF406AEB74845F0F0FC99
S31508009FA03B89692B96BFB54A4FF0000852F82380C3
S31508009FB05AF040F9064645F011FDA84A0023FFF776
S31508009FC037F83146CDE90080AD4BAE4AAE4846F08B
S31508009FD02FF9B7F8EC12012902D9AC4863F008FD4D
S31508009FE0B7F8EE12012902D9A94863F001FDA94E76
S31508009FF0DFF8E08206F1080936F8021F012903D9BD
S3150800A000D8F8000063F0F4FCB14508F10408F3D170
S3150800A010D7F8CC210C2A1346A8BF0C23002A7FF7B1
S3150800A020C2AD9D4F0594B9463C469C4E4FF000087C
S3150800A0301F462AE0718B012901D963F0D9FCD4F8AF
S3150800A0405C0700284FD0B6F82214012901D963F01D
S3150800A050CFFCD9F83C03002848D036F8021F01295E
S3150800A06001D963F0C5FCD9F88C04002838D0B6F8B5
S3150800A070D81B012901D963F0BBFC08F10108B845D2
S3150800A08004F1200409F11C094ADAD4F8DC05002891
S3150800A090D0D1D4F8E005CDE7814CA34500F09681F0
S3150800A0A000238BF83034FFF7A1BB00221646B7E42D
S3150800A0B09BF83034002BF3D0DBF82C1479483A4659
S3150800A0C046F0B6F8DBF82C0477496FF02FFB8421AD
S3150800A0D0584666F0C9FEE3E7DBF82C047349E6E662
S3150800A0E0D9F89004C3E7D4F86007ACE7D9F8400379
S3150800A0F0B3E761F07FFD8BE461F000FD7FE636F0A3
S3150800A10037FC6B483BF0F6FE58F0B4FDFCE5984783
S3150800A11000287FF46FAA1DB0BDEC048BBDE8F08F54
S3150800A120059C40E5002061F093FD0646002800F0F6
S3150800A1303082D0F8E4340121024603EB8303009110
S3150800A14058463FF0ABF8304661F0B2FD58463FF04E
S3150800A150F3F8242061F086FBFFF749BB424847F035
S3150800A16047F902E761F046FD58463FF0E5F8242036
S3150800A17061F078FBFFF73BBB4E49DBF82C046FF028
S3150800A180D5FA8DE74C4940F25E200BF10F0654F0E4
S3150800A19057F839464A46304675F03FFC19E40A2016
S3150800A1A007F034FBFFF722BB3246444941F68610D6
S3150800A1B054F046F8002219E541493B46324640F23A
S3150800A1C05E2054F03DF8FFF755BB3E4B83F81A76F0
S3150800A1D0FFF750BB3C4B00221A60FFF74BBB002829
S3150800A1E03FF448AB374BDFED390AB3F8622D9FEDE4
S3150800A1F0380AD3F8701D07EE902AB3F84226F8EE0F
S3150800A200E77A384667EEA00A07EE902AF8EEE77A6C
S3150800A21027EE800A58F08CFDFFF72CBB00283FF488
S3150800A22029AB284BDFED290AB3F8622D9FED280AE2
S3150800A230D3F8701D07EE902AB3F84226F8EEE77AAF
S3150800A240384667EEA00A07EE902AF8EEE77A27EE78
S3150800A250800A58F01BFDFFF70DBB00BF40420F00F8
S3150800A260CDCCCCCC647D0908B03B00200050001052
S3150800A27000580120F0570120A03B0020745309081C
S3150800A28078AE0808094B55DB80AE0808300C0A087A
S3150800A290380C0A08AA5A0010C89B0020F25A001067
S3150800A2A0205E012034AD080864AD0808C0AE080871
S3150800A2B0089B080818AD080880AF0808A0AE08086B
S3150800A2C0FCAF080868580010C8570120CDCCCC3D13
S3150800A2D00AD7233C6453090800007A44BB1F172B8E
S3150800A2E000F2AB8101A252F823F000BF4BA7000889
S3150800A2F009A70008759800083BA600087DA600086F
S3150800A3003BA6000871A60008BBA70008AFA700086F
S3150800A310A7A7000893A7000887A7000877A700083B
S3150800A3206FA7000863A7000825A600087598000807
S3150800A3301BA6000811A6000807A60008FDA5000828
S3150800A340F5A500082FA60008E9A50008F8B25AF0F6
S3150800A350DBFEFFF78FBA384658F0D0FDFFF78ABA0A
S3150800A36000283FF487AA5FED240AC64B3846D3F87F
S3150800A370701DB0EE600A58F035FDFFF77BBAC2488B
S3150800A38045F0FEFA38466BF077F9FFF773BABE4820
S3150800A39045F0F6FA63206BF06FF9FFF76BBA002801
S3150800A3A03FF468AAB74BDFEDB90AB3F8622DD3F8C4
S3150800A3B0701D07EE902AF8EEE77AB1EE000A67EE0E
S3150800A3C0A00A384658F054FDFFF754BAB04B1B782C
S3150800A3D0002B3FF465AEDFF82C83AE4845F028FF26
S3150800A3E098F80030033B012B00F2ED802368AA4859
S3150800A3F05E68012240F6B83309A9B0470646002828
S3150800A40040F0EB80A44F06E0042B00F0DA81013619
S3150800A410072E00F0FE81236838465B6998470A20B4
S3150800A42007F0F4F99D4B9E4853F83610894645F0D7
S3150800A430FFFE23684946DB69384698470A2007F035
S3150800A440E5F93846974966F09BFC38463EF0FAF936
S3150800A45090B198F80030032BD6D13846924966F069
S3150800A4608FFC38463EF0EEF90028D0D18F4845F0EB
S3150800A470DFFE0A2007F0CAF90DF1300998F8003016
S3150800A4808B4F033B012B3E7040F2C7812368894AF4
S3150800A4905B698148934240F0078241F07DF80A20C3
S3150800A4A007F0B4F93A7823687C49DB6951F8321029
S3150800A4B0814A7948934240F0058264F0A7FF98F8EC
S3150800A4C00030002B40F097817C4B7D4A402148465E
S3150800A4D00BF066F87048494666F052FC6E483EF046
S3150800A4E0B1F9002840F0828198F80030032B00F07B
S3150800A4F0AC80002B40F08681724B734A4021484657
S3150800A5000BF04EF86448494666F03AFC62483EF05D
S3150800A51099F9002840F06A8198F80030002B40F03D
S3150800A520C5816A4B5D4A1B68402152F83330684A38
S3150800A53048460BF035F85848494666F021FC564817
S3150800A5403EF080F9002840F0518198F80030033B2E
S3150800A550012B40F2CD815F4845F06AFE4C4A002344
S3150800A56013709DE543464A4601465B4845F060FE42
S3150800A5705A49DBF82C046FF0D9F88021584666F062
S3150800A58073FC00238BF83034FFF730B90698FFF7D1
S3150800A59081BB8421584666F067FC58463EF0CCFEDF
S3150800A5A0242061F05FF9FFF722B940F0D1FA4C4850
S3150800A5B0414645F03DFE8321584666F055FC8BF82A
S3150800A5C03094FFF713B9474845F032FE464845F040
S3150800A5D02FFE464845F02CFE08E7454845F028FE7C
S3150800A5E02B4A002313705BE50021012052F0AEF9D7
S3150800A5F0FFF740B93CF08EFEFFF73CB904203CF06B
S3150800A60099FEFFF737B903203CF094FEFFF732B9FD
S3150800A61001203CF08FFEFFF72DB902203CF08AFEA0
S3150800A620FFF728B9334B01221A70FFF723B9002127
S3150800A630084652F08BF9FFF71DB92F493A4640F202
S3150800A6405E2053F0FDFDFFF715B91C4B2B4A402140
S3150800A65048460AF0A5FF1048494666F091FB0E48A1
S3150800A6603EF0F0F8002840F0C18098F8003040E746
S3150800A670234B012283F8A023FFF7FCB857F042FBCF
S3150800A680FFF7F8B86858001008240010CDCCCC3D68
S3150800A6909118022068A90808205E01202C53090891
S3150800A6A028AB080840AB080848AB080854AB0808AC
S3150800A6B08F18022099B504080DF4060828370120DA
S3150800A6C0F8AB08082037012024AC080854170020E6
S3150800A6D040AC080888AC080884AD0808C4AD08086A
S3150800A6E0E8AD080898A9080804AA080858AA080896
S3150800A6F0D4AA080895180220E4AF080814AC08087C
S3150800A7000020001090180220834F844ED7F8F800D6
S3150800A7100D2386F8CC3008B30368DB689847F0EE5B
S3150800A720407AD7F80401C6ED327A002800F0EE80A8
S3150800A7300368DB689847F0EE407A794AC6ED677A8F
S3150800A740137801331370FFF795B8734F734ED7F824
S3150800A750F8000C2386F8CC300028DDD1DFED717ABD
S3150800A760DFE7714B012283F8A123FFF783B84BF08B
S3150800A77081FBFFF77FB86D4B6D4801221A7008F010
S3150800A7801BFBFFF777B80121084652F0DFF8FFF701
S3150800A79071B8624B002283F8CC2003F5005383F886
S3150800A7A0A023FFF767B84BF0A9FAFFF763B80121B2
S3150800A7B0002052F0CBF8FFF75DB867F027FAFFF7ED
S3150800A7C059B85C495C480DF1300966F0D9FA5A481F
S3150800A7D01022494666F0EAFA09287FF418AE574867
S3150800A7E045F026FD0A2007F011F847E65448494681
S3150800A7F045F01EFDB2E6534B534A402148460AF03F
S3150800A800CFFE67E6514B524A402148460AF0C8FE39
S3150800A81078E6504BFF221A70A0E64F49464866F084
S3150800A820AFFA40224946444866F0C0FA41494248D0
S3150800A83066F0A6FA40484022494666F0B7FA98F804
S3150800A8400030032B4AD045493B4866F099FA402226
S3150800A8504946394866F0AAFA4149374866F090FAF7
S3150800A86035484022494666F0A1FA98F80030032B8D
S3150800A8702AD03C49304866F083FA2F483DF0E2FF7B
S3150800A88039492D4866F07CFA2B483DF0DBFF98F8ED
S3150800A8900030032B7FF4FAAD2748344966F070FA86
S3150800A8A025483DF0CFFFF1E59847F8E5304B314AAA
S3150800A8B01B6802EBC30340211B792F4A48460AF05E
S3150800A8C06FFE38E69847FAE52C491B4866F058FAB1
S3150800A8D040224946184866F069FACAE728491648E0
S3150800A8E066F04EFA40224946134866F05FFAAAE730
S3150800A8F01148244966F044FA0F483DF0A3FF0028A2
S3150800A9003FF429AE204845F093FC24E6DFED057AAE
S3150800A91013E740F00BF900BFD0A700200000001095
S3150800A920941802200000000000200010961802204B
S3150800A930E05701206CAB0808205E012078AB0808B8
S3150800A940C4AC08082837012008AC080820370120BD
S3150800A95034AC08088F18022090AB0808ACAB08087E
S3150800A960B8AB0808D0AB0808E0AB0808ECAB080899
S3150800A970541700202C53090854AC0808C4AB08081F
S3150800A980A0AB080860AC08086CAC0808000000001A
S3150800A99010B590F8E03090F8DCC0174C83F001034E
S3150800A9A063F3000C80F8DCC04FF48C62002120466B
S3150800A9B075F033F84FF4F072002104F2644075F034
S3150800A9C02CF80E4B9FED0A7B03F50F5203F5005347
S3150800A9D082ED067B03F6EC6003F56F620021002426
S3150800A9E0C3F8A8480160116010BD00BFAFF300802E
S3150800A9F000000000000000F04824001000000010CD
S3150800AA009FED116BD0ED0F7A80ED030AB5EEC00A03
S3150800AA100123F1EE10FA80ED066BC0ED097A80EDA0
S3150800AA200F0A03720BD9DFED0A6A86EE807AF5EE15
S3150800AA30407AF1EE10FA80ED0A7A03D07047054B9A
S3150800AA408362704767F0C6BB000000000000000084
S3150800AA50ABC222480000C07FD0B5554C554E0027E2
S3150800AA60204632463B463F216EF0CCFE04F12800D4
S3150800AA7032463B4640216EF0C5FE04F15000324690
S3150800AA803B4641216EF0BEFE04F1780032463B4655
S3150800AA9042216EF0B7FE04F1A00032463B46432140
S3150800AAA06EF0B0FE04F1C80032463B4644216EF013
S3150800AAB0A9FE04F1F00032463B4645216EF0A2FE9F
S3150800AAC004F58C7032463B4646216EF09BFE3A4BA7
S3150800AAD03A49196047201871482083F8240049200C
S3150800AAE083F844004A209FED2E6B9FED2F7B83F859
S3150800AAF064004B2083F884004C20002283F8A400CD
S3150800AB004D244E2083ED046B83ED0C6B83ED146BA3
S3150800AB1083ED1C6B83ED246B83ED067B83ED0E7B47
S3150800AB2083ED167B83ED1E7B83ED267B1A721A73E3
S3150800AB30196283F8282083F82C20196483F84820A2
S3150800AB4083F84C20196683F8682083F86C20C3F8CC
S3150800AB50801083F8882083F88C20C3F8A01083F827
S3150800AB60A82083F8C44083F8E40083ED2C6B83EDBA
S3150800AB702E7B83ED346B83ED3C6B83ED367B83ED67
S3150800AB803E7B83F8AC20C3F8C010C3F8E01083F806
S3150800AB90C82083F8CC2083F8E82083F8EC20D0BDC1
S3150800ABA0002D310100000000000000000000000038
S3150800ABB0F0220020400D0300581A0020E8200A0859
S3150800ABC00D480E4AC3680E499FED097B10B4002450
S3150800ABD043611C700830046280F82440094B5DF814
S3150800ABE0044B80ED0A7B45F0EFBA00BFAFF3008057
S3150800ABF00000000000000000A83B0020A0140A087E
S3150800AC003CA10808647D09082DE9F04F2DED048B59
S3150800AC10544891B0FDF70CFC20B111B0BDEC048B83
S3150800AC20BDE8F08F012550490095034646220446A3
S3150800AC304E4845F00DFE4E48046143F0E5FE4D4B87
S3150800AC404D4A1B6813801B0C93704C4B9D63FFF792
S3150800AC50B7FF60F0C7FC4A494A4846F0E5FB4A494F
S3150800AC604A4846F0DDFB4A494A4846F0D9FB4A4974
S3150800AC704A4846F0D5FB4A494A4846F0D1FB4A4B72
S3150800AC801D78002D40F06581484E494845F0D0FAB8
S3150800AC9031222946474874F0C0FE96F8790164F0D7
S3150800ACA061FE96F84C0564F05DFE96F8DF0264F0E6
S3150800ACB059FE4149414846F0B7FB414870F08CF9C6
S3150800ACC0404870F089F9404A4048536843F4000305
S3150800ACD0536070F081F93E4890F83C33002B00F041
S3150800ACE043833C4B9A689B6C5380202383F31188DB
S3150800ACF005F004FC384B1A78511E012900F21C8312
S3150800AD0036495960012A1DD1354A3648116C41F039
S3150800AD1010011164116E41F010011166116E116A6D
S3150800AD2041F010011162116A21F0100111622E49D9
S3150800AD30126A98604FF48002702381F83633C1F89E
S3150800AD4084214A60244E2548B1680268B1FBF2F3B3
S3150800AD50013B9BB203FB0222914200F00D8323487C
S3150800AD6005F046FA20930020B8140A08B89D00207A
S3150800AD70F4AF0120CC140A0878930120A83B0020E0
S3150800AD8029B60608D0140A081DA50608DC140A0800
S3150800AD90CD100508F0140A0845100508FC140A0821
S3150800ADA0E113050810150A087918022068580010DA
S3150800ADB028150A08502B01205573040840150A085F
S3150800ADC0F0950020CC95002000230140A89500208E
S3150800ADD01862002028350120709400201C190020D4
S3150800ADE00038024000BD010500E100E000220A0823
S3150800ADF0B3F5AA7FC1F04E807BB9AF4BAF49B04AD5
S3150800AE00B048C3E902214FF4A271102219805A6092
S3150800AE10AD4900221A6146F003FBA74F264646B9FC
S3150800AE203B8833B1B86803681B689847031EC1F2AC
S3150800AE30D7820026A54FDFF8C0830096B7F84220D0
S3150800AE40A3493346404645F003FD0096B7F8D82295
S3150800AE50A0493346A8F5867045F0FAFC00963346B5
S3150800AE60B7F804239C49A8F5D47045F0F1FC9B4932
S3150800AE709B4846F0D5FA9B4B1E7097F84935D9077B
S3150800AE8003D497F84835DB0948D0DFF84082B8F88C
S3150800AE904410B8F8460040F009FAB8F848160746CC
S3150800AEA0B8F84A0640F002FA0646002F01F09980E3
S3150800AEB0874201F0058398F83436062B96BF8A4AEE
S3150800AEC08A4B52F82330814A186892F83C2659680A
S3150800AED0520608AB03C302D501F10043099308A93A
S3150800AEE0384606F073FB002E41F07E80804BC3E99E
S3150800AEF00076764B93F84935DB0706D5DFF8FC82F2
S3150800AF0098F8AC33002B01F0E582704B93F848357E
S3150800AF10DB0941F0C381734B01221A70754B1B780C
S3150800AF2053B96A4BB3F8EC023EF032FA002801F046
S3150800AF308B8171483AF09EFD644B93F8BC63F60921
S3150800AF4041F0BE803EF0FAFB3FF066FA6B4845F0EA
S3150800AF506FF96B496B4846F06BFA6B496B4846F0DC
S3150800AF6063FA5A4B93F80C23120700F1CF81614B11
S3150800AF70197879B9554B66481B89692B9CBF654A70
S3150800AF8052F8231045F054F94AF0D4FE6249634852
S3150800AF9046F04AFA624DDFF8688205F580674FF099
S3150800AFA0FF36294632464046203508F003FDAF42B3
S3150800AFB0F7D15C485C4946F03BFA5C4800F5805599
S3150800AFC095F8AC31002B00F0C581594959485A4DBE
S3150800AFD046F032FA59495A4846F022FA59495A4827
S3150800AFE046F01EFA95F85C36002B00F0A881574B00
S3150800AFF05A68002A00F0BB8158F078F900283FF417
S3150800B0000CAE5349534846F00BFA5349534846F099
S3150800B01007FA5349534846F013FA5349534846F03A
S3150800B02007FA5349534846F003FA5349534846F03A
S3150800B030FFF95349534846F007FA5349534846F02F
S3150800B040F3F95349534846F0EFF95349534846F044
S3150800B050EBF95349534846F0E7F95349534846F044
S3150800B060E7F930F08BFD524857F0E6FD514B52494F
S3150800B070524801221A6046F0D3F95149514846F020
S3150800B080CFF9514A514805216CF076FF504951488D
S3150800B09046F0C6F95049514846F0C6F95049514854
S3150800B0A046F0C2F95049514846F0C6F95049514848
S3150800B0B046F0C2F9A6E000BF8C36012088150A08BA
S3150800B0C08847002090150A08999D060868580010B8
S3150800B0D0B8150A08C0150A08CC150A0869A606088C
S3150800B0E0D8150A0898180220C8210A08E4210A086F
S3150800B0F07093012079180220A82300106C160A08FC
S3150800B100E532060820150A08515006084895090828
S3150800B11084160A0874530908B50E050818130A0890
S3150800B120B86B002098160A0801460208B86F002076
S3150800B130C9630208B0210808708100201946020870
S3150800B140A8160A0891550208B4160A08E83B002012
S3150800B150E1280608C0160A0899280608CC160A081F
S3150800B160BD2A0608D8160A08D9290608E4160A08C0
S3150800B17089290608EC160A08B1290608F8160A08E5
S3150800B180012A060804170A08C11A06080C170A082D
S3150800B1909D1A060818170A081D1A060820170A080D
S3150800B1A0411A06082C170A08651A060838170A08E5
S3150800B1B0981A001090930120FDBB050840170A084D
S3150800B1C0B1D6050860170A081DBC05086C170A08D9
S3150800B1D07DC2050884170A0891D8050890170A0839
S3150800B1E099D805089C170A086DC20508A8170A0801
S3150800B1F075C20508687C0908E89E002050BD001045
S3150800B200B0A500207649774846F01AF97649774876
S3150800B21046F012F97649774846F012F976497748A2
S3150800B22046F00EF97649774846F00AF9764977489E
S3150800B23046F0FAF87649774846F0FEF876497748B0
S3150800B24046F0FAF87649774846F0F6F876497748A8
S3150800B25046F0F2F87649774846F0EEF876497748A8
S3150800B26046F0DEF87649774846F0E6F876497748B4
S3150800B27046F0D6F87649774846F0E2F876497748B0
S3150800B28046F0DEF8764B1B78002B00F00382754CEF
S3150800B29075490125002348222046009545F0D8FA2D
S3150800B2A0002372490095472204F10C0045F0D0FAB4
S3150800B2B06F4B93F855359B0700F1F485684B1B785F
S3150800B2C00BBB6C48036143F09FFB694BB3F8F04432
S3150800B2D020463EF05DF838B19FED670A674B68492E
S3150800B2E06848224664F07AFB614BB3F8004520466D
S3150800B2F03EF04EF838B19FED600A634B60496348EB
S3150800B300224664F06BFB35F021FB86E493F8272789
S3150800B310002A3FF42CAEB3F842003EF039F8002874
S3150800B3203FF425AE00220092594B5A487F224FF42B
S3150800B330CA6107F065FC1AE6574804F059FF01236D
S3150800B340D5F8581685F85C3628463CF0C1FEC5F88F
S3150800B35060064CE60123D5F8A81185F8AC311AF039
S3150800B360DFF8C5F8B00130E63DF0A2FEB9E44B4A75
S3150800B3701168596013603FE6D0E90201F26821F0CE
S3150800B380FF01002717605060936217610223D1609E
S3150800B390337004F0C9FF202383F3118805F0AEF853
S3150800B3A005F076FB3378022B40F07185032372682B
S3150800B3B03370F36852680921D962012159615F62C5
S3150800B3C01F6112B1DA680A43DA6085221A6004F04E
S3150800B3D0ABFF33493348344E46F026F8012768E078
S3150800B3E0A9C30508B8E5080881C20508AC240808F9
S3150800B3F00DBD0508B0170A0859BD0508C4170A087F
S3150800B400A5BD0508DC170A083DE70308F8170A086A
S3150800B410FDBC050800180A08EDBC050814180A083A
S3150800B420E9BE050824180A08F1BE050834180A08F2
S3150800B4303DBE050844180A08559205084C180A081E
S3150800B440F9BE050858180A0831B2040870180A081F
S3150800B450B5FD05087C180A08F1BD050894180A0800
S3150800B46079180220C49D0020781B0A088C1B0A083C
S3150800B47068580010D0B0012000401C465C19002016
S3150800B480AC1B0A085046002068190020C846002050
S3150800B49059BD04086865002010220A08041800200F
S3150800B4A0698504084C150A082C2B0120384606F035
S3150800B4B0ADF93368012BF9D9694B93F8BD23170702
S3150800B4C078D5D3ED757ADFED676A9FED676A93F8ED
S3150800B4D048359FED660A67EEA67AB6EE007A67EEFD
S3150800B4E0877A180786EE277A614BDFED626AD3ED15
S3150800B4F0007A9FED616A27EE267AF4EEC67A48BF8F
S3150800B50037EE077AF1EE10FAD8BFF0EE477AF0EE8A
S3150800B510046A27EEA67AB4EEC07AF1EE10FA00F3C2
S3150800B52049879FED507A67EE877A87EE800A62F040
S3150800B5309FFD524B00225A60B0EE087AC0EE076AA9
S3150800B540F7EE004A36EEA45ABFEE007AA0EE005A8D
S3150800B55074EEE65A84EE856AA0EE007AE0EE005AAA
S3150800B56037EE077A66EE866A67EE067A26EE256A6B
S3150800B570B1EE667AC3ED006A83ED027AC3ED037A0B
S3150800B58083ED046A364B93F807365907C3F38006EA
S3150800B59000F19C863A48032256213EF043FE39487C
S3150800B5A0032257213EF03EFE374890F83C33002BE5
S3150800B5B000F012872A4B93F80C33DE0700F1388621
S3150800B5C0274B93F80C339A0700F1DC85244B93F844
S3150800B5D00C335B0700F1D185214B93F80F33DF0756
S3150800B5E000F1C6851E4B93F805361E0700F1BB858C
S3150800B5F01B4B93F80536D80600F1B085184B93F81F
S3150800B6000C3F002B3FF409AC204E0F335B010022A0
S3150800B610C6E9232306F1A8000123142286F8A330DD
S3150800B620C6F8942044F0ACF9B369002B00F00586FF
S3150800B630174A13885168194489B222460120002AFC
S3150800B6407FF4DAAB002B3FF4D8ABB3F5A27FBFF497
S3150800B650CFABB1F5A27F0246F1D9FFF7DEBB00BF3B
S3150800B66068580010DB0F494000006144809F554828
S3150800B670C867001000007A440AD7233CFC740120EE
S3150800B68070150A087C150A08D05E00208847002035
S3150800B6908C360120BC49BD4845F0C2FEBC4ABD48AF
S3150800B6A005216CF069FCBC4ABC4810216CF064FCAE
S3150800B6B0BB4ABC4811216CF05FFCBB4ABB48102151
S3150800B6C06CF05AFCBA4ABB4811216CF055FCBA4AD0
S3150800B6D0BA4811216CF050FCB949BA4845F0A0FEA9
S3150800B6E0B949BA4845F09CFEB949BA4845F098FEAA
S3150800B6F0B94ABA4805216CF03FFCB949B94845F042
S3150800B7008FFEB949B94845F08BFEB949B94845F0A5
S3150800B7108BFEB949B94845F083FEB949B94845F0A1
S3150800B7207FFEB949B94845F07BFEB949B94845F0A5
S3150800B7307BFEB948B94A11216CF01EFCB84890F84E
S3150800B7403C33002B00F03384B64EA6F2845557F0EE
S3150800B75091FCB548314644F091F9B5F8CA023DF076
S3150800B76017FE68B105F29C6393ED000ADFEDAF0A98
S3150800B770AF4AB049B048B8EEC00A00236CF018FBCF
S3150800B780AE4BB3F9E420B3F95210914201DAA3F8AB
S3150800B7905220AB4BAB4FAC4DAC4E7B6003F1400136
S3150800B7A0B96003F15001A1F54F59F96095F8011AEE
S3150800B7B0DFF800B34FF07E524FF0140840F26C7A6F
S3150800B7C0BA613A617A61B2613261726118FB01A1AC
S3150800B7D003F160024944726005F6042003F1A002F1
S3150800B7E0B033B260F36044F049F995F8511AC5F8D8
S3150800B7F0347A18FB01A1494405F65420C5F838BA2D
S3150800B80044F03CF995F8A11AC5F8846A18FB01A119
S3150800B8100BF17803494405F6A420C5F8883A44F0A4
S3150800B8202DF995F8F13AC5F8D47A18FB03A14944DD
S3150800B8300BF1F00305F6F420C5F8D83A44F01EF9E2
S3150800B8400BF5B473C5F8283BC5F8246B51F0C2F95B
S3150800B85099F8BC33590600F19D837D483AF00AF9F8
S3150800B8607C483AF007F97C483AF004F97B483AF004
S3150800B87001F901205FF0DAF8704B93F80F2392066E
S3150800B88040F1288393F84925D70704D593F8483516
S3150800B890DB0940F0AE85724940F25E2052F0D0FCDA
S3150800B8A0664D95F805369E0640F1278395F8483586
S3150800B8B0DB0940F080836B4940F25E2052F0C0FC01
S3150800B8C0212038F015FD48B95C4B674DB3F83A832B
S3150800B8D0B3F83C73AB68002B00F09385574B93F88D
S3150800B8E01E124B1E2F2B0AD8604CDFED500A9FED17
S3150800B8F0600A20463EF0FEFC20463AF0BBF84F4D63
S3150800B9005C4995F836025C4F5FF050FD95F80203E6
S3150800B9105A495FF04BFD59F05FF905F61A560024AF
S3150800B92005F64B5515F8012F36F8021F013438462F
S3150800B9303EF078FC082CF5D15149524845F080FD77
S3150800B9405149524845F06CFD5149524845F068FD49
S3150800B9505149524845F068FD384B93F85535DB098F
S3150800B96040F06F834E494F4845F05AFD4E4B93F8C9
S3150800B97027201AB94D4A1168D96213604A4E4C4CB1
S3150800B980B4614EF6602297E0A9200608A8180A08AE
S3150800B99051200608B8180A08212D0608C8180A08EA
S3150800B9A0012D0608D4180A08D52D0608E0180A0835
S3150800B9B0B52D0608EC180A08512E0608F8180A08C4
S3150800B9C0B520060804190A083D1F060814190A08AE
S3150800B9D0491F060820190A08E51E06082C190A0830
S3150800B9E01121060838190A08A90F060848190A086D
S3150800B9F09951060858190A08F51F06086C190A0805
S3150800BA00A51F06087C190A086521060888190A0868
S3150800BA10B50F060894190A08A0190A08DD2E0608A3
S3150800BA20308D0020EC5D0010C006001000000000FC
S3150800BA305C9E0020AC190A083040002068580010A7
S3150800BA40D88B0010B0B001200000001090B0012083
S3150800BA5068B0012058B0012048B0012038B0012054
S3150800BA60C0190A08F8190A08988D0120A88C002020
S3150800BA70CDCC4C3D088D0020341A0A08E08C0020F5
S3150800BA800DDF0608401A0A08ADDE0308501A0A0830
S3150800BA901D5D0408641A0A08AD9C0608741A0A088B
S3150800BAA099580408CC7E080840470020A0AC00201E
S3150800BAB0B65D0010E83C00200023C6E902233046A4
S3150800BAC004F22A630025336286F826503EF088FC85
S3150800BAD00121B14A86F82710B049B14B53604FF09F
S3150800BAE07E56B04B91602039966116615661D160D9
S3150800BAF001F140025A6001F5B0729A60AA489E6147
S3150800BB00203A29461E615E61DA6034F035FEA74B9D
S3150800BB10A74AA848A8495A6002F580729A60416007
S3150800BB20103201F58071DA608160A44A9E61103195
S3150800BB30C1601031516040311E615E619160A04B59
S3150800BB409661103116615661D16001F160021031BB
S3150800BB50C3E901128661066146619E611E615E61E6
S3150800BB6001F16002974E984FDFF8F8A2DA60A4F266
S3150800BB704E54B4F8B48940463DF00AFCA0B3B4F874
S3150800BB80B8B9924B924942464FF00C0807EE90BA64
S3150800BB9008FB0538BBF10009404618BF4FF00109FC
S3150800BBA0B8EE678A44F0FCFEBBF1000F40F08581D1
S3150800BBB05AF8253004F6DE125A604FF07C529A6124
S3150800BBC004F6BE129A604FF080421A6104F6CE124D
S3150800BBD0DA604FF07E525A61C6E9048304F6B4135C
S3150800BBE086F80890F76073600135042D04F16C043B
S3150800BBF006F1180607F17807BBD1764C764D94F80E
S3150800BC00643404F29C50002223F0070305F6581109
S3150800BC10A5F8D82584F8643443F030FF95F8CD307C
S3150800BC206E4DD8064CBF04F5986004F591606C4CCF
S3150800BC30294643F023FF204630F094FF53F0A8FB33
S3150800BC40A4F5BA62002182F85814A4F5BA72654BB5
S3150800BC501360A5F2CC55A4F5A8726348634913602E
S3150800BC6045F0DEFB95F8CD30D9064CBFA4F58870B3
S3150800BC70A4F5A470584C04F2CC5104F2D45304F53C
S3150800BC80BA620D681968C36A12685A6002681D604C
S3150800BC905268996090475649564845F0C1FB564B3D
S3150800BCA01B78002B36D14B4B544A55485549564DAF
S3150800BCB0564EC3E9F002564845F0B2FB5549564878
S3150800BCC045F0AEFB554B5649564A5D614FF07E50DE
S3150800BCD08861086190611061186104F69C10C8605B
S3150800BCE05148486151489861514898600630D86073
S3150800BCF004F63C6004F6A814C1E901044D495660EF
S3150800BD0004F66C3400F5DD60C2E9024055615960FD
S3150800BD1052F074FB304B93F854355A0600F15E81A5
S3150800BD2050F052FE4449454820F022FE444B45490E
S3150800BD30A3F67C624FF07E54B2F84C00424A4B6040
S3150800BD40A3F59C65A3F2D4468C6124330C619461F7
S3150800BD5014613E4CCD60C2E90136D560324B8E6027
S3150800BD6000254B61536125703DF012FB58B12B46F7
S3150800BD70DFED370A9FED3C0A364A374937486CF0FB
S3150800BD8017F801232370144B354CB3F8120E00250F
S3150800BD9025703DF0FDFA69E0A8BC00208C970010DC
S3150800BDA06C960010E4BC0020A00B0010A89B002095
S3150800BDB0EC980010789800200C9A001058980020EB
S3150800BDC038980020B08D0120C88800202C19002042
S3150800BDD02C1B0A080000001068580010345E00107A
S3150800BDE0D00500100000C8C2341B0A08A1B0050817
S3150800BDF039AA0408401B0A0879180220281F0020BF
S3150800BE00F01F002065C905080AD7233C3C6D0010C1
S3150800BE104C1B0A08ADA10508581B0A0818B00120D2
S3150800BE208C750120088D01200000C842CDCCCC3D80
S3150800BE30649E0010409E00106F8614008CBC002083
S3150800BE40E4660010A4A7002084A70020BA180220E0
S3150800BE50CDCCCC3D9C9E0020601B0A085088002053
S3150800BE60B91802201C220A080000C07F00283FF4E7
S3150800BE700EAA2B461FED040AC54AC649C648F6EE61
S3150800BE80000A6BF095FF01232370FFF700BAC34839
S3150800BE9004F0AEF9B1F5AA7F4FF001027FF6CFABF9
S3150800BEA0FEF7BBBFBE4B1B78002B7FF42CAABD49FF
S3150800BEB0BD4845F0B5FAFFF701BABC4BDFEDBC0A41
S3150800BEC053F82510B0EE480A0023424638466BF070
S3150800BED06FFF6DE693F84C32013B2F2B02D8B5481D
S3150800BEE039F0C8FDB44B93F84D32013B2F2B3FF682
S3150800BEF0D7ACB24839F0BEFDD2E4B149B14895F89D
S3150800BF00D76245F08DFAB049B04845F089FA30460F
S3150800BF103DF0F2FBAE4BC3F85803002800F0E98267
S3150800BF2003F2463603F26F379B4605F5517503F55E
S3150800BF30807A039405E00BF1200BD34505F1020541
S3150800BF406DD000234FF0010826F8028F07F8013F4D
S3150800BF509BF87C0338F0CCF904460028EBD1B5F8F9
S3150800BF60009048463DF014FA0028E4D0984B49461C
S3150800BF7003F55770C3F8604343F08AFA954842467A
S3150800BF8049463EF04FF92B8833800BF55E7039F041
S3150800BF9071FDD0E7904857F007F9904857F004F933
S3150800BFA08F4857F001F98F4857F0FEF855E43DF0F1
S3150800BFB07FF8FFF7C9BB8C4857F0F6F88B4857F05F
S3150800BFC0F3F88B4857F0F0F88A4857F0EDF88A48A6
S3150800BFD057F0EAF8894857F0E7F871E454F004FC9A
S3150800BFE09EE600283EF49AAF734B93F83636062B36
S3150800BFF000F25281824A52F823306F4A186892F842
S3150800C0003C265968D20906AB03C302D001F10043A6
S3150800C010079306A9304605F0D9FAFEF767BF6C4DB7
S3150800C020039C95F83C33002B7FF44AAC0123D5F8E2
S3150800C030381385F83C3328463CF022F8C5F8400307
S3150800C0403EE4704B93F8D421002A00F0108193F84F
S3150800C050D521002A00F01D81D3F8D8310B939DED28
S3150800C0600B8A18EE100AFCF755FB0446224666486A
S3150800C0700B460D4644F0DCF8B4EE488AF1EE10FAA9
S3150800C08080F1E980DFED617AB4EEE78AF1EE10FA25
S3150800C09000F3E180DFED5E7AB4EEE78AF1EE10FA9E
S3150800C0A000F1D9805B4844F0C3F8564B40F20111C1
S3150800C0B0002283ED648AA3F88C1183F88E2151E45B
S3150800C0C093F8B029052A00F21982DFE802F0373A18
S3150800C0D0342D034440F2F1134F4900220B804F4B95
S3150800C0E04F481A8039F0C6FC4E4839F0C3FC324B2B
S3150800C0F04D4993F8BC230E7090067EF523AF93F84E
S3150800C100B029052A00F2018201A353F822F000BFE4
S3150800C11049C1000849C1000849C1000845AF0008DF
S3150800C12049C1000845AF00083B4B4FF421721A80FD
S3150800C13040F28522D3E74FF4D073CDE74FF4F87376
S3150800C140CAE74FF40073C7E7384940F66E0052F065
S3150800C15077F8FEF7F7BE40F20933BDE706203FF051
S3150800C16027F9FFF74BBA05203FF022F9FFF740BA47
S3150800C17004203FF01DF9FFF735BA03203FF018F900
S3150800C180FFF72ABA02203FF013F9FFF71FBA00BFDC
S3150800C190DC9E00206C1B0A08D8870020EC210A08C0
S3150800C1A079180220859D0608A01B0A084C220A0851
S3150800C1B00000000084B001206858001078B0012003
S3150800C1C0C5020508201A0A081D030508281A0A08C0
S3150800C1D09027002088810808508B0020188B0020A3
S3150800C1E0E08A0020A88A0020788C0020488C00204D
S3150800C1F0188C0020E88B0020B88B0020888B002044
S3150800C200C8210A08D0A70020801A0A080000DC42C4
S3150800C21000007042BC1B0A08761802207418022017
S3150800C2205848002038480020B81802202C160A085A
S3150800C23001203FF0BDF8FFF7C3B9B94B1A68B261E0
S3150800C24014361E60FFF7F4B9B64B93F8AC036DF0DD
S3150800C250CFFAFEF771BEB44922462B4640F6B20025
S3150800C26051F022FCB14843F0E3FFFFF77BBBD3F85C
S3150800C270DC4174B1236820469B68984748B1236817
S3150800C28021465B680AA898479DF82830002B7FF45A
S3150800C290E6AE9FEDA78AE4E6A64BAEE6A648C0F84A
S3150800C2A0687327B190F83C33002B00F01081A3483F
S3150800C2B0C0F86863002E3EF42EAE90F83C33002B8F
S3150800C2C07EF429AE3CF0F4FEFEF725BE9C4BDFED6E
S3150800C2D09D9A9FED9D9ADFF8B4A20FCB10AF07E9A0
S3150800C2E00F004FF0000900279FED988A0DF1300BDB
S3150800C2F0B84607EE907AF8EEE77AFBEC018A77EE15
S3150800C300A77A08F1010827EEA90A4F4480EE090A20
S3150800C3106FF0C4FAB8F1040FA8EE808AE9D109F1E2
S3150800C3200109B9F5806FAAEC018ADCD1884BDFEDEB
S3150800C330876A1868DFED875A9FED876ADFF850C26B
S3150800C34005EE104AAE464FF47A6700220CFB02F35C
S3150800C35007EE903AF8EEE77A411C67EEA57A914225
S3150800C36037EEC67AB0EEC77ABDEEC77A17EE103A40
S3150800C37005D1B8EEC57A37EEC77AF0EEC76ABB4282
S3150800C38004DABDEEE75A1F46B64610460132B2F544
S3150800C390007FDBD1BEF1000F01D06D4B18606F4BEB
S3150800C3A015EE101A03F69802A3F89618C2ED006A5D
S3150800C3B0FFF7F0B817EE900AFCF7ACF902460B4601
S3150800C3C0CDE90023664954A3D3E9002340F25E2051
S3150800C3D051F036FFFFF7D6B83CF06AFEFFF7EAB829
S3150800C3E03246604940F25E2051F02AFF0126FEF7E8
S3150800C3F016BD5D4856F0D8FE5C4856F0D5FEFFF7E8
S3150800C4004FBA40463CF0C4FF00283FF467AA3846B6
S3150800C4103CF0BEFF00283FF461AA554E052230467F
S3150800C42041463DF0FFFE0522394630463DF0FAFE0C
S3150800C43040466BF0FBFD4146286030463DF090FCD7
S3150800C440686038466BF0F2FD394603463046AB6005
S3150800C4503DF086FC6A682968E860012606FA02F259
S3150800C46092B20A8306FA00F3AA689BB213830DF107
S3150800C47013010F23284632468DF8133064F004FF63
S3150800C48032460DF11201284664F018FF9DF8123065
S3150800C490B12B2BD0BD2B7FF421AA4CF22043344676
S3150800C4A0344DADF814302846022205A92C6164F0F3
S3150800C4B0EBFE012330482B7539F0DCFAFFF70EBA8C
S3150800C4C02E4940F25E2051F0BBFEFEF727BD3CF038
S3150800C4D0EFFDECE60123D8F8A81388F8AC334046FC
S3150800C4E04DF054FEC8F8B003FEF70FBD44F21043F2
S3150800C4F0D6E7234843F09CFEFFF7E2B9214940F608
S3150800C5006E0051F09DFE2E46F1E51F4940F66E007D
S3150800C51051F096FEFEF716BD00000000F0B30A4182
S3150800C5200418002000200010B01A0A08DC1A0A08AD
S3150800C53067A6CA42E4210A08E0B9001070B60010DE
S3150800C54008010808DB0F494000C07F4400000000CE
S3150800C550E86601200000803A00007A4500000010D5
S3150800C56050150A089C150A08D04800209048002053
S3150800C570301A0A08988D012028460020E0150A0876
S3150800C580948108080C160A0854160A089C110120FA
S3150800C5907E5603000000000038B59FED216BDFEDE5
S3150800C5A0227A224B0360044600250123036480EDAA
S3150800C5B00E6BC0E90755C0E90955C0ED017AC0ED13
S3150800C5C0027AC0ED037AC0ED047AC0ED057AC0EDB3
S3150800C5D0067AC562C0ED0C7A80F8345080F844506B
S3150800C5E085644C306AF0CCFC114BA4F8B0504FF07F
S3150800C5F0824284ED206B84ED266B84ED2E6B84F8E5
S3150800C6007C50C4F88850C4ED237AA4F89050C4ED41
S3150800C610287AC4ED297AC4F8A820C4F8AC3038BD05
S3150800C62000000000000000F0000000003C360A0888
S3150800C630CDCCCC3D000000009FED0F7B002200B55D
S3150800C640C0F8A4104FF0000E0D49C0F80CE0C0F871
S3150800C65020E0C0E90422C0E9062280ED0E7B80EDC9
S3150800C660347B5DF804EB426082600160426242F00E
S3150800C670E7BD00BFAFF3008000000000000000F037
S3150800C68024360A080000000010B59FED136BDFED95
S3150800C690147A144CC0ED147A00234FF0010C83620F
S3150800C6A080ED126BC362C0E90833C0E90A33C0E9FA
S3150800C6B00C33C0E90E33C0E91033C0E9033300F187
S3150800C6C00C0E036043714361C36180F854C08361F3
S3150800C6D080F804C0846010BD00000000000000005F
S3150800C6E00000C07F5C220A0870B5214ED6F8F035E6
S3150800C6F0D6F88047A6F8F405013382B00546C6F891
S3150800C700F035ACB1002306F5C16001E0A3420FD0B5
S3150800C7101A010133815AA942F8D1164C144420460D
S3150800C72043F02EF9144802B0BDE8704043F028B92A
S3150800C73004F056F9D6F88037104C0190172B0FD80D
S3150800C74003F5AC619FED087B04EB011484ED007BD7
S3150800C750258101330198C6F8803704F0E1FFDEE74A
S3150800C760019804F0DDFFDDE700000000000000F09E
S3150800C7700050001000560010F85500100000001078
S3150800C7802DE9F04F2DED068B0123DFED5BAA85B071
S3150800C7900A24BFEE009AB8EE008AF6EE008A06462C
S3150800C7A01D4629EE08AADFED559A2AEE09AA4FEA90
S3150800C7B0450B32464FEA051AE800B7EE009A002103
S3150800C7C0871802F1040990460B46D7ED010A97ED42
S3150800C7D0000A69EE207A20EEE97AE9EE807A5B446F
S3150800C7E0A9EE007AF4EE477AF1EE10FA58D698EDEB
S3150800C7F0016A59ED016A36EE676A76EEC76A87ED11
S3150800C800016AC7ED006A98ED016A59ED016A77EE8B
S3150800C810867A36EE877AB3F5806F09ED017A574442
S3150800C820C8ED017AD144D044CFD369EE8A7A2AEE8C
S3150800C830E97AE9EE2A7AAAEE097AB4EE677AF1EE8F
S3150800C84010FA40D60131A94239EE079A79EEA79A2D
S3150800C85002F10802B4D1013C1DD05846FBF738FF57
S3150800C86002460B4622A1D1E90001FCF7D5F8FCF7F0
S3150800C87081FA09EE100A29EE280A6FF07FF8B0EE61
S3150800C88040AAB0EE490A6FF079F85D46B0EE4A9ACA
S3150800C890F0EE40AA85E705B0BDEC068BBDE8F08F43
S3150800C8A0F0EE691AB0EE491ACDE90202CDE9003177
S3150800C8B072F0D8FDDDE90202DDE90031B0EE407A1A
S3150800C8C0F0EE607A93E7F0EE6A1AB0EE4A1AF0EEE6
S3150800C8D0690AB0EE490ACDE90102009172F0C2FD7B
S3150800C8E0DDE901020099B0EE407AF0EE607AA9E738
S3150800C8F000000060FB2109C02EBDBB33000000000C
S3150800C9002DE9F04FCC4BCD4CCD49CE482DED068BBD
S3150800C910C3F82C44CC4C1C600022CC4CC3F83444DD
S3150800C920C3E90122CA4C83F83024CA4B0B60C1F80C
S3150800C9306446C94BC94C1A708125C1F858566360BC
S3150800C940E360C74DC74B81F85C260026C6492560BB
S3150800C9504FF07047C0E90067C44D0D606420C1E917
S3150800C9600620086203F1280103F14000C3E9021119
S3150800C9701960586003F1200103F11800C3E90600A5
S3150800C980C3E90811BA48BB491A6100F128051A75A6
S3150800C9904FF47A7C0B460560B74FC560C4F808C0EB
S3150800C9A000F11804C0E9064400F1400600F120042D
S3150800C9B043F8247BC0E90844C1E902228560466041
S3150800C9C0026102750A7183B0A431FF2043F8102C66
S3150800C9D003F80C2C23F80A2C03F8082C03F8070C88
S3150800C9E003F8062C10339942F0D1A449A44BA54C60
S3150800C9F0C3F89C4001F134001425C3F894505861DB
S3150800CA00002444F620604FF07045C3E92A451960B2
S3150800CA10C3E902229C491A71C3E90622C3E9232203
S3150800CA20C3F89800994B9A489A4C0860862581F86D
S3150800CA303C23C1F84823C1F83853C3F83853C1F822
S3150800CA40444301259449C3F848531860934D83F825
S3150800CA503C238720C1F8A8030520C3F84443C1E94D
S3150800CA60ED508F4B81F8AC239FED6D8B8D4A0A6094
S3150800CA704FF0000803F5C072C3F8088083ED068BF3
S3150800CA80C3F80C8083ED088B83ED0A8BC3F800800E
S3150800CA9083ED0C8BC3F8108083ED0E8B83ED108B22
S3150800CAA083ED128B83ED148B83ED168B60339342E3
S3150800CAB0E2D17D4B7D4A1A607D4A5A60DA6082F877
S3150800CAC000807C489FED7C9ADFF868A27B4F4FF484
S3150800CAD07A6228219A606CF0A9FE794825216CF0C3
S3150800CAE0A5FE784859216CF0A1FE77485A216CF0CA
S3150800CAF09DFE764B764824221A712321754A1A60C0
S3150800CB006CF094FEFDF7A8FF734BDFF82CC273494F
S3150800CB1083F8088022221A71714ACCF82020C2E9CB
S3150800CB200088C2E9028882F814800022C3E9041248
S3150800CB3003F128021A624FF021028CF80420694A90
S3150800CB401A609FED39AB684ACCF800209FED387B18
S3150800CB50664A83F80C8002F5805B83F82C8083EDA7
S3150800CB60068B83ED0CAB6248624A83ED099A202155
S3150800CB7000238CED047B8CF808808CF80C808CEDF7
S3150800CB80068B6CF03FFE5C485A4A9FED5C0A4F21C3
S3150800CB9000236CF037FE514A594800231F216CF0D8
S3150800CBA031FE584B4D49584883F808800022C3E99E
S3150800CBB004124FF00C01197154491960F7EE009AE6
S3150800CBC083F80C8083ED068B514B40F8043BF0EE5E
S3150800CBD0690A6CF011FC65F06BF84E486CF00CFCB9
S3150800CBE04D4B4E481860C3ED019A83ED029A83EDCA
S3150800CBF0039A83ED049AC3ED059A494B49484A4A74
S3150800CC0083ED00AB494B212183ED00AB00236CF08B
S3150800CC10F9FD474B4148186090E000BFAFF300802C
S3150800CC20000000000000000000000000000000F006
S3150800CC3000093D0000000000208F01208C250A080D
S3150800CC4000520020A03B0020A4280A08B421012095
S3150800CC5090250A088C280A08E8B00120E4AF0120CC
S3150800CC609C250A0858C80010F4AF0120C8280A08ED
S3150800CC7098C80010902A0120DC280A0804290A0806
S3150800CC80884700208F1E1700E0B9001070B6001004
S3150800CC9068290A08BCA6080850BD0010B4A60808EA
S3150800CCA0082C00204C290A08F0570120AC250A0850
S3150800CCB0D8C8001030260020000000006868001060
S3150800CCC08824002038250020E02400208CAC002091
S3150800CCD0302400207C290A08A88C002080841E00A5
S3150800CCE0988D012098290A08BC290A080000001016
S3150800CCF0D8200020801A0600B02000200000C84274
S3150800CD00C8220020A82200209C960120E8200A08B4
S3150800CD10DC290A08BC960120E8930120280D0A0898
S3150800CD2080480020E0250020400D030078480020B8
S3150800CD30109401207486001028460020D04AD14855
S3150800CD40C3ED019A83ED029A83ED039A83ED049A63
S3150800CD50C3ED059A272100236CF054FDCA48C84A3A
S3150800CD60332100236CF04EFDC848C54A35210023FF
S3150800CD706CF048FDC648C24A372100236CF042FDD4
S3150800CD80C44BC54AC5491960C3E90A8883F80880AF
S3150800CD9083F80C80C3F8208083F8248083ED068B03
S3150800CDA083ED0C9ABE4B1160BE4919604FF0260CF4
S3150800CDB0B84BDFF85CE382F804C04FF0340C83F814
S3150800CDC004C042F2046CB64BAEF804C04FF0270C10
S3150800CDD08EF806C0CEF8001043F2324E9FEDA47BC3
S3150800CDE0A3F804E04FF0330E83F806E0A94B82F867
S3150800CDF00880C2E90A8882ED047B83ED047B82F809
S3150800CE000C80C2F8208082F8248082ED068BA64822
S3150800CE1082ED0C9A05219A4A00236CF0F3FCA3488C
S3150800CE20974A312100236CF0EDFCDFF8E8E2DFF8E1
S3150800CE30E8C29F499F480860CEF80000CCF8000079
S3150800CE409D4881F8088081F80C80C1F8248081ED1E
S3150800CE50068B9A4980F80880AAF180008860944871
S3150800CE60C1F804A09649CEF820100162CCF820102B
S3150800CE709249944808608E48934981620131CEF8F8
S3150800CE8028100131CCF828104FF0290101714FF014
S3150800CE902A018EF8041088488EF808804FF02B0176
S3150800CEA09FED757B8CF804104FF02C0101718048BA
S3150800CEB081498EF80C8080ED047B8448CEF8248066
S3150800CEC08EED047B8CED047B8EED068B8CF808804A
S3150800CED08CF80C80CCF824808CED068B81F80C80BD
S3150800CEE088627B497B4B7C4A013088624FF02D0C67
S3150800CEF07A4881F804C07A4981624FF02E0C794944
S3150800CF0080F804C0784888607849794888606A4813
S3150800CF106F4980ED047B80ED068B7048019081EDAA
S3150800CF20047B80ED047B81ED068B80ED068B6149E1
S3150800CF3061480160243101626549C0F8248081F89E
S3150800CF400880084681F80C80C1F824805949016098
S3150800CF502431016261482439016024310162614942
S3150800CF6080F8088080F80C80C0F824804FF01900FB
S3150800CF700871604808605D4908604FF01A0008713A
S3150800CF801921C3E901181A2151605B49196011601A
S3150800CF902831196211624FF001015848C3F82C80F4
S3150800CFA082F8381099854FF00101C2F82C809185D6
S3150800CFB00021C3E90401C2E90401C3E90988C3E9F8
S3150800CFC00C88C2E90288C2E90988C2E90C88C3F854
S3150800CFD00C8083F8388083ED068B82ED068B63F030
S3150800CFE0DFF8DFF838E1464ACEF800200C2128326F
S3150800CFF0DFF82CC1434BCEF82C10CEF820204FF08A
S3150800D0000301414A8EF804104FF00101B1EE007A8F
S3150800D0108CF80410CCF800304FF4FD611360283307
S3150800D0208EED0C7A8EF808808EF80C80CEF8248067
S3150800D030CCF820301362CEF828108EED048B8EEDD6
S3150800D040068B0F234FF0050ECCF82CE08CF80880E1
S3150800D0508CF80C80CCF82480D362CCF828102B4BA3
S3150800D060CCED0C9A8CED048B5CE000BFAFF300802E
S3150800D07000350C0000000000804F12000000000080
S3150800D080400D0300082600201049002090250020A6
S3150800D090B8250020882D0020C02D0020082A0A085F
S3150800D0A000940120EC290A08088D0020E08C002055
S3150800D0B0788C0020382A0A08E88B0020A4930120DF
S3150800D0C05C2A0A08282A0A0805030A0008030A002F
S3150800D0D0B88B0020D048002090480020888B00207C
S3150800D0E00A030A0084B0012011A1060878B00120BD
S3150800D0F029A10608AC2A0A08702A0A08C0D4010021
S3150800D100402B0A08042B0A08E08A0020A88A002077
S3150800D11008940120488C0020188C0020508B002091
S3150800D120188B00208CED068B4FF0020C82F80880D5
S3150800D13082F80C80C2F82480916282F804C082EDDD
S3150800D140048B82ED068BC2ED0C9A4FF4FD629A624F
S3150800D150E24ADFEDE37A1A6028321A624FF00D0CC4
S3150800D1600F229FEDE00AE048C3ED0C7A0E2183F802
S3150800D17004C083F8088083F80C80C3F82480DA6238
S3150800D18083ED048B83ED068B6CF06EFBD7480F217D
S3150800D1906CF06AFBD64811216CF066FB1221D54863
S3150800D1A06CF062FBD44BD048186090F82420CF4826
S3150800D1B05A73586090F82420D0489A734FF00D0C93
S3150800D1C083F80CC0986083F8148083ED049AC84AE3
S3150800D1D0CB4BDFF86CE31A6092F824205A73C54AE1
S3150800D1E098604FF00F0CC7488EF806C05A604FF08B
S3150800D1F0100C92F824209A7383F8148081710246E1
S3150800D200C14983F80CC083ED049A40F60D63AEF865
S3150800D2100430016080ED029A80ED039A41F2101302
S3150800D220BA489380B94ACEF8001041F213434FF03A
S3150800D230150CB0EE690A0160B5488EED029A142104
S3150800D2408EED039A938082F806C082ED029A82EDEB
S3150800D250039A6CF009FBAF4815216CF005FBAE4B41
S3150800D260AB49196091F82420AA495A7391F82420E9
S3150800D2709A73AA4ADFF8CCC2C2F800C09F489FED4D
S3150800D280A80A98604FF0130C83F80CC083F8148032
S3150800D2905960A44883ED049A1D21162393806CF0E7
S3150800D2A0E3FAA1481E216CF0DFFA63F097F8DFF87D
S3150800D2B098C29E4B9E499F4A4FF003008CF80C007B
S3150800D2C04FF0200018739C4818604FF0500ECCF8A9
S3150800D2D000000860106099488CF804E0CCF8080053
S3150800D2E04FF0510C81F804C04FF0230C81F80CC0A4
S3150800D2F088604FF0010852210024986090601171EF
S3150800D300A7F6F87082F80C8053221A7169F07EFE2F
S3150800D31090222146AAF5F15072F07FFB2022214681
S3150800D32007F19400C7E91F44C7E92144C7E9234424
S3150800D33072F073FB2022214607F1B40072F06DFBF0
S3150800D3404022214607F1D40072F067FB40222146AD
S3150800D35007F5BE70C7E94A44C7E94E44C7E95244CF
S3150800D360C7E95644C7E95A44C7F81841C7F82041DF
S3150800D37087F8784187F87B41C7F81441C7F81C41FC
S3150800D380C7F82441C7F83441C7F84441C7F854419F
S3150800D390C7F86441A7F87641A7F87941C7F830413C
S3150800D3A0C7F84041C7F85041C7F86041C7F870410F
S3150800D3B0A7F8744172F031FB4022214607F5DE706A
S3150800D3C072F02BFB4022214607F5FE7072F025FB12
S3150800D3D04022214607F50F7072F01FFB20222146D6
S3150800D3E007F51F7072F019FB2022214607F52770F2
S3150800D3F072F013FB2022214607F52F7072F00DFB01
S3150800D4002022214607F5377072F007FB20222146B5
S3150800D41007F53F7072F001FB2022214607F5477099
S3150800D42072F0FBFA2022214607F54F7072F0F5FAE2
S3150800D4302022214607F5577072F0EFFA402221465E
S3150800D44007F56770C7E9E044C7E9E444C7F87C43D1
S3150800D450C7F88C43C7F88843C7F8984372F0DDFAD3
S3150800D4602022214607F5777072F0D7FA2022214646
S3150800D47007F57F7072F0D1FA4022214607F22C4058
S3150800D480C7F82044C7F82844C7F81C44C7F82444FA
S3150800D49072F0C3FA4022214607F28440C7F8704466
S3150800D4A0C7F86C44C7F87444C7F87844C7F87C448E
S3150800D4B0C7F8804472F0B1FA4022214607F2D440F8
S3150800D4C0C7F8C444C7F8C844C7F8CC44C7F8D0441A
S3150800D4D072F0A3FA2022214638E000BFC82A0A08BB
S3150800D4E03333234000004843E09100209891002000
S3150800D4F0509100200891002074AC0020982B0A084F
