S01400006275696C642F7275736566692E7372656343
S3150800800010100020B983000845D20208F983000839
S315080080101D840008F88300080B8400085C9ACA9B34
S31508008020ECC70900B3830008B3830008A928010830
S31508008030B3830008B3830008B383000865380108D2
S31508008040B3830008B383000849370108C13701081C
S31508008050B3830008B38300082D8304083583040816
S315080080603D830408458304084D8304089D2C0108B4
S31508008070D52C0108112D01084D2D0108892D01085F
S31508008080C12D0108FD2D0108252901087D2B0108B0
S31508008090A12B0108C52B0108E92B01085583040803
S315080080A0B3830008953A0108B3830008B93A010872
S315080080B051390108BD3A0108E13A010891820408DC
S315080080C0B38300084D30010885310108B3830008E1
S315080080D0B3830008B3830008F13C0108153D010885
S315080080E07983040809380108B3830008B3830008B4
S315080080F0293B0108B38300084D3B0108392E0108C6
S31508008100B3830008B3830008053B0108B38300085E
S31508008110B3830008B3830008F1380108B383000865
S31508008120752E0108AD2E0108E92E0108252F010834
S31508008130612F0108B3830008B38300080D2C0108DA
S31508008140312C0108552C0108792C01089D320108AB
S31508008150992F0108D52F010811300108513B010854
S31508008160B3830008B3830008B3830008B383000809
S31508008170B3830008B3830008B3830008B3830008F9
S31508008180B3830008B3830008B3830008B3830008E9
S31508008190B3830008B3830008B3830008B3830008D9
S315080081A0B3830008B3830008B3830008B3830008C9
S315080081B0B3830008B3830008B3830008B3830008B9
S315080081C0B3830008B3830008B3830008B3830008A9
S315080081D0B3830008B3830008B3830008B383000899
S315080081E049B5000891B0070800000000000000002B
S315080081F001F0FF01102A2BDB10F0070F08D010F84A
S31508008200013B013A8B422DD010F0070F42B3F6D14D
S31508008210F0B441EA012141EA014122F007047FF066
S3150800822000070023F0E80256083C85EA010586EABD
S31508008230010685FA47F5A3FA87F586FA47F6A5FAF9
S3150800824087F68EB9EED1F0BC01F0FF0102F0070205
S3150800825032B110F8013B013A83EA010313B1F8D1B0
S315080082600020704701387047002D06BF3546033891
S31508008270073815F0010F07D1013015F4807F02BFCA
S31508008280013015F4C03F0130F0BC0138704700BF1B
S3150800829072B6394880F30888384880F30988384820
S315080082A04EF60851CEF20001086040F20000CCF20A
S315080082B000004EF63471CEF200010860BFF34F8F0E
S315080082C0BFF36F8F40F20000C0F2F0004EF68851FF
S315080082D0CEF200010860BFF34F8FBFF36F8F4FF0E8
S315080082E00000E1EE100A4EF63C71CEF2000108607D
S315080082F0062080F31488BFF36F8F06F009FC23F07D
S315080083003BF84FF055301F491B4A91423CBF41F894
S31508008310040BFAE71C49194A91423CBF41F8040B81
S31508008320FAE71A491A4A1B4B9A423EBF51F8040B00
S3150800833042F8040BF8E700201749184A91423CBF57
S3150800834041F8040BFAE706F0E7FB47F0E1F8144CAE
S31508008350144DAC4203DA54F8041B8847F9E76DF06C
S315080083604DFA114C114DAC4203DA54F8041B8847F8
S31508008370F9E706F0CFBB0000101000201016002009
S31508008380008000081000002010100020A4430A08EE
S3150800839010160020581A0020581A0020D818022053
S315080083A0E0810008E4810008E4810008E88100080B
S315080083B06EE700F000F8FEE70A480B49026800601D
S315080083C08A4201D0FFF764FF08484FF480410160F4
S315080083D007484FF0010101600648D0F800D0406810
S315080083E000470000F0FF0120EFBEADDE4438024032
S315080083F0003801400000FF1F1EF0040F0CBFEFF30A
S315080084000880EFF3098024F021BF1EF0040F0CBF8B
S31508008410EFF30880EFF3098024F060BF1EF0040F25
S315080084200CBFEFF30880EFF3098024F0A3BF00BF69
S31508008430EC46A0E8F05F4FF000007047B0E8F05F48
S31508008440E546080008BF0120704700BF81F00041DB
S3150800845002E000BF83F0004330B54FEA41044FEA1B
S31508008460430594EA050F08BF90EA020F1FBF54EAB6
S31508008470000C55EA020C7FEA645C7FEA655C00F052
S31508008480E2804FEA5454D4EB5555B8BF6D420CDD23
S315080084902C4480EA020281EA030382EA000083EAA6
S315080084A0010180EA020281EA0303362D88BF30BD46
S315080084B011F0004F4FEA01314FF4801C4CEA11319C
S315080084C002D0404261EB410113F0004F4FEA0333FB
S315080084D04CEA133302D0524263EB430394EA050F86
S315080084E000F0A780A4F10104D5F1200E0DDB02FAF5
S315080084F00EFC22FA05F2801841F1000103FA0EF289
S31508008500801843FA05F359410EE0A5F120050EF14E
S31508008510200E012A03FA0EFC28BF4CF0020C43FA7F
S3150800852005F3C01851EBE37101F0004507D54FF08C
S31508008530000EDCF1000C7EEB00006EEB0101B1F5DC
S31508008540801F1BD3B1F5001F0CD349085FEA300022
S315080085504FEA3C0C04F101044FEA445212F5800F2D
S3150800856080F09A80BCF1004F08BF5FEA500C50F1CA
S31508008570000041EB045141EA050130BD5FEA4C0CAD
S31508008580404141EB0101013C28BFB1F5801FE9D20A
S3150800859091F0000F04BF01460020B1FA81F308BF2D
S315080085A02033A3F10B03B3F120020CDA0C3208DDF9
S315080085B002F1140CC2F10C0201FA0CF021FA02F1D4
S315080085C00CE002F11402D8BFC2F1200C01FA02F144
S315080085D020FA0CFCDCBF41EA0C019040E41AA2BF69
S315080085E001EB0451294330BD6FEA04041F3C1CDA31
S315080085F00C340EDC04F11404C4F1200220FA04F051
S3150800860001FA02F340EA030021FA04F345EA0301FA
S3150800861030BDC4F10C04C4F1200220FA02F001FABC
S3150800862004F340EA0300294630BD21FA04F029463E
S3150800863030BD94F0000F83F4801306BF81F48011D7
S315080086400134013D4EE77FEA645C18BF7FEA655C4A
S3150800865029D094EA050F08BF90EA020F05D054EA1C
S31508008660000C04BF1946104630BD91EA030F1EBF21
S315080086700021002030BD5FEA545C05D14000494125
S3150800868028BF41F0004130BD14F580043CBF01F518
S31508008690801130BD01F0004545F0FE4141F47001FE
S315080086A04FF0000030BD7FEA645C1ABF19461046D9
S315080086B07FEA655C1CBF0B46024650EA013406BFDA
S315080086C052EA033591EA030F41F4002130BD00BF99
S315080086D090F0000F04BF0021704730B54FF4806456
S315080086E004F132044FF000054FF0000150E700BFD7
S315080086F090F0000F04BF0021704730B54FF4806436
S3150800870004F1320410F0004548BF40424FF0000122
S315080087103EE700BF42004FEAE2014FEA31014FEA65
S3150800872002701FBF12F07F4393F07F4F81F06051B4
S31508008730704732F07F4208BF704793F07F4F04BFFF
S3150800874041F40021704730B54FF4607401F00045DC
S3150800875021F000411CE700BF50EA010208BF70473C
S3150800876030B54FF000050AE050EA010208BF70472D
S3150800877030B511F0004502D5404261EB41014FF496
S31508008780806404F132045FEA915C3FF4D8AE4FF09E
S3150800879003025FEADC0C18BF03325FEADC0C18BF81
S315080087A0033202EBDC02C2F1200300FA03FC20FAD2
S315080087B002F001FA03FE40EA0E0021FA02F114441F
S315080087C0BDE600BF70B54FF0FF0C4CF4E06C1CEA38
S315080087D011541DBF1CEA135594EA0C0F95EA0C0FA9
S315080087E000F0DEF82C4481EA030621EA4C5123EA1C
S315080087F04C5350EA013518BF52EA033541F480114B
S3150800880043F4801338D0A0FB02CE4FF00005E1FBFD
S3150800881002E506F00042E0FB03E54FF00006E1FB47
S3150800882003569CF0000F18BF4EF0010EA4F1FF048A
S31508008830B6F5007F64F5407404D25FEA4E0E6D41CA
S3150800884046EB060642EAC62141EA55514FEAC520DB
S3150800885040EA5E504FEACE2EB4F1FD0C88BFBCF557
S31508008860E06F1ED8BEF1004F08BF5FEA500E50F108
S31508008870000041EB045170BD06F0004646EA0101CE
S3150800888040EA020081EA0301B4EB5C04C2BFD4EB00
S315080088900C0541EA045170BD41F480114FF0000EF9
S315080088A0013C00F3AB8014F1360FDEBF002001F067
S315080088B0004170BDC4F10004203C35DA0C341BDCE1
S315080088C004F11404C4F1200500FA05F320FA04F0B3
S315080088D001FA05F240EA020001F0004221F00041E7
S315080088E010EBD37021FA04F642EB06015EEA430E5A
S315080088F008BF20EAD37070BDC4F10C04C4F120058A
S3150800890000FA04F320FA05F001FA04F240EA02003C
S3150800891001F0004110EBD37041F100015EEA430E0D
S3150800892008BF20EAD37070BDC4F1200500FA05F22D
S315080089304EEA020E20FA04F301FA05F243EA0203AC
S3150800894021FA04F001F0004121FA04F220EA0200BB
S3150800895000EBD3705EEA430E08BF20EAD37070BD01
S3150800896094F0000F0FD101F00046400041EB0101E1
S3150800897011F4801F08BF013CF7D041EA060195F0C3
S31508008980000F18BF704703F00046520043EB03037D
S3150800899013F4801F08BF013DF7D043EA060370476A
S315080089A094EA0C0F0CEA135518BF95EA0C0F0CD075
S315080089B050EA410618BF52EA4306D1D181EA0301BB
S315080089C001F000414FF0000070BD50EA410606BFB5
S315080089D01046194652EA430619D094EA0C0F02D1FA
S315080089E050EA013613D195EA0C0F05D152EA03363F
S315080089F01CBF104619460AD181EA030101F000415D
S31508008A0041F0FE4141F470014FF0000070BD41F0A5
S31508008A10FE4141F4780170BD70B54FF0FF0C4CF47F
S31508008A20E06C1CEA11541DBF1CEA135594EA0C0F9E
S31508008A3095EA0C0F00F0A7F8A4EB050481EA030EEB
S31508008A4052EA03354FEA013100F088804FEA0333D2
S31508008A504FF0805545EA131343EA12634FEA0222A0
S31508008A6045EA111545EA10654FEA00260EF0004161
S31508008A709D4208BF964244F1FD0404F5407402D2B3
S31508008A805B084FEA3202B61A65EB03055B084FEA44
S31508008A9032024FF480104FF4002CB6EB020E75EB41
S31508008AA0030E22BFB61A754640EA0C005B084FEA69
S31508008AB03202B6EB020E75EB030E22BFB61A7546E6
S31508008AC040EA5C005B084FEA3202B6EB020E75EB31
S31508008AD0030E22BFB61A754640EA9C005B084FEAA9
S31508008AE03202B6EB020E75EB030E22BFB61A7546B6
S31508008AF040EADC0055EA060E18D04FEA051545EAA5
S31508008B0016754FEA06164FEAC30343EA52734FEA4D
S31508008B10C2025FEA1C1CC0D111F4801F0BD141EAC6
S31508008B2000014FF000004FF0004CB6E711F4801F2B
S31508008B3004BF01430020B4F1FD0C88BFBCF5E06F0B
S31508008B403FF6AFAEB5EB030C04BFB6EB020C5FEA1B
S31508008B50500C50F1000041EB045170BD0EF0004E70
S31508008B604EEA113114EB5C04C2BFD4EB0C0541EAA2
S31508008B70045170BD41F480114FF0000E013C90E69F
S31508008B8045EA060E8DE60CEA135594EA0C0F08BF63
S31508008B9095EA0C0F3FF43BAF94EA0C0F0AD150EA62
S31508008BA001347FF434AF95EA0C0F7FF425AF1046F5
S31508008BB019462CE795EA0C0F06D152EA03353FF41D
S31508008BC0FDAE1046194622E750EA410618BF52EA9A
S31508008BD043067FF4C5AE50EA41047FF40DAF52EA6E
S31508008BE043057FF4EBAE12E74FF0FF3C06E000BF0B
S31508008BF04FF0010C02E000BF4FF0010C4DF804CD18
S31508008C004FEA410C7FEA6C5C4FEA430C18BF7FEAD7
S31508008C106C5C1BD001B050EA410C0CBF52EA430C05
S31508008C2091EA030F02BF90EA020F0020704710F185
S31508008C30000F91EA030F58BF994208BF90422CBF14
S31508008C40D8176FEAE37040F0010070474FEA410C0D
S31508008C507FEA6C5C02D150EA013C07D14FEA430C2B
S31508008C607FEA6C5CD6D152EA033CD3D05DF8040B9C
S31508008C70704700BF8446104662468C4619466346CE
S31508008C8000E000BF01B5FFF7B7FF002848BF10F1A5
S31508008C90000F01BD4DF808EDFFF7F4FF0CBF0120EA
S31508008CA000205DF808FB00BF4DF808EDFFF7EAFF66
S31508008CB034BF012000205DF808FB00BF4DF808ED21
S31508008CC0FFF7E0FF94BF012000205DF808FB00BF16
S31508008CD04DF808EDFFF7CEFF94BF012000205DF8A0
S31508008CE008FB00BF4DF808EDFFF7C4FF34BF0120AD
S31508008CF000205DF808FB00BF4FEA410C7FEA6C5C78
S31508008D0002D150EA013C0AD14FEA430C7FEA6C5C77
S31508008D1002D152EA033C02D14FF0000070474FF0EF
S31508008D20010070474FEA410212F5001215D211D51B
S31508008D306FF47873B3EB625212D94FEAC12343F04A
S31508008D40004343EA505311F0004F23FA02F018BFCC
S31508008D50404270474FF00000704750EA013005D195
S31508008D6011F0004008BF6FF0004070474FF0000058
S31508008D70704700BF4FEA4102B2F1E04324BFB3F5A2
S31508008D80001CDCF1FE5C0DD901F0004C4FEAC00274
S31508008D904CEA5070B2F1004F40EB830008BF20F058
S31508008DA00100704711F0804F21D113F13872BCBF12
S31508008DB001F00040704741F480114FEA5252C2F167
S31508008DC01802C2F1200C10FA0CF320FA02F018BFB0
S31508008DD040F001004FEAC1234FEAD32303FA0CFC03
S31508008DE040EA0C0023FA02F34FEA4303CCE77FEA92
S31508008DF0625307D150EA01331EBF4FF0FE4040F4DC
S31508008E004000704701F0004040F0FE4040F400008A
S31508008E10704700BF80F0004002E000BF81F00041CB
S31508008E2042001FBF5FEA410392EA030F7FEA226C02
S31508008E307FEA236C6AD04FEA1262D2EB1363C1BF92
S31508008E40D218414048404140B8BF5B42192B88BF01
S31508008E50704710F0004F40F4000020F07F4018BF24
S31508008E60404211F0004F41F4000121F07F4118BF44
S31508008E70494292EA030F3FD0A2F1010241FA03FCEC
S31508008E8010EB0C00C3F1200301FA03F100F00043D4
S31508008E9002D5494260EB4000B0F5000F13D3B0F19C
S31508008EA0807F06D340084FEA310102F10102FE2A0B
S31508008EB051D2B1F1004F40EBC25008BF20F001007B
S31508008EC040EA03007047490040EB0000013A28BF1A
S31508008ED0B0F5000FEDD2B0FA80FCACF1080CB2EB9D
S31508008EE00C0200FA0CF0AABF00EBC250524218431B
S31508008EF0BCBFD0401843704792F0000F81F40001C0
S31508008F0006BF80F400000132013BB5E74FEA410392
S31508008F107FEA226C18BF7FEA236C21D092EA030FFE
S31508008F2004D092F0000F08BF0846704790EA010F78
S31508008F301CBF0020704712F07F4F04D1400028BFA5
S31508008F4040F00040704712F100723CBF00F5000087
S31508008F50704700F0004343F0FE4040F400007047BD
S31508008F607FEA226216BF08467FEA23630146420269
S31508008F7006BF5FEA412390EA010F40F4800070477C
S31508008F804FF0000304E000BF10F0004348BF404222
S31508008F905FEA000C08BF704743F0964301464FF05E
S31508008FA000001CE050EA010208BF70474FF00003BA
S31508008FB00AE000BF50EA010208BF704711F00043FB
S31508008FC002D5404261EB41015FEA010C02BF8446CB
S31508008FD00146002043F0B64308BFA3F18053A3F52A
S31508008FE00003BCFA8CF2083AA3EBC25310DB01FA71
S31508008FF002FC634400FA02FCC2F12002BCF1004FF5
S3150800900020FA02F243EB020008BF20F00100704785
S3150800901002F1200201FA02FCC2F1200250EA4C00D9
S3150800902021FA02F243EB020008BF20EADC7070471F
S315080090307BB972B90029BEBF00204FF0004106E097
S3150800904008BF00281CBF6FF000414FF0FF3000F04A
S3150800905057B8ADF1080C6DE904CE002909DB002BE1
S315080090601ADB76F009FCDDF804E0DDE9022304B03A
S315080090707047404261EB4101002B1BDB76F0FCFB9D
S31508009080DDF804E0DDE9022304B0404261EB41016A
S31508009090524263EB43037047524263EB430376F055
S315080090A0EBFBDDF804E0DDE9022304B0404261EBA6
S315080090B041017047524263EB430376F0DDFBDDF86E
S315080090C004E0DDE9022304B0524263EB4303704730
S315080090D053B94AB9002908BF00281CBF4FF0FF3111
S315080090E04FF0FF3000F00CB8ADF1080C6DE904CE76
S315080090F076F0C2FBDDF804E0DDE9022304B0704730
S31508009100704700BF2DE9F04F2DED108AC1F80CD03D
S31508009110C3689D46BDEC108ABDE8F08F05F07EFE5B
S31508009120002383F311882846A047002007F06EF92C
S31508009130FEE706F00BF807F0E1F805F06FFE00DF32
S31508009140FEE710F8012B11F8013B012A28BF9A42C5
S31508009150F7D0D01A7047034613F8012B002AFBD123
S31508009160181A01387047000070B586B00C461146CB
S315080091701A46114B0093054674B1631ECDE90103E7
S3150800918000266846CDE903660AF0D6FD039BA3428E
S3150800919000D2EE5406B070BD9FED057B019068467F
S315080091A08DED027B04940AF0C7FD06B070BD00BFC2
S315080091B000000000000000001C0508080000000070
S315080091C02DE9F04759EC108B3D4B002240464946A5
S315080091D0FFF77EFD002867D035A5D5E90045384F4D
S315080091E04FF0000A00260CE0FFF716FC8046894679
S315080091F032463B46404649460AF1050AFFF768FDEE
S31508009200E8B1494622462B464046FFF761FD8446AB
S3150800921022462B4640464946BCF1000FE4D1324669
S315080092203B46FFF7F9FB8046894632463B464046B1
S3150800923049460AF1010AFFF74BFD0028E1D1214B07
S31508009240002240464946FFF72FFD50B31AA5D5E937
S31508009250004517A7D7E900670CE0FFF7B3FAAAF1AC
S31508009260050A80468946174B002240464946FFF7BD
S315080092701BFDB0B1494622462B464046FFF714FD72
S31508009280844632463B4640464946BCF1000FE4D187
S315080092900B4B0022FFF796FA0AF1FF3A80468946F9
S315080092A0E1E75046BDE8F0878246C8E7AFF300809D
S315080092B000000000006AF84000000080B5F8E43EAF
S315080092C0000024400000F03F2DE9F047B0F1000A05
S315080092D02D4D4FF0000426DD29A7D7E90067DFF8F2
S315080092E0AC904FF00008BAF1040F204629463246E2
S315080092F03B460CDDFFF766FAAAF1050A04460D4659
S31508009300BAF1000FEFD145EC104BBDE8F0874246A5
S315080093104B46FFF757FA0AF1FF3A04460D46BAF1EB
S31508009320000FE0D1EFE7EED015A7D7E900671AF1ED
S31508009330040FDFF858904FF00008204629463246B9
S315080093403B460FDAFFF768FB0AF1050A04460D46A5
S31508009350BAF1000FD7D01AF1040F20462946324633
S315080093603B46EFDB42464B46FFF756FB0AF1010A3E
S3150800937004460D46BAF1000FEDD1C4E7AFF30080FD
S3150800938000000000006AF8400000F03F000024409A
S3150800939070B5C66984B0044630460D4612F0EAFC3C
S315080093A0204612F0D9F9204612F024FA9FED087BE0
S315080093B003462946304607246A468DED027B8DF81A
S315080093C00040019312F062FD04B070BDAFF3008057
S315080093D0FFFFFFFFFFFFFFFF2DE9F04FC768C669D4
S315080093E0D0F804802DED028B282F87B004460D4651
S315080093F072D040F223139F4240F0858012F0CEFFD0
S315080094009FED438B4FF0070A4FF00809E3683A2BA4
S3150800941014D008DD5B2B51D05A2B40DC07B0BDECCD
S31508009420028BBDE8F08F282B3ED02E2BF6D129468D
S315080094302046FFF7ADFFE3683A2BEAD1204612F043
S315080094408BF9204612F0D6F92946039030468DED61
S31508009450048B8DF808A012F06BFC2B78D5F804B0B5
S31508009460082B4BD096F834706F600221304685F889
S31508009470009011F007FABA1C02A986F834205B4658
S3150800948000913A461421304612F08EFC9DF80830B9
S31508009490082B0DD10399304670F09EFD08E07B2B12
S315080094A002D0B3F5927FB9D12946304612F022FC94
S315080094B042462946204613F0CBFDA7E72946304603
S315080094C012F058FC02A9204612F048FE02AA2946C4
S315080094D0304612F0DBFC99E712F03EF929460022E5
S315080094E0204614F0CBF9204643463A46292112F085
S315080094F057F9E069294612F00DFA81E759463046D0
S3150800950070F06AFDAEE7044911F054F9AFF3008034
S31508009510FFFFFFFFFFFFFFFF04130808000000001E
S315080095200D4B9FED0B7B03F6080C03F61401002286
S315080095300020CCF800200A6003F5026202ED027BE7
S31508009540C3F80408C3F81008C3F82008704700BF1A
S3150800955000000000000000000000001000000000ED
S3150800956030B5012285B00C21044610F0E1FAE0B1CD
S315080095709FED117B0246124B043280ED017B02609F
S315080095800FCB6D4685E80F000E4B0F491A6820462B
S315080095900DF020FD00222946204620F053FA2046E9
S315080095A06FF098FD012005B030BD20460DF0BCFCDB
S315080095B0012005B030BD00BF00000000000000F02B
S315080095C0D400080800A70020D8B9F0FF0000000062
S315080095D010B590F8E03090F8DCC0174C83F0010322
S315080095E063F3000C80F8DCC04FF48C62002120463F
S315080095F076F0BDFA4FF4F072002104F2644076F07A
S31508009600B6FA0E4B9FED0A7B03F50F5203F500538E
S3150800961082ED0C7B03F6047003F608720021002421
S31508009620C3F8C0480160116010BD00BFAFF30080E9
S3150800963000000000000000F0602400100000001088
S315080096409FED116BD0ED0F7A80ED030AB5EEC00AD7
S315080096500123F1EE10FA80ED066BC0ED097A80ED74
S315080096600F0A03720BD9DFED0A6A86EE807AF5EEE9
S31508009670407AF1EE10FA80ED0A7A03D07047054B6E
S315080096808362704768F0E8BD000000000000000033
S31508009690ABC222480000C07FD0B5554C554E0027B6
S315080096A0204632463B463F2170F056F904F1280021
S315080096B032463B46402170F04FF904F150003246DD
S315080096C03B46412170F048F904F1780032463B46A2
S315080096D0422170F041F904F1A00032463B4643218D
S315080096E070F03AF904F1C80032463B46442170F05E
S315080096F033F904F1F00032463B46452170F02CF967
S3150800970004F58C7032463B46462170F025F93A4BF3
S315080097103A49196047201871482083F824004920DF
S3150800972083F844004A209FED2E6B9FED2F7B83F82C
S3150800973064004B2083F884004C20002283F8A400A0
S315080097404D244E2083ED046B83ED0C6B83ED146B77
S3150800975083ED1C6B83ED246B83ED067B83ED0E7B1B
S3150800976083ED167B83ED1E7B83ED267B1A721A73B7
S31508009770196283F8282083F82C20196483F8482076
S3150800978083F84C20196683F8682083F86C20C3F8A0
S31508009790801083F8882083F88C20C3F8A01083F8FB
S315080097A0A82083F8C44083F8E40083ED2C6B83ED8E
S315080097B02E7B83ED346B83ED3C6B83ED367B83ED3B
S315080097C03E7B83F8AC20C3F8C010C3F8E01083F8DA
S315080097D0C82083F8CC2083F8E82083F8EC20D0BD95
S315080097E0002D31010000000000000000000000000C
S315080097F0F0220020400D0300581A002038220A08DB
S315080098000D480E4AC3680E499FED097B10B4002423
S3150800981043611C700830046280F82440094B5DF8E7
S31508009820044B80ED0A7B46F0FDBC00BFAFF3008019
S315080098300000000000000000A83B0020F0150A0800
S3150800984090A20808B87E09082DE9F04F2DED048B83
S31508009850544891B0FEF7ECFD20B111B0BDEC048B75
S31508009860BDE8F08F01255049009503464622044677
S315080098704E4847F01BF84E48046145F0F3F84D4B47
S315080098804D4A1B6813801B0C93704C4B9D63FFF766
S31508009890B7FF61F0E1FE4A494A4847F0F3FD4A49F5
S315080098A04A4847F0EBFD4A494A4847F0E7FD4A4926
S315080098B04A4847F0E3FD4A494A4847F0DFFD4A4B24
S315080098C01D78002D40F06581484E494846F0DEFC7B
S315080098D031222946474876F04AF996F8790166F022
S315080098E07BF896F84C0566F077F896F8DF0266F08E
S315080098F073F84149414847F0C5FD414871F016FCE7
S31508009900404871F013FC404A4048536843F400034A
S31508009910536071F00BFC3E4890F83C33002B00F086
S3150800992043833C4B9A689B6C5380202383F31188AE
S3150800993005F00CFC384B1A78511E012900F21C83DD
S3150800994036495960012A1DD1354A3648116C41F00D
S3150800995010011164116E41F010011166116E116A41
S3150800996041F010011162116A21F0100111622E49AD
S31508009970126A98604FF48002702381F83633C1F872
S3150800998084214A60244E2548B1680268B1FBF2F387
S31508009990013B9BB203FB0222914200F00D83234850
S315080099A005F04EFA2093002008160A08B89D0020F4
S315080099B0F4AF01201C160A0878930120A83B002062
S315080099C09DB6060820160A0891A506082C160A0848
S315080099D02911050840160A08A11005084C160A0898
S315080099E03D14050860160A087918022080580010E8
S315080099F078160A08502B01200560040890160A08F4
S31508009A00F0950020CC95002000230140A895002061
S31508009A101862002028350120709400201C190020A7
S31508009A200038024000BD010500E100E050230A08A5
S31508009A30B3F5AA7FC1F04E807BB9AF4BAF49B04AA8
S31508009A40B048C3E902214FF4A271102219805A6066
S31508009A50AD4900221A6147F011FDA74F264646B9BF
S31508009A603B8833B1B86803681B689847031EC1F280
S31508009A70D7820026A54FDFF8C0830096B7F84220A4
S31508009A80A3493346404646F011FF0096B7F8D82258
S31508009A90A0493346A8F5867046F008FF0096334677
S31508009AA0B7F804239C49A8F5D47046F0FFFE9B49F5
S31508009AB09B4847F0E3FC9B4B1E7097F84935D9073E
S31508009AC003D497F84835DB0948D0DFF84082B8F860
S31508009AD04410B8F8460040F03FFAB8F8481607466A
S31508009AE0B8F84A0640F038FA0646002F01F0998081
S31508009AF0874201F0058398F83436062B96BF8A4AC2
S31508009B008A4B52F82330814A186892F83C265968DD
S31508009B10520608AB03C302D501F10043099308A90D
S31508009B20384606F07BFB002E41F07E80804BC3E969
S31508009B300076764B93F84935DB0706D5DFF8FC82C5
S31508009B4098F8AC33002B01F0E582704B93F8483552
S31508009B50DB0941F0C381734B01221A70754B1B78E0
S31508009B6053B96A4BB3F8EC023EF068FA002801F0E4
S31508009B708B8171483AF0D6FD644B93F8BC63F609BD
S31508009B8041F0BE803EF030FC3FF09CFA6B4846F050
S31508009B907DFB6B496B4847F079FC6B496B4847F08E
S31508009BA071FC5A4B93F80C23120700F1CF81614BD5
S31508009BB0197879B9554B66481B89692B9CBF654A44
S31508009BC052F8231046F062FB4CF0E0F8624963480D
S31508009BD047F058FC624DDFF8688205F580674FF05C
S31508009BE0FF36294632464046203508F00BFDAF427F
S31508009BF0F7D15C485C4947F049FC5C4800F580555C
S31508009C0095F8AC31002B00F0C581594959485A4D91
S31508009C1047F040FC59495A4847F030FC59495A48D8
S31508009C2047F02CFC95F85C36002B00F0A881574BC2
S31508009C305A68002A00F0BB8159F08CFB00283FF4D3
S31508009C400CAE5349534847F019FC5349534847F05B
S31508009C5015FC5349534847F021FC5349534847F0EC
S31508009C6015FC5349534847F011FC5349534847F0EC
S31508009C700DFC5349534847F015FC5349534847F0E0
S31508009C8001FC5349534847F0FDFB5349534847F0F5
S31508009C90F9FB5349534847F0F5FB5349534847F0F6
S31508009CA0F5FB30F0EFFD524858F0FAFF514B524998
S31508009CB0524801221A6047F0E1FB5149514847F0E2
S31508009CC0DDFB514A514805216EF000FA50495148CA
S31508009CD047F0D4FB5049514847F0D4FB5049514806
S31508009CE047F0D0FB5049514847F0D4FB50495148FA
S31508009CF047F0D0FBA6E000BF8C360120D8160A082C
S31508009D0088470020E0160A080D9E060880580010AD
S31508009D1008170A0810170A081C170A08DDA60608F5
S31508009D2028170A089818022018230A0834230A084C
S31508009D307093012079180220C0230010BC170A0866
S31508009D404D33060870160A08BD5006089C96090881
S31508009D50D4170A08C8540908110F050868140A0810
S31508009D60B86B0020E8170A0851320208B86F0020BD
S31508009D701950020804230808708100206932020875
S31508009D80F8170A08E141020804180A08E83B002007
S31508009D904929060810180A08D12806081C180A08AE
S31508009DA0252B060828180A08412A060834180A081E
S31508009DB0F12906083C180A08192A060848180A0844
S31508009DC0692A060854180A08F91A06085C180A08BF
S31508009DD0D51A060868180A08551A060870180A08CF
S31508009DE0791A06087C180A089D1A060888180A08A7
S31508009DF0B01A00109093012051BC050890180A0863
S31508009E0005D70508B0180A0871BC0508BC180A0861
S31508009E10D1C20508D4180A08E5D80508E0180A08C2
S31508009E20EDD80508EC180A08C1C20508F8180A088A
S31508009E30C9C20508BC7D0908E89E002068BD001057
S31508009E40B0A500207649774847F028FB7649774839
S31508009E5047F020FB7649774847F020FB7649774854
S31508009E6047F01CFB7649774847F018FB7649774850
S31508009E7047F008FB7649774847F00CFB7649774860
S31508009E8047F008FB7649774847F004FB7649774858
S31508009E9047F000FB7649774847F0FCFA7649774859
S31508009EA047F0ECFA7649774847F0F4FA7649774866
S31508009EB047F0E4FA7649774847F0F0FA7649774862
S31508009EC047F0ECFA764B1B78002B00F00382754CB2
S31508009ED075490125002348222046009546F0E6FCF0
S31508009EE0002372490095472204F10C0046F0DEFC77
S31508009EF06F4B93F855359B0700F1F485684B1B7833
S31508009F000BBB6C48036144F0ADFD694BB3F8F044F4
S31508009F1020463EF093F838B19FED670A674B6849CB
S31508009F206848224665F094FD614BB3F80045204623
S31508009F303EF084F838B19FED600A634B6049634888
S31508009F40224665F085FD35F099FB86E493F82727C8
S31508009F50002A3FF42CAEB3F842003EF06FF8002812
S31508009F603FF425AE00220092594B5A487F224FF4FF
S31508009F70CA6107F06DFC1AE6574804F061FF012331
S31508009F80D5F8581685F85C3628463CF0F9FEC5F82B
S31508009F9060064CE60123D5F8A81185F8AC311AF00D
S31508009FA0E7F8C5F8B00130E63DF0D8FEB9E44B4A0B
S31508009FB01168596013603FE6D0E90201F26821F0A2
S31508009FC0FF01002717605060936217610223D16072
S31508009FD0337004F0D1FF202383F3118805F0B6F817
S31508009FE005F07EFB3378022B40F0718503237268F7
S31508009FF03370F36852680921D962012159615F6299
S3150800A0001F6112B1DA680A43DA6085221A6004F021
S3150800A010B3FF33493348344E47F034FA012768E032
S3150800A020FDC305080CE70808D5C205080026080878
S3150800A03061BD050800190A08ADBD050814190A0806
S3150800A040F9BD05082C190A083DD4030848190A0859
S3150800A05051BD050850190A0841BD050864190A08C2
S3150800A0603DBF050874190A0845BF050884190A087A
S3150800A07091BE050894190A08A99205089C190A08A8
S3150800A0804DBF0508A8190A08DD9E0408C0190A0864
S3150800A090F5FD0508CC190A0845BE0508E4190A089D
S3150800A0A079180220C49D0020C81C0A08DC1C0A086E
S3150800A0B080580010D0B0012000401C465C190020D2
S3150800A0C0FC1C0A085046002068190020C8460020D3
S3150800A0D0B5BD04086865002060230A080418002036
S3150800A0E0197204089C160A082C2B0120384606F01B
S3150800A0F0B5F93368012BF9D9694B93F8BD231707CE
S3150800A10078D5D3ED757ADFED676A9FED676A93F8C0
S3150800A11048359FED660A67EEA67AB6EE007A67EED0
S3150800A120877A180786EE277A614BDFED626AD3EDE8
S3150800A130007A9FED616A27EE267AF4EEC67A48BF62
S3150800A14037EE077AF1EE10FAD8BFF0EE477AF0EE5E
S3150800A150046A27EEA67AB4EEC07AF1EE10FA00F396
S3150800A16049879FED507A67EE877A87EE800A63F013
S3150800A170B9FF524B00225A60B0EE087AC0EE076A61
S3150800A180F7EE004A36EEA45ABFEE007AA0EE005A61
S3150800A19074EEE65A84EE856AA0EE007AE0EE005A7E
S3150800A1A037EE077A66EE866A67EE067A26EE256A3F
S3150800A1B0B1EE667AC3ED006A83ED027AC3ED037ADF
S3150800A1C083ED046A364B93F807365907C3F38006BE
S3150800A1D000F19C863A48032256213EF079FE39481A
S3150800A1E0032257213EF074FE374890F83C33002B83
S3150800A1F000F012872A4B93F80C33DE0700F13886F5
S3150800A200274B93F80C339A0700F1DC85244B93F817
S3150800A2100C335B0700F1D185214B93F80F33DF0729
S3150800A22000F1C6851E4B93F805361E0700F1BB855F
S3150800A2301B4B93F80536D80600F1B085184B93F8F2
S3150800A2400C3F002B3FF409AC204E0F335B01002274
S3150800A250C6E9232306F1A8000123142286F8A330B1
S3150800A260C6F8942045F0BAFBB369002B00F00586C2
S3150800A270174A13885168194489B222460120002AD0
S3150800A2807FF4DAAB002B3FF4D8ABB3F5A27FBFF46B
S3150800A290CFABB1F5A27F0246F1D9FFF7DEBB00BF0F
S3150800A2A080580010DB0F494000006144809F5548E4
S3150800A2B0E067001000007A440AD7233CFC740120AA
S3150800A2C0C0160A08CC160A08D05E00208847002067
S3150800A2D08C360120BC49BD4847F0D0F8BC4ABD4879
S3150800A2E005216DF0F3FEBC4ABC4810216DF0EEFE68
S3150800A2F0BB4ABC4811216DF0E9FEBB4ABB48102198
S3150800A3006DF0E4FEBA4ABB4811216DF0DFFEBA4A89
S3150800A310BA4811216DF0DAFEB949BA4847F0AEF8E5
S3150800A320B949BA4847F0AAF8B949BA4847F0A6F869
S3150800A330B94ABA4805216DF0C9FEB949B94847F086
S3150800A3409DF8B949B94847F099F8B949B94847F065
S3150800A35099F8B949B94847F091F8B949B94847F061
S3150800A3608DF8B949B94847F089F8B949B94847F065
S3150800A37089F8B948B94A11216DF0A8FEB84890F88D
S3150800A3803C33002B00F03384B64EA6F2845558F0C1
S3150800A390A5FEB548314645F09FFBB5F8CA023DF023
S3150800A3A04DFE68B105F29C6393ED000ADFEDAF0A36
S3150800A3B0AF4AB049B048B8EEC00A00236DF0A2FD16
S3150800A3C0AE4BB3F9E420B3F95210914201DAA3F87F
S3150800A3D05220AB4BAB4FAC4DAC4E7B6003F140010A
S3150800A3E0B96003F15001A1F54F59F96095F8011AC2
S3150800A3F0DFF800B34FF07E524FF0140840F26C7A43
S3150800A400BA613A617A61B2613261726118FB01A17F
S3150800A41003F160024944726005F6042003F1A002C4
S3150800A420B033B260F36045F057FB95F8511AC5F89A
S3150800A430347A18FB01A1494405F65420C5F838BA00
S3150800A44045F04AFB95F8A11AC5F8846A18FB01A1DC
S3150800A4500BF17803494405F6A420C5F8883A45F077
S3150800A4603BFB95F8F13AC5F8D47A18FB03A14944A1
S3150800A4700BF1F00305F6F420C5F8D83A45F02CFBA5
S3150800A4800BF5B473C5F8283BC5F8246B52F0CCFB22
S3150800A49099F8BC33590600F19D837D483AF042F994
S3150800A4A07C483AF03FF97C483AF03CF97B483AF068
S3150800A4B039F9012060F0F4FA704B93F80F239206ED
S3150800A4C040F1288393F84925D70704D593F84835EA
S3150800A4D0DB0940F0AE85724940F25E2053F0D0FEAB
S3150800A4E0664D95F805369E0640F1278395F848355A
S3150800A4F0DB0940F080836B4940F25E2053F0C0FED2
S3150800A500212038F08DFD48B95C4B674DB3F83A8386
S3150800A510B3F83C73AB68002B00F09385574B93F860
S3150800A5201E124B1E2F2B0AD8604CDFED500A9FEDEA
S3150800A530600A20463EF034FD20463AF0F3F84F4DC7
S3150800A5405C4995F836025C4F60F06AFF95F802039D
S3150800A5505A4960F065FF5AF073FB05F61A5600244F
S3150800A56005F64B5515F8012F36F8021F0134384603
S3150800A5703EF0AEFC082CF5D15149524846F08EFF04
S3150800A5805149524846F07AFF5149524846F076FFFB
S3150800A5905149524846F076FF384B93F85535DB0952
S3150800A5A040F06F834E494F4846F068FF4E4B93F88C
S3150800A5B027201AB94D4A1168D96213604A4E4C4C85
S3150800A5C0B4614EF6602297E0E1200608F8190A08F9
S3150800A5D089200608081A0A08892D0608181A0A087A
S3150800A5E0692D0608241A0A083D2E0608301A0A0894
S3150800A5F01D2E06083C1A0A08B92E0608481A0A0823
S3150800A600ED200608541A0A08751F0608641A0A086F
S3150800A610811F0608701A0A081D1F06087C1A0A08F0
S3150800A62049210608881A0A08E10F0608981A0A082E
S3150800A63005520608A81A0A082D200608BC1A0A0890
S3150800A640DD1F0608CC1A0A089D210608D81A0A082A
S3150800A650ED0F0608E41A0A08F01A0A08452F060834
S3150800A660308D0020045E0010C006001000000000B7
S3150800A6705C9E0020FC1A0A08304000208058001012
S3150800A680F08B0010B0B001200000001090B001203F
S3150800A69068B0012058B0012048B0012038B0012028
S3150800A6A0101B0A08481B0A08988D0120A88C002050
S3150800A6B0CDCC4C3D088D0020841B0A08E08C002078
S3150800A6C081DF0608901B0A08B5CB0308A01B0A08F9
S3150800A6D0CD490408B41B0A08219D0608C41B0A08AC
S3150800A6E0494504082080080840470020A0AC0020FF
S3150800A6F0CE5D0010E83C00200023C6E90223304660
S3150800A70004F22A630025336286F826503EF0BEFC22
S3150800A7100121B14A86F82710B049B14B53604FF072
S3150800A7207E56B04B91602039966116615661D160AC
S3150800A73001F140025A6001F5B0729A60AA489E611A
S3150800A740203A29461E615E61DA6034F0ADFEA74BF9
S3150800A750A74AA848A8495A6002F580729A604160DB
S3150800A760103201F58071DA608160A44A9E61103169
S3150800A770C1601031516040311E615E619160A04B2D
S3150800A7809661103116615661D16001F1600210318F
S3150800A790C3E901128661066146619E611E615E61BA
S3150800A7A001F16002974E984FDFF8F8A2DA60A4F23A
S3150800A7B04E54B4F8B48940463DF040FCA0B3B4F812
S3150800A7C0B8B9924B924942464FF00C0807EE90BA38
S3150800A7D008FB0538BBF10009404618BF4FF00109D0
S3150800A7E0B8EE678A46F00AF9BBF1000F40F085819A
S3150800A7F05AF8253004F6DE125A604FF07C529A61F8
S3150800A80004F6BE129A604FF080421A6104F6CE1220
S3150800A810DA604FF07E525A61C6E9048304F6B4132F
S3150800A82086F80890F76073600135042D04F16C040E
S3150800A83006F1180607F17807BBD1764C764D94F8E1
S3150800A840643404F29C50002223F0070305F65811DD
S3150800A850A5F8D82584F8643445F03EF995F8CD3046
S3150800A8606E4DD8064CBF04F5986004F591606C4CA3
S3150800A870294645F031F9204630F0F8FF54F0A8FD96
S3150800A880A4F5BA62002182F85814A4F5BA72654B89
S3150800A8901360A5F2CC55A4F5A87263486349136002
S3150800A8A046F0ECFD95F8CD30D9064CBFA4F5887076
S3150800A8B0A4F5A470584C04F2CC5104F2D45304F510
S3150800A8C0BA620D681968C36A12685A6002681D6020
S3150800A8D05268996090475649564846F0CFFD564B00
S3150800A8E01B78002B36D14B4B544A55485549564D83
S3150800A8F0564EC3E9F002564846F0C0FD554956483B
S3150800A90046F0BCFD554B5649564A5D614FF07E50A0
S3150800A9108861086190611061186104F69C10C8602E
S3150800A9205148486151489861514898600630D86046
S3150800A93004F63C6004F6A814C1E901044D495660C2
S3150800A94004F66C3400F5DD60C2E9024055615960D1
S3150800A95053F074FD304B93F854355A0600F15E8176
S3150800A96052F05CF84449454820F02AFE444B4549D4
S3150800A970A3F67C624FF07E54B2F84C00424A4B6014
S3150800A980A3F59C65A3F2D4468C6124330C619461CB
S3150800A99014613E4CCD60C2E90136D560324B8E60FB
S3150800A9A000254B61536125703DF048FB58B12B4695
S3150800A9B0DFED370A9FED3C0A364A374937486DF0CE
S3150800A9C0A1FA01232370144B354CB3F8120E002557
S3150800A9D025703DF033FB69E0A8BC0020A497001061
S3150800A9E084960010E4BC0020A00B0010A89B002051
S3150800A9F00499001078980020249A0010589800208E
S3150800AA0038980020B08D0120C88800202C19002015
S3150800AA107C1C0A0800000010805800104C5E0010CC
S3150800AA20D00500100000C8C2841C0A08FDB005083D
S3150800AA30E5960408901C0A0879180220281F0020A9
S3150800AA40F01F0020B9C905080AD7233C546D001029
S3150800AA509C1C0A0805A20508A81C0A0818B00120AB
S3150800AA608C750120088D01200000C842CDCCCC3D54
S3150800AA707C9E0010589E00106F8614008CBC002027
S3150800AA80FC660010A4A7002084A70020BA1802209C
S3150800AA90CDCCCC3D9C9E0020B01C0A0850880020D6
S3150800AAA0B91802206C230A080000C07F00283FF46A
S3150800AAB00EAA2B461FED040AC54AC649C648F6EE35
S3150800AAC0000A6DF01FFA01232370FFF700BAC34886
S3150800AAD004F0B6F9B1F5AA7F4FF001027FF6CFABC5
S3150800AAE0FEF7BBBFBE4B1B78002B7FF42CAABD49D3
S3150800AAF0BD4846F0C3FCFFF701BABC4BDFEDBC0A04
S3150800AB0053F82510B0EE480A0023424638466DF041
S3150800AB10F9F96DE693F84C32013B2F2B02D8B5486C
S3150800AB2039F000FEB44B93F84D32013B2F2B3FF61C
S3150800AB30D7ACB24839F0F6FDD2E4B149B14895F838
S3150800AB40D76246F09BFCB049B04846F097FC3046C1
S3150800AB503DF028FCAE4BC3F85803002800F0E98204
S3150800AB6003F2463603F26F379B4605F5517503F532
S3150800AB70807A039405E00BF1200BD34505F1020515
S3150800AB806DD000234FF0010826F8028F07F8013F21
S3150800AB909BF87C0338F044FA04460028EBD1B5F854
S3150800ABA0009048463DF04AFA0028E4D0984B4946BA
S3150800ABB003F55770C3F8604344F098FC954842463D
S3150800ABC049463EF085F92B8833800BF55E7039F0DF
S3150800ABD0A9FDD0E7904858F01BFB904858F018FBA1
S3150800ABE08F4858F015FB8F4858F012FB55E43DF096
S3150800ABF0B5F8FFF7C9BB8C4858F00AFB8B4858F0E4
S3150800AC0007FB8B4858F004FB8A4858F001FB8A4832
S3150800AC1058F0FEFA894858F0FBFA71E455F004FE3C
S3150800AC209EE600283EF49AAF734B93F83636062B09
S3150800AC3000F25281824A52F823306F4A186892F815
S3150800AC403C265968D20906AB03C302D001F100437A
S3150800AC50079306A9304605F0E1FAFEF767BF6C4D83
S3150800AC60039C95F83C33002B7FF44AAC0123D5F8B6
S3150800AC70381385F83C3328463CF05AF8C5F84003A3
S3150800AC803EE4704B93F8D421002A00F0108193F823
S3150800AC90D521002A00F01D81D3F8D8310B939DEDFC
S3150800ACA00B8A18EE100AFDF735FD0446224666485B
S3150800ACB00B460D4645F0EAFAB4EE488AF1EE10FA6C
S3150800ACC080F1E980DFED617AB4EEE78AF1EE10FAF9
S3150800ACD000F3E180DFED5E7AB4EEE78AF1EE10FA72
S3150800ACE000F1D9805B4845F0D1FA564B40F2011184
S3150800ACF0002283ED648AA3F88C1183F88E2151E42F
S3150800AD0093F8B029052A00F21982DFE802F0373AEB
S3150800AD10342D034440F2F1134F4900220B804F4B68
S3150800AD204F481A8039F0FEFC4E4839F0FBFC324B8E
S3150800AD304D4993F8BC230E7090067EF523AF93F821
S3150800AD40B029052A00F2018201A353F822F000BFB8
S3150800AD5089AD000889AD000889AD0008859B000803
S3150800AD6089AD0008859B00083B4B4FF421721A8079
S3150800AD7040F28522D3E74FF4D073CDE74FF4F8734A
S3150800AD80CAE74FF40073C7E7384940F66E0053F038
S3150800AD9077FAFEF7F7BE40F20933BDE706203FF023
S3150800ADA05DF9FFF74BBA05203FF058F9FFF740BAAF
S3150800ADB004203FF053F9FFF735BA03203FF04EF968
S3150800ADC0FFF72ABA02203FF049F9FFF71FBA00BF7A
S3150800ADD0DC9E0020BC1C0A08D88700203C230A08F1
S3150800ADE079180220F99D0608F01C0A089C230A080F
S3150800ADF00000000084B001208058001078B00120BF
S3150800AE0021030508701B0A0879030508781B0A0838
S3150800AE1090270020DC820808508B0020188B002021
S3150800AE20E08A0020A88A0020788C0020488C002020
S3150800AE30188C0020E88B0020B88B0020888B002017
S3150800AE4018230A08D0A70020D01B0A080000DC42F5
S3150800AE50000070420C1D0A08761802207418022099
S3150800AE605848002038480020B81802207C170A08DD
S3150800AE7001203FF0F3F8FFF7C3B9B94B1A68B2617E
S3150800AE8014361E60FFF7F4B9B64B93F8C4036EF098
S3150800AE9059FDFEF771BEB44922462B4640F6B2006C
S3150800AEA052F02CFEB14845F0F1F9FFF77BBBD3F819
S3150800AEB0DC4174B1236820469B68984748B12368EB
S3150800AEC021465B680AA898479DF82830002B7FF42E
S3150800AED0E6AE9FEDA78AE4E6A64BAEE6A648C0F81E
S3150800AEE0687327B190F83C33002B00F01081A34813
S3150800AEF0C0F86863002E3EF42EAE90F83C33002B63
S3150800AF007EF429AE3CF02AFFFEF725BE9C4BDFED0A
S3150800AF109D9A9FED9D9ADFF8B4A20FCB10AF07E973
S3150800AF200F004FF0000900279FED988A0DF1300BAE
S3150800AF30B84607EE907AF8EEE77AFBEC018A77EEE8
S3150800AF40A77A08F1010827EEA90A4F4480EE090AF4
S3150800AF5070F04EFDB8F1040FA8EE808AE9D109F128
S3150800AF600109B9F5806FAAEC018ADCD1884BDFEDBF
S3150800AF70876A1868DFED875A9FED876ADFF850C23F
S3150800AF8005EE104AAE464FF47A6700220CFB02F330
S3150800AF9007EE903AF8EEE77A411C67EEA57A9142F9
S3150800AFA037EEC67AB0EEC77ABDEEC77A17EE103A14
S3150800AFB005D1B8EEC57A37EEC77AF0EEC76ABB4256
S3150800AFC004DABDEEE75A1F46B64610460132B2F518
S3150800AFD0007FDBD1BEF1000F01D06D4B18606F4BBF
S3150800AFE015EE101A03F69802A3F89618C2ED006A31
S3150800AFF0FFF7F0B817EE900AFDF78CFB02460B46F2
S3150800B000CDE90023664954A3D3E9002340F25E2024
S3150800B01053F036F9FFF7D6B83CF0A0FEFFF7EAB8CA
S3150800B0203246604940F25E2053F02AF90126FEF7BF
S3150800B03016BD5D4858F0ECF85C4858F0E9F8FFF79B
S3150800B0404FBA40463CF0FAFF00283FF467AA384654
S3150800B0503CF0F4FF00283FF461AA554E052230461D
S3150800B06041463DF035FF0522394630463DF030FF72
S3150800B07040466DF085F84146286030463DF0C6FCEE
S3150800B080686038466DF07CF8394603463046AB6052
S3150800B0903DF0BCFC6A682968E860012606FA02F2F7
S3150800B0A092B20A8306FA00F3AA689BB213830DF1DB
S3150800B0B013010F23284632468DF8133066F01EF921
S3150800B0C032460DF11201284666F032F99DF8123023
S3150800B0D0B12B2BD0BD2B7FF421AA4CF2204334464A
S3150800B0E0344DADF814302846022205A92C6166F0C5
S3150800B0F005F9012330482B7539F014FBFFF70EBA12
S3150800B1002E4940F25E2053F0BBF8FEF727BD3CF00F
S3150800B11025FEECE60123D8F8A81388F8AC33404698
S3150800B1204FF060F8C8F8B003FEF70FBD44F21043BD
S3150800B130D6E7234845F0AAF8FFF7E2B9214940F6D1
S3150800B1406E0053F09DF82E46F1E51F4940F66E0055
S3150800B15053F096F8FEF716BD00000000F0B30A415A
S3150800B1600418002000200010001C0A082C1C0A08DD
S3150800B17067A6CA4234230A08F8B9001088B6001030
S3150800B1805C020808DB0F494000C07F44000000004D
S3150800B190E86601200000803A00007A4500000010A9
S3150800B1A0A0160A08EC160A08D04800209048002085
S3150800B1B0801B0A08988D01202846002030170A08A7
S3150800B1C0E88208085C170A08A4170A089C110120D7
S3150800B1D07E5603000000000038B59FED216BDFEDB9
S3150800B1E0227A224B0360044600250123036480ED7E
S3150800B1F00E6BC0E90755C0E90955C0ED017AC0EDE7
S3150800B200027AC0ED037AC0ED047AC0ED057AC0ED86
S3150800B210067AC562C0ED0C7A80F8345080F844503E
S3150800B22085644C306BF04EFF114BA4F8B0504FF0CC
S3150800B230824284ED206B84ED266B84ED2E6B84F8B8
S3150800B2407C50C4F88850C4ED237AA4F89050C4ED15
S3150800B250287AC4ED297AC4F8A820C4F8AC3038BDD9
S3150800B26000000000000000F0000000008C370A080B
S3150800B270CDCCCC3D000000009FED0F7B002200B531
S3150800B280C0F8A4104FF0000E0D49C0F80CE0C0F845
S3150800B29020E0C0E90422C0E9062280ED0E7B80ED9D
S3150800B2A0347B5DF804EB426082600160426243F0E1
S3150800B2B0F5BF00BFAFF3008000000000000000F0FB
S3150800B2C074370A080000000010B59FED136BDFED18
S3150800B2D0147A144CC0ED147A00234FF0010C8362E3
S3150800B2E080ED126BC362C0E90833C0E90A33C0E9CE
S3150800B2F00C33C0E90E33C0E91033C0E9033300F15B
S3150800B3000C0E036043714361C36180F854C08361C6
S3150800B31080F804C0846010BD000000000000000032
S3150800B3200000C07FAC230A0870B5234ED6F808364D
S3150800B330D6F89847A6F80C06013382B00546C6F833
S3150800B3400836ACB1002306F5C46001E0A3420FD06D
S3150800B3501A010133815AA942F8D1184C14442046DF
S3150800B36044F03CFB164802B0BDE8704044F036BBDA
S3150800B37004F05EF9D6F89837124A0190172B10D8C0
S3150800B38002EB031202F5AC449FED097B25840133D9
S3150800B39084ED067B0198C6F89837183404F0E8FF60
S3150800B3A0DDE7019804F0E4FFDCE700BFAFF30080B7
S3150800B3B000000000000000F00050001018560010B1
S3150800B3C010560010000000102DE9F04F2DED068BE9
S3150800B3D00123DFED5BAA85B00A24BFEE009AB8EE1A
S3150800B3E0008AF6EE008A06461D4629EE08AADFED13
S3150800B3F0559A2AEE09AA4FEA450B32464FEA051A2C
S3150800B400E800B7EE009A0021871802F10409904671
S3150800B4100B46D7ED010A97ED000A69EE207A20EE71
S3150800B420E97AE9EE807A5B44A9EE007AF4EE477A87
S3150800B430F1EE10FA58D698ED016A59ED016A36EE22
S3150800B440676A76EEC76A87ED016AC7ED006A98ED06
S3150800B450016A59ED016A77EE867A36EE877AB3F590
S3150800B460806F09ED017A5744C8ED017AD144D0447A
S3150800B470CFD369EE8A7A2AEEE97AE9EE2A7AAAEE33
S3150800B480097AB4EE677AF1EE10FA40D60131A9428C
S3150800B49039EE079A79EEA79A02F10802B4D1013C6F
S3150800B4A01DD05846FDF714F902460B4622A1D1E9EC
S3150800B4B00001FDF7B1FAFDF75DFC09EE100A29EE69
S3150800B4C0280A70F005FBB0EE40AAB0EE490A70F003
S3150800B4D0FFFA5D46B0EE4A9AF0EE40AA85E705B057
S3150800B4E0BDEC068BBDE8F08FF0EE691AB0EE491A8E
S3150800B4F0CDE90202CDE9003174F05EF8DDE9020219
S3150800B500DDE90031B0EE407AF0EE607A93E7F0EECE
S3150800B5106A1AB0EE4A1AF0EE690AB0EE490ACDE99F
S3150800B5200102009174F048F8DDE901020099B0EED5
S3150800B530407AF0EE607AA9E700000060FB2109C0B6
S3150800B5402EBDBB33000000002DE9F04FCC4BCD4C8F
S3150800B550CD49CE482DED068BC3F82C44CC4C1C6047
S3150800B5600022CC4CC3F83444C3E90122CA4C83F800
S3150800B5703024CA4B0B60C1F86446C94BC94C1A70D3
S3150800B5808125C1F858566360E360C74DC74B81F8FB
S3150800B5905C260026C64925604FF07047C0E900675B
S3150800B5A0C44D0D606420C1E90620086203F1280134
S3150800B5B003F14000C3E902111960586003F1200144
S3150800B5C003F11800C3E90600C3E90811BA48BB49E4
S3150800B5D01A6100F128051A754FF47A7C0B46056046
S3150800B5E0B74FC560C4F808C000F11804C0E906449E
S3150800B5F000F1400600F1200443F8247BC0E9084422
S3150800B600C1E9022285604660026102750A7183B04B
S3150800B610A431FF2043F8102C03F80C2C23F80A2C2D
S3150800B62003F8082C03F8070C03F8062C1033994284
S3150800B630F0D1A449A44BA54CC3F89C4001F13400B1
S3150800B6401425C3F894505861002444F620604FF03E
S3150800B6507045C3E92A451960C3E902229C491A7153
S3150800B660C3E90622C3E92322C3F89800994B9A48EE
S3150800B6709A4C0860862581F83C23C1F84823C1F80E
S3150800B6803853C3F83853C1F8444301259449C3F8DD
S3150800B69048531860934D83F83C238720C1F8A803C4
S3150800B6A00520C3F84443C1E9ED508F4B81F8AC231C
S3150800B6B09FED6D8B8D4A0A604FF0000803F5C07246
S3150800B6C0C3F8088083ED068BC3F80C8083ED088BDE
S3150800B6D083ED0A8BC3F8008083ED0C8BC3F81080CA
S3150800B6E083ED0E8B83ED108B83ED128B83ED148B1C
S3150800B6F083ED168B60339342E2D17D4B7D4A1A6007
S3150800B7007D4A5A60DA6082F800807C489FED7C9A10
S3150800B710DFF868A27B4F4FF47A6228219A606EF0B0
S3150800B7202FF9794825216EF02BF9784859216EF0C2
S3150800B73027F977485A216EF023F9764B7648242262
S3150800B7401A712321754A1A606EF01AF9FDF7A4FFDB
S3150800B750734BDFF82CC2734983F8088022221A71CA
S3150800B760714ACCF82020C2E90088C2E9028882F82A
S3150800B77014800022C3E9041203F128021A624FF06A
S3150800B78021028CF80420694A1A609FED39AB684A91
S3150800B790CCF800209FED387B664A83F80C8002F5CA
S3150800B7A0805B83F82C8083ED068B83ED0CAB6248B7
S3150800B7B0624A83ED099A202100238CED047B8CF8DC
S3150800B7C008808CF80C808CED068B6EF0C5F85C480A
S3150800B7D05A4A9FED5C0A4F2100236EF0BDF8514A84
S3150800B7E0594800231F216EF0B7F8584B4D49584861
S3150800B7F083F808800022C3E904124FF00C0119717E
S3150800B80054491960F7EE009A83F80C8083ED068B8D
S3150800B810514B40F8043BF0EE690A6DF097FE66F06E
S3150800B82081FA4E486DF092FE4D4B4E481860C3EDB6
S3150800B830019A83ED029A83ED039A83ED049AC3ED88
S3150800B840059A494B49484A4A83ED00AB494B2121A1
S3150800B85083ED00AB00236EF07FF8474B4148186034
S3150800B86090E000BFAFF30080000000000000000079
S3150800B87000000000000000F000093D000000000084
S3150800B880208F0120DC260A0800520020A03B002059
S3150800B890F4290A08B4210120E0260A08DC290A0846
S3150800B8A0E8B00120E4AF0120EC260A0870C80010B1
S3150800B8B0F4AF0120182A0A08B0C80010902A0120FF
S3150800B8C02C2A0A08542A0A08884700208F1E1700BF
S3150800B8D0F8B9001088B60010B82A0A0810A808088F
S3150800B8E068BD001008A80808082C00209C2A0A0829
S3150800B8F0F0570120FC260A08F0C800103026002060
S3150800B90000000000806800108824002038250020E8
S3150800B910E02400208CAC002030240020CC2A0A0821
S3150800B920A88C002080841E00988D0120E82A0A0829
S3150800B9300C2B0A0800000010D8200020801A0600E8
S3150800B940B02000200000C842C8220020A8220020FB
S3150800B9509C96012038220A082C2B0A08BC9601203E
S3150800B960E89301207C0E0A0880480020E025002084
S3150800B970400D030078480020109401208C860010A2
S3150800B98028460020D04AD148C3ED019A83ED029A91
S3150800B99083ED039A83ED049AC3ED059A27210023C4
S3150800B9A06DF0DAFFCA48C84A332100236DF0D4FF88
S3150800B9B0C848C54A352100236DF0CEFFC648C24A9D
S3150800B9C0372100236DF0C8FFC44BC54AC549196025
S3150800B9D0C3E90A8883F8088083F80C80C3F82080B6
S3150800B9E083F8248083ED068B83ED0C9ABE4B116099
S3150800B9F0BE4919604FF0260CB84BDFF85CE382F8B5
S3150800BA0004C04FF0340C83F804C042F2046CB64B01
S3150800BA10AEF804C04FF0270C8EF806C0CEF800101A
S3150800BA2043F2324E9FEDA47BA3F804E04FF0330EA9
S3150800BA3083F806E0A94B82F80880C2E90A8882EDF5
S3150800BA40047B83ED047B82F80C80C2F8208082F8A0
S3150800BA50248082ED068BA64882ED0C9A05219A4A27
S3150800BA6000236DF079FFA348974A312100236DF032
S3150800BA7073FFDFF8E8E2DFF8E8C29F499F480860ED
S3150800BA80CEF80000CCF800009D4881F8088081F8BF
S3150800BA900C80C1F8248081ED068B9A4980F80880CD
S3150800BAA0AAF1800088609448C1F804A09649CEF8A7
S3150800BAB020100162CCF820109249944808608E48FC
S3150800BAC0934981620131CEF828100131CCF828104B
S3150800BAD04FF0290101714FF02A018EF804108848A9
S3150800BAE08EF808804FF02B019FED757B8CF80410BB
S3150800BAF04FF02C010171804881498EF80C8080ED49
S3150800BB00047B8448CEF824808EED047B8CED047B80
S3150800BB108EED068B8CF808808CF80C80CCF8248087
S3150800BB208CED068B81F80C8088627B497B4B7C4ABE
S3150800BB30013088624FF02D0C7A4881F804C07A49A2
S3150800BB4081624FF02E0C794980F804C078488860E5
S3150800BB507849794888606A486F4980ED047B80EDAA
S3150800BB60068B7048019081ED047B80ED047B81EDA6
S3150800BB70068B80ED068B61496148016024310162BC
S3150800BB806549C0F8248081F80880084681F80C8049
S3150800BB90C1F8248059490160243101626148243979
S3150800BBA0016024310162614980F8088080F80C80C0
S3150800BBB0C0F824804FF019000871604808605D4994
S3150800BBC008604FF01A0008711921C3E901181A21F3
S3150800BBD051605B49196011602831196211624FF092
S3150800BBE001015848C3F82C8082F8381099854FF01F
S3150800BBF00101C2F82C8091850021C3E90401C2E93C
S3150800BC000401C3E90988C3E90C88C2E90288C2E9C4
S3150800BC100988C2E90C88C3F80C8083F8388083ED5C
S3150800BC20068B82ED068B64F0F5FADFF838E1464AB2
S3150800BC30CEF800200C212832DFF82CC1434BCEF871
S3150800BC402C10CEF820204FF00301414A8EF804103C
S3150800BC504FF00101B1EE007A8CF80410CCF80030F0
S3150800BC604FF4FD61136028338EED0C7A8EF8088048
S3150800BC708EF80C80CEF82480CCF820301362CEF8EB
S3150800BC8028108EED048B8EED068B0F234FF0050ED4
S3150800BC90CCF82CE08CF808808CF80C80CCF8248042
S3150800BCA0D362CCF828102B4BCCED0C9A8CED048B78
S3150800BCB05CE000BFAFF3008000350C000000000018
S3150800BCC0804F120000000000400D030008260020E7
S3150800BCD01049002090250020B8250020882D002036
S3150800BCE0C02D0020582B0A08009401203C2B0A0876
S3150800BCF0088D0020E08C0020788C0020882B0A080C
S3150800BD00E88B0020A4930120AC2B0A08782B0A089C
S3150800BD1005030A0008030A00B88B0020D048002053
S3150800BD2090480020888B00200A030A0084B001206E
S3150800BD3085A1060878B001209DA10608FC2B0A08F3
S3150800BD40C02B0A08C0D40100902C0A08542C0A08F3
S3150800BD50E08A0020A88A002008940120488C002048
S3150800BD60188C0020508B0020188B00208CED068B39
S3150800BD704FF0020C82F8088082F80C80C2F8248002
S3150800BD80916282F804C082ED048B82ED068BC2EDC7
S3150800BD900C9A4FF4FD629A62E24ADFEDE37A1A6082
S3150800BDA028321A624FF00D0C0F229FEDE00AE04888
S3150800BDB0C3ED0C7A0E2183F804C083F8088083F853
S3150800BDC00C80C3F82480DA6283ED048B83ED068B3E
S3150800BDD06DF0F4FDD7480F216DF0F0FDD64811211E
S3150800BDE06DF0ECFD1221D5486DF0E8FDD44BD04836
S3150800BDF0186090F82420CF485A73586090F8242089
S3150800BE00D0489A734FF00D0C83F80CC0986083F8ED
S3150800BE10148083ED049AC84ACB4BDFF86CE31A60AA
S3150800BE2092F824205A73C54A98604FF00F0CC748F9
S3150800BE308EF806C05A604FF0100C92F824209A73B8
S3150800BE4083F8148081710246C14983F80CC083EDDA
S3150800BE50049A40F60D63AEF80430016080ED029A4C
S3150800BE6080ED039A41F21013BA489380B94ACEF886
S3150800BE70001041F213434FF0150CB0EE690A016049
S3150800BE80B5488EED029A14218EED039A938082F8B6
S3150800BE9006C082ED029A82ED039A6DF08FFDAF48D7
S3150800BEA015216DF08BFDAE4BAB49196091F8242036
S3150800BEB0AA495A7391F824209A73AA4ADFF8CCC281
S3150800BEC0C2F800C09F489FEDA80A98604FF0130C6F
S3150800BED083F80CC083F814805960A44883ED049A4B
S3150800BEE01D21162393806DF069FDA1481E216DF072
S3150800BEF065FD64F0ADFADFF898C29E4B9E499F4AED
S3150800BF004FF003008CF80C004FF0200018739C4883
S3150800BF1018604FF0500ECCF8000008601060994881
S3150800BF208CF804E0CCF808004FF0510C81F804C0F6
S3150800BF304FF0230C81F80CC088604FF0010852219D
S3150800BF400024986090601171A7F6F87082F80C804A
S3150800BF5053221A716BF0FCF890222146AAF5F1508B
S3150800BF6073F005FE2022214607F19400C7E91F4415
S3150800BF70C7E92144C7E9234473F0F9FD2022214685
S3150800BF8007F1B40073F0F3FD4022214607F1D4000F
S3150800BF9073F0EDFD4022214607F5BE70C7E94A4415
S3150800BFA0C7E94E44C7E95244C7E95644C7E95A4463
S3150800BFB0C7F81841C7F8204187F8784187F87B41C8
S3150800BFC0C7F81441C7F81C41C7F82441C7F83441DB
S3150800BFD0C7F84441C7F85441C7F86441A7F8764101
S3150800BFE0A7F87941C7F83041C7F84041C7F850412A
S3150800BFF0C7F86041C7F87041A7F8744173F0B7FDF8
S3150800C0004022214607F5DE7073F0B1FD4022214635
S3150800C01007F5FE7073F0ABFD4022214607F50F7059
S3150800C02073F0A5FD2022214607F51F7073F09FFDCA
S3150800C0302022214607F5277073F099FD2022214614
S3150800C04007F52F7073F093FD2022214607F5377008
S3150800C05073F08DFD2022214607F53F7073F087FDAA
S3150800C0602022214607F5477073F081FD20222146DC
S3150800C07007F54F7073F07BFD2022214607F55770B0
S3150800C08073F075FD4022214607F56770C7E9E0445D
S3150800C090C7E9E444C7F87C43C7F88C43C7F8884324
S3150800C0A0C7F8984373F063FD2022214607F5777099
S3150800C0B073F05DFD2022214607F57F7073F057FD6A
S3150800C0C04022214607F22C40C7F82044C7F82844E6
S3150800C0D0C7F81C44C7F8244473F049FD402221469A
S3150800C0E007F28440C7F87044C7F86C44C7F874442C
S3150800C0F0C7F87844C7F87C44C7F8804473F037FD1E
S3150800C1004022214607F2D440C7F8C444C7F8C844B9
S3150800C110C7F8CC44C7F8D04473F029FD202221463D
S3150800C12038E000BF182C0A08333323400000484380
S3150800C130E09100209891002050910020089100205D
S3150800C14074AC0020E82C0A084CAC00203CAC00205B
S3150800C150CC2C0A0814AC0020C0900020789000204F
S3150800C16024AC00202894012000007A4448210020AD
S3150800C1700021002038B0012058B0012048B0012025
S3150800C180042D0A08000080BF64AC0020EC210A08D0
S3150800C19068B0012007F23C50C7F81845C7F8204593
S3150800C1A0C7F82845C7F83045C7F83845C7F81445CD
S3150800C1B0C7F81C45C7F82445C7F82C45C7F83445C1
S3150800C1C073F0D5FC2022214607F25C5073F0CFFCB1
S3150800C1D02022214607F28450C7F88045C7F87C45D7
S3150800C1E073F0C5FC2022214607F2AC50C7F8A445D7
S3150800C1F0C7F8A84573F0BBFC40222146AAF597600C
S3150800C20073F0B5FC40222146AAF58F6073F0AFFCA7
S3150800C21040222146AAF5876073F0A9FC40222146F0
S3150800C220AAF57E7073F0A3FC20222146AAF56E704B
S3150800C23073F09DFC20222146AAF5667073F097FCE0
S3150800C24020222146AAF55E7007F5405573F08FFC4B
S3150800C25007F58057AAF5567380222146AAF5547029
S3150800C260C7F8B44A5C6073F082FCAAF534732022DE
S3150800C2702146AAF53070C7F83C4BC3E90144DC6097
S3150800C28073F075FC4FF400722146AAF5287073F016
S3150800C2906EFC20222146AAF1A00073F068FC07F67E
S3150800C2A08C508022214673F062FC8022214650463B
S3150800C2B073F05DFC202221460AF1800073F057FCDA
S3150800C2C04FF4007221460AF1A800C7F8AC4EC7F829
S3150800C2D0B04E73F04CFC202221460AF52A7073F002
S3150800C2E046FC202221460AF5327073F040FC3C22B7
S3150800C2F021460AF53A7073F03AFC4FF4007221466B
S3150800C3000AF5497073F033FC202221460AF22450BC
S3150800C31073F02DFC202221460AF2445073F027FCC4
S3150800C320402221460AF2645073F021FCA5F580519B
S3150800C3300F46C1F8B043402221460AF2C450CAF853
S3150800C340A845CAF8AC45CAF8B045CAF8B445CAF80B
S3150800C350B845CAF8BC45CAF8C04573F008FC4FF49E
S3150800C360007221460AF22460C7F81044C7F8204430
S3150800C370CAF80846CAF80C46CAF81046CAF8184653
S3150800C380CAF81C46CAF8204673F0F1FB202221465B
S3150800C3900AF6240073F0EBFB202221460AF6440035
S3150800C3A073F0E5FB4FF4007221460AF6640073F059
S3150800C3B0DEFB202221460AF6642073F0D8FB2022F1
S3150800C3C021460AF6842073F0D2FB4FF40072214608
S3150800C3D00AF6A42073F0CBFB4FF4007221460AF646
S3150800C3E0A44073F0C4FB97F8BC3CC7F8B04C23F0E4
S3150800C3F00F0387F8BC3CD7F8BC3CA7F8BA4C03F047
S3150800C4000F034FF4807221460AF6B560C7F8BC3CA4
S3150800C41073F0ADFB202221460AF6B67087F8C14DA7
S3150800C42073F0A5FB202221460AF6D67073F09FFB0F
S3150800C4304FF4807221460AF6F870A7F8024E73F098
S3150800C44096FB2022214607F6047073F090FB202203
S3150800C450214607F6247073F08AFB4FF48072214652
S3150800C46007F6447073F083FB2022214605F1440049
S3150800C47073F07DFB2022214605F1640073F077FBFB
S3150800C4804FF48072214605F1840073F070FB4FF477
S3150800C4908072214605F5D270C5E96244C5E966444D
S3150800C4A0C5F88441C5F89441C5F89041C5F8A0413E
S3150800C4B073F05DFB4022214605F53170C5E9AA44B3
S3150800C4C0C5E9AE44C5F8A442C5F8B442C5F8B042B9
S3150800C4D0C5F8C04273F04BFB5022214605F549705A
S3150800C4E0C5E9C244C5E9C644C5F80443C5F81443BA
S3150800C4F0C5F81043C5F8204373F039FBC02221461E
S3150800C50005F56A70C5E9DE44C5E9E244C5E9E444CF
S3150800C510C5F89C43C5F8A443C5F87443C5F88443D5
S3150800C520C5F89843C5F8A043C5F8804373F01FFBC8
S3150800C530C022214605F58F6005F5B066C5F86C443E
S3150800C540C5F87444C5F86844C5F8704473F00FFB21
S3150800C5502422214605F5BB60C6E90044C5F84C45CA
S3150800C560C5F85445C5F85C45C5F86445C5F86C4535
S3150800C570C5F87445C5F87C45C5F88C45C5F8944595
S3150800C580C5F89C45C5F8A445C5F8AC45C5F8B445F5
S3150800C590C5F83C45C5F84045C5F84445C5F838458D
S3150800C5A0C5F84845C5F85045C5F85845C5F8604525
S3150800C5B0C5F86845C5F87045C5F87845C5F888458D
S3150800C5C0C5F89045C5F89845C5F8A045C5F8A845E5
S3150800C5D0C5F8B045C5F8B845C5F8BC45C5F8C4455D
S3150800C5E0C5F8CC45C5F8D445C5F8C045C5F8C8450D
S3150800C5F0C5F8D04573F0BBFA2422214605F5C1607B
S3150800C600A5F80046A5F80646C5F8FC45C5F802464D
S3150800C61073F0ADFA2022214605F5C760A5F8304625
S3150800C620A5F83646C5F82C46C5F8324673F09FFA83
S3150800C6302022214605F5CD60C5F85C46C5F8644656
S3150800C640C5F85846C5F8604673F091FA2022214687
S3150800C65005F5D360C5F88C46C5F89446C5F88846EE
S3150800C660C5F8904673F083FA4FF4BC72214605F577
S3150800C670D960C5F8BC46C5F8C446C5F8B846C5F875
S3150800C680C04673F074FA4FF43C72214605F504600F
S3150800C69073F06DFA4FF4BC72214605F53660C5F89D
S3150800C6A0304BC5F8484BC5F8344BC5F8384BC5F878
S3150800C6B03C4BC5F8404BC5F8444BC5F84C4BC5F840
S3150800C6C0504BC5F8544BC5F8584BC5F85C4B73F03E
S3150800C6D04EFA4FF4BC72214605F6D84073F047FA75
S3150800C6E02422214605F67870C5F8504EC5F8684EDE
S3150800C6F0C5F8544EC5F8584EC5F85C4EC5F8604E98
S3150800C700C5F8644EC5F86C4EC5F8704EC5F8744E3B
S3150800C710C5F8784EC5F87C4EC6F80049C6F80449EF
S3150800C720C6F80849C6F80C49C6F81049C6F81449A7
S3150800C730C5F89C4EC5F8A04EC5F8A44EC5F8A84E37
S3150800C740C5F8AC4EC5F8B44EC5F8B84EC5F8BC4EDB
S3150800C750C5F8C04EC5F8C44EC5F8CC4EC5F8984EB7
S3150800C760C5F8B04EC5F8C84EC5F8D04EC5F8D44E73
S3150800C770C5F8D84EC5F8DC4EC5F8E44EC5F8E84EFF
S3150800C780C5F8EC4EC5F8F04EC5F8F44EC5F8FC4EA3
S3150800C790C5F8004FC5F8044FC5F8084FC5F80C4F43
S3150800C7A0C5F8144FC5F8184FC5F81C4FC5F8204FE3
S3150800C7B0C5F8244FC5F82C4FC5F8304FC5F8344F87
S3150800C7C0C5F8384FC5F83C4FC5F8444FC5F8484F2B
S3150800C7D0C5F84C4FC5F8504FC5F8E04EC5F8F84EA9
S3150800C7E0C5F8104FC5F8284FC5F8404FC5F8544F3F
S3150800C7F0C5F86C4FC5F8744FC5F8584FC5F8684F5B
S3150800C800C5F8704FC5F85C4FC5F8604FC5F8644F5A
S3150800C81073F0ADF94022214605F6DC7006F5286965
S3150800C820C5F8B84FC5F8C04FC5F8C84FC5F8D04FBA
S3150800C830C5F8D84FC5F89C4FC5F8A84FC5F8B44FEA
S3150800C840C5F8BC4FC5F8C44FC5F8CC4FC5F8D44F8A
S3150800C850C5F8A04FC5F8A44FC5F8AC4FC5F8B04FFA
S3150800C86073F085F94022214606F69C2073F07FF97D
S3150800C870C822214606F62630C9F86E40C9F87E4019
S3150800C880C9F89640C6F8E04AC6F8E84AC6F8F24A31
S3150800C890C6F8F64AC6F8FA4AC6F8024BC6F8064B70
S3150800C8A0C6F80A4BC9F88E40C6F81A4BC6F8124B9A
S3150800C8B0C6F81E4BC6F8224BC9F85C40C9F8644056
S3150800C8C073F055F96422214606F61640C9F86E41FA
S3150800C8D0C9F88241C6F8F24BC6F8F64BC6F8FA4BC9
S3150800C8E0C6F8FE4BC6F8064CC6F80A4CC6F80E4CF7
S3150800C8F0C6F8124C73F03BF92022214606F6A240F0
S3150800C900C9F8FA41C9F80E42C6F87E4CC6F8824CF8
S3150800C910C6F8864CC6F88A4CC6F8924CC6F8964CA9
S3150800C920C6F89A4CC6F89E4C73F021F92022214687
S3150800C93006F67450C9F84242C9F86A42C9F88E42E6
S3150800C940C6F8C64CC6F8CA4CC6F8CE4CC9F85A4200
S3150800C950C9F86242C6F8DE4CC6F8E64CC6F8EE4C94
S3150800C960C6F8F24CC6F8F64CC9F87A42C9F88642B7
S3150800C970C6F8FE4CC6F80A4DC6F8124DC6F8164D4E
S3150800C980C6F81A4DC9F89E42C9F8A642C6F8224DFD
S3150800C990C6F82A4DC9F8AE42C9F8B642C6F8324DAD
S3150800C9A0C6F83A4DC9F85242C9F85642C9F8824201
S3150800C9B0C9F8BE42C6F8424DC9F8C642C9F8CE42C1
S3150800C9C0C6F84A4DC6F8524DC9F8D642C9F8DE42ED
S3150800C9D0C6F85A4DC6F8624DC9F8E642A9F8EE42BD
S3150800C9E0C6F86A4D73F0C3F821464FF4BC7206F6D2
S3150800C9F05460C6F8984DC6F8A04DC6F8A84DC6F8B6
S3150800CA00AC4DC6F8B04DC6F8B44DC6F8BC4DC6F820
S3150800CA10C04DC6F8C44DC6F8C84DC6F8D04DC6F8C0
S3150800CA20D44DC6F8D84DC6F8DC4DC6F8E44DC6F860
S3150800CA30E84DC6F8EC4DC6F8F04DC6F8F84DC6F800
S3150800CA40FC4DC6F8004EC6F8044EC6F80C4EC6F89D
S3150800CA50104EC9F81443C9F81C43C9F82443C9F849
S3150800CA603843C9F84C43C9F86043C9F87443C9F850
S3150800CA708843C6F8144EC9F89C43C9F8B043C6F8AB
S3150800CA80484EC6F8504EC6F8184EC6F8204EC6F898
S3150800CA90244EC6F8284EC6F82C4EC6F8344EC6F8AC
S3150800CAA0384EC6F83C4EC6F8404EC9F8C443C9F8D5
S3150800CAB0CC4373F05CF8ABF580531A4683ED06ABAE
S3150800CAC083ED0EAB83ED10AB83F848809C8483F826
S3150800CAD02C405C63984B1360984B936006F6E8739A
S3150800CAE0C9F85445C9F86445C9F86C45C6F8DC4F19
S3150800CAF0C6F8E04F83ED009A06F57F6383ED009A4A
S3150800CB0006F6F47383ED009A06F6F87383ED009A39
S3150800CB1009F284531546C6F8D04FC6F8D84F83EDA8
S3150800CB20009A06F580564FF08073C2F82D30C9F882
S3150800CB304C45C9F87C45C9F88845C9F89845C9F8E7
S3150800CB409C45C9F88C45C9F89045C9F8944586EDC1
S3150800CB50009A6AF097F97A4BC5F8C833794BC5F845
S3150800CB602434794BC5F8003440F20113A5F8BC33D8
S3150800CB7005F2044383ED009A05F5816383ED009A77
S3150800CB8005F20C4383ED009A05F5826383ED009A5E
S3150800CB9005F2144383ED009A05F5836383ED009A45
S3150800CBA005F21C4383ED009A05F58463C5E9F8444C
S3150800CBB0C5F8C44385F8BE43C5F8C04385EDF39A66
S3150800CBC085EDF49A85EDF59A85EDF69A85EDF79A51
S3150800CBD0C5F8E84385EDFB9A85EDFC9A85EDFD9A47
S3150800CBE0C5F8F843C5F8FC4383ED009A6AF0CEFD14
S3150800CBF0564BCBF870340133CBF8783405F23C73D6
S3150800CC00CBF8803403F6AC52ABF87444ABF87C44EA
S3150800CC10ABF8844403F64C5325461D701D815B60B2
S3150800CC200C339342F9D1BBF83435494CCBF8E85468
S3150800CC3023F4FF4323F07F03ABF83435DBF8F834ED
S3150800CC40CBF8EC5403F06043CBF8F834DBF8343512
S3150800CC50CBF808550BF59E62C3F30E03CBF83435B3
S3150800CC60002313603B4ACBF8302500228BF8FB24BF
S3150800CC700BF20C52A44613600122CBF810250BF2D6
S3150800CC801452002613600BF21C524FF070471360C3
S3150800CC900BF5A962ECE80C6713600BF24C524CE9F1
S3150800CCA0026713600BF5AA62C4E9106713600BF2FA
S3150800CCB06452CBF8185513600BF5AD62CBF82055C6
S3150800CCC013600BF26C52CBF838551360CBF85455F9
S3150800CCD0CBF85855CBF85C55CBF86055DBF8706542
S3150800CCE01D4BCBF878354FF4A06206F07F43002140
S3150800CCF00BF2A45020260027CBF87035C4E9266726
S3150800CD00CBF874558BF87355CBF87C55CBF8805512
S3150800CD10CBF88455CBF88C55CBF89055CBF8A05565
S3150800CD2072F025FF002504F1A40204F2A45104F5CB
S3150800CD30B26013462C4614E0602E0A080C270A082F
S3150800CD40482E0A08D4580010202D0A0882550010CB
S3150800CD5000150010302E0A08782D0A081433994257
S3150800CD600AD09342FAD38342F8D81C601C4614337F
S3150800CD7099424FF00105F4D10DB1CBF8A045E64B29
S3150800CD80A3F5D6510022A1F810238BF8A82A002172
S3150800CD9003F5D87003F8102C23F80F2C43F80C1C55
S3150800CDA043F8081C43F8042C1961C3E9002224330C
S3150800CDB08342EFD1D9498BF8602C002301F8243B34
S3150800CDC001330C2BFAD1D64BD64E9FEDE88A9FED50
S3150800CDD0CE9B03F5E46200245C6183ED1E9B9C6197
S3150800CDE09C609C62DC60DC621C61DC64DC611C6546
S3150800CDF01C621C665C629C639C64DC655C6683F8EA
S3150800CE00684083F86940DE6683ED1C8A83ED208AD4
S3150800CE1083F88C40C3E90C44C3E91044C3E91544BC
S3150800CE20C3E92144C3F89040C3E9004498339A42C1
S3150800CE30D2D1BD4DDFF830A385F8884328220021DA
S3150800CE4005F5647072F093FEB84BC5F8C0339FEDD4
S3150800CE50B07B30339FEDC50AC5F8E03305F582612E
S3150800CE60032305F5707085EDF47B85EDF67B81ED82
S3150800CE70009BC5F8E863A5F8B84385F8BA4385F872
S3150800CE80C84385F8CC43C5F80044C5F80444A5F85A
S3150800CE90084485F8C43385EDFC9B85EDF98A85ED54
S3150800CEA0FE8A85EDFF8AFCF7CBFB05F5846383EDE7
S3150800CEB0009B03ED029B05F23C4383ED008A05F5D2
S3150800CEC0886383ED008A05F58963002783ED008A68
S3150800CED04FF48C6205F24C4383ED008A394605F21D
S3150800CEE05443A81883ED008AC5F83444C5F8284485
S3150800CEF0C5F83044C5F83844C5F84444C5F8504424
S3150800CF00C5F85844C5F85C4472F031FE4FF48C629B
S3150800CF10394605F6A420C5F8C04872F028FE05F67D
S3150800CF20047383ED008A05F6087305F580564FF0FD
S3150800CF3001084FF4007283ED008A394605F60C7332
S3150800CF4005F6147083ED008A85F8108F72F00FFECF
S3150800CF50774BC6F83831C6F85431764BC6F82431C3
S3150800CF60754BC6F82031754BC6F83C31744BC6F87C
S3150800CF7058314FF400037349C6F8143106F50670A4
S3150800CF804FF0FF33C6E95F44C6E97A44C6E97C44F4
S3150800CF90C6E97E44C6E98044C6F8184186F81C41AD
S3150800CFA0C6F8504186F8744186F88441C6F870314F
S3150800CFB0C6F86C8186ED5E8A86ED828A86ED838A5E
S3150800CFC086ED848A86ED858AFEF756F93A465E4BE3
S3150800CFD0C6F81832394605F59850C6E9BC44C6E97C
S3150800CFE0C184C6E9EDA486F8F842C6F80C4344F0B5
S3150800CFF09FFB564906F65820FEF73EF9544B55490D
S3150800D000C6F8583A06F533601C46FEF735F9524914
S3150800D010C6F8304B06F60840FEF72EF94D49C6F815
S3150800D020084C05F5E750FEF727F906F6B859C6F88D
S3150800D030E04C0022C9E92DA7C9F80480A9F80870B0
S3150800D04089F80A70C9F80C704846114644F070FB16
S3150800D050424B09F5EB694B45EBD103F6C8064FF091
S3150800D06000084FF070493E48C5F83074C5F8347466
S3150800D070C6E90577A6F5A66546E90289C6E90289DD
S3150800D0803770002442F032F9364848F035FF4FF041
S3150800D090000A06F18C0030222146C6F838A0C6F8E8
S3150800D0A03CA0C6F840A0C6F844A0C6F84CA0C6F8EE
S3150800D0B060A0C6F864A0C6F868A0C6F874A0C6F84A
S3150800D0C078A0A5F85075C5F86475C5F87875C5F8DB
S3150800D0D08075C5F88475C5F88875C5F88C75C5F862
S3150800D0E09C75C5F8A075C5F8AC75C5F8B075A5F8F2
S3150800D0F0B87572F03CFDC6F8C070C6E93489C6E951
S3150800D100388935E0AFF3008000000000000000F029
S3150800D1100000000000000000C01A0010B11A00103C
S3150800D120681C00100000C07F00200010882D0A0827
S3150800D130102E0A081C270A08202E0A0824270A087F
S3150800D1402C270A0834270A08D02D0A0838270A087F
S3150800D150F82D0A0844270A0850270A08684C0010C0
S3150800D1601832001088310010E82D0A080000000067
S3150800D170C6F8C4A0C6F8C8A006F1E803C5F8EC7559
S3150800D18006F51A76C3E900891C811033B342F9D132
S3150800D1901FED0A8AC5F8984705F5F46383ED008AFA
S3150800D1A005F2A47383ED008A05F5F563302283ED55
S3150800D1B0008A002105F2DC7305F5FC60C5F808460F
S3150800D1C0A5F80C4683ED008A72F0D1FC05F50163DB
S3150800D1D083ED008A05F5026383ED008A05F62403CC
S3150800D1E083ED008A05F6280383ED008A05F62C03ED
S3150800D1F083ED008A05F5036383ED008A05F634039B
S3150800D2009FEDAF9B83ED008A0123B34F85F8503815
S3150800D210DFF888A3B14BDFF88893B14E85F8484804
S3150800D22087ED009B07ED029B019303F5F07842F02A
S3150800D23095FBCAF80060DFF86CE3DFF86CA3C9F861
S3150800D24000A0DFF86893CEF8009005F6580E8EED2C
S3150800D250008A05F5076E8EED008A05F6740E8EEDCA
S3150800D260008A05F6780E9F4A8EED008A47E90A017C
S3150800D27005F67C0E87ED0A9B9B4FC5F86045C5F8F9
S3150800D2805C48C5F86048C5F85845F7EE007A9749EE
S3150800D2908EED008A05F2B45E05F25C55C5ED007A9E
S3150800D2A0396011609FED927A92498EED007A0BF5FE
S3150800D2B0AD6585ED008A0BF26C55C1ED007AC5EDBA
S3150800D2C0007A9FED817B87ED047B9FED817B8A4BFE
S3150800D2D03C722425A1F2C4603D712325157187EDA2
S3150800D2E0069BA3F8384B3C731472147381ED028ABB
S3150800D2F080ED008A82ED047B82ED069B7F4A804B97
S3150800D300804EDFF8ACA2DFF8ACC216604FF0760E9E
S3150800D310C2F838E37C4FC2F844A382F83C437B4A00
S3150800D3209A607B497B4A7C48DFF88C921C61FF2512
S3150800D330C3F81340CCE900CC5D75CCF80840DC6036
S3150800D3405C601A60C7E90144C7F800906AF0F4F90E
S3150800D350724973486AF0F0F9019E304678366AF0E9
S3150800D36001FAB045F9D1DFF854C26E4B6E4FDFF8BB
S3150800D37050826E4ECCF81C8000254FF07E59CCE9C1
S3150800D3800035CCE90255CCF81090CCF81490CCF8BE
S3150800D3901890DFF830C2C7F81CC0654CC7F8109063
S3150800D3A0C7E90035C7E90255C7F81490C7F81890B9
S3150800D3B0604F614AF761C6E90035C6E90255C6F805
S3150800D3C01090C6F81490C6F818905C4EDFF8F8E18D
S3150800D3D0E661C4E90035C4E90255594BC4F8109012
S3150800D3E0C4F81490C4F81890564CC2F800E0564990
S3150800D3F0D461C2E901555548D560C2F81090C2F803
S3150800D4001490C2F81890524AC3F800E0DA61C3E9EA
S3150800D4100155DD60C3F81090C3F81490C3F818904E
S3150800D4206AF08AF94B494C484C4CDFF8A081DFF882
S3150800D430A0A14B4F4B4E6AF07FF94B494B486AF017
S3150800D4407BF94B494B486AF077F94B4B4B4A4C49A9
S3150800D45011601C6010314B4C9161C2F85C434FF46B
S3150800D4607F41494C9982198499855C6047494848A7
S3150800D4701D72DD601D745D829D759D611D77DD835E
S3150800D48083F822505D6283F828505D8583F82E5014
S3150800D4904FF0000B8523C2E90155D560958282F8C5
S3150800D4A05453C2F810B0C2F850336AF045F93949F6
S3150800D4B039486AF041F908F5B0648BE0AFF30080AB
S3150800D4C0000000000000000000093D000000000008
S3150800D4D080841E000000000040580010C888002004
S3150800D4E09C2E0A08584800203848002038220A0886
S3150800D4F0000034443C0B001000000010308D002062
