S01400006275696C642F7275736566692E7372656343
S3150800800010100020B983000895CE0208F9830008ED
S315080080101D840008F88300080B840008FD8DF6E728
S31508008020ECD60900B3830008B38300083129010898
S31508008030B3830008B3830008B3830008F538010842
S31508008040B3830008B3830008D937010851380108FB
S31508008050B3830008B3830008E9840408F18404089C
S31508008060F98404080185040809850408252D0108F2
S315080080705D2D0108992D0108D52D0108112E01083D
S31508008080492E0108852E0108AD290108052C01088D
S31508008090292C01084D2C0108712C010811850408AA
S315080080A0B3830008113B0108B3830008353B010878
S315080080B0E1390108393B01085D3B01084D84040894
S315080080C0B3830008D53001080D320108B3830008D0
S315080080D0B3830008B38300086D3D0108913D01088C
S315080080E03585040899380108B3830008B383000866
S315080080F0A53B0108B3830008C93B0108C12E010846
S31508008100B3830008B3830008813B0108B3830008E2
S31508008110B3830008B383000881390108B3830008D4
S31508008120FD2E0108352F0108712F0108AD2F010812
S31508008130E92F0108B3830008B3830008952C0108CA
S31508008140B92C0108DD2C0108012D01082933010885
S31508008150213001085D30010899300108CD3B01083E
S31508008160B3830008B3830008B3830008B383000809
S31508008170B3830008B3830008B3830008B3830008F9
S31508008180B3830008B3830008B3830008B3830008E9
S31508008190B3830008B3830008B3830008B3830008D9
S315080081A0B3830008B3830008B3830008B3830008C9
S315080081B0B3830008B3830008B3830008B3830008B9
S315080081C0B3830008B3830008B3830008B3830008A9
S315080081D0B3830008B3830008B3830008B383000899
S315080081E0E9B6000895B30708000000000000000083
S315080081F001F0FF01102A2BDB10F0070F08D010F84A
S31508008200013B013A8B422DD010F0070F42B3F6D14D
S31508008210F0B441EA012141EA014122F007047FF066
S3150800822000070023F0E80256083C85EA010586EABD
S31508008230010685FA47F5A3FA87F586FA47F6A5FAF9
S3150800824087F68EB9EED1F0BC01F0FF0102F0070205
S3150800825032B110F8013B013A83EA010313B1F8D1B0
S315080082600020704701387047002D06BF3546033891
S31508008270073815F0010F07D1013015F4807F02BFCA
S31508008280013015F4C03F0130F0BC0138704700BF1B
S3150800829072B6394880F30888384880F30988384820
S315080082A04EF60851CEF20001086040F20000CCF20A
S315080082B000004EF63471CEF200010860BFF34F8F0E
S315080082C0BFF36F8F40F20000C0F2F0004EF68851FF
S315080082D0CEF200010860BFF34F8FBFF36F8F4FF0E8
S315080082E00000E1EE100A4EF63C71CEF2000108607D
S315080082F0062080F31488BFF36F8F06F05FFC22F028
S3150800830069FE4FF055301F491B4A91423CBF41F860
S31508008310040BFAE71C49194A91423CBF41F8040B81
S31508008320FAE71A491A4A1B4B9A423EBF51F8040B00
S3150800833042F8040BF8E700201749184A91423CBF57
S3150800834041F8040BFAE706F03DFC47F0CFF9144C68
S31508008350144DAC4203DA54F8041B8847F9E76DF06C
S315080083603FFB114C114DAC4203DA54F8041B884705
S31508008370F9E706F025BC00001010002010160020B2
S31508008380008000081000002010100020A4520A08DF
S3150800839010160020581A0020581A00201819022012
S315080083A0E0810008E4810008E4810008E88100080B
S315080083B06EE700F000F8FEE70A480B49026800601D
S315080083C08A4201D0FFF764FF08484FF480410160F4
S315080083D007484FF0010101600648D0F800D0406810
S315080083E000470000F0FF0120EFBEADDE4438024032
S315080083F0003801400000FF1F1EF0040F0CBFEFF30A
S315080084000880EFF3098024F049BD1EF0040F0CBF65
S31508008410EFF30880EFF3098024F088BD1EF0040FFF
S315080084200CBFEFF30880EFF3098024F0CBBD00BF43
S31508008430EC46A0E8F05F80EC108B4FF00000704728
S31508008440B0E8F05FE54690EC108B080008BF012005
S31508008450704700BF00F1340191E838009C46A646F3
S315080084604CF8045D90E8FF0FE54600BD90EC210B43
S31508008470704700BF80EC210B704700BF90EC200BC3
S31508008480704700BF80EC200B704700BFD0EC200B74
S31508008490704700BFC0EC200B704700BFF0EC02012C
S315080084A0F0EC0211F0EC0221F0EC0231F0EC0241A2
S315080084B0F0EC0251F0EC0261F0EC0271F0EC028192
S315080084C0F0EC0291F0EC02A1F0EC02B1F0EC02C182
S315080084D0F0EC02D1F0EC02E1F0EC02F1704700BFDB
S315080084E0E0EC0201E0EC0211E0EC0221E0EC0231E2
S315080084F0E0EC0241E0EC0251E0EC0261E0EC0271D2
S31508008500E0EC0281E0EC0291E0EC02A1E0EC02B1C1
S31508008510E0EC02C1E0EC02D1E0EC02E1E0EC02F1B1
S31508008520704700BFB0FC0181B0FC0191B0FC01A10D
S31508008530B0FC01B1704700BFA0FC0181A0FC01910D
S31508008540A0FC01A1A0FC01B1704700BFEC4600B534
S315080085502DE900502DE9FF1F4FF000032DE90C000F
S3150800856001A977F0F7FADDF840E012B0704700BFCE
S31508008570EC4600B52DE900502DE9FF1F4FF000032A
S315080085802DE90C0001A977F021FBDDF840E012B0D7
S31508008590704700BFEC4600B52DE900502DE9FF1FD6
S315080085A04FF000032DE90C0001A977F02FFBDDF849
S315080085B040E012B0704700BFEC4600B52DE9005008
S315080085C02DE9FF1F4FF000032DE90C0001AB77F0F2
S315080085D0F5FADDF840E012B0704700BFEC4600B58A
S315080085E02DE900502DE9FF1F4FF000032DE90C007F
S315080085F001AA77F05FFBDDF840E012B0704700BFD4
S3150800860081F0004102E000BF83F0004330B54FEA35
S3150800861041044FEA430594EA050F08BF90EA020FA2
S315080086201FBF54EA000C55EA020C7FEA645C7FEA35
S31508008630655C00F0E2804FEA5454D4EB5555B8BF58
S315080086406D420CDD2C4480EA020281EA030382EAC9
S31508008650000083EA010180EA020281EA0303362D5B
S3150800866088BF30BD11F0004F4FEA01314FF4801C2E
S315080086704CEA113102D0404261EB410113F0004F40
S315080086804FEA03334CEA133302D0524263EB4303F7
S3150800869094EA050F00F0A780A4F10104D5F1200E95
S315080086A00DDB02FA0EFC22FA05F2801841F10001F0
S315080086B003FA0EF2801843FA05F359410EE0A5F1C4
S315080086C020050EF1200E012A03FA0EFC28BF4CF0F5
S315080086D0020C43FA05F3C01851EBE37101F00045AB
S315080086E007D54FF0000EDCF1000C7EEB00006EEBB8
S315080086F00101B1F5801F1BD3B1F5001F0CD3490842
S315080087005FEA30004FEA3C0C04F101044FEA445298
S3150800871012F5800F80F09A80BCF1004F08BF5FEA1F
S31508008720500C50F1000041EB045141EA050130BDFF
S315080087305FEA4C0C404141EB0101013C28BFB1F511
S31508008740801FE9D291F0000F04BF01460020B1FA5C
S3150800875081F308BF2033A3F10B03B3F120020CDA2F
S315080087600C3208DD02F1140CC2F10C0201FA0CF00D
S3150800877021FA02F10CE002F11402D8BFC2F1200C72
S3150800878001FA02F120FA0CFCDCBF41EA0C01904028
S31508008790E41AA2BF01EB0451294330BD6FEA040471
S315080087A01F3C1CDA0C340EDC04F11404C4F120025C
S315080087B020FA04F001FA02F340EA030021FA04F36E
S315080087C045EA030130BDC4F10C04C4F1200220FAC5
S315080087D002F001FA04F340EA0300294630BD21FA03
S315080087E004F0294630BD94F0000F83F4801306BFC9
S315080087F081F480110134013D4EE77FEA645C18BFBD
S315080088007FEA655C29D094EA050F08BF90EA020F53
S3150800881005D054EA000C04BF1946104630BD91EA4B
S31508008820030F1EBF0021002030BD5FEA545C05D14E
S315080088304000494128BF41F0004130BD14F580048D
S315080088403CBF01F5801130BD01F0004545F0FE4101
S3150800885041F470014FF0000030BD7FEA645C1ABF36
S31508008860194610467FEA655C1CBF0B46024650EA6D
S31508008870013406BF52EA033591EA030F41F4002199
S3150800888030BD00BF90F0000F04BF0021704730B51F
S315080088904FF4806404F132044FF000054FF00001F4
S315080088A050E700BF90F0000F04BF0021704730B5B5
S315080088B04FF4806404F1320410F0004548BF40428A
S315080088C04FF000013EE700BF42004FEAE2014FEADF
S315080088D031014FEA02701FBF12F07F4393F07F4FBA
S315080088E081F06051704732F07F4208BF704793F0BD
S315080088F07F4F04BF41F40021704730B54FF46074D0
S3150800890001F0004521F000411CE700BF50EA0102D2
S3150800891008BF704730B54FF000050AE050EA01027B
S3150800892008BF704730B511F0004502D5404261EBEB
S3150800893041014FF4806404F132045FEA915C3FF42C
S31508008940D8AE4FF003025FEADC0C18BF03325FEAC9
S31508008950DC0C18BF033202EBDC02C2F1200300FA7A
S3150800896003FC20FA02F001FA03FE40EA0E0021FA9F
S3150800897002F11444BDE600BF70B54FF0FF0C4CF48D
S31508008980E06C1CEA11541DBF1CEA135594EA0C0F3F
S3150800899095EA0C0F00F0DEF82C4481EA030621EA7A
S315080089A04C5123EA4C5350EA013518BF52EA0335B5
S315080089B041F4801143F4801338D0A0FB02CE4FF067
S315080089C00005E1FB02E506F00042E0FB03E54FF097
S315080089D00006E1FB03569CF0000F18BF4EF0010E8F
S315080089E0A4F1FF04B6F5007F64F5407404D25FEA8B
S315080089F04E0E6D4146EB060642EAC62141EA55513E
S31508008A004FEAC52040EA5E504FEACE2EB4F1FD0C7F
S31508008A1088BFBCF5E06F1ED8BEF1004F08BF5FEAFD
S31508008A20500E50F1000041EB045170BD06F00046AF
S31508008A3046EA010140EA020081EA0301B4EB5C045C
S31508008A40C2BFD4EB0C0541EA045170BD41F4801154
S31508008A504FF0000E013C00F3AB8014F1360FDEBF79
S31508008A60002001F0004170BDC4F10004203C35DA55
S31508008A700C341BDC04F11404C4F1200500FA05F3D8
S31508008A8020FA04F001FA05F240EA020001F0004279
S31508008A9021F0004110EBD37021FA04F642EB0601EF
S31508008AA05EEA430E08BF20EAD37070BDC4F10C0419
S31508008AB0C4F1200500FA04F320FA05F001FA04F2DD
S31508008AC040EA020001F0004110EBD37041F10001C9
S31508008AD05EEA430E08BF20EAD37070BDC4F12005D4
S31508008AE000FA05F24EEA020E20FA04F301FA05F23C
S31508008AF043EA020321FA04F001F0004121FA04F2E4
S31508008B0020EA020000EBD3705EEA430E08BF20EAB3
S31508008B10D37070BD94F0000F0FD101F000464000ED
S31508008B2041EB010111F4801F08BF013CF7D041EA6F
S31508008B30060195F0000F18BF704703F00046520073
S31508008B4043EB030313F4801F08BF013DF7D043EA44
S31508008B500603704794EA0C0F0CEA135518BF95EAFA
S31508008B600C0F0CD050EA410618BF52EA4306D1D181
S31508008B7081EA030101F000414FF0000070BD50EAA0
S31508008B80410606BF1046194652EA430619D094EA2A
S31508008B900C0F02D150EA013613D195EA0C0F05D114
S31508008BA052EA03361CBF104619460AD181EA030168
S31508008BB001F0004141F0FE4141F470014FF0000020
S31508008BC070BD41F0FE4141F4780170BD70B54FF0BB
S31508008BD0FF0C4CF4E06C1CEA11541DBF1CEA13553B
S31508008BE094EA0C0F95EA0C0F00F0A7F8A4EB05041D
S31508008BF081EA030E52EA03354FEA013100F0888014
S31508008C004FEA03334FF0805545EA131343EA1263DC
S31508008C104FEA022245EA111545EA10654FEA002691
S31508008C200EF000419D4208BF964244F1FD0404F54A
S31508008C30407402D25B084FEA3202B61A65EB0305A6
S31508008C405B084FEA32024FF480104FF4002CB6EB63
S31508008C50020E75EB030E22BFB61A754640EA0C00E3
S31508008C605B084FEA3202B6EB020E75EB030E22BF23
S31508008C70B61A754640EA5C005B084FEA3202B6EB64
S31508008C80020E75EB030E22BFB61A754640EA9C0023
S31508008C905B084FEA3202B6EB020E75EB030E22BFF3
S31508008CA0B61A754640EADC0055EA060E18D04FEAB1
S31508008CB0051545EA16754FEA06164FEAC30343EA51
S31508008CC052734FEAC2025FEA1C1CC0D111F4801F1E
S31508008CD00BD141EA00014FF000004FF0004CB6E717
S31508008CE011F4801F04BF01430020B4F1FD0C88BFB6
S31508008CF0BCF5E06F3FF6AFAEB5EB030C04BFB6EBC1
S31508008D00020C5FEA500C50F1000041EB045170BDB3
S31508008D100EF0004E4EEA113114EB5C04C2BFD4EBE0
S31508008D200C0541EA045170BD41F480114FF0000E64
S31508008D30013C90E645EA060E8DE60CEA135594EAE0
S31508008D400C0F08BF95EA0C0F3FF43BAF94EA0C0FE3
S31508008D500AD150EA01347FF434AF95EA0C0F7FF458
S31508008D6025AF104619462CE795EA0C0F06D152EAAC
S31508008D7003353FF4FDAE1046194622E750EA410690
S31508008D8018BF52EA43067FF4C5AE50EA41047FF4A1
S31508008D900DAF52EA43057FF4EBAE12E74FF0FF3C06
S31508008DA006E000BF4FF0010C02E000BF4FF0010CD7
S31508008DB04DF804CD4FEA410C7FEA6C5C4FEA430C50
S31508008DC018BF7FEA6C5C1BD001B050EA410C0CBF9F
S31508008DD052EA430C91EA030F02BF90EA020F002001
S31508008DE0704710F1000F91EA030F58BF994208BF68
S31508008DF090422CBFD8176FEAE37040F00100704725
S31508008E004FEA410C7FEA6C5C02D150EA013C07D17B
S31508008E104FEA430C7FEA6C5CD6D152EA033CD3D0C6
S31508008E205DF8040B704700BF8446104662468C46C0
S31508008E301946634600E000BF01B5FFF7B7FF0028F3
S31508008E4048BF10F1000F01BD4DF808EDFFF7F4FF1C
S31508008E500CBF012000205DF808FB00BF4DF808EDA7
S31508008E60FFF7EAFF34BF012000205DF808FB00BFCA
S31508008E704DF808EDFFF7E0FF94BF012000205DF8EC
S31508008E8008FB00BF4DF808EDFFF7CEFF94BF0120A1
S31508008E9000205DF808FB00BF4DF808EDFFF7C4FF9A
S31508008EA034BF012000205DF808FB00BF4FEA410CE3
S31508008EB07FEA6C5C02D150EA013C0AD14FEA430CC6
S31508008EC07FEA6C5C02D152EA033C02D14FF0000003
S31508008ED070474FF0010070474FEA410212F5001241
S31508008EE015D211D56FF47873B3EB625212D94FEAE3
S31508008EF0C12343F0004343EA505311F0004F23FACD
S31508008F0002F018BF404270474FF00000704750EA21
S31508008F10013005D111F0004008BF6FF000407047DE
S31508008F204FF00000704700BF4FEA4102B2F1E0433C
S31508008F3024BFB3F5001CDCF1FE5C0DD901F0004C32
S31508008F404FEAC0024CEA5070B2F1004F40EB830082
S31508008F5008BF20F00100704711F0804F21D113F1AE
S31508008F603872BCBF01F00040704741F480114FEAE7
S31508008F705252C2F11802C2F1200C10FA0CF320FA70
S31508008F8002F018BF40F001004FEAC1234FEAD3238D
S31508008F9003FA0CFC40EA0C0023FA02F34FEA4303F7
S31508008FA0CCE77FEA625307D150EA01331EBF4FF080
S31508008FB0FE4040F44000704701F0004040F0FE409B
S31508008FC040F40000704700BF80F0004002E000BF98
S31508008FD081F0004142001FBF5FEA410392EA030F96
S31508008FE07FEA226C7FEA236C6AD04FEA1262D2EBE0
S31508008FF01363C1BFD218414048404140B8BF5B42E5
S31508009000192B88BF704710F0004F40F4000020F07D
S315080090107F4018BF404211F0004F41F4000121F093
S315080090207F4118BF494292EA030F3FD0A2F10102DD
S3150800903041FA03FC10EB0C00C3F1200301FA03F11B
S3150800904000F0004302D5494260EB4000B0F5000F3E
S3150800905013D3B0F1807F06D340084FEA310102F1FD
S315080090600102FE2A51D2B1F1004F40EBC25008BFAF
S3150800907020F0010040EA03007047490040EB000079
S31508009080013A28BFB0F5000FEDD2B0FA80FCACF17A
S31508009090080CB2EB0C0200FA0CF0AABF00EBC250A7
S315080090A052421843BCBFD0401843704792F0000F95
S315080090B081F4000106BF80F400000132013BB5E7E8
S315080090C04FEA41037FEA226C18BF7FEA236C21D05E
S315080090D092EA030F04D092F0000F08BF08467047C3
S315080090E090EA010F1CBF0020704712F07F4F04D191
S315080090F0400028BF40F00040704712F100723CBFA4
S3150800910000F50000704700F0004343F0FE4040F4CD
S31508009110000070477FEA226216BF08467FEA23638B
S315080091200146420206BF5FEA412390EA010F40F476
S31508009130800070474FF0000304E000BF10F00043C2
S3150800914048BF40425FEA000C08BF704743F09643A9
S3150800915001464FF000001CE050EA010208BF7047C4
S315080091604FF000030AE000BF50EA010208BF70474B
S3150800917011F0004302D5404261EB41015FEA010C60
S3150800918002BF84460146002043F0B64308BFA3F158
S315080091908053A3F50003BCFA8CF2083AA3EBC2533A
S315080091A010DB01FA02FC634400FA02FCC2F1200259
S315080091B0BCF1004F20FA02F243EB020008BF20F090
S315080091C00100704702F1200201FA02FCC2F12002F6
S315080091D050EA4C0021FA02F243EB020008BF20EAEB
S315080091E0DC7070477BB972B90029BEBF00204FF00A
S315080091F0004106E008BF00281CBF6FF000414FF091
S31508009200FF3000F057B8ADF1080C6DE904CE00291F
S3150800921009DB002B1ADB77F027FBDDF804E0DDE934
S31508009220022304B07047404261EB4101002B1BDB6F
S3150800923077F01AFBDDF804E0DDE9022304B04042CA
S3150800924061EB4101524263EB43037047524263EBC1
S31508009250430377F009FBDDF804E0DDE9022304B0F7
S31508009260404261EB41017047524263EB430377F09A
S31508009270FBFADDF804E0DDE9022304B0524263EBB1
S315080092804303704753B94AB9002908BF00281CBFD1
S315080092904FF0FF314FF0FF3000F00CB8ADF1080C7D
S315080092A06DE904CE77F0E0FADDF804E0DDE90223A3
S315080092B004B07047704700BF2DE9F04F2DED108AB6
S315080092C0C1F80CD0C3689D46BDEC108ABDE8F08F86
S315080092D005F0F8FD002383F311882846A0470020EF
S315080092E007F0DEF8FEE705F081FF07F051F805F014
S315080092F0E9FD00DFFEE710F8012B11F8013B012A12
S3150800930028BF9A42F7D0D01A7047034613F8012BA4
S31508009310002AFBD1181A0138704700000000000027
S3150800932070B586B00C4611461A46114B0093054691
S3150800933074B1631ECDE9010300266846CDE90366CC
S315080093400AF038FD039BA34200D2EE5406B070BD66
S315080093509FED057B019068468DED027B04940AF02B
S3150800936029FD06B070BD00BF000000000000000027
S315080093700C150808000000002DE9F04759EC108B81
S315080093803D4B002240464946FFF77CFD002867D042
S3150800939035A5D5E90045384F4FF0000A00260CE000
S315080093A0FFF714FC8046894632463B464046494606
S315080093B00AF1050AFFF766FDE8B1494622462B463B
S315080093C04046FFF75FFD844622462B4640464946FF
S315080093D0BCF1000FE4D132463B46FFF7F7FB804667
S315080093E0894632463B46404649460AF1010AFFF796
S315080093F049FD0028E1D1214B002240464946FFF7A6
S315080094002DFD50B31AA5D5E9004517A7D7E900677A
S315080094100CE0FFF7B1FAAAF1050A80468946174B10
S31508009420002240464946FFF719FDB0B14946224693
S315080094302B464046FFF712FD844632463B464046D9
S315080094404946BCF1000FE4D10B4B0022FFF794FA12
S315080094500AF1FF3A80468946E1E75046BDE8F087BB
S315080094608246C8E7AFF3008000000000006AF840B3
S3150800947000000080B5F8E43E000024400000F03FFC
S315080094802DE9F047B0F1000A2D4D4FF0000426DD16
S3150800949029A7D7E90067DFF8AC904FF00008BAF1C2
S315080094A0040F2046294632463B460CDDFFF764FA90
S315080094B0AAF1050A04460D46BAF1000FEFD145ECAC
S315080094C0104BBDE8F08742464B46FFF755FA0AF1BE
S315080094D0FF3A04460D46BAF1000FE0D1EFE7EED0A9
S315080094E015A7D7E900671AF1040FDFF858904FF06F
S315080094F000082046294632463B460FDAFFF766FB48
S315080095000AF1050A04460D46BAF1000FD7D01AF13A
S31508009510040F2046294632463B46EFDB42464B4679
S31508009520FFF754FB0AF1010A04460D46BAF1000F8B
S31508009530EDD1C4E7AFF3008000000000006AF840F0
S315080095400000F03F0000244070B5C66984B00446A8
S3150800955030460D4612F010FC204612F0FFF8204661
S3150800956012F04AF99FED087B034629463046072440
S315080095706A468DED027B8DF80040019312F088FC57
S3150800958004B070BDAFF30080FFFFFFFFFFFFFFFFD2
S315080095902DE9F04FC768C669D0F804802DED028B17
S315080095A0282F87B004460D4672D040F223139F42F7
S315080095B040F0858012F0F4FE9FED438B4FF0070ACA
S315080095C04FF00809E3683A2B14D008DD5B2B51D01D
S315080095D05A2B40DC07B0BDEC028BBDE8F08F282B78
S315080095E03ED02E2BF6D129462046FFF7ADFFE3687D
S315080095F03A2BEAD1204612F0B1F8204612F0FCF8D0
S315080096002946039030468DED048B8DF808A012F09C
S3150800961091FB2B78D5F804B0082B4BD096F834700C
S315080096206F600221304685F8009011F02DF9BA1CBA
S3150800963002A986F834205B4600913A461421304642
S3150800964012F0B4FB9DF80830082B0DD1039930466B
S3150800965070F05CFE08E07B2B02D0B3F5927FB9D19F
S315080096602946304612F048FB42462946204613F062
S31508009670EFFCA7E72946304612F07EFB02A92046F2
S3150800968012F06EFD02AA2946304612F001FC99E74F
S3150800969012F064F829460022204614F0EDF8204618
S315080096A043463A46292112F07DF8E069294612F028
S315080096B033F981E75946304670F028FEAEE704498B
S315080096C011F07AF8AFF30080FFFFFFFFFFFFFFFFFF
S315080096D0F4220808000000000F4A02F5805303F53B
S315080096E0FD6C00219FED0A7BCCF8001003F2F47C98
S315080096F0002002F5C05202ED027BC3F8E407C3F866
S31508009700F007CCF80010C3F800087047AFF30080E4
S31508009710000000000000000000000010000000002B
S3150800972030B5012285B00C21044610F005FAE0B1E7
S315080097309FED117B0246124B043280ED017B0260DD
S315080097400FCB6D4685E80F000E4B0F491A68204669
S315080097500DF04EFC0022294620461FF0A1FF2046A8
S315080097606FF05AFE012005B030BD20460DF0EEFB25
S31508009770012005B030BD00BF00000000000000F069
S31508009780C410080844A70020D8B9F0FF000000005C
S3150800979010B590F8E03090F8DCC0174C83F0010360
S315080097A063F3000C80F8DCC04FF48C62002120467D
S315080097B077F0D5F94FF4F072002104F2644077F09F
S315080097C0CEF90E4B9FED0A7B03F54F5103F5405337
S315080097D081ED007B03F6D46003F6D86100220024ED
S315080097E0C3F8904802600A6010BD00BFAFF300805E
S315080097F000000000000000F03034001000000010E7
S315080098009FED116BD0ED0F7A80ED030AB5EEC00A15
S315080098100123F1EE10FA80ED066BC0ED097A80EDB2
S315080098200F0A03720BD9DFED0A6A86EE807AF5EE27
S31508009830407AF1EE10FA80ED0A7A03D07047054BAC
S315080098408362704768F00ABE00000000000000004E
S31508009850ABC222480000C07FD0B5554C554E0027F4
S31508009860204632463B463F2170F012FA04F12800A2
S3150800987032463B46402170F00BFA04F1500032465E
S315080098803B46412170F004FA04F1780032463B4623
S31508009890422170F0FDF904F1A00032463B4643210F
S315080098A070F0F6F904F1C80032463B46442170F0E0
S315080098B0EFF904F1F00032463B46452170F0E8F92D
S315080098C004F58C7032463B46462170F0E1F93A4B76
S315080098D03A49196047201871482083F8240049201E
S315080098E083F844004A209FED2E6B9FED2F7B83F86B
S315080098F064004B2083F884004C20002283F8A400DF
S315080099004D244E2083ED046B83ED0C6B83ED146BB5
S3150800991083ED1C6B83ED246B83ED067B83ED0E7B59
S3150800992083ED167B83ED1E7B83ED267B1A721A73F5
S31508009930196283F8282083F82C20196483F84820B4
S3150800994083F84C20196683F8682083F86C20C3F8DE
S31508009950801083F8882083F88C20C3F8A01083F839
S31508009960A82083F8C44083F8E40083ED2C6B83EDCC
S315080099702E7B83ED346B83ED3C6B83ED367B83ED79
S315080099803E7B83F8AC20C3F8C010C3F8E01083F818
S31508009990C82083F8CC2083F8E82083F8EC20D0BDD3
S315080099A0002D31010000000000000000000000004A
S315080099B090230020400D0300F81A0020BC300A0846
S315080099C00D480E4AC3680E499FED097B10B4002462
S315080099D043611C700830046280F82440094B5DF826
S315080099E0044B80ED0A7B46F00BBD00BFAFF3008049
S315080099F00000000000000000483C002074240A080B
S31508009A000CB20808388D09082DE9F04F2DED048BA6
S31508009A10544891B0FEF70CFD20B111B0BDEC048B93
S31508009A20BDE8F08F012550490095034646220446B5
S31508009A304E4847F01BF84E48046145F001F94D4B76
S31508009A404D4A1B6813801B0C93704C4B9D63FFF7A4
S31508009A50B7FF61F077FF4A494A4847F0FFFD4A4990
S31508009A604A4847F0F7FD4A494A4847F0F3FD4A494C
S31508009A704A4847F0EFFD4A494A4847F0EBFD4A4B4A
S31508009A801D78002D40F06481484E494846F0ECFCAC
S31508009A9031222946474877F062F896F8750166F04C
S31508009AA0C1F896F8680566F0BDF896F8DB0266F028
S31508009AB0B9F84149414847F0D1FD414871F0B8FC31
S31508009AC0404871F0B5FC404A4048536843F40003E7
S31508009AD0536071F0ADFC3E4890F83C33002B00F023
S31508009AE042833C4B9A689B6C5380202383F31188EE
S31508009AF005F07CFB384B1A78511E012900F21B83AE
S31508009B0036495960012A1DD1354A3648116C41F04B
S31508009B1010011164116E41F010011166116E116A7F
S31508009B2041F010011162116A21F0100111622E49EB
S31508009B30126A98604FF48002702381F83633C1F8B0
S31508009B4084214A60244E2548B1680268B1FBF2F3C5
S31508009B50013B9BB203FB0222914200F00C8323488F
S31508009B6005F0C2F9581A00208C240A08FC9D00202A
S31508009B7034B00120A0240A08B8930120483C0020EC
S31508009B8089B90608A4240A0881A80608B0240A0880
S31508009B9001130508C4240A0879120508D0240A08FE
S31508009BA015160508E4240A08B9180220506800109A
S31508009BB0FC240A08902B0120A961040814250A0828
S31508009BC0349600201096002000230140EC950020D2
S31508009BD0B862002068350120B49400201C190020C2
S31508009BE00038024000BD010500E100E0D4310A0852
S31508009BF0B3F5AA7FC1F045807BB9AE4BAE49AF4AF3
S31508009C00AF48C3E902214FF4A271102219805A60A5
S31508009C10AC4900221A6147F01DFDA64F264646B9F3
S31508009C203B8833B1B86803681B689847031EC1F2BE
S31508009C30C6820026A44FDFF8BC830096BA8FA349D4
S31508009C403346404646F012FF0096B7F8D422A0499C
S31508009C503346A8F5867046F009FF00963346B7F8EE
S31508009C6022239C49A8F5D47046F000FF9A499B48E0
S31508009C7047F0F0FC9A4B1E7097F86535D90703D460
S31508009C8097F86435DB0948D0DFF83C82B8F83E100F
S31508009C90B8F8400040F03EFAB8F864160746B8F837
S31508009CA0660640F037FA0646002F01F08F80874295
S31508009CB001F0F58298F85036062B96BF894A8A4BEA
S31508009CC052F82330804A186892F85826596852067E
S31508009CD008AB03C302D501F10043099308A9384626
S31508009CE006F0E6FA002E41F07480804BC3E9007650
S31508009CF0754B93F86535DB0706D5DFF8FC8298F8CF
S31508009D00AC33002B01F0D5826F4B93F86435DB0931
S31508009D1041F0B381724B01221A70754B1B7853B907
S31508009D20694BB3F8E8023EF065FA002801F07B813A
S31508009D3070483AF0CFFD644B93F8D863F60941F0C2
S31508009D40B4803EF02FFC3FF09BFA6B4846F08CFB44
S31508009D506A496B4847F086FC6A496B4847F07EFCBF
S31508009D60594B93F82823120700F1D081604B1978D4
S31508009D7079B9554B65481B89692B9CBF644A52F8CB
S31508009D80231046F071FB4CF0D3F86249624847F05D
S31508009D9065FC624DDFF8648205F580674FF0FF3693
S31508009DA0294632464046203508F070FCAF42F7D1C6
S31508009DB05B485C4947F056FC5B4800F5805595F8CA
S31508009DC0AC31002B00F0C58158495948594D47F028
S31508009DD04DFC5949594847F03DFC5949594847F0FF
S31508009DE039FC95F85C36002B00F0A881564B5A686A
S31508009DF0002A00F0BB8159F00DFB00283FF40DAE98
S31508009E005249534847F026FC5249534847F022FC2A
S31508009E105249534847F02EFC5249534847F022FC12
S31508009E205249534847F01EFC5249534847F01AFC1A
S31508009E305249534847F022FC5249534847F00EFC12
S31508009E405249534847F00AFC5249534847F006FC22
S31508009E505249534847F002FC5249534847F002FC1E
S31508009E6030F008FC514858F087FF514B5149524889
S31508009E7001221A6047F0EEFB5049514847F0EAFBC9
S31508009E80504A514805216EF0C7FA5049504847F0E4
S31508009E90E1FB5049504847F0E1FB5049504847F02C
S31508009EA0DDFB5049504847F0E1FB5049504847F020
S31508009EB0DDFBA5E0CC3601205C250A0828480020F1
S31508009EC064250A0805A10608506800108C250A08AA
S31508009ED094250A08A0250A08CDA90608AC250A086B
S31508009EE0D81802209C310A08B8310A08B093012014
S31508009EF0B91802209033001040260A080D340608C7
S31508009F00F4240A08715106081CA5090858260A08E7
S31508009F1048630908E9100508EC220A08586C00206D
S31508009F206C260A082D2F020858700020F14C0208EA
S31508009F30F432080810820020452F02087C260A08F9
S31508009F40C53E020888260A08883C00202D2A0608ED
S31508009F5094260A08E1290608A0260A08FD2B060801
S31508009F60AC260A081D2B0608B8260A08D52A0608AC
S31508009F70C0260A08F92A0608CC260A08412B06082C
S31508009F80D8260A08F91B0608E0260A08D51B06087B
S31508009F90EC260A08591B0608F4260A087D1B06083B
S31508009FA000270A08A11B06080C270A08802A0010A1
S31508009FB0D093012071BD050814270A0829D8050879
S31508009FC034270A0891BD050840270A08F1C3050881
S31508009FD058270A0809DA050864270A0811DA05085D
S31508009FE070270A08E1C305087C270A08E9C305089B
S31508009FF03C8C09082C9F002058CE0010F4A50020A0
S3150800A0007749784847F036FB7749784847F02EFB7A
S3150800A0107749784847F02EFB7749784847F02AFB76
S3150800A0207749784847F026FB7749784847F016FB82
S3150800A0307749784847F01AFB7749784847F016FB7E
S3150800A0407749784847F012FB7749784847F00EFB7E
S3150800A0507749784847F00AFB7749784847F0FAFA8B
S3150800A0607749784847F002FB7749784847F0F2FA8B
S3150800A0707749784847F0FEFA7749784847F0FAFA78
S3150800A080774B1B78002B00F00582764C7649012524
S3150800A090002348222046009546F0E8FC0023472284
S3150800A0A07249009504F10C0046F0E0FC704B6C4ACE
S3150800A0B093F871351278DB0700F1EB85684B1B784E
S3150800A0C00BBB6C48036144F0BBFD694BB3F80C4508
S3150800A0D020463EF08FF838B19FED670A674B68490E
S3150800A0E06848224665F0DAFD614BB3F81C45204600
S3150800A0F03EF080F838B19FED600A634B60496348CB
S3150800A100224665F0CBFD34F04FFF86E493F84327EB
S3150800A110002A3FF42BAE988F3EF06CF800283FF4E7
S3150800A12025AE002200925A4B5A487F224FF4CA6144
S3150800A13007F0D6FB1AE6584804F0D6FE0123D5F8F0
S3150800A140581685F85C3628463CF0ECFEC5F86006DD
S3150800A1504CE60123D5F8A81185F8AC3119F07AFE3A
S3150800A160C5F8B00130E63DF0D5FEBAE44B4A1168B1
S3150800A170596013603FE6D0E90201F26821F0FF0159
S3150800A180002717605060936217610223D16033700D
S3150800A19004F042FF202383F3118805F027F805F021
S3150800A1A0F1FA3378022B40F069850323726833701D
S3150800A1B0F36852680921D962012159615F621F61FA
S3150800A1C012B1DA680A43DA6085221A6004F024FFBD
S3150800A1D033493448344E47F041FA012769E000BF55
S3150800A1E01DC505081CF60808F5C30508F035080856
S3150800A1F081BE050884270A08CDBE050898270A08DF
S3150800A20019BF0508B0270A08E9D30308CC270A08A6
S3150800A21071BE0508D4270A0861BE0508E8270A089A
S3150800A2205DC00508F8270A0865C0050808280A0851
S3150800A230B1BF050818280A082194050820280A0825
S3150800A2406DC005082C280A0899A0040844280A089D
S3150800A25001FF050850280A0865BF050868280A0886
S3150800A260B9180220089E00204C2B0A08602B0A0801
S3150800A2705068001010B1012000401C465C190020EF
S3150800A280802B0A08F046002068190020684700203D
S3150800A29061BF040808660020E4310A080418002093
S3150800A2A0BD73040820250A086C2B0120384606F0E1
S3150800A2B01FF93368012BF9D9694B93F8D923170786
S3150800A2C078D5D3ED747ADFED676A9FED676A93F800
S3150800A2D064359FED660A67EEA67AB6EE007A67EEF3
S3150800A2E0877A180786EE277A614BDFED626AD3ED27
S3150800A2F0007A9FED616A27EE267AF4EEC67A48BFA1
S3150800A30037EE077AF1EE10FAD8BFF0EE477AF0EE9C
S3150800A310046A27EEA67AB4EEC07AF1EE10FA00F3D4
S3150800A32038879FED507A67EE877A87EE800A64F061
S3150800A33003F8524B00225A60B0EE087AC0EE076A5C
S3150800A340F7EE004A36EEA45ABFEE007AA0EE005A9F
S3150800A35074EEE65A84EE856AA0EE007AE0EE005ABC
S3150800A36037EE077A66EE866A67EE067A26EE256A7D
S3150800A370B1EE667AC3ED006A83ED027AC3ED037A1D
S3150800A38083ED046A364B93F823365907C3F38006E0
S3150800A39000F18B863A48032256213EF077FE39486B
S3150800A3A0032257213EF072FE374890F83C33002BC3
S3150800A3B000F001872A4B93F82833DE0700F1DB8586
S3150800A3C0274B93F828339A0700F1D085244B93F846
S3150800A3D028335B0700F1C585214B93F82B33DF073C
S3150800A3E000F1BA851E4B93F821361E0700F1AF859A
S3150800A3F01B4B93F82136D80600F1A485184B93F821
S3150800A400283F002B3FF409AC204E0F335B01002296
S3150800A410C6E9232306F1A8000123142286F8A330EF
S3150800A420C6F8942045F0C8FBB369002B00F0F48504
S3150800A430174A13885168194489B222460120002A0E
S3150800A4407FF4DAAB002B3FF4D8ABB3F5A27FBFF4A9
S3150800A450CFABB1F5A27F0246F1D9FFF7DEBB00BF4D
S3150800A46050680010DB0F494000006144809F554842
S3150800A470CC77001000007A440AD7233C3C750120AB
S3150800A48044250A0850250A08705F0020284800203D
S3150800A490CC360120BC49BD4847F0DCF8BC4ABD486B
S3150800A4A005216DF0B9FFBC4ABC4810216DF0B4FF18
S3150800A4B0BB4ABC4811216DF0AFFFBB4ABB4810210F
S3150800A4C06DF0AAFFBA4ABB4811216DF0A5FFBA4A3A
S3150800A4D0BA4811216DF0A0FFB949BA4847F0BAF851
S3150800A4E0B949BA4847F0B6F8B949BA4847F0B2F890
S3150800A4F0B94ABA4805216DF08FFFB949B94847F0FE
S3150800A500A9F8B949B94847F0A5F8B949B94847F08B
S3150800A510A5F8B949B94847F09DF8B949B94847F087
S3150800A52099F8B949B94847F095F8B949B94847F08B
S3150800A53095F8B948B94A11216DF06EFFB84890F8F8
S3150800A5403C33002B00F02884B64EA6F5B46558F0C7
S3150800A55031FEB548314645F0ADFBB5F8C6023DF0CB
S3150800A56049FE68B105F5D76393ED000ADFEDAF0A3A
S3150800A570AF4AB049B048B8EEC00A00236DF068FE8D
S3150800A580AE4BB3F9E020B3F94C10914201DAA3F8C7
S3150800A5904C20AB4BAB4FAC4DAC4EDFF8A0927B607A
S3150800A5A003F14001B96003F15001F96095F8E1192A
S3150800A5B0DFF800B34FF07E524FF014084FF4F16AFB
S3150800A5C0BA613A617A61B2613261726118FB01A1BE
S3150800A5D003F16002494405F6E410726003F1A00233
S3150800A5E0B033B260F36045F065FB95F8311AC5F8EB
S3150800A5F0147A18FB01A1494405F63420C5F818BA9F
S3150800A60045F058FB95F8811AC5F8646A18FB01A14C
S3150800A6100BF17803494405F68420C5F8683A45F0F5
S3150800A62049FB95F8D13AC5F8B47A18FB03A1494411
S3150800A6300BF1F00305F6D420C5F8B83A45F03AFB15
S3150800A6400BF5B473C5F8083BC5F8046B52F07EFBEE
S3150800A65099F8D833590600F192837D483AF03AF9C9
S3150800A6607C483AF037F97C483AF034F97B483AF0B6
S3150800A67031F9012060F08AFB704B93F82B23920680
S3150800A68040F11D8393F86525D70704D593F86435FB
S3150800A690DB0940F09D85724940F25E2053F08EFE3C
S3150800A6A0664D95F821369E0640F11C8395F864356B
S3150800A6B0DB0940F075836B4940F25E2053F07EFE5D
S3150800A6C0212038F0FDF848B95C4B674DB3F856833E
S3150800A6D0B3F85873AB68002B00F08285574B93F894
S3150800A6E01A124B1E2F2B0AD8604CDFED500A9FED2D
S3150800A6F0600A20463EF032FD20463AF0EBF84F4D10
S3150800A7005C4995F832025C4F61F000F895F8200331
S3150800A7105A4960F0FBFF5AF0EDFA05F63656002462
S3150800A72005F6675515F8012F36F8021F0134384625
S3150800A7303EF0ACFC082CF5D15149524846F09AFF38
S3150800A7405149524846F086FF5149524846F082FF21
S3150800A7505149524846F082FF384B93F871355C06EA
S3150800A76000F164834E494F4846F074FF4E4B93F808
S3150800A77027201AB94D4A1168D96213604A4E4C4CC3
S3150800A780B4614EF6602297E0F12106087C280A0893
S3150800A790992106088C280A08612E06089C280A08AA
S3150800A7A0412E0608A8280A08152F0608B4280A08FC
S3150800A7B0F52E0608C0280A08912F0608CC280A088C
S3150800A7C0FD210608D8280A0885200608E8280A0868
S3150800A7D091200608F4280A082D20060800290A08E8
S3150800A7E0592206080C290A08E51006081C290A0831
S3150800A7F0B95206082C290A083D21060840290A08E4
S3150800A800ED20060850290A08AD2206085C290A0820
S3150800A810F110060868290A0874290A081D3006086E
S3150800A820D08D0020F06D0010800A00100000000096
S3150800A830A09E002080290A08D040002050680010F9
S3150800A840BC9D0010F0B0012000100010D0B001200F
S3150800A850A8B0012098B0012088B0012078B0012066
S3150800A86094290A08CC290A08D88D0120488D002089
S3150800A870CDCC4C3DA88D0020082A0A08808D0020E2
S3150800A88039E20608142A0A0825CB0308242A0A08E6
S3150800A890794B0408382A0A0819A00608482A0A081B
S3150800A8A0F9460408DC8F0808E0470020E4AC0020DD
S3150800A8B0BA6D0010883D00200023C6E90223304601
S3150800A8C004F22A630025336286F826503EF0BCFC63
S3150800A8D0B14BB24A5A60012102F5807286F82710F8
S3150800A8E09A604FF07E562032AD489E6129461E6119
S3150800A8F05E61DA6034F084FAAA4BAB4AAB48AC49DD
S3150800A9005A6002F580729A604160103201F58071D2
S3150800A910DA608160A74A9E611031C16010315160CA
S3150800A92040311E615E619160A34B966110311661DC
S3150800A9305661D16001F160021031C3E901128661E6
S3150800A940066146619E611E615E6101F160029B4E71
S3150800A950DFF80CB3DFF80C93DA60A4F26A54B4F8A3
S3150800A960D07938463DF046FC002838D0B4F8D439BA
S3150800A970934902933A460C2707EE903A07FB05B728
S3150800A9803846B8EE678A46F019F9029B4FF0780AFE
S3150800A990B3F100080AFB059A18BF4FF00108002B0F
S3150800A9A040F08081874B53F8253004F6FA125A6036
S3150800A9B04FF07C529A6104F6DA129A604FF08042A0
S3150800A9C01A6104F6EA12DA604FF07E525A61C6E955
S3150800A9D003A7736104F51D6386F808807360013563
S3150800A9E0042D04F16C0406F11806B8D1764C774D9F
S3150800A9F094F8643404F29C50002223F0070305F609
S3150800AA007411A5F8F42584F8643445F053F995F8DB
S3150800AA10C9306F4DD8064CBF04F5986004F59160AF
S3150800AA206C4C294645F046F9204630F027FE54F08E
S3150800AA3055FDA4F5BA62002182F85814A4F5BA7235
S3150800AA40654B1360A5F5BD65A4F5A872634864490E
S3150800AA50136046F0FFFD95F8C930D9064CBFA4F53A
S3150800AA608870A4F5A470594C04F5BD6104F5BE635D
S3150800AA7004F2EC520D681968C36A12685A600268D3
S3150800AA801D605268996090475649574846F0E2FD5E
S3150800AA90564B1B78002B36D14B4B554A55485649D1
S3150800AAA0564D574EC3E9EF02564846F0D3FD564970
S3150800AAB0564846F0CFFD5649564A574B56604FF012
S3150800AAC07E508861086190611061186104F6B810BB
S3150800AAD0C8605248486152489861524898600630A2
S3150800AAE0D86004F65860486004F6C410886004F517
S3150800AAF0AA544D49556100F66C305D61D46090608A
S3150800AB00596053F039FD314B93F870359A0600F1C8
S3150800AB105A8152F015F84549454820F07FFB454BC8
S3150800AB204549A3F698624FF07E54B2F84600434A68
S3150800AB304B60A3F59C65A3F2D4468C6124330C6163
S3150800AB40946114613E4CCD60C2E90136D560334B41
S3150800AB508E6000254B61536125703DF04BFB58B163
S3150800AB602B46DFED380A9FED380A384A3849394806
S3150800AB706DF06EFB01232370144B374CB3F82E0E81
S3150800AB80002525703DF036FB00283FF47EAA2B46AB
S3150800AB909FED2D0A314A67E008BD00204CA8001039
S3150800ABA0801B0010EC9B00208CA90010BC9800208C
S3150800ABB0ACAA00109C9800207C980020F08D0120FB
S3150800ABC0002B0A08F0310A0800000010506800102F
S3150800ABD0386E0010D00500100000C8C2082B0A08FD
S3150800ABE0F5B10508A5980408142B0A08B918022017
S3150800ABF0C81F002090200020D9CA05080AD7233C80
S3150800AC00407D0010202B0A087DA305082C2B0A0876
S3150800AC10CC750120488D012058B001200000C8429B
S3150800AC20CDCCCC3D04AF0010E0AE00106F8614000A
S3150800AC30ECBC0020E8760010E8A70020C8A7002092
S3150800AC40FA180220CDCCCC3D0000C07FE09E002043
S3150800AC50342B0A08F0880020F9180220209F0020CB
S3150800AC602C19002068890020C549C648F6EE000A56
S3150800AC706DF0EEFA01232370FFF707BAC24804F015
S3150800AC8033F9B1F5AA7F4FF001027FF6D8ABFEF78C
S3150800AC90C4BF002A7FF437AABC49BD4846F0DAFC8F
S3150800ACA0FFF70CBABB4BDFEDBC0A53F82510B0EE24
S3150800ACB0480A00233A4650466DF0CAFA72E693F8F7
S3150800ACC04832013B2F2B02D8B44839F003FEB44B67
S3150800ACD093F84932013B2F2B3FF6E2ACB14839F0E5
S3150800ACE0F9FDDDE4B049B14895F8D36246F0B2FC07
S3150800ACF0AF49B04846F0AEFC30463DF031FCAE4BAD
S3150800AD00C3F85803002800F0E38203F2463603F23C
S3150800AD106F379B4605F5587503F5807A039405E069
S3150800AD200BF1200BD34505F102056DD000234FF03A
S3150800AD30010826F8028F07F8013F9BF87C0337F0D5
S3150800AD40BFFD04460028EBD1B5F8009048463DF013
S3150800AD5051FA0028E4D0984B494603F55770C3F8D2
S3150800AD60604344F0B1FC9548424649463EF08EF9A8
S3150800AD702B8833800BF55E7039F0ACFDD0E7904830
S3150800AD8058F0ACFA8F4858F0A9FA8F4858F0A6FA46
S3150800AD908E4858F0A3FA60E43DF0BCF8FFF7D4BB40
S3150800ADA08B4858F09BFA8B4858F098FA8A4858F01E
S3150800ADB095FA8A4858F092FA894858F08FFA8948DD
S3150800ADC058F08CFA7CE455F0B3FDA2E600283EF470
S3150800ADD0A4AF734B93F85236062B00F24C81824A85
S3150800ADE052F823306E4A186892F858265968D209DC
S3150800ADF006AB03C302D001F10043079306A9304608
S3150800AE0005F056FAFEF771BF6B4D039C95F83C3377
S3150800AE10002B7FF455AC0123D5F8381385F83C335D
S3150800AE2028463CF057F8C5F8400349E46F4B93F8B9
S3150800AE30D421002A00F00A8193F8D521002A00F0CF
S3150800AE401781D3F8D8310B939DED0B8A18EE100AAB
S3150800AE50FDF73AFD0446224665480B460D4645F081
S3150800AE6003FBB4EE488AF1EE10FA80F1E380DFEDD9
S3150800AE70617AB4EEE78AF1EE10FA00F3DB80DFEDD3
S3150800AE805E7AB4EEE78AF1EE10FA00F1D3805B48F9
S3150800AE9045F0EAFA554B40F20111002283ED648A27
S3150800AEA0A3F88C1183F88E215CE493F8CC29052A43
S3150800AEB000F21382DFE802F03639332C034340F2FE
S3150800AEC0F1134F4900220B804E4B4F481A8039F038
S3150800AED001FD4E4839F0FEFC314B4D4993F8D82315
S3150800AEE00E7090067EF52DAF93F8CC29052A00F250
S3150800AEF0FB8101A353F822F031AF000831AF0008F7
S3150800AF0031AF0008439D000831AF0008439D000893
S3150800AF103B4B4FF421721A8040F28522D4E74FF456
S3150800AF20D073CEE74FF4F873CBE74FF40073C8E756
S3150800AF30384940F66E0053F041FAFEF702BF40F278
S3150800AF400933BEE706203FF067F9FFF757BA052031
S3150800AF503FF062F9FFF74CBA04203FF05DF9FFF7BE
S3150800AF6041BA03203FF058F9FFF736BA02203FF0FE
S3150800AF7053F9FFF72BBA01203FF04EF9FFF720BA35
S3150800AF80402B0A0878880020C0310A08F1A0060874
S3150800AF90742B0A0820320A0800000000C4B00120F9
S3150800AFA050680010B8B00120FD040508F4290A0805
S3150800AFB051050508FC290A08302800209892080837
S3150800AFC0F08B0020B88B0020808B0020488B002057
S3150800AFD0188D0020E88C0020B88C0020888C002072
S3150800AFE0588C0020288C00209C310A0814A80020C0
S3150800AFF0542A0A080000DC4200007042902B0A0816
S3150800B000B6180220B4180220F8480020D8480020B4
S3150800B010F818022000260A08B94B1A68B2611436D5
S3150800B0201E60FFF705BAB74B93F894036EF026FE39
S3150800B030FEF781BEB44922462B4640F6B20052F0CE
S3150800B040EFFDB24845F010FAFFF78CBBD3F8DC41A8
S3150800B05074B1236820469B68984748B123682146FF
S3150800B0605B680AA898479DF82830002B7FF4ECAE59
S3150800B0709FEDA78AEAE6A74BB4E6A748C0F8687327
S3150800B08027B190F83C33002B00F01081A348C0F894
S3150800B0906863002E3EF43EAE90F83C33002B7EF4F7
S3150800B0A039AE3CF037FFFEF735BE9D4BDFED9D9A76
S3150800B0B09FED9D9ADFF8B4A20FCB10AF07E90F00FA
S3150800B0C04FF0000900279FED998A0DF1300BB8461D
S3150800B0D007EE907AF8EEE77AFBEC018A77EEA77A24
S3150800B0E008F1010827EEA90A4F4480EE090A71F013
S3150800B0F035F8B8F1040FA8EE808AE9D109F10109FB
S3150800B100B9F5806FAAEC018ADCD1894BDFED876A35
S3150800B1101868DFED885A9FED886ADFF854C205EE95
S3150800B120104AAE464FF47A6700220CFB02F307EE8C
S3150800B130903AF8EEE77A411C67EEA57A914237EE27
S3150800B140C67AB0EEC77ABDEEC77A17EE103A05D1C1
S3150800B150B8EEC57A37EEC77AF0EEC76ABB4204DAAC
S3150800B160BDEEE75A1F46B64610460132B2F5007FD5
S3150800B170DBD1BEF1000F01D06D4B18606F4B15EE99
S3150800B180101A03F67802A3F87618C2ED006AFFF7DC
S3150800B19001B917EE900AFDF797FB02460B46CDE973
S3150800B1A00023674954A3D3E9002340F25E2053F0F5
S3150800B1B005F9FFF7E7B83CF0ADFEFFF7FBB83246F6
S3150800B1C0604940F25E2053F0F9F80126FEF727BDE4
S3150800B1D05D4858F083F85D4858F080F8FFF760BA84
S3150800B1E040463DF007F800283FF478AA38463DF077
S3150800B1F001F800283FF472AA554E0522304641460A
S3150800B2003DF044FF0522394630463DF03FFF4046B3
S3150800B2106DF05CF94146286030463DF0D5FC686023
S3150800B22038466DF053F9394603463046AB603DF073
S3150800B230CBFC6A682968E860012606FA02F292B22F
S3150800B2400A8306FA00F3AA689BB213830DF1130169
S3150800B2500F23284632468DF8133066F07DF93246BC
S3150800B2600DF11201284666F091F99DF81230B12BBE
S3150800B2702BD0BD2B7FF432AA4CF220433446354DF1
S3150800B280ADF814302846022205A92C6166F064F947
S3150800B290012331482B7539F01DFBFFF71FBA2F49DB
S3150800B2A040F25E2053F08AF8FEF737BD3CF032FED6
S3150800B2B0ECE60123D8F8A81388F8AC3340464FF0DB
S3150800B2C04DF8C8F8B003FEF71FBD44F21043D6E7A1
S3150800B2D0234845F0C9F8FFF7F3B9224940F66E004E
S3150800B2E053F06CF82E46F7E51F4940F66E0053F00A
S3150800B2F065F8FEF726BD00BF00000000F0B30A415E
S3150800B3000418002000300010842A0A08B02A0A0807
S3150800B31067A6CA42B8310A08E8CA001078C70010FA
S3150800B3204C120808DB0F494000C07F4400000000AB
S3150800B330286701200000803A00007A4500100010B6
S3150800B34024250A0870250A0870490020304900207B
S3150800B350042A0A08D88D0120C8460020B4250A0800
S3150800B360A4920808E0250A0828260A08DC11012004
S3150800B3707E5603000000000038B59FED216BDFED17
S3150800B380227A224B0360044600250123036480EDDC
S3150800B3900E6BC0E90755C0E90955C0ED017AC0ED45
S3150800B3A0027AC0ED037AC0ED047AC0ED057AC0EDE5
S3150800B3B0067AC562C0ED0C7A80F8345080F844509D
S3150800B3C085644C306BF072FF114BA4F8B0504FF007
S3150800B3D0824284ED206B84ED266B84ED2E6B84F817
S3150800B3E07C50C4F88850C4ED237AA4F89050C4ED74
S3150800B3F0287AC4ED297AC4F8A820C4F8AC3038BD38
S3150800B40000000000000000F00000000004460A08E2
S3150800B410CDCCCC3D000000009FED0F7B002200B58F
S3150800B420C0F8A4104FF0000E0D49C0F80CE0C0F8A3
S3150800B43020E0C0E90422C0E9062280ED0E7B80EDFB
S3150800B440347B5DF804EB426082600160426244F03E
S3150800B45013B800BFAFF3008000000000000000F042
S3150800B460EC450A080000000010B59FED136BDFEDF0
S3150800B470147A144CC0ED147A00234FF0010C836241
S3150800B48080ED126BC362C0E90833C0E90A33C0E92C
S3150800B4900C33C0E90E33C0E91033C0E9033300F1B9
S3150800B4A00C0E036043714361C36180F854C0836125
S3150800B4B080F804C0846010BD000000000000000091
S3150800B4C00000C07F30320A0870B5234ED6F8D8354A
S3150800B4D0D6F86847A6F8DC05013382B00546C6F8F3
S3150800B4E0D835ACB1002306F5BE6001E0A3420FD003
S3150800B4F01A010133815AA942F8D1184C144420463E
S3150800B50044F05AFB164802B0BDE8704044F054BBFC
S3150800B51004F0E0F8D6F86837124A0190172B11D8CC
S3150800B52002EB031202F5CB449FED097BA4F8705099
S3150800B530013384ED1A7B0198C6F86837683404F03D
S3150800B54061FFDCE7019804F05DFFDBE7AFF30080FD
S3150800B55000000000000000F000600010E865001020
S3150800B560E0650010000000102DE9F04F2DED068B68
S3150800B5700123DFED5BAA85B00A24BFEE009AB8EE78
S3150800B580008AF6EE008A06461D4629EE08AADFED71
S3150800B590559A2AEE09AA4FEA450B32464FEA051A8A
S3150800B5A0E800B7EE009A0021871802F104099046D0
S3150800B5B00B46D7ED010A97ED000A69EE207A20EED0
S3150800B5C0E97AE9EE807A5B44A9EE007AF4EE477AE6
S3150800B5D0F1EE10FA58D698ED016A59ED016A36EE81
S3150800B5E0676A76EEC76A87ED016AC7ED006A98ED65
S3150800B5F0016A59ED016A77EE867A36EE877AB3F5EF
S3150800B600806F09ED017A5744C8ED017AD144D044D8
S3150800B610CFD369EE8A7A2AEEE97AE9EE2A7AAAEE91
S3150800B620097AB4EE677AF1EE10FA40D60131A942EA
S3150800B63039EE079A79EEA79A02F10802B4D1013CCD
S3150800B6401DD05846FDF71EF902460B4622A1D1E940
S3150800B6500001FDF7BBFAFDF767FC09EE100A29EEB3
S3150800B660280A70F0BDF8B0EE40AAB0EE490A70F0AC
S3150800B670B7F85D46B0EE4A9AF0EE40AA85E705B0FF
S3150800B680BDEC068BBDE8F08FF0EE691AB0EE491AEC
S3150800B690CDE90202CDE9003174F080FFDDE902024E
S3150800B6A0DDE90031B0EE407AF0EE607A93E7F0EE2D
S3150800B6B06A1AB0EE4A1AF0EE690AB0EE490ACDE9FE
S3150800B6C00102009174F06AFFDDE901020099B0EE0B
S3150800B6D0407AF0EE607AA9E700000060FB2109C015
S3150800B6E02EBDBB33000000002DE9F04FC84BC94CF6
S3150800B6F0C949CA482DED068BC3F82C44C84C1C60B2
S3150800B7000022C84CC3F83444C3E90122C64C83F866
S3150800B7103024C64B0B60C1F86446C54BC54C1A703D
S3150800B7208125C1F858566360E360C34DC34B81F861
S3150800B7305C260026C24925604FF07047C0E90067BD
S3150800B740C04D0D606420C1E90620086203F1280196
S3150800B75003F14000C3E902111960586003F12001A2
S3150800B76003F11800C3E90600C3E90811B648B7494A
S3150800B7701A6100F128051A754FF47A7C0B460560A4
S3150800B780B34FC560C4F808C000F11804C0E9064400
S3150800B79000F1400600F1200443F8247BC0E9084480
S3150800B7A0C1E9022285604660026102750A7183B0AA
S3150800B7B0A431FF2043F8102C03F80C2C23F80A2C8C
S3150800B7C003F8082C03F8070C03F8062C10339942E3
S3150800B7D0F0D1A049A04BA14CC3F89C4001F134001C
S3150800B7E01425C3F894505861002444F620604FF09D
S3150800B7F07045C3E92A451960C3E9022298491A71B6
S3150800B800C3E90622C3E92322C3F89800954B964854
S3150800B810964C0860862581F83C23C1F84823C1F870
S3150800B8203853C3F83853C1F8444301259049C3F83F
S3150800B830485318608F4D83F83C238720C1F8A80326
S3150800B8400520C3F84443C1E9ED508B4B81F8AC237E
S3150800B8509FED698B894A0A60002703F5C0729F60CD
S3150800B86083ED068BDF6083ED088B83ED0A8B1F6003
S3150800B87083ED0C8B1F6183ED0E8B83ED108B83EDAF
S3150800B880128B83ED148B83ED168B60339342E6D1CE
S3150800B8907B4B7C4A1A607C4A5A60DA6017707B4890
S3150800B8A09FED7B9A4FF47A6228219A606EF004FA2B
S3150800B8B0784825216EF000FA774859216EF0FCF990
S3150800B8C076485A216EF0F8F9754B764824221A7193
S3150800B8D02321754A1A606EF0EFF9FDF7BDFF734B29
S3150800B8E0DFF828C272491F7222221A71714ACCF8EF
S3150800B8F02020C2E90077C2E9027717750022C3E95A
S3150800B900041203F128021A624FF021028CF804206F
S3150800B910694A1A60694ACCF80020694A1F739FED84
S3150800B92038AB02F5804902F5805A02F540589FED7A
S3150800B930367B644A83F82C7002F5005B83ED068B30
S3150800B94083ED0CAB6048614A83ED099A20210023F8
S3150800B9508CED047B8CF808708CF80C708CED068BDB
S3150800B9606EF096F95A48594A9FED5A0A4F21002314
S3150800B9706EF08EF94E4A584800231F216EF088F95A
S3150800B980564B4B4956481F720022C3E904124FF022
S3150800B9900C01197153491960F7EE009A1F7383ED6C
S3150800B9A0068B514B40F8043BF0EE690A6DF06AFFCE
S3150800B9B066F0BEFA4D486DF065FF4D4B4D48186070
S3150800B9C0C3ED019A83ED029A83ED039A83ED049AF7
S3150800B9D0C3ED059A484B4948494A83ED00AB494BA4
S3150800B9E0212183ED00AB00236EF052F9464B414806
S3150800B9F018608DE0AFF30080000000000000000032
S3150800BA0000000000000000F000093D0000000000F2
S3150800BA10608F012060350A08A0520020403C0020B3
S3150800BA206C380A08F421012064350A0854380A08D3
S3150800BA3028B1012024B0012070350A0860D9001009
S3150800BA4034B0012090380A08A0D90010D02A012065
S3150800BA50A4380A08CC380A08284800208F1E170080
S3150800BA60E8CA001078C7001030390A088CB70808E9
S3150800BA7058CE001084B70808A82C002014390A08E4
S3150800BA803058012080350A08E0D90010D026002059
S3150800BA900000000028250020D82500208025002049
S3150800BAA0D0AC0020D024002044390A08488D002054
S3150800BAB080841E00D88D012060390A0884390A0856
S3150800BAC0506800100000001078210020801A060037
S3150800BAD0502100200000C842682300204823002087
S3150800BAE0DC960120BC300A08A4390A08FC96012015
S3150800BAF028940120FC1C0A082049002080260020E2
S3150800BB00400D03001849002050940120C846002023
S3150800BB10CB4ACC48C3ED019A83ED029A83ED039A8A
S3150800BB2083ED049AC3ED059A272100236EF0B0F839
S3150800BB30C548C34A332100236EF0AAF8C348C04A51
S3150800BB40352100236EF0A4F8C148BD4A37210023E9
S3150800BB506EF09EF8BF4BC04AC0491960C3E90A7720
S3150800BB601F721F731F6283F8247083ED068B83EDA3
S3150800BB700C9ABB4B1160BB4919604FF0260CB54BAC
S3150800BB80DFF848E382F804C04FF0340C83F804C0A9
S3150800BB9042F2046CB24BAEF804C04FF0270C8EF894
S3150800BBA006C0CEF8001043F2324E9FEDA17BA3F8F3
S3150800BBB004E04FF0330E83F806E0A64B1772C2E98D
S3150800BBC00A7782ED047B83ED047B1773176282F88C
S3150800BBD0247082ED068BA44882ED0C9A0521984ABA
S3150800BBE000236EF055F8A148954A312100236EF0DE
S3150800BBF04FF89F499F4808609F48DFF8D4E20F72C4
S3150800BC000F734F6281ED068B9A49077201600773BD
S3150800BC10476280ED068B9948CEF8001008F10801B6
S3150800BC2041609349964808629349CEF82000086215
S3150800BC309248DFF8A0C28EF808700B469149016059
S3150800BC408B4991488862013098620130CEF8280005
S3150800BC508A488EF80C70A8F1780181608449CEF87C
S3150800BC6024704FF0290008714FF02A009FED727B6F
S3150800BC7018714FF02B008EF804004FF02C008CF84A
S3150800BC8004007B4981488CF8087083ED047B804B5F
S3150800BC90804A81ED047B8EED047B7F498EED068B11
S3150800BCA08CF80C704FF02D0ECCF82800013083F874
S3150800BCB004E098624FF02E0E013081F804E08862A5
S3150800BCC076497748886077487749816072491F7254
S3150800BCD081ED047B81ED068B66491F7301F1240013
S3150800BCE083ED047B5F621960186283ED068B6A4BED
S3150800BCF0CCF8001019606949CCF824708CED047BE7
S3150800BD00CCF8200018628CED068B684808604FF066
S3150800BD10190C81F804C063491F7208604FF01A00B5
S3150800BD201F735F620871624B1920C2E901071A2066
S3150800BD30D76058605F481060186028301062186233
S3150800BD404FF00100D76283F8380090854FF0010064
S3150800BD50DF629885584882F838700021C2E90401E4
S3150800BD60C3E90401C2E90977C2E90C77C3E9027796
S3150800BD70C3E90977C3E90C7782ED068B83ED068B59
S3150800BD8064F06EFBDFF850E14C4ADFF850C1CEF89C
S3150800BD9000200C20CEF82C0028324FF00300484B28
S3150800BDA08EF80400CEF820204FF00100454A8CF8A2
S3150800BDB00400F1EE007A4FF4FD60CEED0C7A8EF8B1
S3150800BDC008708EF80C70CEF82470CCF8003013602A
S3150800BDD0CEF8280028338EED048B8EED068B4FF0B7
S3150800BDE0050E8CF808708CF80C70CCF82470CCF81A
S3150800BDF020301362CCF82800CCF82CE08CED048BAC
S3150800BE008CED068BCCED0C9A0F234FF0020C1772B3
S3150800BE1017735762D36290622B4B82F804C082ED87
S3150800BE20048B82ED068BC2ED0C9A59E0AFF30080C5
S3150800BE3000350C0000000000804F120000000000D2
S3150800BE40400D0300A8260020B04900203026002017
S3150800BE5058260020282E0020602E0020D0390A08F7
S3150800BE6040940120B4390A08A88D0020808D00204E
S3150800BE70188D0020003A0A08E88C0020E493012077
S3150800BE80243A0A08F0390A0805030A0008030A00D2
S3150800BE90588C002070490020288C0020C4B001204E
S3150800BEA075A40608B8B001208DA40608743A0A08D5
S3150800BEB030490020383A0A08C0D40100083B0A086D
S3150800BEC0CC3A0A08808B0020488B00204894012031
S3150800BED0B88C0020888C0020F08B0020B88B0020BE
S3150800BEE0E24A9FEDE37A1A604FF4FD6EC3F828E044
S3150800BEF028324FF00D0E4FF00F0C9FEDDE0ADE488C
S3150800BF0083ED0C7A0E211A6283F804E01F721F7300
S3150800BF105F62C3F82CC083ED048B83ED068B6DF04E
S3150800BF20E9FED6480F216DF0E5FED54811216DF0E2
S3150800BF30E1FE1221D3486DF0DDFED34BCE481860E2
S3150800BF4090F82420CD485A73586090F82420CF489A
S3150800BF509A734FF00D0E83F80CE098601F7583ED09
S3150800BF60049AC74ACA4B1A60986092F82420C948AE
S3150800BF705A734FF00F0CC34A80F806C0DFF850C357
S3150800BF805A6092F824208CF806109A73C249016008
S3150800BF9002464FF0100E1F7583F80CE083ED049AE5
S3150800BFA080ED029A80ED039A40F60D63BB489380B4
S3150800BFB0BA4ACCF8001041F21013ACF804304FF02E
S3150800BFC0150E41F21343B0EE690A0160B4488CEDD0
S3150800BFD0029A14218CED039A938082F806E082ED8A
S3150800BFE0029A82ED039A6DF085FEAE4815216DF032
S3150800BFF081FEAD4BA5489860A948186090F82420A2
S3150800C000A8485A7390F824209A73A84A1F75A84F0F
S3150800C010176013279FEDA70A58601F73A64883ED7C
S3150800C020049A1D21162393806DF064FEA348A44F3D
S3150800C0301E216DF05FFE64F031FB08F10801A14A8C
S3150800C040A14BA1F540504FF0030139734FF0010C95
S3150800C0509E4982F80CC0DFF87CC2C3F800C0C7F856
S3150800C06000C0C1F800C0C2F800C0DFF86CC2C3F84F
S3150800C07008C0C7F808C0C1F808C0C2F808C04FF021
S3150800C080500C87F804C051270F7123270F735221CC
S3150800C09000244FF0200E1171532283F80CE01A7118
S3150800C0A06BF04AF9902221460AF1080074F057FD10
S3150800C0B0202221460AF1B00009F22C45CAE9274494
S3150800C0C0CAE92A44CAF89840CAF8A44074F047FD59
S3150800C0D0202221460AF1D00005F6D43674F03FFD39
S3150800C0E0402221460AF1F00074F039FDA6F57A538C
S3150800C0F0CAF88041C3E90144DC601C82A6F57B537B
S3150800C100A6F5A047CAF84041C3E90144DC6007F533
S3150800C1108B53402221460AF5CC70CAF86041CAE919
S3150800C1205544C3E90144DC60CAE95D44CAF83441B0
S3150800C130CAF83C418AF894418AF89741CAF83041CE
S3150800C140CAF83841CAF85041CAF87041AAF892416B
S3150800C150AAF89541CAF85C41CAF87C4174F0FFFC1C
S3150800C160402221460AF5EC7074F0F9FC402221467B
S3150800C1700AF5067074F0F3FC402221460AF516709B
S3150800C18074F0EDFC202221460AF5267074F0E7FCCF
S3150800C190202221460AF52E7074F0E1FC2022214661
S3150800C1A00AF5367074F0DBFC202221460AF53E704B
S3150800C1B074F0D5FC202221460AF5467074F0CFFCAF
S3150800C1C0202221460AF54E7074F0C9FC2022214629
S3150800C1D00AF5567074F0C3FC202221460AF55E70F3
S3150800C1E074F0BDFC402221460AF56E70CAE9E644A1
S3150800C1F0CAE9E844CAE9EA44CAE9EC4474F0AFFC7F
S3150800C200202221460AF57E7074F0A9FC20222146D8
S3150800C2100AF5836074F0A3FCA6F56F5303F10800D2
S3150800C22040222146CAF84044CAF83C445C60CAF831
S3150800C230384474F094FC4022214607F5A550CAF804
S3150800C2409044CAF89444CAF89844CAF89C44CAF870
S3150800C2508844CAF88C4474F082FC07F5A753402238
S3150800C26021460AF59E60CAF8E04437E0903A0A0883
S3150800C2703333234000004843809200203892002040
S3150800C280F0910020A8910020B8AC0020603B0A0875
S3150800C29090AC0020A8AC0020443B0A0858AC00200B
S3150800C2A0609100201891002068AC00206894012055
S3150800C2B070300A0800007A44E8210020A0210020F6
S3150800C2C0A8B0012088B0012078B0012098B00120DC
S3150800C2D080AC00207C3B0A08000080BFC3E901440B
S3150800C2E0DC6074F03CFCA6F56B53202221460AF567
S3150800C2F0AB60CAF84045CAF834455C60CAF83C45A4
S3150800C300CAF85445CAF83045CAF83845CAF85045F7
S3150800C310CAF84845CAF84C4574F021FC2022214643
S3150800C3200AF5AF6074F01BFC07F5AD5020222146D4
S3150800C330CAF89C45CAF8984574F011FC2022214693
S3150800C3400AF5B960CAF8C045CAF8C44574F007FCCE
S3150800C350A6F5405007464022214600F5176074F0BE
S3150800C360FEFB4022214607F51B6074F0F8FB4022CD
S3150800C370214607F51F6074F0F2FB4022214607F5B7
S3150800C380236074F0ECFB2022214607F5276074F041
S3150800C390E6FB2022214607F5296074F0E0FB2022FF
S3150800C3A0214607F52B6074F0DAFB8022214607F652
S3150800C3B0D820C7F8D44AC7F8D04A74F0D0FB202250
S3150800C3C0214607F66830C7F8584BC7F85C4BC7F8DC
S3150800C3D0604BC7F8644B74F0C2FB4FF400722146F9
S3150800C3E007F6883074F0BBFB4FF40072214607F657
S3150800C3F0885074F0B4FB8022214607F6887074F0E2
S3150800C400AEFB8022214608F1080074F0A8FB202222
S3150800C410214608F1880074F0A2FB4FF40072214609
S3150800C42008F1B000C8E92A4474F099FB2022214695
S3150800C43008F52C7074F093FB2022214608F5347019
S3150800C44074F08DFB3C22214608F53C7074F087FB9E
S3150800C4504FF40072214608F54B7074F080FB2022D9
S3150800C460214608F22C5074F07AFB2022214608F265
S3150800C4704C5074F074FB4022214608F26C5074F05C
S3150800C4806EFB4022214608F2CC50C8F8AC45C8F8E5
S3150800C490BC45C8F8B045C8F8B445C8F8B845C8F8A2
S3150800C4A0C045C8F8C445C8F8C84574F058FB4FF4E9
S3150800C4B00072214608F22C60C8F80C46C8F81C46DB
S3150800C4C0C8F81046C8F81446C8F81846C8F82046EA
S3150800C4D0C8F82446C8F8284674F041FB20222146AD
S3150800C4E008F62C0074F03BFB2022214608F64C0087
S3150800C4F074F035FB4FF40072214608F66C0074F0B0
S3150800C5002EFB2022214608F66C2074F028FB2022F8
S3150800C510214608F68C2074F022FB4FF4007221465F
S3150800C52008F6AC2074F01BFB4FF40072214608F69F
S3150800C530AC4074F014FB4FF48072214608F6BA60DA
S3150800C540C8F8AC4E74F00BFB2022214608F6BA70E8
S3150800C55074F005FB2022214608F6DA7074F0FFFA1B
S3150800C5604FF48072214608F6FC70A8F8FA4F74F06A
S3150800C570F6FA2022214609F1FC0074F0F0FA20228E
S3150800C580214609F58E7074F0EAFA4FF48072214656
S3150800C59009F59E7074F0E3FA4FF48072214609F5A6
S3150800C5A01770C9E99044C9E99444C9F83C42C9F8E6
S3150800C5B04C42C9F84842C9F8584274F0D0FA4022A9
S3150800C5C0214609F55F70C9E9D844C9E9DC44C9F8C8
S3150800C5D05C43C9F86C43C9F86843C9F8784374F0F2
S3150800C5E0BEFA5022214609F57770C9E9F044C9E92F
S3150800C5F0F444C9F8BC43C9F8CC43C9F8C843C9F8D8
S3150800C600D84374F0ACFAC022214605F13400AC6276
S3150800C6102C63C9F82C44C9F83C44C5E90144C5E96A
S3150800C6200544C5E90744EC60C9F85044C9F85844BC
S3150800C63074F095FAC022214605F58270C5F8F840CF
S3150800C640C5F80041C9F82045C9F8284574F087FAA5
S3150800C6502422214605F51970C5E97244C5E97444D2
S3150800C660C5F8E041C5F8E841C5F8F041C5F8F84114
S3150800C670C5F80042C5F80842C5F81042C5F8184280
S3150800C680C5F82042C5F82842C5F83042C5F83842F0
S3150800C690C5F84042C5F8D841C9F8F045C9F8084672
S3150800C6A0C9F81046C9F81846C9F82046C9F82846F0
S3150800C6B0C9F83046C9F83846C9F84046C9F8484660
S3150800C6C0C9F85046C9F85846C9F86046C9F86846D0
S3150800C6D0C9F87046C5F85042C5F86042C5E99544A0
S3150800C6E0C5F84842C9F87846C9F8884674F037FA52
S3150800C6F02422214605F52570A5F88C42A5F8924214
S3150800C700C9F8B446C9F8BA4674F029FA202221466F
S3150800C71005F53170A5F8BC42A5F8C242C9F8E44649
S3150800C720C9F8EA4674F01BFA2022214605F53D7041
S3150800C730C5F8E842C5F8F042C9F81047C9F81847DD
S3150800C74074F00DFA2022214605F54970C5F81843FC
S3150800C750C5F82043C9F84047C9F8484774F0FFF9B7
S3150800C7604FF4BC72214605F55570C5F84843C5F81F
S3150800C7705043C9F87047C9F8784774F0F0F94FF490
S3150800C7803C72214605F2CC4074F0E9F94FF4BC72CC
S3150800C790214605F2EC70C9F8E84BC5F8D447C5F848
S3150800C7A0C047C5F8C447C5F8C847C5F8CC47C5F853
S3150800C7B0D047C5F8D847C5F8DC47C5F8E047C5F8F7
S3150800C7C0E447C5F8E84774F0CAF94FF4BC72214645
S3150800C7D005F6641074F0C3F909F58153242221463D
S3150800C7E005F60440C9F8084FC9F8204FC5F8104B9C
S3150800C7F0C5F8144BC5F8184BC5F81C4BC5F8204BA3
S3150800C800C5F8284BC5F82C4BC5F8304BC5F8344B42
S3150800C810C5F8384BC5F8404BC5F8444BC5F8484BE6
S3150800C820C5F84C4BC5F8504BC5F8E04AC5F8E44A7C
S3150800C830C5F8E84AC5F8EC4AC5F8F04AC5F8F84A12
S3150800C840C5F8FC4AC5F8004BC5F8044BC5F8084BB3
S3150800C850C5F8544BC5F8584BC9F8384FC9F8504F66
S3150800C860C9F8684FC5F85C4BC5F8704BC5F8744BEA
S3150800C870C5F8784BC5F87C4BC5F8804BC5F8884B8E
S3150800C880C5F88C4BC5F8904BC5F8944BC5F8984B32
S3150800C890C5F8A04BC5F8A44BC5F8A84BC5F8AC4BD2
S3150800C8A0C5F8B04BC5F8B84BC5F8BC4BC5F8C04B76
S3150800C8B0C5F8C44BC5F8C84BC5F8D04BC5F8D44B1A
S3150800C8C0C5F8D84BC5F8DC4BC5F8604BC5F8644BC2
S3150800C8D0C5F8684BC9F8984FC9F8B04FC9F8C84F9A
S3150800C8E0C9F8E04FC9F8F84FC5F8E04B3461C5F808
S3150800C8F0004C3462B462C5F8E84BC5F8EC4BC5F891
S3150800C900F04B5C6074F02BF909F5835340222146FD
S3150800C91005F668407465C5F8444CC5F84C4CC5F82E
S3150800C920544CC5F85C4CC5F8644C3466F466C3E9E7
S3150800C93001447467F467C6F88440C6F88C40C5F8A5
S3150800C9402C4CC5F8304C74F00AF94022214605F6FD
S3150800C950A84074F004F94022214605F6F840C5F8C7
S3150800C960EC4CC5F8F44CC6F81441C6F81C4174F0F2
S3150800C970F6F84022214605F6385074F0F0F8C82239
S3150800C980214605F6B850C6E96A44C6F8BC41C6F859
S3150800C990D441C5F8A44DA6F8A641C6F8CC41C5F8B9
S3150800C9A0844DC5F8884DC5F88C4DC5F8944DC5F825
S3150800C9B0984DC5F89C4DC5F8AC4DC5F8B04DC5F8B1
S3150800C9C0B44D74F0CCF809F596536422214605F661
S3150800C9D0A860C6F8AC42C6F8C042C5F8844EC3E99A
S3150800C9E00144C3E90344C5F8884EC5F88C4EC5F81A
S3150800C9F0904E74F0B4F82022214609F59B50C6F8EB
S3150800CA003843C6F84C43C5F8104FC5F8144FC5F857
S3150800CA10184FC5F81C4FC5F8244FC5F8284FC5F858
S3150800CA202C4FC5F8304F74F09AF809F59D5320221B
S3150800CA30214605F6EC70C5F8704FC5F8844FC5F861
S3150800CA409C4FC5F8A44FC5F8AC4FC5F8B44FC5F808
S3150800CA50BC4FC5F8C44FC5F8CC4FC5F88C4FC5F8C0
S3150800CA60904FC5F8944FC6F8A043C6E9E4445C6005
S3150800CA70C6E9EA44C5F8544FC5F8584FC5F85C4F9F
S3150800CA80C5F8604FC6F89843C6F8B443C6F8C44319
S3150800CA90C6F8CC43C6F8D443C6F8DC43C6F8E44324
S3150800CAA0C6F8EC43C6F8F443C6F8FC43C5F8D44FB9
S3150800CAB0C5F8DC4FC5F8E44FC6F80444C6F80C447C
S3150800CAC074F04DF809F5A25305F5845009F5A651F9
S3150800CAD0C6F84044C6F8AC445C60C0E90144C6F8F0
S3150800CAE03C44C6F84C44C6F85044C6F85444C6F804
S3150800CAF05844C6F86044C6F86444C6F86844C6F89C
S3150800CB006C44C6F87444C6F87844C6F87C44C6F83B
S3150800CB108044C6F88844C6F88C44C6F89044C6F8DB
S3150800CB209444C6F89C44C6F8A044C6F8A444C6F87B
S3150800CB30A844C6F83844C6F84844C6F85C44C6F85B
S3150800CB407044C6F88444C6F898444FF4BC72C0E9E9
S3150800CB500344C6F8C04406F59F60C1E90144C1E92B
S3150800CB6003442146C6F8EC44C6F8F444C6F8D4444F
S3150800CB70C6F8D844C6F8DC44C6F8E044C6F8E44427
S3150800CB80C6F8E844C6F8F04473F0E9FFABF500537D
S3150800CB904FF0010C1A4683F848C083ED06AB83EDC7
S3150800CBA00EAB83ED10AB9C8483F82C405C6305F5D3
S3150800CBB09453C6F8AC46C3E90144DC60944B136051
S3150800CBC0944B936006F2946383ED009A06F5D3635B
S3150800CBD083ED009A06F29C6383ED009A05F593555A
S3150800CBE006F2A463C6F88046C6F88446C6F87446B4
S3150800CBF0C6F87046C6F87846C6F88846C6F8904617
S3150800CC00C6F8A046C6F8BC46C6F8C046C6F87C466E
S3150800CC1085ED009A83ED009A15464FF0807306F568
S3150800CC20D566C2F82D3086ED009A6AF01DFA7A4B61
S3150800CC30C5F8C433AAF57B63C5F82434774BC5F821
S3150800CC40003440F20113A5F8B83305F2044383ED26
S3150800CC50009A05F5816383ED009A05F20C4383ED8E
S3150800CC60009A05F5826383ED009A05F2144383ED75
S3150800CC70009A05F5836383ED009A05F21C4383ED5C
S3150800CC80009A05F58463C5E9F744C5F8C04385F8F5
S3150800CC90BA43C5F8BC4385EDF29A85EDF39A85ED5E
S3150800CCA0F49A85EDF59A85EDF69AC5F8E44385ED8F
S3150800CCB0FA9A85EDFB9A85EDFC9AC5F8F443C5F812
S3150800CCC0F84383ED009A6AF065FE554BCBF840347D
S3150800CCD00133CBF8483405F6EC23CBF85034514BE6
S3150800CCE0ABF84444ABF84C44ABF8544403F1600247
S3150800CCF025461D701D815B600C339342F9D1BBF844
S3150800CD000435DBF8C824484CCBF8B85423F4FF4361
S3150800CD1023F07F03ABF8043502F06042CBF8C82451
S3150800CD20DBF80425CBF8BC54C2F30E02CBF8042575
S3150800CD303E4ACBF8002500228BF8CB240BF2DC42C6
S3150800CD40002313600122CBF8E0240BF2E442A44648
S3150800CD5013600BF2EC424CF8103B13600BF5A36220
S3150800CD60002613600BF21C524FF0704713600BF548
S3150800CD70A462CCE9006713600BF23452C4E90E676B
S3150800CD8013600BF5A762C4E9146713600BF23C52F3
S3150800CD90CBF8D8541360CBF8E854CBF8F054CBF85A
S3150800CDA00855CBF82455CBF82855CBF82C55CBF895
S3150800CDB03055DBF840651E4BCBF848354FF4A0627A
S3150800CDC006F07F4300210BF2745020260027CBF88B
S3150800CDD04035C4E92A67CBF844558BF84355CBF858
S3150800CDE04C55CBF85055CBF85455CBF85C55CBF889
S3150800CDF06055CBF8705573F0B2FE002504F1B40205
S3150800CE0004F2B45104F5B46013462C4615E000BF8D
S3150800CE10D83C0A0890350A08C03C0A08983B0A0814
S3150800CE205265001058240010C0240010A83C0A08B7
S3150800CE30F03B0A08143399420AD09342FAD3834244
S3150800CE40F8D81C601C46143399424FF00105F4D1FA
S3150800CE500DB1CBF87045E449E44B0022A1F80C2348
S3150800CE608BF8782A03F5D870002103F8102C23F8DC
S3150800CE700F2C43F80C1C43F8081C43F8042C1961C2
S3150800CE80C3E9002224338342EFD1D9498BF8302CE9
S3150800CE90002301F8243B01330C2BFAD1D54BD64E8F
S3150800CEA09FEDE78A9FEDCC9B002403F5E4625C6165
S3150800CEB083ED1E9B9C619C609C62DC60DC621C614D
S3150800CEC0DC64DC611C651C621C665C629C639C6499
S3150800CED0DC655C6683F8684083F86940DE6683ED46
S3150800CEE01C8A83ED208A83F88C40C3E90C44C3E985
S3150800CEF01044C3E91544C3E92144C3F89040C3E983
S3150800CF00004498339A42D2D1BC4DDFF8309385F865
S3150800CF1058432822002105F5587073F020FEB84BB7
S3150800CF20C5F890339FEDAE7B30339FEDC50AC5F843
S3150800CF30B03305F56470032385EDE87B85EDEA7B60
S3150800CF4085F89433C5E9F444C5F8B863A5F8884369
S3150800CF5085F88A4385F8984385F89C43A5F8D8430D
S3150800CF6085EDF09B85EDF89B85EDED8A85EDF28ADA
S3150800CF7085EDF38AFCF744FC05F20C4080ED008A47
S3150800CF8005F5826080ED008A05F5836080ED008AEC
S3150800CF9005F21C40002780ED008A05F224404FF474
S3150800CFA08C62394680ED008A05F58660C5F8F84337
S3150800CFB0C5F80844C5F81444C5F82044C5F82844FB
S3150800CFC0C5F82C44C5F80044C5F8044485EDFA9B19
S3150800CFD085EDFC9B73F0C3FD4FF48C62394605F66C
S3150800CFE07420C5F8904873F0BAFD05F6D46080ED54
S3150800CFF0008A05F6D86080ED008A05F6DC6005F53E
S3150800D00080564FF001084FF40072394680ED008AC9
S3150800D01005F6E46085F8E08E73F0A1FD794AC6F856
S3150800D0200821C6F82421784AC6F8F420774AC6F8B3
S3150800D030F020774AC6F80C21764AC6F828214FF41C
S3150800D04000027549C6F8E42006F5F4704FF0FF3281
S3150800D050C6E95344C6E96E44C6E97044C6E9724453
S3150800D060C6E97444C6F8E84086F8EC40C6F820419C
S3150800D07086F8444186F85441C6F84021C6F83C81F2
S3150800D08086ED528A86ED768A86ED778A86ED788AE7
S3150800D09086ED798AFEF7C0F9604B86F8C8423A46AB
S3150800D0A0C6E9B044C6E9B584C6F8DC42C6F8884382
S3150800D0B0394606F534705A4CC6F88433C6F8E84142
S3150800D0C044F022FC574906F62820FEF7A5F95649EA
S3150800D0D0C6F8289A05F5D850FEF79EF95349C6F8BA
S3150800D0E0009B06F6D830FEF797F94F49C6F8D89B45
S3150800D0F006F54B60FEF790F906F6885AC6F8B09C16
S3150800D100464BCAF8B4300022CAF80480AAF8087058
S3150800D1108AF80A70CAF80C70CAF8B87050461146F0
S3150800D12044F0F2FB424B0AF5EB6A5345E8D103F6A5
S3150800D130C8064FF000084FF070493E48C5F800741D
S3150800D140C5F80474C6E90577A6F5A06546E9028917
S3150800D150C6E902893770002442F0B6F9364848F025
S3150800D1609DFF4FF0000A06F18C0030222146C6F8D2
S3150800D17038A0C6F83CA0C6F840A0C6F844A0C6F831
S3150800D1804CA0C6F860A0C6F864A0C6F868A0C6F8A1
S3150800D19074A0C6F878A0A5F82075C5F83475C5F842
S3150800D1A04875C5F85075C5F85475C5F85875C5F865
S3150800D1B05C75C5F86C75C5F87075C5F87C75C5F8E5
S3150800D1C08075A5F8887573F0CAFCC6F8C070C6E9FC
S3150800D1D03489C6E9388935E000000000000000F00F
S3150800D1E0000000000000000000000010902A001057
S3150800D1F0812A0010382C00100000C07F0030001073
S3150800D200003C0A08883C0A08A0350A08983C0A081F
S3150800D210A8350A08B0350A08B8350A08603C0A086D
S3150800D220483C0A08BC350A08C8350A08D4350A082D
S3150800D230385C0010E841001058410010703C0A089C
S3150800D24000000000C6F8C4A0C6F8C8A006F1E803A6
S3150800D250C5F8BC7506F51A76C3E900891C81103332
S3150800D260B342F9D11FED0A8AC5F8684705F5EE639A
S3150800D27083ED008A05F2747383ED008A05F5EF6382
S3150800D28083ED008A302205F2AC73002105F5F660BD
S3150800D290C5F8D845A5F8DC4583ED008A73F05FFC30
S3150800D2A005F5FC6282ED008A05F5FE6282ED008ACC
S3150800D2B005F2F47282ED008A05F5FF6282ED008AB6
S3150800D2C005F2FC7282ED008A05F604029FEDB09B1A
S3150800D2D082ED008A0122DFF8988385F82028B24A71
S3150800D2E0B24F85F8184888ED029B88ED049B88EDB7
S3150800D2F0008A019202F5F07942F01EFCDFF874C349
S3150800D300AB4BCCF800303B60A8F5B04348E90601C2
S3150800D310A3F8184BA3F6883188ED0E9BA54E9FED12
S3150800D320A67AC5F8304503F61C3803F6243383ED90
S3150800D330008AA24B3360A24EA24B3360A24EA34B87
S3150800D340336005F6280383ED008A05F5046383ED4B
S3150800D350008A05F6440383ED008A05F6480383ED43
S3150800D360008A05F64C0383ED008A05F2845383EDA3
S3150800D370007A0BF5A763C5F82C48C5F83048C5F8F8
S3150800D3802845F7EE007A83ED008A05F22C550BF254
S3150800D3903C53C8ED007AC5ED007AC3ED007A9FEDDF
S3150800D3A07E7B8CED047B9FED7E7BDFF8CCA2884AE2
S3150800D3B08CF8084024238CF80430762523238CED3A
S3150800D3C0069B8CF80C403B713C723C7381ED008ADD
S3150800D3D087ED047BCAF838537E4DDFF8A0E2CAF819
S3150800D3E0445387ED069B7C4D7C4F1461FF23C2F89E
S3150800D3F013407B4953757B487B4BCAF80050DFF8CE
S3150800D40080827A4D9560CEE900EECEF80840D46069
S3150800D41054601360C7E90144C7F800808AF83C43A2
S3150800D4206AF08EFA724973486AF08AFA019E3046A3
S3150800D43078366AF09BFAB145F9D1DFF848C26E4BE7
S3150800D4406E4FDFF844826E4ECCF81C8000254FF0F4
S3150800D4507E59CCE90035CCE90255CCF81090CCF8C9
S3150800D4601490CCF81890DFF824C2C7F81CC0654C95
S3150800D470C7F81090C7E90035C7E90255C7F81490F0
S3150800D480C7F81890604F614AF761C6E90035C6E9E2
S3150800D4900255C6F81090C6F81490C6F818905C4E57
S3150800D4A0DFF8ECE1E661C4E90035C4E90255594BF9
S3150800D4B0C4F81090C4F81490C4F81890564CC2F8E2
S3150800D4C000E05649D461C2E901555548D560C2F80D
S3150800D4D01090C2F81490C2F81890524AC3F800E0A7
S3150800D4E0DA61C3E90155DD60C3F81090C3F81490FA
S3150800D4F0C3F818906AF024FA4B494C484C4CDFF8AC
